{"abi":[{"inputs":[],"stateMutability":"nonpayable","type":"constructor"},{"inputs":[],"name":"admin","outputs":[{"internalType":"address","name":"","type":"address"}],"stateMutability":"view","type":"function"},{"inputs":[{"internalType":"string","name":"_name","type":"string"}],"name":"getAllContractAddress","outputs":[{"components":[{"internalType":"string","name":"name","type":"string"},{"internalType":"address","name":"contractAddress","type":"address"}],"internalType":"struct ContractDeployer.ContractAddress[]","name":"data","type":"tuple[]"}],"stateMutability":"view","type":"function"}],"devdoc":{"kind":"dev","methods":{},"version":1},"evm":{"assembly":"    /* \"ElectronicMedicalRecords.sol\":66:1263  contract ContractDeployer {... */\n  mstore(0x40, 0x80)\n    /* \"ElectronicMedicalRecords.sol\":297:1054  constructor() {... */\n  callvalue\n  dup1\n  iszero\n  tag_1\n  jumpi\n  0x00\n  dup1\n  revert\ntag_1:\n  pop\n    /* \"ElectronicMedicalRecords.sol\":330:340  msg.sender */\n  caller\n    /* \"ElectronicMedicalRecords.sol\":322:327  admin */\n  0x01\n  0x00\n    /* \"ElectronicMedicalRecords.sol\":322:340  admin = msg.sender */\n  0x0100\n  exp\n  dup2\n  sload\n  dup2\n  0xffffffffffffffffffffffffffffffffffffffff\n  mul\n  not\n  and\n  swap1\n  dup4\n  0xffffffffffffffffffffffffffffffffffffffff\n  and\n  mul\n  or\n  swap1\n  sstore\n  pop\n    /* \"ElectronicMedicalRecords.sol\":353:368  address patient */\n  0x00\n    /* \"ElectronicMedicalRecords.sol\":391:401  msg.sender */\n  caller\n    /* \"ElectronicMedicalRecords.sol\":379:402  new Patient(msg.sender) */\n  mload(0x40)\n  tag_4\n  swap1\n  tag_5\n  jump\t// in\ntag_4:\n  tag_6\n  swap2\n  swap1\n  tag_7\n  jump\t// in\ntag_6:\n  mload(0x40)\n  dup1\n  swap2\n  sub\n  swap1\n  0x00\n  create\n  dup1\n  iszero\n  dup1\n  iszero\n  tag_8\n  jumpi\n  returndatasize\n  0x00\n  dup1\n  returndatacopy\n  revert(0x00, returndatasize)\ntag_8:\n  pop\n    /* \"ElectronicMedicalRecords.sol\":353:403  address patient = address(new Patient(msg.sender)) */\n  swap1\n  pop\n    /* \"ElectronicMedicalRecords.sol\":414:436  bunchOfContractAddress */\n  0x00\n    /* \"ElectronicMedicalRecords.sol\":414:446  bunchOfContractAddress[\"pantek\"] */\n  mload(0x40)\n  tag_9\n  swap1\n  tag_10\n  jump\t// in\ntag_9:\n  swap1\n  dup2\n  mstore\n  0x20\n  add\n  mload(0x40)\n  dup1\n  swap2\n  sub\n  swap1\n  keccak256\n    /* \"ElectronicMedicalRecords.sol\":452:487  ContractAddress(\"patient\", patient) */\n  mload(0x40)\n  dup1\n  0x40\n  add\n  0x40\n  mstore\n  dup1\n  mload(0x40)\n  dup1\n  0x40\n  add\n  0x40\n  mstore\n  dup1\n  0x07\n  dup2\n  mstore\n  0x20\n  add\n  0x70617469656e7400000000000000000000000000000000000000000000000000\n  dup2\n  mstore\n  pop\n  dup2\n  mstore\n  0x20\n  add\n    /* \"ElectronicMedicalRecords.sol\":479:486  patient */\n  dup4\n    /* \"ElectronicMedicalRecords.sol\":452:487  ContractAddress(\"patient\", patient) */\n  0xffffffffffffffffffffffffffffffffffffffff\n  and\n  dup2\n  mstore\n  pop\n    /* \"ElectronicMedicalRecords.sol\":414:488  bunchOfContractAddress[\"pantek\"].push(ContractAddress(\"patient\", patient)) */\n  swap1\n  dup1\n  0x01\n  dup2\n  sload\n  add\n  dup1\n  dup3\n  sstore\n  dup1\n  swap2\n  pop\n  pop\n  0x01\n  swap1\n  sub\n  swap1\n  0x00\n  mstore\n  keccak256(0x00, 0x20)\n  swap1\n  0x02\n  mul\n  add\n  0x00\n  swap1\n  swap2\n  swap1\n  swap2\n  swap1\n  swap2\n  pop\n  0x00\n  dup3\n  add\n  mload\n  dup2\n  0x00\n  add\n  swap1\n  dup2\n  tag_12\n  swap2\n  swap1\n  tag_13\n  jump\t// in\ntag_12:\n  pop\n  0x20\n  dup3\n  add\n  mload\n  dup2\n  0x01\n  add\n  exp(0x0100, 0x00)\n  dup2\n  sload\n  dup2\n  0xffffffffffffffffffffffffffffffffffffffff\n  mul\n  not\n  and\n  swap1\n  dup4\n  0xffffffffffffffffffffffffffffffffffffffff\n  and\n  mul\n  or\n  swap1\n  sstore\n  pop\n  pop\n  pop\n    /* \"ElectronicMedicalRecords.sol\":501:527  address patientVerificator */\n  0x00\n    /* \"ElectronicMedicalRecords.sol\":561:571  msg.sender */\n  caller\n    /* \"ElectronicMedicalRecords.sol\":538:572  new PatientVerificator(msg.sender) */\n  mload(0x40)\n  tag_14\n  swap1\n  tag_15\n  jump\t// in\ntag_14:\n  tag_16\n  swap2\n  swap1\n  tag_7\n  jump\t// in\ntag_16:\n  mload(0x40)\n  dup1\n  swap2\n  sub\n  swap1\n  0x00\n  create\n  dup1\n  iszero\n  dup1\n  iszero\n  tag_17\n  jumpi\n  returndatasize\n  0x00\n  dup1\n  returndatacopy\n  revert(0x00, returndatasize)\ntag_17:\n  pop\n    /* \"ElectronicMedicalRecords.sol\":501:573  address patientVerificator = address(new PatientVerificator(msg.sender)) */\n  swap1\n  pop\n    /* \"ElectronicMedicalRecords.sol\":584:606  bunchOfContractAddress */\n  0x00\n    /* \"ElectronicMedicalRecords.sol\":584:616  bunchOfContractAddress[\"pantek\"] */\n  mload(0x40)\n  tag_18\n  swap1\n  tag_10\n  jump\t// in\ntag_18:\n  swap1\n  dup2\n  mstore\n  0x20\n  add\n  mload(0x40)\n  dup1\n  swap2\n  sub\n  swap1\n  keccak256\n    /* \"ElectronicMedicalRecords.sol\":622:679  ContractAddress(\"patientVerificator\", patientVerificator) */\n  mload(0x40)\n  dup1\n  0x40\n  add\n  0x40\n  mstore\n  dup1\n  mload(0x40)\n  dup1\n  0x40\n  add\n  0x40\n  mstore\n  dup1\n  0x12\n  dup2\n  mstore\n  0x20\n  add\n  0x70617469656e745665726966696361746f720000000000000000000000000000\n  dup2\n  mstore\n  pop\n  dup2\n  mstore\n  0x20\n  add\n    /* \"ElectronicMedicalRecords.sol\":660:678  patientVerificator */\n  dup4\n    /* \"ElectronicMedicalRecords.sol\":622:679  ContractAddress(\"patientVerificator\", patientVerificator) */\n  0xffffffffffffffffffffffffffffffffffffffff\n  and\n  dup2\n  mstore\n  pop\n    /* \"ElectronicMedicalRecords.sol\":584:680  bunchOfContractAddress[\"pantek\"].push(ContractAddress(\"patientVerificator\", patientVerificator)) */\n  swap1\n  dup1\n  0x01\n  dup2\n  sload\n  add\n  dup1\n  dup3\n  sstore\n  dup1\n  swap2\n  pop\n  pop\n  0x01\n  swap1\n  sub\n  swap1\n  0x00\n  mstore\n  keccak256(0x00, 0x20)\n  swap1\n  0x02\n  mul\n  add\n  0x00\n  swap1\n  swap2\n  swap1\n  swap2\n  swap1\n  swap2\n  pop\n  0x00\n  dup3\n  add\n  mload\n  dup2\n  0x00\n  add\n  swap1\n  dup2\n  tag_20\n  swap2\n  swap1\n  tag_13\n  jump\t// in\ntag_20:\n  pop\n  0x20\n  dup3\n  add\n  mload\n  dup2\n  0x01\n  add\n  exp(0x0100, 0x00)\n  dup2\n  sload\n  dup2\n  0xffffffffffffffffffffffffffffffffffffffff\n  mul\n  not\n  and\n  swap1\n  dup4\n  0xffffffffffffffffffffffffffffffffffffffff\n  and\n  mul\n  or\n  swap1\n  sstore\n  pop\n  pop\n  pop\n    /* \"ElectronicMedicalRecords.sol\":693:718  address doctorVerificator */\n  0x00\n    /* \"ElectronicMedicalRecords.sol\":751:761  msg.sender */\n  caller\n    /* \"ElectronicMedicalRecords.sol\":729:762  new DoctorVerificator(msg.sender) */\n  mload(0x40)\n  tag_21\n  swap1\n  tag_22\n  jump\t// in\ntag_21:\n  tag_23\n  swap2\n  swap1\n  tag_7\n  jump\t// in\ntag_23:\n  mload(0x40)\n  dup1\n  swap2\n  sub\n  swap1\n  0x00\n  create\n  dup1\n  iszero\n  dup1\n  iszero\n  tag_24\n  jumpi\n  returndatasize\n  0x00\n  dup1\n  returndatacopy\n  revert(0x00, returndatasize)\ntag_24:\n  pop\n    /* \"ElectronicMedicalRecords.sol\":693:763  address doctorVerificator = address(new DoctorVerificator(msg.sender)) */\n  swap1\n  pop\n    /* \"ElectronicMedicalRecords.sol\":774:796  bunchOfContractAddress */\n  0x00\n    /* \"ElectronicMedicalRecords.sol\":774:806  bunchOfContractAddress[\"pantek\"] */\n  mload(0x40)\n  tag_25\n  swap1\n  tag_10\n  jump\t// in\ntag_25:\n  swap1\n  dup2\n  mstore\n  0x20\n  add\n  mload(0x40)\n  dup1\n  swap2\n  sub\n  swap1\n  keccak256\n    /* \"ElectronicMedicalRecords.sol\":812:867  ContractAddress(\"doctorVerificator\", doctorVerificator) */\n  mload(0x40)\n  dup1\n  0x40\n  add\n  0x40\n  mstore\n  dup1\n  mload(0x40)\n  dup1\n  0x40\n  add\n  0x40\n  mstore\n  dup1\n  0x11\n  dup2\n  mstore\n  0x20\n  add\n  0x646f63746f725665726966696361746f72000000000000000000000000000000\n  dup2\n  mstore\n  pop\n  dup2\n  mstore\n  0x20\n  add\n    /* \"ElectronicMedicalRecords.sol\":849:866  doctorVerificator */\n  dup4\n    /* \"ElectronicMedicalRecords.sol\":812:867  ContractAddress(\"doctorVerificator\", doctorVerificator) */\n  0xffffffffffffffffffffffffffffffffffffffff\n  and\n  dup2\n  mstore\n  pop\n    /* \"ElectronicMedicalRecords.sol\":774:868  bunchOfContractAddress[\"pantek\"].push(ContractAddress(\"doctorVerificator\", doctorVerificator)) */\n  swap1\n  dup1\n  0x01\n  dup2\n  sload\n  add\n  dup1\n  dup3\n  sstore\n  dup1\n  swap2\n  pop\n  pop\n  0x01\n  swap1\n  sub\n  swap1\n  0x00\n  mstore\n  keccak256(0x00, 0x20)\n  swap1\n  0x02\n  mul\n  add\n  0x00\n  swap1\n  swap2\n  swap1\n  swap2\n  swap1\n  swap2\n  pop\n  0x00\n  dup3\n  add\n  mload\n  dup2\n  0x00\n  add\n  swap1\n  dup2\n  tag_27\n  swap2\n  swap1\n  tag_13\n  jump\t// in\ntag_27:\n  pop\n  0x20\n  dup3\n  add\n  mload\n  dup2\n  0x01\n  add\n  exp(0x0100, 0x00)\n  dup2\n  sload\n  dup2\n  0xffffffffffffffffffffffffffffffffffffffff\n  mul\n  not\n  and\n  swap1\n  dup4\n  0xffffffffffffffffffffffffffffffffffffffff\n  and\n  mul\n  or\n  swap1\n  sstore\n  pop\n  pop\n  pop\n    /* \"ElectronicMedicalRecords.sol\":881:903  address doctorRelation */\n  0x00\n    /* \"ElectronicMedicalRecords.sol\":933:943  msg.sender */\n  caller\n    /* \"ElectronicMedicalRecords.sol\":914:944  new DoctorRelation(msg.sender) */\n  mload(0x40)\n  tag_28\n  swap1\n  tag_29\n  jump\t// in\ntag_28:\n  tag_30\n  swap2\n  swap1\n  tag_7\n  jump\t// in\ntag_30:\n  mload(0x40)\n  dup1\n  swap2\n  sub\n  swap1\n  0x00\n  create\n  dup1\n  iszero\n  dup1\n  iszero\n  tag_31\n  jumpi\n  returndatasize\n  0x00\n  dup1\n  returndatacopy\n  revert(0x00, returndatasize)\ntag_31:\n  pop\n    /* \"ElectronicMedicalRecords.sol\":881:945  address doctorRelation = address(new DoctorRelation(msg.sender)) */\n  swap1\n  pop\n    /* \"ElectronicMedicalRecords.sol\":956:978  bunchOfContractAddress */\n  0x00\n    /* \"ElectronicMedicalRecords.sol\":956:988  bunchOfContractAddress[\"pantek\"] */\n  mload(0x40)\n  tag_32\n  swap1\n  tag_10\n  jump\t// in\ntag_32:\n  swap1\n  dup2\n  mstore\n  0x20\n  add\n  mload(0x40)\n  dup1\n  swap2\n  sub\n  swap1\n  keccak256\n    /* \"ElectronicMedicalRecords.sol\":994:1043  ContractAddress(\"doctorRelation\", doctorRelation) */\n  mload(0x40)\n  dup1\n  0x40\n  add\n  0x40\n  mstore\n  dup1\n  mload(0x40)\n  dup1\n  0x40\n  add\n  0x40\n  mstore\n  dup1\n  0x0e\n  dup2\n  mstore\n  0x20\n  add\n  0x646f63746f7252656c6174696f6e000000000000000000000000000000000000\n  dup2\n  mstore\n  pop\n  dup2\n  mstore\n  0x20\n  add\n    /* \"ElectronicMedicalRecords.sol\":1028:1042  doctorRelation */\n  dup4\n    /* \"ElectronicMedicalRecords.sol\":994:1043  ContractAddress(\"doctorRelation\", doctorRelation) */\n  0xffffffffffffffffffffffffffffffffffffffff\n  and\n  dup2\n  mstore\n  pop\n    /* \"ElectronicMedicalRecords.sol\":956:1044  bunchOfContractAddress[\"pantek\"].push(ContractAddress(\"doctorRelation\", doctorRelation)) */\n  swap1\n  dup1\n  0x01\n  dup2\n  sload\n  add\n  dup1\n  dup3\n  sstore\n  dup1\n  swap2\n  pop\n  pop\n  0x01\n  swap1\n  sub\n  swap1\n  0x00\n  mstore\n  keccak256(0x00, 0x20)\n  swap1\n  0x02\n  mul\n  add\n  0x00\n  swap1\n  swap2\n  swap1\n  swap2\n  swap1\n  swap2\n  pop\n  0x00\n  dup3\n  add\n  mload\n  dup2\n  0x00\n  add\n  swap1\n  dup2\n  tag_34\n  swap2\n  swap1\n  tag_13\n  jump\t// in\ntag_34:\n  pop\n  0x20\n  dup3\n  add\n  mload\n  dup2\n  0x01\n  add\n  exp(0x0100, 0x00)\n  dup2\n  sload\n  dup2\n  0xffffffffffffffffffffffffffffffffffffffff\n  mul\n  not\n  and\n  swap1\n  dup4\n  0xffffffffffffffffffffffffffffffffffffffff\n  and\n  mul\n  or\n  swap1\n  sstore\n  pop\n  pop\n  pop\n    /* \"ElectronicMedicalRecords.sol\":311:1054  {... */\n  pop\n  pop\n  pop\n  pop\n    /* \"ElectronicMedicalRecords.sol\":66:1263  contract ContractDeployer {... */\n  jump(tag_35)\ntag_5:\n  dataSize(sub_1)\n  dup1\n  dataOffset(sub_1)\n  dup4\n  codecopy\n  add\n  swap1\n  jump\t// out\ntag_15:\n  dataSize(sub_2)\n  dup1\n  dataOffset(sub_2)\n  dup4\n  codecopy\n  add\n  swap1\n  jump\t// out\ntag_22:\n  dataSize(sub_3)\n  dup1\n  dataOffset(sub_3)\n  dup4\n  codecopy\n  add\n  swap1\n  jump\t// out\ntag_29:\n  dataSize(sub_4)\n  dup1\n  dataOffset(sub_4)\n  dup4\n  codecopy\n  add\n  swap1\n  jump\t// out\n    /* \"#utility.yul\":7:133   */\ntag_36:\n    /* \"#utility.yul\":44:51   */\n  0x00\n    /* \"#utility.yul\":84:126   */\n  0xffffffffffffffffffffffffffffffffffffffff\n    /* \"#utility.yul\":77:82   */\n  dup3\n    /* \"#utility.yul\":73:127   */\n  and\n    /* \"#utility.yul\":62:127   */\n  swap1\n  pop\n    /* \"#utility.yul\":7:133   */\n  swap2\n  swap1\n  pop\n  jump\t// out\n    /* \"#utility.yul\":139:235   */\ntag_37:\n    /* \"#utility.yul\":176:183   */\n  0x00\n    /* \"#utility.yul\":205:229   */\n  tag_65\n    /* \"#utility.yul\":223:228   */\n  dup3\n    /* \"#utility.yul\":205:229   */\n  tag_36\n  jump\t// in\ntag_65:\n    /* \"#utility.yul\":194:229   */\n  swap1\n  pop\n    /* \"#utility.yul\":139:235   */\n  swap2\n  swap1\n  pop\n  jump\t// out\n    /* \"#utility.yul\":241:359   */\ntag_38:\n    /* \"#utility.yul\":328:352   */\n  tag_67\n    /* \"#utility.yul\":346:351   */\n  dup2\n    /* \"#utility.yul\":328:352   */\n  tag_37\n  jump\t// in\ntag_67:\n    /* \"#utility.yul\":323:326   */\n  dup3\n    /* \"#utility.yul\":316:353   */\n  mstore\n    /* \"#utility.yul\":241:359   */\n  pop\n  pop\n  jump\t// out\n    /* \"#utility.yul\":365:587   */\ntag_7:\n    /* \"#utility.yul\":458:462   */\n  0x00\n    /* \"#utility.yul\":496:498   */\n  0x20\n    /* \"#utility.yul\":485:494   */\n  dup3\n    /* \"#utility.yul\":481:499   */\n  add\n    /* \"#utility.yul\":473:499   */\n  swap1\n  pop\n    /* \"#utility.yul\":509:580   */\n  tag_69\n    /* \"#utility.yul\":577:578   */\n  0x00\n    /* \"#utility.yul\":566:575   */\n  dup4\n    /* \"#utility.yul\":562:579   */\n  add\n    /* \"#utility.yul\":553:559   */\n  dup5\n    /* \"#utility.yul\":509:580   */\n  tag_38\n  jump\t// in\ntag_69:\n    /* \"#utility.yul\":365:587   */\n  swap3\n  swap2\n  pop\n  pop\n  jump\t// out\n    /* \"#utility.yul\":593:741   */\ntag_39:\n    /* \"#utility.yul\":695:706   */\n  0x00\n    /* \"#utility.yul\":732:735   */\n  dup2\n    /* \"#utility.yul\":717:735   */\n  swap1\n  pop\n    /* \"#utility.yul\":593:741   */\n  swap3\n  swap2\n  pop\n  pop\n  jump\t// out\n    /* \"#utility.yul\":747:903   */\ntag_40:\n    /* \"#utility.yul\":887:895   */\n  0x70616e74656b0000000000000000000000000000000000000000000000000000\n    /* \"#utility.yul\":883:884   */\n  0x00\n    /* \"#utility.yul\":875:881   */\n  dup3\n    /* \"#utility.yul\":871:885   */\n  add\n    /* \"#utility.yul\":864:896   */\n  mstore\n    /* \"#utility.yul\":747:903   */\n  pop\n  jump\t// out\n    /* \"#utility.yul\":909:1309   */\ntag_41:\n    /* \"#utility.yul\":1069:1072   */\n  0x00\n    /* \"#utility.yul\":1090:1174   */\n  tag_73\n    /* \"#utility.yul\":1172:1173   */\n  0x06\n    /* \"#utility.yul\":1167:1170   */\n  dup4\n    /* \"#utility.yul\":1090:1174   */\n  tag_39\n  jump\t// in\ntag_73:\n    /* \"#utility.yul\":1083:1174   */\n  swap2\n  pop\n    /* \"#utility.yul\":1183:1276   */\n  tag_74\n    /* \"#utility.yul\":1272:1275   */\n  dup3\n    /* \"#utility.yul\":1183:1276   */\n  tag_40\n  jump\t// in\ntag_74:\n    /* \"#utility.yul\":1301:1302   */\n  0x06\n    /* \"#utility.yul\":1296:1299   */\n  dup3\n    /* \"#utility.yul\":1292:1303   */\n  add\n    /* \"#utility.yul\":1285:1303   */\n  swap1\n  pop\n    /* \"#utility.yul\":909:1309   */\n  swap2\n  swap1\n  pop\n  jump\t// out\n    /* \"#utility.yul\":1315:1696   */\ntag_10:\n    /* \"#utility.yul\":1500:1503   */\n  0x00\n    /* \"#utility.yul\":1522:1670   */\n  tag_76\n    /* \"#utility.yul\":1666:1669   */\n  dup3\n    /* \"#utility.yul\":1522:1670   */\n  tag_41\n  jump\t// in\ntag_76:\n    /* \"#utility.yul\":1515:1670   */\n  swap2\n  pop\n    /* \"#utility.yul\":1687:1690   */\n  dup2\n    /* \"#utility.yul\":1680:1690   */\n  swap1\n  pop\n    /* \"#utility.yul\":1315:1696   */\n  swap2\n  swap1\n  pop\n  jump\t// out\n    /* \"#utility.yul\":1702:1801   */\ntag_42:\n    /* \"#utility.yul\":1754:1760   */\n  0x00\n    /* \"#utility.yul\":1788:1793   */\n  dup2\n    /* \"#utility.yul\":1782:1794   */\n  mload\n    /* \"#utility.yul\":1772:1794   */\n  swap1\n  pop\n    /* \"#utility.yul\":1702:1801   */\n  swap2\n  swap1\n  pop\n  jump\t// out\n    /* \"#utility.yul\":1807:1987   */\ntag_43:\n    /* \"#utility.yul\":1855:1932   */\n  0x4e487b7100000000000000000000000000000000000000000000000000000000\n    /* \"#utility.yul\":1852:1853   */\n  0x00\n    /* \"#utility.yul\":1845:1933   */\n  mstore\n    /* \"#utility.yul\":1952:1956   */\n  0x41\n    /* \"#utility.yul\":1949:1950   */\n  0x04\n    /* \"#utility.yul\":1942:1957   */\n  mstore\n    /* \"#utility.yul\":1976:1980   */\n  0x24\n    /* \"#utility.yul\":1973:1974   */\n  0x00\n    /* \"#utility.yul\":1966:1981   */\n  revert\n    /* \"#utility.yul\":1993:2173   */\ntag_44:\n    /* \"#utility.yul\":2041:2118   */\n  0x4e487b7100000000000000000000000000000000000000000000000000000000\n    /* \"#utility.yul\":2038:2039   */\n  0x00\n    /* \"#utility.yul\":2031:2119   */\n  mstore\n    /* \"#utility.yul\":2138:2142   */\n  0x22\n    /* \"#utility.yul\":2135:2136   */\n  0x04\n    /* \"#utility.yul\":2128:2143   */\n  mstore\n    /* \"#utility.yul\":2162:2166   */\n  0x24\n    /* \"#utility.yul\":2159:2160   */\n  0x00\n    /* \"#utility.yul\":2152:2167   */\n  revert\n    /* \"#utility.yul\":2179:2499   */\ntag_45:\n    /* \"#utility.yul\":2223:2229   */\n  0x00\n    /* \"#utility.yul\":2260:2261   */\n  0x02\n    /* \"#utility.yul\":2254:2258   */\n  dup3\n    /* \"#utility.yul\":2250:2262   */\n  div\n    /* \"#utility.yul\":2240:2262   */\n  swap1\n  pop\n    /* \"#utility.yul\":2307:2308   */\n  0x01\n    /* \"#utility.yul\":2301:2305   */\n  dup3\n    /* \"#utility.yul\":2297:2309   */\n  and\n    /* \"#utility.yul\":2328:2346   */\n  dup1\n    /* \"#utility.yul\":2318:2399   */\n  tag_81\n  jumpi\n    /* \"#utility.yul\":2384:2388   */\n  0x7f\n    /* \"#utility.yul\":2376:2382   */\n  dup3\n    /* \"#utility.yul\":2372:2389   */\n  and\n    /* \"#utility.yul\":2362:2389   */\n  swap2\n  pop\n    /* \"#utility.yul\":2318:2399   */\ntag_81:\n    /* \"#utility.yul\":2446:2448   */\n  0x20\n    /* \"#utility.yul\":2438:2444   */\n  dup3\n    /* \"#utility.yul\":2435:2449   */\n  lt\n    /* \"#utility.yul\":2415:2433   */\n  dup2\n    /* \"#utility.yul\":2412:2450   */\n  sub\n    /* \"#utility.yul\":2409:2493   */\n  tag_82\n  jumpi\n    /* \"#utility.yul\":2465:2483   */\n  tag_83\n  tag_44\n  jump\t// in\ntag_83:\n    /* \"#utility.yul\":2409:2493   */\ntag_82:\n    /* \"#utility.yul\":2230:2499   */\n  pop\n    /* \"#utility.yul\":2179:2499   */\n  swap2\n  swap1\n  pop\n  jump\t// out\n    /* \"#utility.yul\":2505:2646   */\ntag_46:\n    /* \"#utility.yul\":2554:2558   */\n  0x00\n    /* \"#utility.yul\":2577:2580   */\n  dup2\n    /* \"#utility.yul\":2569:2580   */\n  swap1\n  pop\n    /* \"#utility.yul\":2600:2603   */\n  dup2\n    /* \"#utility.yul\":2597:2598   */\n  0x00\n    /* \"#utility.yul\":2590:2604   */\n  mstore\n    /* \"#utility.yul\":2634:2638   */\n  0x20\n    /* \"#utility.yul\":2631:2632   */\n  0x00\n    /* \"#utility.yul\":2621:2639   */\n  keccak256\n    /* \"#utility.yul\":2613:2639   */\n  swap1\n  pop\n    /* \"#utility.yul\":2505:2646   */\n  swap2\n  swap1\n  pop\n  jump\t// out\n    /* \"#utility.yul\":2652:2745   */\ntag_47:\n    /* \"#utility.yul\":2689:2695   */\n  0x00\n    /* \"#utility.yul\":2736:2738   */\n  0x20\n    /* \"#utility.yul\":2731:2733   */\n  0x1f\n    /* \"#utility.yul\":2724:2729   */\n  dup4\n    /* \"#utility.yul\":2720:2734   */\n  add\n    /* \"#utility.yul\":2716:2739   */\n  div\n    /* \"#utility.yul\":2706:2739   */\n  swap1\n  pop\n    /* \"#utility.yul\":2652:2745   */\n  swap2\n  swap1\n  pop\n  jump\t// out\n    /* \"#utility.yul\":2751:2858   */\ntag_48:\n    /* \"#utility.yul\":2795:2803   */\n  0x00\n    /* \"#utility.yul\":2845:2850   */\n  dup3\n    /* \"#utility.yul\":2839:2843   */\n  dup3\n    /* \"#utility.yul\":2835:2851   */\n  shl\n    /* \"#utility.yul\":2814:2851   */\n  swap1\n  pop\n    /* \"#utility.yul\":2751:2858   */\n  swap3\n  swap2\n  pop\n  pop\n  jump\t// out\n    /* \"#utility.yul\":2864:3257   */\ntag_49:\n    /* \"#utility.yul\":2933:2939   */\n  0x00\n    /* \"#utility.yul\":2983:2984   */\n  0x08\n    /* \"#utility.yul\":2971:2981   */\n  dup4\n    /* \"#utility.yul\":2967:2985   */\n  mul\n    /* \"#utility.yul\":3006:3103   */\n  tag_88\n    /* \"#utility.yul\":3036:3102   */\n  0xffffffffffffffffffffffffffffffffffffffffffffffffffffffffffffffff\n    /* \"#utility.yul\":3025:3034   */\n  dup3\n    /* \"#utility.yul\":3006:3103   */\n  tag_48\n  jump\t// in\ntag_88:\n    /* \"#utility.yul\":3124:3163   */\n  tag_89\n    /* \"#utility.yul\":3154:3162   */\n  dup7\n    /* \"#utility.yul\":3143:3152   */\n  dup4\n    /* \"#utility.yul\":3124:3163   */\n  tag_48\n  jump\t// in\ntag_89:\n    /* \"#utility.yul\":3112:3163   */\n  swap6\n  pop\n    /* \"#utility.yul\":3196:3200   */\n  dup1\n    /* \"#utility.yul\":3192:3201   */\n  not\n    /* \"#utility.yul\":3185:3190   */\n  dup5\n    /* \"#utility.yul\":3181:3202   */\n  and\n    /* \"#utility.yul\":3172:3202   */\n  swap4\n  pop\n    /* \"#utility.yul\":3245:3249   */\n  dup1\n    /* \"#utility.yul\":3235:3243   */\n  dup7\n    /* \"#utility.yul\":3231:3250   */\n  and\n    /* \"#utility.yul\":3224:3229   */\n  dup5\n    /* \"#utility.yul\":3221:3251   */\n  or\n    /* \"#utility.yul\":3211:3251   */\n  swap3\n  pop\n    /* \"#utility.yul\":2940:3257   */\n  pop\n  pop\n    /* \"#utility.yul\":2864:3257   */\n  swap4\n  swap3\n  pop\n  pop\n  pop\n  jump\t// out\n    /* \"#utility.yul\":3263:3340   */\ntag_50:\n    /* \"#utility.yul\":3300:3307   */\n  0x00\n    /* \"#utility.yul\":3329:3334   */\n  dup2\n    /* \"#utility.yul\":3318:3334   */\n  swap1\n  pop\n    /* \"#utility.yul\":3263:3340   */\n  swap2\n  swap1\n  pop\n  jump\t// out\n    /* \"#utility.yul\":3346:3406   */\ntag_51:\n    /* \"#utility.yul\":3374:3377   */\n  0x00\n    /* \"#utility.yul\":3395:3400   */\n  dup2\n    /* \"#utility.yul\":3388:3400   */\n  swap1\n  pop\n    /* \"#utility.yul\":3346:3406   */\n  swap2\n  swap1\n  pop\n  jump\t// out\n    /* \"#utility.yul\":3412:3554   */\ntag_52:\n    /* \"#utility.yul\":3462:3471   */\n  0x00\n    /* \"#utility.yul\":3495:3548   */\n  tag_93\n    /* \"#utility.yul\":3513:3547   */\n  tag_94\n    /* \"#utility.yul\":3522:3546   */\n  tag_95\n    /* \"#utility.yul\":3540:3545   */\n  dup5\n    /* \"#utility.yul\":3522:3546   */\n  tag_50\n  jump\t// in\ntag_95:\n    /* \"#utility.yul\":3513:3547   */\n  tag_51\n  jump\t// in\ntag_94:\n    /* \"#utility.yul\":3495:3548   */\n  tag_50\n  jump\t// in\ntag_93:\n    /* \"#utility.yul\":3482:3548   */\n  swap1\n  pop\n    /* \"#utility.yul\":3412:3554   */\n  swap2\n  swap1\n  pop\n  jump\t// out\n    /* \"#utility.yul\":3560:3635   */\ntag_53:\n    /* \"#utility.yul\":3603:3606   */\n  0x00\n    /* \"#utility.yul\":3624:3629   */\n  dup2\n    /* \"#utility.yul\":3617:3629   */\n  swap1\n  pop\n    /* \"#utility.yul\":3560:3635   */\n  swap2\n  swap1\n  pop\n  jump\t// out\n    /* \"#utility.yul\":3641:3910   */\ntag_54:\n    /* \"#utility.yul\":3751:3790   */\n  tag_98\n    /* \"#utility.yul\":3782:3789   */\n  dup4\n    /* \"#utility.yul\":3751:3790   */\n  tag_52\n  jump\t// in\ntag_98:\n    /* \"#utility.yul\":3812:3903   */\n  tag_99\n    /* \"#utility.yul\":3861:3902   */\n  tag_100\n    /* \"#utility.yul\":3885:3901   */\n  dup3\n    /* \"#utility.yul\":3861:3902   */\n  tag_53\n  jump\t// in\ntag_100:\n    /* \"#utility.yul\":3853:3859   */\n  dup5\n    /* \"#utility.yul\":3846:3850   */\n  dup5\n    /* \"#utility.yul\":3840:3851   */\n  sload\n    /* \"#utility.yul\":3812:3903   */\n  tag_49\n  jump\t// in\ntag_99:\n    /* \"#utility.yul\":3806:3810   */\n  dup3\n    /* \"#utility.yul\":3799:3904   */\n  sstore\n    /* \"#utility.yul\":3717:3910   */\n  pop\n    /* \"#utility.yul\":3641:3910   */\n  pop\n  pop\n  pop\n  jump\t// out\n    /* \"#utility.yul\":3916:3989   */\ntag_55:\n    /* \"#utility.yul\":3961:3964   */\n  0x00\n    /* \"#utility.yul\":3916:3989   */\n  swap1\n  jump\t// out\n    /* \"#utility.yul\":3995:4184   */\ntag_56:\n    /* \"#utility.yul\":4072:4104   */\n  tag_103\n  tag_55\n  jump\t// in\ntag_103:\n    /* \"#utility.yul\":4113:4178   */\n  tag_104\n    /* \"#utility.yul\":4171:4177   */\n  dup2\n    /* \"#utility.yul\":4163:4169   */\n  dup5\n    /* \"#utility.yul\":4157:4161   */\n  dup5\n    /* \"#utility.yul\":4113:4178   */\n  tag_54\n  jump\t// in\ntag_104:\n    /* \"#utility.yul\":4048:4184   */\n  pop\n    /* \"#utility.yul\":3995:4184   */\n  pop\n  pop\n  jump\t// out\n    /* \"#utility.yul\":4190:4376   */\ntag_57:\n    /* \"#utility.yul\":4250:4370   */\ntag_106:\n    /* \"#utility.yul\":4267:4270   */\n  dup2\n    /* \"#utility.yul\":4260:4265   */\n  dup2\n    /* \"#utility.yul\":4257:4271   */\n  lt\n    /* \"#utility.yul\":4250:4370   */\n  iszero\n  tag_108\n  jumpi\n    /* \"#utility.yul\":4321:4360   */\n  tag_109\n    /* \"#utility.yul\":4358:4359   */\n  0x00\n    /* \"#utility.yul\":4351:4356   */\n  dup3\n    /* \"#utility.yul\":4321:4360   */\n  tag_56\n  jump\t// in\ntag_109:\n    /* \"#utility.yul\":4294:4295   */\n  0x01\n    /* \"#utility.yul\":4287:4292   */\n  dup2\n    /* \"#utility.yul\":4283:4296   */\n  add\n    /* \"#utility.yul\":4274:4296   */\n  swap1\n  pop\n    /* \"#utility.yul\":4250:4370   */\n  jump(tag_106)\ntag_108:\n    /* \"#utility.yul\":4190:4376   */\n  pop\n  pop\n  jump\t// out\n    /* \"#utility.yul\":4382:4925   */\ntag_58:\n    /* \"#utility.yul\":4483:4485   */\n  0x1f\n    /* \"#utility.yul\":4478:4481   */\n  dup3\n    /* \"#utility.yul\":4475:4486   */\n  gt\n    /* \"#utility.yul\":4472:4918   */\n  iszero\n  tag_111\n  jumpi\n    /* \"#utility.yul\":4517:4555   */\n  tag_112\n    /* \"#utility.yul\":4549:4554   */\n  dup2\n    /* \"#utility.yul\":4517:4555   */\n  tag_46\n  jump\t// in\ntag_112:\n    /* \"#utility.yul\":4601:4630   */\n  tag_113\n    /* \"#utility.yul\":4619:4629   */\n  dup5\n    /* \"#utility.yul\":4601:4630   */\n  tag_47\n  jump\t// in\ntag_113:\n    /* \"#utility.yul\":4591:4599   */\n  dup2\n    /* \"#utility.yul\":4587:4631   */\n  add\n    /* \"#utility.yul\":4784:4786   */\n  0x20\n    /* \"#utility.yul\":4772:4782   */\n  dup6\n    /* \"#utility.yul\":4769:4787   */\n  lt\n    /* \"#utility.yul\":4766:4815   */\n  iszero\n  tag_114\n  jumpi\n    /* \"#utility.yul\":4805:4813   */\n  dup2\n    /* \"#utility.yul\":4790:4813   */\n  swap1\n  pop\n    /* \"#utility.yul\":4766:4815   */\ntag_114:\n    /* \"#utility.yul\":4828:4908   */\n  tag_115\n    /* \"#utility.yul\":4884:4906   */\n  tag_116\n    /* \"#utility.yul\":4902:4905   */\n  dup6\n    /* \"#utility.yul\":4884:4906   */\n  tag_47\n  jump\t// in\ntag_116:\n    /* \"#utility.yul\":4874:4882   */\n  dup4\n    /* \"#utility.yul\":4870:4907   */\n  add\n    /* \"#utility.yul\":4857:4868   */\n  dup3\n    /* \"#utility.yul\":4828:4908   */\n  tag_57\n  jump\t// in\ntag_115:\n    /* \"#utility.yul\":4487:4918   */\n  pop\n  pop\n    /* \"#utility.yul\":4472:4918   */\ntag_111:\n    /* \"#utility.yul\":4382:4925   */\n  pop\n  pop\n  pop\n  jump\t// out\n    /* \"#utility.yul\":4931:5048   */\ntag_59:\n    /* \"#utility.yul\":4985:4993   */\n  0x00\n    /* \"#utility.yul\":5035:5040   */\n  dup3\n    /* \"#utility.yul\":5029:5033   */\n  dup3\n    /* \"#utility.yul\":5025:5041   */\n  shr\n    /* \"#utility.yul\":5004:5041   */\n  swap1\n  pop\n    /* \"#utility.yul\":4931:5048   */\n  swap3\n  swap2\n  pop\n  pop\n  jump\t// out\n    /* \"#utility.yul\":5054:5223   */\ntag_60:\n    /* \"#utility.yul\":5098:5104   */\n  0x00\n    /* \"#utility.yul\":5131:5182   */\n  tag_119\n    /* \"#utility.yul\":5179:5180   */\n  0x00\n    /* \"#utility.yul\":5175:5181   */\n  not\n    /* \"#utility.yul\":5167:5172   */\n  dup5\n    /* \"#utility.yul\":5164:5165   */\n  0x08\n    /* \"#utility.yul\":5160:5173   */\n  mul\n    /* \"#utility.yul\":5131:5182   */\n  tag_59\n  jump\t// in\ntag_119:\n    /* \"#utility.yul\":5127:5183   */\n  not\n    /* \"#utility.yul\":5212:5216   */\n  dup1\n    /* \"#utility.yul\":5206:5210   */\n  dup4\n    /* \"#utility.yul\":5202:5217   */\n  and\n    /* \"#utility.yul\":5192:5217   */\n  swap2\n  pop\n    /* \"#utility.yul\":5105:5223   */\n  pop\n    /* \"#utility.yul\":5054:5223   */\n  swap3\n  swap2\n  pop\n  pop\n  jump\t// out\n    /* \"#utility.yul\":5228:5523   */\ntag_61:\n    /* \"#utility.yul\":5304:5308   */\n  0x00\n    /* \"#utility.yul\":5450:5479   */\n  tag_121\n    /* \"#utility.yul\":5475:5478   */\n  dup4\n    /* \"#utility.yul\":5469:5473   */\n  dup4\n    /* \"#utility.yul\":5450:5479   */\n  tag_60\n  jump\t// in\ntag_121:\n    /* \"#utility.yul\":5442:5479   */\n  swap2\n  pop\n    /* \"#utility.yul\":5512:5515   */\n  dup3\n    /* \"#utility.yul\":5509:5510   */\n  0x02\n    /* \"#utility.yul\":5505:5516   */\n  mul\n    /* \"#utility.yul\":5499:5503   */\n  dup3\n    /* \"#utility.yul\":5496:5517   */\n  or\n    /* \"#utility.yul\":5488:5517   */\n  swap1\n  pop\n    /* \"#utility.yul\":5228:5523   */\n  swap3\n  swap2\n  pop\n  pop\n  jump\t// out\n    /* \"#utility.yul\":5528:6923   */\ntag_13:\n    /* \"#utility.yul\":5645:5682   */\n  tag_123\n    /* \"#utility.yul\":5678:5681   */\n  dup3\n    /* \"#utility.yul\":5645:5682   */\n  tag_42\n  jump\t// in\ntag_123:\n    /* \"#utility.yul\":5747:5765   */\n  0xffffffffffffffff\n    /* \"#utility.yul\":5739:5745   */\n  dup2\n    /* \"#utility.yul\":5736:5766   */\n  gt\n    /* \"#utility.yul\":5733:5789   */\n  iszero\n  tag_124\n  jumpi\n    /* \"#utility.yul\":5769:5787   */\n  tag_125\n  tag_43\n  jump\t// in\ntag_125:\n    /* \"#utility.yul\":5733:5789   */\ntag_124:\n    /* \"#utility.yul\":5813:5851   */\n  tag_126\n    /* \"#utility.yul\":5845:5849   */\n  dup3\n    /* \"#utility.yul\":5839:5850   */\n  sload\n    /* \"#utility.yul\":5813:5851   */\n  tag_45\n  jump\t// in\ntag_126:\n    /* \"#utility.yul\":5898:5965   */\n  tag_127\n    /* \"#utility.yul\":5958:5964   */\n  dup3\n    /* \"#utility.yul\":5950:5956   */\n  dup3\n    /* \"#utility.yul\":5944:5948   */\n  dup6\n    /* \"#utility.yul\":5898:5965   */\n  tag_58\n  jump\t// in\ntag_127:\n    /* \"#utility.yul\":5992:5993   */\n  0x00\n    /* \"#utility.yul\":6016:6020   */\n  0x20\n    /* \"#utility.yul\":6003:6020   */\n  swap1\n  pop\n    /* \"#utility.yul\":6048:6050   */\n  0x1f\n    /* \"#utility.yul\":6040:6046   */\n  dup4\n    /* \"#utility.yul\":6037:6051   */\n  gt\n    /* \"#utility.yul\":6065:6066   */\n  0x01\n    /* \"#utility.yul\":6060:6678   */\n  dup2\n  eq\n  tag_129\n  jumpi\n    /* \"#utility.yul\":6722:6723   */\n  0x00\n    /* \"#utility.yul\":6739:6745   */\n  dup5\n    /* \"#utility.yul\":6736:6813   */\n  iszero\n  tag_130\n  jumpi\n    /* \"#utility.yul\":6788:6797   */\n  dup3\n    /* \"#utility.yul\":6783:6786   */\n  dup8\n    /* \"#utility.yul\":6779:6798   */\n  add\n    /* \"#utility.yul\":6773:6799   */\n  mload\n    /* \"#utility.yul\":6764:6799   */\n  swap1\n  pop\n    /* \"#utility.yul\":6736:6813   */\ntag_130:\n    /* \"#utility.yul\":6839:6906   */\n  tag_131\n    /* \"#utility.yul\":6899:6905   */\n  dup6\n    /* \"#utility.yul\":6892:6897   */\n  dup3\n    /* \"#utility.yul\":6839:6906   */\n  tag_61\n  jump\t// in\ntag_131:\n    /* \"#utility.yul\":6833:6837   */\n  dup7\n    /* \"#utility.yul\":6826:6907   */\n  sstore\n    /* \"#utility.yul\":6695:6917   */\n  pop\n    /* \"#utility.yul\":6030:6917   */\n  jump(tag_128)\n    /* \"#utility.yul\":6060:6678   */\ntag_129:\n    /* \"#utility.yul\":6112:6116   */\n  0x1f\n    /* \"#utility.yul\":6108:6117   */\n  not\n    /* \"#utility.yul\":6100:6106   */\n  dup5\n    /* \"#utility.yul\":6096:6118   */\n  and\n    /* \"#utility.yul\":6146:6183   */\n  tag_132\n    /* \"#utility.yul\":6178:6182   */\n  dup7\n    /* \"#utility.yul\":6146:6183   */\n  tag_46\n  jump\t// in\ntag_132:\n    /* \"#utility.yul\":6205:6206   */\n  0x00\n    /* \"#utility.yul\":6219:6427   */\ntag_133:\n    /* \"#utility.yul\":6233:6240   */\n  dup3\n    /* \"#utility.yul\":6230:6231   */\n  dup2\n    /* \"#utility.yul\":6227:6241   */\n  lt\n    /* \"#utility.yul\":6219:6427   */\n  iszero\n  tag_135\n  jumpi\n    /* \"#utility.yul\":6312:6321   */\n  dup5\n    /* \"#utility.yul\":6307:6310   */\n  dup10\n    /* \"#utility.yul\":6303:6322   */\n  add\n    /* \"#utility.yul\":6297:6323   */\n  mload\n    /* \"#utility.yul\":6289:6295   */\n  dup3\n    /* \"#utility.yul\":6282:6324   */\n  sstore\n    /* \"#utility.yul\":6363:6364   */\n  0x01\n    /* \"#utility.yul\":6355:6361   */\n  dup3\n    /* \"#utility.yul\":6351:6365   */\n  add\n    /* \"#utility.yul\":6341:6365   */\n  swap2\n  pop\n    /* \"#utility.yul\":6410:6412   */\n  0x20\n    /* \"#utility.yul\":6399:6408   */\n  dup6\n    /* \"#utility.yul\":6395:6413   */\n  add\n    /* \"#utility.yul\":6382:6413   */\n  swap5\n  pop\n    /* \"#utility.yul\":6256:6260   */\n  0x20\n    /* \"#utility.yul\":6253:6254   */\n  dup2\n    /* \"#utility.yul\":6249:6261   */\n  add\n    /* \"#utility.yul\":6244:6261   */\n  swap1\n  pop\n    /* \"#utility.yul\":6219:6427   */\n  jump(tag_133)\ntag_135:\n    /* \"#utility.yul\":6455:6461   */\n  dup7\n    /* \"#utility.yul\":6446:6453   */\n  dup4\n    /* \"#utility.yul\":6443:6462   */\n  lt\n    /* \"#utility.yul\":6440:6619   */\n  iszero\n  tag_136\n  jumpi\n    /* \"#utility.yul\":6513:6522   */\n  dup5\n    /* \"#utility.yul\":6508:6511   */\n  dup10\n    /* \"#utility.yul\":6504:6523   */\n  add\n    /* \"#utility.yul\":6498:6524   */\n  mload\n    /* \"#utility.yul\":6556:6604   */\n  tag_137\n    /* \"#utility.yul\":6598:6602   */\n  0x1f\n    /* \"#utility.yul\":6590:6596   */\n  dup10\n    /* \"#utility.yul\":6586:6603   */\n  and\n    /* \"#utility.yul\":6575:6584   */\n  dup3\n    /* \"#utility.yul\":6556:6604   */\n  tag_60\n  jump\t// in\ntag_137:\n    /* \"#utility.yul\":6548:6554   */\n  dup4\n    /* \"#utility.yul\":6541:6605   */\n  sstore\n    /* \"#utility.yul\":6463:6619   */\n  pop\n    /* \"#utility.yul\":6440:6619   */\ntag_136:\n    /* \"#utility.yul\":6665:6666   */\n  0x01\n    /* \"#utility.yul\":6661:6662   */\n  0x02\n    /* \"#utility.yul\":6653:6659   */\n  dup9\n    /* \"#utility.yul\":6649:6663   */\n  mul\n    /* \"#utility.yul\":6645:6667   */\n  add\n    /* \"#utility.yul\":6639:6643   */\n  dup9\n    /* \"#utility.yul\":6632:6668   */\n  sstore\n    /* \"#utility.yul\":6067:6678   */\n  pop\n  pop\n  pop\n    /* \"#utility.yul\":6030:6917   */\ntag_128:\n  pop\n    /* \"#utility.yul\":5620:6923   */\n  pop\n  pop\n  pop\n    /* \"#utility.yul\":5528:6923   */\n  pop\n  pop\n  jump\t// out\n    /* \"ElectronicMedicalRecords.sol\":66:1263  contract ContractDeployer {... */\ntag_35:\n  dataSize(sub_0)\n  dup1\n  dataOffset(sub_0)\n  0x00\n  codecopy\n  0x00\n  return\nstop\n\nsub_0: assembly {\n        /* \"ElectronicMedicalRecords.sol\":66:1263  contract ContractDeployer {... */\n      mstore(0x40, 0x80)\n      callvalue\n      dup1\n      iszero\n      tag_1\n      jumpi\n      0x00\n      dup1\n      revert\n    tag_1:\n      pop\n      jumpi(tag_2, lt(calldatasize, 0x04))\n      shr(0xe0, calldataload(0x00))\n      dup1\n      0xc4fe354c\n      eq\n      tag_3\n      jumpi\n      dup1\n      0xf851a440\n      eq\n      tag_4\n      jumpi\n    tag_2:\n      0x00\n      dup1\n      revert\n        /* \"ElectronicMedicalRecords.sol\":1062:1260  function getAllContractAddress(string memory _name) public view returns (ContractAddress[] memory data) {... */\n    tag_3:\n      tag_5\n      0x04\n      dup1\n      calldatasize\n      sub\n      dup2\n      add\n      swap1\n      tag_6\n      swap2\n      swap1\n      tag_7\n      jump\t// in\n    tag_6:\n      tag_8\n      jump\t// in\n    tag_5:\n      mload(0x40)\n      tag_9\n      swap2\n      swap1\n      tag_10\n      jump\t// in\n    tag_9:\n      mload(0x40)\n      dup1\n      swap2\n      sub\n      swap1\n      return\n        /* \"ElectronicMedicalRecords.sol\":268:288  address public admin */\n    tag_4:\n      tag_11\n      tag_12\n      jump\t// in\n    tag_11:\n      mload(0x40)\n      tag_13\n      swap2\n      swap1\n      tag_14\n      jump\t// in\n    tag_13:\n      mload(0x40)\n      dup1\n      swap2\n      sub\n      swap1\n      return\n        /* \"ElectronicMedicalRecords.sol\":1062:1260  function getAllContractAddress(string memory _name) public view returns (ContractAddress[] memory data) {... */\n    tag_8:\n        /* \"ElectronicMedicalRecords.sol\":1135:1164  ContractAddress[] memory data */\n      0x60\n        /* \"ElectronicMedicalRecords.sol\":1199:1204  admin */\n      0x01\n      0x00\n      swap1\n      sload\n      swap1\n      0x0100\n      exp\n      swap1\n      div\n      0xffffffffffffffffffffffffffffffffffffffff\n      and\n        /* \"ElectronicMedicalRecords.sol\":1185:1204  msg.sender == admin */\n      0xffffffffffffffffffffffffffffffffffffffff\n      and\n        /* \"ElectronicMedicalRecords.sol\":1185:1195  msg.sender */\n      caller\n        /* \"ElectronicMedicalRecords.sol\":1185:1204  msg.sender == admin */\n      0xffffffffffffffffffffffffffffffffffffffff\n      and\n      eq\n        /* \"ElectronicMedicalRecords.sol\":1177:1205  require(msg.sender == admin) */\n      tag_16\n      jumpi\n      0x00\n      dup1\n      revert\n    tag_16:\n        /* \"ElectronicMedicalRecords.sol\":1223:1245  bunchOfContractAddress */\n      0x00\n        /* \"ElectronicMedicalRecords.sol\":1246:1251  _name */\n      dup3\n        /* \"ElectronicMedicalRecords.sol\":1223:1252  bunchOfContractAddress[_name] */\n      mload(0x40)\n      tag_17\n      swap2\n      swap1\n      tag_18\n      jump\t// in\n    tag_17:\n      swap1\n      dup2\n      mstore\n      0x20\n      add\n      mload(0x40)\n      dup1\n      swap2\n      sub\n      swap1\n      keccak256\n        /* \"ElectronicMedicalRecords.sol\":1216:1252  return bunchOfContractAddress[_name] */\n      dup1\n      sload\n      dup1\n      0x20\n      mul\n      0x20\n      add\n      mload(0x40)\n      swap1\n      dup2\n      add\n      0x40\n      mstore\n      dup1\n      swap3\n      swap2\n      swap1\n      dup2\n      dup2\n      mstore\n      0x20\n      add\n      0x00\n      swap1\n    tag_19:\n      dup3\n      dup3\n      lt\n      iszero\n      tag_20\n      jumpi\n      dup4\n      dup3\n      swap1\n      0x00\n      mstore\n      keccak256(0x00, 0x20)\n      swap1\n      0x02\n      mul\n      add\n      mload(0x40)\n      dup1\n      0x40\n      add\n      0x40\n      mstore\n      swap1\n      dup2\n      0x00\n      dup3\n      add\n      dup1\n      sload\n      tag_22\n      swap1\n      tag_23\n      jump\t// in\n    tag_22:\n      dup1\n      0x1f\n      add\n      0x20\n      dup1\n      swap2\n      div\n      mul\n      0x20\n      add\n      mload(0x40)\n      swap1\n      dup2\n      add\n      0x40\n      mstore\n      dup1\n      swap3\n      swap2\n      swap1\n      dup2\n      dup2\n      mstore\n      0x20\n      add\n      dup3\n      dup1\n      sload\n      tag_24\n      swap1\n      tag_23\n      jump\t// in\n    tag_24:\n      dup1\n      iszero\n      tag_25\n      jumpi\n      dup1\n      0x1f\n      lt\n      tag_26\n      jumpi\n      0x0100\n      dup1\n      dup4\n      sload\n      div\n      mul\n      dup4\n      mstore\n      swap2\n      0x20\n      add\n      swap2\n      jump(tag_25)\n    tag_26:\n      dup3\n      add\n      swap2\n      swap1\n      0x00\n      mstore\n      keccak256(0x00, 0x20)\n      swap1\n    tag_27:\n      dup2\n      sload\n      dup2\n      mstore\n      swap1\n      0x01\n      add\n      swap1\n      0x20\n      add\n      dup1\n      dup4\n      gt\n      tag_27\n      jumpi\n      dup3\n      swap1\n      sub\n      0x1f\n      and\n      dup3\n      add\n      swap2\n    tag_25:\n      pop\n      pop\n      pop\n      pop\n      pop\n      dup2\n      mstore\n      0x20\n      add\n      0x01\n      dup3\n      add\n      0x00\n      swap1\n      sload\n      swap1\n      0x0100\n      exp\n      swap1\n      div\n      0xffffffffffffffffffffffffffffffffffffffff\n      and\n      0xffffffffffffffffffffffffffffffffffffffff\n      and\n      0xffffffffffffffffffffffffffffffffffffffff\n      and\n      dup2\n      mstore\n      pop\n      pop\n      dup2\n      mstore\n      0x20\n      add\n      swap1\n      0x01\n      add\n      swap1\n      jump(tag_19)\n    tag_20:\n      pop\n      pop\n      pop\n      pop\n      swap1\n      pop\n        /* \"ElectronicMedicalRecords.sol\":1062:1260  function getAllContractAddress(string memory _name) public view returns (ContractAddress[] memory data) {... */\n      swap2\n      swap1\n      pop\n      jump\t// out\n        /* \"ElectronicMedicalRecords.sol\":268:288  address public admin */\n    tag_12:\n      0x01\n      0x00\n      swap1\n      sload\n      swap1\n      0x0100\n      exp\n      swap1\n      div\n      0xffffffffffffffffffffffffffffffffffffffff\n      and\n      dup2\n      jump\t// out\n        /* \"#utility.yul\":7:82   */\n    tag_28:\n        /* \"#utility.yul\":40:46   */\n      0x00\n        /* \"#utility.yul\":73:75   */\n      0x40\n        /* \"#utility.yul\":67:76   */\n      mload\n        /* \"#utility.yul\":57:76   */\n      swap1\n      pop\n        /* \"#utility.yul\":7:82   */\n      swap1\n      jump\t// out\n        /* \"#utility.yul\":88:205   */\n    tag_29:\n        /* \"#utility.yul\":197:198   */\n      0x00\n        /* \"#utility.yul\":194:195   */\n      dup1\n        /* \"#utility.yul\":187:199   */\n      revert\n        /* \"#utility.yul\":211:328   */\n    tag_30:\n        /* \"#utility.yul\":320:321   */\n      0x00\n        /* \"#utility.yul\":317:318   */\n      dup1\n        /* \"#utility.yul\":310:322   */\n      revert\n        /* \"#utility.yul\":334:451   */\n    tag_31:\n        /* \"#utility.yul\":443:444   */\n      0x00\n        /* \"#utility.yul\":440:441   */\n      dup1\n        /* \"#utility.yul\":433:445   */\n      revert\n        /* \"#utility.yul\":457:574   */\n    tag_32:\n        /* \"#utility.yul\":566:567   */\n      0x00\n        /* \"#utility.yul\":563:564   */\n      dup1\n        /* \"#utility.yul\":556:568   */\n      revert\n        /* \"#utility.yul\":580:682   */\n    tag_33:\n        /* \"#utility.yul\":621:627   */\n      0x00\n        /* \"#utility.yul\":672:674   */\n      0x1f\n        /* \"#utility.yul\":668:675   */\n      not\n        /* \"#utility.yul\":663:665   */\n      0x1f\n        /* \"#utility.yul\":656:661   */\n      dup4\n        /* \"#utility.yul\":652:666   */\n      add\n        /* \"#utility.yul\":648:676   */\n      and\n        /* \"#utility.yul\":638:676   */\n      swap1\n      pop\n        /* \"#utility.yul\":580:682   */\n      swap2\n      swap1\n      pop\n      jump\t// out\n        /* \"#utility.yul\":688:868   */\n    tag_34:\n        /* \"#utility.yul\":736:813   */\n      0x4e487b7100000000000000000000000000000000000000000000000000000000\n        /* \"#utility.yul\":733:734   */\n      0x00\n        /* \"#utility.yul\":726:814   */\n      mstore\n        /* \"#utility.yul\":833:837   */\n      0x41\n        /* \"#utility.yul\":830:831   */\n      0x04\n        /* \"#utility.yul\":823:838   */\n      mstore\n        /* \"#utility.yul\":857:861   */\n      0x24\n        /* \"#utility.yul\":854:855   */\n      0x00\n        /* \"#utility.yul\":847:862   */\n      revert\n        /* \"#utility.yul\":874:1155   */\n    tag_35:\n        /* \"#utility.yul\":957:984   */\n      tag_68\n        /* \"#utility.yul\":979:983   */\n      dup3\n        /* \"#utility.yul\":957:984   */\n      tag_33\n      jump\t// in\n    tag_68:\n        /* \"#utility.yul\":949:955   */\n      dup2\n        /* \"#utility.yul\":945:985   */\n      add\n        /* \"#utility.yul\":1087:1093   */\n      dup2\n        /* \"#utility.yul\":1075:1085   */\n      dup2\n        /* \"#utility.yul\":1072:1094   */\n      lt\n        /* \"#utility.yul\":1051:1069   */\n      0xffffffffffffffff\n        /* \"#utility.yul\":1039:1049   */\n      dup3\n        /* \"#utility.yul\":1036:1070   */\n      gt\n        /* \"#utility.yul\":1033:1095   */\n      or\n        /* \"#utility.yul\":1030:1118   */\n      iszero\n      tag_69\n      jumpi\n        /* \"#utility.yul\":1098:1116   */\n      tag_70\n      tag_34\n      jump\t// in\n    tag_70:\n        /* \"#utility.yul\":1030:1118   */\n    tag_69:\n        /* \"#utility.yul\":1138:1148   */\n      dup1\n        /* \"#utility.yul\":1134:1136   */\n      0x40\n        /* \"#utility.yul\":1127:1149   */\n      mstore\n        /* \"#utility.yul\":917:1155   */\n      pop\n        /* \"#utility.yul\":874:1155   */\n      pop\n      pop\n      jump\t// out\n        /* \"#utility.yul\":1161:1290   */\n    tag_36:\n        /* \"#utility.yul\":1195:1201   */\n      0x00\n        /* \"#utility.yul\":1222:1242   */\n      tag_72\n      tag_28\n      jump\t// in\n    tag_72:\n        /* \"#utility.yul\":1212:1242   */\n      swap1\n      pop\n        /* \"#utility.yul\":1251:1284   */\n      tag_73\n        /* \"#utility.yul\":1279:1283   */\n      dup3\n        /* \"#utility.yul\":1271:1277   */\n      dup3\n        /* \"#utility.yul\":1251:1284   */\n      tag_35\n      jump\t// in\n    tag_73:\n        /* \"#utility.yul\":1161:1290   */\n      swap2\n      swap1\n      pop\n      jump\t// out\n        /* \"#utility.yul\":1296:1604   */\n    tag_37:\n        /* \"#utility.yul\":1358:1362   */\n      0x00\n        /* \"#utility.yul\":1448:1466   */\n      0xffffffffffffffff\n        /* \"#utility.yul\":1440:1446   */\n      dup3\n        /* \"#utility.yul\":1437:1467   */\n      gt\n        /* \"#utility.yul\":1434:1490   */\n      iszero\n      tag_75\n      jumpi\n        /* \"#utility.yul\":1470:1488   */\n      tag_76\n      tag_34\n      jump\t// in\n    tag_76:\n        /* \"#utility.yul\":1434:1490   */\n    tag_75:\n        /* \"#utility.yul\":1508:1537   */\n      tag_77\n        /* \"#utility.yul\":1530:1536   */\n      dup3\n        /* \"#utility.yul\":1508:1537   */\n      tag_33\n      jump\t// in\n    tag_77:\n        /* \"#utility.yul\":1500:1537   */\n      swap1\n      pop\n        /* \"#utility.yul\":1592:1596   */\n      0x20\n        /* \"#utility.yul\":1586:1590   */\n      dup2\n        /* \"#utility.yul\":1582:1597   */\n      add\n        /* \"#utility.yul\":1574:1597   */\n      swap1\n      pop\n        /* \"#utility.yul\":1296:1604   */\n      swap2\n      swap1\n      pop\n      jump\t// out\n        /* \"#utility.yul\":1610:1756   */\n    tag_38:\n        /* \"#utility.yul\":1707:1713   */\n      dup3\n        /* \"#utility.yul\":1702:1705   */\n      dup2\n        /* \"#utility.yul\":1697:1700   */\n      dup4\n        /* \"#utility.yul\":1684:1714   */\n      calldatacopy\n        /* \"#utility.yul\":1748:1749   */\n      0x00\n        /* \"#utility.yul\":1739:1745   */\n      dup4\n        /* \"#utility.yul\":1734:1737   */\n      dup4\n        /* \"#utility.yul\":1730:1746   */\n      add\n        /* \"#utility.yul\":1723:1750   */\n      mstore\n        /* \"#utility.yul\":1610:1756   */\n      pop\n      pop\n      pop\n      jump\t// out\n        /* \"#utility.yul\":1762:2187   */\n    tag_39:\n        /* \"#utility.yul\":1840:1845   */\n      0x00\n        /* \"#utility.yul\":1865:1931   */\n      tag_80\n        /* \"#utility.yul\":1881:1930   */\n      tag_81\n        /* \"#utility.yul\":1923:1929   */\n      dup5\n        /* \"#utility.yul\":1881:1930   */\n      tag_37\n      jump\t// in\n    tag_81:\n        /* \"#utility.yul\":1865:1931   */\n      tag_36\n      jump\t// in\n    tag_80:\n        /* \"#utility.yul\":1856:1931   */\n      swap1\n      pop\n        /* \"#utility.yul\":1954:1960   */\n      dup3\n        /* \"#utility.yul\":1947:1952   */\n      dup2\n        /* \"#utility.yul\":1940:1961   */\n      mstore\n        /* \"#utility.yul\":1992:1996   */\n      0x20\n        /* \"#utility.yul\":1985:1990   */\n      dup2\n        /* \"#utility.yul\":1981:1997   */\n      add\n        /* \"#utility.yul\":2030:2033   */\n      dup5\n        /* \"#utility.yul\":2021:2027   */\n      dup5\n        /* \"#utility.yul\":2016:2019   */\n      dup5\n        /* \"#utility.yul\":2012:2028   */\n      add\n        /* \"#utility.yul\":2009:2034   */\n      gt\n        /* \"#utility.yul\":2006:2118   */\n      iszero\n      tag_82\n      jumpi\n        /* \"#utility.yul\":2037:2116   */\n      tag_83\n      tag_32\n      jump\t// in\n    tag_83:\n        /* \"#utility.yul\":2006:2118   */\n    tag_82:\n        /* \"#utility.yul\":2127:2181   */\n      tag_84\n        /* \"#utility.yul\":2174:2180   */\n      dup5\n        /* \"#utility.yul\":2169:2172   */\n      dup3\n        /* \"#utility.yul\":2164:2167   */\n      dup6\n        /* \"#utility.yul\":2127:2181   */\n      tag_38\n      jump\t// in\n    tag_84:\n        /* \"#utility.yul\":1846:2187   */\n      pop\n        /* \"#utility.yul\":1762:2187   */\n      swap4\n      swap3\n      pop\n      pop\n      pop\n      jump\t// out\n        /* \"#utility.yul\":2207:2547   */\n    tag_40:\n        /* \"#utility.yul\":2263:2268   */\n      0x00\n        /* \"#utility.yul\":2312:2315   */\n      dup3\n        /* \"#utility.yul\":2305:2309   */\n      0x1f\n        /* \"#utility.yul\":2297:2303   */\n      dup4\n        /* \"#utility.yul\":2293:2310   */\n      add\n        /* \"#utility.yul\":2289:2316   */\n      slt\n        /* \"#utility.yul\":2279:2401   */\n      tag_86\n      jumpi\n        /* \"#utility.yul\":2320:2399   */\n      tag_87\n      tag_31\n      jump\t// in\n    tag_87:\n        /* \"#utility.yul\":2279:2401   */\n    tag_86:\n        /* \"#utility.yul\":2437:2443   */\n      dup2\n        /* \"#utility.yul\":2424:2444   */\n      calldataload\n        /* \"#utility.yul\":2462:2541   */\n      tag_88\n        /* \"#utility.yul\":2537:2540   */\n      dup5\n        /* \"#utility.yul\":2529:2535   */\n      dup3\n        /* \"#utility.yul\":2522:2526   */\n      0x20\n        /* \"#utility.yul\":2514:2520   */\n      dup7\n        /* \"#utility.yul\":2510:2527   */\n      add\n        /* \"#utility.yul\":2462:2541   */\n      tag_39\n      jump\t// in\n    tag_88:\n        /* \"#utility.yul\":2453:2541   */\n      swap2\n      pop\n        /* \"#utility.yul\":2269:2547   */\n      pop\n        /* \"#utility.yul\":2207:2547   */\n      swap3\n      swap2\n      pop\n      pop\n      jump\t// out\n        /* \"#utility.yul\":2553:3062   */\n    tag_7:\n        /* \"#utility.yul\":2622:2628   */\n      0x00\n        /* \"#utility.yul\":2671:2673   */\n      0x20\n        /* \"#utility.yul\":2659:2668   */\n      dup3\n        /* \"#utility.yul\":2650:2657   */\n      dup5\n        /* \"#utility.yul\":2646:2669   */\n      sub\n        /* \"#utility.yul\":2642:2674   */\n      slt\n        /* \"#utility.yul\":2639:2758   */\n      iszero\n      tag_90\n      jumpi\n        /* \"#utility.yul\":2677:2756   */\n      tag_91\n      tag_29\n      jump\t// in\n    tag_91:\n        /* \"#utility.yul\":2639:2758   */\n    tag_90:\n        /* \"#utility.yul\":2825:2826   */\n      0x00\n        /* \"#utility.yul\":2814:2823   */\n      dup3\n        /* \"#utility.yul\":2810:2827   */\n      add\n        /* \"#utility.yul\":2797:2828   */\n      calldataload\n        /* \"#utility.yul\":2855:2873   */\n      0xffffffffffffffff\n        /* \"#utility.yul\":2847:2853   */\n      dup2\n        /* \"#utility.yul\":2844:2874   */\n      gt\n        /* \"#utility.yul\":2841:2958   */\n      iszero\n      tag_92\n      jumpi\n        /* \"#utility.yul\":2877:2956   */\n      tag_93\n      tag_30\n      jump\t// in\n    tag_93:\n        /* \"#utility.yul\":2841:2958   */\n    tag_92:\n        /* \"#utility.yul\":2982:3045   */\n      tag_94\n        /* \"#utility.yul\":3037:3044   */\n      dup5\n        /* \"#utility.yul\":3028:3034   */\n      dup3\n        /* \"#utility.yul\":3017:3026   */\n      dup6\n        /* \"#utility.yul\":3013:3035   */\n      add\n        /* \"#utility.yul\":2982:3045   */\n      tag_40\n      jump\t// in\n    tag_94:\n        /* \"#utility.yul\":2972:3045   */\n      swap2\n      pop\n        /* \"#utility.yul\":2768:3055   */\n      pop\n        /* \"#utility.yul\":2553:3062   */\n      swap3\n      swap2\n      pop\n      pop\n      jump\t// out\n        /* \"#utility.yul\":3068:3212   */\n    tag_41:\n        /* \"#utility.yul\":3165:3171   */\n      0x00\n        /* \"#utility.yul\":3199:3204   */\n      dup2\n        /* \"#utility.yul\":3193:3205   */\n      mload\n        /* \"#utility.yul\":3183:3205   */\n      swap1\n      pop\n        /* \"#utility.yul\":3068:3212   */\n      swap2\n      swap1\n      pop\n      jump\t// out\n        /* \"#utility.yul\":3218:3432   */\n    tag_42:\n        /* \"#utility.yul\":3347:3358   */\n      0x00\n        /* \"#utility.yul\":3381:3387   */\n      dup3\n        /* \"#utility.yul\":3376:3379   */\n      dup3\n        /* \"#utility.yul\":3369:3388   */\n      mstore\n        /* \"#utility.yul\":3421:3425   */\n      0x20\n        /* \"#utility.yul\":3416:3419   */\n      dup3\n        /* \"#utility.yul\":3412:3426   */\n      add\n        /* \"#utility.yul\":3397:3426   */\n      swap1\n      pop\n        /* \"#utility.yul\":3218:3432   */\n      swap3\n      swap2\n      pop\n      pop\n      jump\t// out\n        /* \"#utility.yul\":3438:3600   */\n    tag_43:\n        /* \"#utility.yul\":3535:3539   */\n      0x00\n        /* \"#utility.yul\":3558:3561   */\n      dup2\n        /* \"#utility.yul\":3550:3561   */\n      swap1\n      pop\n        /* \"#utility.yul\":3588:3592   */\n      0x20\n        /* \"#utility.yul\":3583:3586   */\n      dup3\n        /* \"#utility.yul\":3579:3593   */\n      add\n        /* \"#utility.yul\":3571:3593   */\n      swap1\n      pop\n        /* \"#utility.yul\":3438:3600   */\n      swap2\n      swap1\n      pop\n      jump\t// out\n        /* \"#utility.yul\":3606:3705   */\n    tag_44:\n        /* \"#utility.yul\":3658:3664   */\n      0x00\n        /* \"#utility.yul\":3692:3697   */\n      dup2\n        /* \"#utility.yul\":3686:3698   */\n      mload\n        /* \"#utility.yul\":3676:3698   */\n      swap1\n      pop\n        /* \"#utility.yul\":3606:3705   */\n      swap2\n      swap1\n      pop\n      jump\t// out\n        /* \"#utility.yul\":3711:3870   */\n    tag_45:\n        /* \"#utility.yul\":3785:3796   */\n      0x00\n        /* \"#utility.yul\":3819:3825   */\n      dup3\n        /* \"#utility.yul\":3814:3817   */\n      dup3\n        /* \"#utility.yul\":3807:3826   */\n      mstore\n        /* \"#utility.yul\":3859:3863   */\n      0x20\n        /* \"#utility.yul\":3854:3857   */\n      dup3\n        /* \"#utility.yul\":3850:3864   */\n      add\n        /* \"#utility.yul\":3835:3864   */\n      swap1\n      pop\n        /* \"#utility.yul\":3711:3870   */\n      swap3\n      swap2\n      pop\n      pop\n      jump\t// out\n        /* \"#utility.yul\":3876:4122   */\n    tag_46:\n        /* \"#utility.yul\":3957:3958   */\n      0x00\n        /* \"#utility.yul\":3967:4080   */\n    tag_101:\n        /* \"#utility.yul\":3981:3987   */\n      dup4\n        /* \"#utility.yul\":3978:3979   */\n      dup2\n        /* \"#utility.yul\":3975:3988   */\n      lt\n        /* \"#utility.yul\":3967:4080   */\n      iszero\n      tag_103\n      jumpi\n        /* \"#utility.yul\":4066:4067   */\n      dup1\n        /* \"#utility.yul\":4061:4064   */\n      dup3\n        /* \"#utility.yul\":4057:4068   */\n      add\n        /* \"#utility.yul\":4051:4069   */\n      mload\n        /* \"#utility.yul\":4047:4048   */\n      dup2\n        /* \"#utility.yul\":4042:4045   */\n      dup5\n        /* \"#utility.yul\":4038:4049   */\n      add\n        /* \"#utility.yul\":4031:4070   */\n      mstore\n        /* \"#utility.yul\":4003:4005   */\n      0x20\n        /* \"#utility.yul\":4000:4001   */\n      dup2\n        /* \"#utility.yul\":3996:4006   */\n      add\n        /* \"#utility.yul\":3991:4006   */\n      swap1\n      pop\n        /* \"#utility.yul\":3967:4080   */\n      jump(tag_101)\n    tag_103:\n        /* \"#utility.yul\":4114:4115   */\n      0x00\n        /* \"#utility.yul\":4105:4111   */\n      dup5\n        /* \"#utility.yul\":4100:4103   */\n      dup5\n        /* \"#utility.yul\":4096:4112   */\n      add\n        /* \"#utility.yul\":4089:4116   */\n      mstore\n        /* \"#utility.yul\":3938:4122   */\n      pop\n        /* \"#utility.yul\":3876:4122   */\n      pop\n      pop\n      pop\n      jump\t// out\n        /* \"#utility.yul\":4128:4485   */\n    tag_47:\n        /* \"#utility.yul\":4206:4209   */\n      0x00\n        /* \"#utility.yul\":4234:4273   */\n      tag_105\n        /* \"#utility.yul\":4267:4272   */\n      dup3\n        /* \"#utility.yul\":4234:4273   */\n      tag_44\n      jump\t// in\n    tag_105:\n        /* \"#utility.yul\":4289:4350   */\n      tag_106\n        /* \"#utility.yul\":4343:4349   */\n      dup2\n        /* \"#utility.yul\":4338:4341   */\n      dup6\n        /* \"#utility.yul\":4289:4350   */\n      tag_45\n      jump\t// in\n    tag_106:\n        /* \"#utility.yul\":4282:4350   */\n      swap4\n      pop\n        /* \"#utility.yul\":4359:4424   */\n      tag_107\n        /* \"#utility.yul\":4417:4423   */\n      dup2\n        /* \"#utility.yul\":4412:4415   */\n      dup6\n        /* \"#utility.yul\":4405:4409   */\n      0x20\n        /* \"#utility.yul\":4398:4403   */\n      dup7\n        /* \"#utility.yul\":4394:4410   */\n      add\n        /* \"#utility.yul\":4359:4424   */\n      tag_46\n      jump\t// in\n    tag_107:\n        /* \"#utility.yul\":4449:4478   */\n      tag_108\n        /* \"#utility.yul\":4471:4477   */\n      dup2\n        /* \"#utility.yul\":4449:4478   */\n      tag_33\n      jump\t// in\n    tag_108:\n        /* \"#utility.yul\":4444:4447   */\n      dup5\n        /* \"#utility.yul\":4440:4479   */\n      add\n        /* \"#utility.yul\":4433:4479   */\n      swap2\n      pop\n        /* \"#utility.yul\":4210:4485   */\n      pop\n        /* \"#utility.yul\":4128:4485   */\n      swap3\n      swap2\n      pop\n      pop\n      jump\t// out\n        /* \"#utility.yul\":4491:4617   */\n    tag_48:\n        /* \"#utility.yul\":4528:4535   */\n      0x00\n        /* \"#utility.yul\":4568:4610   */\n      0xffffffffffffffffffffffffffffffffffffffff\n        /* \"#utility.yul\":4561:4566   */\n      dup3\n        /* \"#utility.yul\":4557:4611   */\n      and\n        /* \"#utility.yul\":4546:4611   */\n      swap1\n      pop\n        /* \"#utility.yul\":4491:4617   */\n      swap2\n      swap1\n      pop\n      jump\t// out\n        /* \"#utility.yul\":4623:4719   */\n    tag_49:\n        /* \"#utility.yul\":4660:4667   */\n      0x00\n        /* \"#utility.yul\":4689:4713   */\n      tag_111\n        /* \"#utility.yul\":4707:4712   */\n      dup3\n        /* \"#utility.yul\":4689:4713   */\n      tag_48\n      jump\t// in\n    tag_111:\n        /* \"#utility.yul\":4678:4713   */\n      swap1\n      pop\n        /* \"#utility.yul\":4623:4719   */\n      swap2\n      swap1\n      pop\n      jump\t// out\n        /* \"#utility.yul\":4725:4833   */\n    tag_50:\n        /* \"#utility.yul\":4802:4826   */\n      tag_113\n        /* \"#utility.yul\":4820:4825   */\n      dup2\n        /* \"#utility.yul\":4802:4826   */\n      tag_49\n      jump\t// in\n    tag_113:\n        /* \"#utility.yul\":4797:4800   */\n      dup3\n        /* \"#utility.yul\":4790:4827   */\n      mstore\n        /* \"#utility.yul\":4725:4833   */\n      pop\n      pop\n      jump\t// out\n        /* \"#utility.yul\":4929:5546   */\n    tag_51:\n        /* \"#utility.yul\":5048:5051   */\n      0x00\n        /* \"#utility.yul\":5084:5088   */\n      0x40\n        /* \"#utility.yul\":5079:5082   */\n      dup4\n        /* \"#utility.yul\":5075:5089   */\n      add\n        /* \"#utility.yul\":5171:5175   */\n      0x00\n        /* \"#utility.yul\":5164:5169   */\n      dup4\n        /* \"#utility.yul\":5160:5176   */\n      add\n        /* \"#utility.yul\":5154:5177   */\n      mload\n        /* \"#utility.yul\":5224:5227   */\n      dup5\n        /* \"#utility.yul\":5218:5222   */\n      dup3\n        /* \"#utility.yul\":5214:5228   */\n      sub\n        /* \"#utility.yul\":5207:5211   */\n      0x00\n        /* \"#utility.yul\":5202:5205   */\n      dup7\n        /* \"#utility.yul\":5198:5212   */\n      add\n        /* \"#utility.yul\":5191:5229   */\n      mstore\n        /* \"#utility.yul\":5250:5323   */\n      tag_115\n        /* \"#utility.yul\":5318:5322   */\n      dup3\n        /* \"#utility.yul\":5304:5316   */\n      dup3\n        /* \"#utility.yul\":5250:5323   */\n      tag_47\n      jump\t// in\n    tag_115:\n        /* \"#utility.yul\":5242:5323   */\n      swap2\n      pop\n        /* \"#utility.yul\":5099:5334   */\n      pop\n        /* \"#utility.yul\":5427:5431   */\n      0x20\n        /* \"#utility.yul\":5420:5425   */\n      dup4\n        /* \"#utility.yul\":5416:5432   */\n      add\n        /* \"#utility.yul\":5410:5433   */\n      mload\n        /* \"#utility.yul\":5446:5509   */\n      tag_116\n        /* \"#utility.yul\":5503:5507   */\n      0x20\n        /* \"#utility.yul\":5498:5501   */\n      dup7\n        /* \"#utility.yul\":5494:5508   */\n      add\n        /* \"#utility.yul\":5480:5492   */\n      dup3\n        /* \"#utility.yul\":5446:5509   */\n      tag_50\n      jump\t// in\n    tag_116:\n        /* \"#utility.yul\":5344:5519   */\n      pop\n        /* \"#utility.yul\":5536:5540   */\n      dup1\n        /* \"#utility.yul\":5529:5540   */\n      swap2\n      pop\n        /* \"#utility.yul\":5053:5546   */\n      pop\n        /* \"#utility.yul\":4929:5546   */\n      swap3\n      swap2\n      pop\n      pop\n      jump\t// out\n        /* \"#utility.yul\":5552:5828   */\n    tag_52:\n        /* \"#utility.yul\":5681:5691   */\n      0x00\n        /* \"#utility.yul\":5716:5822   */\n      tag_118\n        /* \"#utility.yul\":5818:5821   */\n      dup4\n        /* \"#utility.yul\":5810:5816   */\n      dup4\n        /* \"#utility.yul\":5716:5822   */\n      tag_51\n      jump\t// in\n    tag_118:\n        /* \"#utility.yul\":5702:5822   */\n      swap1\n      pop\n        /* \"#utility.yul\":5552:5828   */\n      swap3\n      swap2\n      pop\n      pop\n      jump\t// out\n        /* \"#utility.yul\":5834:5977   */\n    tag_53:\n        /* \"#utility.yul\":5934:5938   */\n      0x00\n        /* \"#utility.yul\":5966:5970   */\n      0x20\n        /* \"#utility.yul\":5961:5964   */\n      dup3\n        /* \"#utility.yul\":5957:5971   */\n      add\n        /* \"#utility.yul\":5949:5971   */\n      swap1\n      pop\n        /* \"#utility.yul\":5834:5977   */\n      swap2\n      swap1\n      pop\n      jump\t// out\n        /* \"#utility.yul\":6077:7228   */\n    tag_54:\n        /* \"#utility.yul\":6256:6259   */\n      0x00\n        /* \"#utility.yul\":6285:6369   */\n      tag_121\n        /* \"#utility.yul\":6363:6368   */\n      dup3\n        /* \"#utility.yul\":6285:6369   */\n      tag_41\n      jump\t// in\n    tag_121:\n        /* \"#utility.yul\":6385:6501   */\n      tag_122\n        /* \"#utility.yul\":6494:6500   */\n      dup2\n        /* \"#utility.yul\":6489:6492   */\n      dup6\n        /* \"#utility.yul\":6385:6501   */\n      tag_42\n      jump\t// in\n    tag_122:\n        /* \"#utility.yul\":6378:6501   */\n      swap4\n      pop\n        /* \"#utility.yul\":6527:6530   */\n      dup4\n        /* \"#utility.yul\":6572:6576   */\n      0x20\n        /* \"#utility.yul\":6564:6570   */\n      dup3\n        /* \"#utility.yul\":6560:6577   */\n      mul\n        /* \"#utility.yul\":6555:6558   */\n      dup6\n        /* \"#utility.yul\":6551:6578   */\n      add\n        /* \"#utility.yul\":6602:6688   */\n      tag_123\n        /* \"#utility.yul\":6682:6687   */\n      dup6\n        /* \"#utility.yul\":6602:6688   */\n      tag_43\n      jump\t// in\n    tag_123:\n        /* \"#utility.yul\":6711:6718   */\n      dup1\n        /* \"#utility.yul\":6742:6743   */\n      0x00\n        /* \"#utility.yul\":6727:7183   */\n    tag_124:\n        /* \"#utility.yul\":6752:6758   */\n      dup6\n        /* \"#utility.yul\":6749:6750   */\n      dup2\n        /* \"#utility.yul\":6746:6759   */\n      lt\n        /* \"#utility.yul\":6727:7183   */\n      iszero\n      tag_126\n      jumpi\n        /* \"#utility.yul\":6823:6832   */\n      dup5\n        /* \"#utility.yul\":6817:6821   */\n      dup5\n        /* \"#utility.yul\":6813:6833   */\n      sub\n        /* \"#utility.yul\":6808:6811   */\n      dup10\n        /* \"#utility.yul\":6801:6834   */\n      mstore\n        /* \"#utility.yul\":6874:6880   */\n      dup2\n        /* \"#utility.yul\":6868:6881   */\n      mload\n        /* \"#utility.yul\":6902:7026   */\n      tag_127\n        /* \"#utility.yul\":7021:7025   */\n      dup6\n        /* \"#utility.yul\":7006:7019   */\n      dup3\n        /* \"#utility.yul\":6902:7026   */\n      tag_52\n      jump\t// in\n    tag_127:\n        /* \"#utility.yul\":6894:7026   */\n      swap5\n      pop\n        /* \"#utility.yul\":7049:7139   */\n      tag_128\n        /* \"#utility.yul\":7132:7138   */\n      dup4\n        /* \"#utility.yul\":7049:7139   */\n      tag_53\n      jump\t// in\n    tag_128:\n        /* \"#utility.yul\":7039:7139   */\n      swap3\n      pop\n        /* \"#utility.yul\":7168:7172   */\n      0x20\n        /* \"#utility.yul\":7163:7166   */\n      dup11\n        /* \"#utility.yul\":7159:7173   */\n      add\n        /* \"#utility.yul\":7152:7173   */\n      swap10\n      pop\n        /* \"#utility.yul\":6787:7183   */\n      pop\n        /* \"#utility.yul\":6774:6775   */\n      0x01\n        /* \"#utility.yul\":6771:6772   */\n      dup2\n        /* \"#utility.yul\":6767:6776   */\n      add\n        /* \"#utility.yul\":6762:6776   */\n      swap1\n      pop\n        /* \"#utility.yul\":6727:7183   */\n      jump(tag_124)\n    tag_126:\n        /* \"#utility.yul\":6731:6745   */\n      pop\n        /* \"#utility.yul\":7199:7203   */\n      dup3\n        /* \"#utility.yul\":7192:7203   */\n      swap8\n      pop\n        /* \"#utility.yul\":7219:7222   */\n      dup8\n        /* \"#utility.yul\":7212:7222   */\n      swap6\n      pop\n        /* \"#utility.yul\":6261:7228   */\n      pop\n      pop\n      pop\n      pop\n      pop\n        /* \"#utility.yul\":6077:7228   */\n      swap3\n      swap2\n      pop\n      pop\n      jump\t// out\n        /* \"#utility.yul\":7234:7727   */\n    tag_10:\n        /* \"#utility.yul\":7437:7441   */\n      0x00\n        /* \"#utility.yul\":7475:7477   */\n      0x20\n        /* \"#utility.yul\":7464:7473   */\n      dup3\n        /* \"#utility.yul\":7460:7478   */\n      add\n        /* \"#utility.yul\":7452:7478   */\n      swap1\n      pop\n        /* \"#utility.yul\":7524:7533   */\n      dup2\n        /* \"#utility.yul\":7518:7522   */\n      dup2\n        /* \"#utility.yul\":7514:7534   */\n      sub\n        /* \"#utility.yul\":7510:7511   */\n      0x00\n        /* \"#utility.yul\":7499:7508   */\n      dup4\n        /* \"#utility.yul\":7495:7512   */\n      add\n        /* \"#utility.yul\":7488:7535   */\n      mstore\n        /* \"#utility.yul\":7552:7720   */\n      tag_130\n        /* \"#utility.yul\":7715:7719   */\n      dup2\n        /* \"#utility.yul\":7706:7712   */\n      dup5\n        /* \"#utility.yul\":7552:7720   */\n      tag_54\n      jump\t// in\n    tag_130:\n        /* \"#utility.yul\":7544:7720   */\n      swap1\n      pop\n        /* \"#utility.yul\":7234:7727   */\n      swap3\n      swap2\n      pop\n      pop\n      jump\t// out\n        /* \"#utility.yul\":7733:7851   */\n    tag_55:\n        /* \"#utility.yul\":7820:7844   */\n      tag_132\n        /* \"#utility.yul\":7838:7843   */\n      dup2\n        /* \"#utility.yul\":7820:7844   */\n      tag_49\n      jump\t// in\n    tag_132:\n        /* \"#utility.yul\":7815:7818   */\n      dup3\n        /* \"#utility.yul\":7808:7845   */\n      mstore\n        /* \"#utility.yul\":7733:7851   */\n      pop\n      pop\n      jump\t// out\n        /* \"#utility.yul\":7857:8079   */\n    tag_14:\n        /* \"#utility.yul\":7950:7954   */\n      0x00\n        /* \"#utility.yul\":7988:7990   */\n      0x20\n        /* \"#utility.yul\":7977:7986   */\n      dup3\n        /* \"#utility.yul\":7973:7991   */\n      add\n        /* \"#utility.yul\":7965:7991   */\n      swap1\n      pop\n        /* \"#utility.yul\":8001:8072   */\n      tag_134\n        /* \"#utility.yul\":8069:8070   */\n      0x00\n        /* \"#utility.yul\":8058:8067   */\n      dup4\n        /* \"#utility.yul\":8054:8071   */\n      add\n        /* \"#utility.yul\":8045:8051   */\n      dup5\n        /* \"#utility.yul\":8001:8072   */\n      tag_55\n      jump\t// in\n    tag_134:\n        /* \"#utility.yul\":7857:8079   */\n      swap3\n      swap2\n      pop\n      pop\n      jump\t// out\n        /* \"#utility.yul\":8085:8233   */\n    tag_56:\n        /* \"#utility.yul\":8187:8198   */\n      0x00\n        /* \"#utility.yul\":8224:8227   */\n      dup2\n        /* \"#utility.yul\":8209:8227   */\n      swap1\n      pop\n        /* \"#utility.yul\":8085:8233   */\n      swap3\n      swap2\n      pop\n      pop\n      jump\t// out\n        /* \"#utility.yul\":8239:8629   */\n    tag_57:\n        /* \"#utility.yul\":8345:8348   */\n      0x00\n        /* \"#utility.yul\":8373:8412   */\n      tag_137\n        /* \"#utility.yul\":8406:8411   */\n      dup3\n        /* \"#utility.yul\":8373:8412   */\n      tag_44\n      jump\t// in\n    tag_137:\n        /* \"#utility.yul\":8428:8517   */\n      tag_138\n        /* \"#utility.yul\":8510:8516   */\n      dup2\n        /* \"#utility.yul\":8505:8508   */\n      dup6\n        /* \"#utility.yul\":8428:8517   */\n      tag_56\n      jump\t// in\n    tag_138:\n        /* \"#utility.yul\":8421:8517   */\n      swap4\n      pop\n        /* \"#utility.yul\":8526:8591   */\n      tag_139\n        /* \"#utility.yul\":8584:8590   */\n      dup2\n        /* \"#utility.yul\":8579:8582   */\n      dup6\n        /* \"#utility.yul\":8572:8576   */\n      0x20\n        /* \"#utility.yul\":8565:8570   */\n      dup7\n        /* \"#utility.yul\":8561:8577   */\n      add\n        /* \"#utility.yul\":8526:8591   */\n      tag_46\n      jump\t// in\n    tag_139:\n        /* \"#utility.yul\":8616:8622   */\n      dup1\n        /* \"#utility.yul\":8611:8614   */\n      dup5\n        /* \"#utility.yul\":8607:8623   */\n      add\n        /* \"#utility.yul\":8600:8623   */\n      swap2\n      pop\n        /* \"#utility.yul\":8349:8629   */\n      pop\n        /* \"#utility.yul\":8239:8629   */\n      swap3\n      swap2\n      pop\n      pop\n      jump\t// out\n        /* \"#utility.yul\":8635:8910   */\n    tag_18:\n        /* \"#utility.yul\":8767:8770   */\n      0x00\n        /* \"#utility.yul\":8789:8884   */\n      tag_141\n        /* \"#utility.yul\":8880:8883   */\n      dup3\n        /* \"#utility.yul\":8871:8877   */\n      dup5\n        /* \"#utility.yul\":8789:8884   */\n      tag_57\n      jump\t// in\n    tag_141:\n        /* \"#utility.yul\":8782:8884   */\n      swap2\n      pop\n        /* \"#utility.yul\":8901:8904   */\n      dup2\n        /* \"#utility.yul\":8894:8904   */\n      swap1\n      pop\n        /* \"#utility.yul\":8635:8910   */\n      swap3\n      swap2\n      pop\n      pop\n      jump\t// out\n        /* \"#utility.yul\":8916:9096   */\n    tag_58:\n        /* \"#utility.yul\":8964:9041   */\n      0x4e487b7100000000000000000000000000000000000000000000000000000000\n        /* \"#utility.yul\":8961:8962   */\n      0x00\n        /* \"#utility.yul\":8954:9042   */\n      mstore\n        /* \"#utility.yul\":9061:9065   */\n      0x22\n        /* \"#utility.yul\":9058:9059   */\n      0x04\n        /* \"#utility.yul\":9051:9066   */\n      mstore\n        /* \"#utility.yul\":9085:9089   */\n      0x24\n        /* \"#utility.yul\":9082:9083   */\n      0x00\n        /* \"#utility.yul\":9075:9090   */\n      revert\n        /* \"#utility.yul\":9102:9422   */\n    tag_23:\n        /* \"#utility.yul\":9146:9152   */\n      0x00\n        /* \"#utility.yul\":9183:9184   */\n      0x02\n        /* \"#utility.yul\":9177:9181   */\n      dup3\n        /* \"#utility.yul\":9173:9185   */\n      div\n        /* \"#utility.yul\":9163:9185   */\n      swap1\n      pop\n        /* \"#utility.yul\":9230:9231   */\n      0x01\n        /* \"#utility.yul\":9224:9228   */\n      dup3\n        /* \"#utility.yul\":9220:9232   */\n      and\n        /* \"#utility.yul\":9251:9269   */\n      dup1\n        /* \"#utility.yul\":9241:9322   */\n      tag_144\n      jumpi\n        /* \"#utility.yul\":9307:9311   */\n      0x7f\n        /* \"#utility.yul\":9299:9305   */\n      dup3\n        /* \"#utility.yul\":9295:9312   */\n      and\n        /* \"#utility.yul\":9285:9312   */\n      swap2\n      pop\n        /* \"#utility.yul\":9241:9322   */\n    tag_144:\n        /* \"#utility.yul\":9369:9371   */\n      0x20\n        /* \"#utility.yul\":9361:9367   */\n      dup3\n        /* \"#utility.yul\":9358:9372   */\n      lt\n        /* \"#utility.yul\":9338:9356   */\n      dup2\n        /* \"#utility.yul\":9335:9373   */\n      sub\n        /* \"#utility.yul\":9332:9416   */\n      tag_145\n      jumpi\n        /* \"#utility.yul\":9388:9406   */\n      tag_146\n      tag_58\n      jump\t// in\n    tag_146:\n        /* \"#utility.yul\":9332:9416   */\n    tag_145:\n        /* \"#utility.yul\":9153:9422   */\n      pop\n        /* \"#utility.yul\":9102:9422   */\n      swap2\n      swap1\n      pop\n      jump\t// out\n\n    auxdata: 0xa264697066735822122092dbe2f45afbc53fd3e930cfa7cc678f928dd82911e45aa6cb4c3bf994839d3a64736f6c63430008110033\n}\n\nsub_1: assembly {\n        /* \"ElectronicMedicalRecords.sol\":1267:4564  contract Patient {... */\n      mstore(0x40, 0x80)\n        /* \"ElectronicMedicalRecords.sol\":1775:1836  constructor(address _admin) {... */\n      callvalue\n      dup1\n      iszero\n      tag_1\n      jumpi\n      0x00\n      dup1\n      revert\n    tag_1:\n      pop\n      mload(0x40)\n      sub(codesize, bytecodeSize)\n      dup1\n      bytecodeSize\n      dup4\n      codecopy\n      dup2\n      dup2\n      add\n      0x40\n      mstore\n      dup2\n      add\n      swap1\n      tag_2\n      swap2\n      swap1\n      tag_3\n      jump\t// in\n    tag_2:\n        /* \"ElectronicMedicalRecords.sol\":1822:1828  _admin */\n      dup1\n        /* \"ElectronicMedicalRecords.sol\":1814:1819  admin */\n      0x01\n      0x00\n        /* \"ElectronicMedicalRecords.sol\":1814:1828  admin = _admin */\n      0x0100\n      exp\n      dup2\n      sload\n      dup2\n      0xffffffffffffffffffffffffffffffffffffffff\n      mul\n      not\n      and\n      swap1\n      dup4\n      0xffffffffffffffffffffffffffffffffffffffff\n      and\n      mul\n      or\n      swap1\n      sstore\n      pop\n        /* \"ElectronicMedicalRecords.sol\":1775:1836  constructor(address _admin) {... */\n      pop\n        /* \"ElectronicMedicalRecords.sol\":1267:4564  contract Patient {... */\n      jump(tag_6)\n        /* \"#utility.yul\":88:205   */\n    tag_8:\n        /* \"#utility.yul\":197:198   */\n      0x00\n        /* \"#utility.yul\":194:195   */\n      dup1\n        /* \"#utility.yul\":187:199   */\n      revert\n        /* \"#utility.yul\":334:460   */\n    tag_10:\n        /* \"#utility.yul\":371:378   */\n      0x00\n        /* \"#utility.yul\":411:453   */\n      0xffffffffffffffffffffffffffffffffffffffff\n        /* \"#utility.yul\":404:409   */\n      dup3\n        /* \"#utility.yul\":400:454   */\n      and\n        /* \"#utility.yul\":389:454   */\n      swap1\n      pop\n        /* \"#utility.yul\":334:460   */\n      swap2\n      swap1\n      pop\n      jump\t// out\n        /* \"#utility.yul\":466:562   */\n    tag_11:\n        /* \"#utility.yul\":503:510   */\n      0x00\n        /* \"#utility.yul\":532:556   */\n      tag_20\n        /* \"#utility.yul\":550:555   */\n      dup3\n        /* \"#utility.yul\":532:556   */\n      tag_10\n      jump\t// in\n    tag_20:\n        /* \"#utility.yul\":521:556   */\n      swap1\n      pop\n        /* \"#utility.yul\":466:562   */\n      swap2\n      swap1\n      pop\n      jump\t// out\n        /* \"#utility.yul\":568:690   */\n    tag_12:\n        /* \"#utility.yul\":641:665   */\n      tag_22\n        /* \"#utility.yul\":659:664   */\n      dup2\n        /* \"#utility.yul\":641:665   */\n      tag_11\n      jump\t// in\n    tag_22:\n        /* \"#utility.yul\":634:639   */\n      dup2\n        /* \"#utility.yul\":631:666   */\n      eq\n        /* \"#utility.yul\":621:684   */\n      tag_23\n      jumpi\n        /* \"#utility.yul\":680:681   */\n      0x00\n        /* \"#utility.yul\":677:678   */\n      dup1\n        /* \"#utility.yul\":670:682   */\n      revert\n        /* \"#utility.yul\":621:684   */\n    tag_23:\n        /* \"#utility.yul\":568:690   */\n      pop\n      jump\t// out\n        /* \"#utility.yul\":696:839   */\n    tag_13:\n        /* \"#utility.yul\":753:758   */\n      0x00\n        /* \"#utility.yul\":784:790   */\n      dup2\n        /* \"#utility.yul\":778:791   */\n      mload\n        /* \"#utility.yul\":769:791   */\n      swap1\n      pop\n        /* \"#utility.yul\":800:833   */\n      tag_25\n        /* \"#utility.yul\":827:832   */\n      dup2\n        /* \"#utility.yul\":800:833   */\n      tag_12\n      jump\t// in\n    tag_25:\n        /* \"#utility.yul\":696:839   */\n      swap3\n      swap2\n      pop\n      pop\n      jump\t// out\n        /* \"#utility.yul\":845:1196   */\n    tag_3:\n        /* \"#utility.yul\":915:921   */\n      0x00\n        /* \"#utility.yul\":964:966   */\n      0x20\n        /* \"#utility.yul\":952:961   */\n      dup3\n        /* \"#utility.yul\":943:950   */\n      dup5\n        /* \"#utility.yul\":939:962   */\n      sub\n        /* \"#utility.yul\":935:967   */\n      slt\n        /* \"#utility.yul\":932:1051   */\n      iszero\n      tag_27\n      jumpi\n        /* \"#utility.yul\":970:1049   */\n      tag_28\n      tag_8\n      jump\t// in\n    tag_28:\n        /* \"#utility.yul\":932:1051   */\n    tag_27:\n        /* \"#utility.yul\":1090:1091   */\n      0x00\n        /* \"#utility.yul\":1115:1179   */\n      tag_29\n        /* \"#utility.yul\":1171:1178   */\n      dup5\n        /* \"#utility.yul\":1162:1168   */\n      dup3\n        /* \"#utility.yul\":1151:1160   */\n      dup6\n        /* \"#utility.yul\":1147:1169   */\n      add\n        /* \"#utility.yul\":1115:1179   */\n      tag_13\n      jump\t// in\n    tag_29:\n        /* \"#utility.yul\":1105:1179   */\n      swap2\n      pop\n        /* \"#utility.yul\":1061:1189   */\n      pop\n        /* \"#utility.yul\":845:1196   */\n      swap3\n      swap2\n      pop\n      pop\n      jump\t// out\n        /* \"ElectronicMedicalRecords.sol\":1267:4564  contract Patient {... */\n    tag_6:\n      dataSize(sub_0)\n      dup1\n      dataOffset(sub_0)\n      0x00\n      codecopy\n      0x00\n      return\n    stop\n\n    sub_0: assembly {\n            /* \"ElectronicMedicalRecords.sol\":1267:4564  contract Patient {... */\n          mstore(0x40, 0x80)\n          callvalue\n          dup1\n          iszero\n          tag_1\n          jumpi\n          0x00\n          dup1\n          revert\n        tag_1:\n          pop\n          jumpi(tag_2, lt(calldatasize, 0x04))\n          shr(0xe0, calldataload(0x00))\n          dup1\n          0x1107747e\n          eq\n          tag_3\n          jumpi\n          dup1\n          0x26c01f7d\n          eq\n          tag_4\n          jumpi\n          dup1\n          0x48e81852\n          eq\n          tag_5\n          jumpi\n          dup1\n          0x52a6042d\n          eq\n          tag_6\n          jumpi\n          dup1\n          0x5db185c7\n          eq\n          tag_7\n          jumpi\n          dup1\n          0x7621df6f\n          eq\n          tag_8\n          jumpi\n        tag_2:\n          0x00\n          dup1\n          revert\n            /* \"ElectronicMedicalRecords.sol\":1844:2007  function setDoctorVerificatorAddress(address _DoctorVerificatorAddress) public {... */\n        tag_3:\n          tag_9\n          0x04\n          dup1\n          calldatasize\n          sub\n          dup2\n          add\n          swap1\n          tag_10\n          swap2\n          swap1\n          tag_11\n          jump\t// in\n        tag_10:\n          tag_12\n          jump\t// in\n        tag_9:\n          stop\n            /* \"ElectronicMedicalRecords.sol\":2347:3284  function setPatientData(... */\n        tag_4:\n          tag_13\n          0x04\n          dup1\n          calldatasize\n          sub\n          dup2\n          add\n          swap1\n          tag_14\n          swap2\n          swap1\n          tag_15\n          jump\t// in\n        tag_14:\n          tag_16\n          jump\t// in\n        tag_13:\n          stop\n            /* \"ElectronicMedicalRecords.sol\":3292:3489  function getPatientData(address _address)... */\n        tag_5:\n          tag_17\n          0x04\n          dup1\n          calldatasize\n          sub\n          dup2\n          add\n          swap1\n          tag_18\n          swap2\n          swap1\n          tag_11\n          jump\t// in\n        tag_18:\n          tag_19\n          jump\t// in\n        tag_17:\n          mload(0x40)\n          tag_20\n          swap2\n          swap1\n          tag_21\n          jump\t// in\n        tag_20:\n          mload(0x40)\n          dup1\n          swap2\n          sub\n          swap1\n          return\n            /* \"ElectronicMedicalRecords.sol\":3497:4294  function updatePatientData(... */\n        tag_6:\n          tag_22\n          0x04\n          dup1\n          calldatasize\n          sub\n          dup2\n          add\n          swap1\n          tag_23\n          swap2\n          swap1\n          tag_15\n          jump\t// in\n        tag_23:\n          tag_24\n          jump\t// in\n        tag_22:\n          stop\n            /* \"ElectronicMedicalRecords.sol\":2015:2183  function setPatientVerificatorAddress(address _PatientVerificatorAddress) public {... */\n        tag_7:\n          tag_25\n          0x04\n          dup1\n          calldatasize\n          sub\n          dup2\n          add\n          swap1\n          tag_26\n          swap2\n          swap1\n          tag_11\n          jump\t// in\n        tag_26:\n          tag_27\n          jump\t// in\n        tag_25:\n          stop\n            /* \"ElectronicMedicalRecords.sol\":2191:2339  function setDoctorRelationAddress(address _DoctorRelationAddress) public {... */\n        tag_8:\n          tag_28\n          0x04\n          dup1\n          calldatasize\n          sub\n          dup2\n          add\n          swap1\n          tag_29\n          swap2\n          swap1\n          tag_11\n          jump\t// in\n        tag_29:\n          tag_30\n          jump\t// in\n        tag_28:\n          stop\n            /* \"ElectronicMedicalRecords.sol\":1844:2007  function setDoctorVerificatorAddress(address _DoctorVerificatorAddress) public {... */\n        tag_12:\n            /* \"ElectronicMedicalRecords.sol\":1973:1998  _DoctorVerificatorAddress */\n          dup1\n            /* \"ElectronicMedicalRecords.sol\":1934:1952  doctor_verificator */\n          0x02\n          0x00\n            /* \"ElectronicMedicalRecords.sol\":1934:1999  doctor_verificator = DoctorVerificator(_DoctorVerificatorAddress) */\n          0x0100\n          exp\n          dup2\n          sload\n          dup2\n          0xffffffffffffffffffffffffffffffffffffffff\n          mul\n          not\n          and\n          swap1\n          dup4\n          0xffffffffffffffffffffffffffffffffffffffff\n          and\n          mul\n          or\n          swap1\n          sstore\n          pop\n            /* \"ElectronicMedicalRecords.sol\":1844:2007  function setDoctorVerificatorAddress(address _DoctorVerificatorAddress) public {... */\n          pop\n          jump\t// out\n            /* \"ElectronicMedicalRecords.sol\":2347:3284  function setPatientData(... */\n        tag_16:\n            /* \"ElectronicMedicalRecords.sol\":4343:4361  doctor_verificator */\n          0x02\n          0x00\n          swap1\n          sload\n          swap1\n          0x0100\n          exp\n          swap1\n          div\n          0xffffffffffffffffffffffffffffffffffffffff\n          and\n            /* \"ElectronicMedicalRecords.sol\":4343:4368  doctor_verificator.verify */\n          0xffffffffffffffffffffffffffffffffffffffff\n          and\n          0x63a9c3d7\n            /* \"ElectronicMedicalRecords.sol\":4369:4379  msg.sender */\n          caller\n            /* \"ElectronicMedicalRecords.sol\":4343:4380  doctor_verificator.verify(msg.sender) */\n          mload(0x40)\n          dup3\n          0xffffffff\n          and\n          0xe0\n          shl\n          dup2\n          mstore\n          0x04\n          add\n          tag_33\n          swap2\n          swap1\n          tag_34\n          jump\t// in\n        tag_33:\n          0x20\n          mload(0x40)\n          dup1\n          dup4\n          sub\n          dup2\n          dup7\n          gas\n          staticcall\n          iszero\n          dup1\n          iszero\n          tag_36\n          jumpi\n          returndatasize\n          0x00\n          dup1\n          returndatacopy\n          revert(0x00, returndatasize)\n        tag_36:\n          pop\n          pop\n          pop\n          pop\n          mload(0x40)\n          returndatasize\n          not(0x1f)\n          0x1f\n          dup3\n          add\n          and\n          dup3\n          add\n          dup1\n          0x40\n          mstore\n          pop\n          dup2\n          add\n          swap1\n          tag_37\n          swap2\n          swap1\n          tag_38\n          jump\t// in\n        tag_37:\n            /* \"ElectronicMedicalRecords.sol\":4335:4381  require(doctor_verificator.verify(msg.sender)) */\n          tag_39\n          jumpi\n          0x00\n          dup1\n          revert\n        tag_39:\n            /* \"ElectronicMedicalRecords.sol\":2687:2721  PatientData storage newPatientData */\n          0x00\n            /* \"ElectronicMedicalRecords.sol\":2724:2736  Patient_Data */\n          dup1\n            /* \"ElectronicMedicalRecords.sol\":2724:2746  Patient_Data[_patient] */\n          0x00\n            /* \"ElectronicMedicalRecords.sol\":2737:2745  _patient */\n          dup11\n            /* \"ElectronicMedicalRecords.sol\":2724:2746  Patient_Data[_patient] */\n          0xffffffffffffffffffffffffffffffffffffffff\n          and\n          0xffffffffffffffffffffffffffffffffffffffff\n          and\n          dup2\n          mstore\n          0x20\n          add\n          swap1\n          dup2\n          mstore\n          0x20\n          add\n          0x00\n          keccak256\n            /* \"ElectronicMedicalRecords.sol\":2687:2746  PatientData storage newPatientData = Patient_Data[_patient] */\n          swap1\n          pop\n            /* \"ElectronicMedicalRecords.sol\":2789:2797  _patient */\n          dup9\n            /* \"ElectronicMedicalRecords.sol\":2757:2771  newPatientData */\n          dup2\n            /* \"ElectronicMedicalRecords.sol\":2757:2786  newPatientData.patientAddress */\n          0x00\n          add\n          0x00\n            /* \"ElectronicMedicalRecords.sol\":2757:2797  newPatientData.patientAddress = _patient */\n          0x0100\n          exp\n          dup2\n          sload\n          dup2\n          0xffffffffffffffffffffffffffffffffffffffff\n          mul\n          not\n          and\n          swap1\n          dup4\n          0xffffffffffffffffffffffffffffffffffffffff\n          and\n          mul\n          or\n          swap1\n          sstore\n          pop\n            /* \"ElectronicMedicalRecords.sol\":2838:2851  _nama_lengkap */\n          dup8\n            /* \"ElectronicMedicalRecords.sol\":2808:2822  newPatientData */\n          dup2\n            /* \"ElectronicMedicalRecords.sol\":2808:2835  newPatientData.nama_lengkap */\n          0x01\n          add\n            /* \"ElectronicMedicalRecords.sol\":2808:2851  newPatientData.nama_lengkap = _nama_lengkap */\n          swap1\n          dup2\n          tag_41\n          swap2\n          swap1\n          tag_42\n          jump\t// in\n        tag_41:\n          pop\n            /* \"ElectronicMedicalRecords.sol\":2884:2889  _umur */\n          dup7\n            /* \"ElectronicMedicalRecords.sol\":2862:2876  newPatientData */\n          dup2\n            /* \"ElectronicMedicalRecords.sol\":2862:2881  newPatientData.umur */\n          0x02\n          add\n            /* \"ElectronicMedicalRecords.sol\":2862:2889  newPatientData.umur = _umur */\n          dup2\n          swap1\n          sstore\n          pop\n            /* \"ElectronicMedicalRecords.sol\":2931:2945  _tanggal_lahir */\n          dup6\n            /* \"ElectronicMedicalRecords.sol\":2900:2914  newPatientData */\n          dup2\n            /* \"ElectronicMedicalRecords.sol\":2900:2928  newPatientData.tanggal_lahir */\n          0x03\n          add\n            /* \"ElectronicMedicalRecords.sol\":2900:2945  newPatientData.tanggal_lahir = _tanggal_lahir */\n          swap1\n          dup2\n          tag_43\n          swap2\n          swap1\n          tag_42\n          jump\t// in\n        tag_43:\n          pop\n            /* \"ElectronicMedicalRecords.sol\":2987:3001  _tanggal_masuk */\n          dup5\n            /* \"ElectronicMedicalRecords.sol\":2956:2970  newPatientData */\n          dup2\n            /* \"ElectronicMedicalRecords.sol\":2956:2984  newPatientData.tanggal_masuk */\n          0x04\n          add\n            /* \"ElectronicMedicalRecords.sol\":2956:3001  newPatientData.tanggal_masuk = _tanggal_masuk */\n          swap1\n          dup2\n          tag_44\n          swap2\n          swap1\n          tag_42\n          jump\t// in\n        tag_44:\n          pop\n            /* \"ElectronicMedicalRecords.sol\":3044:3059  _tanggal_keluar */\n          dup4\n            /* \"ElectronicMedicalRecords.sol\":3012:3026  newPatientData */\n          dup2\n            /* \"ElectronicMedicalRecords.sol\":3012:3041  newPatientData.tanggal_keluar */\n          0x05\n          add\n            /* \"ElectronicMedicalRecords.sol\":3012:3059  newPatientData.tanggal_keluar = _tanggal_keluar */\n          swap1\n          dup2\n          tag_45\n          swap2\n          swap1\n          tag_42\n          jump\t// in\n        tag_45:\n          pop\n            /* \"ElectronicMedicalRecords.sol\":3097:3107  _anamnesis */\n          dup3\n            /* \"ElectronicMedicalRecords.sol\":3070:3084  newPatientData */\n          dup2\n            /* \"ElectronicMedicalRecords.sol\":3070:3094  newPatientData.anamnesis */\n          0x06\n          add\n            /* \"ElectronicMedicalRecords.sol\":3070:3107  newPatientData.anamnesis = _anamnesis */\n          swap1\n          dup2\n          tag_46\n          swap2\n          swap1\n          tag_42\n          jump\t// in\n        tag_46:\n          pop\n            /* \"ElectronicMedicalRecords.sol\":3145:3155  _diagnosis */\n          dup2\n            /* \"ElectronicMedicalRecords.sol\":3118:3132  newPatientData */\n          dup2\n            /* \"ElectronicMedicalRecords.sol\":3118:3142  newPatientData.diagnosis */\n          0x07\n          add\n            /* \"ElectronicMedicalRecords.sol\":3118:3155  newPatientData.diagnosis = _diagnosis */\n          swap1\n          dup2\n          tag_47\n          swap2\n          swap1\n          tag_42\n          jump\t// in\n        tag_47:\n          pop\n            /* \"ElectronicMedicalRecords.sol\":3168:3187  patient_verificator */\n          0x03\n          0x00\n          swap1\n          sload\n          swap1\n          0x0100\n          exp\n          swap1\n          div\n          0xffffffffffffffffffffffffffffffffffffffff\n          and\n            /* \"ElectronicMedicalRecords.sol\":3168:3198  patient_verificator.addPatient */\n          0xffffffffffffffffffffffffffffffffffffffff\n          and\n          0x6d263ceb\n            /* \"ElectronicMedicalRecords.sol\":3199:3207  _patient */\n          dup11\n            /* \"ElectronicMedicalRecords.sol\":3168:3208  patient_verificator.addPatient(_patient) */\n          mload(0x40)\n          dup3\n          0xffffffff\n          and\n          0xe0\n          shl\n          dup2\n          mstore\n          0x04\n          add\n          tag_48\n          swap2\n          swap1\n          tag_34\n          jump\t// in\n        tag_48:\n          0x00\n          mload(0x40)\n          dup1\n          dup4\n          sub\n          dup2\n          0x00\n          dup8\n          dup1\n          extcodesize\n          iszero\n          dup1\n          iszero\n          tag_49\n          jumpi\n          0x00\n          dup1\n          revert\n        tag_49:\n          pop\n          gas\n          call\n          iszero\n          dup1\n          iszero\n          tag_51\n          jumpi\n          returndatasize\n          0x00\n          dup1\n          returndatacopy\n          revert(0x00, returndatasize)\n        tag_51:\n          pop\n          pop\n          pop\n          pop\n            /* \"ElectronicMedicalRecords.sol\":3219:3234  doctor_relation */\n          0x04\n          0x00\n          swap1\n          sload\n          swap1\n          0x0100\n          exp\n          swap1\n          div\n          0xffffffffffffffffffffffffffffffffffffffff\n          and\n            /* \"ElectronicMedicalRecords.sol\":3219:3252  doctor_relation.addDoctorRelation */\n          0xffffffffffffffffffffffffffffffffffffffff\n          and\n          0x8bfc8c71\n            /* \"ElectronicMedicalRecords.sol\":3253:3263  msg.sender */\n          caller\n            /* \"ElectronicMedicalRecords.sol\":3265:3273  _patient */\n          dup12\n            /* \"ElectronicMedicalRecords.sol\":3219:3274  doctor_relation.addDoctorRelation(msg.sender, _patient) */\n          mload(0x40)\n          dup4\n          0xffffffff\n          and\n          0xe0\n          shl\n          dup2\n          mstore\n          0x04\n          add\n          tag_52\n          swap3\n          swap2\n          swap1\n          tag_53\n          jump\t// in\n        tag_52:\n          0x00\n          mload(0x40)\n          dup1\n          dup4\n          sub\n          dup2\n          0x00\n          dup8\n          dup1\n          extcodesize\n          iszero\n          dup1\n          iszero\n          tag_54\n          jumpi\n          0x00\n          dup1\n          revert\n        tag_54:\n          pop\n          gas\n          call\n          iszero\n          dup1\n          iszero\n          tag_56\n          jumpi\n          returndatasize\n          0x00\n          dup1\n          returndatacopy\n          revert(0x00, returndatasize)\n        tag_56:\n          pop\n          pop\n          pop\n          pop\n            /* \"ElectronicMedicalRecords.sol\":2675:3284  { ... */\n          pop\n            /* \"ElectronicMedicalRecords.sol\":2347:3284  function setPatientData(... */\n          pop\n          pop\n          pop\n          pop\n          pop\n          pop\n          pop\n          pop\n          jump\t// out\n            /* \"ElectronicMedicalRecords.sol\":3292:3489  function getPatientData(address _address)... */\n        tag_19:\n            /* \"ElectronicMedicalRecords.sol\":3411:3434  PatientData memory data */\n          tag_57\n          tag_58\n          jump\t// in\n        tag_57:\n            /* \"ElectronicMedicalRecords.sol\":4459:4477  doctor_verificator */\n          0x02\n          0x00\n          swap1\n          sload\n          swap1\n          0x0100\n          exp\n          swap1\n          div\n          0xffffffffffffffffffffffffffffffffffffffff\n          and\n            /* \"ElectronicMedicalRecords.sol\":4459:4484  doctor_verificator.verify */\n          0xffffffffffffffffffffffffffffffffffffffff\n          and\n          0x63a9c3d7\n            /* \"ElectronicMedicalRecords.sol\":4485:4495  msg.sender */\n          caller\n            /* \"ElectronicMedicalRecords.sol\":4459:4496  doctor_verificator.verify(msg.sender) */\n          mload(0x40)\n          dup3\n          0xffffffff\n          and\n          0xe0\n          shl\n          dup2\n          mstore\n          0x04\n          add\n          tag_60\n          swap2\n          swap1\n          tag_34\n          jump\t// in\n        tag_60:\n          0x20\n          mload(0x40)\n          dup1\n          dup4\n          sub\n          dup2\n          dup7\n          gas\n          staticcall\n          iszero\n          dup1\n          iszero\n          tag_62\n          jumpi\n          returndatasize\n          0x00\n          dup1\n          returndatacopy\n          revert(0x00, returndatasize)\n        tag_62:\n          pop\n          pop\n          pop\n          pop\n          mload(0x40)\n          returndatasize\n          not(0x1f)\n          0x1f\n          dup3\n          add\n          and\n          dup3\n          add\n          dup1\n          0x40\n          mstore\n          pop\n          dup2\n          add\n          swap1\n          tag_63\n          swap2\n          swap1\n          tag_38\n          jump\t// in\n        tag_63:\n            /* \"ElectronicMedicalRecords.sol\":4459:4538  doctor_verificator.verify(msg.sender) || patient_verificator.verify(msg.sender) */\n          dup1\n          tag_64\n          jumpi\n          pop\n            /* \"ElectronicMedicalRecords.sol\":4500:4519  patient_verificator */\n          0x03\n          0x00\n          swap1\n          sload\n          swap1\n          0x0100\n          exp\n          swap1\n          div\n          0xffffffffffffffffffffffffffffffffffffffff\n          and\n            /* \"ElectronicMedicalRecords.sol\":4500:4526  patient_verificator.verify */\n          0xffffffffffffffffffffffffffffffffffffffff\n          and\n          0x63a9c3d7\n            /* \"ElectronicMedicalRecords.sol\":4527:4537  msg.sender */\n          caller\n            /* \"ElectronicMedicalRecords.sol\":4500:4538  patient_verificator.verify(msg.sender) */\n          mload(0x40)\n          dup3\n          0xffffffff\n          and\n          0xe0\n          shl\n          dup2\n          mstore\n          0x04\n          add\n          tag_65\n          swap2\n          swap1\n          tag_34\n          jump\t// in\n        tag_65:\n          0x20\n          mload(0x40)\n          dup1\n          dup4\n          sub\n          dup2\n          dup7\n          gas\n          staticcall\n          iszero\n          dup1\n          iszero\n          tag_67\n          jumpi\n          returndatasize\n          0x00\n          dup1\n          returndatacopy\n          revert(0x00, returndatasize)\n        tag_67:\n          pop\n          pop\n          pop\n          pop\n          mload(0x40)\n          returndatasize\n          not(0x1f)\n          0x1f\n          dup3\n          add\n          and\n          dup3\n          add\n          dup1\n          0x40\n          mstore\n          pop\n          dup2\n          add\n          swap1\n          tag_68\n          swap2\n          swap1\n          tag_38\n          jump\t// in\n        tag_68:\n            /* \"ElectronicMedicalRecords.sol\":4459:4538  doctor_verificator.verify(msg.sender) || patient_verificator.verify(msg.sender) */\n        tag_64:\n            /* \"ElectronicMedicalRecords.sol\":4451:4539  require(doctor_verificator.verify(msg.sender) || patient_verificator.verify(msg.sender)) */\n          tag_69\n          jumpi\n          0x00\n          dup1\n          revert\n        tag_69:\n            /* \"ElectronicMedicalRecords.sol\":3459:3471  Patient_Data */\n          0x00\n            /* \"ElectronicMedicalRecords.sol\":3459:3481  Patient_Data[_address] */\n          dup1\n            /* \"ElectronicMedicalRecords.sol\":3472:3480  _address */\n          dup4\n            /* \"ElectronicMedicalRecords.sol\":3459:3481  Patient_Data[_address] */\n          0xffffffffffffffffffffffffffffffffffffffff\n          and\n          0xffffffffffffffffffffffffffffffffffffffff\n          and\n          dup2\n          mstore\n          0x20\n          add\n          swap1\n          dup2\n          mstore\n          0x20\n          add\n          0x00\n          keccak256\n            /* \"ElectronicMedicalRecords.sol\":3452:3481  return Patient_Data[_address] */\n          mload(0x40)\n          dup1\n          0x0100\n          add\n          0x40\n          mstore\n          swap1\n          dup2\n          0x00\n          dup3\n          add\n          0x00\n          swap1\n          sload\n          swap1\n          0x0100\n          exp\n          swap1\n          div\n          0xffffffffffffffffffffffffffffffffffffffff\n          and\n          0xffffffffffffffffffffffffffffffffffffffff\n          and\n          0xffffffffffffffffffffffffffffffffffffffff\n          and\n          dup2\n          mstore\n          0x20\n          add\n          0x01\n          dup3\n          add\n          dup1\n          sload\n          tag_71\n          swap1\n          tag_72\n          jump\t// in\n        tag_71:\n          dup1\n          0x1f\n          add\n          0x20\n          dup1\n          swap2\n          div\n          mul\n          0x20\n          add\n          mload(0x40)\n          swap1\n          dup2\n          add\n          0x40\n          mstore\n          dup1\n          swap3\n          swap2\n          swap1\n          dup2\n          dup2\n          mstore\n          0x20\n          add\n          dup3\n          dup1\n          sload\n          tag_73\n          swap1\n          tag_72\n          jump\t// in\n        tag_73:\n          dup1\n          iszero\n          tag_74\n          jumpi\n          dup1\n          0x1f\n          lt\n          tag_75\n          jumpi\n          0x0100\n          dup1\n          dup4\n          sload\n          div\n          mul\n          dup4\n          mstore\n          swap2\n          0x20\n          add\n          swap2\n          jump(tag_74)\n        tag_75:\n          dup3\n          add\n          swap2\n          swap1\n          0x00\n          mstore\n          keccak256(0x00, 0x20)\n          swap1\n        tag_76:\n          dup2\n          sload\n          dup2\n          mstore\n          swap1\n          0x01\n          add\n          swap1\n          0x20\n          add\n          dup1\n          dup4\n          gt\n          tag_76\n          jumpi\n          dup3\n          swap1\n          sub\n          0x1f\n          and\n          dup3\n          add\n          swap2\n        tag_74:\n          pop\n          pop\n          pop\n          pop\n          pop\n          dup2\n          mstore\n          0x20\n          add\n          0x02\n          dup3\n          add\n          sload\n          dup2\n          mstore\n          0x20\n          add\n          0x03\n          dup3\n          add\n          dup1\n          sload\n          tag_77\n          swap1\n          tag_72\n          jump\t// in\n        tag_77:\n          dup1\n          0x1f\n          add\n          0x20\n          dup1\n          swap2\n          div\n          mul\n          0x20\n          add\n          mload(0x40)\n          swap1\n          dup2\n          add\n          0x40\n          mstore\n          dup1\n          swap3\n          swap2\n          swap1\n          dup2\n          dup2\n          mstore\n          0x20\n          add\n          dup3\n          dup1\n          sload\n          tag_78\n          swap1\n          tag_72\n          jump\t// in\n        tag_78:\n          dup1\n          iszero\n          tag_79\n          jumpi\n          dup1\n          0x1f\n          lt\n          tag_80\n          jumpi\n          0x0100\n          dup1\n          dup4\n          sload\n          div\n          mul\n          dup4\n          mstore\n          swap2\n          0x20\n          add\n          swap2\n          jump(tag_79)\n        tag_80:\n          dup3\n          add\n          swap2\n          swap1\n          0x00\n          mstore\n          keccak256(0x00, 0x20)\n          swap1\n        tag_81:\n          dup2\n          sload\n          dup2\n          mstore\n          swap1\n          0x01\n          add\n          swap1\n          0x20\n          add\n          dup1\n          dup4\n          gt\n          tag_81\n          jumpi\n          dup3\n          swap1\n          sub\n          0x1f\n          and\n          dup3\n          add\n          swap2\n        tag_79:\n          pop\n          pop\n          pop\n          pop\n          pop\n          dup2\n          mstore\n          0x20\n          add\n          0x04\n          dup3\n          add\n          dup1\n          sload\n          tag_82\n          swap1\n          tag_72\n          jump\t// in\n        tag_82:\n          dup1\n          0x1f\n          add\n          0x20\n          dup1\n          swap2\n          div\n          mul\n          0x20\n          add\n          mload(0x40)\n          swap1\n          dup2\n          add\n          0x40\n          mstore\n          dup1\n          swap3\n          swap2\n          swap1\n          dup2\n          dup2\n          mstore\n          0x20\n          add\n          dup3\n          dup1\n          sload\n          tag_83\n          swap1\n          tag_72\n          jump\t// in\n        tag_83:\n          dup1\n          iszero\n          tag_84\n          jumpi\n          dup1\n          0x1f\n          lt\n          tag_85\n          jumpi\n          0x0100\n          dup1\n          dup4\n          sload\n          div\n          mul\n          dup4\n          mstore\n          swap2\n          0x20\n          add\n          swap2\n          jump(tag_84)\n        tag_85:\n          dup3\n          add\n          swap2\n          swap1\n          0x00\n          mstore\n          keccak256(0x00, 0x20)\n          swap1\n        tag_86:\n          dup2\n          sload\n          dup2\n          mstore\n          swap1\n          0x01\n          add\n          swap1\n          0x20\n          add\n          dup1\n          dup4\n          gt\n          tag_86\n          jumpi\n          dup3\n          swap1\n          sub\n          0x1f\n          and\n          dup3\n          add\n          swap2\n        tag_84:\n          pop\n          pop\n          pop\n          pop\n          pop\n          dup2\n          mstore\n          0x20\n          add\n          0x05\n          dup3\n          add\n          dup1\n          sload\n          tag_87\n          swap1\n          tag_72\n          jump\t// in\n        tag_87:\n          dup1\n          0x1f\n          add\n          0x20\n          dup1\n          swap2\n          div\n          mul\n          0x20\n          add\n          mload(0x40)\n          swap1\n          dup2\n          add\n          0x40\n          mstore\n          dup1\n          swap3\n          swap2\n          swap1\n          dup2\n          dup2\n          mstore\n          0x20\n          add\n          dup3\n          dup1\n          sload\n          tag_88\n          swap1\n          tag_72\n          jump\t// in\n        tag_88:\n          dup1\n          iszero\n          tag_89\n          jumpi\n          dup1\n          0x1f\n          lt\n          tag_90\n          jumpi\n          0x0100\n          dup1\n          dup4\n          sload\n          div\n          mul\n          dup4\n          mstore\n          swap2\n          0x20\n          add\n          swap2\n          jump(tag_89)\n        tag_90:\n          dup3\n          add\n          swap2\n          swap1\n          0x00\n          mstore\n          keccak256(0x00, 0x20)\n          swap1\n        tag_91:\n          dup2\n          sload\n          dup2\n          mstore\n          swap1\n          0x01\n          add\n          swap1\n          0x20\n          add\n          dup1\n          dup4\n          gt\n          tag_91\n          jumpi\n          dup3\n          swap1\n          sub\n          0x1f\n          and\n          dup3\n          add\n          swap2\n        tag_89:\n          pop\n          pop\n          pop\n          pop\n          pop\n          dup2\n          mstore\n          0x20\n          add\n          0x06\n          dup3\n          add\n          dup1\n          sload\n          tag_92\n          swap1\n          tag_72\n          jump\t// in\n        tag_92:\n          dup1\n          0x1f\n          add\n          0x20\n          dup1\n          swap2\n          div\n          mul\n          0x20\n          add\n          mload(0x40)\n          swap1\n          dup2\n          add\n          0x40\n          mstore\n          dup1\n          swap3\n          swap2\n          swap1\n          dup2\n          dup2\n          mstore\n          0x20\n          add\n          dup3\n          dup1\n          sload\n          tag_93\n          swap1\n          tag_72\n          jump\t// in\n        tag_93:\n          dup1\n          iszero\n          tag_94\n          jumpi\n          dup1\n          0x1f\n          lt\n          tag_95\n          jumpi\n          0x0100\n          dup1\n          dup4\n          sload\n          div\n          mul\n          dup4\n          mstore\n          swap2\n          0x20\n          add\n          swap2\n          jump(tag_94)\n        tag_95:\n          dup3\n          add\n          swap2\n          swap1\n          0x00\n          mstore\n          keccak256(0x00, 0x20)\n          swap1\n        tag_96:\n          dup2\n          sload\n          dup2\n          mstore\n          swap1\n          0x01\n          add\n          swap1\n          0x20\n          add\n          dup1\n          dup4\n          gt\n          tag_96\n          jumpi\n          dup3\n          swap1\n          sub\n          0x1f\n          and\n          dup3\n          add\n          swap2\n        tag_94:\n          pop\n          pop\n          pop\n          pop\n          pop\n          dup2\n          mstore\n          0x20\n          add\n          0x07\n          dup3\n          add\n          dup1\n          sload\n          tag_97\n          swap1\n          tag_72\n          jump\t// in\n        tag_97:\n          dup1\n          0x1f\n          add\n          0x20\n          dup1\n          swap2\n          div\n          mul\n          0x20\n          add\n          mload(0x40)\n          swap1\n          dup2\n          add\n          0x40\n          mstore\n          dup1\n          swap3\n          swap2\n          swap1\n          dup2\n          dup2\n          mstore\n          0x20\n          add\n          dup3\n          dup1\n          sload\n          tag_98\n          swap1\n          tag_72\n          jump\t// in\n        tag_98:\n          dup1\n          iszero\n          tag_99\n          jumpi\n          dup1\n          0x1f\n          lt\n          tag_100\n          jumpi\n          0x0100\n          dup1\n          dup4\n          sload\n          div\n          mul\n          dup4\n          mstore\n          swap2\n          0x20\n          add\n          swap2\n          jump(tag_99)\n        tag_100:\n          dup3\n          add\n          swap2\n          swap1\n          0x00\n          mstore\n          keccak256(0x00, 0x20)\n          swap1\n        tag_101:\n          dup2\n          sload\n          dup2\n          mstore\n          swap1\n          0x01\n          add\n          swap1\n          0x20\n          add\n          dup1\n          dup4\n          gt\n          tag_101\n          jumpi\n          dup3\n          swap1\n          sub\n          0x1f\n          and\n          dup3\n          add\n          swap2\n        tag_99:\n          pop\n          pop\n          pop\n          pop\n          pop\n          dup2\n          mstore\n          pop\n          pop\n          swap1\n          pop\n            /* \"ElectronicMedicalRecords.sol\":3292:3489  function getPatientData(address _address)... */\n          swap2\n          swap1\n          pop\n          jump\t// out\n            /* \"ElectronicMedicalRecords.sol\":3497:4294  function updatePatientData(... */\n        tag_24:\n            /* \"ElectronicMedicalRecords.sol\":3829:3868  PatientData storage existingPatientData */\n          0x00\n            /* \"ElectronicMedicalRecords.sol\":3871:3883  Patient_Data */\n          dup1\n            /* \"ElectronicMedicalRecords.sol\":3871:3893  Patient_Data[_patient] */\n          0x00\n            /* \"ElectronicMedicalRecords.sol\":3884:3892  _patient */\n          dup11\n            /* \"ElectronicMedicalRecords.sol\":3871:3893  Patient_Data[_patient] */\n          0xffffffffffffffffffffffffffffffffffffffff\n          and\n          0xffffffffffffffffffffffffffffffffffffffff\n          and\n          dup2\n          mstore\n          0x20\n          add\n          swap1\n          dup2\n          mstore\n          0x20\n          add\n          0x00\n          keccak256\n            /* \"ElectronicMedicalRecords.sol\":3829:3893  PatientData storage existingPatientData = Patient_Data[_patient] */\n          swap1\n          pop\n            /* \"ElectronicMedicalRecords.sol\":3939:3952  _nama_lengkap */\n          dup8\n            /* \"ElectronicMedicalRecords.sol\":3904:3923  existingPatientData */\n          dup2\n            /* \"ElectronicMedicalRecords.sol\":3904:3936  existingPatientData.nama_lengkap */\n          0x01\n          add\n            /* \"ElectronicMedicalRecords.sol\":3904:3952  existingPatientData.nama_lengkap = _nama_lengkap */\n          swap1\n          dup2\n          tag_103\n          swap2\n          swap1\n          tag_42\n          jump\t// in\n        tag_103:\n          pop\n            /* \"ElectronicMedicalRecords.sol\":3990:3995  _umur */\n          dup7\n            /* \"ElectronicMedicalRecords.sol\":3963:3982  existingPatientData */\n          dup2\n            /* \"ElectronicMedicalRecords.sol\":3963:3987  existingPatientData.umur */\n          0x02\n          add\n            /* \"ElectronicMedicalRecords.sol\":3963:3995  existingPatientData.umur = _umur */\n          dup2\n          swap1\n          sstore\n          pop\n            /* \"ElectronicMedicalRecords.sol\":4042:4056  _tanggal_lahir */\n          dup6\n            /* \"ElectronicMedicalRecords.sol\":4006:4025  existingPatientData */\n          dup2\n            /* \"ElectronicMedicalRecords.sol\":4006:4039  existingPatientData.tanggal_lahir */\n          0x03\n          add\n            /* \"ElectronicMedicalRecords.sol\":4006:4056  existingPatientData.tanggal_lahir = _tanggal_lahir */\n          swap1\n          dup2\n          tag_104\n          swap2\n          swap1\n          tag_42\n          jump\t// in\n        tag_104:\n          pop\n            /* \"ElectronicMedicalRecords.sol\":4103:4117  _tanggal_masuk */\n          dup5\n            /* \"ElectronicMedicalRecords.sol\":4067:4086  existingPatientData */\n          dup2\n            /* \"ElectronicMedicalRecords.sol\":4067:4100  existingPatientData.tanggal_masuk */\n          0x04\n          add\n            /* \"ElectronicMedicalRecords.sol\":4067:4117  existingPatientData.tanggal_masuk = _tanggal_masuk */\n          swap1\n          dup2\n          tag_105\n          swap2\n          swap1\n          tag_42\n          jump\t// in\n        tag_105:\n          pop\n            /* \"ElectronicMedicalRecords.sol\":4165:4180  _tanggal_keluar */\n          dup4\n            /* \"ElectronicMedicalRecords.sol\":4128:4147  existingPatientData */\n          dup2\n            /* \"ElectronicMedicalRecords.sol\":4128:4162  existingPatientData.tanggal_keluar */\n          0x05\n          add\n            /* \"ElectronicMedicalRecords.sol\":4128:4180  existingPatientData.tanggal_keluar = _tanggal_keluar */\n          swap1\n          dup2\n          tag_106\n          swap2\n          swap1\n          tag_42\n          jump\t// in\n        tag_106:\n          pop\n            /* \"ElectronicMedicalRecords.sol\":4223:4233  _anamnesis */\n          dup3\n            /* \"ElectronicMedicalRecords.sol\":4191:4210  existingPatientData */\n          dup2\n            /* \"ElectronicMedicalRecords.sol\":4191:4220  existingPatientData.anamnesis */\n          0x06\n          add\n            /* \"ElectronicMedicalRecords.sol\":4191:4233  existingPatientData.anamnesis = _anamnesis */\n          swap1\n          dup2\n          tag_107\n          swap2\n          swap1\n          tag_42\n          jump\t// in\n        tag_107:\n          pop\n            /* \"ElectronicMedicalRecords.sol\":4276:4286  _diagnosis */\n          dup2\n            /* \"ElectronicMedicalRecords.sol\":4244:4263  existingPatientData */\n          dup2\n            /* \"ElectronicMedicalRecords.sol\":4244:4273  existingPatientData.diagnosis */\n          0x07\n          add\n            /* \"ElectronicMedicalRecords.sol\":4244:4286  existingPatientData.diagnosis = _diagnosis */\n          swap1\n          dup2\n          tag_108\n          swap2\n          swap1\n          tag_42\n          jump\t// in\n        tag_108:\n          pop\n            /* \"ElectronicMedicalRecords.sol\":3817:4294  { ... */\n          pop\n            /* \"ElectronicMedicalRecords.sol\":3497:4294  function updatePatientData(... */\n          pop\n          pop\n          pop\n          pop\n          pop\n          pop\n          pop\n          pop\n          jump\t// out\n            /* \"ElectronicMedicalRecords.sol\":2015:2183  function setPatientVerificatorAddress(address _PatientVerificatorAddress) public {... */\n        tag_27:\n            /* \"ElectronicMedicalRecords.sol\":2148:2174  _PatientVerificatorAddress */\n          dup1\n            /* \"ElectronicMedicalRecords.sol\":2107:2126  patient_verificator */\n          0x03\n          0x00\n            /* \"ElectronicMedicalRecords.sol\":2107:2175  patient_verificator = PatientVerificator(_PatientVerificatorAddress) */\n          0x0100\n          exp\n          dup2\n          sload\n          dup2\n          0xffffffffffffffffffffffffffffffffffffffff\n          mul\n          not\n          and\n          swap1\n          dup4\n          0xffffffffffffffffffffffffffffffffffffffff\n          and\n          mul\n          or\n          swap1\n          sstore\n          pop\n            /* \"ElectronicMedicalRecords.sol\":2015:2183  function setPatientVerificatorAddress(address _PatientVerificatorAddress) public {... */\n          pop\n          jump\t// out\n            /* \"ElectronicMedicalRecords.sol\":2191:2339  function setDoctorRelationAddress(address _DoctorRelationAddress) public {... */\n        tag_30:\n            /* \"ElectronicMedicalRecords.sol\":2308:2330  _DoctorRelationAddress */\n          dup1\n            /* \"ElectronicMedicalRecords.sol\":2275:2290  doctor_relation */\n          0x04\n          0x00\n            /* \"ElectronicMedicalRecords.sol\":2275:2331  doctor_relation = DoctorRelation(_DoctorRelationAddress) */\n          0x0100\n          exp\n          dup2\n          sload\n          dup2\n          0xffffffffffffffffffffffffffffffffffffffff\n          mul\n          not\n          and\n          swap1\n          dup4\n          0xffffffffffffffffffffffffffffffffffffffff\n          and\n          mul\n          or\n          swap1\n          sstore\n          pop\n            /* \"ElectronicMedicalRecords.sol\":2191:2339  function setDoctorRelationAddress(address _DoctorRelationAddress) public {... */\n          pop\n          jump\t// out\n        tag_58:\n          mload(0x40)\n          dup1\n          0x0100\n          add\n          0x40\n          mstore\n          dup1\n          and(0xffffffffffffffffffffffffffffffffffffffff, 0x00)\n          dup2\n          mstore\n          0x20\n          add\n          0x60\n          dup2\n          mstore\n          0x20\n          add\n          0x00\n          dup2\n          mstore\n          0x20\n          add\n          0x60\n          dup2\n          mstore\n          0x20\n          add\n          0x60\n          dup2\n          mstore\n          0x20\n          add\n          0x60\n          dup2\n          mstore\n          0x20\n          add\n          0x60\n          dup2\n          mstore\n          0x20\n          add\n          0x60\n          dup2\n          mstore\n          pop\n          swap1\n          jump\t// out\n            /* \"#utility.yul\":7:82   */\n        tag_111:\n            /* \"#utility.yul\":40:46   */\n          0x00\n            /* \"#utility.yul\":73:75   */\n          0x40\n            /* \"#utility.yul\":67:76   */\n          mload\n            /* \"#utility.yul\":57:76   */\n          swap1\n          pop\n            /* \"#utility.yul\":7:82   */\n          swap1\n          jump\t// out\n            /* \"#utility.yul\":88:205   */\n        tag_112:\n            /* \"#utility.yul\":197:198   */\n          0x00\n            /* \"#utility.yul\":194:195   */\n          dup1\n            /* \"#utility.yul\":187:199   */\n          revert\n            /* \"#utility.yul\":211:328   */\n        tag_113:\n            /* \"#utility.yul\":320:321   */\n          0x00\n            /* \"#utility.yul\":317:318   */\n          dup1\n            /* \"#utility.yul\":310:322   */\n          revert\n            /* \"#utility.yul\":334:460   */\n        tag_114:\n            /* \"#utility.yul\":371:378   */\n          0x00\n            /* \"#utility.yul\":411:453   */\n          0xffffffffffffffffffffffffffffffffffffffff\n            /* \"#utility.yul\":404:409   */\n          dup3\n            /* \"#utility.yul\":400:454   */\n          and\n            /* \"#utility.yul\":389:454   */\n          swap1\n          pop\n            /* \"#utility.yul\":334:460   */\n          swap2\n          swap1\n          pop\n          jump\t// out\n            /* \"#utility.yul\":466:562   */\n        tag_115:\n            /* \"#utility.yul\":503:510   */\n          0x00\n            /* \"#utility.yul\":532:556   */\n          tag_164\n            /* \"#utility.yul\":550:555   */\n          dup3\n            /* \"#utility.yul\":532:556   */\n          tag_114\n          jump\t// in\n        tag_164:\n            /* \"#utility.yul\":521:556   */\n          swap1\n          pop\n            /* \"#utility.yul\":466:562   */\n          swap2\n          swap1\n          pop\n          jump\t// out\n            /* \"#utility.yul\":568:690   */\n        tag_116:\n            /* \"#utility.yul\":641:665   */\n          tag_166\n            /* \"#utility.yul\":659:664   */\n          dup2\n            /* \"#utility.yul\":641:665   */\n          tag_115\n          jump\t// in\n        tag_166:\n            /* \"#utility.yul\":634:639   */\n          dup2\n            /* \"#utility.yul\":631:666   */\n          eq\n            /* \"#utility.yul\":621:684   */\n          tag_167\n          jumpi\n            /* \"#utility.yul\":680:681   */\n          0x00\n            /* \"#utility.yul\":677:678   */\n          dup1\n            /* \"#utility.yul\":670:682   */\n          revert\n            /* \"#utility.yul\":621:684   */\n        tag_167:\n            /* \"#utility.yul\":568:690   */\n          pop\n          jump\t// out\n            /* \"#utility.yul\":696:835   */\n        tag_117:\n            /* \"#utility.yul\":742:747   */\n          0x00\n            /* \"#utility.yul\":780:786   */\n          dup2\n            /* \"#utility.yul\":767:787   */\n          calldataload\n            /* \"#utility.yul\":758:787   */\n          swap1\n          pop\n            /* \"#utility.yul\":796:829   */\n          tag_169\n            /* \"#utility.yul\":823:828   */\n          dup2\n            /* \"#utility.yul\":796:829   */\n          tag_116\n          jump\t// in\n        tag_169:\n            /* \"#utility.yul\":696:835   */\n          swap3\n          swap2\n          pop\n          pop\n          jump\t// out\n            /* \"#utility.yul\":841:1170   */\n        tag_11:\n            /* \"#utility.yul\":900:906   */\n          0x00\n            /* \"#utility.yul\":949:951   */\n          0x20\n            /* \"#utility.yul\":937:946   */\n          dup3\n            /* \"#utility.yul\":928:935   */\n          dup5\n            /* \"#utility.yul\":924:947   */\n          sub\n            /* \"#utility.yul\":920:952   */\n          slt\n            /* \"#utility.yul\":917:1036   */\n          iszero\n          tag_171\n          jumpi\n            /* \"#utility.yul\":955:1034   */\n          tag_172\n          tag_112\n          jump\t// in\n        tag_172:\n            /* \"#utility.yul\":917:1036   */\n        tag_171:\n            /* \"#utility.yul\":1075:1076   */\n          0x00\n            /* \"#utility.yul\":1100:1153   */\n          tag_173\n            /* \"#utility.yul\":1145:1152   */\n          dup5\n            /* \"#utility.yul\":1136:1142   */\n          dup3\n            /* \"#utility.yul\":1125:1134   */\n          dup6\n            /* \"#utility.yul\":1121:1143   */\n          add\n            /* \"#utility.yul\":1100:1153   */\n          tag_117\n          jump\t// in\n        tag_173:\n            /* \"#utility.yul\":1090:1153   */\n          swap2\n          pop\n            /* \"#utility.yul\":1046:1163   */\n          pop\n            /* \"#utility.yul\":841:1170   */\n          swap3\n          swap2\n          pop\n          pop\n          jump\t// out\n            /* \"#utility.yul\":1176:1293   */\n        tag_118:\n            /* \"#utility.yul\":1285:1286   */\n          0x00\n            /* \"#utility.yul\":1282:1283   */\n          dup1\n            /* \"#utility.yul\":1275:1287   */\n          revert\n            /* \"#utility.yul\":1299:1416   */\n        tag_119:\n            /* \"#utility.yul\":1408:1409   */\n          0x00\n            /* \"#utility.yul\":1405:1406   */\n          dup1\n            /* \"#utility.yul\":1398:1410   */\n          revert\n            /* \"#utility.yul\":1422:1524   */\n        tag_120:\n            /* \"#utility.yul\":1463:1469   */\n          0x00\n            /* \"#utility.yul\":1514:1516   */\n          0x1f\n            /* \"#utility.yul\":1510:1517   */\n          not\n            /* \"#utility.yul\":1505:1507   */\n          0x1f\n            /* \"#utility.yul\":1498:1503   */\n          dup4\n            /* \"#utility.yul\":1494:1508   */\n          add\n            /* \"#utility.yul\":1490:1518   */\n          and\n            /* \"#utility.yul\":1480:1518   */\n          swap1\n          pop\n            /* \"#utility.yul\":1422:1524   */\n          swap2\n          swap1\n          pop\n          jump\t// out\n            /* \"#utility.yul\":1530:1710   */\n        tag_121:\n            /* \"#utility.yul\":1578:1655   */\n          0x4e487b7100000000000000000000000000000000000000000000000000000000\n            /* \"#utility.yul\":1575:1576   */\n          0x00\n            /* \"#utility.yul\":1568:1656   */\n          mstore\n            /* \"#utility.yul\":1675:1679   */\n          0x41\n            /* \"#utility.yul\":1672:1673   */\n          0x04\n            /* \"#utility.yul\":1665:1680   */\n          mstore\n            /* \"#utility.yul\":1699:1703   */\n          0x24\n            /* \"#utility.yul\":1696:1697   */\n          0x00\n            /* \"#utility.yul\":1689:1704   */\n          revert\n            /* \"#utility.yul\":1716:1997   */\n        tag_122:\n            /* \"#utility.yul\":1799:1826   */\n          tag_179\n            /* \"#utility.yul\":1821:1825   */\n          dup3\n            /* \"#utility.yul\":1799:1826   */\n          tag_120\n          jump\t// in\n        tag_179:\n            /* \"#utility.yul\":1791:1797   */\n          dup2\n            /* \"#utility.yul\":1787:1827   */\n          add\n            /* \"#utility.yul\":1929:1935   */\n          dup2\n            /* \"#utility.yul\":1917:1927   */\n          dup2\n            /* \"#utility.yul\":1914:1936   */\n          lt\n            /* \"#utility.yul\":1893:1911   */\n          0xffffffffffffffff\n            /* \"#utility.yul\":1881:1891   */\n          dup3\n            /* \"#utility.yul\":1878:1912   */\n          gt\n            /* \"#utility.yul\":1875:1937   */\n          or\n            /* \"#utility.yul\":1872:1960   */\n          iszero\n          tag_180\n          jumpi\n            /* \"#utility.yul\":1940:1958   */\n          tag_181\n          tag_121\n          jump\t// in\n        tag_181:\n            /* \"#utility.yul\":1872:1960   */\n        tag_180:\n            /* \"#utility.yul\":1980:1990   */\n          dup1\n            /* \"#utility.yul\":1976:1978   */\n          0x40\n            /* \"#utility.yul\":1969:1991   */\n          mstore\n            /* \"#utility.yul\":1759:1997   */\n          pop\n            /* \"#utility.yul\":1716:1997   */\n          pop\n          pop\n          jump\t// out\n            /* \"#utility.yul\":2003:2132   */\n        tag_123:\n            /* \"#utility.yul\":2037:2043   */\n          0x00\n            /* \"#utility.yul\":2064:2084   */\n          tag_183\n          tag_111\n          jump\t// in\n        tag_183:\n            /* \"#utility.yul\":2054:2084   */\n          swap1\n          pop\n            /* \"#utility.yul\":2093:2126   */\n          tag_184\n            /* \"#utility.yul\":2121:2125   */\n          dup3\n            /* \"#utility.yul\":2113:2119   */\n          dup3\n            /* \"#utility.yul\":2093:2126   */\n          tag_122\n          jump\t// in\n        tag_184:\n            /* \"#utility.yul\":2003:2132   */\n          swap2\n          swap1\n          pop\n          jump\t// out\n            /* \"#utility.yul\":2138:2446   */\n        tag_124:\n            /* \"#utility.yul\":2200:2204   */\n          0x00\n            /* \"#utility.yul\":2290:2308   */\n          0xffffffffffffffff\n            /* \"#utility.yul\":2282:2288   */\n          dup3\n            /* \"#utility.yul\":2279:2309   */\n          gt\n            /* \"#utility.yul\":2276:2332   */\n          iszero\n          tag_186\n          jumpi\n            /* \"#utility.yul\":2312:2330   */\n          tag_187\n          tag_121\n          jump\t// in\n        tag_187:\n            /* \"#utility.yul\":2276:2332   */\n        tag_186:\n            /* \"#utility.yul\":2350:2379   */\n          tag_188\n            /* \"#utility.yul\":2372:2378   */\n          dup3\n            /* \"#utility.yul\":2350:2379   */\n          tag_120\n          jump\t// in\n        tag_188:\n            /* \"#utility.yul\":2342:2379   */\n          swap1\n          pop\n            /* \"#utility.yul\":2434:2438   */\n          0x20\n            /* \"#utility.yul\":2428:2432   */\n          dup2\n            /* \"#utility.yul\":2424:2439   */\n          add\n            /* \"#utility.yul\":2416:2439   */\n          swap1\n          pop\n            /* \"#utility.yul\":2138:2446   */\n          swap2\n          swap1\n          pop\n          jump\t// out\n            /* \"#utility.yul\":2452:2598   */\n        tag_125:\n            /* \"#utility.yul\":2549:2555   */\n          dup3\n            /* \"#utility.yul\":2544:2547   */\n          dup2\n            /* \"#utility.yul\":2539:2542   */\n          dup4\n            /* \"#utility.yul\":2526:2556   */\n          calldatacopy\n            /* \"#utility.yul\":2590:2591   */\n          0x00\n            /* \"#utility.yul\":2581:2587   */\n          dup4\n            /* \"#utility.yul\":2576:2579   */\n          dup4\n            /* \"#utility.yul\":2572:2588   */\n          add\n            /* \"#utility.yul\":2565:2592   */\n          mstore\n            /* \"#utility.yul\":2452:2598   */\n          pop\n          pop\n          pop\n          jump\t// out\n            /* \"#utility.yul\":2604:3029   */\n        tag_126:\n            /* \"#utility.yul\":2682:2687   */\n          0x00\n            /* \"#utility.yul\":2707:2773   */\n          tag_191\n            /* \"#utility.yul\":2723:2772   */\n          tag_192\n            /* \"#utility.yul\":2765:2771   */\n          dup5\n            /* \"#utility.yul\":2723:2772   */\n          tag_124\n          jump\t// in\n        tag_192:\n            /* \"#utility.yul\":2707:2773   */\n          tag_123\n          jump\t// in\n        tag_191:\n            /* \"#utility.yul\":2698:2773   */\n          swap1\n          pop\n            /* \"#utility.yul\":2796:2802   */\n          dup3\n            /* \"#utility.yul\":2789:2794   */\n          dup2\n            /* \"#utility.yul\":2782:2803   */\n          mstore\n            /* \"#utility.yul\":2834:2838   */\n          0x20\n            /* \"#utility.yul\":2827:2832   */\n          dup2\n            /* \"#utility.yul\":2823:2839   */\n          add\n            /* \"#utility.yul\":2872:2875   */\n          dup5\n            /* \"#utility.yul\":2863:2869   */\n          dup5\n            /* \"#utility.yul\":2858:2861   */\n          dup5\n            /* \"#utility.yul\":2854:2870   */\n          add\n            /* \"#utility.yul\":2851:2876   */\n          gt\n            /* \"#utility.yul\":2848:2960   */\n          iszero\n          tag_193\n          jumpi\n            /* \"#utility.yul\":2879:2958   */\n          tag_194\n          tag_119\n          jump\t// in\n        tag_194:\n            /* \"#utility.yul\":2848:2960   */\n        tag_193:\n            /* \"#utility.yul\":2969:3023   */\n          tag_195\n            /* \"#utility.yul\":3016:3022   */\n          dup5\n            /* \"#utility.yul\":3011:3014   */\n          dup3\n            /* \"#utility.yul\":3006:3009   */\n          dup6\n            /* \"#utility.yul\":2969:3023   */\n          tag_125\n          jump\t// in\n        tag_195:\n            /* \"#utility.yul\":2688:3029   */\n          pop\n            /* \"#utility.yul\":2604:3029   */\n          swap4\n          swap3\n          pop\n          pop\n          pop\n          jump\t// out\n            /* \"#utility.yul\":3049:3389   */\n        tag_127:\n            /* \"#utility.yul\":3105:3110   */\n          0x00\n            /* \"#utility.yul\":3154:3157   */\n          dup3\n            /* \"#utility.yul\":3147:3151   */\n          0x1f\n            /* \"#utility.yul\":3139:3145   */\n          dup4\n            /* \"#utility.yul\":3135:3152   */\n          add\n            /* \"#utility.yul\":3131:3158   */\n          slt\n            /* \"#utility.yul\":3121:3243   */\n          tag_197\n          jumpi\n            /* \"#utility.yul\":3162:3241   */\n          tag_198\n          tag_118\n          jump\t// in\n        tag_198:\n            /* \"#utility.yul\":3121:3243   */\n        tag_197:\n            /* \"#utility.yul\":3279:3285   */\n          dup2\n            /* \"#utility.yul\":3266:3286   */\n          calldataload\n            /* \"#utility.yul\":3304:3383   */\n          tag_199\n            /* \"#utility.yul\":3379:3382   */\n          dup5\n            /* \"#utility.yul\":3371:3377   */\n          dup3\n            /* \"#utility.yul\":3364:3368   */\n          0x20\n            /* \"#utility.yul\":3356:3362   */\n          dup7\n            /* \"#utility.yul\":3352:3369   */\n          add\n            /* \"#utility.yul\":3304:3383   */\n          tag_126\n          jump\t// in\n        tag_199:\n            /* \"#utility.yul\":3295:3383   */\n          swap2\n          pop\n            /* \"#utility.yul\":3111:3389   */\n          pop\n            /* \"#utility.yul\":3049:3389   */\n          swap3\n          swap2\n          pop\n          pop\n          jump\t// out\n            /* \"#utility.yul\":3395:3472   */\n        tag_128:\n            /* \"#utility.yul\":3432:3439   */\n          0x00\n            /* \"#utility.yul\":3461:3466   */\n          dup2\n            /* \"#utility.yul\":3450:3466   */\n          swap1\n          pop\n            /* \"#utility.yul\":3395:3472   */\n          swap2\n          swap1\n          pop\n          jump\t// out\n            /* \"#utility.yul\":3478:3600   */\n        tag_129:\n            /* \"#utility.yul\":3551:3575   */\n          tag_202\n            /* \"#utility.yul\":3569:3574   */\n          dup2\n            /* \"#utility.yul\":3551:3575   */\n          tag_128\n          jump\t// in\n        tag_202:\n            /* \"#utility.yul\":3544:3549   */\n          dup2\n            /* \"#utility.yul\":3541:3576   */\n          eq\n            /* \"#utility.yul\":3531:3594   */\n          tag_203\n          jumpi\n            /* \"#utility.yul\":3590:3591   */\n          0x00\n            /* \"#utility.yul\":3587:3588   */\n          dup1\n            /* \"#utility.yul\":3580:3592   */\n          revert\n            /* \"#utility.yul\":3531:3594   */\n        tag_203:\n            /* \"#utility.yul\":3478:3600   */\n          pop\n          jump\t// out\n            /* \"#utility.yul\":3606:3745   */\n        tag_130:\n            /* \"#utility.yul\":3652:3657   */\n          0x00\n            /* \"#utility.yul\":3690:3696   */\n          dup2\n            /* \"#utility.yul\":3677:3697   */\n          calldataload\n            /* \"#utility.yul\":3668:3697   */\n          swap1\n          pop\n            /* \"#utility.yul\":3706:3739   */\n          tag_205\n            /* \"#utility.yul\":3733:3738   */\n          dup2\n            /* \"#utility.yul\":3706:3739   */\n          tag_129\n          jump\t// in\n        tag_205:\n            /* \"#utility.yul\":3606:3745   */\n          swap3\n          swap2\n          pop\n          pop\n          jump\t// out\n            /* \"#utility.yul\":3751:6180   */\n        tag_15:\n            /* \"#utility.yul\":3933:3939   */\n          0x00\n            /* \"#utility.yul\":3941:3947   */\n          dup1\n            /* \"#utility.yul\":3949:3955   */\n          0x00\n            /* \"#utility.yul\":3957:3963   */\n          dup1\n            /* \"#utility.yul\":3965:3971   */\n          0x00\n            /* \"#utility.yul\":3973:3979   */\n          dup1\n            /* \"#utility.yul\":3981:3987   */\n          0x00\n            /* \"#utility.yul\":3989:3995   */\n          dup1\n            /* \"#utility.yul\":4038:4041   */\n          0x0100\n            /* \"#utility.yul\":4026:4035   */\n          dup10\n            /* \"#utility.yul\":4017:4024   */\n          dup12\n            /* \"#utility.yul\":4013:4036   */\n          sub\n            /* \"#utility.yul\":4009:4042   */\n          slt\n            /* \"#utility.yul\":4006:4126   */\n          iszero\n          tag_207\n          jumpi\n            /* \"#utility.yul\":4045:4124   */\n          tag_208\n          tag_112\n          jump\t// in\n        tag_208:\n            /* \"#utility.yul\":4006:4126   */\n        tag_207:\n            /* \"#utility.yul\":4165:4166   */\n          0x00\n            /* \"#utility.yul\":4190:4243   */\n          tag_209\n            /* \"#utility.yul\":4235:4242   */\n          dup12\n            /* \"#utility.yul\":4226:4232   */\n          dup3\n            /* \"#utility.yul\":4215:4224   */\n          dup13\n            /* \"#utility.yul\":4211:4233   */\n          add\n            /* \"#utility.yul\":4190:4243   */\n          tag_117\n          jump\t// in\n        tag_209:\n            /* \"#utility.yul\":4180:4243   */\n          swap9\n          pop\n            /* \"#utility.yul\":4136:4253   */\n          pop\n            /* \"#utility.yul\":4320:4322   */\n          0x20\n            /* \"#utility.yul\":4309:4318   */\n          dup10\n            /* \"#utility.yul\":4305:4323   */\n          add\n            /* \"#utility.yul\":4292:4324   */\n          calldataload\n            /* \"#utility.yul\":4351:4369   */\n          0xffffffffffffffff\n            /* \"#utility.yul\":4343:4349   */\n          dup2\n            /* \"#utility.yul\":4340:4370   */\n          gt\n            /* \"#utility.yul\":4337:4454   */\n          iszero\n          tag_210\n          jumpi\n            /* \"#utility.yul\":4373:4452   */\n          tag_211\n          tag_113\n          jump\t// in\n        tag_211:\n            /* \"#utility.yul\":4337:4454   */\n        tag_210:\n            /* \"#utility.yul\":4478:4541   */\n          tag_212\n            /* \"#utility.yul\":4533:4540   */\n          dup12\n            /* \"#utility.yul\":4524:4530   */\n          dup3\n            /* \"#utility.yul\":4513:4522   */\n          dup13\n            /* \"#utility.yul\":4509:4531   */\n          add\n            /* \"#utility.yul\":4478:4541   */\n          tag_127\n          jump\t// in\n        tag_212:\n            /* \"#utility.yul\":4468:4541   */\n          swap8\n          pop\n            /* \"#utility.yul\":4263:4551   */\n          pop\n            /* \"#utility.yul\":4590:4592   */\n          0x40\n            /* \"#utility.yul\":4616:4669   */\n          tag_213\n            /* \"#utility.yul\":4661:4668   */\n          dup12\n            /* \"#utility.yul\":4652:4658   */\n          dup3\n            /* \"#utility.yul\":4641:4650   */\n          dup13\n            /* \"#utility.yul\":4637:4659   */\n          add\n            /* \"#utility.yul\":4616:4669   */\n          tag_130\n          jump\t// in\n        tag_213:\n            /* \"#utility.yul\":4606:4669   */\n          swap7\n          pop\n            /* \"#utility.yul\":4561:4679   */\n          pop\n            /* \"#utility.yul\":4746:4748   */\n          0x60\n            /* \"#utility.yul\":4735:4744   */\n          dup10\n            /* \"#utility.yul\":4731:4749   */\n          add\n            /* \"#utility.yul\":4718:4750   */\n          calldataload\n            /* \"#utility.yul\":4777:4795   */\n          0xffffffffffffffff\n            /* \"#utility.yul\":4769:4775   */\n          dup2\n            /* \"#utility.yul\":4766:4796   */\n          gt\n            /* \"#utility.yul\":4763:4880   */\n          iszero\n          tag_214\n          jumpi\n            /* \"#utility.yul\":4799:4878   */\n          tag_215\n          tag_113\n          jump\t// in\n        tag_215:\n            /* \"#utility.yul\":4763:4880   */\n        tag_214:\n            /* \"#utility.yul\":4904:4967   */\n          tag_216\n            /* \"#utility.yul\":4959:4966   */\n          dup12\n            /* \"#utility.yul\":4950:4956   */\n          dup3\n            /* \"#utility.yul\":4939:4948   */\n          dup13\n            /* \"#utility.yul\":4935:4957   */\n          add\n            /* \"#utility.yul\":4904:4967   */\n          tag_127\n          jump\t// in\n        tag_216:\n            /* \"#utility.yul\":4894:4967   */\n          swap6\n          pop\n            /* \"#utility.yul\":4689:4977   */\n          pop\n            /* \"#utility.yul\":5044:5047   */\n          0x80\n            /* \"#utility.yul\":5033:5042   */\n          dup10\n            /* \"#utility.yul\":5029:5048   */\n          add\n            /* \"#utility.yul\":5016:5049   */\n          calldataload\n            /* \"#utility.yul\":5076:5094   */\n          0xffffffffffffffff\n            /* \"#utility.yul\":5068:5074   */\n          dup2\n            /* \"#utility.yul\":5065:5095   */\n          gt\n            /* \"#utility.yul\":5062:5179   */\n          iszero\n          tag_217\n          jumpi\n            /* \"#utility.yul\":5098:5177   */\n          tag_218\n          tag_113\n          jump\t// in\n        tag_218:\n            /* \"#utility.yul\":5062:5179   */\n        tag_217:\n            /* \"#utility.yul\":5203:5266   */\n          tag_219\n            /* \"#utility.yul\":5258:5265   */\n          dup12\n            /* \"#utility.yul\":5249:5255   */\n          dup3\n            /* \"#utility.yul\":5238:5247   */\n          dup13\n            /* \"#utility.yul\":5234:5256   */\n          add\n            /* \"#utility.yul\":5203:5266   */\n          tag_127\n          jump\t// in\n        tag_219:\n            /* \"#utility.yul\":5193:5266   */\n          swap5\n          pop\n            /* \"#utility.yul\":4987:5276   */\n          pop\n            /* \"#utility.yul\":5343:5346   */\n          0xa0\n            /* \"#utility.yul\":5332:5341   */\n          dup10\n            /* \"#utility.yul\":5328:5347   */\n          add\n            /* \"#utility.yul\":5315:5348   */\n          calldataload\n            /* \"#utility.yul\":5375:5393   */\n          0xffffffffffffffff\n            /* \"#utility.yul\":5367:5373   */\n          dup2\n            /* \"#utility.yul\":5364:5394   */\n          gt\n            /* \"#utility.yul\":5361:5478   */\n          iszero\n          tag_220\n          jumpi\n            /* \"#utility.yul\":5397:5476   */\n          tag_221\n          tag_113\n          jump\t// in\n        tag_221:\n            /* \"#utility.yul\":5361:5478   */\n        tag_220:\n            /* \"#utility.yul\":5502:5565   */\n          tag_222\n            /* \"#utility.yul\":5557:5564   */\n          dup12\n            /* \"#utility.yul\":5548:5554   */\n          dup3\n            /* \"#utility.yul\":5537:5546   */\n          dup13\n            /* \"#utility.yul\":5533:5555   */\n          add\n            /* \"#utility.yul\":5502:5565   */\n          tag_127\n          jump\t// in\n        tag_222:\n            /* \"#utility.yul\":5492:5565   */\n          swap4\n          pop\n            /* \"#utility.yul\":5286:5575   */\n          pop\n            /* \"#utility.yul\":5642:5645   */\n          0xc0\n            /* \"#utility.yul\":5631:5640   */\n          dup10\n            /* \"#utility.yul\":5627:5646   */\n          add\n            /* \"#utility.yul\":5614:5647   */\n          calldataload\n            /* \"#utility.yul\":5674:5692   */\n          0xffffffffffffffff\n            /* \"#utility.yul\":5666:5672   */\n          dup2\n            /* \"#utility.yul\":5663:5693   */\n          gt\n            /* \"#utility.yul\":5660:5777   */\n          iszero\n          tag_223\n          jumpi\n            /* \"#utility.yul\":5696:5775   */\n          tag_224\n          tag_113\n          jump\t// in\n        tag_224:\n            /* \"#utility.yul\":5660:5777   */\n        tag_223:\n            /* \"#utility.yul\":5801:5864   */\n          tag_225\n            /* \"#utility.yul\":5856:5863   */\n          dup12\n            /* \"#utility.yul\":5847:5853   */\n          dup3\n            /* \"#utility.yul\":5836:5845   */\n          dup13\n            /* \"#utility.yul\":5832:5854   */\n          add\n            /* \"#utility.yul\":5801:5864   */\n          tag_127\n          jump\t// in\n        tag_225:\n            /* \"#utility.yul\":5791:5864   */\n          swap3\n          pop\n            /* \"#utility.yul\":5585:5874   */\n          pop\n            /* \"#utility.yul\":5941:5944   */\n          0xe0\n            /* \"#utility.yul\":5930:5939   */\n          dup10\n            /* \"#utility.yul\":5926:5945   */\n          add\n            /* \"#utility.yul\":5913:5946   */\n          calldataload\n            /* \"#utility.yul\":5973:5991   */\n          0xffffffffffffffff\n            /* \"#utility.yul\":5965:5971   */\n          dup2\n            /* \"#utility.yul\":5962:5992   */\n          gt\n            /* \"#utility.yul\":5959:6076   */\n          iszero\n          tag_226\n          jumpi\n            /* \"#utility.yul\":5995:6074   */\n          tag_227\n          tag_113\n          jump\t// in\n        tag_227:\n            /* \"#utility.yul\":5959:6076   */\n        tag_226:\n            /* \"#utility.yul\":6100:6163   */\n          tag_228\n            /* \"#utility.yul\":6155:6162   */\n          dup12\n            /* \"#utility.yul\":6146:6152   */\n          dup3\n            /* \"#utility.yul\":6135:6144   */\n          dup13\n            /* \"#utility.yul\":6131:6153   */\n          add\n            /* \"#utility.yul\":6100:6163   */\n          tag_127\n          jump\t// in\n        tag_228:\n            /* \"#utility.yul\":6090:6163   */\n          swap2\n          pop\n            /* \"#utility.yul\":5884:6173   */\n          pop\n            /* \"#utility.yul\":3751:6180   */\n          swap3\n          swap6\n          swap9\n          pop\n          swap3\n          swap6\n          swap9\n          swap1\n          swap4\n          swap7\n          pop\n          jump\t// out\n            /* \"#utility.yul\":6186:6294   */\n        tag_131:\n            /* \"#utility.yul\":6263:6287   */\n          tag_230\n            /* \"#utility.yul\":6281:6286   */\n          dup2\n            /* \"#utility.yul\":6263:6287   */\n          tag_115\n          jump\t// in\n        tag_230:\n            /* \"#utility.yul\":6258:6261   */\n          dup3\n            /* \"#utility.yul\":6251:6288   */\n          mstore\n            /* \"#utility.yul\":6186:6294   */\n          pop\n          pop\n          jump\t// out\n            /* \"#utility.yul\":6300:6399   */\n        tag_132:\n            /* \"#utility.yul\":6352:6358   */\n          0x00\n            /* \"#utility.yul\":6386:6391   */\n          dup2\n            /* \"#utility.yul\":6380:6392   */\n          mload\n            /* \"#utility.yul\":6370:6392   */\n          swap1\n          pop\n            /* \"#utility.yul\":6300:6399   */\n          swap2\n          swap1\n          pop\n          jump\t// out\n            /* \"#utility.yul\":6405:6564   */\n        tag_133:\n            /* \"#utility.yul\":6479:6490   */\n          0x00\n            /* \"#utility.yul\":6513:6519   */\n          dup3\n            /* \"#utility.yul\":6508:6511   */\n          dup3\n            /* \"#utility.yul\":6501:6520   */\n          mstore\n            /* \"#utility.yul\":6553:6557   */\n          0x20\n            /* \"#utility.yul\":6548:6551   */\n          dup3\n            /* \"#utility.yul\":6544:6558   */\n          add\n            /* \"#utility.yul\":6529:6558   */\n          swap1\n          pop\n            /* \"#utility.yul\":6405:6564   */\n          swap3\n          swap2\n          pop\n          pop\n          jump\t// out\n            /* \"#utility.yul\":6570:6816   */\n        tag_134:\n            /* \"#utility.yul\":6651:6652   */\n          0x00\n            /* \"#utility.yul\":6661:6774   */\n        tag_234:\n            /* \"#utility.yul\":6675:6681   */\n          dup4\n            /* \"#utility.yul\":6672:6673   */\n          dup2\n            /* \"#utility.yul\":6669:6682   */\n          lt\n            /* \"#utility.yul\":6661:6774   */\n          iszero\n          tag_236\n          jumpi\n            /* \"#utility.yul\":6760:6761   */\n          dup1\n            /* \"#utility.yul\":6755:6758   */\n          dup3\n            /* \"#utility.yul\":6751:6762   */\n          add\n            /* \"#utility.yul\":6745:6763   */\n          mload\n            /* \"#utility.yul\":6741:6742   */\n          dup2\n            /* \"#utility.yul\":6736:6739   */\n          dup5\n            /* \"#utility.yul\":6732:6743   */\n          add\n            /* \"#utility.yul\":6725:6764   */\n          mstore\n            /* \"#utility.yul\":6697:6699   */\n          0x20\n            /* \"#utility.yul\":6694:6695   */\n          dup2\n            /* \"#utility.yul\":6690:6700   */\n          add\n            /* \"#utility.yul\":6685:6700   */\n          swap1\n          pop\n            /* \"#utility.yul\":6661:6774   */\n          jump(tag_234)\n        tag_236:\n            /* \"#utility.yul\":6808:6809   */\n          0x00\n            /* \"#utility.yul\":6799:6805   */\n          dup5\n            /* \"#utility.yul\":6794:6797   */\n          dup5\n            /* \"#utility.yul\":6790:6806   */\n          add\n            /* \"#utility.yul\":6783:6810   */\n          mstore\n            /* \"#utility.yul\":6632:6816   */\n          pop\n            /* \"#utility.yul\":6570:6816   */\n          pop\n          pop\n          pop\n          jump\t// out\n            /* \"#utility.yul\":6822:7179   */\n        tag_135:\n            /* \"#utility.yul\":6900:6903   */\n          0x00\n            /* \"#utility.yul\":6928:6967   */\n          tag_238\n            /* \"#utility.yul\":6961:6966   */\n          dup3\n            /* \"#utility.yul\":6928:6967   */\n          tag_132\n          jump\t// in\n        tag_238:\n            /* \"#utility.yul\":6983:7044   */\n          tag_239\n            /* \"#utility.yul\":7037:7043   */\n          dup2\n            /* \"#utility.yul\":7032:7035   */\n          dup6\n            /* \"#utility.yul\":6983:7044   */\n          tag_133\n          jump\t// in\n        tag_239:\n            /* \"#utility.yul\":6976:7044   */\n          swap4\n          pop\n            /* \"#utility.yul\":7053:7118   */\n          tag_240\n            /* \"#utility.yul\":7111:7117   */\n          dup2\n            /* \"#utility.yul\":7106:7109   */\n          dup6\n            /* \"#utility.yul\":7099:7103   */\n          0x20\n            /* \"#utility.yul\":7092:7097   */\n          dup7\n            /* \"#utility.yul\":7088:7104   */\n          add\n            /* \"#utility.yul\":7053:7118   */\n          tag_134\n          jump\t// in\n        tag_240:\n            /* \"#utility.yul\":7143:7172   */\n          tag_241\n            /* \"#utility.yul\":7165:7171   */\n          dup2\n            /* \"#utility.yul\":7143:7172   */\n          tag_120\n          jump\t// in\n        tag_241:\n            /* \"#utility.yul\":7138:7141   */\n          dup5\n            /* \"#utility.yul\":7134:7173   */\n          add\n            /* \"#utility.yul\":7127:7173   */\n          swap2\n          pop\n            /* \"#utility.yul\":6904:7179   */\n          pop\n            /* \"#utility.yul\":6822:7179   */\n          swap3\n          swap2\n          pop\n          pop\n          jump\t// out\n            /* \"#utility.yul\":7185:7293   */\n        tag_136:\n            /* \"#utility.yul\":7262:7286   */\n          tag_243\n            /* \"#utility.yul\":7280:7285   */\n          dup2\n            /* \"#utility.yul\":7262:7286   */\n          tag_128\n          jump\t// in\n        tag_243:\n            /* \"#utility.yul\":7257:7260   */\n          dup3\n            /* \"#utility.yul\":7250:7287   */\n          mstore\n            /* \"#utility.yul\":7185:7293   */\n          pop\n          pop\n          jump\t// out\n            /* \"#utility.yul\":7363:9432   */\n        tag_137:\n            /* \"#utility.yul\":7488:7491   */\n          0x00\n            /* \"#utility.yul\":7524:7530   */\n          0x0100\n            /* \"#utility.yul\":7519:7522   */\n          dup4\n            /* \"#utility.yul\":7515:7531   */\n          add\n            /* \"#utility.yul\":7623:7627   */\n          0x00\n            /* \"#utility.yul\":7616:7621   */\n          dup4\n            /* \"#utility.yul\":7612:7628   */\n          add\n            /* \"#utility.yul\":7606:7629   */\n          mload\n            /* \"#utility.yul\":7642:7705   */\n          tag_245\n            /* \"#utility.yul\":7699:7703   */\n          0x00\n            /* \"#utility.yul\":7694:7697   */\n          dup7\n            /* \"#utility.yul\":7690:7704   */\n          add\n            /* \"#utility.yul\":7676:7688   */\n          dup3\n            /* \"#utility.yul\":7642:7705   */\n          tag_131\n          jump\t// in\n        tag_245:\n            /* \"#utility.yul\":7541:7715   */\n          pop\n            /* \"#utility.yul\":7805:7809   */\n          0x20\n            /* \"#utility.yul\":7798:7803   */\n          dup4\n            /* \"#utility.yul\":7794:7810   */\n          add\n            /* \"#utility.yul\":7788:7811   */\n          mload\n            /* \"#utility.yul\":7858:7861   */\n          dup5\n            /* \"#utility.yul\":7852:7856   */\n          dup3\n            /* \"#utility.yul\":7848:7862   */\n          sub\n            /* \"#utility.yul\":7841:7845   */\n          0x20\n            /* \"#utility.yul\":7836:7839   */\n          dup7\n            /* \"#utility.yul\":7832:7846   */\n          add\n            /* \"#utility.yul\":7825:7863   */\n          mstore\n            /* \"#utility.yul\":7884:7957   */\n          tag_246\n            /* \"#utility.yul\":7952:7956   */\n          dup3\n            /* \"#utility.yul\":7938:7950   */\n          dup3\n            /* \"#utility.yul\":7884:7957   */\n          tag_135\n          jump\t// in\n        tag_246:\n            /* \"#utility.yul\":7876:7957   */\n          swap2\n          pop\n            /* \"#utility.yul\":7725:7968   */\n          pop\n            /* \"#utility.yul\":8050:8054   */\n          0x40\n            /* \"#utility.yul\":8043:8048   */\n          dup4\n            /* \"#utility.yul\":8039:8055   */\n          add\n            /* \"#utility.yul\":8033:8056   */\n          mload\n            /* \"#utility.yul\":8069:8132   */\n          tag_247\n            /* \"#utility.yul\":8126:8130   */\n          0x40\n            /* \"#utility.yul\":8121:8124   */\n          dup7\n            /* \"#utility.yul\":8117:8131   */\n          add\n            /* \"#utility.yul\":8103:8115   */\n          dup3\n            /* \"#utility.yul\":8069:8132   */\n          tag_136\n          jump\t// in\n        tag_247:\n            /* \"#utility.yul\":7978:8142   */\n          pop\n            /* \"#utility.yul\":8233:8237   */\n          0x60\n            /* \"#utility.yul\":8226:8231   */\n          dup4\n            /* \"#utility.yul\":8222:8238   */\n          add\n            /* \"#utility.yul\":8216:8239   */\n          mload\n            /* \"#utility.yul\":8286:8289   */\n          dup5\n            /* \"#utility.yul\":8280:8284   */\n          dup3\n            /* \"#utility.yul\":8276:8290   */\n          sub\n            /* \"#utility.yul\":8269:8273   */\n          0x60\n            /* \"#utility.yul\":8264:8267   */\n          dup7\n            /* \"#utility.yul\":8260:8274   */\n          add\n            /* \"#utility.yul\":8253:8291   */\n          mstore\n            /* \"#utility.yul\":8312:8385   */\n          tag_248\n            /* \"#utility.yul\":8380:8384   */\n          dup3\n            /* \"#utility.yul\":8366:8378   */\n          dup3\n            /* \"#utility.yul\":8312:8385   */\n          tag_135\n          jump\t// in\n        tag_248:\n            /* \"#utility.yul\":8304:8385   */\n          swap2\n          pop\n            /* \"#utility.yul\":8152:8396   */\n          pop\n            /* \"#utility.yul\":8487:8491   */\n          0x80\n            /* \"#utility.yul\":8480:8485   */\n          dup4\n            /* \"#utility.yul\":8476:8492   */\n          add\n            /* \"#utility.yul\":8470:8493   */\n          mload\n            /* \"#utility.yul\":8540:8543   */\n          dup5\n            /* \"#utility.yul\":8534:8538   */\n          dup3\n            /* \"#utility.yul\":8530:8544   */\n          sub\n            /* \"#utility.yul\":8523:8527   */\n          0x80\n            /* \"#utility.yul\":8518:8521   */\n          dup7\n            /* \"#utility.yul\":8514:8528   */\n          add\n            /* \"#utility.yul\":8507:8545   */\n          mstore\n            /* \"#utility.yul\":8566:8639   */\n          tag_249\n            /* \"#utility.yul\":8634:8638   */\n          dup3\n            /* \"#utility.yul\":8620:8632   */\n          dup3\n            /* \"#utility.yul\":8566:8639   */\n          tag_135\n          jump\t// in\n        tag_249:\n            /* \"#utility.yul\":8558:8639   */\n          swap2\n          pop\n            /* \"#utility.yul\":8406:8650   */\n          pop\n            /* \"#utility.yul\":8742:8746   */\n          0xa0\n            /* \"#utility.yul\":8735:8740   */\n          dup4\n            /* \"#utility.yul\":8731:8747   */\n          add\n            /* \"#utility.yul\":8725:8748   */\n          mload\n            /* \"#utility.yul\":8795:8798   */\n          dup5\n            /* \"#utility.yul\":8789:8793   */\n          dup3\n            /* \"#utility.yul\":8785:8799   */\n          sub\n            /* \"#utility.yul\":8778:8782   */\n          0xa0\n            /* \"#utility.yul\":8773:8776   */\n          dup7\n            /* \"#utility.yul\":8769:8783   */\n          add\n            /* \"#utility.yul\":8762:8800   */\n          mstore\n            /* \"#utility.yul\":8821:8894   */\n          tag_250\n            /* \"#utility.yul\":8889:8893   */\n          dup3\n            /* \"#utility.yul\":8875:8887   */\n          dup3\n            /* \"#utility.yul\":8821:8894   */\n          tag_135\n          jump\t// in\n        tag_250:\n            /* \"#utility.yul\":8813:8894   */\n          swap2\n          pop\n            /* \"#utility.yul\":8660:8905   */\n          pop\n            /* \"#utility.yul\":8992:8996   */\n          0xc0\n            /* \"#utility.yul\":8985:8990   */\n          dup4\n            /* \"#utility.yul\":8981:8997   */\n          add\n            /* \"#utility.yul\":8975:8998   */\n          mload\n            /* \"#utility.yul\":9045:9048   */\n          dup5\n            /* \"#utility.yul\":9039:9043   */\n          dup3\n            /* \"#utility.yul\":9035:9049   */\n          sub\n            /* \"#utility.yul\":9028:9032   */\n          0xc0\n            /* \"#utility.yul\":9023:9026   */\n          dup7\n            /* \"#utility.yul\":9019:9033   */\n          add\n            /* \"#utility.yul\":9012:9050   */\n          mstore\n            /* \"#utility.yul\":9071:9144   */\n          tag_251\n            /* \"#utility.yul\":9139:9143   */\n          dup3\n            /* \"#utility.yul\":9125:9137   */\n          dup3\n            /* \"#utility.yul\":9071:9144   */\n          tag_135\n          jump\t// in\n        tag_251:\n            /* \"#utility.yul\":9063:9144   */\n          swap2\n          pop\n            /* \"#utility.yul\":8915:9155   */\n          pop\n            /* \"#utility.yul\":9242:9246   */\n          0xe0\n            /* \"#utility.yul\":9235:9240   */\n          dup4\n            /* \"#utility.yul\":9231:9247   */\n          add\n            /* \"#utility.yul\":9225:9248   */\n          mload\n            /* \"#utility.yul\":9295:9298   */\n          dup5\n            /* \"#utility.yul\":9289:9293   */\n          dup3\n            /* \"#utility.yul\":9285:9299   */\n          sub\n            /* \"#utility.yul\":9278:9282   */\n          0xe0\n            /* \"#utility.yul\":9273:9276   */\n          dup7\n            /* \"#utility.yul\":9269:9283   */\n          add\n            /* \"#utility.yul\":9262:9300   */\n          mstore\n            /* \"#utility.yul\":9321:9394   */\n          tag_252\n            /* \"#utility.yul\":9389:9393   */\n          dup3\n            /* \"#utility.yul\":9375:9387   */\n          dup3\n            /* \"#utility.yul\":9321:9394   */\n          tag_135\n          jump\t// in\n        tag_252:\n            /* \"#utility.yul\":9313:9394   */\n          swap2\n          pop\n            /* \"#utility.yul\":9165:9405   */\n          pop\n            /* \"#utility.yul\":9422:9426   */\n          dup1\n            /* \"#utility.yul\":9415:9426   */\n          swap2\n          pop\n            /* \"#utility.yul\":7493:9432   */\n          pop\n            /* \"#utility.yul\":7363:9432   */\n          swap3\n          swap2\n          pop\n          pop\n          jump\t// out\n            /* \"#utility.yul\":9438:9823   */\n        tag_21:\n            /* \"#utility.yul\":9587:9591   */\n          0x00\n            /* \"#utility.yul\":9625:9627   */\n          0x20\n            /* \"#utility.yul\":9614:9623   */\n          dup3\n            /* \"#utility.yul\":9610:9628   */\n          add\n            /* \"#utility.yul\":9602:9628   */\n          swap1\n          pop\n            /* \"#utility.yul\":9674:9683   */\n          dup2\n            /* \"#utility.yul\":9668:9672   */\n          dup2\n            /* \"#utility.yul\":9664:9684   */\n          sub\n            /* \"#utility.yul\":9660:9661   */\n          0x00\n            /* \"#utility.yul\":9649:9658   */\n          dup4\n            /* \"#utility.yul\":9645:9662   */\n          add\n            /* \"#utility.yul\":9638:9685   */\n          mstore\n            /* \"#utility.yul\":9702:9816   */\n          tag_254\n            /* \"#utility.yul\":9811:9815   */\n          dup2\n            /* \"#utility.yul\":9802:9808   */\n          dup5\n            /* \"#utility.yul\":9702:9816   */\n          tag_137\n          jump\t// in\n        tag_254:\n            /* \"#utility.yul\":9694:9816   */\n          swap1\n          pop\n            /* \"#utility.yul\":9438:9823   */\n          swap3\n          swap2\n          pop\n          pop\n          jump\t// out\n            /* \"#utility.yul\":9829:9947   */\n        tag_138:\n            /* \"#utility.yul\":9916:9940   */\n          tag_256\n            /* \"#utility.yul\":9934:9939   */\n          dup2\n            /* \"#utility.yul\":9916:9940   */\n          tag_115\n          jump\t// in\n        tag_256:\n            /* \"#utility.yul\":9911:9914   */\n          dup3\n            /* \"#utility.yul\":9904:9941   */\n          mstore\n            /* \"#utility.yul\":9829:9947   */\n          pop\n          pop\n          jump\t// out\n            /* \"#utility.yul\":9953:10175   */\n        tag_34:\n            /* \"#utility.yul\":10046:10050   */\n          0x00\n            /* \"#utility.yul\":10084:10086   */\n          0x20\n            /* \"#utility.yul\":10073:10082   */\n          dup3\n            /* \"#utility.yul\":10069:10087   */\n          add\n            /* \"#utility.yul\":10061:10087   */\n          swap1\n          pop\n            /* \"#utility.yul\":10097:10168   */\n          tag_258\n            /* \"#utility.yul\":10165:10166   */\n          0x00\n            /* \"#utility.yul\":10154:10163   */\n          dup4\n            /* \"#utility.yul\":10150:10167   */\n          add\n            /* \"#utility.yul\":10141:10147   */\n          dup5\n            /* \"#utility.yul\":10097:10168   */\n          tag_138\n          jump\t// in\n        tag_258:\n            /* \"#utility.yul\":9953:10175   */\n          swap3\n          swap2\n          pop\n          pop\n          jump\t// out\n            /* \"#utility.yul\":10181:10271   */\n        tag_139:\n            /* \"#utility.yul\":10215:10222   */\n          0x00\n            /* \"#utility.yul\":10258:10263   */\n          dup2\n            /* \"#utility.yul\":10251:10264   */\n          iszero\n            /* \"#utility.yul\":10244:10265   */\n          iszero\n            /* \"#utility.yul\":10233:10265   */\n          swap1\n          pop\n            /* \"#utility.yul\":10181:10271   */\n          swap2\n          swap1\n          pop\n          jump\t// out\n            /* \"#utility.yul\":10277:10393   */\n        tag_140:\n            /* \"#utility.yul\":10347:10368   */\n          tag_261\n            /* \"#utility.yul\":10362:10367   */\n          dup2\n            /* \"#utility.yul\":10347:10368   */\n          tag_139\n          jump\t// in\n        tag_261:\n            /* \"#utility.yul\":10340:10345   */\n          dup2\n            /* \"#utility.yul\":10337:10369   */\n          eq\n            /* \"#utility.yul\":10327:10387   */\n          tag_262\n          jumpi\n            /* \"#utility.yul\":10383:10384   */\n          0x00\n            /* \"#utility.yul\":10380:10381   */\n          dup1\n            /* \"#utility.yul\":10373:10385   */\n          revert\n            /* \"#utility.yul\":10327:10387   */\n        tag_262:\n            /* \"#utility.yul\":10277:10393   */\n          pop\n          jump\t// out\n            /* \"#utility.yul\":10399:10536   */\n        tag_141:\n            /* \"#utility.yul\":10453:10458   */\n          0x00\n            /* \"#utility.yul\":10484:10490   */\n          dup2\n            /* \"#utility.yul\":10478:10491   */\n          mload\n            /* \"#utility.yul\":10469:10491   */\n          swap1\n          pop\n            /* \"#utility.yul\":10500:10530   */\n          tag_264\n            /* \"#utility.yul\":10524:10529   */\n          dup2\n            /* \"#utility.yul\":10500:10530   */\n          tag_140\n          jump\t// in\n        tag_264:\n            /* \"#utility.yul\":10399:10536   */\n          swap3\n          swap2\n          pop\n          pop\n          jump\t// out\n            /* \"#utility.yul\":10542:10887   */\n        tag_38:\n            /* \"#utility.yul\":10609:10615   */\n          0x00\n            /* \"#utility.yul\":10658:10660   */\n          0x20\n            /* \"#utility.yul\":10646:10655   */\n          dup3\n            /* \"#utility.yul\":10637:10644   */\n          dup5\n            /* \"#utility.yul\":10633:10656   */\n          sub\n            /* \"#utility.yul\":10629:10661   */\n          slt\n            /* \"#utility.yul\":10626:10745   */\n          iszero\n          tag_266\n          jumpi\n            /* \"#utility.yul\":10664:10743   */\n          tag_267\n          tag_112\n          jump\t// in\n        tag_267:\n            /* \"#utility.yul\":10626:10745   */\n        tag_266:\n            /* \"#utility.yul\":10784:10785   */\n          0x00\n            /* \"#utility.yul\":10809:10870   */\n          tag_268\n            /* \"#utility.yul\":10862:10869   */\n          dup5\n            /* \"#utility.yul\":10853:10859   */\n          dup3\n            /* \"#utility.yul\":10842:10851   */\n          dup6\n            /* \"#utility.yul\":10838:10860   */\n          add\n            /* \"#utility.yul\":10809:10870   */\n          tag_141\n          jump\t// in\n        tag_268:\n            /* \"#utility.yul\":10799:10870   */\n          swap2\n          pop\n            /* \"#utility.yul\":10755:10880   */\n          pop\n            /* \"#utility.yul\":10542:10887   */\n          swap3\n          swap2\n          pop\n          pop\n          jump\t// out\n            /* \"#utility.yul\":10893:11073   */\n        tag_142:\n            /* \"#utility.yul\":10941:11018   */\n          0x4e487b7100000000000000000000000000000000000000000000000000000000\n            /* \"#utility.yul\":10938:10939   */\n          0x00\n            /* \"#utility.yul\":10931:11019   */\n          mstore\n            /* \"#utility.yul\":11038:11042   */\n          0x22\n            /* \"#utility.yul\":11035:11036   */\n          0x04\n            /* \"#utility.yul\":11028:11043   */\n          mstore\n            /* \"#utility.yul\":11062:11066   */\n          0x24\n            /* \"#utility.yul\":11059:11060   */\n          0x00\n            /* \"#utility.yul\":11052:11067   */\n          revert\n            /* \"#utility.yul\":11079:11399   */\n        tag_72:\n            /* \"#utility.yul\":11123:11129   */\n          0x00\n            /* \"#utility.yul\":11160:11161   */\n          0x02\n            /* \"#utility.yul\":11154:11158   */\n          dup3\n            /* \"#utility.yul\":11150:11162   */\n          div\n            /* \"#utility.yul\":11140:11162   */\n          swap1\n          pop\n            /* \"#utility.yul\":11207:11208   */\n          0x01\n            /* \"#utility.yul\":11201:11205   */\n          dup3\n            /* \"#utility.yul\":11197:11209   */\n          and\n            /* \"#utility.yul\":11228:11246   */\n          dup1\n            /* \"#utility.yul\":11218:11299   */\n          tag_271\n          jumpi\n            /* \"#utility.yul\":11284:11288   */\n          0x7f\n            /* \"#utility.yul\":11276:11282   */\n          dup3\n            /* \"#utility.yul\":11272:11289   */\n          and\n            /* \"#utility.yul\":11262:11289   */\n          swap2\n          pop\n            /* \"#utility.yul\":11218:11299   */\n        tag_271:\n            /* \"#utility.yul\":11346:11348   */\n          0x20\n            /* \"#utility.yul\":11338:11344   */\n          dup3\n            /* \"#utility.yul\":11335:11349   */\n          lt\n            /* \"#utility.yul\":11315:11333   */\n          dup2\n            /* \"#utility.yul\":11312:11350   */\n          sub\n            /* \"#utility.yul\":11309:11393   */\n          tag_272\n          jumpi\n            /* \"#utility.yul\":11365:11383   */\n          tag_273\n          tag_142\n          jump\t// in\n        tag_273:\n            /* \"#utility.yul\":11309:11393   */\n        tag_272:\n            /* \"#utility.yul\":11130:11399   */\n          pop\n            /* \"#utility.yul\":11079:11399   */\n          swap2\n          swap1\n          pop\n          jump\t// out\n            /* \"#utility.yul\":11405:11546   */\n        tag_143:\n            /* \"#utility.yul\":11454:11458   */\n          0x00\n            /* \"#utility.yul\":11477:11480   */\n          dup2\n            /* \"#utility.yul\":11469:11480   */\n          swap1\n          pop\n            /* \"#utility.yul\":11500:11503   */\n          dup2\n            /* \"#utility.yul\":11497:11498   */\n          0x00\n            /* \"#utility.yul\":11490:11504   */\n          mstore\n            /* \"#utility.yul\":11534:11538   */\n          0x20\n            /* \"#utility.yul\":11531:11532   */\n          0x00\n            /* \"#utility.yul\":11521:11539   */\n          keccak256\n            /* \"#utility.yul\":11513:11539   */\n          swap1\n          pop\n            /* \"#utility.yul\":11405:11546   */\n          swap2\n          swap1\n          pop\n          jump\t// out\n            /* \"#utility.yul\":11552:11645   */\n        tag_144:\n            /* \"#utility.yul\":11589:11595   */\n          0x00\n            /* \"#utility.yul\":11636:11638   */\n          0x20\n            /* \"#utility.yul\":11631:11633   */\n          0x1f\n            /* \"#utility.yul\":11624:11629   */\n          dup4\n            /* \"#utility.yul\":11620:11634   */\n          add\n            /* \"#utility.yul\":11616:11639   */\n          div\n            /* \"#utility.yul\":11606:11639   */\n          swap1\n          pop\n            /* \"#utility.yul\":11552:11645   */\n          swap2\n          swap1\n          pop\n          jump\t// out\n            /* \"#utility.yul\":11651:11758   */\n        tag_145:\n            /* \"#utility.yul\":11695:11703   */\n          0x00\n            /* \"#utility.yul\":11745:11750   */\n          dup3\n            /* \"#utility.yul\":11739:11743   */\n          dup3\n            /* \"#utility.yul\":11735:11751   */\n          shl\n            /* \"#utility.yul\":11714:11751   */\n          swap1\n          pop\n            /* \"#utility.yul\":11651:11758   */\n          swap3\n          swap2\n          pop\n          pop\n          jump\t// out\n            /* \"#utility.yul\":11764:12157   */\n        tag_146:\n            /* \"#utility.yul\":11833:11839   */\n          0x00\n            /* \"#utility.yul\":11883:11884   */\n          0x08\n            /* \"#utility.yul\":11871:11881   */\n          dup4\n            /* \"#utility.yul\":11867:11885   */\n          mul\n            /* \"#utility.yul\":11906:12003   */\n          tag_278\n            /* \"#utility.yul\":11936:12002   */\n          0xffffffffffffffffffffffffffffffffffffffffffffffffffffffffffffffff\n            /* \"#utility.yul\":11925:11934   */\n          dup3\n            /* \"#utility.yul\":11906:12003   */\n          tag_145\n          jump\t// in\n        tag_278:\n            /* \"#utility.yul\":12024:12063   */\n          tag_279\n            /* \"#utility.yul\":12054:12062   */\n          dup7\n            /* \"#utility.yul\":12043:12052   */\n          dup4\n            /* \"#utility.yul\":12024:12063   */\n          tag_145\n          jump\t// in\n        tag_279:\n            /* \"#utility.yul\":12012:12063   */\n          swap6\n          pop\n            /* \"#utility.yul\":12096:12100   */\n          dup1\n            /* \"#utility.yul\":12092:12101   */\n          not\n            /* \"#utility.yul\":12085:12090   */\n          dup5\n            /* \"#utility.yul\":12081:12102   */\n          and\n            /* \"#utility.yul\":12072:12102   */\n          swap4\n          pop\n            /* \"#utility.yul\":12145:12149   */\n          dup1\n            /* \"#utility.yul\":12135:12143   */\n          dup7\n            /* \"#utility.yul\":12131:12150   */\n          and\n            /* \"#utility.yul\":12124:12129   */\n          dup5\n            /* \"#utility.yul\":12121:12151   */\n          or\n            /* \"#utility.yul\":12111:12151   */\n          swap3\n          pop\n            /* \"#utility.yul\":11840:12157   */\n          pop\n          pop\n            /* \"#utility.yul\":11764:12157   */\n          swap4\n          swap3\n          pop\n          pop\n          pop\n          jump\t// out\n            /* \"#utility.yul\":12163:12223   */\n        tag_147:\n            /* \"#utility.yul\":12191:12194   */\n          0x00\n            /* \"#utility.yul\":12212:12217   */\n          dup2\n            /* \"#utility.yul\":12205:12217   */\n          swap1\n          pop\n            /* \"#utility.yul\":12163:12223   */\n          swap2\n          swap1\n          pop\n          jump\t// out\n            /* \"#utility.yul\":12229:12371   */\n        tag_148:\n            /* \"#utility.yul\":12279:12288   */\n          0x00\n            /* \"#utility.yul\":12312:12365   */\n          tag_282\n            /* \"#utility.yul\":12330:12364   */\n          tag_283\n            /* \"#utility.yul\":12339:12363   */\n          tag_284\n            /* \"#utility.yul\":12357:12362   */\n          dup5\n            /* \"#utility.yul\":12339:12363   */\n          tag_128\n          jump\t// in\n        tag_284:\n            /* \"#utility.yul\":12330:12364   */\n          tag_147\n          jump\t// in\n        tag_283:\n            /* \"#utility.yul\":12312:12365   */\n          tag_128\n          jump\t// in\n        tag_282:\n            /* \"#utility.yul\":12299:12365   */\n          swap1\n          pop\n            /* \"#utility.yul\":12229:12371   */\n          swap2\n          swap1\n          pop\n          jump\t// out\n            /* \"#utility.yul\":12377:12452   */\n        tag_149:\n            /* \"#utility.yul\":12420:12423   */\n          0x00\n            /* \"#utility.yul\":12441:12446   */\n          dup2\n            /* \"#utility.yul\":12434:12446   */\n          swap1\n          pop\n            /* \"#utility.yul\":12377:12452   */\n          swap2\n          swap1\n          pop\n          jump\t// out\n            /* \"#utility.yul\":12458:12727   */\n        tag_150:\n            /* \"#utility.yul\":12568:12607   */\n          tag_287\n            /* \"#utility.yul\":12599:12606   */\n          dup4\n            /* \"#utility.yul\":12568:12607   */\n          tag_148\n          jump\t// in\n        tag_287:\n            /* \"#utility.yul\":12629:12720   */\n          tag_288\n            /* \"#utility.yul\":12678:12719   */\n          tag_289\n            /* \"#utility.yul\":12702:12718   */\n          dup3\n            /* \"#utility.yul\":12678:12719   */\n          tag_149\n          jump\t// in\n        tag_289:\n            /* \"#utility.yul\":12670:12676   */\n          dup5\n            /* \"#utility.yul\":12663:12667   */\n          dup5\n            /* \"#utility.yul\":12657:12668   */\n          sload\n            /* \"#utility.yul\":12629:12720   */\n          tag_146\n          jump\t// in\n        tag_288:\n            /* \"#utility.yul\":12623:12627   */\n          dup3\n            /* \"#utility.yul\":12616:12721   */\n          sstore\n            /* \"#utility.yul\":12534:12727   */\n          pop\n            /* \"#utility.yul\":12458:12727   */\n          pop\n          pop\n          pop\n          jump\t// out\n            /* \"#utility.yul\":12733:12806   */\n        tag_151:\n            /* \"#utility.yul\":12778:12781   */\n          0x00\n            /* \"#utility.yul\":12733:12806   */\n          swap1\n          jump\t// out\n            /* \"#utility.yul\":12812:13001   */\n        tag_152:\n            /* \"#utility.yul\":12889:12921   */\n          tag_292\n          tag_151\n          jump\t// in\n        tag_292:\n            /* \"#utility.yul\":12930:12995   */\n          tag_293\n            /* \"#utility.yul\":12988:12994   */\n          dup2\n            /* \"#utility.yul\":12980:12986   */\n          dup5\n            /* \"#utility.yul\":12974:12978   */\n          dup5\n            /* \"#utility.yul\":12930:12995   */\n          tag_150\n          jump\t// in\n        tag_293:\n            /* \"#utility.yul\":12865:13001   */\n          pop\n            /* \"#utility.yul\":12812:13001   */\n          pop\n          pop\n          jump\t// out\n            /* \"#utility.yul\":13007:13193   */\n        tag_153:\n            /* \"#utility.yul\":13067:13187   */\n        tag_295:\n            /* \"#utility.yul\":13084:13087   */\n          dup2\n            /* \"#utility.yul\":13077:13082   */\n          dup2\n            /* \"#utility.yul\":13074:13088   */\n          lt\n            /* \"#utility.yul\":13067:13187   */\n          iszero\n          tag_297\n          jumpi\n            /* \"#utility.yul\":13138:13177   */\n          tag_298\n            /* \"#utility.yul\":13175:13176   */\n          0x00\n            /* \"#utility.yul\":13168:13173   */\n          dup3\n            /* \"#utility.yul\":13138:13177   */\n          tag_152\n          jump\t// in\n        tag_298:\n            /* \"#utility.yul\":13111:13112   */\n          0x01\n            /* \"#utility.yul\":13104:13109   */\n          dup2\n            /* \"#utility.yul\":13100:13113   */\n          add\n            /* \"#utility.yul\":13091:13113   */\n          swap1\n          pop\n            /* \"#utility.yul\":13067:13187   */\n          jump(tag_295)\n        tag_297:\n            /* \"#utility.yul\":13007:13193   */\n          pop\n          pop\n          jump\t// out\n            /* \"#utility.yul\":13199:13742   */\n        tag_154:\n            /* \"#utility.yul\":13300:13302   */\n          0x1f\n            /* \"#utility.yul\":13295:13298   */\n          dup3\n            /* \"#utility.yul\":13292:13303   */\n          gt\n            /* \"#utility.yul\":13289:13735   */\n          iszero\n          tag_300\n          jumpi\n            /* \"#utility.yul\":13334:13372   */\n          tag_301\n            /* \"#utility.yul\":13366:13371   */\n          dup2\n            /* \"#utility.yul\":13334:13372   */\n          tag_143\n          jump\t// in\n        tag_301:\n            /* \"#utility.yul\":13418:13447   */\n          tag_302\n            /* \"#utility.yul\":13436:13446   */\n          dup5\n            /* \"#utility.yul\":13418:13447   */\n          tag_144\n          jump\t// in\n        tag_302:\n            /* \"#utility.yul\":13408:13416   */\n          dup2\n            /* \"#utility.yul\":13404:13448   */\n          add\n            /* \"#utility.yul\":13601:13603   */\n          0x20\n            /* \"#utility.yul\":13589:13599   */\n          dup6\n            /* \"#utility.yul\":13586:13604   */\n          lt\n            /* \"#utility.yul\":13583:13632   */\n          iszero\n          tag_303\n          jumpi\n            /* \"#utility.yul\":13622:13630   */\n          dup2\n            /* \"#utility.yul\":13607:13630   */\n          swap1\n          pop\n            /* \"#utility.yul\":13583:13632   */\n        tag_303:\n            /* \"#utility.yul\":13645:13725   */\n          tag_304\n            /* \"#utility.yul\":13701:13723   */\n          tag_305\n            /* \"#utility.yul\":13719:13722   */\n          dup6\n            /* \"#utility.yul\":13701:13723   */\n          tag_144\n          jump\t// in\n        tag_305:\n            /* \"#utility.yul\":13691:13699   */\n          dup4\n            /* \"#utility.yul\":13687:13724   */\n          add\n            /* \"#utility.yul\":13674:13685   */\n          dup3\n            /* \"#utility.yul\":13645:13725   */\n          tag_153\n          jump\t// in\n        tag_304:\n            /* \"#utility.yul\":13304:13735   */\n          pop\n          pop\n            /* \"#utility.yul\":13289:13735   */\n        tag_300:\n            /* \"#utility.yul\":13199:13742   */\n          pop\n          pop\n          pop\n          jump\t// out\n            /* \"#utility.yul\":13748:13865   */\n        tag_155:\n            /* \"#utility.yul\":13802:13810   */\n          0x00\n            /* \"#utility.yul\":13852:13857   */\n          dup3\n            /* \"#utility.yul\":13846:13850   */\n          dup3\n            /* \"#utility.yul\":13842:13858   */\n          shr\n            /* \"#utility.yul\":13821:13858   */\n          swap1\n          pop\n            /* \"#utility.yul\":13748:13865   */\n          swap3\n          swap2\n          pop\n          pop\n          jump\t// out\n            /* \"#utility.yul\":13871:14040   */\n        tag_156:\n            /* \"#utility.yul\":13915:13921   */\n          0x00\n            /* \"#utility.yul\":13948:13999   */\n          tag_308\n            /* \"#utility.yul\":13996:13997   */\n          0x00\n            /* \"#utility.yul\":13992:13998   */\n          not\n            /* \"#utility.yul\":13984:13989   */\n          dup5\n            /* \"#utility.yul\":13981:13982   */\n          0x08\n            /* \"#utility.yul\":13977:13990   */\n          mul\n            /* \"#utility.yul\":13948:13999   */\n          tag_155\n          jump\t// in\n        tag_308:\n            /* \"#utility.yul\":13944:14000   */\n          not\n            /* \"#utility.yul\":14029:14033   */\n          dup1\n            /* \"#utility.yul\":14023:14027   */\n          dup4\n            /* \"#utility.yul\":14019:14034   */\n          and\n            /* \"#utility.yul\":14009:14034   */\n          swap2\n          pop\n            /* \"#utility.yul\":13922:14040   */\n          pop\n            /* \"#utility.yul\":13871:14040   */\n          swap3\n          swap2\n          pop\n          pop\n          jump\t// out\n            /* \"#utility.yul\":14045:14340   */\n        tag_157:\n            /* \"#utility.yul\":14121:14125   */\n          0x00\n            /* \"#utility.yul\":14267:14296   */\n          tag_310\n            /* \"#utility.yul\":14292:14295   */\n          dup4\n            /* \"#utility.yul\":14286:14290   */\n          dup4\n            /* \"#utility.yul\":14267:14296   */\n          tag_156\n          jump\t// in\n        tag_310:\n            /* \"#utility.yul\":14259:14296   */\n          swap2\n          pop\n            /* \"#utility.yul\":14329:14332   */\n          dup3\n            /* \"#utility.yul\":14326:14327   */\n          0x02\n            /* \"#utility.yul\":14322:14333   */\n          mul\n            /* \"#utility.yul\":14316:14320   */\n          dup3\n            /* \"#utility.yul\":14313:14334   */\n          or\n            /* \"#utility.yul\":14305:14334   */\n          swap1\n          pop\n            /* \"#utility.yul\":14045:14340   */\n          swap3\n          swap2\n          pop\n          pop\n          jump\t// out\n            /* \"#utility.yul\":14345:15740   */\n        tag_42:\n            /* \"#utility.yul\":14462:14499   */\n          tag_312\n            /* \"#utility.yul\":14495:14498   */\n          dup3\n            /* \"#utility.yul\":14462:14499   */\n          tag_132\n          jump\t// in\n        tag_312:\n            /* \"#utility.yul\":14564:14582   */\n          0xffffffffffffffff\n            /* \"#utility.yul\":14556:14562   */\n          dup2\n            /* \"#utility.yul\":14553:14583   */\n          gt\n            /* \"#utility.yul\":14550:14606   */\n          iszero\n          tag_313\n          jumpi\n            /* \"#utility.yul\":14586:14604   */\n          tag_314\n          tag_121\n          jump\t// in\n        tag_314:\n            /* \"#utility.yul\":14550:14606   */\n        tag_313:\n            /* \"#utility.yul\":14630:14668   */\n          tag_315\n            /* \"#utility.yul\":14662:14666   */\n          dup3\n            /* \"#utility.yul\":14656:14667   */\n          sload\n            /* \"#utility.yul\":14630:14668   */\n          tag_72\n          jump\t// in\n        tag_315:\n            /* \"#utility.yul\":14715:14782   */\n          tag_316\n            /* \"#utility.yul\":14775:14781   */\n          dup3\n            /* \"#utility.yul\":14767:14773   */\n          dup3\n            /* \"#utility.yul\":14761:14765   */\n          dup6\n            /* \"#utility.yul\":14715:14782   */\n          tag_154\n          jump\t// in\n        tag_316:\n            /* \"#utility.yul\":14809:14810   */\n          0x00\n            /* \"#utility.yul\":14833:14837   */\n          0x20\n            /* \"#utility.yul\":14820:14837   */\n          swap1\n          pop\n            /* \"#utility.yul\":14865:14867   */\n          0x1f\n            /* \"#utility.yul\":14857:14863   */\n          dup4\n            /* \"#utility.yul\":14854:14868   */\n          gt\n            /* \"#utility.yul\":14882:14883   */\n          0x01\n            /* \"#utility.yul\":14877:15495   */\n          dup2\n          eq\n          tag_318\n          jumpi\n            /* \"#utility.yul\":15539:15540   */\n          0x00\n            /* \"#utility.yul\":15556:15562   */\n          dup5\n            /* \"#utility.yul\":15553:15630   */\n          iszero\n          tag_319\n          jumpi\n            /* \"#utility.yul\":15605:15614   */\n          dup3\n            /* \"#utility.yul\":15600:15603   */\n          dup8\n            /* \"#utility.yul\":15596:15615   */\n          add\n            /* \"#utility.yul\":15590:15616   */\n          mload\n            /* \"#utility.yul\":15581:15616   */\n          swap1\n          pop\n            /* \"#utility.yul\":15553:15630   */\n        tag_319:\n            /* \"#utility.yul\":15656:15723   */\n          tag_320\n            /* \"#utility.yul\":15716:15722   */\n          dup6\n            /* \"#utility.yul\":15709:15714   */\n          dup3\n            /* \"#utility.yul\":15656:15723   */\n          tag_157\n          jump\t// in\n        tag_320:\n            /* \"#utility.yul\":15650:15654   */\n          dup7\n            /* \"#utility.yul\":15643:15724   */\n          sstore\n            /* \"#utility.yul\":15512:15734   */\n          pop\n            /* \"#utility.yul\":14847:15734   */\n          jump(tag_317)\n            /* \"#utility.yul\":14877:15495   */\n        tag_318:\n            /* \"#utility.yul\":14929:14933   */\n          0x1f\n            /* \"#utility.yul\":14925:14934   */\n          not\n            /* \"#utility.yul\":14917:14923   */\n          dup5\n            /* \"#utility.yul\":14913:14935   */\n          and\n            /* \"#utility.yul\":14963:15000   */\n          tag_321\n            /* \"#utility.yul\":14995:14999   */\n          dup7\n            /* \"#utility.yul\":14963:15000   */\n          tag_143\n          jump\t// in\n        tag_321:\n            /* \"#utility.yul\":15022:15023   */\n          0x00\n            /* \"#utility.yul\":15036:15244   */\n        tag_322:\n            /* \"#utility.yul\":15050:15057   */\n          dup3\n            /* \"#utility.yul\":15047:15048   */\n          dup2\n            /* \"#utility.yul\":15044:15058   */\n          lt\n            /* \"#utility.yul\":15036:15244   */\n          iszero\n          tag_324\n          jumpi\n            /* \"#utility.yul\":15129:15138   */\n          dup5\n            /* \"#utility.yul\":15124:15127   */\n          dup10\n            /* \"#utility.yul\":15120:15139   */\n          add\n            /* \"#utility.yul\":15114:15140   */\n          mload\n            /* \"#utility.yul\":15106:15112   */\n          dup3\n            /* \"#utility.yul\":15099:15141   */\n          sstore\n            /* \"#utility.yul\":15180:15181   */\n          0x01\n            /* \"#utility.yul\":15172:15178   */\n          dup3\n            /* \"#utility.yul\":15168:15182   */\n          add\n            /* \"#utility.yul\":15158:15182   */\n          swap2\n          pop\n            /* \"#utility.yul\":15227:15229   */\n          0x20\n            /* \"#utility.yul\":15216:15225   */\n          dup6\n            /* \"#utility.yul\":15212:15230   */\n          add\n            /* \"#utility.yul\":15199:15230   */\n          swap5\n          pop\n            /* \"#utility.yul\":15073:15077   */\n          0x20\n            /* \"#utility.yul\":15070:15071   */\n          dup2\n            /* \"#utility.yul\":15066:15078   */\n          add\n            /* \"#utility.yul\":15061:15078   */\n          swap1\n          pop\n            /* \"#utility.yul\":15036:15244   */\n          jump(tag_322)\n        tag_324:\n            /* \"#utility.yul\":15272:15278   */\n          dup7\n            /* \"#utility.yul\":15263:15270   */\n          dup4\n            /* \"#utility.yul\":15260:15279   */\n          lt\n            /* \"#utility.yul\":15257:15436   */\n          iszero\n          tag_325\n          jumpi\n            /* \"#utility.yul\":15330:15339   */\n          dup5\n            /* \"#utility.yul\":15325:15328   */\n          dup10\n            /* \"#utility.yul\":15321:15340   */\n          add\n            /* \"#utility.yul\":15315:15341   */\n          mload\n            /* \"#utility.yul\":15373:15421   */\n          tag_326\n            /* \"#utility.yul\":15415:15419   */\n          0x1f\n            /* \"#utility.yul\":15407:15413   */\n          dup10\n            /* \"#utility.yul\":15403:15420   */\n          and\n            /* \"#utility.yul\":15392:15401   */\n          dup3\n            /* \"#utility.yul\":15373:15421   */\n          tag_156\n          jump\t// in\n        tag_326:\n            /* \"#utility.yul\":15365:15371   */\n          dup4\n            /* \"#utility.yul\":15358:15422   */\n          sstore\n            /* \"#utility.yul\":15280:15436   */\n          pop\n            /* \"#utility.yul\":15257:15436   */\n        tag_325:\n            /* \"#utility.yul\":15482:15483   */\n          0x01\n            /* \"#utility.yul\":15478:15479   */\n          0x02\n            /* \"#utility.yul\":15470:15476   */\n          dup9\n            /* \"#utility.yul\":15466:15480   */\n          mul\n            /* \"#utility.yul\":15462:15484   */\n          add\n            /* \"#utility.yul\":15456:15460   */\n          dup9\n            /* \"#utility.yul\":15449:15485   */\n          sstore\n            /* \"#utility.yul\":14884:15495   */\n          pop\n          pop\n          pop\n            /* \"#utility.yul\":14847:15734   */\n        tag_317:\n          pop\n            /* \"#utility.yul\":14437:15740   */\n          pop\n          pop\n          pop\n            /* \"#utility.yul\":14345:15740   */\n          pop\n          pop\n          jump\t// out\n            /* \"#utility.yul\":15746:16078   */\n        tag_53:\n            /* \"#utility.yul\":15867:15871   */\n          0x00\n            /* \"#utility.yul\":15905:15907   */\n          0x40\n            /* \"#utility.yul\":15894:15903   */\n          dup3\n            /* \"#utility.yul\":15890:15908   */\n          add\n            /* \"#utility.yul\":15882:15908   */\n          swap1\n          pop\n            /* \"#utility.yul\":15918:15989   */\n          tag_328\n            /* \"#utility.yul\":15986:15987   */\n          0x00\n            /* \"#utility.yul\":15975:15984   */\n          dup4\n            /* \"#utility.yul\":15971:15988   */\n          add\n            /* \"#utility.yul\":15962:15968   */\n          dup6\n            /* \"#utility.yul\":15918:15989   */\n          tag_138\n          jump\t// in\n        tag_328:\n            /* \"#utility.yul\":15999:16071   */\n          tag_329\n            /* \"#utility.yul\":16067:16069   */\n          0x20\n            /* \"#utility.yul\":16056:16065   */\n          dup4\n            /* \"#utility.yul\":16052:16070   */\n          add\n            /* \"#utility.yul\":16043:16049   */\n          dup5\n            /* \"#utility.yul\":15999:16071   */\n          tag_138\n          jump\t// in\n        tag_329:\n            /* \"#utility.yul\":15746:16078   */\n          swap4\n          swap3\n          pop\n          pop\n          pop\n          jump\t// out\n\n        auxdata: 0xa264697066735822122050ba126a425146d4968117b08a06b019bdb6e64b4dc0e42e6728cbef4f01e80264736f6c63430008110033\n    }\n}\n\nsub_2: assembly {\n        /* \"ElectronicMedicalRecords.sol\":4568:5397  contract PatientVerificator {... */\n      mstore(0x40, 0x80)\n        /* \"ElectronicMedicalRecords.sol\":4727:4788  constructor(address _admin) {... */\n      callvalue\n      dup1\n      iszero\n      tag_1\n      jumpi\n      0x00\n      dup1\n      revert\n    tag_1:\n      pop\n      mload(0x40)\n      sub(codesize, bytecodeSize)\n      dup1\n      bytecodeSize\n      dup4\n      codecopy\n      dup2\n      dup2\n      add\n      0x40\n      mstore\n      dup2\n      add\n      swap1\n      tag_2\n      swap2\n      swap1\n      tag_3\n      jump\t// in\n    tag_2:\n        /* \"ElectronicMedicalRecords.sol\":4774:4780  _admin */\n      dup1\n        /* \"ElectronicMedicalRecords.sol\":4766:4771  admin */\n      0x00\n      dup1\n        /* \"ElectronicMedicalRecords.sol\":4766:4780  admin = _admin */\n      0x0100\n      exp\n      dup2\n      sload\n      dup2\n      0xffffffffffffffffffffffffffffffffffffffff\n      mul\n      not\n      and\n      swap1\n      dup4\n      0xffffffffffffffffffffffffffffffffffffffff\n      and\n      mul\n      or\n      swap1\n      sstore\n      pop\n        /* \"ElectronicMedicalRecords.sol\":4727:4788  constructor(address _admin) {... */\n      pop\n        /* \"ElectronicMedicalRecords.sol\":4568:5397  contract PatientVerificator {... */\n      jump(tag_6)\n        /* \"#utility.yul\":88:205   */\n    tag_8:\n        /* \"#utility.yul\":197:198   */\n      0x00\n        /* \"#utility.yul\":194:195   */\n      dup1\n        /* \"#utility.yul\":187:199   */\n      revert\n        /* \"#utility.yul\":334:460   */\n    tag_10:\n        /* \"#utility.yul\":371:378   */\n      0x00\n        /* \"#utility.yul\":411:453   */\n      0xffffffffffffffffffffffffffffffffffffffff\n        /* \"#utility.yul\":404:409   */\n      dup3\n        /* \"#utility.yul\":400:454   */\n      and\n        /* \"#utility.yul\":389:454   */\n      swap1\n      pop\n        /* \"#utility.yul\":334:460   */\n      swap2\n      swap1\n      pop\n      jump\t// out\n        /* \"#utility.yul\":466:562   */\n    tag_11:\n        /* \"#utility.yul\":503:510   */\n      0x00\n        /* \"#utility.yul\":532:556   */\n      tag_20\n        /* \"#utility.yul\":550:555   */\n      dup3\n        /* \"#utility.yul\":532:556   */\n      tag_10\n      jump\t// in\n    tag_20:\n        /* \"#utility.yul\":521:556   */\n      swap1\n      pop\n        /* \"#utility.yul\":466:562   */\n      swap2\n      swap1\n      pop\n      jump\t// out\n        /* \"#utility.yul\":568:690   */\n    tag_12:\n        /* \"#utility.yul\":641:665   */\n      tag_22\n        /* \"#utility.yul\":659:664   */\n      dup2\n        /* \"#utility.yul\":641:665   */\n      tag_11\n      jump\t// in\n    tag_22:\n        /* \"#utility.yul\":634:639   */\n      dup2\n        /* \"#utility.yul\":631:666   */\n      eq\n        /* \"#utility.yul\":621:684   */\n      tag_23\n      jumpi\n        /* \"#utility.yul\":680:681   */\n      0x00\n        /* \"#utility.yul\":677:678   */\n      dup1\n        /* \"#utility.yul\":670:682   */\n      revert\n        /* \"#utility.yul\":621:684   */\n    tag_23:\n        /* \"#utility.yul\":568:690   */\n      pop\n      jump\t// out\n        /* \"#utility.yul\":696:839   */\n    tag_13:\n        /* \"#utility.yul\":753:758   */\n      0x00\n        /* \"#utility.yul\":784:790   */\n      dup2\n        /* \"#utility.yul\":778:791   */\n      mload\n        /* \"#utility.yul\":769:791   */\n      swap1\n      pop\n        /* \"#utility.yul\":800:833   */\n      tag_25\n        /* \"#utility.yul\":827:832   */\n      dup2\n        /* \"#utility.yul\":800:833   */\n      tag_12\n      jump\t// in\n    tag_25:\n        /* \"#utility.yul\":696:839   */\n      swap3\n      swap2\n      pop\n      pop\n      jump\t// out\n        /* \"#utility.yul\":845:1196   */\n    tag_3:\n        /* \"#utility.yul\":915:921   */\n      0x00\n        /* \"#utility.yul\":964:966   */\n      0x20\n        /* \"#utility.yul\":952:961   */\n      dup3\n        /* \"#utility.yul\":943:950   */\n      dup5\n        /* \"#utility.yul\":939:962   */\n      sub\n        /* \"#utility.yul\":935:967   */\n      slt\n        /* \"#utility.yul\":932:1051   */\n      iszero\n      tag_27\n      jumpi\n        /* \"#utility.yul\":970:1049   */\n      tag_28\n      tag_8\n      jump\t// in\n    tag_28:\n        /* \"#utility.yul\":932:1051   */\n    tag_27:\n        /* \"#utility.yul\":1090:1091   */\n      0x00\n        /* \"#utility.yul\":1115:1179   */\n      tag_29\n        /* \"#utility.yul\":1171:1178   */\n      dup5\n        /* \"#utility.yul\":1162:1168   */\n      dup3\n        /* \"#utility.yul\":1151:1160   */\n      dup6\n        /* \"#utility.yul\":1147:1169   */\n      add\n        /* \"#utility.yul\":1115:1179   */\n      tag_13\n      jump\t// in\n    tag_29:\n        /* \"#utility.yul\":1105:1179   */\n      swap2\n      pop\n        /* \"#utility.yul\":1061:1189   */\n      pop\n        /* \"#utility.yul\":845:1196   */\n      swap3\n      swap2\n      pop\n      pop\n      jump\t// out\n        /* \"ElectronicMedicalRecords.sol\":4568:5397  contract PatientVerificator {... */\n    tag_6:\n      dataSize(sub_0)\n      dup1\n      dataOffset(sub_0)\n      0x00\n      codecopy\n      0x00\n      return\n    stop\n\n    sub_0: assembly {\n            /* \"ElectronicMedicalRecords.sol\":4568:5397  contract PatientVerificator {... */\n          mstore(0x40, 0x80)\n          callvalue\n          dup1\n          iszero\n          tag_1\n          jumpi\n          0x00\n          dup1\n          revert\n        tag_1:\n          pop\n          jumpi(tag_2, lt(calldatasize, 0x04))\n          shr(0xe0, calldataload(0x00))\n          dup1\n          0x18a231a9\n          eq\n          tag_3\n          jumpi\n          dup1\n          0x63a9c3d7\n          eq\n          tag_4\n          jumpi\n          dup1\n          0x6d263ceb\n          eq\n          tag_5\n          jumpi\n        tag_2:\n          0x00\n          dup1\n          revert\n            /* \"ElectronicMedicalRecords.sol\":5189:5306  function getAllPatients() onlyAdmin public view returns(address[] memory _address) {... */\n        tag_3:\n          tag_6\n          tag_7\n          jump\t// in\n        tag_6:\n          mload(0x40)\n          tag_8\n          swap2\n          swap1\n          tag_9\n          jump\t// in\n        tag_8:\n          mload(0x40)\n          dup1\n          swap2\n          sub\n          swap1\n          return\n            /* \"ElectronicMedicalRecords.sol\":4990:5181  function verify(address _address) public view returns(bool _bool) {... */\n        tag_4:\n          tag_10\n          0x04\n          dup1\n          calldatasize\n          sub\n          dup2\n          add\n          swap1\n          tag_11\n          swap2\n          swap1\n          tag_12\n          jump\t// in\n        tag_11:\n          tag_13\n          jump\t// in\n        tag_10:\n          mload(0x40)\n          tag_14\n          swap2\n          swap1\n          tag_15\n          jump\t// in\n        tag_14:\n          mload(0x40)\n          dup1\n          swap2\n          sub\n          swap1\n          return\n            /* \"ElectronicMedicalRecords.sol\":4796:4982  function addPatient(address _address) onlyAdmin public {... */\n        tag_5:\n          tag_16\n          0x04\n          dup1\n          calldatasize\n          sub\n          dup2\n          add\n          swap1\n          tag_17\n          swap2\n          swap1\n          tag_12\n          jump\t// in\n        tag_17:\n          tag_18\n          jump\t// in\n        tag_16:\n          stop\n            /* \"ElectronicMedicalRecords.sol\":5189:5306  function getAllPatients() onlyAdmin public view returns(address[] memory _address) {... */\n        tag_7:\n            /* \"ElectronicMedicalRecords.sol\":5245:5270  address[] memory _address */\n          0x60\n            /* \"ElectronicMedicalRecords.sol\":5368:5373  admin */\n          0x00\n          dup1\n          sload\n          swap1\n          0x0100\n          exp\n          swap1\n          div\n          0xffffffffffffffffffffffffffffffffffffffff\n          and\n            /* \"ElectronicMedicalRecords.sol\":5354:5373  msg.sender == admin */\n          0xffffffffffffffffffffffffffffffffffffffff\n          and\n            /* \"ElectronicMedicalRecords.sol\":5354:5364  msg.sender */\n          caller\n            /* \"ElectronicMedicalRecords.sol\":5354:5373  msg.sender == admin */\n          0xffffffffffffffffffffffffffffffffffffffff\n          and\n          eq\n            /* \"ElectronicMedicalRecords.sol\":5346:5374  require(msg.sender == admin) */\n          tag_20\n          jumpi\n          0x00\n          dup1\n          revert\n        tag_20:\n            /* \"ElectronicMedicalRecords.sol\":5290:5298  patients */\n          0x01\n            /* \"ElectronicMedicalRecords.sol\":5283:5298  return patients */\n          dup1\n          sload\n          dup1\n          0x20\n          mul\n          0x20\n          add\n          mload(0x40)\n          swap1\n          dup2\n          add\n          0x40\n          mstore\n          dup1\n          swap3\n          swap2\n          swap1\n          dup2\n          dup2\n          mstore\n          0x20\n          add\n          dup3\n          dup1\n          sload\n          dup1\n          iszero\n          tag_22\n          jumpi\n          0x20\n          mul\n          dup3\n          add\n          swap2\n          swap1\n          0x00\n          mstore\n          keccak256(0x00, 0x20)\n          swap1\n        tag_23:\n          dup2\n          0x00\n          swap1\n          sload\n          swap1\n          0x0100\n          exp\n          swap1\n          div\n          0xffffffffffffffffffffffffffffffffffffffff\n          and\n          0xffffffffffffffffffffffffffffffffffffffff\n          and\n          dup2\n          mstore\n          0x20\n          add\n          swap1\n          0x01\n          add\n          swap1\n          dup1\n          dup4\n          gt\n          tag_23\n          jumpi\n        tag_22:\n          pop\n          pop\n          pop\n          pop\n          pop\n          swap1\n          pop\n            /* \"ElectronicMedicalRecords.sol\":5189:5306  function getAllPatients() onlyAdmin public view returns(address[] memory _address) {... */\n          swap1\n          jump\t// out\n            /* \"ElectronicMedicalRecords.sol\":4990:5181  function verify(address _address) public view returns(bool _bool) {... */\n        tag_13:\n            /* \"ElectronicMedicalRecords.sol\":5044:5054  bool _bool */\n          0x00\n            /* \"ElectronicMedicalRecords.sol\":5070:5077  patient */\n          0x02\n            /* \"ElectronicMedicalRecords.sol\":5070:5087  patient[_address] */\n          0x00\n            /* \"ElectronicMedicalRecords.sol\":5078:5086  _address */\n          dup4\n            /* \"ElectronicMedicalRecords.sol\":5070:5087  patient[_address] */\n          0xffffffffffffffffffffffffffffffffffffffff\n          and\n          0xffffffffffffffffffffffffffffffffffffffff\n          and\n          dup2\n          mstore\n          0x20\n          add\n          swap1\n          dup2\n          mstore\n          0x20\n          add\n          0x00\n          keccak256\n          0x00\n          swap1\n          sload\n          swap1\n          0x0100\n          exp\n          swap1\n          div\n          0xff\n          and\n            /* \"ElectronicMedicalRecords.sol\":5067:5172  if(patient[_address]) {... */\n          iszero\n          tag_25\n          jumpi\n            /* \"ElectronicMedicalRecords.sol\":5111:5115  true */\n          0x01\n            /* \"ElectronicMedicalRecords.sol\":5104:5115  return true */\n          swap1\n          pop\n          jump(tag_24)\n            /* \"ElectronicMedicalRecords.sol\":5067:5172  if(patient[_address]) {... */\n        tag_25:\n            /* \"ElectronicMedicalRecords.sol\":5155:5160  false */\n          0x00\n            /* \"ElectronicMedicalRecords.sol\":5148:5160  return false */\n          swap1\n          pop\n            /* \"ElectronicMedicalRecords.sol\":4990:5181  function verify(address _address) public view returns(bool _bool) {... */\n        tag_24:\n          swap2\n          swap1\n          pop\n          jump\t// out\n            /* \"ElectronicMedicalRecords.sol\":4796:4982  function addPatient(address _address) onlyAdmin public {... */\n        tag_18:\n            /* \"ElectronicMedicalRecords.sol\":5368:5373  admin */\n          0x00\n          dup1\n          sload\n          swap1\n          0x0100\n          exp\n          swap1\n          div\n          0xffffffffffffffffffffffffffffffffffffffff\n          and\n            /* \"ElectronicMedicalRecords.sol\":5354:5373  msg.sender == admin */\n          0xffffffffffffffffffffffffffffffffffffffff\n          and\n            /* \"ElectronicMedicalRecords.sol\":5354:5364  msg.sender */\n          caller\n            /* \"ElectronicMedicalRecords.sol\":5354:5373  msg.sender == admin */\n          0xffffffffffffffffffffffffffffffffffffffff\n          and\n          eq\n            /* \"ElectronicMedicalRecords.sol\":5346:5374  require(msg.sender == admin) */\n          tag_28\n          jumpi\n          0x00\n          dup1\n          revert\n        tag_28:\n            /* \"ElectronicMedicalRecords.sol\":4871:4878  patient */\n          0x02\n            /* \"ElectronicMedicalRecords.sol\":4871:4888  patient[_address] */\n          0x00\n            /* \"ElectronicMedicalRecords.sol\":4879:4887  _address */\n          dup3\n            /* \"ElectronicMedicalRecords.sol\":4871:4888  patient[_address] */\n          0xffffffffffffffffffffffffffffffffffffffff\n          and\n          0xffffffffffffffffffffffffffffffffffffffff\n          and\n          dup2\n          mstore\n          0x20\n          add\n          swap1\n          dup2\n          mstore\n          0x20\n          add\n          0x00\n          keccak256\n          0x00\n          swap1\n          sload\n          swap1\n          0x0100\n          exp\n          swap1\n          div\n          0xff\n          and\n            /* \"ElectronicMedicalRecords.sol\":4870:4888  !patient[_address] */\n          iszero\n            /* \"ElectronicMedicalRecords.sol\":4862:4889  require(!patient[_address]) */\n          tag_30\n          jumpi\n          0x00\n          dup1\n          revert\n        tag_30:\n            /* \"ElectronicMedicalRecords.sol\":4926:4930  true */\n          0x01\n            /* \"ElectronicMedicalRecords.sol\":4906:4913  patient */\n          0x02\n            /* \"ElectronicMedicalRecords.sol\":4906:4923  patient[_address] */\n          0x00\n            /* \"ElectronicMedicalRecords.sol\":4914:4922  _address */\n          dup4\n            /* \"ElectronicMedicalRecords.sol\":4906:4923  patient[_address] */\n          0xffffffffffffffffffffffffffffffffffffffff\n          and\n          0xffffffffffffffffffffffffffffffffffffffff\n          and\n          dup2\n          mstore\n          0x20\n          add\n          swap1\n          dup2\n          mstore\n          0x20\n          add\n          0x00\n          keccak256\n          0x00\n            /* \"ElectronicMedicalRecords.sol\":4906:4930  patient[_address] = true */\n          0x0100\n          exp\n          dup2\n          sload\n          dup2\n          0xff\n          mul\n          not\n          and\n          swap1\n          dup4\n          iszero\n          iszero\n          mul\n          or\n          swap1\n          sstore\n          pop\n            /* \"ElectronicMedicalRecords.sol\":4941:4949  patients */\n          0x01\n            /* \"ElectronicMedicalRecords.sol\":4955:4963  _address */\n          dup2\n            /* \"ElectronicMedicalRecords.sol\":4941:4964  patients.push(_address) */\n          swap1\n          dup1\n          0x01\n          dup2\n          sload\n          add\n          dup1\n          dup3\n          sstore\n          dup1\n          swap2\n          pop\n          pop\n          0x01\n          swap1\n          sub\n          swap1\n          0x00\n          mstore\n          keccak256(0x00, 0x20)\n          add\n          0x00\n          swap1\n          swap2\n          swap1\n          swap2\n          swap1\n          swap2\n          0x0100\n          exp\n          dup2\n          sload\n          dup2\n          0xffffffffffffffffffffffffffffffffffffffff\n          mul\n          not\n          and\n          swap1\n          dup4\n          0xffffffffffffffffffffffffffffffffffffffff\n          and\n          mul\n          or\n          swap1\n          sstore\n          pop\n            /* \"ElectronicMedicalRecords.sol\":4796:4982  function addPatient(address _address) onlyAdmin public {... */\n          pop\n          jump\t// out\n            /* \"#utility.yul\":7:121   */\n        tag_32:\n            /* \"#utility.yul\":74:80   */\n          0x00\n            /* \"#utility.yul\":108:113   */\n          dup2\n            /* \"#utility.yul\":102:114   */\n          mload\n            /* \"#utility.yul\":92:114   */\n          swap1\n          pop\n            /* \"#utility.yul\":7:121   */\n          swap2\n          swap1\n          pop\n          jump\t// out\n            /* \"#utility.yul\":127:311   */\n        tag_33:\n            /* \"#utility.yul\":226:237   */\n          0x00\n            /* \"#utility.yul\":260:266   */\n          dup3\n            /* \"#utility.yul\":255:258   */\n          dup3\n            /* \"#utility.yul\":248:267   */\n          mstore\n            /* \"#utility.yul\":300:304   */\n          0x20\n            /* \"#utility.yul\":295:298   */\n          dup3\n            /* \"#utility.yul\":291:305   */\n          add\n            /* \"#utility.yul\":276:305   */\n          swap1\n          pop\n            /* \"#utility.yul\":127:311   */\n          swap3\n          swap2\n          pop\n          pop\n          jump\t// out\n            /* \"#utility.yul\":317:449   */\n        tag_34:\n            /* \"#utility.yul\":384:388   */\n          0x00\n            /* \"#utility.yul\":407:410   */\n          dup2\n            /* \"#utility.yul\":399:410   */\n          swap1\n          pop\n            /* \"#utility.yul\":437:441   */\n          0x20\n            /* \"#utility.yul\":432:435   */\n          dup3\n            /* \"#utility.yul\":428:442   */\n          add\n            /* \"#utility.yul\":420:442   */\n          swap1\n          pop\n            /* \"#utility.yul\":317:449   */\n          swap2\n          swap1\n          pop\n          jump\t// out\n            /* \"#utility.yul\":455:581   */\n        tag_35:\n            /* \"#utility.yul\":492:499   */\n          0x00\n            /* \"#utility.yul\":532:574   */\n          0xffffffffffffffffffffffffffffffffffffffff\n            /* \"#utility.yul\":525:530   */\n          dup3\n            /* \"#utility.yul\":521:575   */\n          and\n            /* \"#utility.yul\":510:575   */\n          swap1\n          pop\n            /* \"#utility.yul\":455:581   */\n          swap2\n          swap1\n          pop\n          jump\t// out\n            /* \"#utility.yul\":587:683   */\n        tag_36:\n            /* \"#utility.yul\":624:631   */\n          0x00\n            /* \"#utility.yul\":653:677   */\n          tag_54\n            /* \"#utility.yul\":671:676   */\n          dup3\n            /* \"#utility.yul\":653:677   */\n          tag_35\n          jump\t// in\n        tag_54:\n            /* \"#utility.yul\":642:677   */\n          swap1\n          pop\n            /* \"#utility.yul\":587:683   */\n          swap2\n          swap1\n          pop\n          jump\t// out\n            /* \"#utility.yul\":689:797   */\n        tag_37:\n            /* \"#utility.yul\":766:790   */\n          tag_56\n            /* \"#utility.yul\":784:789   */\n          dup2\n            /* \"#utility.yul\":766:790   */\n          tag_36\n          jump\t// in\n        tag_56:\n            /* \"#utility.yul\":761:764   */\n          dup3\n            /* \"#utility.yul\":754:791   */\n          mstore\n            /* \"#utility.yul\":689:797   */\n          pop\n          pop\n          jump\t// out\n            /* \"#utility.yul\":803:982   */\n        tag_38:\n            /* \"#utility.yul\":872:882   */\n          0x00\n            /* \"#utility.yul\":893:939   */\n          tag_58\n            /* \"#utility.yul\":935:938   */\n          dup4\n            /* \"#utility.yul\":927:933   */\n          dup4\n            /* \"#utility.yul\":893:939   */\n          tag_37\n          jump\t// in\n        tag_58:\n            /* \"#utility.yul\":971:975   */\n          0x20\n            /* \"#utility.yul\":966:969   */\n          dup4\n            /* \"#utility.yul\":962:976   */\n          add\n            /* \"#utility.yul\":948:976   */\n          swap1\n          pop\n            /* \"#utility.yul\":803:982   */\n          swap3\n          swap2\n          pop\n          pop\n          jump\t// out\n            /* \"#utility.yul\":988:1101   */\n        tag_39:\n            /* \"#utility.yul\":1058:1062   */\n          0x00\n            /* \"#utility.yul\":1090:1094   */\n          0x20\n            /* \"#utility.yul\":1085:1088   */\n          dup3\n            /* \"#utility.yul\":1081:1095   */\n          add\n            /* \"#utility.yul\":1073:1095   */\n          swap1\n          pop\n            /* \"#utility.yul\":988:1101   */\n          swap2\n          swap1\n          pop\n          jump\t// out\n            /* \"#utility.yul\":1137:1869   */\n        tag_40:\n            /* \"#utility.yul\":1256:1259   */\n          0x00\n            /* \"#utility.yul\":1285:1339   */\n          tag_61\n            /* \"#utility.yul\":1333:1338   */\n          dup3\n            /* \"#utility.yul\":1285:1339   */\n          tag_32\n          jump\t// in\n        tag_61:\n            /* \"#utility.yul\":1355:1441   */\n          tag_62\n            /* \"#utility.yul\":1434:1440   */\n          dup2\n            /* \"#utility.yul\":1429:1432   */\n          dup6\n            /* \"#utility.yul\":1355:1441   */\n          tag_33\n          jump\t// in\n        tag_62:\n            /* \"#utility.yul\":1348:1441   */\n          swap4\n          pop\n            /* \"#utility.yul\":1465:1521   */\n          tag_63\n            /* \"#utility.yul\":1515:1520   */\n          dup4\n            /* \"#utility.yul\":1465:1521   */\n          tag_34\n          jump\t// in\n        tag_63:\n            /* \"#utility.yul\":1544:1551   */\n          dup1\n            /* \"#utility.yul\":1575:1576   */\n          0x00\n            /* \"#utility.yul\":1560:1844   */\n        tag_64:\n            /* \"#utility.yul\":1585:1591   */\n          dup4\n            /* \"#utility.yul\":1582:1583   */\n          dup2\n            /* \"#utility.yul\":1579:1592   */\n          lt\n            /* \"#utility.yul\":1560:1844   */\n          iszero\n          tag_66\n          jumpi\n            /* \"#utility.yul\":1661:1667   */\n          dup2\n            /* \"#utility.yul\":1655:1668   */\n          mload\n            /* \"#utility.yul\":1688:1751   */\n          tag_67\n            /* \"#utility.yul\":1747:1750   */\n          dup9\n            /* \"#utility.yul\":1732:1745   */\n          dup3\n            /* \"#utility.yul\":1688:1751   */\n          tag_38\n          jump\t// in\n        tag_67:\n            /* \"#utility.yul\":1681:1751   */\n          swap8\n          pop\n            /* \"#utility.yul\":1774:1834   */\n          tag_68\n            /* \"#utility.yul\":1827:1833   */\n          dup4\n            /* \"#utility.yul\":1774:1834   */\n          tag_39\n          jump\t// in\n        tag_68:\n            /* \"#utility.yul\":1764:1834   */\n          swap3\n          pop\n            /* \"#utility.yul\":1620:1844   */\n          pop\n            /* \"#utility.yul\":1607:1608   */\n          0x01\n            /* \"#utility.yul\":1604:1605   */\n          dup2\n            /* \"#utility.yul\":1600:1609   */\n          add\n            /* \"#utility.yul\":1595:1609   */\n          swap1\n          pop\n            /* \"#utility.yul\":1560:1844   */\n          jump(tag_64)\n        tag_66:\n            /* \"#utility.yul\":1564:1578   */\n          pop\n            /* \"#utility.yul\":1860:1863   */\n          dup6\n            /* \"#utility.yul\":1853:1863   */\n          swap4\n          pop\n            /* \"#utility.yul\":1261:1869   */\n          pop\n          pop\n          pop\n            /* \"#utility.yul\":1137:1869   */\n          swap3\n          swap2\n          pop\n          pop\n          jump\t// out\n            /* \"#utility.yul\":1875:2248   */\n        tag_9:\n            /* \"#utility.yul\":2018:2022   */\n          0x00\n            /* \"#utility.yul\":2056:2058   */\n          0x20\n            /* \"#utility.yul\":2045:2054   */\n          dup3\n            /* \"#utility.yul\":2041:2059   */\n          add\n            /* \"#utility.yul\":2033:2059   */\n          swap1\n          pop\n            /* \"#utility.yul\":2105:2114   */\n          dup2\n            /* \"#utility.yul\":2099:2103   */\n          dup2\n            /* \"#utility.yul\":2095:2115   */\n          sub\n            /* \"#utility.yul\":2091:2092   */\n          0x00\n            /* \"#utility.yul\":2080:2089   */\n          dup4\n            /* \"#utility.yul\":2076:2093   */\n          add\n            /* \"#utility.yul\":2069:2116   */\n          mstore\n            /* \"#utility.yul\":2133:2241   */\n          tag_70\n            /* \"#utility.yul\":2236:2240   */\n          dup2\n            /* \"#utility.yul\":2227:2233   */\n          dup5\n            /* \"#utility.yul\":2133:2241   */\n          tag_40\n          jump\t// in\n        tag_70:\n            /* \"#utility.yul\":2125:2241   */\n          swap1\n          pop\n            /* \"#utility.yul\":1875:2248   */\n          swap3\n          swap2\n          pop\n          pop\n          jump\t// out\n            /* \"#utility.yul\":2335:2452   */\n        tag_42:\n            /* \"#utility.yul\":2444:2445   */\n          0x00\n            /* \"#utility.yul\":2441:2442   */\n          dup1\n            /* \"#utility.yul\":2434:2446   */\n          revert\n            /* \"#utility.yul\":2581:2703   */\n        tag_44:\n            /* \"#utility.yul\":2654:2678   */\n          tag_75\n            /* \"#utility.yul\":2672:2677   */\n          dup2\n            /* \"#utility.yul\":2654:2678   */\n          tag_36\n          jump\t// in\n        tag_75:\n            /* \"#utility.yul\":2647:2652   */\n          dup2\n            /* \"#utility.yul\":2644:2679   */\n          eq\n            /* \"#utility.yul\":2634:2697   */\n          tag_76\n          jumpi\n            /* \"#utility.yul\":2693:2694   */\n          0x00\n            /* \"#utility.yul\":2690:2691   */\n          dup1\n            /* \"#utility.yul\":2683:2695   */\n          revert\n            /* \"#utility.yul\":2634:2697   */\n        tag_76:\n            /* \"#utility.yul\":2581:2703   */\n          pop\n          jump\t// out\n            /* \"#utility.yul\":2709:2848   */\n        tag_45:\n            /* \"#utility.yul\":2755:2760   */\n          0x00\n            /* \"#utility.yul\":2793:2799   */\n          dup2\n            /* \"#utility.yul\":2780:2800   */\n          calldataload\n            /* \"#utility.yul\":2771:2800   */\n          swap1\n          pop\n            /* \"#utility.yul\":2809:2842   */\n          tag_78\n            /* \"#utility.yul\":2836:2841   */\n          dup2\n            /* \"#utility.yul\":2809:2842   */\n          tag_44\n          jump\t// in\n        tag_78:\n            /* \"#utility.yul\":2709:2848   */\n          swap3\n          swap2\n          pop\n          pop\n          jump\t// out\n            /* \"#utility.yul\":2854:3183   */\n        tag_12:\n            /* \"#utility.yul\":2913:2919   */\n          0x00\n            /* \"#utility.yul\":2962:2964   */\n          0x20\n            /* \"#utility.yul\":2950:2959   */\n          dup3\n            /* \"#utility.yul\":2941:2948   */\n          dup5\n            /* \"#utility.yul\":2937:2960   */\n          sub\n            /* \"#utility.yul\":2933:2965   */\n          slt\n            /* \"#utility.yul\":2930:3049   */\n          iszero\n          tag_80\n          jumpi\n            /* \"#utility.yul\":2968:3047   */\n          tag_81\n          tag_42\n          jump\t// in\n        tag_81:\n            /* \"#utility.yul\":2930:3049   */\n        tag_80:\n            /* \"#utility.yul\":3088:3089   */\n          0x00\n            /* \"#utility.yul\":3113:3166   */\n          tag_82\n            /* \"#utility.yul\":3158:3165   */\n          dup5\n            /* \"#utility.yul\":3149:3155   */\n          dup3\n            /* \"#utility.yul\":3138:3147   */\n          dup6\n            /* \"#utility.yul\":3134:3156   */\n          add\n            /* \"#utility.yul\":3113:3166   */\n          tag_45\n          jump\t// in\n        tag_82:\n            /* \"#utility.yul\":3103:3166   */\n          swap2\n          pop\n            /* \"#utility.yul\":3059:3176   */\n          pop\n            /* \"#utility.yul\":2854:3183   */\n          swap3\n          swap2\n          pop\n          pop\n          jump\t// out\n            /* \"#utility.yul\":3189:3279   */\n        tag_46:\n            /* \"#utility.yul\":3223:3230   */\n          0x00\n            /* \"#utility.yul\":3266:3271   */\n          dup2\n            /* \"#utility.yul\":3259:3272   */\n          iszero\n            /* \"#utility.yul\":3252:3273   */\n          iszero\n            /* \"#utility.yul\":3241:3273   */\n          swap1\n          pop\n            /* \"#utility.yul\":3189:3279   */\n          swap2\n          swap1\n          pop\n          jump\t// out\n            /* \"#utility.yul\":3285:3394   */\n        tag_47:\n            /* \"#utility.yul\":3366:3387   */\n          tag_85\n            /* \"#utility.yul\":3381:3386   */\n          dup2\n            /* \"#utility.yul\":3366:3387   */\n          tag_46\n          jump\t// in\n        tag_85:\n            /* \"#utility.yul\":3361:3364   */\n          dup3\n            /* \"#utility.yul\":3354:3388   */\n          mstore\n            /* \"#utility.yul\":3285:3394   */\n          pop\n          pop\n          jump\t// out\n            /* \"#utility.yul\":3400:3610   */\n        tag_15:\n            /* \"#utility.yul\":3487:3491   */\n          0x00\n            /* \"#utility.yul\":3525:3527   */\n          0x20\n            /* \"#utility.yul\":3514:3523   */\n          dup3\n            /* \"#utility.yul\":3510:3528   */\n          add\n            /* \"#utility.yul\":3502:3528   */\n          swap1\n          pop\n            /* \"#utility.yul\":3538:3603   */\n          tag_87\n            /* \"#utility.yul\":3600:3601   */\n          0x00\n            /* \"#utility.yul\":3589:3598   */\n          dup4\n            /* \"#utility.yul\":3585:3602   */\n          add\n            /* \"#utility.yul\":3576:3582   */\n          dup5\n            /* \"#utility.yul\":3538:3603   */\n          tag_47\n          jump\t// in\n        tag_87:\n            /* \"#utility.yul\":3400:3610   */\n          swap3\n          swap2\n          pop\n          pop\n          jump\t// out\n\n        auxdata: 0xa264697066735822122067bf6ac9c8a31b6e20db38ea7ce884f3a64f29fa9a4c3d3b4673f3cdb66b97eb64736f6c63430008110033\n    }\n}\n\nsub_3: assembly {\n        /* \"ElectronicMedicalRecords.sol\":5401:6220  contract DoctorVerificator {... */\n      mstore(0x40, 0x80)\n        /* \"ElectronicMedicalRecords.sol\":5557:5618  constructor(address _admin) {... */\n      callvalue\n      dup1\n      iszero\n      tag_1\n      jumpi\n      0x00\n      dup1\n      revert\n    tag_1:\n      pop\n      mload(0x40)\n      sub(codesize, bytecodeSize)\n      dup1\n      bytecodeSize\n      dup4\n      codecopy\n      dup2\n      dup2\n      add\n      0x40\n      mstore\n      dup2\n      add\n      swap1\n      tag_2\n      swap2\n      swap1\n      tag_3\n      jump\t// in\n    tag_2:\n        /* \"ElectronicMedicalRecords.sol\":5604:5610  _admin */\n      dup1\n        /* \"ElectronicMedicalRecords.sol\":5596:5601  admin */\n      0x00\n      dup1\n        /* \"ElectronicMedicalRecords.sol\":5596:5610  admin = _admin */\n      0x0100\n      exp\n      dup2\n      sload\n      dup2\n      0xffffffffffffffffffffffffffffffffffffffff\n      mul\n      not\n      and\n      swap1\n      dup4\n      0xffffffffffffffffffffffffffffffffffffffff\n      and\n      mul\n      or\n      swap1\n      sstore\n      pop\n        /* \"ElectronicMedicalRecords.sol\":5557:5618  constructor(address _admin) {... */\n      pop\n        /* \"ElectronicMedicalRecords.sol\":5401:6220  contract DoctorVerificator {... */\n      jump(tag_6)\n        /* \"#utility.yul\":88:205   */\n    tag_8:\n        /* \"#utility.yul\":197:198   */\n      0x00\n        /* \"#utility.yul\":194:195   */\n      dup1\n        /* \"#utility.yul\":187:199   */\n      revert\n        /* \"#utility.yul\":334:460   */\n    tag_10:\n        /* \"#utility.yul\":371:378   */\n      0x00\n        /* \"#utility.yul\":411:453   */\n      0xffffffffffffffffffffffffffffffffffffffff\n        /* \"#utility.yul\":404:409   */\n      dup3\n        /* \"#utility.yul\":400:454   */\n      and\n        /* \"#utility.yul\":389:454   */\n      swap1\n      pop\n        /* \"#utility.yul\":334:460   */\n      swap2\n      swap1\n      pop\n      jump\t// out\n        /* \"#utility.yul\":466:562   */\n    tag_11:\n        /* \"#utility.yul\":503:510   */\n      0x00\n        /* \"#utility.yul\":532:556   */\n      tag_20\n        /* \"#utility.yul\":550:555   */\n      dup3\n        /* \"#utility.yul\":532:556   */\n      tag_10\n      jump\t// in\n    tag_20:\n        /* \"#utility.yul\":521:556   */\n      swap1\n      pop\n        /* \"#utility.yul\":466:562   */\n      swap2\n      swap1\n      pop\n      jump\t// out\n        /* \"#utility.yul\":568:690   */\n    tag_12:\n        /* \"#utility.yul\":641:665   */\n      tag_22\n        /* \"#utility.yul\":659:664   */\n      dup2\n        /* \"#utility.yul\":641:665   */\n      tag_11\n      jump\t// in\n    tag_22:\n        /* \"#utility.yul\":634:639   */\n      dup2\n        /* \"#utility.yul\":631:666   */\n      eq\n        /* \"#utility.yul\":621:684   */\n      tag_23\n      jumpi\n        /* \"#utility.yul\":680:681   */\n      0x00\n        /* \"#utility.yul\":677:678   */\n      dup1\n        /* \"#utility.yul\":670:682   */\n      revert\n        /* \"#utility.yul\":621:684   */\n    tag_23:\n        /* \"#utility.yul\":568:690   */\n      pop\n      jump\t// out\n        /* \"#utility.yul\":696:839   */\n    tag_13:\n        /* \"#utility.yul\":753:758   */\n      0x00\n        /* \"#utility.yul\":784:790   */\n      dup2\n        /* \"#utility.yul\":778:791   */\n      mload\n        /* \"#utility.yul\":769:791   */\n      swap1\n      pop\n        /* \"#utility.yul\":800:833   */\n      tag_25\n        /* \"#utility.yul\":827:832   */\n      dup2\n        /* \"#utility.yul\":800:833   */\n      tag_12\n      jump\t// in\n    tag_25:\n        /* \"#utility.yul\":696:839   */\n      swap3\n      swap2\n      pop\n      pop\n      jump\t// out\n        /* \"#utility.yul\":845:1196   */\n    tag_3:\n        /* \"#utility.yul\":915:921   */\n      0x00\n        /* \"#utility.yul\":964:966   */\n      0x20\n        /* \"#utility.yul\":952:961   */\n      dup3\n        /* \"#utility.yul\":943:950   */\n      dup5\n        /* \"#utility.yul\":939:962   */\n      sub\n        /* \"#utility.yul\":935:967   */\n      slt\n        /* \"#utility.yul\":932:1051   */\n      iszero\n      tag_27\n      jumpi\n        /* \"#utility.yul\":970:1049   */\n      tag_28\n      tag_8\n      jump\t// in\n    tag_28:\n        /* \"#utility.yul\":932:1051   */\n    tag_27:\n        /* \"#utility.yul\":1090:1091   */\n      0x00\n        /* \"#utility.yul\":1115:1179   */\n      tag_29\n        /* \"#utility.yul\":1171:1178   */\n      dup5\n        /* \"#utility.yul\":1162:1168   */\n      dup3\n        /* \"#utility.yul\":1151:1160   */\n      dup6\n        /* \"#utility.yul\":1147:1169   */\n      add\n        /* \"#utility.yul\":1115:1179   */\n      tag_13\n      jump\t// in\n    tag_29:\n        /* \"#utility.yul\":1105:1179   */\n      swap2\n      pop\n        /* \"#utility.yul\":1061:1189   */\n      pop\n        /* \"#utility.yul\":845:1196   */\n      swap3\n      swap2\n      pop\n      pop\n      jump\t// out\n        /* \"ElectronicMedicalRecords.sol\":5401:6220  contract DoctorVerificator {... */\n    tag_6:\n      dataSize(sub_0)\n      dup1\n      dataOffset(sub_0)\n      0x00\n      codecopy\n      0x00\n      return\n    stop\n\n    sub_0: assembly {\n            /* \"ElectronicMedicalRecords.sol\":5401:6220  contract DoctorVerificator {... */\n          mstore(0x40, 0x80)\n          callvalue\n          dup1\n          iszero\n          tag_1\n          jumpi\n          0x00\n          dup1\n          revert\n        tag_1:\n          pop\n          jumpi(tag_2, lt(calldatasize, 0x04))\n          shr(0xe0, calldataload(0x00))\n          dup1\n          0x4780468f\n          eq\n          tag_3\n          jumpi\n          dup1\n          0x63a9c3d7\n          eq\n          tag_4\n          jumpi\n          dup1\n          0xf0d95090\n          eq\n          tag_5\n          jumpi\n        tag_2:\n          0x00\n          dup1\n          revert\n            /* \"ElectronicMedicalRecords.sol\":5626:5808  function addDoctor(address _address) onlyAdmin public {... */\n        tag_3:\n          tag_6\n          0x04\n          dup1\n          calldatasize\n          sub\n          dup2\n          add\n          swap1\n          tag_7\n          swap2\n          swap1\n          tag_8\n          jump\t// in\n        tag_7:\n          tag_9\n          jump\t// in\n        tag_6:\n          stop\n            /* \"ElectronicMedicalRecords.sol\":5816:6006  function verify(address _address) public view returns(bool _bool) {... */\n        tag_4:\n          tag_10\n          0x04\n          dup1\n          calldatasize\n          sub\n          dup2\n          add\n          swap1\n          tag_11\n          swap2\n          swap1\n          tag_8\n          jump\t// in\n        tag_11:\n          tag_12\n          jump\t// in\n        tag_10:\n          mload(0x40)\n          tag_13\n          swap2\n          swap1\n          tag_14\n          jump\t// in\n        tag_13:\n          mload(0x40)\n          dup1\n          swap2\n          sub\n          swap1\n          return\n            /* \"ElectronicMedicalRecords.sol\":6014:6129  function getAllDoctors() onlyAdmin public view returns(address[] memory _address) {... */\n        tag_5:\n          tag_15\n          tag_16\n          jump\t// in\n        tag_15:\n          mload(0x40)\n          tag_17\n          swap2\n          swap1\n          tag_18\n          jump\t// in\n        tag_17:\n          mload(0x40)\n          dup1\n          swap2\n          sub\n          swap1\n          return\n            /* \"ElectronicMedicalRecords.sol\":5626:5808  function addDoctor(address _address) onlyAdmin public {... */\n        tag_9:\n            /* \"ElectronicMedicalRecords.sol\":6191:6196  admin */\n          0x00\n          dup1\n          sload\n          swap1\n          0x0100\n          exp\n          swap1\n          div\n          0xffffffffffffffffffffffffffffffffffffffff\n          and\n            /* \"ElectronicMedicalRecords.sol\":6177:6196  msg.sender == admin */\n          0xffffffffffffffffffffffffffffffffffffffff\n          and\n            /* \"ElectronicMedicalRecords.sol\":6177:6187  msg.sender */\n          caller\n            /* \"ElectronicMedicalRecords.sol\":6177:6196  msg.sender == admin */\n          0xffffffffffffffffffffffffffffffffffffffff\n          and\n          eq\n            /* \"ElectronicMedicalRecords.sol\":6169:6197  require(msg.sender == admin) */\n          tag_20\n          jumpi\n          0x00\n          dup1\n          revert\n        tag_20:\n            /* \"ElectronicMedicalRecords.sol\":5700:5706  doctor */\n          0x02\n            /* \"ElectronicMedicalRecords.sol\":5700:5716  doctor[_address] */\n          0x00\n            /* \"ElectronicMedicalRecords.sol\":5707:5715  _address */\n          dup3\n            /* \"ElectronicMedicalRecords.sol\":5700:5716  doctor[_address] */\n          0xffffffffffffffffffffffffffffffffffffffff\n          and\n          0xffffffffffffffffffffffffffffffffffffffff\n          and\n          dup2\n          mstore\n          0x20\n          add\n          swap1\n          dup2\n          mstore\n          0x20\n          add\n          0x00\n          keccak256\n          0x00\n          swap1\n          sload\n          swap1\n          0x0100\n          exp\n          swap1\n          div\n          0xff\n          and\n            /* \"ElectronicMedicalRecords.sol\":5699:5716  !doctor[_address] */\n          iszero\n            /* \"ElectronicMedicalRecords.sol\":5691:5717  require(!doctor[_address]) */\n          tag_22\n          jumpi\n          0x00\n          dup1\n          revert\n        tag_22:\n            /* \"ElectronicMedicalRecords.sol\":5753:5757  true */\n          0x01\n            /* \"ElectronicMedicalRecords.sol\":5734:5740  doctor */\n          0x02\n            /* \"ElectronicMedicalRecords.sol\":5734:5750  doctor[_address] */\n          0x00\n            /* \"ElectronicMedicalRecords.sol\":5741:5749  _address */\n          dup4\n            /* \"ElectronicMedicalRecords.sol\":5734:5750  doctor[_address] */\n          0xffffffffffffffffffffffffffffffffffffffff\n          and\n          0xffffffffffffffffffffffffffffffffffffffff\n          and\n          dup2\n          mstore\n          0x20\n          add\n          swap1\n          dup2\n          mstore\n          0x20\n          add\n          0x00\n          keccak256\n          0x00\n            /* \"ElectronicMedicalRecords.sol\":5734:5757  doctor[_address] = true */\n          0x0100\n          exp\n          dup2\n          sload\n          dup2\n          0xff\n          mul\n          not\n          and\n          swap1\n          dup4\n          iszero\n          iszero\n          mul\n          or\n          swap1\n          sstore\n          pop\n            /* \"ElectronicMedicalRecords.sol\":5768:5775  doctors */\n          0x01\n            /* \"ElectronicMedicalRecords.sol\":5781:5789  _address */\n          dup2\n            /* \"ElectronicMedicalRecords.sol\":5768:5790  doctors.push(_address) */\n          swap1\n          dup1\n          0x01\n          dup2\n          sload\n          add\n          dup1\n          dup3\n          sstore\n          dup1\n          swap2\n          pop\n          pop\n          0x01\n          swap1\n          sub\n          swap1\n          0x00\n          mstore\n          keccak256(0x00, 0x20)\n          add\n          0x00\n          swap1\n          swap2\n          swap1\n          swap2\n          swap1\n          swap2\n          0x0100\n          exp\n          dup2\n          sload\n          dup2\n          0xffffffffffffffffffffffffffffffffffffffff\n          mul\n          not\n          and\n          swap1\n          dup4\n          0xffffffffffffffffffffffffffffffffffffffff\n          and\n          mul\n          or\n          swap1\n          sstore\n          pop\n            /* \"ElectronicMedicalRecords.sol\":5626:5808  function addDoctor(address _address) onlyAdmin public {... */\n          pop\n          jump\t// out\n            /* \"ElectronicMedicalRecords.sol\":5816:6006  function verify(address _address) public view returns(bool _bool) {... */\n        tag_12:\n            /* \"ElectronicMedicalRecords.sol\":5870:5880  bool _bool */\n          0x00\n            /* \"ElectronicMedicalRecords.sol\":5896:5902  doctor */\n          0x02\n            /* \"ElectronicMedicalRecords.sol\":5896:5912  doctor[_address] */\n          0x00\n            /* \"ElectronicMedicalRecords.sol\":5903:5911  _address */\n          dup4\n            /* \"ElectronicMedicalRecords.sol\":5896:5912  doctor[_address] */\n          0xffffffffffffffffffffffffffffffffffffffff\n          and\n          0xffffffffffffffffffffffffffffffffffffffff\n          and\n          dup2\n          mstore\n          0x20\n          add\n          swap1\n          dup2\n          mstore\n          0x20\n          add\n          0x00\n          keccak256\n          0x00\n          swap1\n          sload\n          swap1\n          0x0100\n          exp\n          swap1\n          div\n          0xff\n          and\n            /* \"ElectronicMedicalRecords.sol\":5893:5997  if(doctor[_address]) {... */\n          iszero\n          tag_25\n          jumpi\n            /* \"ElectronicMedicalRecords.sol\":5936:5940  true */\n          0x01\n            /* \"ElectronicMedicalRecords.sol\":5929:5940  return true */\n          swap1\n          pop\n          jump(tag_24)\n            /* \"ElectronicMedicalRecords.sol\":5893:5997  if(doctor[_address]) {... */\n        tag_25:\n            /* \"ElectronicMedicalRecords.sol\":5980:5985  false */\n          0x00\n            /* \"ElectronicMedicalRecords.sol\":5973:5985  return false */\n          swap1\n          pop\n            /* \"ElectronicMedicalRecords.sol\":5816:6006  function verify(address _address) public view returns(bool _bool) {... */\n        tag_24:\n          swap2\n          swap1\n          pop\n          jump\t// out\n            /* \"ElectronicMedicalRecords.sol\":6014:6129  function getAllDoctors() onlyAdmin public view returns(address[] memory _address) {... */\n        tag_16:\n            /* \"ElectronicMedicalRecords.sol\":6069:6094  address[] memory _address */\n          0x60\n            /* \"ElectronicMedicalRecords.sol\":6191:6196  admin */\n          0x00\n          dup1\n          sload\n          swap1\n          0x0100\n          exp\n          swap1\n          div\n          0xffffffffffffffffffffffffffffffffffffffff\n          and\n            /* \"ElectronicMedicalRecords.sol\":6177:6196  msg.sender == admin */\n          0xffffffffffffffffffffffffffffffffffffffff\n          and\n            /* \"ElectronicMedicalRecords.sol\":6177:6187  msg.sender */\n          caller\n            /* \"ElectronicMedicalRecords.sol\":6177:6196  msg.sender == admin */\n          0xffffffffffffffffffffffffffffffffffffffff\n          and\n          eq\n            /* \"ElectronicMedicalRecords.sol\":6169:6197  require(msg.sender == admin) */\n          tag_28\n          jumpi\n          0x00\n          dup1\n          revert\n        tag_28:\n            /* \"ElectronicMedicalRecords.sol\":6114:6121  doctors */\n          0x01\n            /* \"ElectronicMedicalRecords.sol\":6107:6121  return doctors */\n          dup1\n          sload\n          dup1\n          0x20\n          mul\n          0x20\n          add\n          mload(0x40)\n          swap1\n          dup2\n          add\n          0x40\n          mstore\n          dup1\n          swap3\n          swap2\n          swap1\n          dup2\n          dup2\n          mstore\n          0x20\n          add\n          dup3\n          dup1\n          sload\n          dup1\n          iszero\n          tag_30\n          jumpi\n          0x20\n          mul\n          dup3\n          add\n          swap2\n          swap1\n          0x00\n          mstore\n          keccak256(0x00, 0x20)\n          swap1\n        tag_31:\n          dup2\n          0x00\n          swap1\n          sload\n          swap1\n          0x0100\n          exp\n          swap1\n          div\n          0xffffffffffffffffffffffffffffffffffffffff\n          and\n          0xffffffffffffffffffffffffffffffffffffffff\n          and\n          dup2\n          mstore\n          0x20\n          add\n          swap1\n          0x01\n          add\n          swap1\n          dup1\n          dup4\n          gt\n          tag_31\n          jumpi\n        tag_30:\n          pop\n          pop\n          pop\n          pop\n          pop\n          swap1\n          pop\n            /* \"ElectronicMedicalRecords.sol\":6014:6129  function getAllDoctors() onlyAdmin public view returns(address[] memory _address) {... */\n          swap1\n          jump\t// out\n            /* \"#utility.yul\":88:205   */\n        tag_33:\n            /* \"#utility.yul\":197:198   */\n          0x00\n            /* \"#utility.yul\":194:195   */\n          dup1\n            /* \"#utility.yul\":187:199   */\n          revert\n            /* \"#utility.yul\":334:460   */\n        tag_35:\n            /* \"#utility.yul\":371:378   */\n          0x00\n            /* \"#utility.yul\":411:453   */\n          0xffffffffffffffffffffffffffffffffffffffff\n            /* \"#utility.yul\":404:409   */\n          dup3\n            /* \"#utility.yul\":400:454   */\n          and\n            /* \"#utility.yul\":389:454   */\n          swap1\n          pop\n            /* \"#utility.yul\":334:460   */\n          swap2\n          swap1\n          pop\n          jump\t// out\n            /* \"#utility.yul\":466:562   */\n        tag_36:\n            /* \"#utility.yul\":503:510   */\n          0x00\n            /* \"#utility.yul\":532:556   */\n          tag_54\n            /* \"#utility.yul\":550:555   */\n          dup3\n            /* \"#utility.yul\":532:556   */\n          tag_35\n          jump\t// in\n        tag_54:\n            /* \"#utility.yul\":521:556   */\n          swap1\n          pop\n            /* \"#utility.yul\":466:562   */\n          swap2\n          swap1\n          pop\n          jump\t// out\n            /* \"#utility.yul\":568:690   */\n        tag_37:\n            /* \"#utility.yul\":641:665   */\n          tag_56\n            /* \"#utility.yul\":659:664   */\n          dup2\n            /* \"#utility.yul\":641:665   */\n          tag_36\n          jump\t// in\n        tag_56:\n            /* \"#utility.yul\":634:639   */\n          dup2\n            /* \"#utility.yul\":631:666   */\n          eq\n            /* \"#utility.yul\":621:684   */\n          tag_57\n          jumpi\n            /* \"#utility.yul\":680:681   */\n          0x00\n            /* \"#utility.yul\":677:678   */\n          dup1\n            /* \"#utility.yul\":670:682   */\n          revert\n            /* \"#utility.yul\":621:684   */\n        tag_57:\n            /* \"#utility.yul\":568:690   */\n          pop\n          jump\t// out\n            /* \"#utility.yul\":696:835   */\n        tag_38:\n            /* \"#utility.yul\":742:747   */\n          0x00\n            /* \"#utility.yul\":780:786   */\n          dup2\n            /* \"#utility.yul\":767:787   */\n          calldataload\n            /* \"#utility.yul\":758:787   */\n          swap1\n          pop\n            /* \"#utility.yul\":796:829   */\n          tag_59\n            /* \"#utility.yul\":823:828   */\n          dup2\n            /* \"#utility.yul\":796:829   */\n          tag_37\n          jump\t// in\n        tag_59:\n            /* \"#utility.yul\":696:835   */\n          swap3\n          swap2\n          pop\n          pop\n          jump\t// out\n            /* \"#utility.yul\":841:1170   */\n        tag_8:\n            /* \"#utility.yul\":900:906   */\n          0x00\n            /* \"#utility.yul\":949:951   */\n          0x20\n            /* \"#utility.yul\":937:946   */\n          dup3\n            /* \"#utility.yul\":928:935   */\n          dup5\n            /* \"#utility.yul\":924:947   */\n          sub\n            /* \"#utility.yul\":920:952   */\n          slt\n            /* \"#utility.yul\":917:1036   */\n          iszero\n          tag_61\n          jumpi\n            /* \"#utility.yul\":955:1034   */\n          tag_62\n          tag_33\n          jump\t// in\n        tag_62:\n            /* \"#utility.yul\":917:1036   */\n        tag_61:\n            /* \"#utility.yul\":1075:1076   */\n          0x00\n            /* \"#utility.yul\":1100:1153   */\n          tag_63\n            /* \"#utility.yul\":1145:1152   */\n          dup5\n            /* \"#utility.yul\":1136:1142   */\n          dup3\n            /* \"#utility.yul\":1125:1134   */\n          dup6\n            /* \"#utility.yul\":1121:1143   */\n          add\n            /* \"#utility.yul\":1100:1153   */\n          tag_38\n          jump\t// in\n        tag_63:\n            /* \"#utility.yul\":1090:1153   */\n          swap2\n          pop\n            /* \"#utility.yul\":1046:1163   */\n          pop\n            /* \"#utility.yul\":841:1170   */\n          swap3\n          swap2\n          pop\n          pop\n          jump\t// out\n            /* \"#utility.yul\":1176:1266   */\n        tag_39:\n            /* \"#utility.yul\":1210:1217   */\n          0x00\n            /* \"#utility.yul\":1253:1258   */\n          dup2\n            /* \"#utility.yul\":1246:1259   */\n          iszero\n            /* \"#utility.yul\":1239:1260   */\n          iszero\n            /* \"#utility.yul\":1228:1260   */\n          swap1\n          pop\n            /* \"#utility.yul\":1176:1266   */\n          swap2\n          swap1\n          pop\n          jump\t// out\n            /* \"#utility.yul\":1272:1381   */\n        tag_40:\n            /* \"#utility.yul\":1353:1374   */\n          tag_66\n            /* \"#utility.yul\":1368:1373   */\n          dup2\n            /* \"#utility.yul\":1353:1374   */\n          tag_39\n          jump\t// in\n        tag_66:\n            /* \"#utility.yul\":1348:1351   */\n          dup3\n            /* \"#utility.yul\":1341:1375   */\n          mstore\n            /* \"#utility.yul\":1272:1381   */\n          pop\n          pop\n          jump\t// out\n            /* \"#utility.yul\":1387:1597   */\n        tag_14:\n            /* \"#utility.yul\":1474:1478   */\n          0x00\n            /* \"#utility.yul\":1512:1514   */\n          0x20\n            /* \"#utility.yul\":1501:1510   */\n          dup3\n            /* \"#utility.yul\":1497:1515   */\n          add\n            /* \"#utility.yul\":1489:1515   */\n          swap1\n          pop\n            /* \"#utility.yul\":1525:1590   */\n          tag_68\n            /* \"#utility.yul\":1587:1588   */\n          0x00\n            /* \"#utility.yul\":1576:1585   */\n          dup4\n            /* \"#utility.yul\":1572:1589   */\n          add\n            /* \"#utility.yul\":1563:1569   */\n          dup5\n            /* \"#utility.yul\":1525:1590   */\n          tag_40\n          jump\t// in\n        tag_68:\n            /* \"#utility.yul\":1387:1597   */\n          swap3\n          swap2\n          pop\n          pop\n          jump\t// out\n            /* \"#utility.yul\":1603:1717   */\n        tag_41:\n            /* \"#utility.yul\":1670:1676   */\n          0x00\n            /* \"#utility.yul\":1704:1709   */\n          dup2\n            /* \"#utility.yul\":1698:1710   */\n          mload\n            /* \"#utility.yul\":1688:1710   */\n          swap1\n          pop\n            /* \"#utility.yul\":1603:1717   */\n          swap2\n          swap1\n          pop\n          jump\t// out\n            /* \"#utility.yul\":1723:1907   */\n        tag_42:\n            /* \"#utility.yul\":1822:1833   */\n          0x00\n            /* \"#utility.yul\":1856:1862   */\n          dup3\n            /* \"#utility.yul\":1851:1854   */\n          dup3\n            /* \"#utility.yul\":1844:1863   */\n          mstore\n            /* \"#utility.yul\":1896:1900   */\n          0x20\n            /* \"#utility.yul\":1891:1894   */\n          dup3\n            /* \"#utility.yul\":1887:1901   */\n          add\n            /* \"#utility.yul\":1872:1901   */\n          swap1\n          pop\n            /* \"#utility.yul\":1723:1907   */\n          swap3\n          swap2\n          pop\n          pop\n          jump\t// out\n            /* \"#utility.yul\":1913:2045   */\n        tag_43:\n            /* \"#utility.yul\":1980:1984   */\n          0x00\n            /* \"#utility.yul\":2003:2006   */\n          dup2\n            /* \"#utility.yul\":1995:2006   */\n          swap1\n          pop\n            /* \"#utility.yul\":2033:2037   */\n          0x20\n            /* \"#utility.yul\":2028:2031   */\n          dup3\n            /* \"#utility.yul\":2024:2038   */\n          add\n            /* \"#utility.yul\":2016:2038   */\n          swap1\n          pop\n            /* \"#utility.yul\":1913:2045   */\n          swap2\n          swap1\n          pop\n          jump\t// out\n            /* \"#utility.yul\":2051:2159   */\n        tag_44:\n            /* \"#utility.yul\":2128:2152   */\n          tag_73\n            /* \"#utility.yul\":2146:2151   */\n          dup2\n            /* \"#utility.yul\":2128:2152   */\n          tag_36\n          jump\t// in\n        tag_73:\n            /* \"#utility.yul\":2123:2126   */\n          dup3\n            /* \"#utility.yul\":2116:2153   */\n          mstore\n            /* \"#utility.yul\":2051:2159   */\n          pop\n          pop\n          jump\t// out\n            /* \"#utility.yul\":2165:2344   */\n        tag_45:\n            /* \"#utility.yul\":2234:2244   */\n          0x00\n            /* \"#utility.yul\":2255:2301   */\n          tag_75\n            /* \"#utility.yul\":2297:2300   */\n          dup4\n            /* \"#utility.yul\":2289:2295   */\n          dup4\n            /* \"#utility.yul\":2255:2301   */\n          tag_44\n          jump\t// in\n        tag_75:\n            /* \"#utility.yul\":2333:2337   */\n          0x20\n            /* \"#utility.yul\":2328:2331   */\n          dup4\n            /* \"#utility.yul\":2324:2338   */\n          add\n            /* \"#utility.yul\":2310:2338   */\n          swap1\n          pop\n            /* \"#utility.yul\":2165:2344   */\n          swap3\n          swap2\n          pop\n          pop\n          jump\t// out\n            /* \"#utility.yul\":2350:2463   */\n        tag_46:\n            /* \"#utility.yul\":2420:2424   */\n          0x00\n            /* \"#utility.yul\":2452:2456   */\n          0x20\n            /* \"#utility.yul\":2447:2450   */\n          dup3\n            /* \"#utility.yul\":2443:2457   */\n          add\n            /* \"#utility.yul\":2435:2457   */\n          swap1\n          pop\n            /* \"#utility.yul\":2350:2463   */\n          swap2\n          swap1\n          pop\n          jump\t// out\n            /* \"#utility.yul\":2499:3231   */\n        tag_47:\n            /* \"#utility.yul\":2618:2621   */\n          0x00\n            /* \"#utility.yul\":2647:2701   */\n          tag_78\n            /* \"#utility.yul\":2695:2700   */\n          dup3\n            /* \"#utility.yul\":2647:2701   */\n          tag_41\n          jump\t// in\n        tag_78:\n            /* \"#utility.yul\":2717:2803   */\n          tag_79\n            /* \"#utility.yul\":2796:2802   */\n          dup2\n            /* \"#utility.yul\":2791:2794   */\n          dup6\n            /* \"#utility.yul\":2717:2803   */\n          tag_42\n          jump\t// in\n        tag_79:\n            /* \"#utility.yul\":2710:2803   */\n          swap4\n          pop\n            /* \"#utility.yul\":2827:2883   */\n          tag_80\n            /* \"#utility.yul\":2877:2882   */\n          dup4\n            /* \"#utility.yul\":2827:2883   */\n          tag_43\n          jump\t// in\n        tag_80:\n            /* \"#utility.yul\":2906:2913   */\n          dup1\n            /* \"#utility.yul\":2937:2938   */\n          0x00\n            /* \"#utility.yul\":2922:3206   */\n        tag_81:\n            /* \"#utility.yul\":2947:2953   */\n          dup4\n            /* \"#utility.yul\":2944:2945   */\n          dup2\n            /* \"#utility.yul\":2941:2954   */\n          lt\n            /* \"#utility.yul\":2922:3206   */\n          iszero\n          tag_83\n          jumpi\n            /* \"#utility.yul\":3023:3029   */\n          dup2\n            /* \"#utility.yul\":3017:3030   */\n          mload\n            /* \"#utility.yul\":3050:3113   */\n          tag_84\n            /* \"#utility.yul\":3109:3112   */\n          dup9\n            /* \"#utility.yul\":3094:3107   */\n          dup3\n            /* \"#utility.yul\":3050:3113   */\n          tag_45\n          jump\t// in\n        tag_84:\n            /* \"#utility.yul\":3043:3113   */\n          swap8\n          pop\n            /* \"#utility.yul\":3136:3196   */\n          tag_85\n            /* \"#utility.yul\":3189:3195   */\n          dup4\n            /* \"#utility.yul\":3136:3196   */\n          tag_46\n          jump\t// in\n        tag_85:\n            /* \"#utility.yul\":3126:3196   */\n          swap3\n          pop\n            /* \"#utility.yul\":2982:3206   */\n          pop\n            /* \"#utility.yul\":2969:2970   */\n          0x01\n            /* \"#utility.yul\":2966:2967   */\n          dup2\n            /* \"#utility.yul\":2962:2971   */\n          add\n            /* \"#utility.yul\":2957:2971   */\n          swap1\n          pop\n            /* \"#utility.yul\":2922:3206   */\n          jump(tag_81)\n        tag_83:\n            /* \"#utility.yul\":2926:2940   */\n          pop\n            /* \"#utility.yul\":3222:3225   */\n          dup6\n            /* \"#utility.yul\":3215:3225   */\n          swap4\n          pop\n            /* \"#utility.yul\":2623:3231   */\n          pop\n          pop\n          pop\n            /* \"#utility.yul\":2499:3231   */\n          swap3\n          swap2\n          pop\n          pop\n          jump\t// out\n            /* \"#utility.yul\":3237:3610   */\n        tag_18:\n            /* \"#utility.yul\":3380:3384   */\n          0x00\n            /* \"#utility.yul\":3418:3420   */\n          0x20\n            /* \"#utility.yul\":3407:3416   */\n          dup3\n            /* \"#utility.yul\":3403:3421   */\n          add\n            /* \"#utility.yul\":3395:3421   */\n          swap1\n          pop\n            /* \"#utility.yul\":3467:3476   */\n          dup2\n            /* \"#utility.yul\":3461:3465   */\n          dup2\n            /* \"#utility.yul\":3457:3477   */\n          sub\n            /* \"#utility.yul\":3453:3454   */\n          0x00\n            /* \"#utility.yul\":3442:3451   */\n          dup4\n            /* \"#utility.yul\":3438:3455   */\n          add\n            /* \"#utility.yul\":3431:3478   */\n          mstore\n            /* \"#utility.yul\":3495:3603   */\n          tag_87\n            /* \"#utility.yul\":3598:3602   */\n          dup2\n            /* \"#utility.yul\":3589:3595   */\n          dup5\n            /* \"#utility.yul\":3495:3603   */\n          tag_47\n          jump\t// in\n        tag_87:\n            /* \"#utility.yul\":3487:3603   */\n          swap1\n          pop\n            /* \"#utility.yul\":3237:3610   */\n          swap3\n          swap2\n          pop\n          pop\n          jump\t// out\n\n        auxdata: 0xa264697066735822122025c2c3b46dc76eff0369a39ed6f530f2b2dc434b0bba782b89ace6299046b46564736f6c63430008110033\n    }\n}\n\nsub_4: assembly {\n        /* \"ElectronicMedicalRecords.sol\":6224:7096  contract DoctorRelation {... */\n      mstore(0x40, 0x80)\n        /* \"ElectronicMedicalRecords.sol\":6380:6441  constructor(address _admin) {... */\n      callvalue\n      dup1\n      iszero\n      tag_1\n      jumpi\n      0x00\n      dup1\n      revert\n    tag_1:\n      pop\n      mload(0x40)\n      sub(codesize, bytecodeSize)\n      dup1\n      bytecodeSize\n      dup4\n      codecopy\n      dup2\n      dup2\n      add\n      0x40\n      mstore\n      dup2\n      add\n      swap1\n      tag_2\n      swap2\n      swap1\n      tag_3\n      jump\t// in\n    tag_2:\n        /* \"ElectronicMedicalRecords.sol\":6427:6433  _admin */\n      dup1\n        /* \"ElectronicMedicalRecords.sol\":6419:6424  admin */\n      0x00\n      dup1\n        /* \"ElectronicMedicalRecords.sol\":6419:6433  admin = _admin */\n      0x0100\n      exp\n      dup2\n      sload\n      dup2\n      0xffffffffffffffffffffffffffffffffffffffff\n      mul\n      not\n      and\n      swap1\n      dup4\n      0xffffffffffffffffffffffffffffffffffffffff\n      and\n      mul\n      or\n      swap1\n      sstore\n      pop\n        /* \"ElectronicMedicalRecords.sol\":6380:6441  constructor(address _admin) {... */\n      pop\n        /* \"ElectronicMedicalRecords.sol\":6224:7096  contract DoctorRelation {... */\n      jump(tag_6)\n        /* \"#utility.yul\":88:205   */\n    tag_8:\n        /* \"#utility.yul\":197:198   */\n      0x00\n        /* \"#utility.yul\":194:195   */\n      dup1\n        /* \"#utility.yul\":187:199   */\n      revert\n        /* \"#utility.yul\":334:460   */\n    tag_10:\n        /* \"#utility.yul\":371:378   */\n      0x00\n        /* \"#utility.yul\":411:453   */\n      0xffffffffffffffffffffffffffffffffffffffff\n        /* \"#utility.yul\":404:409   */\n      dup3\n        /* \"#utility.yul\":400:454   */\n      and\n        /* \"#utility.yul\":389:454   */\n      swap1\n      pop\n        /* \"#utility.yul\":334:460   */\n      swap2\n      swap1\n      pop\n      jump\t// out\n        /* \"#utility.yul\":466:562   */\n    tag_11:\n        /* \"#utility.yul\":503:510   */\n      0x00\n        /* \"#utility.yul\":532:556   */\n      tag_20\n        /* \"#utility.yul\":550:555   */\n      dup3\n        /* \"#utility.yul\":532:556   */\n      tag_10\n      jump\t// in\n    tag_20:\n        /* \"#utility.yul\":521:556   */\n      swap1\n      pop\n        /* \"#utility.yul\":466:562   */\n      swap2\n      swap1\n      pop\n      jump\t// out\n        /* \"#utility.yul\":568:690   */\n    tag_12:\n        /* \"#utility.yul\":641:665   */\n      tag_22\n        /* \"#utility.yul\":659:664   */\n      dup2\n        /* \"#utility.yul\":641:665   */\n      tag_11\n      jump\t// in\n    tag_22:\n        /* \"#utility.yul\":634:639   */\n      dup2\n        /* \"#utility.yul\":631:666   */\n      eq\n        /* \"#utility.yul\":621:684   */\n      tag_23\n      jumpi\n        /* \"#utility.yul\":680:681   */\n      0x00\n        /* \"#utility.yul\":677:678   */\n      dup1\n        /* \"#utility.yul\":670:682   */\n      revert\n        /* \"#utility.yul\":621:684   */\n    tag_23:\n        /* \"#utility.yul\":568:690   */\n      pop\n      jump\t// out\n        /* \"#utility.yul\":696:839   */\n    tag_13:\n        /* \"#utility.yul\":753:758   */\n      0x00\n        /* \"#utility.yul\":784:790   */\n      dup2\n        /* \"#utility.yul\":778:791   */\n      mload\n        /* \"#utility.yul\":769:791   */\n      swap1\n      pop\n        /* \"#utility.yul\":800:833   */\n      tag_25\n        /* \"#utility.yul\":827:832   */\n      dup2\n        /* \"#utility.yul\":800:833   */\n      tag_12\n      jump\t// in\n    tag_25:\n        /* \"#utility.yul\":696:839   */\n      swap3\n      swap2\n      pop\n      pop\n      jump\t// out\n        /* \"#utility.yul\":845:1196   */\n    tag_3:\n        /* \"#utility.yul\":915:921   */\n      0x00\n        /* \"#utility.yul\":964:966   */\n      0x20\n        /* \"#utility.yul\":952:961   */\n      dup3\n        /* \"#utility.yul\":943:950   */\n      dup5\n        /* \"#utility.yul\":939:962   */\n      sub\n        /* \"#utility.yul\":935:967   */\n      slt\n        /* \"#utility.yul\":932:1051   */\n      iszero\n      tag_27\n      jumpi\n        /* \"#utility.yul\":970:1049   */\n      tag_28\n      tag_8\n      jump\t// in\n    tag_28:\n        /* \"#utility.yul\":932:1051   */\n    tag_27:\n        /* \"#utility.yul\":1090:1091   */\n      0x00\n        /* \"#utility.yul\":1115:1179   */\n      tag_29\n        /* \"#utility.yul\":1171:1178   */\n      dup5\n        /* \"#utility.yul\":1162:1168   */\n      dup3\n        /* \"#utility.yul\":1151:1160   */\n      dup6\n        /* \"#utility.yul\":1147:1169   */\n      add\n        /* \"#utility.yul\":1115:1179   */\n      tag_13\n      jump\t// in\n    tag_29:\n        /* \"#utility.yul\":1105:1179   */\n      swap2\n      pop\n        /* \"#utility.yul\":1061:1189   */\n      pop\n        /* \"#utility.yul\":845:1196   */\n      swap3\n      swap2\n      pop\n      pop\n      jump\t// out\n        /* \"ElectronicMedicalRecords.sol\":6224:7096  contract DoctorRelation {... */\n    tag_6:\n      dataSize(sub_0)\n      dup1\n      dataOffset(sub_0)\n      0x00\n      codecopy\n      0x00\n      return\n    stop\n\n    sub_0: assembly {\n            /* \"ElectronicMedicalRecords.sol\":6224:7096  contract DoctorRelation {... */\n          mstore(0x40, 0x80)\n          callvalue\n          dup1\n          iszero\n          tag_1\n          jumpi\n          0x00\n          dup1\n          revert\n        tag_1:\n          pop\n          jumpi(tag_2, lt(calldatasize, 0x04))\n          shr(0xe0, calldataload(0x00))\n          dup1\n          0x1107747e\n          eq\n          tag_3\n          jumpi\n          dup1\n          0x8bfc8c71\n          eq\n          tag_4\n          jumpi\n          dup1\n          0xf40941d0\n          eq\n          tag_5\n          jumpi\n        tag_2:\n          0x00\n          dup1\n          revert\n            /* \"ElectronicMedicalRecords.sol\":6449:6651  function setDoctorVerificatorAddress(address _DoctorVerificatorAddress) public {... */\n        tag_3:\n          tag_6\n          0x04\n          dup1\n          calldatasize\n          sub\n          dup2\n          add\n          swap1\n          tag_7\n          swap2\n          swap1\n          tag_8\n          jump\t// in\n        tag_7:\n          tag_9\n          jump\t// in\n        tag_6:\n          stop\n            /* \"ElectronicMedicalRecords.sol\":6659:6808  function addDoctorRelation(address _doctor, address _patient) public onlyDoctor (msg.sender) {... */\n        tag_4:\n          tag_10\n          0x04\n          dup1\n          calldatasize\n          sub\n          dup2\n          add\n          swap1\n          tag_11\n          swap2\n          swap1\n          tag_12\n          jump\t// in\n        tag_11:\n          tag_13\n          jump\t// in\n        tag_10:\n          stop\n            /* \"ElectronicMedicalRecords.sol\":6816:6970  function getDoctorRelations(address _doctor) public view onlyDoctor(msg.sender) returns(address[] memory) {... */\n        tag_5:\n          tag_14\n          0x04\n          dup1\n          calldatasize\n          sub\n          dup2\n          add\n          swap1\n          tag_15\n          swap2\n          swap1\n          tag_8\n          jump\t// in\n        tag_15:\n          tag_16\n          jump\t// in\n        tag_14:\n          mload(0x40)\n          tag_17\n          swap2\n          swap1\n          tag_18\n          jump\t// in\n        tag_17:\n          mload(0x40)\n          dup1\n          swap2\n          sub\n          swap1\n          return\n            /* \"ElectronicMedicalRecords.sol\":6449:6651  function setDoctorVerificatorAddress(address _DoctorVerificatorAddress) public {... */\n        tag_9:\n            /* \"ElectronicMedicalRecords.sol\":6561:6566  admin */\n          0x00\n          dup1\n          sload\n          swap1\n          0x0100\n          exp\n          swap1\n          div\n          0xffffffffffffffffffffffffffffffffffffffff\n          and\n            /* \"ElectronicMedicalRecords.sol\":6547:6566  msg.sender == admin */\n          0xffffffffffffffffffffffffffffffffffffffff\n          and\n            /* \"ElectronicMedicalRecords.sol\":6547:6557  msg.sender */\n          caller\n            /* \"ElectronicMedicalRecords.sol\":6547:6566  msg.sender == admin */\n          0xffffffffffffffffffffffffffffffffffffffff\n          and\n          eq\n            /* \"ElectronicMedicalRecords.sol\":6539:6567  require(msg.sender == admin) */\n          tag_20\n          jumpi\n          0x00\n          dup1\n          revert\n        tag_20:\n            /* \"ElectronicMedicalRecords.sol\":6617:6642  _DoctorVerificatorAddress */\n          dup1\n            /* \"ElectronicMedicalRecords.sol\":6578:6596  doctor_verificator */\n          0x02\n          0x00\n            /* \"ElectronicMedicalRecords.sol\":6578:6643  doctor_verificator = DoctorVerificator(_DoctorVerificatorAddress) */\n          0x0100\n          exp\n          dup2\n          sload\n          dup2\n          0xffffffffffffffffffffffffffffffffffffffff\n          mul\n          not\n          and\n          swap1\n          dup4\n          0xffffffffffffffffffffffffffffffffffffffff\n          and\n          mul\n          or\n          swap1\n          sstore\n          pop\n            /* \"ElectronicMedicalRecords.sol\":6449:6651  function setDoctorVerificatorAddress(address _DoctorVerificatorAddress) public {... */\n          pop\n          jump\t// out\n            /* \"ElectronicMedicalRecords.sol\":6659:6808  function addDoctorRelation(address _doctor, address _patient) public onlyDoctor (msg.sender) {... */\n        tag_13:\n            /* \"ElectronicMedicalRecords.sol\":6740:6750  msg.sender */\n          caller\n            /* \"ElectronicMedicalRecords.sol\":7034:7052  doctor_verificator */\n          0x02\n          0x00\n          swap1\n          sload\n          swap1\n          0x0100\n          exp\n          swap1\n          div\n          0xffffffffffffffffffffffffffffffffffffffff\n          and\n            /* \"ElectronicMedicalRecords.sol\":7034:7059  doctor_verificator.verify */\n          0xffffffffffffffffffffffffffffffffffffffff\n          and\n          0x63a9c3d7\n            /* \"ElectronicMedicalRecords.sol\":7060:7067  _doctor */\n          dup3\n            /* \"ElectronicMedicalRecords.sol\":7034:7068  doctor_verificator.verify(_doctor) */\n          mload(0x40)\n          dup3\n          0xffffffff\n          and\n          0xe0\n          shl\n          dup2\n          mstore\n          0x04\n          add\n          tag_22\n          swap2\n          swap1\n          tag_23\n          jump\t// in\n        tag_22:\n          0x20\n          mload(0x40)\n          dup1\n          dup4\n          sub\n          dup2\n          dup7\n          gas\n          staticcall\n          iszero\n          dup1\n          iszero\n          tag_25\n          jumpi\n          returndatasize\n          0x00\n          dup1\n          returndatacopy\n          revert(0x00, returndatasize)\n        tag_25:\n          pop\n          pop\n          pop\n          pop\n          mload(0x40)\n          returndatasize\n          not(0x1f)\n          0x1f\n          dup3\n          add\n          and\n          dup3\n          add\n          dup1\n          0x40\n          mstore\n          pop\n          dup2\n          add\n          swap1\n          tag_26\n          swap2\n          swap1\n          tag_27\n          jump\t// in\n        tag_26:\n            /* \"ElectronicMedicalRecords.sol\":7026:7069  require(doctor_verificator.verify(_doctor)) */\n          tag_28\n          jumpi\n          0x00\n          dup1\n          revert\n        tag_28:\n            /* \"ElectronicMedicalRecords.sol\":6763:6776  relatedPatien */\n          0x01\n            /* \"ElectronicMedicalRecords.sol\":6763:6785  relatedPatien[_doctor] */\n          0x00\n            /* \"ElectronicMedicalRecords.sol\":6777:6784  _doctor */\n          dup5\n            /* \"ElectronicMedicalRecords.sol\":6763:6785  relatedPatien[_doctor] */\n          0xffffffffffffffffffffffffffffffffffffffff\n          and\n          0xffffffffffffffffffffffffffffffffffffffff\n          and\n          dup2\n          mstore\n          0x20\n          add\n          swap1\n          dup2\n          mstore\n          0x20\n          add\n          0x00\n          keccak256\n            /* \"ElectronicMedicalRecords.sol\":6791:6799  _patient */\n          dup3\n            /* \"ElectronicMedicalRecords.sol\":6763:6800  relatedPatien[_doctor].push(_patient) */\n          swap1\n          dup1\n          0x01\n          dup2\n          sload\n          add\n          dup1\n          dup3\n          sstore\n          dup1\n          swap2\n          pop\n          pop\n          0x01\n          swap1\n          sub\n          swap1\n          0x00\n          mstore\n          keccak256(0x00, 0x20)\n          add\n          0x00\n          swap1\n          swap2\n          swap1\n          swap2\n          swap1\n          swap2\n          0x0100\n          exp\n          dup2\n          sload\n          dup2\n          0xffffffffffffffffffffffffffffffffffffffff\n          mul\n          not\n          and\n          swap1\n          dup4\n          0xffffffffffffffffffffffffffffffffffffffff\n          and\n          mul\n          or\n          swap1\n          sstore\n          pop\n            /* \"ElectronicMedicalRecords.sol\":6659:6808  function addDoctorRelation(address _doctor, address _patient) public onlyDoctor (msg.sender) {... */\n          pop\n          pop\n          pop\n          jump\t// out\n            /* \"ElectronicMedicalRecords.sol\":6816:6970  function getDoctorRelations(address _doctor) public view onlyDoctor(msg.sender) returns(address[] memory) {... */\n        tag_16:\n            /* \"ElectronicMedicalRecords.sol\":6904:6920  address[] memory */\n          0x60\n            /* \"ElectronicMedicalRecords.sol\":6884:6894  msg.sender */\n          caller\n            /* \"ElectronicMedicalRecords.sol\":7034:7052  doctor_verificator */\n          0x02\n          0x00\n          swap1\n          sload\n          swap1\n          0x0100\n          exp\n          swap1\n          div\n          0xffffffffffffffffffffffffffffffffffffffff\n          and\n            /* \"ElectronicMedicalRecords.sol\":7034:7059  doctor_verificator.verify */\n          0xffffffffffffffffffffffffffffffffffffffff\n          and\n          0x63a9c3d7\n            /* \"ElectronicMedicalRecords.sol\":7060:7067  _doctor */\n          dup3\n            /* \"ElectronicMedicalRecords.sol\":7034:7068  doctor_verificator.verify(_doctor) */\n          mload(0x40)\n          dup3\n          0xffffffff\n          and\n          0xe0\n          shl\n          dup2\n          mstore\n          0x04\n          add\n          tag_32\n          swap2\n          swap1\n          tag_23\n          jump\t// in\n        tag_32:\n          0x20\n          mload(0x40)\n          dup1\n          dup4\n          sub\n          dup2\n          dup7\n          gas\n          staticcall\n          iszero\n          dup1\n          iszero\n          tag_34\n          jumpi\n          returndatasize\n          0x00\n          dup1\n          returndatacopy\n          revert(0x00, returndatasize)\n        tag_34:\n          pop\n          pop\n          pop\n          pop\n          mload(0x40)\n          returndatasize\n          not(0x1f)\n          0x1f\n          dup3\n          add\n          and\n          dup3\n          add\n          dup1\n          0x40\n          mstore\n          pop\n          dup2\n          add\n          swap1\n          tag_35\n          swap2\n          swap1\n          tag_27\n          jump\t// in\n        tag_35:\n            /* \"ElectronicMedicalRecords.sol\":7026:7069  require(doctor_verificator.verify(_doctor)) */\n          tag_36\n          jumpi\n          0x00\n          dup1\n          revert\n        tag_36:\n            /* \"ElectronicMedicalRecords.sol\":6940:6953  relatedPatien */\n          0x01\n            /* \"ElectronicMedicalRecords.sol\":6940:6962  relatedPatien[_doctor] */\n          0x00\n            /* \"ElectronicMedicalRecords.sol\":6954:6961  _doctor */\n          dup5\n            /* \"ElectronicMedicalRecords.sol\":6940:6962  relatedPatien[_doctor] */\n          0xffffffffffffffffffffffffffffffffffffffff\n          and\n          0xffffffffffffffffffffffffffffffffffffffff\n          and\n          dup2\n          mstore\n          0x20\n          add\n          swap1\n          dup2\n          mstore\n          0x20\n          add\n          0x00\n          keccak256\n            /* \"ElectronicMedicalRecords.sol\":6933:6962  return relatedPatien[_doctor] */\n          dup1\n          sload\n          dup1\n          0x20\n          mul\n          0x20\n          add\n          mload(0x40)\n          swap1\n          dup2\n          add\n          0x40\n          mstore\n          dup1\n          swap3\n          swap2\n          swap1\n          dup2\n          dup2\n          mstore\n          0x20\n          add\n          dup3\n          dup1\n          sload\n          dup1\n          iszero\n          tag_38\n          jumpi\n          0x20\n          mul\n          dup3\n          add\n          swap2\n          swap1\n          0x00\n          mstore\n          keccak256(0x00, 0x20)\n          swap1\n        tag_39:\n          dup2\n          0x00\n          swap1\n          sload\n          swap1\n          0x0100\n          exp\n          swap1\n          div\n          0xffffffffffffffffffffffffffffffffffffffff\n          and\n          0xffffffffffffffffffffffffffffffffffffffff\n          and\n          dup2\n          mstore\n          0x20\n          add\n          swap1\n          0x01\n          add\n          swap1\n          dup1\n          dup4\n          gt\n          tag_39\n          jumpi\n        tag_38:\n          pop\n          pop\n          pop\n          pop\n          pop\n          swap2\n          pop\n            /* \"ElectronicMedicalRecords.sol\":6816:6970  function getDoctorRelations(address _doctor) public view onlyDoctor(msg.sender) returns(address[] memory) {... */\n          pop\n          swap2\n          swap1\n          pop\n          jump\t// out\n            /* \"#utility.yul\":88:205   */\n        tag_41:\n            /* \"#utility.yul\":197:198   */\n          0x00\n            /* \"#utility.yul\":194:195   */\n          dup1\n            /* \"#utility.yul\":187:199   */\n          revert\n            /* \"#utility.yul\":334:460   */\n        tag_43:\n            /* \"#utility.yul\":371:378   */\n          0x00\n            /* \"#utility.yul\":411:453   */\n          0xffffffffffffffffffffffffffffffffffffffff\n            /* \"#utility.yul\":404:409   */\n          dup3\n            /* \"#utility.yul\":400:454   */\n          and\n            /* \"#utility.yul\":389:454   */\n          swap1\n          pop\n            /* \"#utility.yul\":334:460   */\n          swap2\n          swap1\n          pop\n          jump\t// out\n            /* \"#utility.yul\":466:562   */\n        tag_44:\n            /* \"#utility.yul\":503:510   */\n          0x00\n            /* \"#utility.yul\":532:556   */\n          tag_64\n            /* \"#utility.yul\":550:555   */\n          dup3\n            /* \"#utility.yul\":532:556   */\n          tag_43\n          jump\t// in\n        tag_64:\n            /* \"#utility.yul\":521:556   */\n          swap1\n          pop\n            /* \"#utility.yul\":466:562   */\n          swap2\n          swap1\n          pop\n          jump\t// out\n            /* \"#utility.yul\":568:690   */\n        tag_45:\n            /* \"#utility.yul\":641:665   */\n          tag_66\n            /* \"#utility.yul\":659:664   */\n          dup2\n            /* \"#utility.yul\":641:665   */\n          tag_44\n          jump\t// in\n        tag_66:\n            /* \"#utility.yul\":634:639   */\n          dup2\n            /* \"#utility.yul\":631:666   */\n          eq\n            /* \"#utility.yul\":621:684   */\n          tag_67\n          jumpi\n            /* \"#utility.yul\":680:681   */\n          0x00\n            /* \"#utility.yul\":677:678   */\n          dup1\n            /* \"#utility.yul\":670:682   */\n          revert\n            /* \"#utility.yul\":621:684   */\n        tag_67:\n            /* \"#utility.yul\":568:690   */\n          pop\n          jump\t// out\n            /* \"#utility.yul\":696:835   */\n        tag_46:\n            /* \"#utility.yul\":742:747   */\n          0x00\n            /* \"#utility.yul\":780:786   */\n          dup2\n            /* \"#utility.yul\":767:787   */\n          calldataload\n            /* \"#utility.yul\":758:787   */\n          swap1\n          pop\n            /* \"#utility.yul\":796:829   */\n          tag_69\n            /* \"#utility.yul\":823:828   */\n          dup2\n            /* \"#utility.yul\":796:829   */\n          tag_45\n          jump\t// in\n        tag_69:\n            /* \"#utility.yul\":696:835   */\n          swap3\n          swap2\n          pop\n          pop\n          jump\t// out\n            /* \"#utility.yul\":841:1170   */\n        tag_8:\n            /* \"#utility.yul\":900:906   */\n          0x00\n            /* \"#utility.yul\":949:951   */\n          0x20\n            /* \"#utility.yul\":937:946   */\n          dup3\n            /* \"#utility.yul\":928:935   */\n          dup5\n            /* \"#utility.yul\":924:947   */\n          sub\n            /* \"#utility.yul\":920:952   */\n          slt\n            /* \"#utility.yul\":917:1036   */\n          iszero\n          tag_71\n          jumpi\n            /* \"#utility.yul\":955:1034   */\n          tag_72\n          tag_41\n          jump\t// in\n        tag_72:\n            /* \"#utility.yul\":917:1036   */\n        tag_71:\n            /* \"#utility.yul\":1075:1076   */\n          0x00\n            /* \"#utility.yul\":1100:1153   */\n          tag_73\n            /* \"#utility.yul\":1145:1152   */\n          dup5\n            /* \"#utility.yul\":1136:1142   */\n          dup3\n            /* \"#utility.yul\":1125:1134   */\n          dup6\n            /* \"#utility.yul\":1121:1143   */\n          add\n            /* \"#utility.yul\":1100:1153   */\n          tag_46\n          jump\t// in\n        tag_73:\n            /* \"#utility.yul\":1090:1153   */\n          swap2\n          pop\n            /* \"#utility.yul\":1046:1163   */\n          pop\n            /* \"#utility.yul\":841:1170   */\n          swap3\n          swap2\n          pop\n          pop\n          jump\t// out\n            /* \"#utility.yul\":1176:1650   */\n        tag_12:\n            /* \"#utility.yul\":1244:1250   */\n          0x00\n            /* \"#utility.yul\":1252:1258   */\n          dup1\n            /* \"#utility.yul\":1301:1303   */\n          0x40\n            /* \"#utility.yul\":1289:1298   */\n          dup4\n            /* \"#utility.yul\":1280:1287   */\n          dup6\n            /* \"#utility.yul\":1276:1299   */\n          sub\n            /* \"#utility.yul\":1272:1304   */\n          slt\n            /* \"#utility.yul\":1269:1388   */\n          iszero\n          tag_75\n          jumpi\n            /* \"#utility.yul\":1307:1386   */\n          tag_76\n          tag_41\n          jump\t// in\n        tag_76:\n            /* \"#utility.yul\":1269:1388   */\n        tag_75:\n            /* \"#utility.yul\":1427:1428   */\n          0x00\n            /* \"#utility.yul\":1452:1505   */\n          tag_77\n            /* \"#utility.yul\":1497:1504   */\n          dup6\n            /* \"#utility.yul\":1488:1494   */\n          dup3\n            /* \"#utility.yul\":1477:1486   */\n          dup7\n            /* \"#utility.yul\":1473:1495   */\n          add\n            /* \"#utility.yul\":1452:1505   */\n          tag_46\n          jump\t// in\n        tag_77:\n            /* \"#utility.yul\":1442:1505   */\n          swap3\n          pop\n            /* \"#utility.yul\":1398:1515   */\n          pop\n            /* \"#utility.yul\":1554:1556   */\n          0x20\n            /* \"#utility.yul\":1580:1633   */\n          tag_78\n            /* \"#utility.yul\":1625:1632   */\n          dup6\n            /* \"#utility.yul\":1616:1622   */\n          dup3\n            /* \"#utility.yul\":1605:1614   */\n          dup7\n            /* \"#utility.yul\":1601:1623   */\n          add\n            /* \"#utility.yul\":1580:1633   */\n          tag_46\n          jump\t// in\n        tag_78:\n            /* \"#utility.yul\":1570:1633   */\n          swap2\n          pop\n            /* \"#utility.yul\":1525:1643   */\n          pop\n            /* \"#utility.yul\":1176:1650   */\n          swap3\n          pop\n          swap3\n          swap1\n          pop\n          jump\t// out\n            /* \"#utility.yul\":1656:1770   */\n        tag_47:\n            /* \"#utility.yul\":1723:1729   */\n          0x00\n            /* \"#utility.yul\":1757:1762   */\n          dup2\n            /* \"#utility.yul\":1751:1763   */\n          mload\n            /* \"#utility.yul\":1741:1763   */\n          swap1\n          pop\n            /* \"#utility.yul\":1656:1770   */\n          swap2\n          swap1\n          pop\n          jump\t// out\n            /* \"#utility.yul\":1776:1960   */\n        tag_48:\n            /* \"#utility.yul\":1875:1886   */\n          0x00\n            /* \"#utility.yul\":1909:1915   */\n          dup3\n            /* \"#utility.yul\":1904:1907   */\n          dup3\n            /* \"#utility.yul\":1897:1916   */\n          mstore\n            /* \"#utility.yul\":1949:1953   */\n          0x20\n            /* \"#utility.yul\":1944:1947   */\n          dup3\n            /* \"#utility.yul\":1940:1954   */\n          add\n            /* \"#utility.yul\":1925:1954   */\n          swap1\n          pop\n            /* \"#utility.yul\":1776:1960   */\n          swap3\n          swap2\n          pop\n          pop\n          jump\t// out\n            /* \"#utility.yul\":1966:2098   */\n        tag_49:\n            /* \"#utility.yul\":2033:2037   */\n          0x00\n            /* \"#utility.yul\":2056:2059   */\n          dup2\n            /* \"#utility.yul\":2048:2059   */\n          swap1\n          pop\n            /* \"#utility.yul\":2086:2090   */\n          0x20\n            /* \"#utility.yul\":2081:2084   */\n          dup3\n            /* \"#utility.yul\":2077:2091   */\n          add\n            /* \"#utility.yul\":2069:2091   */\n          swap1\n          pop\n            /* \"#utility.yul\":1966:2098   */\n          swap2\n          swap1\n          pop\n          jump\t// out\n            /* \"#utility.yul\":2104:2212   */\n        tag_50:\n            /* \"#utility.yul\":2181:2205   */\n          tag_83\n            /* \"#utility.yul\":2199:2204   */\n          dup2\n            /* \"#utility.yul\":2181:2205   */\n          tag_44\n          jump\t// in\n        tag_83:\n            /* \"#utility.yul\":2176:2179   */\n          dup3\n            /* \"#utility.yul\":2169:2206   */\n          mstore\n            /* \"#utility.yul\":2104:2212   */\n          pop\n          pop\n          jump\t// out\n            /* \"#utility.yul\":2218:2397   */\n        tag_51:\n            /* \"#utility.yul\":2287:2297   */\n          0x00\n            /* \"#utility.yul\":2308:2354   */\n          tag_85\n            /* \"#utility.yul\":2350:2353   */\n          dup4\n            /* \"#utility.yul\":2342:2348   */\n          dup4\n            /* \"#utility.yul\":2308:2354   */\n          tag_50\n          jump\t// in\n        tag_85:\n            /* \"#utility.yul\":2386:2390   */\n          0x20\n            /* \"#utility.yul\":2381:2384   */\n          dup4\n            /* \"#utility.yul\":2377:2391   */\n          add\n            /* \"#utility.yul\":2363:2391   */\n          swap1\n          pop\n            /* \"#utility.yul\":2218:2397   */\n          swap3\n          swap2\n          pop\n          pop\n          jump\t// out\n            /* \"#utility.yul\":2403:2516   */\n        tag_52:\n            /* \"#utility.yul\":2473:2477   */\n          0x00\n            /* \"#utility.yul\":2505:2509   */\n          0x20\n            /* \"#utility.yul\":2500:2503   */\n          dup3\n            /* \"#utility.yul\":2496:2510   */\n          add\n            /* \"#utility.yul\":2488:2510   */\n          swap1\n          pop\n            /* \"#utility.yul\":2403:2516   */\n          swap2\n          swap1\n          pop\n          jump\t// out\n            /* \"#utility.yul\":2552:3284   */\n        tag_53:\n            /* \"#utility.yul\":2671:2674   */\n          0x00\n            /* \"#utility.yul\":2700:2754   */\n          tag_88\n            /* \"#utility.yul\":2748:2753   */\n          dup3\n            /* \"#utility.yul\":2700:2754   */\n          tag_47\n          jump\t// in\n        tag_88:\n            /* \"#utility.yul\":2770:2856   */\n          tag_89\n            /* \"#utility.yul\":2849:2855   */\n          dup2\n            /* \"#utility.yul\":2844:2847   */\n          dup6\n            /* \"#utility.yul\":2770:2856   */\n          tag_48\n          jump\t// in\n        tag_89:\n            /* \"#utility.yul\":2763:2856   */\n          swap4\n          pop\n            /* \"#utility.yul\":2880:2936   */\n          tag_90\n            /* \"#utility.yul\":2930:2935   */\n          dup4\n            /* \"#utility.yul\":2880:2936   */\n          tag_49\n          jump\t// in\n        tag_90:\n            /* \"#utility.yul\":2959:2966   */\n          dup1\n            /* \"#utility.yul\":2990:2991   */\n          0x00\n            /* \"#utility.yul\":2975:3259   */\n        tag_91:\n            /* \"#utility.yul\":3000:3006   */\n          dup4\n            /* \"#utility.yul\":2997:2998   */\n          dup2\n            /* \"#utility.yul\":2994:3007   */\n          lt\n            /* \"#utility.yul\":2975:3259   */\n          iszero\n          tag_93\n          jumpi\n            /* \"#utility.yul\":3076:3082   */\n          dup2\n            /* \"#utility.yul\":3070:3083   */\n          mload\n            /* \"#utility.yul\":3103:3166   */\n          tag_94\n            /* \"#utility.yul\":3162:3165   */\n          dup9\n            /* \"#utility.yul\":3147:3160   */\n          dup3\n            /* \"#utility.yul\":3103:3166   */\n          tag_51\n          jump\t// in\n        tag_94:\n            /* \"#utility.yul\":3096:3166   */\n          swap8\n          pop\n            /* \"#utility.yul\":3189:3249   */\n          tag_95\n            /* \"#utility.yul\":3242:3248   */\n          dup4\n            /* \"#utility.yul\":3189:3249   */\n          tag_52\n          jump\t// in\n        tag_95:\n            /* \"#utility.yul\":3179:3249   */\n          swap3\n          pop\n            /* \"#utility.yul\":3035:3259   */\n          pop\n            /* \"#utility.yul\":3022:3023   */\n          0x01\n            /* \"#utility.yul\":3019:3020   */\n          dup2\n            /* \"#utility.yul\":3015:3024   */\n          add\n            /* \"#utility.yul\":3010:3024   */\n          swap1\n          pop\n            /* \"#utility.yul\":2975:3259   */\n          jump(tag_91)\n        tag_93:\n            /* \"#utility.yul\":2979:2993   */\n          pop\n            /* \"#utility.yul\":3275:3278   */\n          dup6\n            /* \"#utility.yul\":3268:3278   */\n          swap4\n          pop\n            /* \"#utility.yul\":2676:3284   */\n          pop\n          pop\n          pop\n            /* \"#utility.yul\":2552:3284   */\n          swap3\n          swap2\n          pop\n          pop\n          jump\t// out\n            /* \"#utility.yul\":3290:3663   */\n        tag_18:\n            /* \"#utility.yul\":3433:3437   */\n          0x00\n            /* \"#utility.yul\":3471:3473   */\n          0x20\n            /* \"#utility.yul\":3460:3469   */\n          dup3\n            /* \"#utility.yul\":3456:3474   */\n          add\n            /* \"#utility.yul\":3448:3474   */\n          swap1\n          pop\n            /* \"#utility.yul\":3520:3529   */\n          dup2\n            /* \"#utility.yul\":3514:3518   */\n          dup2\n            /* \"#utility.yul\":3510:3530   */\n          sub\n            /* \"#utility.yul\":3506:3507   */\n          0x00\n            /* \"#utility.yul\":3495:3504   */\n          dup4\n            /* \"#utility.yul\":3491:3508   */\n          add\n            /* \"#utility.yul\":3484:3531   */\n          mstore\n            /* \"#utility.yul\":3548:3656   */\n          tag_97\n            /* \"#utility.yul\":3651:3655   */\n          dup2\n            /* \"#utility.yul\":3642:3648   */\n          dup5\n            /* \"#utility.yul\":3548:3656   */\n          tag_53\n          jump\t// in\n        tag_97:\n            /* \"#utility.yul\":3540:3656   */\n          swap1\n          pop\n            /* \"#utility.yul\":3290:3663   */\n          swap3\n          swap2\n          pop\n          pop\n          jump\t// out\n            /* \"#utility.yul\":3669:3787   */\n        tag_54:\n            /* \"#utility.yul\":3756:3780   */\n          tag_99\n            /* \"#utility.yul\":3774:3779   */\n          dup2\n            /* \"#utility.yul\":3756:3780   */\n          tag_44\n          jump\t// in\n        tag_99:\n            /* \"#utility.yul\":3751:3754   */\n          dup3\n            /* \"#utility.yul\":3744:3781   */\n          mstore\n            /* \"#utility.yul\":3669:3787   */\n          pop\n          pop\n          jump\t// out\n            /* \"#utility.yul\":3793:4015   */\n        tag_23:\n            /* \"#utility.yul\":3886:3890   */\n          0x00\n            /* \"#utility.yul\":3924:3926   */\n          0x20\n            /* \"#utility.yul\":3913:3922   */\n          dup3\n            /* \"#utility.yul\":3909:3927   */\n          add\n            /* \"#utility.yul\":3901:3927   */\n          swap1\n          pop\n            /* \"#utility.yul\":3937:4008   */\n          tag_101\n            /* \"#utility.yul\":4005:4006   */\n          0x00\n            /* \"#utility.yul\":3994:4003   */\n          dup4\n            /* \"#utility.yul\":3990:4007   */\n          add\n            /* \"#utility.yul\":3981:3987   */\n          dup5\n            /* \"#utility.yul\":3937:4008   */\n          tag_54\n          jump\t// in\n        tag_101:\n            /* \"#utility.yul\":3793:4015   */\n          swap3\n          swap2\n          pop\n          pop\n          jump\t// out\n            /* \"#utility.yul\":4021:4111   */\n        tag_55:\n            /* \"#utility.yul\":4055:4062   */\n          0x00\n            /* \"#utility.yul\":4098:4103   */\n          dup2\n            /* \"#utility.yul\":4091:4104   */\n          iszero\n            /* \"#utility.yul\":4084:4105   */\n          iszero\n            /* \"#utility.yul\":4073:4105   */\n          swap1\n          pop\n            /* \"#utility.yul\":4021:4111   */\n          swap2\n          swap1\n          pop\n          jump\t// out\n            /* \"#utility.yul\":4117:4233   */\n        tag_56:\n            /* \"#utility.yul\":4187:4208   */\n          tag_104\n            /* \"#utility.yul\":4202:4207   */\n          dup2\n            /* \"#utility.yul\":4187:4208   */\n          tag_55\n          jump\t// in\n        tag_104:\n            /* \"#utility.yul\":4180:4185   */\n          dup2\n            /* \"#utility.yul\":4177:4209   */\n          eq\n            /* \"#utility.yul\":4167:4227   */\n          tag_105\n          jumpi\n            /* \"#utility.yul\":4223:4224   */\n          0x00\n            /* \"#utility.yul\":4220:4221   */\n          dup1\n            /* \"#utility.yul\":4213:4225   */\n          revert\n            /* \"#utility.yul\":4167:4227   */\n        tag_105:\n            /* \"#utility.yul\":4117:4233   */\n          pop\n          jump\t// out\n            /* \"#utility.yul\":4239:4376   */\n        tag_57:\n            /* \"#utility.yul\":4293:4298   */\n          0x00\n            /* \"#utility.yul\":4324:4330   */\n          dup2\n            /* \"#utility.yul\":4318:4331   */\n          mload\n            /* \"#utility.yul\":4309:4331   */\n          swap1\n          pop\n            /* \"#utility.yul\":4340:4370   */\n          tag_107\n            /* \"#utility.yul\":4364:4369   */\n          dup2\n            /* \"#utility.yul\":4340:4370   */\n          tag_56\n          jump\t// in\n        tag_107:\n            /* \"#utility.yul\":4239:4376   */\n          swap3\n          swap2\n          pop\n          pop\n          jump\t// out\n            /* \"#utility.yul\":4382:4727   */\n        tag_27:\n            /* \"#utility.yul\":4449:4455   */\n          0x00\n            /* \"#utility.yul\":4498:4500   */\n          0x20\n            /* \"#utility.yul\":4486:4495   */\n          dup3\n            /* \"#utility.yul\":4477:4484   */\n          dup5\n            /* \"#utility.yul\":4473:4496   */\n          sub\n            /* \"#utility.yul\":4469:4501   */\n          slt\n            /* \"#utility.yul\":4466:4585   */\n          iszero\n          tag_109\n          jumpi\n            /* \"#utility.yul\":4504:4583   */\n          tag_110\n          tag_41\n          jump\t// in\n        tag_110:\n            /* \"#utility.yul\":4466:4585   */\n        tag_109:\n            /* \"#utility.yul\":4624:4625   */\n          0x00\n            /* \"#utility.yul\":4649:4710   */\n          tag_111\n            /* \"#utility.yul\":4702:4709   */\n          dup5\n            /* \"#utility.yul\":4693:4699   */\n          dup3\n            /* \"#utility.yul\":4682:4691   */\n          dup6\n            /* \"#utility.yul\":4678:4700   */\n          add\n            /* \"#utility.yul\":4649:4710   */\n          tag_57\n          jump\t// in\n        tag_111:\n            /* \"#utility.yul\":4639:4710   */\n          swap2\n          pop\n            /* \"#utility.yul\":4595:4720   */\n          pop\n            /* \"#utility.yul\":4382:4727   */\n          swap3\n          swap2\n          pop\n          pop\n          jump\t// out\n\n        auxdata: 0xa2646970667358221220e50a3671559224b366fd6c52262acc989503d65758d672b3bca0864b114f315764736f6c63430008110033\n    }\n}\n","bytecode":{"linkReferences":{},"object":"60806040523480156200001157600080fd5b5033600160006101000a81548173ffffffffffffffffffffffffffffffffffffffff021916908373ffffffffffffffffffffffffffffffffffffffff160217905550600033604051620000649062000571565b620000709190620005ee565b604051809103906000f0801580156200008d573d6000803e3d6000fd5b5090506000604051620000a09062000666565b908152602001604051809103902060405180604001604052806040518060400160405280600781526020017f70617469656e740000000000000000000000000000000000000000000000000081525081526020018373ffffffffffffffffffffffffffffffffffffffff16815250908060018154018082558091505060019003906000526020600020906002020160009091909190915060008201518160000190816200014e9190620008f7565b5060208201518160010160006101000a81548173ffffffffffffffffffffffffffffffffffffffff021916908373ffffffffffffffffffffffffffffffffffffffff1602179055505050600033604051620001a9906200057f565b620001b59190620005ee565b604051809103906000f080158015620001d2573d6000803e3d6000fd5b5090506000604051620001e59062000666565b908152602001604051809103902060405180604001604052806040518060400160405280601281526020017f70617469656e745665726966696361746f72000000000000000000000000000081525081526020018373ffffffffffffffffffffffffffffffffffffffff1681525090806001815401808255809150506001900390600052602060002090600202016000909190919091506000820151816000019081620002939190620008f7565b5060208201518160010160006101000a81548173ffffffffffffffffffffffffffffffffffffffff021916908373ffffffffffffffffffffffffffffffffffffffff1602179055505050600033604051620002ee906200058d565b620002fa9190620005ee565b604051809103906000f08015801562000317573d6000803e3d6000fd5b50905060006040516200032a9062000666565b908152602001604051809103902060405180604001604052806040518060400160405280601181526020017f646f63746f725665726966696361746f7200000000000000000000000000000081525081526020018373ffffffffffffffffffffffffffffffffffffffff1681525090806001815401808255809150506001900390600052602060002090600202016000909190919091506000820151816000019081620003d89190620008f7565b5060208201518160010160006101000a81548173ffffffffffffffffffffffffffffffffffffffff021916908373ffffffffffffffffffffffffffffffffffffffff160217905550505060003360405162000433906200059b565b6200043f9190620005ee565b604051809103906000f0801580156200045c573d6000803e3d6000fd5b50905060006040516200046f9062000666565b908152602001604051809103902060405180604001604052806040518060400160405280600e81526020017f646f63746f7252656c6174696f6e00000000000000000000000000000000000081525081526020018373ffffffffffffffffffffffffffffffffffffffff16815250908060018154018082558091505060019003906000526020600020906002020160009091909190915060008201518160000190816200051d9190620008f7565b5060208201518160010160006101000a81548173ffffffffffffffffffffffffffffffffffffffff021916908373ffffffffffffffffffffffffffffffffffffffff160217905550505050505050620009de565b61154180620010f383390190565b61065d806200263483390190565b61065d8062002c9183390190565b61079580620032ee83390190565b600073ffffffffffffffffffffffffffffffffffffffff82169050919050565b6000620005d682620005a9565b9050919050565b620005e881620005c9565b82525050565b6000602082019050620006056000830184620005dd565b92915050565b600081905092915050565b7f70616e74656b0000000000000000000000000000000000000000000000000000600082015250565b60006200064e6006836200060b565b91506200065b8262000616565b600682019050919050565b600062000673826200063f565b9150819050919050565b600081519050919050565b7f4e487b7100000000000000000000000000000000000000000000000000000000600052604160045260246000fd5b7f4e487b7100000000000000000000000000000000000000000000000000000000600052602260045260246000fd5b60006002820490506001821680620006ff57607f821691505b602082108103620007155762000714620006b7565b5b50919050565b60008190508160005260206000209050919050565b60006020601f8301049050919050565b600082821b905092915050565b6000600883026200077f7fffffffffffffffffffffffffffffffffffffffffffffffffffffffffffffffff8262000740565b6200078b868362000740565b95508019841693508086168417925050509392505050565b6000819050919050565b6000819050919050565b6000620007d8620007d2620007cc84620007a3565b620007ad565b620007a3565b9050919050565b6000819050919050565b620007f483620007b7565b6200080c6200080382620007df565b8484546200074d565b825550505050565b600090565b6200082362000814565b62000830818484620007e9565b505050565b5b8181101562000858576200084c60008262000819565b60018101905062000836565b5050565b601f821115620008a75762000871816200071b565b6200087c8462000730565b810160208510156200088c578190505b620008a46200089b8562000730565b83018262000835565b50505b505050565b600082821c905092915050565b6000620008cc60001984600802620008ac565b1980831691505092915050565b6000620008e78383620008b9565b9150826002028217905092915050565b62000902826200067d565b67ffffffffffffffff8111156200091e576200091d62000688565b5b6200092a8254620006e6565b620009378282856200085c565b600060209050601f8311600181146200096f57600084156200095a578287015190505b620009668582620008d9565b865550620009d6565b601f1984166200097f866200071b565b60005b82811015620009a95784890151825560018201915060208501945060208101905062000982565b86831015620009c95784890151620009c5601f891682620008b9565b8355505b6001600288020188555050505b505050505050565b61070580620009ee6000396000f3fe608060405234801561001057600080fd5b50600436106100365760003560e01c8063c4fe354c1461003b578063f851a4401461006b575b600080fd5b610055600480360381019061005091906103c8565b610089565b60405161006291906105d0565b60405180910390f35b610073610248565b6040516100809190610601565b60405180910390f35b6060600160009054906101000a900473ffffffffffffffffffffffffffffffffffffffff1673ffffffffffffffffffffffffffffffffffffffff163373ffffffffffffffffffffffffffffffffffffffff16146100e557600080fd5b6000826040516100f59190610658565b9081526020016040518091039020805480602002602001604051908101604052809291908181526020016000905b8282101561023d57838290600052602060002090600202016040518060400160405290816000820180546101569061069e565b80601f01602080910402602001604051908101604052809291908181526020018280546101829061069e565b80156101cf5780601f106101a4576101008083540402835291602001916101cf565b820191906000526020600020905b8154815290600101906020018083116101b257829003601f168201915b505050505081526020016001820160009054906101000a900473ffffffffffffffffffffffffffffffffffffffff1673ffffffffffffffffffffffffffffffffffffffff1673ffffffffffffffffffffffffffffffffffffffff168152505081526020019060010190610123565b505050509050919050565b600160009054906101000a900473ffffffffffffffffffffffffffffffffffffffff1681565b6000604051905090565b600080fd5b600080fd5b600080fd5b600080fd5b6000601f19601f8301169050919050565b7f4e487b7100000000000000000000000000000000000000000000000000000000600052604160045260246000fd5b6102d58261028c565b810181811067ffffffffffffffff821117156102f4576102f361029d565b5b80604052505050565b600061030761026e565b905061031382826102cc565b919050565b600067ffffffffffffffff8211156103335761033261029d565b5b61033c8261028c565b9050602081019050919050565b82818337600083830152505050565b600061036b61036684610318565b6102fd565b90508281526020810184848401111561038757610386610287565b5b610392848285610349565b509392505050565b600082601f8301126103af576103ae610282565b5b81356103bf848260208601610358565b91505092915050565b6000602082840312156103de576103dd610278565b5b600082013567ffffffffffffffff8111156103fc576103fb61027d565b5b6104088482850161039a565b91505092915050565b600081519050919050565b600082825260208201905092915050565b6000819050602082019050919050565b600081519050919050565b600082825260208201905092915050565b60005b8381101561047757808201518184015260208101905061045c565b60008484015250505050565b600061048e8261043d565b6104988185610448565b93506104a8818560208601610459565b6104b18161028c565b840191505092915050565b600073ffffffffffffffffffffffffffffffffffffffff82169050919050565b60006104e7826104bc565b9050919050565b6104f7816104dc565b82525050565b6000604083016000830151848203600086015261051a8282610483565b915050602083015161052f60208601826104ee565b508091505092915050565b600061054683836104fd565b905092915050565b6000602082019050919050565b600061056682610411565b610570818561041c565b9350836020820285016105828561042d565b8060005b858110156105be578484038952815161059f858261053a565b94506105aa8361054e565b925060208a01995050600181019050610586565b50829750879550505050505092915050565b600060208201905081810360008301526105ea818461055b565b905092915050565b6105fb816104dc565b82525050565b600060208201905061061660008301846105f2565b92915050565b600081905092915050565b60006106328261043d565b61063c818561061c565b935061064c818560208601610459565b80840191505092915050565b60006106648284610627565b915081905092915050565b7f4e487b7100000000000000000000000000000000000000000000000000000000600052602260045260246000fd5b600060028204905060018216806106b657607f821691505b6020821081036106c9576106c861066f565b5b5091905056fea264697066735822122092dbe2f45afbc53fd3e930cfa7cc678f928dd82911e45aa6cb4c3bf994839d3a64736f6c6343000811003360806040523480156200001157600080fd5b5060405162001541380380620015418339818101604052810190620000379190620000e9565b80600160006101000a81548173ffffffffffffffffffffffffffffffffffffffff021916908373ffffffffffffffffffffffffffffffffffffffff160217905550506200011b565b600080fd5b600073ffffffffffffffffffffffffffffffffffffffff82169050919050565b6000620000b18262000084565b9050919050565b620000c381620000a4565b8114620000cf57600080fd5b50565b600081519050620000e381620000b8565b92915050565b6000602082840312156200010257620001016200007f565b5b60006200011284828501620000d2565b91505092915050565b611416806200012b6000396000f3fe608060405234801561001057600080fd5b50600436106100625760003560e01c80631107747e1461006757806326c01f7d1461008357806348e818521461009f57806352a6042d146100cf5780635db185c7146100eb5780637621df6f14610107575b600080fd5b610081600480360381019061007c9190610bb1565b610123565b005b61009d60048036038101906100989190610d5a565b610167565b005b6100b960048036038101906100b49190610bb1565b61042d565b6040516100c69190611028565b60405180910390f35b6100e960048036038101906100e49190610d5a565b61099a565b005b61010560048036038101906101009190610bb1565b610a5c565b005b610121600480360381019061011c9190610bb1565b610aa0565b005b80600260006101000a81548173ffffffffffffffffffffffffffffffffffffffff021916908373ffffffffffffffffffffffffffffffffffffffff16021790555050565b600260009054906101000a900473ffffffffffffffffffffffffffffffffffffffff1673ffffffffffffffffffffffffffffffffffffffff166363a9c3d7336040518263ffffffff1660e01b81526004016101c29190611059565b602060405180830381865afa1580156101df573d6000803e3d6000fd5b505050506040513d601f19601f8201168201806040525081019061020391906110ac565b61020c57600080fd5b60008060008a73ffffffffffffffffffffffffffffffffffffffff1673ffffffffffffffffffffffffffffffffffffffff1681526020019081526020016000209050888160000160006101000a81548173ffffffffffffffffffffffffffffffffffffffff021916908373ffffffffffffffffffffffffffffffffffffffff160217905550878160010190816102a291906112e5565b50868160020181905550858160030190816102bd91906112e5565b50848160040190816102cf91906112e5565b50838160050190816102e191906112e5565b50828160060190816102f391906112e5565b508181600701908161030591906112e5565b50600360009054906101000a900473ffffffffffffffffffffffffffffffffffffffff1673ffffffffffffffffffffffffffffffffffffffff16636d263ceb8a6040518263ffffffff1660e01b81526004016103619190611059565b600060405180830381600087803b15801561037b57600080fd5b505af115801561038f573d6000803e3d6000fd5b50505050600460009054906101000a900473ffffffffffffffffffffffffffffffffffffffff1673ffffffffffffffffffffffffffffffffffffffff16638bfc8c71338b6040518363ffffffff1660e01b81526004016103f09291906113b7565b600060405180830381600087803b15801561040a57600080fd5b505af115801561041e573d6000803e3d6000fd5b50505050505050505050505050565b610435610ae4565b600260009054906101000a900473ffffffffffffffffffffffffffffffffffffffff1673ffffffffffffffffffffffffffffffffffffffff166363a9c3d7336040518263ffffffff1660e01b81526004016104909190611059565b602060405180830381865afa1580156104ad573d6000803e3d6000fd5b505050506040513d601f19601f820116820180604052508101906104d191906110ac565b806105745750600360009054906101000a900473ffffffffffffffffffffffffffffffffffffffff1673ffffffffffffffffffffffffffffffffffffffff166363a9c3d7336040518263ffffffff1660e01b81526004016105329190611059565b602060405180830381865afa15801561054f573d6000803e3d6000fd5b505050506040513d601f19601f8201168201806040525081019061057391906110ac565b5b61057d57600080fd5b6000808373ffffffffffffffffffffffffffffffffffffffff1673ffffffffffffffffffffffffffffffffffffffff168152602001908152602001600020604051806101000160405290816000820160009054906101000a900473ffffffffffffffffffffffffffffffffffffffff1673ffffffffffffffffffffffffffffffffffffffff1673ffffffffffffffffffffffffffffffffffffffff16815260200160018201805461062d90611108565b80601f016020809104026020016040519081016040528092919081815260200182805461065990611108565b80156106a65780601f1061067b576101008083540402835291602001916106a6565b820191906000526020600020905b81548152906001019060200180831161068957829003601f168201915b50505050508152602001600282015481526020016003820180546106c990611108565b80601f01602080910402602001604051908101604052809291908181526020018280546106f590611108565b80156107425780601f1061071757610100808354040283529160200191610742565b820191906000526020600020905b81548152906001019060200180831161072557829003601f168201915b5050505050815260200160048201805461075b90611108565b80601f016020809104026020016040519081016040528092919081815260200182805461078790611108565b80156107d45780601f106107a9576101008083540402835291602001916107d4565b820191906000526020600020905b8154815290600101906020018083116107b757829003601f168201915b505050505081526020016005820180546107ed90611108565b80601f016020809104026020016040519081016040528092919081815260200182805461081990611108565b80156108665780601f1061083b57610100808354040283529160200191610866565b820191906000526020600020905b81548152906001019060200180831161084957829003601f168201915b5050505050815260200160068201805461087f90611108565b80601f01602080910402602001604051908101604052809291908181526020018280546108ab90611108565b80156108f85780601f106108cd576101008083540402835291602001916108f8565b820191906000526020600020905b8154815290600101906020018083116108db57829003601f168201915b5050505050815260200160078201805461091190611108565b80601f016020809104026020016040519081016040528092919081815260200182805461093d90611108565b801561098a5780601f1061095f5761010080835404028352916020019161098a565b820191906000526020600020905b81548152906001019060200180831161096d57829003601f168201915b5050505050815250509050919050565b60008060008a73ffffffffffffffffffffffffffffffffffffffff1673ffffffffffffffffffffffffffffffffffffffff1681526020019081526020016000209050878160010190816109ed91906112e5565b5086816002018190555085816003019081610a0891906112e5565b5084816004019081610a1a91906112e5565b5083816005019081610a2c91906112e5565b5082816006019081610a3e91906112e5565b5081816007019081610a5091906112e5565b50505050505050505050565b80600360006101000a81548173ffffffffffffffffffffffffffffffffffffffff021916908373ffffffffffffffffffffffffffffffffffffffff16021790555050565b80600460006101000a81548173ffffffffffffffffffffffffffffffffffffffff021916908373ffffffffffffffffffffffffffffffffffffffff16021790555050565b604051806101000160405280600073ffffffffffffffffffffffffffffffffffffffff168152602001606081526020016000815260200160608152602001606081526020016060815260200160608152602001606081525090565b6000604051905090565b600080fd5b600080fd5b600073ffffffffffffffffffffffffffffffffffffffff82169050919050565b6000610b7e82610b53565b9050919050565b610b8e81610b73565b8114610b9957600080fd5b50565b600081359050610bab81610b85565b92915050565b600060208284031215610bc757610bc6610b49565b5b6000610bd584828501610b9c565b91505092915050565b600080fd5b600080fd5b6000601f19601f8301169050919050565b7f4e487b7100000000000000000000000000000000000000000000000000000000600052604160045260246000fd5b610c3182610be8565b810181811067ffffffffffffffff82111715610c5057610c4f610bf9565b5b80604052505050565b6000610c63610b3f565b9050610c6f8282610c28565b919050565b600067ffffffffffffffff821115610c8f57610c8e610bf9565b5b610c9882610be8565b9050602081019050919050565b82818337600083830152505050565b6000610cc7610cc284610c74565b610c59565b905082815260208101848484011115610ce357610ce2610be3565b5b610cee848285610ca5565b509392505050565b600082601f830112610d0b57610d0a610bde565b5b8135610d1b848260208601610cb4565b91505092915050565b6000819050919050565b610d3781610d24565b8114610d4257600080fd5b50565b600081359050610d5481610d2e565b92915050565b600080600080600080600080610100898b031215610d7b57610d7a610b49565b5b6000610d898b828c01610b9c565b985050602089013567ffffffffffffffff811115610daa57610da9610b4e565b5b610db68b828c01610cf6565b9750506040610dc78b828c01610d45565b965050606089013567ffffffffffffffff811115610de857610de7610b4e565b5b610df48b828c01610cf6565b955050608089013567ffffffffffffffff811115610e1557610e14610b4e565b5b610e218b828c01610cf6565b94505060a089013567ffffffffffffffff811115610e4257610e41610b4e565b5b610e4e8b828c01610cf6565b93505060c089013567ffffffffffffffff811115610e6f57610e6e610b4e565b5b610e7b8b828c01610cf6565b92505060e089013567ffffffffffffffff811115610e9c57610e9b610b4e565b5b610ea88b828c01610cf6565b9150509295985092959890939650565b610ec181610b73565b82525050565b600081519050919050565b600082825260208201905092915050565b60005b83811015610f01578082015181840152602081019050610ee6565b60008484015250505050565b6000610f1882610ec7565b610f228185610ed2565b9350610f32818560208601610ee3565b610f3b81610be8565b840191505092915050565b610f4f81610d24565b82525050565b600061010083016000830151610f6e6000860182610eb8565b5060208301518482036020860152610f868282610f0d565b9150506040830151610f9b6040860182610f46565b5060608301518482036060860152610fb38282610f0d565b91505060808301518482036080860152610fcd8282610f0d565b91505060a083015184820360a0860152610fe78282610f0d565b91505060c083015184820360c08601526110018282610f0d565b91505060e083015184820360e086015261101b8282610f0d565b9150508091505092915050565b600060208201905081810360008301526110428184610f55565b905092915050565b61105381610b73565b82525050565b600060208201905061106e600083018461104a565b92915050565b60008115159050919050565b61108981611074565b811461109457600080fd5b50565b6000815190506110a681611080565b92915050565b6000602082840312156110c2576110c1610b49565b5b60006110d084828501611097565b91505092915050565b7f4e487b7100000000000000000000000000000000000000000000000000000000600052602260045260246000fd5b6000600282049050600182168061112057607f821691505b602082108103611133576111326110d9565b5b50919050565b60008190508160005260206000209050919050565b60006020601f8301049050919050565b600082821b905092915050565b60006008830261119b7fffffffffffffffffffffffffffffffffffffffffffffffffffffffffffffffff8261115e565b6111a5868361115e565b95508019841693508086168417925050509392505050565b6000819050919050565b60006111e26111dd6111d884610d24565b6111bd565b610d24565b9050919050565b6000819050919050565b6111fc836111c7565b611210611208826111e9565b84845461116b565b825550505050565b600090565b611225611218565b6112308184846111f3565b505050565b5b818110156112545761124960008261121d565b600181019050611236565b5050565b601f8211156112995761126a81611139565b6112738461114e565b81016020851015611282578190505b61129661128e8561114e565b830182611235565b50505b505050565b600082821c905092915050565b60006112bc6000198460080261129e565b1980831691505092915050565b60006112d583836112ab565b9150826002028217905092915050565b6112ee82610ec7565b67ffffffffffffffff81111561130757611306610bf9565b5b6113118254611108565b61131c828285611258565b600060209050601f83116001811461134f576000841561133d578287015190505b61134785826112c9565b8655506113af565b601f19841661135d86611139565b60005b8281101561138557848901518255600182019150602085019450602081019050611360565b868310156113a2578489015161139e601f8916826112ab565b8355505b6001600288020188555050505b505050505050565b60006040820190506113cc600083018561104a565b6113d9602083018461104a565b939250505056fea264697066735822122050ba126a425146d4968117b08a06b019bdb6e64b4dc0e42e6728cbef4f01e80264736f6c63430008110033608060405234801561001057600080fd5b5060405161065d38038061065d833981810160405281019061003291906100db565b806000806101000a81548173ffffffffffffffffffffffffffffffffffffffff021916908373ffffffffffffffffffffffffffffffffffffffff16021790555050610108565b600080fd5b600073ffffffffffffffffffffffffffffffffffffffff82169050919050565b60006100a88261007d565b9050919050565b6100b88161009d565b81146100c357600080fd5b50565b6000815190506100d5816100af565b92915050565b6000602082840312156100f1576100f0610078565b5b60006100ff848285016100c6565b91505092915050565b610546806101176000396000f3fe608060405234801561001057600080fd5b50600436106100415760003560e01c806318a231a91461004657806363a9c3d7146100645780636d263ceb14610094575b600080fd5b61004e6100b0565b60405161005b919061045a565b60405180910390f35b61007e600480360381019061007991906104ad565b610196565b60405161008b91906104f5565b60405180910390f35b6100ae60048036038101906100a991906104ad565b6101fd565b005b606060008054906101000a900473ffffffffffffffffffffffffffffffffffffffff1673ffffffffffffffffffffffffffffffffffffffff163373ffffffffffffffffffffffffffffffffffffffff161461010a57600080fd5b600180548060200260200160405190810160405280929190818152602001828054801561018c57602002820191906000526020600020905b8160009054906101000a900473ffffffffffffffffffffffffffffffffffffffff1673ffffffffffffffffffffffffffffffffffffffff1681526020019060010190808311610142575b5050505050905090565b6000600260008373ffffffffffffffffffffffffffffffffffffffff1673ffffffffffffffffffffffffffffffffffffffff16815260200190815260200160002060009054906101000a900460ff16156101f357600190506101f8565b600090505b919050565b60008054906101000a900473ffffffffffffffffffffffffffffffffffffffff1673ffffffffffffffffffffffffffffffffffffffff163373ffffffffffffffffffffffffffffffffffffffff161461025557600080fd5b600260008273ffffffffffffffffffffffffffffffffffffffff1673ffffffffffffffffffffffffffffffffffffffff16815260200190815260200160002060009054906101000a900460ff16156102ac57600080fd5b6001600260008373ffffffffffffffffffffffffffffffffffffffff1673ffffffffffffffffffffffffffffffffffffffff16815260200190815260200160002060006101000a81548160ff0219169083151502179055506001819080600181540180825580915050600190039060005260206000200160009091909190916101000a81548173ffffffffffffffffffffffffffffffffffffffff021916908373ffffffffffffffffffffffffffffffffffffffff16021790555050565b600081519050919050565b600082825260208201905092915050565b6000819050602082019050919050565b600073ffffffffffffffffffffffffffffffffffffffff82169050919050565b60006103c182610396565b9050919050565b6103d1816103b6565b82525050565b60006103e383836103c8565b60208301905092915050565b6000602082019050919050565b60006104078261036a565b6104118185610375565b935061041c83610386565b8060005b8381101561044d57815161043488826103d7565b975061043f836103ef565b925050600181019050610420565b5085935050505092915050565b6000602082019050818103600083015261047481846103fc565b905092915050565b600080fd5b61048a816103b6565b811461049557600080fd5b50565b6000813590506104a781610481565b92915050565b6000602082840312156104c3576104c261047c565b5b60006104d184828501610498565b91505092915050565b60008115159050919050565b6104ef816104da565b82525050565b600060208201905061050a60008301846104e6565b9291505056fea264697066735822122067bf6ac9c8a31b6e20db38ea7ce884f3a64f29fa9a4c3d3b4673f3cdb66b97eb64736f6c63430008110033608060405234801561001057600080fd5b5060405161065d38038061065d833981810160405281019061003291906100db565b806000806101000a81548173ffffffffffffffffffffffffffffffffffffffff021916908373ffffffffffffffffffffffffffffffffffffffff16021790555050610108565b600080fd5b600073ffffffffffffffffffffffffffffffffffffffff82169050919050565b60006100a88261007d565b9050919050565b6100b88161009d565b81146100c357600080fd5b50565b6000815190506100d5816100af565b92915050565b6000602082840312156100f1576100f0610078565b5b60006100ff848285016100c6565b91505092915050565b610546806101176000396000f3fe608060405234801561001057600080fd5b50600436106100415760003560e01c80634780468f1461004657806363a9c3d714610062578063f0d9509014610092575b600080fd5b610060600480360381019061005b91906103cd565b6100b0565b005b61007c600480360381019061007791906103cd565b61021d565b6040516100899190610415565b60405180910390f35b61009a610284565b6040516100a791906104ee565b60405180910390f35b60008054906101000a900473ffffffffffffffffffffffffffffffffffffffff1673ffffffffffffffffffffffffffffffffffffffff163373ffffffffffffffffffffffffffffffffffffffff161461010857600080fd5b600260008273ffffffffffffffffffffffffffffffffffffffff1673ffffffffffffffffffffffffffffffffffffffff16815260200190815260200160002060009054906101000a900460ff161561015f57600080fd5b6001600260008373ffffffffffffffffffffffffffffffffffffffff1673ffffffffffffffffffffffffffffffffffffffff16815260200190815260200160002060006101000a81548160ff0219169083151502179055506001819080600181540180825580915050600190039060005260206000200160009091909190916101000a81548173ffffffffffffffffffffffffffffffffffffffff021916908373ffffffffffffffffffffffffffffffffffffffff16021790555050565b6000600260008373ffffffffffffffffffffffffffffffffffffffff1673ffffffffffffffffffffffffffffffffffffffff16815260200190815260200160002060009054906101000a900460ff161561027a576001905061027f565b600090505b919050565b606060008054906101000a900473ffffffffffffffffffffffffffffffffffffffff1673ffffffffffffffffffffffffffffffffffffffff163373ffffffffffffffffffffffffffffffffffffffff16146102de57600080fd5b600180548060200260200160405190810160405280929190818152602001828054801561036057602002820191906000526020600020905b8160009054906101000a900473ffffffffffffffffffffffffffffffffffffffff1673ffffffffffffffffffffffffffffffffffffffff1681526020019060010190808311610316575b5050505050905090565b600080fd5b600073ffffffffffffffffffffffffffffffffffffffff82169050919050565b600061039a8261036f565b9050919050565b6103aa8161038f565b81146103b557600080fd5b50565b6000813590506103c7816103a1565b92915050565b6000602082840312156103e3576103e261036a565b5b60006103f1848285016103b8565b91505092915050565b60008115159050919050565b61040f816103fa565b82525050565b600060208201905061042a6000830184610406565b92915050565b600081519050919050565b600082825260208201905092915050565b6000819050602082019050919050565b6104658161038f565b82525050565b6000610477838361045c565b60208301905092915050565b6000602082019050919050565b600061049b82610430565b6104a5818561043b565b93506104b08361044c565b8060005b838110156104e15781516104c8888261046b565b97506104d383610483565b9250506001810190506104b4565b5085935050505092915050565b600060208201905081810360008301526105088184610490565b90509291505056fea264697066735822122025c2c3b46dc76eff0369a39ed6f530f2b2dc434b0bba782b89ace6299046b46564736f6c63430008110033608060405234801561001057600080fd5b50604051610795380380610795833981810160405281019061003291906100db565b806000806101000a81548173ffffffffffffffffffffffffffffffffffffffff021916908373ffffffffffffffffffffffffffffffffffffffff16021790555050610108565b600080fd5b600073ffffffffffffffffffffffffffffffffffffffff82169050919050565b60006100a88261007d565b9050919050565b6100b88161009d565b81146100c357600080fd5b50565b6000815190506100d5816100af565b92915050565b6000602082840312156100f1576100f0610078565b5b60006100ff848285016100c6565b91505092915050565b61067e806101176000396000f3fe608060405234801561001057600080fd5b50600436106100415760003560e01c80631107747e146100465780638bfc8c7114610062578063f40941d01461007e575b600080fd5b610060600480360381019061005b919061046c565b6100ae565b005b61007c60048036038101906100779190610499565b61014a565b005b6100986004803603810190610093919061046c565b610295565b6040516100a59190610597565b60405180910390f35b60008054906101000a900473ffffffffffffffffffffffffffffffffffffffff1673ffffffffffffffffffffffffffffffffffffffff163373ffffffffffffffffffffffffffffffffffffffff161461010657600080fd5b80600260006101000a81548173ffffffffffffffffffffffffffffffffffffffff021916908373ffffffffffffffffffffffffffffffffffffffff16021790555050565b33600260009054906101000a900473ffffffffffffffffffffffffffffffffffffffff1673ffffffffffffffffffffffffffffffffffffffff166363a9c3d7826040518263ffffffff1660e01b81526004016101a691906105c8565b602060405180830381865afa1580156101c3573d6000803e3d6000fd5b505050506040513d601f19601f820116820180604052508101906101e7919061061b565b6101f057600080fd5b600160008473ffffffffffffffffffffffffffffffffffffffff1673ffffffffffffffffffffffffffffffffffffffff168152602001908152602001600020829080600181540180825580915050600190039060005260206000200160009091909190916101000a81548173ffffffffffffffffffffffffffffffffffffffff021916908373ffffffffffffffffffffffffffffffffffffffff160217905550505050565b606033600260009054906101000a900473ffffffffffffffffffffffffffffffffffffffff1673ffffffffffffffffffffffffffffffffffffffff166363a9c3d7826040518263ffffffff1660e01b81526004016102f391906105c8565b602060405180830381865afa158015610310573d6000803e3d6000fd5b505050506040513d601f19601f82011682018060405250810190610334919061061b565b61033d57600080fd5b600160008473ffffffffffffffffffffffffffffffffffffffff1673ffffffffffffffffffffffffffffffffffffffff1681526020019081526020016000208054806020026020016040519081016040528092919081815260200182805480156103fc57602002820191906000526020600020905b8160009054906101000a900473ffffffffffffffffffffffffffffffffffffffff1673ffffffffffffffffffffffffffffffffffffffff16815260200190600101908083116103b2575b5050505050915050919050565b600080fd5b600073ffffffffffffffffffffffffffffffffffffffff82169050919050565b60006104398261040e565b9050919050565b6104498161042e565b811461045457600080fd5b50565b60008135905061046681610440565b92915050565b60006020828403121561048257610481610409565b5b600061049084828501610457565b91505092915050565b600080604083850312156104b0576104af610409565b5b60006104be85828601610457565b92505060206104cf85828601610457565b9150509250929050565b600081519050919050565b600082825260208201905092915050565b6000819050602082019050919050565b61050e8161042e565b82525050565b60006105208383610505565b60208301905092915050565b6000602082019050919050565b6000610544826104d9565b61054e81856104e4565b9350610559836104f5565b8060005b8381101561058a5781516105718882610514565b975061057c8361052c565b92505060018101905061055d565b5085935050505092915050565b600060208201905081810360008301526105b18184610539565b905092915050565b6105c28161042e565b82525050565b60006020820190506105dd60008301846105b9565b92915050565b60008115159050919050565b6105f8816105e3565b811461060357600080fd5b50565b600081519050610615816105ef565b92915050565b60006020828403121561063157610630610409565b5b600061063f84828501610606565b9150509291505056fea2646970667358221220e50a3671559224b366fd6c52262acc989503d65758d672b3bca0864b114f315764736f6c63430008110033","opcodes":"PUSH1 0x80 PUSH1 0x40 MSTORE CALLVALUE DUP1 ISZERO PUSH3 0x11 JUMPI PUSH1 0x0 DUP1 REVERT JUMPDEST POP CALLER PUSH1 0x1 PUSH1 0x0 PUSH2 0x100 EXP DUP2 SLOAD DUP2 PUSH20 0xFFFFFFFFFFFFFFFFFFFFFFFFFFFFFFFFFFFFFFFF MUL NOT AND SWAP1 DUP4 PUSH20 0xFFFFFFFFFFFFFFFFFFFFFFFFFFFFFFFFFFFFFFFF AND MUL OR SWAP1 SSTORE POP PUSH1 0x0 CALLER PUSH1 0x40 MLOAD PUSH3 0x64 SWAP1 PUSH3 0x571 JUMP JUMPDEST PUSH3 0x70 SWAP2 SWAP1 PUSH3 0x5EE JUMP JUMPDEST PUSH1 0x40 MLOAD DUP1 SWAP2 SUB SWAP1 PUSH1 0x0 CREATE DUP1 ISZERO DUP1 ISZERO PUSH3 0x8D JUMPI RETURNDATASIZE PUSH1 0x0 DUP1 RETURNDATACOPY RETURNDATASIZE PUSH1 0x0 REVERT JUMPDEST POP SWAP1 POP PUSH1 0x0 PUSH1 0x40 MLOAD PUSH3 0xA0 SWAP1 PUSH3 0x666 JUMP JUMPDEST SWAP1 DUP2 MSTORE PUSH1 0x20 ADD PUSH1 0x40 MLOAD DUP1 SWAP2 SUB SWAP1 KECCAK256 PUSH1 0x40 MLOAD DUP1 PUSH1 0x40 ADD PUSH1 0x40 MSTORE DUP1 PUSH1 0x40 MLOAD DUP1 PUSH1 0x40 ADD PUSH1 0x40 MSTORE DUP1 PUSH1 0x7 DUP2 MSTORE PUSH1 0x20 ADD PUSH32 0x70617469656E7400000000000000000000000000000000000000000000000000 DUP2 MSTORE POP DUP2 MSTORE PUSH1 0x20 ADD DUP4 PUSH20 0xFFFFFFFFFFFFFFFFFFFFFFFFFFFFFFFFFFFFFFFF AND DUP2 MSTORE POP SWAP1 DUP1 PUSH1 0x1 DUP2 SLOAD ADD DUP1 DUP3 SSTORE DUP1 SWAP2 POP POP PUSH1 0x1 SWAP1 SUB SWAP1 PUSH1 0x0 MSTORE PUSH1 0x20 PUSH1 0x0 KECCAK256 SWAP1 PUSH1 0x2 MUL ADD PUSH1 0x0 SWAP1 SWAP2 SWAP1 SWAP2 SWAP1 SWAP2 POP PUSH1 0x0 DUP3 ADD MLOAD DUP2 PUSH1 0x0 ADD SWAP1 DUP2 PUSH3 0x14E SWAP2 SWAP1 PUSH3 0x8F7 JUMP JUMPDEST POP PUSH1 0x20 DUP3 ADD MLOAD DUP2 PUSH1 0x1 ADD PUSH1 0x0 PUSH2 0x100 EXP DUP2 SLOAD DUP2 PUSH20 0xFFFFFFFFFFFFFFFFFFFFFFFFFFFFFFFFFFFFFFFF MUL NOT AND SWAP1 DUP4 PUSH20 0xFFFFFFFFFFFFFFFFFFFFFFFFFFFFFFFFFFFFFFFF AND MUL OR SWAP1 SSTORE POP POP POP PUSH1 0x0 CALLER PUSH1 0x40 MLOAD PUSH3 0x1A9 SWAP1 PUSH3 0x57F JUMP JUMPDEST PUSH3 0x1B5 SWAP2 SWAP1 PUSH3 0x5EE JUMP JUMPDEST PUSH1 0x40 MLOAD DUP1 SWAP2 SUB SWAP1 PUSH1 0x0 CREATE DUP1 ISZERO DUP1 ISZERO PUSH3 0x1D2 JUMPI RETURNDATASIZE PUSH1 0x0 DUP1 RETURNDATACOPY RETURNDATASIZE PUSH1 0x0 REVERT JUMPDEST POP SWAP1 POP PUSH1 0x0 PUSH1 0x40 MLOAD PUSH3 0x1E5 SWAP1 PUSH3 0x666 JUMP JUMPDEST SWAP1 DUP2 MSTORE PUSH1 0x20 ADD PUSH1 0x40 MLOAD DUP1 SWAP2 SUB SWAP1 KECCAK256 PUSH1 0x40 MLOAD DUP1 PUSH1 0x40 ADD PUSH1 0x40 MSTORE DUP1 PUSH1 0x40 MLOAD DUP1 PUSH1 0x40 ADD PUSH1 0x40 MSTORE DUP1 PUSH1 0x12 DUP2 MSTORE PUSH1 0x20 ADD PUSH32 0x70617469656E745665726966696361746F720000000000000000000000000000 DUP2 MSTORE POP DUP2 MSTORE PUSH1 0x20 ADD DUP4 PUSH20 0xFFFFFFFFFFFFFFFFFFFFFFFFFFFFFFFFFFFFFFFF AND DUP2 MSTORE POP SWAP1 DUP1 PUSH1 0x1 DUP2 SLOAD ADD DUP1 DUP3 SSTORE DUP1 SWAP2 POP POP PUSH1 0x1 SWAP1 SUB SWAP1 PUSH1 0x0 MSTORE PUSH1 0x20 PUSH1 0x0 KECCAK256 SWAP1 PUSH1 0x2 MUL ADD PUSH1 0x0 SWAP1 SWAP2 SWAP1 SWAP2 SWAP1 SWAP2 POP PUSH1 0x0 DUP3 ADD MLOAD DUP2 PUSH1 0x0 ADD SWAP1 DUP2 PUSH3 0x293 SWAP2 SWAP1 PUSH3 0x8F7 JUMP JUMPDEST POP PUSH1 0x20 DUP3 ADD MLOAD DUP2 PUSH1 0x1 ADD PUSH1 0x0 PUSH2 0x100 EXP DUP2 SLOAD DUP2 PUSH20 0xFFFFFFFFFFFFFFFFFFFFFFFFFFFFFFFFFFFFFFFF MUL NOT AND SWAP1 DUP4 PUSH20 0xFFFFFFFFFFFFFFFFFFFFFFFFFFFFFFFFFFFFFFFF AND MUL OR SWAP1 SSTORE POP POP POP PUSH1 0x0 CALLER PUSH1 0x40 MLOAD PUSH3 0x2EE SWAP1 PUSH3 0x58D JUMP JUMPDEST PUSH3 0x2FA SWAP2 SWAP1 PUSH3 0x5EE JUMP JUMPDEST PUSH1 0x40 MLOAD DUP1 SWAP2 SUB SWAP1 PUSH1 0x0 CREATE DUP1 ISZERO DUP1 ISZERO PUSH3 0x317 JUMPI RETURNDATASIZE PUSH1 0x0 DUP1 RETURNDATACOPY RETURNDATASIZE PUSH1 0x0 REVERT JUMPDEST POP SWAP1 POP PUSH1 0x0 PUSH1 0x40 MLOAD PUSH3 0x32A SWAP1 PUSH3 0x666 JUMP JUMPDEST SWAP1 DUP2 MSTORE PUSH1 0x20 ADD PUSH1 0x40 MLOAD DUP1 SWAP2 SUB SWAP1 KECCAK256 PUSH1 0x40 MLOAD DUP1 PUSH1 0x40 ADD PUSH1 0x40 MSTORE DUP1 PUSH1 0x40 MLOAD DUP1 PUSH1 0x40 ADD PUSH1 0x40 MSTORE DUP1 PUSH1 0x11 DUP2 MSTORE PUSH1 0x20 ADD PUSH32 0x646F63746F725665726966696361746F72000000000000000000000000000000 DUP2 MSTORE POP DUP2 MSTORE PUSH1 0x20 ADD DUP4 PUSH20 0xFFFFFFFFFFFFFFFFFFFFFFFFFFFFFFFFFFFFFFFF AND DUP2 MSTORE POP SWAP1 DUP1 PUSH1 0x1 DUP2 SLOAD ADD DUP1 DUP3 SSTORE DUP1 SWAP2 POP POP PUSH1 0x1 SWAP1 SUB SWAP1 PUSH1 0x0 MSTORE PUSH1 0x20 PUSH1 0x0 KECCAK256 SWAP1 PUSH1 0x2 MUL ADD PUSH1 0x0 SWAP1 SWAP2 SWAP1 SWAP2 SWAP1 SWAP2 POP PUSH1 0x0 DUP3 ADD MLOAD DUP2 PUSH1 0x0 ADD SWAP1 DUP2 PUSH3 0x3D8 SWAP2 SWAP1 PUSH3 0x8F7 JUMP JUMPDEST POP PUSH1 0x20 DUP3 ADD MLOAD DUP2 PUSH1 0x1 ADD PUSH1 0x0 PUSH2 0x100 EXP DUP2 SLOAD DUP2 PUSH20 0xFFFFFFFFFFFFFFFFFFFFFFFFFFFFFFFFFFFFFFFF MUL NOT AND SWAP1 DUP4 PUSH20 0xFFFFFFFFFFFFFFFFFFFFFFFFFFFFFFFFFFFFFFFF AND MUL OR SWAP1 SSTORE POP POP POP PUSH1 0x0 CALLER PUSH1 0x40 MLOAD PUSH3 0x433 SWAP1 PUSH3 0x59B JUMP JUMPDEST PUSH3 0x43F SWAP2 SWAP1 PUSH3 0x5EE JUMP JUMPDEST PUSH1 0x40 MLOAD DUP1 SWAP2 SUB SWAP1 PUSH1 0x0 CREATE DUP1 ISZERO DUP1 ISZERO PUSH3 0x45C JUMPI RETURNDATASIZE PUSH1 0x0 DUP1 RETURNDATACOPY RETURNDATASIZE PUSH1 0x0 REVERT JUMPDEST POP SWAP1 POP PUSH1 0x0 PUSH1 0x40 MLOAD PUSH3 0x46F SWAP1 PUSH3 0x666 JUMP JUMPDEST SWAP1 DUP2 MSTORE PUSH1 0x20 ADD PUSH1 0x40 MLOAD DUP1 SWAP2 SUB SWAP1 KECCAK256 PUSH1 0x40 MLOAD DUP1 PUSH1 0x40 ADD PUSH1 0x40 MSTORE DUP1 PUSH1 0x40 MLOAD DUP1 PUSH1 0x40 ADD PUSH1 0x40 MSTORE DUP1 PUSH1 0xE DUP2 MSTORE PUSH1 0x20 ADD PUSH32 0x646F63746F7252656C6174696F6E000000000000000000000000000000000000 DUP2 MSTORE POP DUP2 MSTORE PUSH1 0x20 ADD DUP4 PUSH20 0xFFFFFFFFFFFFFFFFFFFFFFFFFFFFFFFFFFFFFFFF AND DUP2 MSTORE POP SWAP1 DUP1 PUSH1 0x1 DUP2 SLOAD ADD DUP1 DUP3 SSTORE DUP1 SWAP2 POP POP PUSH1 0x1 SWAP1 SUB SWAP1 PUSH1 0x0 MSTORE PUSH1 0x20 PUSH1 0x0 KECCAK256 SWAP1 PUSH1 0x2 MUL ADD PUSH1 0x0 SWAP1 SWAP2 SWAP1 SWAP2 SWAP1 SWAP2 POP PUSH1 0x0 DUP3 ADD MLOAD DUP2 PUSH1 0x0 ADD SWAP1 DUP2 PUSH3 0x51D SWAP2 SWAP1 PUSH3 0x8F7 JUMP JUMPDEST POP PUSH1 0x20 DUP3 ADD MLOAD DUP2 PUSH1 0x1 ADD PUSH1 0x0 PUSH2 0x100 EXP DUP2 SLOAD DUP2 PUSH20 0xFFFFFFFFFFFFFFFFFFFFFFFFFFFFFFFFFFFFFFFF MUL NOT AND SWAP1 DUP4 PUSH20 0xFFFFFFFFFFFFFFFFFFFFFFFFFFFFFFFFFFFFFFFF AND MUL OR SWAP1 SSTORE POP POP POP POP POP POP POP PUSH3 0x9DE JUMP JUMPDEST PUSH2 0x1541 DUP1 PUSH3 0x10F3 DUP4 CODECOPY ADD SWAP1 JUMP JUMPDEST PUSH2 0x65D DUP1 PUSH3 0x2634 DUP4 CODECOPY ADD SWAP1 JUMP JUMPDEST PUSH2 0x65D DUP1 PUSH3 0x2C91 DUP4 CODECOPY ADD SWAP1 JUMP JUMPDEST PUSH2 0x795 DUP1 PUSH3 0x32EE DUP4 CODECOPY ADD SWAP1 JUMP JUMPDEST PUSH1 0x0 PUSH20 0xFFFFFFFFFFFFFFFFFFFFFFFFFFFFFFFFFFFFFFFF DUP3 AND SWAP1 POP SWAP2 SWAP1 POP JUMP JUMPDEST PUSH1 0x0 PUSH3 0x5D6 DUP3 PUSH3 0x5A9 JUMP JUMPDEST SWAP1 POP SWAP2 SWAP1 POP JUMP JUMPDEST PUSH3 0x5E8 DUP2 PUSH3 0x5C9 JUMP JUMPDEST DUP3 MSTORE POP POP JUMP JUMPDEST PUSH1 0x0 PUSH1 0x20 DUP3 ADD SWAP1 POP PUSH3 0x605 PUSH1 0x0 DUP4 ADD DUP5 PUSH3 0x5DD JUMP JUMPDEST SWAP3 SWAP2 POP POP JUMP JUMPDEST PUSH1 0x0 DUP2 SWAP1 POP SWAP3 SWAP2 POP POP JUMP JUMPDEST PUSH32 0x70616E74656B0000000000000000000000000000000000000000000000000000 PUSH1 0x0 DUP3 ADD MSTORE POP JUMP JUMPDEST PUSH1 0x0 PUSH3 0x64E PUSH1 0x6 DUP4 PUSH3 0x60B JUMP JUMPDEST SWAP2 POP PUSH3 0x65B DUP3 PUSH3 0x616 JUMP JUMPDEST PUSH1 0x6 DUP3 ADD SWAP1 POP SWAP2 SWAP1 POP JUMP JUMPDEST PUSH1 0x0 PUSH3 0x673 DUP3 PUSH3 0x63F JUMP JUMPDEST SWAP2 POP DUP2 SWAP1 POP SWAP2 SWAP1 POP JUMP JUMPDEST PUSH1 0x0 DUP2 MLOAD SWAP1 POP SWAP2 SWAP1 POP JUMP JUMPDEST PUSH32 0x4E487B7100000000000000000000000000000000000000000000000000000000 PUSH1 0x0 MSTORE PUSH1 0x41 PUSH1 0x4 MSTORE PUSH1 0x24 PUSH1 0x0 REVERT JUMPDEST PUSH32 0x4E487B7100000000000000000000000000000000000000000000000000000000 PUSH1 0x0 MSTORE PUSH1 0x22 PUSH1 0x4 MSTORE PUSH1 0x24 PUSH1 0x0 REVERT JUMPDEST PUSH1 0x0 PUSH1 0x2 DUP3 DIV SWAP1 POP PUSH1 0x1 DUP3 AND DUP1 PUSH3 0x6FF JUMPI PUSH1 0x7F DUP3 AND SWAP2 POP JUMPDEST PUSH1 0x20 DUP3 LT DUP2 SUB PUSH3 0x715 JUMPI PUSH3 0x714 PUSH3 0x6B7 JUMP JUMPDEST JUMPDEST POP SWAP2 SWAP1 POP JUMP JUMPDEST PUSH1 0x0 DUP2 SWAP1 POP DUP2 PUSH1 0x0 MSTORE PUSH1 0x20 PUSH1 0x0 KECCAK256 SWAP1 POP SWAP2 SWAP1 POP JUMP JUMPDEST PUSH1 0x0 PUSH1 0x20 PUSH1 0x1F DUP4 ADD DIV SWAP1 POP SWAP2 SWAP1 POP JUMP JUMPDEST PUSH1 0x0 DUP3 DUP3 SHL SWAP1 POP SWAP3 SWAP2 POP POP JUMP JUMPDEST PUSH1 0x0 PUSH1 0x8 DUP4 MUL PUSH3 0x77F PUSH32 0xFFFFFFFFFFFFFFFFFFFFFFFFFFFFFFFFFFFFFFFFFFFFFFFFFFFFFFFFFFFFFFFF DUP3 PUSH3 0x740 JUMP JUMPDEST PUSH3 0x78B DUP7 DUP4 PUSH3 0x740 JUMP JUMPDEST SWAP6 POP DUP1 NOT DUP5 AND SWAP4 POP DUP1 DUP7 AND DUP5 OR SWAP3 POP POP POP SWAP4 SWAP3 POP POP POP JUMP JUMPDEST PUSH1 0x0 DUP2 SWAP1 POP SWAP2 SWAP1 POP JUMP JUMPDEST PUSH1 0x0 DUP2 SWAP1 POP SWAP2 SWAP1 POP JUMP JUMPDEST PUSH1 0x0 PUSH3 0x7D8 PUSH3 0x7D2 PUSH3 0x7CC DUP5 PUSH3 0x7A3 JUMP JUMPDEST PUSH3 0x7AD JUMP JUMPDEST PUSH3 0x7A3 JUMP JUMPDEST SWAP1 POP SWAP2 SWAP1 POP JUMP JUMPDEST PUSH1 0x0 DUP2 SWAP1 POP SWAP2 SWAP1 POP JUMP JUMPDEST PUSH3 0x7F4 DUP4 PUSH3 0x7B7 JUMP JUMPDEST PUSH3 0x80C PUSH3 0x803 DUP3 PUSH3 0x7DF JUMP JUMPDEST DUP5 DUP5 SLOAD PUSH3 0x74D JUMP JUMPDEST DUP3 SSTORE POP POP POP POP JUMP JUMPDEST PUSH1 0x0 SWAP1 JUMP JUMPDEST PUSH3 0x823 PUSH3 0x814 JUMP JUMPDEST PUSH3 0x830 DUP2 DUP5 DUP5 PUSH3 0x7E9 JUMP JUMPDEST POP POP POP JUMP JUMPDEST JUMPDEST DUP2 DUP2 LT ISZERO PUSH3 0x858 JUMPI PUSH3 0x84C PUSH1 0x0 DUP3 PUSH3 0x819 JUMP JUMPDEST PUSH1 0x1 DUP2 ADD SWAP1 POP PUSH3 0x836 JUMP JUMPDEST POP POP JUMP JUMPDEST PUSH1 0x1F DUP3 GT ISZERO PUSH3 0x8A7 JUMPI PUSH3 0x871 DUP2 PUSH3 0x71B JUMP JUMPDEST PUSH3 0x87C DUP5 PUSH3 0x730 JUMP JUMPDEST DUP2 ADD PUSH1 0x20 DUP6 LT ISZERO PUSH3 0x88C JUMPI DUP2 SWAP1 POP JUMPDEST PUSH3 0x8A4 PUSH3 0x89B DUP6 PUSH3 0x730 JUMP JUMPDEST DUP4 ADD DUP3 PUSH3 0x835 JUMP JUMPDEST POP POP JUMPDEST POP POP POP JUMP JUMPDEST PUSH1 0x0 DUP3 DUP3 SHR SWAP1 POP SWAP3 SWAP2 POP POP JUMP JUMPDEST PUSH1 0x0 PUSH3 0x8CC PUSH1 0x0 NOT DUP5 PUSH1 0x8 MUL PUSH3 0x8AC JUMP JUMPDEST NOT DUP1 DUP4 AND SWAP2 POP POP SWAP3 SWAP2 POP POP JUMP JUMPDEST PUSH1 0x0 PUSH3 0x8E7 DUP4 DUP4 PUSH3 0x8B9 JUMP JUMPDEST SWAP2 POP DUP3 PUSH1 0x2 MUL DUP3 OR SWAP1 POP SWAP3 SWAP2 POP POP JUMP JUMPDEST PUSH3 0x902 DUP3 PUSH3 0x67D JUMP JUMPDEST PUSH8 0xFFFFFFFFFFFFFFFF DUP2 GT ISZERO PUSH3 0x91E JUMPI PUSH3 0x91D PUSH3 0x688 JUMP JUMPDEST JUMPDEST PUSH3 0x92A DUP3 SLOAD PUSH3 0x6E6 JUMP JUMPDEST PUSH3 0x937 DUP3 DUP3 DUP6 PUSH3 0x85C JUMP JUMPDEST PUSH1 0x0 PUSH1 0x20 SWAP1 POP PUSH1 0x1F DUP4 GT PUSH1 0x1 DUP2 EQ PUSH3 0x96F JUMPI PUSH1 0x0 DUP5 ISZERO PUSH3 0x95A JUMPI DUP3 DUP8 ADD MLOAD SWAP1 POP JUMPDEST PUSH3 0x966 DUP6 DUP3 PUSH3 0x8D9 JUMP JUMPDEST DUP7 SSTORE POP PUSH3 0x9D6 JUMP JUMPDEST PUSH1 0x1F NOT DUP5 AND PUSH3 0x97F DUP7 PUSH3 0x71B JUMP JUMPDEST PUSH1 0x0 JUMPDEST DUP3 DUP2 LT ISZERO PUSH3 0x9A9 JUMPI DUP5 DUP10 ADD MLOAD DUP3 SSTORE PUSH1 0x1 DUP3 ADD SWAP2 POP PUSH1 0x20 DUP6 ADD SWAP5 POP PUSH1 0x20 DUP2 ADD SWAP1 POP PUSH3 0x982 JUMP JUMPDEST DUP7 DUP4 LT ISZERO PUSH3 0x9C9 JUMPI DUP5 DUP10 ADD MLOAD PUSH3 0x9C5 PUSH1 0x1F DUP10 AND DUP3 PUSH3 0x8B9 JUMP JUMPDEST DUP4 SSTORE POP JUMPDEST PUSH1 0x1 PUSH1 0x2 DUP9 MUL ADD DUP9 SSTORE POP POP POP JUMPDEST POP POP POP POP POP POP JUMP JUMPDEST PUSH2 0x705 DUP1 PUSH3 0x9EE PUSH1 0x0 CODECOPY PUSH1 0x0 RETURN INVALID PUSH1 0x80 PUSH1 0x40 MSTORE CALLVALUE DUP1 ISZERO PUSH2 0x10 JUMPI PUSH1 0x0 DUP1 REVERT JUMPDEST POP PUSH1 0x4 CALLDATASIZE LT PUSH2 0x36 JUMPI PUSH1 0x0 CALLDATALOAD PUSH1 0xE0 SHR DUP1 PUSH4 0xC4FE354C EQ PUSH2 0x3B JUMPI DUP1 PUSH4 0xF851A440 EQ PUSH2 0x6B JUMPI JUMPDEST PUSH1 0x0 DUP1 REVERT JUMPDEST PUSH2 0x55 PUSH1 0x4 DUP1 CALLDATASIZE SUB DUP2 ADD SWAP1 PUSH2 0x50 SWAP2 SWAP1 PUSH2 0x3C8 JUMP JUMPDEST PUSH2 0x89 JUMP JUMPDEST PUSH1 0x40 MLOAD PUSH2 0x62 SWAP2 SWAP1 PUSH2 0x5D0 JUMP JUMPDEST PUSH1 0x40 MLOAD DUP1 SWAP2 SUB SWAP1 RETURN JUMPDEST PUSH2 0x73 PUSH2 0x248 JUMP JUMPDEST PUSH1 0x40 MLOAD PUSH2 0x80 SWAP2 SWAP1 PUSH2 0x601 JUMP JUMPDEST PUSH1 0x40 MLOAD DUP1 SWAP2 SUB SWAP1 RETURN JUMPDEST PUSH1 0x60 PUSH1 0x1 PUSH1 0x0 SWAP1 SLOAD SWAP1 PUSH2 0x100 EXP SWAP1 DIV PUSH20 0xFFFFFFFFFFFFFFFFFFFFFFFFFFFFFFFFFFFFFFFF AND PUSH20 0xFFFFFFFFFFFFFFFFFFFFFFFFFFFFFFFFFFFFFFFF AND CALLER PUSH20 0xFFFFFFFFFFFFFFFFFFFFFFFFFFFFFFFFFFFFFFFF AND EQ PUSH2 0xE5 JUMPI PUSH1 0x0 DUP1 REVERT JUMPDEST PUSH1 0x0 DUP3 PUSH1 0x40 MLOAD PUSH2 0xF5 SWAP2 SWAP1 PUSH2 0x658 JUMP JUMPDEST SWAP1 DUP2 MSTORE PUSH1 0x20 ADD PUSH1 0x40 MLOAD DUP1 SWAP2 SUB SWAP1 KECCAK256 DUP1 SLOAD DUP1 PUSH1 0x20 MUL PUSH1 0x20 ADD PUSH1 0x40 MLOAD SWAP1 DUP2 ADD PUSH1 0x40 MSTORE DUP1 SWAP3 SWAP2 SWAP1 DUP2 DUP2 MSTORE PUSH1 0x20 ADD PUSH1 0x0 SWAP1 JUMPDEST DUP3 DUP3 LT ISZERO PUSH2 0x23D JUMPI DUP4 DUP3 SWAP1 PUSH1 0x0 MSTORE PUSH1 0x20 PUSH1 0x0 KECCAK256 SWAP1 PUSH1 0x2 MUL ADD PUSH1 0x40 MLOAD DUP1 PUSH1 0x40 ADD PUSH1 0x40 MSTORE SWAP1 DUP2 PUSH1 0x0 DUP3 ADD DUP1 SLOAD PUSH2 0x156 SWAP1 PUSH2 0x69E JUMP JUMPDEST DUP1 PUSH1 0x1F ADD PUSH1 0x20 DUP1 SWAP2 DIV MUL PUSH1 0x20 ADD PUSH1 0x40 MLOAD SWAP1 DUP2 ADD PUSH1 0x40 MSTORE DUP1 SWAP3 SWAP2 SWAP1 DUP2 DUP2 MSTORE PUSH1 0x20 ADD DUP3 DUP1 SLOAD PUSH2 0x182 SWAP1 PUSH2 0x69E JUMP JUMPDEST DUP1 ISZERO PUSH2 0x1CF JUMPI DUP1 PUSH1 0x1F LT PUSH2 0x1A4 JUMPI PUSH2 0x100 DUP1 DUP4 SLOAD DIV MUL DUP4 MSTORE SWAP2 PUSH1 0x20 ADD SWAP2 PUSH2 0x1CF JUMP JUMPDEST DUP3 ADD SWAP2 SWAP1 PUSH1 0x0 MSTORE PUSH1 0x20 PUSH1 0x0 KECCAK256 SWAP1 JUMPDEST DUP2 SLOAD DUP2 MSTORE SWAP1 PUSH1 0x1 ADD SWAP1 PUSH1 0x20 ADD DUP1 DUP4 GT PUSH2 0x1B2 JUMPI DUP3 SWAP1 SUB PUSH1 0x1F AND DUP3 ADD SWAP2 JUMPDEST POP POP POP POP POP DUP2 MSTORE PUSH1 0x20 ADD PUSH1 0x1 DUP3 ADD PUSH1 0x0 SWAP1 SLOAD SWAP1 PUSH2 0x100 EXP SWAP1 DIV PUSH20 0xFFFFFFFFFFFFFFFFFFFFFFFFFFFFFFFFFFFFFFFF AND PUSH20 0xFFFFFFFFFFFFFFFFFFFFFFFFFFFFFFFFFFFFFFFF AND PUSH20 0xFFFFFFFFFFFFFFFFFFFFFFFFFFFFFFFFFFFFFFFF AND DUP2 MSTORE POP POP DUP2 MSTORE PUSH1 0x20 ADD SWAP1 PUSH1 0x1 ADD SWAP1 PUSH2 0x123 JUMP JUMPDEST POP POP POP POP SWAP1 POP SWAP2 SWAP1 POP JUMP JUMPDEST PUSH1 0x1 PUSH1 0x0 SWAP1 SLOAD SWAP1 PUSH2 0x100 EXP SWAP1 DIV PUSH20 0xFFFFFFFFFFFFFFFFFFFFFFFFFFFFFFFFFFFFFFFF AND DUP2 JUMP JUMPDEST PUSH1 0x0 PUSH1 0x40 MLOAD SWAP1 POP SWAP1 JUMP JUMPDEST PUSH1 0x0 DUP1 REVERT JUMPDEST PUSH1 0x0 DUP1 REVERT JUMPDEST PUSH1 0x0 DUP1 REVERT JUMPDEST PUSH1 0x0 DUP1 REVERT JUMPDEST PUSH1 0x0 PUSH1 0x1F NOT PUSH1 0x1F DUP4 ADD AND SWAP1 POP SWAP2 SWAP1 POP JUMP JUMPDEST PUSH32 0x4E487B7100000000000000000000000000000000000000000000000000000000 PUSH1 0x0 MSTORE PUSH1 0x41 PUSH1 0x4 MSTORE PUSH1 0x24 PUSH1 0x0 REVERT JUMPDEST PUSH2 0x2D5 DUP3 PUSH2 0x28C JUMP JUMPDEST DUP2 ADD DUP2 DUP2 LT PUSH8 0xFFFFFFFFFFFFFFFF DUP3 GT OR ISZERO PUSH2 0x2F4 JUMPI PUSH2 0x2F3 PUSH2 0x29D JUMP JUMPDEST JUMPDEST DUP1 PUSH1 0x40 MSTORE POP POP POP JUMP JUMPDEST PUSH1 0x0 PUSH2 0x307 PUSH2 0x26E JUMP JUMPDEST SWAP1 POP PUSH2 0x313 DUP3 DUP3 PUSH2 0x2CC JUMP JUMPDEST SWAP2 SWAP1 POP JUMP JUMPDEST PUSH1 0x0 PUSH8 0xFFFFFFFFFFFFFFFF DUP3 GT ISZERO PUSH2 0x333 JUMPI PUSH2 0x332 PUSH2 0x29D JUMP JUMPDEST JUMPDEST PUSH2 0x33C DUP3 PUSH2 0x28C JUMP JUMPDEST SWAP1 POP PUSH1 0x20 DUP2 ADD SWAP1 POP SWAP2 SWAP1 POP JUMP JUMPDEST DUP3 DUP2 DUP4 CALLDATACOPY PUSH1 0x0 DUP4 DUP4 ADD MSTORE POP POP POP JUMP JUMPDEST PUSH1 0x0 PUSH2 0x36B PUSH2 0x366 DUP5 PUSH2 0x318 JUMP JUMPDEST PUSH2 0x2FD JUMP JUMPDEST SWAP1 POP DUP3 DUP2 MSTORE PUSH1 0x20 DUP2 ADD DUP5 DUP5 DUP5 ADD GT ISZERO PUSH2 0x387 JUMPI PUSH2 0x386 PUSH2 0x287 JUMP JUMPDEST JUMPDEST PUSH2 0x392 DUP5 DUP3 DUP6 PUSH2 0x349 JUMP JUMPDEST POP SWAP4 SWAP3 POP POP POP JUMP JUMPDEST PUSH1 0x0 DUP3 PUSH1 0x1F DUP4 ADD SLT PUSH2 0x3AF JUMPI PUSH2 0x3AE PUSH2 0x282 JUMP JUMPDEST JUMPDEST DUP2 CALLDATALOAD PUSH2 0x3BF DUP5 DUP3 PUSH1 0x20 DUP7 ADD PUSH2 0x358 JUMP JUMPDEST SWAP2 POP POP SWAP3 SWAP2 POP POP JUMP JUMPDEST PUSH1 0x0 PUSH1 0x20 DUP3 DUP5 SUB SLT ISZERO PUSH2 0x3DE JUMPI PUSH2 0x3DD PUSH2 0x278 JUMP JUMPDEST JUMPDEST PUSH1 0x0 DUP3 ADD CALLDATALOAD PUSH8 0xFFFFFFFFFFFFFFFF DUP2 GT ISZERO PUSH2 0x3FC JUMPI PUSH2 0x3FB PUSH2 0x27D JUMP JUMPDEST JUMPDEST PUSH2 0x408 DUP5 DUP3 DUP6 ADD PUSH2 0x39A JUMP JUMPDEST SWAP2 POP POP SWAP3 SWAP2 POP POP JUMP JUMPDEST PUSH1 0x0 DUP2 MLOAD SWAP1 POP SWAP2 SWAP1 POP JUMP JUMPDEST PUSH1 0x0 DUP3 DUP3 MSTORE PUSH1 0x20 DUP3 ADD SWAP1 POP SWAP3 SWAP2 POP POP JUMP JUMPDEST PUSH1 0x0 DUP2 SWAP1 POP PUSH1 0x20 DUP3 ADD SWAP1 POP SWAP2 SWAP1 POP JUMP JUMPDEST PUSH1 0x0 DUP2 MLOAD SWAP1 POP SWAP2 SWAP1 POP JUMP JUMPDEST PUSH1 0x0 DUP3 DUP3 MSTORE PUSH1 0x20 DUP3 ADD SWAP1 POP SWAP3 SWAP2 POP POP JUMP JUMPDEST PUSH1 0x0 JUMPDEST DUP4 DUP2 LT ISZERO PUSH2 0x477 JUMPI DUP1 DUP3 ADD MLOAD DUP2 DUP5 ADD MSTORE PUSH1 0x20 DUP2 ADD SWAP1 POP PUSH2 0x45C JUMP JUMPDEST PUSH1 0x0 DUP5 DUP5 ADD MSTORE POP POP POP POP JUMP JUMPDEST PUSH1 0x0 PUSH2 0x48E DUP3 PUSH2 0x43D JUMP JUMPDEST PUSH2 0x498 DUP2 DUP6 PUSH2 0x448 JUMP JUMPDEST SWAP4 POP PUSH2 0x4A8 DUP2 DUP6 PUSH1 0x20 DUP7 ADD PUSH2 0x459 JUMP JUMPDEST PUSH2 0x4B1 DUP2 PUSH2 0x28C JUMP JUMPDEST DUP5 ADD SWAP2 POP POP SWAP3 SWAP2 POP POP JUMP JUMPDEST PUSH1 0x0 PUSH20 0xFFFFFFFFFFFFFFFFFFFFFFFFFFFFFFFFFFFFFFFF DUP3 AND SWAP1 POP SWAP2 SWAP1 POP JUMP JUMPDEST PUSH1 0x0 PUSH2 0x4E7 DUP3 PUSH2 0x4BC JUMP JUMPDEST SWAP1 POP SWAP2 SWAP1 POP JUMP JUMPDEST PUSH2 0x4F7 DUP2 PUSH2 0x4DC JUMP JUMPDEST DUP3 MSTORE POP POP JUMP JUMPDEST PUSH1 0x0 PUSH1 0x40 DUP4 ADD PUSH1 0x0 DUP4 ADD MLOAD DUP5 DUP3 SUB PUSH1 0x0 DUP7 ADD MSTORE PUSH2 0x51A DUP3 DUP3 PUSH2 0x483 JUMP JUMPDEST SWAP2 POP POP PUSH1 0x20 DUP4 ADD MLOAD PUSH2 0x52F PUSH1 0x20 DUP7 ADD DUP3 PUSH2 0x4EE JUMP JUMPDEST POP DUP1 SWAP2 POP POP SWAP3 SWAP2 POP POP JUMP JUMPDEST PUSH1 0x0 PUSH2 0x546 DUP4 DUP4 PUSH2 0x4FD JUMP JUMPDEST SWAP1 POP SWAP3 SWAP2 POP POP JUMP JUMPDEST PUSH1 0x0 PUSH1 0x20 DUP3 ADD SWAP1 POP SWAP2 SWAP1 POP JUMP JUMPDEST PUSH1 0x0 PUSH2 0x566 DUP3 PUSH2 0x411 JUMP JUMPDEST PUSH2 0x570 DUP2 DUP6 PUSH2 0x41C JUMP JUMPDEST SWAP4 POP DUP4 PUSH1 0x20 DUP3 MUL DUP6 ADD PUSH2 0x582 DUP6 PUSH2 0x42D JUMP JUMPDEST DUP1 PUSH1 0x0 JUMPDEST DUP6 DUP2 LT ISZERO PUSH2 0x5BE JUMPI DUP5 DUP5 SUB DUP10 MSTORE DUP2 MLOAD PUSH2 0x59F DUP6 DUP3 PUSH2 0x53A JUMP JUMPDEST SWAP5 POP PUSH2 0x5AA DUP4 PUSH2 0x54E JUMP JUMPDEST SWAP3 POP PUSH1 0x20 DUP11 ADD SWAP10 POP POP PUSH1 0x1 DUP2 ADD SWAP1 POP PUSH2 0x586 JUMP JUMPDEST POP DUP3 SWAP8 POP DUP8 SWAP6 POP POP POP POP POP POP SWAP3 SWAP2 POP POP JUMP JUMPDEST PUSH1 0x0 PUSH1 0x20 DUP3 ADD SWAP1 POP DUP2 DUP2 SUB PUSH1 0x0 DUP4 ADD MSTORE PUSH2 0x5EA DUP2 DUP5 PUSH2 0x55B JUMP JUMPDEST SWAP1 POP SWAP3 SWAP2 POP POP JUMP JUMPDEST PUSH2 0x5FB DUP2 PUSH2 0x4DC JUMP JUMPDEST DUP3 MSTORE POP POP JUMP JUMPDEST PUSH1 0x0 PUSH1 0x20 DUP3 ADD SWAP1 POP PUSH2 0x616 PUSH1 0x0 DUP4 ADD DUP5 PUSH2 0x5F2 JUMP JUMPDEST SWAP3 SWAP2 POP POP JUMP JUMPDEST PUSH1 0x0 DUP2 SWAP1 POP SWAP3 SWAP2 POP POP JUMP JUMPDEST PUSH1 0x0 PUSH2 0x632 DUP3 PUSH2 0x43D JUMP JUMPDEST PUSH2 0x63C DUP2 DUP6 PUSH2 0x61C JUMP JUMPDEST SWAP4 POP PUSH2 0x64C DUP2 DUP6 PUSH1 0x20 DUP7 ADD PUSH2 0x459 JUMP JUMPDEST DUP1 DUP5 ADD SWAP2 POP POP SWAP3 SWAP2 POP POP JUMP JUMPDEST PUSH1 0x0 PUSH2 0x664 DUP3 DUP5 PUSH2 0x627 JUMP JUMPDEST SWAP2 POP DUP2 SWAP1 POP SWAP3 SWAP2 POP POP JUMP JUMPDEST PUSH32 0x4E487B7100000000000000000000000000000000000000000000000000000000 PUSH1 0x0 MSTORE PUSH1 0x22 PUSH1 0x4 MSTORE PUSH1 0x24 PUSH1 0x0 REVERT JUMPDEST PUSH1 0x0 PUSH1 0x2 DUP3 DIV SWAP1 POP PUSH1 0x1 DUP3 AND DUP1 PUSH2 0x6B6 JUMPI PUSH1 0x7F DUP3 AND SWAP2 POP JUMPDEST PUSH1 0x20 DUP3 LT DUP2 SUB PUSH2 0x6C9 JUMPI PUSH2 0x6C8 PUSH2 0x66F JUMP JUMPDEST JUMPDEST POP SWAP2 SWAP1 POP JUMP INVALID LOG2 PUSH5 0x6970667358 0x22 SLT KECCAK256 SWAP3 0xDB 0xE2 DELEGATECALL GAS 0xFB 0xC5 EXTCODEHASH 0xD3 0xE9 ADDRESS 0xCF 0xA7 0xCC PUSH8 0x8F928DD82911E45A 0xA6 0xCB 0x4C EXTCODESIZE 0xF9 SWAP5 DUP4 SWAP14 GASPRICE PUSH5 0x736F6C6343 STOP ADDMOD GT STOP CALLER PUSH1 0x80 PUSH1 0x40 MSTORE CALLVALUE DUP1 ISZERO PUSH3 0x11 JUMPI PUSH1 0x0 DUP1 REVERT JUMPDEST POP PUSH1 0x40 MLOAD PUSH3 0x1541 CODESIZE SUB DUP1 PUSH3 0x1541 DUP4 CODECOPY DUP2 DUP2 ADD PUSH1 0x40 MSTORE DUP2 ADD SWAP1 PUSH3 0x37 SWAP2 SWAP1 PUSH3 0xE9 JUMP JUMPDEST DUP1 PUSH1 0x1 PUSH1 0x0 PUSH2 0x100 EXP DUP2 SLOAD DUP2 PUSH20 0xFFFFFFFFFFFFFFFFFFFFFFFFFFFFFFFFFFFFFFFF MUL NOT AND SWAP1 DUP4 PUSH20 0xFFFFFFFFFFFFFFFFFFFFFFFFFFFFFFFFFFFFFFFF AND MUL OR SWAP1 SSTORE POP POP PUSH3 0x11B JUMP JUMPDEST PUSH1 0x0 DUP1 REVERT JUMPDEST PUSH1 0x0 PUSH20 0xFFFFFFFFFFFFFFFFFFFFFFFFFFFFFFFFFFFFFFFF DUP3 AND SWAP1 POP SWAP2 SWAP1 POP JUMP JUMPDEST PUSH1 0x0 PUSH3 0xB1 DUP3 PUSH3 0x84 JUMP JUMPDEST SWAP1 POP SWAP2 SWAP1 POP JUMP JUMPDEST PUSH3 0xC3 DUP2 PUSH3 0xA4 JUMP JUMPDEST DUP2 EQ PUSH3 0xCF JUMPI PUSH1 0x0 DUP1 REVERT JUMPDEST POP JUMP JUMPDEST PUSH1 0x0 DUP2 MLOAD SWAP1 POP PUSH3 0xE3 DUP2 PUSH3 0xB8 JUMP JUMPDEST SWAP3 SWAP2 POP POP JUMP JUMPDEST PUSH1 0x0 PUSH1 0x20 DUP3 DUP5 SUB SLT ISZERO PUSH3 0x102 JUMPI PUSH3 0x101 PUSH3 0x7F JUMP JUMPDEST JUMPDEST PUSH1 0x0 PUSH3 0x112 DUP5 DUP3 DUP6 ADD PUSH3 0xD2 JUMP JUMPDEST SWAP2 POP POP SWAP3 SWAP2 POP POP JUMP JUMPDEST PUSH2 0x1416 DUP1 PUSH3 0x12B PUSH1 0x0 CODECOPY PUSH1 0x0 RETURN INVALID PUSH1 0x80 PUSH1 0x40 MSTORE CALLVALUE DUP1 ISZERO PUSH2 0x10 JUMPI PUSH1 0x0 DUP1 REVERT JUMPDEST POP PUSH1 0x4 CALLDATASIZE LT PUSH2 0x62 JUMPI PUSH1 0x0 CALLDATALOAD PUSH1 0xE0 SHR DUP1 PUSH4 0x1107747E EQ PUSH2 0x67 JUMPI DUP1 PUSH4 0x26C01F7D EQ PUSH2 0x83 JUMPI DUP1 PUSH4 0x48E81852 EQ PUSH2 0x9F JUMPI DUP1 PUSH4 0x52A6042D EQ PUSH2 0xCF JUMPI DUP1 PUSH4 0x5DB185C7 EQ PUSH2 0xEB JUMPI DUP1 PUSH4 0x7621DF6F EQ PUSH2 0x107 JUMPI JUMPDEST PUSH1 0x0 DUP1 REVERT JUMPDEST PUSH2 0x81 PUSH1 0x4 DUP1 CALLDATASIZE SUB DUP2 ADD SWAP1 PUSH2 0x7C SWAP2 SWAP1 PUSH2 0xBB1 JUMP JUMPDEST PUSH2 0x123 JUMP JUMPDEST STOP JUMPDEST PUSH2 0x9D PUSH1 0x4 DUP1 CALLDATASIZE SUB DUP2 ADD SWAP1 PUSH2 0x98 SWAP2 SWAP1 PUSH2 0xD5A JUMP JUMPDEST PUSH2 0x167 JUMP JUMPDEST STOP JUMPDEST PUSH2 0xB9 PUSH1 0x4 DUP1 CALLDATASIZE SUB DUP2 ADD SWAP1 PUSH2 0xB4 SWAP2 SWAP1 PUSH2 0xBB1 JUMP JUMPDEST PUSH2 0x42D JUMP JUMPDEST PUSH1 0x40 MLOAD PUSH2 0xC6 SWAP2 SWAP1 PUSH2 0x1028 JUMP JUMPDEST PUSH1 0x40 MLOAD DUP1 SWAP2 SUB SWAP1 RETURN JUMPDEST PUSH2 0xE9 PUSH1 0x4 DUP1 CALLDATASIZE SUB DUP2 ADD SWAP1 PUSH2 0xE4 SWAP2 SWAP1 PUSH2 0xD5A JUMP JUMPDEST PUSH2 0x99A JUMP JUMPDEST STOP JUMPDEST PUSH2 0x105 PUSH1 0x4 DUP1 CALLDATASIZE SUB DUP2 ADD SWAP1 PUSH2 0x100 SWAP2 SWAP1 PUSH2 0xBB1 JUMP JUMPDEST PUSH2 0xA5C JUMP JUMPDEST STOP JUMPDEST PUSH2 0x121 PUSH1 0x4 DUP1 CALLDATASIZE SUB DUP2 ADD SWAP1 PUSH2 0x11C SWAP2 SWAP1 PUSH2 0xBB1 JUMP JUMPDEST PUSH2 0xAA0 JUMP JUMPDEST STOP JUMPDEST DUP1 PUSH1 0x2 PUSH1 0x0 PUSH2 0x100 EXP DUP2 SLOAD DUP2 PUSH20 0xFFFFFFFFFFFFFFFFFFFFFFFFFFFFFFFFFFFFFFFF MUL NOT AND SWAP1 DUP4 PUSH20 0xFFFFFFFFFFFFFFFFFFFFFFFFFFFFFFFFFFFFFFFF AND MUL OR SWAP1 SSTORE POP POP JUMP JUMPDEST PUSH1 0x2 PUSH1 0x0 SWAP1 SLOAD SWAP1 PUSH2 0x100 EXP SWAP1 DIV PUSH20 0xFFFFFFFFFFFFFFFFFFFFFFFFFFFFFFFFFFFFFFFF AND PUSH20 0xFFFFFFFFFFFFFFFFFFFFFFFFFFFFFFFFFFFFFFFF AND PUSH4 0x63A9C3D7 CALLER PUSH1 0x40 MLOAD DUP3 PUSH4 0xFFFFFFFF AND PUSH1 0xE0 SHL DUP2 MSTORE PUSH1 0x4 ADD PUSH2 0x1C2 SWAP2 SWAP1 PUSH2 0x1059 JUMP JUMPDEST PUSH1 0x20 PUSH1 0x40 MLOAD DUP1 DUP4 SUB DUP2 DUP7 GAS STATICCALL ISZERO DUP1 ISZERO PUSH2 0x1DF JUMPI RETURNDATASIZE PUSH1 0x0 DUP1 RETURNDATACOPY RETURNDATASIZE PUSH1 0x0 REVERT JUMPDEST POP POP POP POP PUSH1 0x40 MLOAD RETURNDATASIZE PUSH1 0x1F NOT PUSH1 0x1F DUP3 ADD AND DUP3 ADD DUP1 PUSH1 0x40 MSTORE POP DUP2 ADD SWAP1 PUSH2 0x203 SWAP2 SWAP1 PUSH2 0x10AC JUMP JUMPDEST PUSH2 0x20C JUMPI PUSH1 0x0 DUP1 REVERT JUMPDEST PUSH1 0x0 DUP1 PUSH1 0x0 DUP11 PUSH20 0xFFFFFFFFFFFFFFFFFFFFFFFFFFFFFFFFFFFFFFFF AND PUSH20 0xFFFFFFFFFFFFFFFFFFFFFFFFFFFFFFFFFFFFFFFF AND DUP2 MSTORE PUSH1 0x20 ADD SWAP1 DUP2 MSTORE PUSH1 0x20 ADD PUSH1 0x0 KECCAK256 SWAP1 POP DUP9 DUP2 PUSH1 0x0 ADD PUSH1 0x0 PUSH2 0x100 EXP DUP2 SLOAD DUP2 PUSH20 0xFFFFFFFFFFFFFFFFFFFFFFFFFFFFFFFFFFFFFFFF MUL NOT AND SWAP1 DUP4 PUSH20 0xFFFFFFFFFFFFFFFFFFFFFFFFFFFFFFFFFFFFFFFF AND MUL OR SWAP1 SSTORE POP DUP8 DUP2 PUSH1 0x1 ADD SWAP1 DUP2 PUSH2 0x2A2 SWAP2 SWAP1 PUSH2 0x12E5 JUMP JUMPDEST POP DUP7 DUP2 PUSH1 0x2 ADD DUP2 SWAP1 SSTORE POP DUP6 DUP2 PUSH1 0x3 ADD SWAP1 DUP2 PUSH2 0x2BD SWAP2 SWAP1 PUSH2 0x12E5 JUMP JUMPDEST POP DUP5 DUP2 PUSH1 0x4 ADD SWAP1 DUP2 PUSH2 0x2CF SWAP2 SWAP1 PUSH2 0x12E5 JUMP JUMPDEST POP DUP4 DUP2 PUSH1 0x5 ADD SWAP1 DUP2 PUSH2 0x2E1 SWAP2 SWAP1 PUSH2 0x12E5 JUMP JUMPDEST POP DUP3 DUP2 PUSH1 0x6 ADD SWAP1 DUP2 PUSH2 0x2F3 SWAP2 SWAP1 PUSH2 0x12E5 JUMP JUMPDEST POP DUP2 DUP2 PUSH1 0x7 ADD SWAP1 DUP2 PUSH2 0x305 SWAP2 SWAP1 PUSH2 0x12E5 JUMP JUMPDEST POP PUSH1 0x3 PUSH1 0x0 SWAP1 SLOAD SWAP1 PUSH2 0x100 EXP SWAP1 DIV PUSH20 0xFFFFFFFFFFFFFFFFFFFFFFFFFFFFFFFFFFFFFFFF AND PUSH20 0xFFFFFFFFFFFFFFFFFFFFFFFFFFFFFFFFFFFFFFFF AND PUSH4 0x6D263CEB DUP11 PUSH1 0x40 MLOAD DUP3 PUSH4 0xFFFFFFFF AND PUSH1 0xE0 SHL DUP2 MSTORE PUSH1 0x4 ADD PUSH2 0x361 SWAP2 SWAP1 PUSH2 0x1059 JUMP JUMPDEST PUSH1 0x0 PUSH1 0x40 MLOAD DUP1 DUP4 SUB DUP2 PUSH1 0x0 DUP8 DUP1 EXTCODESIZE ISZERO DUP1 ISZERO PUSH2 0x37B JUMPI PUSH1 0x0 DUP1 REVERT JUMPDEST POP GAS CALL ISZERO DUP1 ISZERO PUSH2 0x38F JUMPI RETURNDATASIZE PUSH1 0x0 DUP1 RETURNDATACOPY RETURNDATASIZE PUSH1 0x0 REVERT JUMPDEST POP POP POP POP PUSH1 0x4 PUSH1 0x0 SWAP1 SLOAD SWAP1 PUSH2 0x100 EXP SWAP1 DIV PUSH20 0xFFFFFFFFFFFFFFFFFFFFFFFFFFFFFFFFFFFFFFFF AND PUSH20 0xFFFFFFFFFFFFFFFFFFFFFFFFFFFFFFFFFFFFFFFF AND PUSH4 0x8BFC8C71 CALLER DUP12 PUSH1 0x40 MLOAD DUP4 PUSH4 0xFFFFFFFF AND PUSH1 0xE0 SHL DUP2 MSTORE PUSH1 0x4 ADD PUSH2 0x3F0 SWAP3 SWAP2 SWAP1 PUSH2 0x13B7 JUMP JUMPDEST PUSH1 0x0 PUSH1 0x40 MLOAD DUP1 DUP4 SUB DUP2 PUSH1 0x0 DUP8 DUP1 EXTCODESIZE ISZERO DUP1 ISZERO PUSH2 0x40A JUMPI PUSH1 0x0 DUP1 REVERT JUMPDEST POP GAS CALL ISZERO DUP1 ISZERO PUSH2 0x41E JUMPI RETURNDATASIZE PUSH1 0x0 DUP1 RETURNDATACOPY RETURNDATASIZE PUSH1 0x0 REVERT JUMPDEST POP POP POP POP POP POP POP POP POP POP POP POP POP JUMP JUMPDEST PUSH2 0x435 PUSH2 0xAE4 JUMP JUMPDEST PUSH1 0x2 PUSH1 0x0 SWAP1 SLOAD SWAP1 PUSH2 0x100 EXP SWAP1 DIV PUSH20 0xFFFFFFFFFFFFFFFFFFFFFFFFFFFFFFFFFFFFFFFF AND PUSH20 0xFFFFFFFFFFFFFFFFFFFFFFFFFFFFFFFFFFFFFFFF AND PUSH4 0x63A9C3D7 CALLER PUSH1 0x40 MLOAD DUP3 PUSH4 0xFFFFFFFF AND PUSH1 0xE0 SHL DUP2 MSTORE PUSH1 0x4 ADD PUSH2 0x490 SWAP2 SWAP1 PUSH2 0x1059 JUMP JUMPDEST PUSH1 0x20 PUSH1 0x40 MLOAD DUP1 DUP4 SUB DUP2 DUP7 GAS STATICCALL ISZERO DUP1 ISZERO PUSH2 0x4AD JUMPI RETURNDATASIZE PUSH1 0x0 DUP1 RETURNDATACOPY RETURNDATASIZE PUSH1 0x0 REVERT JUMPDEST POP POP POP POP PUSH1 0x40 MLOAD RETURNDATASIZE PUSH1 0x1F NOT PUSH1 0x1F DUP3 ADD AND DUP3 ADD DUP1 PUSH1 0x40 MSTORE POP DUP2 ADD SWAP1 PUSH2 0x4D1 SWAP2 SWAP1 PUSH2 0x10AC JUMP JUMPDEST DUP1 PUSH2 0x574 JUMPI POP PUSH1 0x3 PUSH1 0x0 SWAP1 SLOAD SWAP1 PUSH2 0x100 EXP SWAP1 DIV PUSH20 0xFFFFFFFFFFFFFFFFFFFFFFFFFFFFFFFFFFFFFFFF AND PUSH20 0xFFFFFFFFFFFFFFFFFFFFFFFFFFFFFFFFFFFFFFFF AND PUSH4 0x63A9C3D7 CALLER PUSH1 0x40 MLOAD DUP3 PUSH4 0xFFFFFFFF AND PUSH1 0xE0 SHL DUP2 MSTORE PUSH1 0x4 ADD PUSH2 0x532 SWAP2 SWAP1 PUSH2 0x1059 JUMP JUMPDEST PUSH1 0x20 PUSH1 0x40 MLOAD DUP1 DUP4 SUB DUP2 DUP7 GAS STATICCALL ISZERO DUP1 ISZERO PUSH2 0x54F JUMPI RETURNDATASIZE PUSH1 0x0 DUP1 RETURNDATACOPY RETURNDATASIZE PUSH1 0x0 REVERT JUMPDEST POP POP POP POP PUSH1 0x40 MLOAD RETURNDATASIZE PUSH1 0x1F NOT PUSH1 0x1F DUP3 ADD AND DUP3 ADD DUP1 PUSH1 0x40 MSTORE POP DUP2 ADD SWAP1 PUSH2 0x573 SWAP2 SWAP1 PUSH2 0x10AC JUMP JUMPDEST JUMPDEST PUSH2 0x57D JUMPI PUSH1 0x0 DUP1 REVERT JUMPDEST PUSH1 0x0 DUP1 DUP4 PUSH20 0xFFFFFFFFFFFFFFFFFFFFFFFFFFFFFFFFFFFFFFFF AND PUSH20 0xFFFFFFFFFFFFFFFFFFFFFFFFFFFFFFFFFFFFFFFF AND DUP2 MSTORE PUSH1 0x20 ADD SWAP1 DUP2 MSTORE PUSH1 0x20 ADD PUSH1 0x0 KECCAK256 PUSH1 0x40 MLOAD DUP1 PUSH2 0x100 ADD PUSH1 0x40 MSTORE SWAP1 DUP2 PUSH1 0x0 DUP3 ADD PUSH1 0x0 SWAP1 SLOAD SWAP1 PUSH2 0x100 EXP SWAP1 DIV PUSH20 0xFFFFFFFFFFFFFFFFFFFFFFFFFFFFFFFFFFFFFFFF AND PUSH20 0xFFFFFFFFFFFFFFFFFFFFFFFFFFFFFFFFFFFFFFFF AND PUSH20 0xFFFFFFFFFFFFFFFFFFFFFFFFFFFFFFFFFFFFFFFF AND DUP2 MSTORE PUSH1 0x20 ADD PUSH1 0x1 DUP3 ADD DUP1 SLOAD PUSH2 0x62D SWAP1 PUSH2 0x1108 JUMP JUMPDEST DUP1 PUSH1 0x1F ADD PUSH1 0x20 DUP1 SWAP2 DIV MUL PUSH1 0x20 ADD PUSH1 0x40 MLOAD SWAP1 DUP2 ADD PUSH1 0x40 MSTORE DUP1 SWAP3 SWAP2 SWAP1 DUP2 DUP2 MSTORE PUSH1 0x20 ADD DUP3 DUP1 SLOAD PUSH2 0x659 SWAP1 PUSH2 0x1108 JUMP JUMPDEST DUP1 ISZERO PUSH2 0x6A6 JUMPI DUP1 PUSH1 0x1F LT PUSH2 0x67B JUMPI PUSH2 0x100 DUP1 DUP4 SLOAD DIV MUL DUP4 MSTORE SWAP2 PUSH1 0x20 ADD SWAP2 PUSH2 0x6A6 JUMP JUMPDEST DUP3 ADD SWAP2 SWAP1 PUSH1 0x0 MSTORE PUSH1 0x20 PUSH1 0x0 KECCAK256 SWAP1 JUMPDEST DUP2 SLOAD DUP2 MSTORE SWAP1 PUSH1 0x1 ADD SWAP1 PUSH1 0x20 ADD DUP1 DUP4 GT PUSH2 0x689 JUMPI DUP3 SWAP1 SUB PUSH1 0x1F AND DUP3 ADD SWAP2 JUMPDEST POP POP POP POP POP DUP2 MSTORE PUSH1 0x20 ADD PUSH1 0x2 DUP3 ADD SLOAD DUP2 MSTORE PUSH1 0x20 ADD PUSH1 0x3 DUP3 ADD DUP1 SLOAD PUSH2 0x6C9 SWAP1 PUSH2 0x1108 JUMP JUMPDEST DUP1 PUSH1 0x1F ADD PUSH1 0x20 DUP1 SWAP2 DIV MUL PUSH1 0x20 ADD PUSH1 0x40 MLOAD SWAP1 DUP2 ADD PUSH1 0x40 MSTORE DUP1 SWAP3 SWAP2 SWAP1 DUP2 DUP2 MSTORE PUSH1 0x20 ADD DUP3 DUP1 SLOAD PUSH2 0x6F5 SWAP1 PUSH2 0x1108 JUMP JUMPDEST DUP1 ISZERO PUSH2 0x742 JUMPI DUP1 PUSH1 0x1F LT PUSH2 0x717 JUMPI PUSH2 0x100 DUP1 DUP4 SLOAD DIV MUL DUP4 MSTORE SWAP2 PUSH1 0x20 ADD SWAP2 PUSH2 0x742 JUMP JUMPDEST DUP3 ADD SWAP2 SWAP1 PUSH1 0x0 MSTORE PUSH1 0x20 PUSH1 0x0 KECCAK256 SWAP1 JUMPDEST DUP2 SLOAD DUP2 MSTORE SWAP1 PUSH1 0x1 ADD SWAP1 PUSH1 0x20 ADD DUP1 DUP4 GT PUSH2 0x725 JUMPI DUP3 SWAP1 SUB PUSH1 0x1F AND DUP3 ADD SWAP2 JUMPDEST POP POP POP POP POP DUP2 MSTORE PUSH1 0x20 ADD PUSH1 0x4 DUP3 ADD DUP1 SLOAD PUSH2 0x75B SWAP1 PUSH2 0x1108 JUMP JUMPDEST DUP1 PUSH1 0x1F ADD PUSH1 0x20 DUP1 SWAP2 DIV MUL PUSH1 0x20 ADD PUSH1 0x40 MLOAD SWAP1 DUP2 ADD PUSH1 0x40 MSTORE DUP1 SWAP3 SWAP2 SWAP1 DUP2 DUP2 MSTORE PUSH1 0x20 ADD DUP3 DUP1 SLOAD PUSH2 0x787 SWAP1 PUSH2 0x1108 JUMP JUMPDEST DUP1 ISZERO PUSH2 0x7D4 JUMPI DUP1 PUSH1 0x1F LT PUSH2 0x7A9 JUMPI PUSH2 0x100 DUP1 DUP4 SLOAD DIV MUL DUP4 MSTORE SWAP2 PUSH1 0x20 ADD SWAP2 PUSH2 0x7D4 JUMP JUMPDEST DUP3 ADD SWAP2 SWAP1 PUSH1 0x0 MSTORE PUSH1 0x20 PUSH1 0x0 KECCAK256 SWAP1 JUMPDEST DUP2 SLOAD DUP2 MSTORE SWAP1 PUSH1 0x1 ADD SWAP1 PUSH1 0x20 ADD DUP1 DUP4 GT PUSH2 0x7B7 JUMPI DUP3 SWAP1 SUB PUSH1 0x1F AND DUP3 ADD SWAP2 JUMPDEST POP POP POP POP POP DUP2 MSTORE PUSH1 0x20 ADD PUSH1 0x5 DUP3 ADD DUP1 SLOAD PUSH2 0x7ED SWAP1 PUSH2 0x1108 JUMP JUMPDEST DUP1 PUSH1 0x1F ADD PUSH1 0x20 DUP1 SWAP2 DIV MUL PUSH1 0x20 ADD PUSH1 0x40 MLOAD SWAP1 DUP2 ADD PUSH1 0x40 MSTORE DUP1 SWAP3 SWAP2 SWAP1 DUP2 DUP2 MSTORE PUSH1 0x20 ADD DUP3 DUP1 SLOAD PUSH2 0x819 SWAP1 PUSH2 0x1108 JUMP JUMPDEST DUP1 ISZERO PUSH2 0x866 JUMPI DUP1 PUSH1 0x1F LT PUSH2 0x83B JUMPI PUSH2 0x100 DUP1 DUP4 SLOAD DIV MUL DUP4 MSTORE SWAP2 PUSH1 0x20 ADD SWAP2 PUSH2 0x866 JUMP JUMPDEST DUP3 ADD SWAP2 SWAP1 PUSH1 0x0 MSTORE PUSH1 0x20 PUSH1 0x0 KECCAK256 SWAP1 JUMPDEST DUP2 SLOAD DUP2 MSTORE SWAP1 PUSH1 0x1 ADD SWAP1 PUSH1 0x20 ADD DUP1 DUP4 GT PUSH2 0x849 JUMPI DUP3 SWAP1 SUB PUSH1 0x1F AND DUP3 ADD SWAP2 JUMPDEST POP POP POP POP POP DUP2 MSTORE PUSH1 0x20 ADD PUSH1 0x6 DUP3 ADD DUP1 SLOAD PUSH2 0x87F SWAP1 PUSH2 0x1108 JUMP JUMPDEST DUP1 PUSH1 0x1F ADD PUSH1 0x20 DUP1 SWAP2 DIV MUL PUSH1 0x20 ADD PUSH1 0x40 MLOAD SWAP1 DUP2 ADD PUSH1 0x40 MSTORE DUP1 SWAP3 SWAP2 SWAP1 DUP2 DUP2 MSTORE PUSH1 0x20 ADD DUP3 DUP1 SLOAD PUSH2 0x8AB SWAP1 PUSH2 0x1108 JUMP JUMPDEST DUP1 ISZERO PUSH2 0x8F8 JUMPI DUP1 PUSH1 0x1F LT PUSH2 0x8CD JUMPI PUSH2 0x100 DUP1 DUP4 SLOAD DIV MUL DUP4 MSTORE SWAP2 PUSH1 0x20 ADD SWAP2 PUSH2 0x8F8 JUMP JUMPDEST DUP3 ADD SWAP2 SWAP1 PUSH1 0x0 MSTORE PUSH1 0x20 PUSH1 0x0 KECCAK256 SWAP1 JUMPDEST DUP2 SLOAD DUP2 MSTORE SWAP1 PUSH1 0x1 ADD SWAP1 PUSH1 0x20 ADD DUP1 DUP4 GT PUSH2 0x8DB JUMPI DUP3 SWAP1 SUB PUSH1 0x1F AND DUP3 ADD SWAP2 JUMPDEST POP POP POP POP POP DUP2 MSTORE PUSH1 0x20 ADD PUSH1 0x7 DUP3 ADD DUP1 SLOAD PUSH2 0x911 SWAP1 PUSH2 0x1108 JUMP JUMPDEST DUP1 PUSH1 0x1F ADD PUSH1 0x20 DUP1 SWAP2 DIV MUL PUSH1 0x20 ADD PUSH1 0x40 MLOAD SWAP1 DUP2 ADD PUSH1 0x40 MSTORE DUP1 SWAP3 SWAP2 SWAP1 DUP2 DUP2 MSTORE PUSH1 0x20 ADD DUP3 DUP1 SLOAD PUSH2 0x93D SWAP1 PUSH2 0x1108 JUMP JUMPDEST DUP1 ISZERO PUSH2 0x98A JUMPI DUP1 PUSH1 0x1F LT PUSH2 0x95F JUMPI PUSH2 0x100 DUP1 DUP4 SLOAD DIV MUL DUP4 MSTORE SWAP2 PUSH1 0x20 ADD SWAP2 PUSH2 0x98A JUMP JUMPDEST DUP3 ADD SWAP2 SWAP1 PUSH1 0x0 MSTORE PUSH1 0x20 PUSH1 0x0 KECCAK256 SWAP1 JUMPDEST DUP2 SLOAD DUP2 MSTORE SWAP1 PUSH1 0x1 ADD SWAP1 PUSH1 0x20 ADD DUP1 DUP4 GT PUSH2 0x96D JUMPI DUP3 SWAP1 SUB PUSH1 0x1F AND DUP3 ADD SWAP2 JUMPDEST POP POP POP POP POP DUP2 MSTORE POP POP SWAP1 POP SWAP2 SWAP1 POP JUMP JUMPDEST PUSH1 0x0 DUP1 PUSH1 0x0 DUP11 PUSH20 0xFFFFFFFFFFFFFFFFFFFFFFFFFFFFFFFFFFFFFFFF AND PUSH20 0xFFFFFFFFFFFFFFFFFFFFFFFFFFFFFFFFFFFFFFFF AND DUP2 MSTORE PUSH1 0x20 ADD SWAP1 DUP2 MSTORE PUSH1 0x20 ADD PUSH1 0x0 KECCAK256 SWAP1 POP DUP8 DUP2 PUSH1 0x1 ADD SWAP1 DUP2 PUSH2 0x9ED SWAP2 SWAP1 PUSH2 0x12E5 JUMP JUMPDEST POP DUP7 DUP2 PUSH1 0x2 ADD DUP2 SWAP1 SSTORE POP DUP6 DUP2 PUSH1 0x3 ADD SWAP1 DUP2 PUSH2 0xA08 SWAP2 SWAP1 PUSH2 0x12E5 JUMP JUMPDEST POP DUP5 DUP2 PUSH1 0x4 ADD SWAP1 DUP2 PUSH2 0xA1A SWAP2 SWAP1 PUSH2 0x12E5 JUMP JUMPDEST POP DUP4 DUP2 PUSH1 0x5 ADD SWAP1 DUP2 PUSH2 0xA2C SWAP2 SWAP1 PUSH2 0x12E5 JUMP JUMPDEST POP DUP3 DUP2 PUSH1 0x6 ADD SWAP1 DUP2 PUSH2 0xA3E SWAP2 SWAP1 PUSH2 0x12E5 JUMP JUMPDEST POP DUP2 DUP2 PUSH1 0x7 ADD SWAP1 DUP2 PUSH2 0xA50 SWAP2 SWAP1 PUSH2 0x12E5 JUMP JUMPDEST POP POP POP POP POP POP POP POP POP POP JUMP JUMPDEST DUP1 PUSH1 0x3 PUSH1 0x0 PUSH2 0x100 EXP DUP2 SLOAD DUP2 PUSH20 0xFFFFFFFFFFFFFFFFFFFFFFFFFFFFFFFFFFFFFFFF MUL NOT AND SWAP1 DUP4 PUSH20 0xFFFFFFFFFFFFFFFFFFFFFFFFFFFFFFFFFFFFFFFF AND MUL OR SWAP1 SSTORE POP POP JUMP JUMPDEST DUP1 PUSH1 0x4 PUSH1 0x0 PUSH2 0x100 EXP DUP2 SLOAD DUP2 PUSH20 0xFFFFFFFFFFFFFFFFFFFFFFFFFFFFFFFFFFFFFFFF MUL NOT AND SWAP1 DUP4 PUSH20 0xFFFFFFFFFFFFFFFFFFFFFFFFFFFFFFFFFFFFFFFF AND MUL OR SWAP1 SSTORE POP POP JUMP JUMPDEST PUSH1 0x40 MLOAD DUP1 PUSH2 0x100 ADD PUSH1 0x40 MSTORE DUP1 PUSH1 0x0 PUSH20 0xFFFFFFFFFFFFFFFFFFFFFFFFFFFFFFFFFFFFFFFF AND DUP2 MSTORE PUSH1 0x20 ADD PUSH1 0x60 DUP2 MSTORE PUSH1 0x20 ADD PUSH1 0x0 DUP2 MSTORE PUSH1 0x20 ADD PUSH1 0x60 DUP2 MSTORE PUSH1 0x20 ADD PUSH1 0x60 DUP2 MSTORE PUSH1 0x20 ADD PUSH1 0x60 DUP2 MSTORE PUSH1 0x20 ADD PUSH1 0x60 DUP2 MSTORE PUSH1 0x20 ADD PUSH1 0x60 DUP2 MSTORE POP SWAP1 JUMP JUMPDEST PUSH1 0x0 PUSH1 0x40 MLOAD SWAP1 POP SWAP1 JUMP JUMPDEST PUSH1 0x0 DUP1 REVERT JUMPDEST PUSH1 0x0 DUP1 REVERT JUMPDEST PUSH1 0x0 PUSH20 0xFFFFFFFFFFFFFFFFFFFFFFFFFFFFFFFFFFFFFFFF DUP3 AND SWAP1 POP SWAP2 SWAP1 POP JUMP JUMPDEST PUSH1 0x0 PUSH2 0xB7E DUP3 PUSH2 0xB53 JUMP JUMPDEST SWAP1 POP SWAP2 SWAP1 POP JUMP JUMPDEST PUSH2 0xB8E DUP2 PUSH2 0xB73 JUMP JUMPDEST DUP2 EQ PUSH2 0xB99 JUMPI PUSH1 0x0 DUP1 REVERT JUMPDEST POP JUMP JUMPDEST PUSH1 0x0 DUP2 CALLDATALOAD SWAP1 POP PUSH2 0xBAB DUP2 PUSH2 0xB85 JUMP JUMPDEST SWAP3 SWAP2 POP POP JUMP JUMPDEST PUSH1 0x0 PUSH1 0x20 DUP3 DUP5 SUB SLT ISZERO PUSH2 0xBC7 JUMPI PUSH2 0xBC6 PUSH2 0xB49 JUMP JUMPDEST JUMPDEST PUSH1 0x0 PUSH2 0xBD5 DUP5 DUP3 DUP6 ADD PUSH2 0xB9C JUMP JUMPDEST SWAP2 POP POP SWAP3 SWAP2 POP POP JUMP JUMPDEST PUSH1 0x0 DUP1 REVERT JUMPDEST PUSH1 0x0 DUP1 REVERT JUMPDEST PUSH1 0x0 PUSH1 0x1F NOT PUSH1 0x1F DUP4 ADD AND SWAP1 POP SWAP2 SWAP1 POP JUMP JUMPDEST PUSH32 0x4E487B7100000000000000000000000000000000000000000000000000000000 PUSH1 0x0 MSTORE PUSH1 0x41 PUSH1 0x4 MSTORE PUSH1 0x24 PUSH1 0x0 REVERT JUMPDEST PUSH2 0xC31 DUP3 PUSH2 0xBE8 JUMP JUMPDEST DUP2 ADD DUP2 DUP2 LT PUSH8 0xFFFFFFFFFFFFFFFF DUP3 GT OR ISZERO PUSH2 0xC50 JUMPI PUSH2 0xC4F PUSH2 0xBF9 JUMP JUMPDEST JUMPDEST DUP1 PUSH1 0x40 MSTORE POP POP POP JUMP JUMPDEST PUSH1 0x0 PUSH2 0xC63 PUSH2 0xB3F JUMP JUMPDEST SWAP1 POP PUSH2 0xC6F DUP3 DUP3 PUSH2 0xC28 JUMP JUMPDEST SWAP2 SWAP1 POP JUMP JUMPDEST PUSH1 0x0 PUSH8 0xFFFFFFFFFFFFFFFF DUP3 GT ISZERO PUSH2 0xC8F JUMPI PUSH2 0xC8E PUSH2 0xBF9 JUMP JUMPDEST JUMPDEST PUSH2 0xC98 DUP3 PUSH2 0xBE8 JUMP JUMPDEST SWAP1 POP PUSH1 0x20 DUP2 ADD SWAP1 POP SWAP2 SWAP1 POP JUMP JUMPDEST DUP3 DUP2 DUP4 CALLDATACOPY PUSH1 0x0 DUP4 DUP4 ADD MSTORE POP POP POP JUMP JUMPDEST PUSH1 0x0 PUSH2 0xCC7 PUSH2 0xCC2 DUP5 PUSH2 0xC74 JUMP JUMPDEST PUSH2 0xC59 JUMP JUMPDEST SWAP1 POP DUP3 DUP2 MSTORE PUSH1 0x20 DUP2 ADD DUP5 DUP5 DUP5 ADD GT ISZERO PUSH2 0xCE3 JUMPI PUSH2 0xCE2 PUSH2 0xBE3 JUMP JUMPDEST JUMPDEST PUSH2 0xCEE DUP5 DUP3 DUP6 PUSH2 0xCA5 JUMP JUMPDEST POP SWAP4 SWAP3 POP POP POP JUMP JUMPDEST PUSH1 0x0 DUP3 PUSH1 0x1F DUP4 ADD SLT PUSH2 0xD0B JUMPI PUSH2 0xD0A PUSH2 0xBDE JUMP JUMPDEST JUMPDEST DUP2 CALLDATALOAD PUSH2 0xD1B DUP5 DUP3 PUSH1 0x20 DUP7 ADD PUSH2 0xCB4 JUMP JUMPDEST SWAP2 POP POP SWAP3 SWAP2 POP POP JUMP JUMPDEST PUSH1 0x0 DUP2 SWAP1 POP SWAP2 SWAP1 POP JUMP JUMPDEST PUSH2 0xD37 DUP2 PUSH2 0xD24 JUMP JUMPDEST DUP2 EQ PUSH2 0xD42 JUMPI PUSH1 0x0 DUP1 REVERT JUMPDEST POP JUMP JUMPDEST PUSH1 0x0 DUP2 CALLDATALOAD SWAP1 POP PUSH2 0xD54 DUP2 PUSH2 0xD2E JUMP JUMPDEST SWAP3 SWAP2 POP POP JUMP JUMPDEST PUSH1 0x0 DUP1 PUSH1 0x0 DUP1 PUSH1 0x0 DUP1 PUSH1 0x0 DUP1 PUSH2 0x100 DUP10 DUP12 SUB SLT ISZERO PUSH2 0xD7B JUMPI PUSH2 0xD7A PUSH2 0xB49 JUMP JUMPDEST JUMPDEST PUSH1 0x0 PUSH2 0xD89 DUP12 DUP3 DUP13 ADD PUSH2 0xB9C JUMP JUMPDEST SWAP9 POP POP PUSH1 0x20 DUP10 ADD CALLDATALOAD PUSH8 0xFFFFFFFFFFFFFFFF DUP2 GT ISZERO PUSH2 0xDAA JUMPI PUSH2 0xDA9 PUSH2 0xB4E JUMP JUMPDEST JUMPDEST PUSH2 0xDB6 DUP12 DUP3 DUP13 ADD PUSH2 0xCF6 JUMP JUMPDEST SWAP8 POP POP PUSH1 0x40 PUSH2 0xDC7 DUP12 DUP3 DUP13 ADD PUSH2 0xD45 JUMP JUMPDEST SWAP7 POP POP PUSH1 0x60 DUP10 ADD CALLDATALOAD PUSH8 0xFFFFFFFFFFFFFFFF DUP2 GT ISZERO PUSH2 0xDE8 JUMPI PUSH2 0xDE7 PUSH2 0xB4E JUMP JUMPDEST JUMPDEST PUSH2 0xDF4 DUP12 DUP3 DUP13 ADD PUSH2 0xCF6 JUMP JUMPDEST SWAP6 POP POP PUSH1 0x80 DUP10 ADD CALLDATALOAD PUSH8 0xFFFFFFFFFFFFFFFF DUP2 GT ISZERO PUSH2 0xE15 JUMPI PUSH2 0xE14 PUSH2 0xB4E JUMP JUMPDEST JUMPDEST PUSH2 0xE21 DUP12 DUP3 DUP13 ADD PUSH2 0xCF6 JUMP JUMPDEST SWAP5 POP POP PUSH1 0xA0 DUP10 ADD CALLDATALOAD PUSH8 0xFFFFFFFFFFFFFFFF DUP2 GT ISZERO PUSH2 0xE42 JUMPI PUSH2 0xE41 PUSH2 0xB4E JUMP JUMPDEST JUMPDEST PUSH2 0xE4E DUP12 DUP3 DUP13 ADD PUSH2 0xCF6 JUMP JUMPDEST SWAP4 POP POP PUSH1 0xC0 DUP10 ADD CALLDATALOAD PUSH8 0xFFFFFFFFFFFFFFFF DUP2 GT ISZERO PUSH2 0xE6F JUMPI PUSH2 0xE6E PUSH2 0xB4E JUMP JUMPDEST JUMPDEST PUSH2 0xE7B DUP12 DUP3 DUP13 ADD PUSH2 0xCF6 JUMP JUMPDEST SWAP3 POP POP PUSH1 0xE0 DUP10 ADD CALLDATALOAD PUSH8 0xFFFFFFFFFFFFFFFF DUP2 GT ISZERO PUSH2 0xE9C JUMPI PUSH2 0xE9B PUSH2 0xB4E JUMP JUMPDEST JUMPDEST PUSH2 0xEA8 DUP12 DUP3 DUP13 ADD PUSH2 0xCF6 JUMP JUMPDEST SWAP2 POP POP SWAP3 SWAP6 SWAP9 POP SWAP3 SWAP6 SWAP9 SWAP1 SWAP4 SWAP7 POP JUMP JUMPDEST PUSH2 0xEC1 DUP2 PUSH2 0xB73 JUMP JUMPDEST DUP3 MSTORE POP POP JUMP JUMPDEST PUSH1 0x0 DUP2 MLOAD SWAP1 POP SWAP2 SWAP1 POP JUMP JUMPDEST PUSH1 0x0 DUP3 DUP3 MSTORE PUSH1 0x20 DUP3 ADD SWAP1 POP SWAP3 SWAP2 POP POP JUMP JUMPDEST PUSH1 0x0 JUMPDEST DUP4 DUP2 LT ISZERO PUSH2 0xF01 JUMPI DUP1 DUP3 ADD MLOAD DUP2 DUP5 ADD MSTORE PUSH1 0x20 DUP2 ADD SWAP1 POP PUSH2 0xEE6 JUMP JUMPDEST PUSH1 0x0 DUP5 DUP5 ADD MSTORE POP POP POP POP JUMP JUMPDEST PUSH1 0x0 PUSH2 0xF18 DUP3 PUSH2 0xEC7 JUMP JUMPDEST PUSH2 0xF22 DUP2 DUP6 PUSH2 0xED2 JUMP JUMPDEST SWAP4 POP PUSH2 0xF32 DUP2 DUP6 PUSH1 0x20 DUP7 ADD PUSH2 0xEE3 JUMP JUMPDEST PUSH2 0xF3B DUP2 PUSH2 0xBE8 JUMP JUMPDEST DUP5 ADD SWAP2 POP POP SWAP3 SWAP2 POP POP JUMP JUMPDEST PUSH2 0xF4F DUP2 PUSH2 0xD24 JUMP JUMPDEST DUP3 MSTORE POP POP JUMP JUMPDEST PUSH1 0x0 PUSH2 0x100 DUP4 ADD PUSH1 0x0 DUP4 ADD MLOAD PUSH2 0xF6E PUSH1 0x0 DUP7 ADD DUP3 PUSH2 0xEB8 JUMP JUMPDEST POP PUSH1 0x20 DUP4 ADD MLOAD DUP5 DUP3 SUB PUSH1 0x20 DUP7 ADD MSTORE PUSH2 0xF86 DUP3 DUP3 PUSH2 0xF0D JUMP JUMPDEST SWAP2 POP POP PUSH1 0x40 DUP4 ADD MLOAD PUSH2 0xF9B PUSH1 0x40 DUP7 ADD DUP3 PUSH2 0xF46 JUMP JUMPDEST POP PUSH1 0x60 DUP4 ADD MLOAD DUP5 DUP3 SUB PUSH1 0x60 DUP7 ADD MSTORE PUSH2 0xFB3 DUP3 DUP3 PUSH2 0xF0D JUMP JUMPDEST SWAP2 POP POP PUSH1 0x80 DUP4 ADD MLOAD DUP5 DUP3 SUB PUSH1 0x80 DUP7 ADD MSTORE PUSH2 0xFCD DUP3 DUP3 PUSH2 0xF0D JUMP JUMPDEST SWAP2 POP POP PUSH1 0xA0 DUP4 ADD MLOAD DUP5 DUP3 SUB PUSH1 0xA0 DUP7 ADD MSTORE PUSH2 0xFE7 DUP3 DUP3 PUSH2 0xF0D JUMP JUMPDEST SWAP2 POP POP PUSH1 0xC0 DUP4 ADD MLOAD DUP5 DUP3 SUB PUSH1 0xC0 DUP7 ADD MSTORE PUSH2 0x1001 DUP3 DUP3 PUSH2 0xF0D JUMP JUMPDEST SWAP2 POP POP PUSH1 0xE0 DUP4 ADD MLOAD DUP5 DUP3 SUB PUSH1 0xE0 DUP7 ADD MSTORE PUSH2 0x101B DUP3 DUP3 PUSH2 0xF0D JUMP JUMPDEST SWAP2 POP POP DUP1 SWAP2 POP POP SWAP3 SWAP2 POP POP JUMP JUMPDEST PUSH1 0x0 PUSH1 0x20 DUP3 ADD SWAP1 POP DUP2 DUP2 SUB PUSH1 0x0 DUP4 ADD MSTORE PUSH2 0x1042 DUP2 DUP5 PUSH2 0xF55 JUMP JUMPDEST SWAP1 POP SWAP3 SWAP2 POP POP JUMP JUMPDEST PUSH2 0x1053 DUP2 PUSH2 0xB73 JUMP JUMPDEST DUP3 MSTORE POP POP JUMP JUMPDEST PUSH1 0x0 PUSH1 0x20 DUP3 ADD SWAP1 POP PUSH2 0x106E PUSH1 0x0 DUP4 ADD DUP5 PUSH2 0x104A JUMP JUMPDEST SWAP3 SWAP2 POP POP JUMP JUMPDEST PUSH1 0x0 DUP2 ISZERO ISZERO SWAP1 POP SWAP2 SWAP1 POP JUMP JUMPDEST PUSH2 0x1089 DUP2 PUSH2 0x1074 JUMP JUMPDEST DUP2 EQ PUSH2 0x1094 JUMPI PUSH1 0x0 DUP1 REVERT JUMPDEST POP JUMP JUMPDEST PUSH1 0x0 DUP2 MLOAD SWAP1 POP PUSH2 0x10A6 DUP2 PUSH2 0x1080 JUMP JUMPDEST SWAP3 SWAP2 POP POP JUMP JUMPDEST PUSH1 0x0 PUSH1 0x20 DUP3 DUP5 SUB SLT ISZERO PUSH2 0x10C2 JUMPI PUSH2 0x10C1 PUSH2 0xB49 JUMP JUMPDEST JUMPDEST PUSH1 0x0 PUSH2 0x10D0 DUP5 DUP3 DUP6 ADD PUSH2 0x1097 JUMP JUMPDEST SWAP2 POP POP SWAP3 SWAP2 POP POP JUMP JUMPDEST PUSH32 0x4E487B7100000000000000000000000000000000000000000000000000000000 PUSH1 0x0 MSTORE PUSH1 0x22 PUSH1 0x4 MSTORE PUSH1 0x24 PUSH1 0x0 REVERT JUMPDEST PUSH1 0x0 PUSH1 0x2 DUP3 DIV SWAP1 POP PUSH1 0x1 DUP3 AND DUP1 PUSH2 0x1120 JUMPI PUSH1 0x7F DUP3 AND SWAP2 POP JUMPDEST PUSH1 0x20 DUP3 LT DUP2 SUB PUSH2 0x1133 JUMPI PUSH2 0x1132 PUSH2 0x10D9 JUMP JUMPDEST JUMPDEST POP SWAP2 SWAP1 POP JUMP JUMPDEST PUSH1 0x0 DUP2 SWAP1 POP DUP2 PUSH1 0x0 MSTORE PUSH1 0x20 PUSH1 0x0 KECCAK256 SWAP1 POP SWAP2 SWAP1 POP JUMP JUMPDEST PUSH1 0x0 PUSH1 0x20 PUSH1 0x1F DUP4 ADD DIV SWAP1 POP SWAP2 SWAP1 POP JUMP JUMPDEST PUSH1 0x0 DUP3 DUP3 SHL SWAP1 POP SWAP3 SWAP2 POP POP JUMP JUMPDEST PUSH1 0x0 PUSH1 0x8 DUP4 MUL PUSH2 0x119B PUSH32 0xFFFFFFFFFFFFFFFFFFFFFFFFFFFFFFFFFFFFFFFFFFFFFFFFFFFFFFFFFFFFFFFF DUP3 PUSH2 0x115E JUMP JUMPDEST PUSH2 0x11A5 DUP7 DUP4 PUSH2 0x115E JUMP JUMPDEST SWAP6 POP DUP1 NOT DUP5 AND SWAP4 POP DUP1 DUP7 AND DUP5 OR SWAP3 POP POP POP SWAP4 SWAP3 POP POP POP JUMP JUMPDEST PUSH1 0x0 DUP2 SWAP1 POP SWAP2 SWAP1 POP JUMP JUMPDEST PUSH1 0x0 PUSH2 0x11E2 PUSH2 0x11DD PUSH2 0x11D8 DUP5 PUSH2 0xD24 JUMP JUMPDEST PUSH2 0x11BD JUMP JUMPDEST PUSH2 0xD24 JUMP JUMPDEST SWAP1 POP SWAP2 SWAP1 POP JUMP JUMPDEST PUSH1 0x0 DUP2 SWAP1 POP SWAP2 SWAP1 POP JUMP JUMPDEST PUSH2 0x11FC DUP4 PUSH2 0x11C7 JUMP JUMPDEST PUSH2 0x1210 PUSH2 0x1208 DUP3 PUSH2 0x11E9 JUMP JUMPDEST DUP5 DUP5 SLOAD PUSH2 0x116B JUMP JUMPDEST DUP3 SSTORE POP POP POP POP JUMP JUMPDEST PUSH1 0x0 SWAP1 JUMP JUMPDEST PUSH2 0x1225 PUSH2 0x1218 JUMP JUMPDEST PUSH2 0x1230 DUP2 DUP5 DUP5 PUSH2 0x11F3 JUMP JUMPDEST POP POP POP JUMP JUMPDEST JUMPDEST DUP2 DUP2 LT ISZERO PUSH2 0x1254 JUMPI PUSH2 0x1249 PUSH1 0x0 DUP3 PUSH2 0x121D JUMP JUMPDEST PUSH1 0x1 DUP2 ADD SWAP1 POP PUSH2 0x1236 JUMP JUMPDEST POP POP JUMP JUMPDEST PUSH1 0x1F DUP3 GT ISZERO PUSH2 0x1299 JUMPI PUSH2 0x126A DUP2 PUSH2 0x1139 JUMP JUMPDEST PUSH2 0x1273 DUP5 PUSH2 0x114E JUMP JUMPDEST DUP2 ADD PUSH1 0x20 DUP6 LT ISZERO PUSH2 0x1282 JUMPI DUP2 SWAP1 POP JUMPDEST PUSH2 0x1296 PUSH2 0x128E DUP6 PUSH2 0x114E JUMP JUMPDEST DUP4 ADD DUP3 PUSH2 0x1235 JUMP JUMPDEST POP POP JUMPDEST POP POP POP JUMP JUMPDEST PUSH1 0x0 DUP3 DUP3 SHR SWAP1 POP SWAP3 SWAP2 POP POP JUMP JUMPDEST PUSH1 0x0 PUSH2 0x12BC PUSH1 0x0 NOT DUP5 PUSH1 0x8 MUL PUSH2 0x129E JUMP JUMPDEST NOT DUP1 DUP4 AND SWAP2 POP POP SWAP3 SWAP2 POP POP JUMP JUMPDEST PUSH1 0x0 PUSH2 0x12D5 DUP4 DUP4 PUSH2 0x12AB JUMP JUMPDEST SWAP2 POP DUP3 PUSH1 0x2 MUL DUP3 OR SWAP1 POP SWAP3 SWAP2 POP POP JUMP JUMPDEST PUSH2 0x12EE DUP3 PUSH2 0xEC7 JUMP JUMPDEST PUSH8 0xFFFFFFFFFFFFFFFF DUP2 GT ISZERO PUSH2 0x1307 JUMPI PUSH2 0x1306 PUSH2 0xBF9 JUMP JUMPDEST JUMPDEST PUSH2 0x1311 DUP3 SLOAD PUSH2 0x1108 JUMP JUMPDEST PUSH2 0x131C DUP3 DUP3 DUP6 PUSH2 0x1258 JUMP JUMPDEST PUSH1 0x0 PUSH1 0x20 SWAP1 POP PUSH1 0x1F DUP4 GT PUSH1 0x1 DUP2 EQ PUSH2 0x134F JUMPI PUSH1 0x0 DUP5 ISZERO PUSH2 0x133D JUMPI DUP3 DUP8 ADD MLOAD SWAP1 POP JUMPDEST PUSH2 0x1347 DUP6 DUP3 PUSH2 0x12C9 JUMP JUMPDEST DUP7 SSTORE POP PUSH2 0x13AF JUMP JUMPDEST PUSH1 0x1F NOT DUP5 AND PUSH2 0x135D DUP7 PUSH2 0x1139 JUMP JUMPDEST PUSH1 0x0 JUMPDEST DUP3 DUP2 LT ISZERO PUSH2 0x1385 JUMPI DUP5 DUP10 ADD MLOAD DUP3 SSTORE PUSH1 0x1 DUP3 ADD SWAP2 POP PUSH1 0x20 DUP6 ADD SWAP5 POP PUSH1 0x20 DUP2 ADD SWAP1 POP PUSH2 0x1360 JUMP JUMPDEST DUP7 DUP4 LT ISZERO PUSH2 0x13A2 JUMPI DUP5 DUP10 ADD MLOAD PUSH2 0x139E PUSH1 0x1F DUP10 AND DUP3 PUSH2 0x12AB JUMP JUMPDEST DUP4 SSTORE POP JUMPDEST PUSH1 0x1 PUSH1 0x2 DUP9 MUL ADD DUP9 SSTORE POP POP POP JUMPDEST POP POP POP POP POP POP JUMP JUMPDEST PUSH1 0x0 PUSH1 0x40 DUP3 ADD SWAP1 POP PUSH2 0x13CC PUSH1 0x0 DUP4 ADD DUP6 PUSH2 0x104A JUMP JUMPDEST PUSH2 0x13D9 PUSH1 0x20 DUP4 ADD DUP5 PUSH2 0x104A JUMP JUMPDEST SWAP4 SWAP3 POP POP POP JUMP INVALID LOG2 PUSH5 0x6970667358 0x22 SLT KECCAK256 POP 0xBA SLT PUSH11 0x425146D4968117B08A06B0 NOT 0xBD 0xB6 0xE6 0x4B 0x4D 0xC0 0xE4 0x2E PUSH8 0x28CBEF4F01E80264 PUSH20 0x6F6C634300081100336080604052348015610010 JUMPI PUSH1 0x0 DUP1 REVERT JUMPDEST POP PUSH1 0x40 MLOAD PUSH2 0x65D CODESIZE SUB DUP1 PUSH2 0x65D DUP4 CODECOPY DUP2 DUP2 ADD PUSH1 0x40 MSTORE DUP2 ADD SWAP1 PUSH2 0x32 SWAP2 SWAP1 PUSH2 0xDB JUMP JUMPDEST DUP1 PUSH1 0x0 DUP1 PUSH2 0x100 EXP DUP2 SLOAD DUP2 PUSH20 0xFFFFFFFFFFFFFFFFFFFFFFFFFFFFFFFFFFFFFFFF MUL NOT AND SWAP1 DUP4 PUSH20 0xFFFFFFFFFFFFFFFFFFFFFFFFFFFFFFFFFFFFFFFF AND MUL OR SWAP1 SSTORE POP POP PUSH2 0x108 JUMP JUMPDEST PUSH1 0x0 DUP1 REVERT JUMPDEST PUSH1 0x0 PUSH20 0xFFFFFFFFFFFFFFFFFFFFFFFFFFFFFFFFFFFFFFFF DUP3 AND SWAP1 POP SWAP2 SWAP1 POP JUMP JUMPDEST PUSH1 0x0 PUSH2 0xA8 DUP3 PUSH2 0x7D JUMP JUMPDEST SWAP1 POP SWAP2 SWAP1 POP JUMP JUMPDEST PUSH2 0xB8 DUP2 PUSH2 0x9D JUMP JUMPDEST DUP2 EQ PUSH2 0xC3 JUMPI PUSH1 0x0 DUP1 REVERT JUMPDEST POP JUMP JUMPDEST PUSH1 0x0 DUP2 MLOAD SWAP1 POP PUSH2 0xD5 DUP2 PUSH2 0xAF JUMP JUMPDEST SWAP3 SWAP2 POP POP JUMP JUMPDEST PUSH1 0x0 PUSH1 0x20 DUP3 DUP5 SUB SLT ISZERO PUSH2 0xF1 JUMPI PUSH2 0xF0 PUSH2 0x78 JUMP JUMPDEST JUMPDEST PUSH1 0x0 PUSH2 0xFF DUP5 DUP3 DUP6 ADD PUSH2 0xC6 JUMP JUMPDEST SWAP2 POP POP SWAP3 SWAP2 POP POP JUMP JUMPDEST PUSH2 0x546 DUP1 PUSH2 0x117 PUSH1 0x0 CODECOPY PUSH1 0x0 RETURN INVALID PUSH1 0x80 PUSH1 0x40 MSTORE CALLVALUE DUP1 ISZERO PUSH2 0x10 JUMPI PUSH1 0x0 DUP1 REVERT JUMPDEST POP PUSH1 0x4 CALLDATASIZE LT PUSH2 0x41 JUMPI PUSH1 0x0 CALLDATALOAD PUSH1 0xE0 SHR DUP1 PUSH4 0x18A231A9 EQ PUSH2 0x46 JUMPI DUP1 PUSH4 0x63A9C3D7 EQ PUSH2 0x64 JUMPI DUP1 PUSH4 0x6D263CEB EQ PUSH2 0x94 JUMPI JUMPDEST PUSH1 0x0 DUP1 REVERT JUMPDEST PUSH2 0x4E PUSH2 0xB0 JUMP JUMPDEST PUSH1 0x40 MLOAD PUSH2 0x5B SWAP2 SWAP1 PUSH2 0x45A JUMP JUMPDEST PUSH1 0x40 MLOAD DUP1 SWAP2 SUB SWAP1 RETURN JUMPDEST PUSH2 0x7E PUSH1 0x4 DUP1 CALLDATASIZE SUB DUP2 ADD SWAP1 PUSH2 0x79 SWAP2 SWAP1 PUSH2 0x4AD JUMP JUMPDEST PUSH2 0x196 JUMP JUMPDEST PUSH1 0x40 MLOAD PUSH2 0x8B SWAP2 SWAP1 PUSH2 0x4F5 JUMP JUMPDEST PUSH1 0x40 MLOAD DUP1 SWAP2 SUB SWAP1 RETURN JUMPDEST PUSH2 0xAE PUSH1 0x4 DUP1 CALLDATASIZE SUB DUP2 ADD SWAP1 PUSH2 0xA9 SWAP2 SWAP1 PUSH2 0x4AD JUMP JUMPDEST PUSH2 0x1FD JUMP JUMPDEST STOP JUMPDEST PUSH1 0x60 PUSH1 0x0 DUP1 SLOAD SWAP1 PUSH2 0x100 EXP SWAP1 DIV PUSH20 0xFFFFFFFFFFFFFFFFFFFFFFFFFFFFFFFFFFFFFFFF AND PUSH20 0xFFFFFFFFFFFFFFFFFFFFFFFFFFFFFFFFFFFFFFFF AND CALLER PUSH20 0xFFFFFFFFFFFFFFFFFFFFFFFFFFFFFFFFFFFFFFFF AND EQ PUSH2 0x10A JUMPI PUSH1 0x0 DUP1 REVERT JUMPDEST PUSH1 0x1 DUP1 SLOAD DUP1 PUSH1 0x20 MUL PUSH1 0x20 ADD PUSH1 0x40 MLOAD SWAP1 DUP2 ADD PUSH1 0x40 MSTORE DUP1 SWAP3 SWAP2 SWAP1 DUP2 DUP2 MSTORE PUSH1 0x20 ADD DUP3 DUP1 SLOAD DUP1 ISZERO PUSH2 0x18C JUMPI PUSH1 0x20 MUL DUP3 ADD SWAP2 SWAP1 PUSH1 0x0 MSTORE PUSH1 0x20 PUSH1 0x0 KECCAK256 SWAP1 JUMPDEST DUP2 PUSH1 0x0 SWAP1 SLOAD SWAP1 PUSH2 0x100 EXP SWAP1 DIV PUSH20 0xFFFFFFFFFFFFFFFFFFFFFFFFFFFFFFFFFFFFFFFF AND PUSH20 0xFFFFFFFFFFFFFFFFFFFFFFFFFFFFFFFFFFFFFFFF AND DUP2 MSTORE PUSH1 0x20 ADD SWAP1 PUSH1 0x1 ADD SWAP1 DUP1 DUP4 GT PUSH2 0x142 JUMPI JUMPDEST POP POP POP POP POP SWAP1 POP SWAP1 JUMP JUMPDEST PUSH1 0x0 PUSH1 0x2 PUSH1 0x0 DUP4 PUSH20 0xFFFFFFFFFFFFFFFFFFFFFFFFFFFFFFFFFFFFFFFF AND PUSH20 0xFFFFFFFFFFFFFFFFFFFFFFFFFFFFFFFFFFFFFFFF AND DUP2 MSTORE PUSH1 0x20 ADD SWAP1 DUP2 MSTORE PUSH1 0x20 ADD PUSH1 0x0 KECCAK256 PUSH1 0x0 SWAP1 SLOAD SWAP1 PUSH2 0x100 EXP SWAP1 DIV PUSH1 0xFF AND ISZERO PUSH2 0x1F3 JUMPI PUSH1 0x1 SWAP1 POP PUSH2 0x1F8 JUMP JUMPDEST PUSH1 0x0 SWAP1 POP JUMPDEST SWAP2 SWAP1 POP JUMP JUMPDEST PUSH1 0x0 DUP1 SLOAD SWAP1 PUSH2 0x100 EXP SWAP1 DIV PUSH20 0xFFFFFFFFFFFFFFFFFFFFFFFFFFFFFFFFFFFFFFFF AND PUSH20 0xFFFFFFFFFFFFFFFFFFFFFFFFFFFFFFFFFFFFFFFF AND CALLER PUSH20 0xFFFFFFFFFFFFFFFFFFFFFFFFFFFFFFFFFFFFFFFF AND EQ PUSH2 0x255 JUMPI PUSH1 0x0 DUP1 REVERT JUMPDEST PUSH1 0x2 PUSH1 0x0 DUP3 PUSH20 0xFFFFFFFFFFFFFFFFFFFFFFFFFFFFFFFFFFFFFFFF AND PUSH20 0xFFFFFFFFFFFFFFFFFFFFFFFFFFFFFFFFFFFFFFFF AND DUP2 MSTORE PUSH1 0x20 ADD SWAP1 DUP2 MSTORE PUSH1 0x20 ADD PUSH1 0x0 KECCAK256 PUSH1 0x0 SWAP1 SLOAD SWAP1 PUSH2 0x100 EXP SWAP1 DIV PUSH1 0xFF AND ISZERO PUSH2 0x2AC JUMPI PUSH1 0x0 DUP1 REVERT JUMPDEST PUSH1 0x1 PUSH1 0x2 PUSH1 0x0 DUP4 PUSH20 0xFFFFFFFFFFFFFFFFFFFFFFFFFFFFFFFFFFFFFFFF AND PUSH20 0xFFFFFFFFFFFFFFFFFFFFFFFFFFFFFFFFFFFFFFFF AND DUP2 MSTORE PUSH1 0x20 ADD SWAP1 DUP2 MSTORE PUSH1 0x20 ADD PUSH1 0x0 KECCAK256 PUSH1 0x0 PUSH2 0x100 EXP DUP2 SLOAD DUP2 PUSH1 0xFF MUL NOT AND SWAP1 DUP4 ISZERO ISZERO MUL OR SWAP1 SSTORE POP PUSH1 0x1 DUP2 SWAP1 DUP1 PUSH1 0x1 DUP2 SLOAD ADD DUP1 DUP3 SSTORE DUP1 SWAP2 POP POP PUSH1 0x1 SWAP1 SUB SWAP1 PUSH1 0x0 MSTORE PUSH1 0x20 PUSH1 0x0 KECCAK256 ADD PUSH1 0x0 SWAP1 SWAP2 SWAP1 SWAP2 SWAP1 SWAP2 PUSH2 0x100 EXP DUP2 SLOAD DUP2 PUSH20 0xFFFFFFFFFFFFFFFFFFFFFFFFFFFFFFFFFFFFFFFF MUL NOT AND SWAP1 DUP4 PUSH20 0xFFFFFFFFFFFFFFFFFFFFFFFFFFFFFFFFFFFFFFFF AND MUL OR SWAP1 SSTORE POP POP JUMP JUMPDEST PUSH1 0x0 DUP2 MLOAD SWAP1 POP SWAP2 SWAP1 POP JUMP JUMPDEST PUSH1 0x0 DUP3 DUP3 MSTORE PUSH1 0x20 DUP3 ADD SWAP1 POP SWAP3 SWAP2 POP POP JUMP JUMPDEST PUSH1 0x0 DUP2 SWAP1 POP PUSH1 0x20 DUP3 ADD SWAP1 POP SWAP2 SWAP1 POP JUMP JUMPDEST PUSH1 0x0 PUSH20 0xFFFFFFFFFFFFFFFFFFFFFFFFFFFFFFFFFFFFFFFF DUP3 AND SWAP1 POP SWAP2 SWAP1 POP JUMP JUMPDEST PUSH1 0x0 PUSH2 0x3C1 DUP3 PUSH2 0x396 JUMP JUMPDEST SWAP1 POP SWAP2 SWAP1 POP JUMP JUMPDEST PUSH2 0x3D1 DUP2 PUSH2 0x3B6 JUMP JUMPDEST DUP3 MSTORE POP POP JUMP JUMPDEST PUSH1 0x0 PUSH2 0x3E3 DUP4 DUP4 PUSH2 0x3C8 JUMP JUMPDEST PUSH1 0x20 DUP4 ADD SWAP1 POP SWAP3 SWAP2 POP POP JUMP JUMPDEST PUSH1 0x0 PUSH1 0x20 DUP3 ADD SWAP1 POP SWAP2 SWAP1 POP JUMP JUMPDEST PUSH1 0x0 PUSH2 0x407 DUP3 PUSH2 0x36A JUMP JUMPDEST PUSH2 0x411 DUP2 DUP6 PUSH2 0x375 JUMP JUMPDEST SWAP4 POP PUSH2 0x41C DUP4 PUSH2 0x386 JUMP JUMPDEST DUP1 PUSH1 0x0 JUMPDEST DUP4 DUP2 LT ISZERO PUSH2 0x44D JUMPI DUP2 MLOAD PUSH2 0x434 DUP9 DUP3 PUSH2 0x3D7 JUMP JUMPDEST SWAP8 POP PUSH2 0x43F DUP4 PUSH2 0x3EF JUMP JUMPDEST SWAP3 POP POP PUSH1 0x1 DUP2 ADD SWAP1 POP PUSH2 0x420 JUMP JUMPDEST POP DUP6 SWAP4 POP POP POP POP SWAP3 SWAP2 POP POP JUMP JUMPDEST PUSH1 0x0 PUSH1 0x20 DUP3 ADD SWAP1 POP DUP2 DUP2 SUB PUSH1 0x0 DUP4 ADD MSTORE PUSH2 0x474 DUP2 DUP5 PUSH2 0x3FC JUMP JUMPDEST SWAP1 POP SWAP3 SWAP2 POP POP JUMP JUMPDEST PUSH1 0x0 DUP1 REVERT JUMPDEST PUSH2 0x48A DUP2 PUSH2 0x3B6 JUMP JUMPDEST DUP2 EQ PUSH2 0x495 JUMPI PUSH1 0x0 DUP1 REVERT JUMPDEST POP JUMP JUMPDEST PUSH1 0x0 DUP2 CALLDATALOAD SWAP1 POP PUSH2 0x4A7 DUP2 PUSH2 0x481 JUMP JUMPDEST SWAP3 SWAP2 POP POP JUMP JUMPDEST PUSH1 0x0 PUSH1 0x20 DUP3 DUP5 SUB SLT ISZERO PUSH2 0x4C3 JUMPI PUSH2 0x4C2 PUSH2 0x47C JUMP JUMPDEST JUMPDEST PUSH1 0x0 PUSH2 0x4D1 DUP5 DUP3 DUP6 ADD PUSH2 0x498 JUMP JUMPDEST SWAP2 POP POP SWAP3 SWAP2 POP POP JUMP JUMPDEST PUSH1 0x0 DUP2 ISZERO ISZERO SWAP1 POP SWAP2 SWAP1 POP JUMP JUMPDEST PUSH2 0x4EF DUP2 PUSH2 0x4DA JUMP JUMPDEST DUP3 MSTORE POP POP JUMP JUMPDEST PUSH1 0x0 PUSH1 0x20 DUP3 ADD SWAP1 POP PUSH2 0x50A PUSH1 0x0 DUP4 ADD DUP5 PUSH2 0x4E6 JUMP JUMPDEST SWAP3 SWAP2 POP POP JUMP INVALID LOG2 PUSH5 0x6970667358 0x22 SLT KECCAK256 PUSH8 0xBF6AC9C8A31B6E20 0xDB CODESIZE 0xEA PUSH29 0xE884F3A64F29FA9A4C3D3B4673F3CDB66B97EB64736F6C634300081100 CALLER PUSH1 0x80 PUSH1 0x40 MSTORE CALLVALUE DUP1 ISZERO PUSH2 0x10 JUMPI PUSH1 0x0 DUP1 REVERT JUMPDEST POP PUSH1 0x40 MLOAD PUSH2 0x65D CODESIZE SUB DUP1 PUSH2 0x65D DUP4 CODECOPY DUP2 DUP2 ADD PUSH1 0x40 MSTORE DUP2 ADD SWAP1 PUSH2 0x32 SWAP2 SWAP1 PUSH2 0xDB JUMP JUMPDEST DUP1 PUSH1 0x0 DUP1 PUSH2 0x100 EXP DUP2 SLOAD DUP2 PUSH20 0xFFFFFFFFFFFFFFFFFFFFFFFFFFFFFFFFFFFFFFFF MUL NOT AND SWAP1 DUP4 PUSH20 0xFFFFFFFFFFFFFFFFFFFFFFFFFFFFFFFFFFFFFFFF AND MUL OR SWAP1 SSTORE POP POP PUSH2 0x108 JUMP JUMPDEST PUSH1 0x0 DUP1 REVERT JUMPDEST PUSH1 0x0 PUSH20 0xFFFFFFFFFFFFFFFFFFFFFFFFFFFFFFFFFFFFFFFF DUP3 AND SWAP1 POP SWAP2 SWAP1 POP JUMP JUMPDEST PUSH1 0x0 PUSH2 0xA8 DUP3 PUSH2 0x7D JUMP JUMPDEST SWAP1 POP SWAP2 SWAP1 POP JUMP JUMPDEST PUSH2 0xB8 DUP2 PUSH2 0x9D JUMP JUMPDEST DUP2 EQ PUSH2 0xC3 JUMPI PUSH1 0x0 DUP1 REVERT JUMPDEST POP JUMP JUMPDEST PUSH1 0x0 DUP2 MLOAD SWAP1 POP PUSH2 0xD5 DUP2 PUSH2 0xAF JUMP JUMPDEST SWAP3 SWAP2 POP POP JUMP JUMPDEST PUSH1 0x0 PUSH1 0x20 DUP3 DUP5 SUB SLT ISZERO PUSH2 0xF1 JUMPI PUSH2 0xF0 PUSH2 0x78 JUMP JUMPDEST JUMPDEST PUSH1 0x0 PUSH2 0xFF DUP5 DUP3 DUP6 ADD PUSH2 0xC6 JUMP JUMPDEST SWAP2 POP POP SWAP3 SWAP2 POP POP JUMP JUMPDEST PUSH2 0x546 DUP1 PUSH2 0x117 PUSH1 0x0 CODECOPY PUSH1 0x0 RETURN INVALID PUSH1 0x80 PUSH1 0x40 MSTORE CALLVALUE DUP1 ISZERO PUSH2 0x10 JUMPI PUSH1 0x0 DUP1 REVERT JUMPDEST POP PUSH1 0x4 CALLDATASIZE LT PUSH2 0x41 JUMPI PUSH1 0x0 CALLDATALOAD PUSH1 0xE0 SHR DUP1 PUSH4 0x4780468F EQ PUSH2 0x46 JUMPI DUP1 PUSH4 0x63A9C3D7 EQ PUSH2 0x62 JUMPI DUP1 PUSH4 0xF0D95090 EQ PUSH2 0x92 JUMPI JUMPDEST PUSH1 0x0 DUP1 REVERT JUMPDEST PUSH2 0x60 PUSH1 0x4 DUP1 CALLDATASIZE SUB DUP2 ADD SWAP1 PUSH2 0x5B SWAP2 SWAP1 PUSH2 0x3CD JUMP JUMPDEST PUSH2 0xB0 JUMP JUMPDEST STOP JUMPDEST PUSH2 0x7C PUSH1 0x4 DUP1 CALLDATASIZE SUB DUP2 ADD SWAP1 PUSH2 0x77 SWAP2 SWAP1 PUSH2 0x3CD JUMP JUMPDEST PUSH2 0x21D JUMP JUMPDEST PUSH1 0x40 MLOAD PUSH2 0x89 SWAP2 SWAP1 PUSH2 0x415 JUMP JUMPDEST PUSH1 0x40 MLOAD DUP1 SWAP2 SUB SWAP1 RETURN JUMPDEST PUSH2 0x9A PUSH2 0x284 JUMP JUMPDEST PUSH1 0x40 MLOAD PUSH2 0xA7 SWAP2 SWAP1 PUSH2 0x4EE JUMP JUMPDEST PUSH1 0x40 MLOAD DUP1 SWAP2 SUB SWAP1 RETURN JUMPDEST PUSH1 0x0 DUP1 SLOAD SWAP1 PUSH2 0x100 EXP SWAP1 DIV PUSH20 0xFFFFFFFFFFFFFFFFFFFFFFFFFFFFFFFFFFFFFFFF AND PUSH20 0xFFFFFFFFFFFFFFFFFFFFFFFFFFFFFFFFFFFFFFFF AND CALLER PUSH20 0xFFFFFFFFFFFFFFFFFFFFFFFFFFFFFFFFFFFFFFFF AND EQ PUSH2 0x108 JUMPI PUSH1 0x0 DUP1 REVERT JUMPDEST PUSH1 0x2 PUSH1 0x0 DUP3 PUSH20 0xFFFFFFFFFFFFFFFFFFFFFFFFFFFFFFFFFFFFFFFF AND PUSH20 0xFFFFFFFFFFFFFFFFFFFFFFFFFFFFFFFFFFFFFFFF AND DUP2 MSTORE PUSH1 0x20 ADD SWAP1 DUP2 MSTORE PUSH1 0x20 ADD PUSH1 0x0 KECCAK256 PUSH1 0x0 SWAP1 SLOAD SWAP1 PUSH2 0x100 EXP SWAP1 DIV PUSH1 0xFF AND ISZERO PUSH2 0x15F JUMPI PUSH1 0x0 DUP1 REVERT JUMPDEST PUSH1 0x1 PUSH1 0x2 PUSH1 0x0 DUP4 PUSH20 0xFFFFFFFFFFFFFFFFFFFFFFFFFFFFFFFFFFFFFFFF AND PUSH20 0xFFFFFFFFFFFFFFFFFFFFFFFFFFFFFFFFFFFFFFFF AND DUP2 MSTORE PUSH1 0x20 ADD SWAP1 DUP2 MSTORE PUSH1 0x20 ADD PUSH1 0x0 KECCAK256 PUSH1 0x0 PUSH2 0x100 EXP DUP2 SLOAD DUP2 PUSH1 0xFF MUL NOT AND SWAP1 DUP4 ISZERO ISZERO MUL OR SWAP1 SSTORE POP PUSH1 0x1 DUP2 SWAP1 DUP1 PUSH1 0x1 DUP2 SLOAD ADD DUP1 DUP3 SSTORE DUP1 SWAP2 POP POP PUSH1 0x1 SWAP1 SUB SWAP1 PUSH1 0x0 MSTORE PUSH1 0x20 PUSH1 0x0 KECCAK256 ADD PUSH1 0x0 SWAP1 SWAP2 SWAP1 SWAP2 SWAP1 SWAP2 PUSH2 0x100 EXP DUP2 SLOAD DUP2 PUSH20 0xFFFFFFFFFFFFFFFFFFFFFFFFFFFFFFFFFFFFFFFF MUL NOT AND SWAP1 DUP4 PUSH20 0xFFFFFFFFFFFFFFFFFFFFFFFFFFFFFFFFFFFFFFFF AND MUL OR SWAP1 SSTORE POP POP JUMP JUMPDEST PUSH1 0x0 PUSH1 0x2 PUSH1 0x0 DUP4 PUSH20 0xFFFFFFFFFFFFFFFFFFFFFFFFFFFFFFFFFFFFFFFF AND PUSH20 0xFFFFFFFFFFFFFFFFFFFFFFFFFFFFFFFFFFFFFFFF AND DUP2 MSTORE PUSH1 0x20 ADD SWAP1 DUP2 MSTORE PUSH1 0x20 ADD PUSH1 0x0 KECCAK256 PUSH1 0x0 SWAP1 SLOAD SWAP1 PUSH2 0x100 EXP SWAP1 DIV PUSH1 0xFF AND ISZERO PUSH2 0x27A JUMPI PUSH1 0x1 SWAP1 POP PUSH2 0x27F JUMP JUMPDEST PUSH1 0x0 SWAP1 POP JUMPDEST SWAP2 SWAP1 POP JUMP JUMPDEST PUSH1 0x60 PUSH1 0x0 DUP1 SLOAD SWAP1 PUSH2 0x100 EXP SWAP1 DIV PUSH20 0xFFFFFFFFFFFFFFFFFFFFFFFFFFFFFFFFFFFFFFFF AND PUSH20 0xFFFFFFFFFFFFFFFFFFFFFFFFFFFFFFFFFFFFFFFF AND CALLER PUSH20 0xFFFFFFFFFFFFFFFFFFFFFFFFFFFFFFFFFFFFFFFF AND EQ PUSH2 0x2DE JUMPI PUSH1 0x0 DUP1 REVERT JUMPDEST PUSH1 0x1 DUP1 SLOAD DUP1 PUSH1 0x20 MUL PUSH1 0x20 ADD PUSH1 0x40 MLOAD SWAP1 DUP2 ADD PUSH1 0x40 MSTORE DUP1 SWAP3 SWAP2 SWAP1 DUP2 DUP2 MSTORE PUSH1 0x20 ADD DUP3 DUP1 SLOAD DUP1 ISZERO PUSH2 0x360 JUMPI PUSH1 0x20 MUL DUP3 ADD SWAP2 SWAP1 PUSH1 0x0 MSTORE PUSH1 0x20 PUSH1 0x0 KECCAK256 SWAP1 JUMPDEST DUP2 PUSH1 0x0 SWAP1 SLOAD SWAP1 PUSH2 0x100 EXP SWAP1 DIV PUSH20 0xFFFFFFFFFFFFFFFFFFFFFFFFFFFFFFFFFFFFFFFF AND PUSH20 0xFFFFFFFFFFFFFFFFFFFFFFFFFFFFFFFFFFFFFFFF AND DUP2 MSTORE PUSH1 0x20 ADD SWAP1 PUSH1 0x1 ADD SWAP1 DUP1 DUP4 GT PUSH2 0x316 JUMPI JUMPDEST POP POP POP POP POP SWAP1 POP SWAP1 JUMP JUMPDEST PUSH1 0x0 DUP1 REVERT JUMPDEST PUSH1 0x0 PUSH20 0xFFFFFFFFFFFFFFFFFFFFFFFFFFFFFFFFFFFFFFFF DUP3 AND SWAP1 POP SWAP2 SWAP1 POP JUMP JUMPDEST PUSH1 0x0 PUSH2 0x39A DUP3 PUSH2 0x36F JUMP JUMPDEST SWAP1 POP SWAP2 SWAP1 POP JUMP JUMPDEST PUSH2 0x3AA DUP2 PUSH2 0x38F JUMP JUMPDEST DUP2 EQ PUSH2 0x3B5 JUMPI PUSH1 0x0 DUP1 REVERT JUMPDEST POP JUMP JUMPDEST PUSH1 0x0 DUP2 CALLDATALOAD SWAP1 POP PUSH2 0x3C7 DUP2 PUSH2 0x3A1 JUMP JUMPDEST SWAP3 SWAP2 POP POP JUMP JUMPDEST PUSH1 0x0 PUSH1 0x20 DUP3 DUP5 SUB SLT ISZERO PUSH2 0x3E3 JUMPI PUSH2 0x3E2 PUSH2 0x36A JUMP JUMPDEST JUMPDEST PUSH1 0x0 PUSH2 0x3F1 DUP5 DUP3 DUP6 ADD PUSH2 0x3B8 JUMP JUMPDEST SWAP2 POP POP SWAP3 SWAP2 POP POP JUMP JUMPDEST PUSH1 0x0 DUP2 ISZERO ISZERO SWAP1 POP SWAP2 SWAP1 POP JUMP JUMPDEST PUSH2 0x40F DUP2 PUSH2 0x3FA JUMP JUMPDEST DUP3 MSTORE POP POP JUMP JUMPDEST PUSH1 0x0 PUSH1 0x20 DUP3 ADD SWAP1 POP PUSH2 0x42A PUSH1 0x0 DUP4 ADD DUP5 PUSH2 0x406 JUMP JUMPDEST SWAP3 SWAP2 POP POP JUMP JUMPDEST PUSH1 0x0 DUP2 MLOAD SWAP1 POP SWAP2 SWAP1 POP JUMP JUMPDEST PUSH1 0x0 DUP3 DUP3 MSTORE PUSH1 0x20 DUP3 ADD SWAP1 POP SWAP3 SWAP2 POP POP JUMP JUMPDEST PUSH1 0x0 DUP2 SWAP1 POP PUSH1 0x20 DUP3 ADD SWAP1 POP SWAP2 SWAP1 POP JUMP JUMPDEST PUSH2 0x465 DUP2 PUSH2 0x38F JUMP JUMPDEST DUP3 MSTORE POP POP JUMP JUMPDEST PUSH1 0x0 PUSH2 0x477 DUP4 DUP4 PUSH2 0x45C JUMP JUMPDEST PUSH1 0x20 DUP4 ADD SWAP1 POP SWAP3 SWAP2 POP POP JUMP JUMPDEST PUSH1 0x0 PUSH1 0x20 DUP3 ADD SWAP1 POP SWAP2 SWAP1 POP JUMP JUMPDEST PUSH1 0x0 PUSH2 0x49B DUP3 PUSH2 0x430 JUMP JUMPDEST PUSH2 0x4A5 DUP2 DUP6 PUSH2 0x43B JUMP JUMPDEST SWAP4 POP PUSH2 0x4B0 DUP4 PUSH2 0x44C JUMP JUMPDEST DUP1 PUSH1 0x0 JUMPDEST DUP4 DUP2 LT ISZERO PUSH2 0x4E1 JUMPI DUP2 MLOAD PUSH2 0x4C8 DUP9 DUP3 PUSH2 0x46B JUMP JUMPDEST SWAP8 POP PUSH2 0x4D3 DUP4 PUSH2 0x483 JUMP JUMPDEST SWAP3 POP POP PUSH1 0x1 DUP2 ADD SWAP1 POP PUSH2 0x4B4 JUMP JUMPDEST POP DUP6 SWAP4 POP POP POP POP SWAP3 SWAP2 POP POP JUMP JUMPDEST PUSH1 0x0 PUSH1 0x20 DUP3 ADD SWAP1 POP DUP2 DUP2 SUB PUSH1 0x0 DUP4 ADD MSTORE PUSH2 0x508 DUP2 DUP5 PUSH2 0x490 JUMP JUMPDEST SWAP1 POP SWAP3 SWAP2 POP POP JUMP INVALID LOG2 PUSH5 0x6970667358 0x22 SLT KECCAK256 0x25 0xC2 0xC3 0xB4 PUSH14 0xC76EFF0369A39ED6F530F2B2DC43 0x4B SIGNEXTEND 0xBA PUSH25 0x2B89ACE6299046B46564736F6C634300081100336080604052 CALLVALUE DUP1 ISZERO PUSH2 0x10 JUMPI PUSH1 0x0 DUP1 REVERT JUMPDEST POP PUSH1 0x40 MLOAD PUSH2 0x795 CODESIZE SUB DUP1 PUSH2 0x795 DUP4 CODECOPY DUP2 DUP2 ADD PUSH1 0x40 MSTORE DUP2 ADD SWAP1 PUSH2 0x32 SWAP2 SWAP1 PUSH2 0xDB JUMP JUMPDEST DUP1 PUSH1 0x0 DUP1 PUSH2 0x100 EXP DUP2 SLOAD DUP2 PUSH20 0xFFFFFFFFFFFFFFFFFFFFFFFFFFFFFFFFFFFFFFFF MUL NOT AND SWAP1 DUP4 PUSH20 0xFFFFFFFFFFFFFFFFFFFFFFFFFFFFFFFFFFFFFFFF AND MUL OR SWAP1 SSTORE POP POP PUSH2 0x108 JUMP JUMPDEST PUSH1 0x0 DUP1 REVERT JUMPDEST PUSH1 0x0 PUSH20 0xFFFFFFFFFFFFFFFFFFFFFFFFFFFFFFFFFFFFFFFF DUP3 AND SWAP1 POP SWAP2 SWAP1 POP JUMP JUMPDEST PUSH1 0x0 PUSH2 0xA8 DUP3 PUSH2 0x7D JUMP JUMPDEST SWAP1 POP SWAP2 SWAP1 POP JUMP JUMPDEST PUSH2 0xB8 DUP2 PUSH2 0x9D JUMP JUMPDEST DUP2 EQ PUSH2 0xC3 JUMPI PUSH1 0x0 DUP1 REVERT JUMPDEST POP JUMP JUMPDEST PUSH1 0x0 DUP2 MLOAD SWAP1 POP PUSH2 0xD5 DUP2 PUSH2 0xAF JUMP JUMPDEST SWAP3 SWAP2 POP POP JUMP JUMPDEST PUSH1 0x0 PUSH1 0x20 DUP3 DUP5 SUB SLT ISZERO PUSH2 0xF1 JUMPI PUSH2 0xF0 PUSH2 0x78 JUMP JUMPDEST JUMPDEST PUSH1 0x0 PUSH2 0xFF DUP5 DUP3 DUP6 ADD PUSH2 0xC6 JUMP JUMPDEST SWAP2 POP POP SWAP3 SWAP2 POP POP JUMP JUMPDEST PUSH2 0x67E DUP1 PUSH2 0x117 PUSH1 0x0 CODECOPY PUSH1 0x0 RETURN INVALID PUSH1 0x80 PUSH1 0x40 MSTORE CALLVALUE DUP1 ISZERO PUSH2 0x10 JUMPI PUSH1 0x0 DUP1 REVERT JUMPDEST POP PUSH1 0x4 CALLDATASIZE LT PUSH2 0x41 JUMPI PUSH1 0x0 CALLDATALOAD PUSH1 0xE0 SHR DUP1 PUSH4 0x1107747E EQ PUSH2 0x46 JUMPI DUP1 PUSH4 0x8BFC8C71 EQ PUSH2 0x62 JUMPI DUP1 PUSH4 0xF40941D0 EQ PUSH2 0x7E JUMPI JUMPDEST PUSH1 0x0 DUP1 REVERT JUMPDEST PUSH2 0x60 PUSH1 0x4 DUP1 CALLDATASIZE SUB DUP2 ADD SWAP1 PUSH2 0x5B SWAP2 SWAP1 PUSH2 0x46C JUMP JUMPDEST PUSH2 0xAE JUMP JUMPDEST STOP JUMPDEST PUSH2 0x7C PUSH1 0x4 DUP1 CALLDATASIZE SUB DUP2 ADD SWAP1 PUSH2 0x77 SWAP2 SWAP1 PUSH2 0x499 JUMP JUMPDEST PUSH2 0x14A JUMP JUMPDEST STOP JUMPDEST PUSH2 0x98 PUSH1 0x4 DUP1 CALLDATASIZE SUB DUP2 ADD SWAP1 PUSH2 0x93 SWAP2 SWAP1 PUSH2 0x46C JUMP JUMPDEST PUSH2 0x295 JUMP JUMPDEST PUSH1 0x40 MLOAD PUSH2 0xA5 SWAP2 SWAP1 PUSH2 0x597 JUMP JUMPDEST PUSH1 0x40 MLOAD DUP1 SWAP2 SUB SWAP1 RETURN JUMPDEST PUSH1 0x0 DUP1 SLOAD SWAP1 PUSH2 0x100 EXP SWAP1 DIV PUSH20 0xFFFFFFFFFFFFFFFFFFFFFFFFFFFFFFFFFFFFFFFF AND PUSH20 0xFFFFFFFFFFFFFFFFFFFFFFFFFFFFFFFFFFFFFFFF AND CALLER PUSH20 0xFFFFFFFFFFFFFFFFFFFFFFFFFFFFFFFFFFFFFFFF AND EQ PUSH2 0x106 JUMPI PUSH1 0x0 DUP1 REVERT JUMPDEST DUP1 PUSH1 0x2 PUSH1 0x0 PUSH2 0x100 EXP DUP2 SLOAD DUP2 PUSH20 0xFFFFFFFFFFFFFFFFFFFFFFFFFFFFFFFFFFFFFFFF MUL NOT AND SWAP1 DUP4 PUSH20 0xFFFFFFFFFFFFFFFFFFFFFFFFFFFFFFFFFFFFFFFF AND MUL OR SWAP1 SSTORE POP POP JUMP JUMPDEST CALLER PUSH1 0x2 PUSH1 0x0 SWAP1 SLOAD SWAP1 PUSH2 0x100 EXP SWAP1 DIV PUSH20 0xFFFFFFFFFFFFFFFFFFFFFFFFFFFFFFFFFFFFFFFF AND PUSH20 0xFFFFFFFFFFFFFFFFFFFFFFFFFFFFFFFFFFFFFFFF AND PUSH4 0x63A9C3D7 DUP3 PUSH1 0x40 MLOAD DUP3 PUSH4 0xFFFFFFFF AND PUSH1 0xE0 SHL DUP2 MSTORE PUSH1 0x4 ADD PUSH2 0x1A6 SWAP2 SWAP1 PUSH2 0x5C8 JUMP JUMPDEST PUSH1 0x20 PUSH1 0x40 MLOAD DUP1 DUP4 SUB DUP2 DUP7 GAS STATICCALL ISZERO DUP1 ISZERO PUSH2 0x1C3 JUMPI RETURNDATASIZE PUSH1 0x0 DUP1 RETURNDATACOPY RETURNDATASIZE PUSH1 0x0 REVERT JUMPDEST POP POP POP POP PUSH1 0x40 MLOAD RETURNDATASIZE PUSH1 0x1F NOT PUSH1 0x1F DUP3 ADD AND DUP3 ADD DUP1 PUSH1 0x40 MSTORE POP DUP2 ADD SWAP1 PUSH2 0x1E7 SWAP2 SWAP1 PUSH2 0x61B JUMP JUMPDEST PUSH2 0x1F0 JUMPI PUSH1 0x0 DUP1 REVERT JUMPDEST PUSH1 0x1 PUSH1 0x0 DUP5 PUSH20 0xFFFFFFFFFFFFFFFFFFFFFFFFFFFFFFFFFFFFFFFF AND PUSH20 0xFFFFFFFFFFFFFFFFFFFFFFFFFFFFFFFFFFFFFFFF AND DUP2 MSTORE PUSH1 0x20 ADD SWAP1 DUP2 MSTORE PUSH1 0x20 ADD PUSH1 0x0 KECCAK256 DUP3 SWAP1 DUP1 PUSH1 0x1 DUP2 SLOAD ADD DUP1 DUP3 SSTORE DUP1 SWAP2 POP POP PUSH1 0x1 SWAP1 SUB SWAP1 PUSH1 0x0 MSTORE PUSH1 0x20 PUSH1 0x0 KECCAK256 ADD PUSH1 0x0 SWAP1 SWAP2 SWAP1 SWAP2 SWAP1 SWAP2 PUSH2 0x100 EXP DUP2 SLOAD DUP2 PUSH20 0xFFFFFFFFFFFFFFFFFFFFFFFFFFFFFFFFFFFFFFFF MUL NOT AND SWAP1 DUP4 PUSH20 0xFFFFFFFFFFFFFFFFFFFFFFFFFFFFFFFFFFFFFFFF AND MUL OR SWAP1 SSTORE POP POP POP POP JUMP JUMPDEST PUSH1 0x60 CALLER PUSH1 0x2 PUSH1 0x0 SWAP1 SLOAD SWAP1 PUSH2 0x100 EXP SWAP1 DIV PUSH20 0xFFFFFFFFFFFFFFFFFFFFFFFFFFFFFFFFFFFFFFFF AND PUSH20 0xFFFFFFFFFFFFFFFFFFFFFFFFFFFFFFFFFFFFFFFF AND PUSH4 0x63A9C3D7 DUP3 PUSH1 0x40 MLOAD DUP3 PUSH4 0xFFFFFFFF AND PUSH1 0xE0 SHL DUP2 MSTORE PUSH1 0x4 ADD PUSH2 0x2F3 SWAP2 SWAP1 PUSH2 0x5C8 JUMP JUMPDEST PUSH1 0x20 PUSH1 0x40 MLOAD DUP1 DUP4 SUB DUP2 DUP7 GAS STATICCALL ISZERO DUP1 ISZERO PUSH2 0x310 JUMPI RETURNDATASIZE PUSH1 0x0 DUP1 RETURNDATACOPY RETURNDATASIZE PUSH1 0x0 REVERT JUMPDEST POP POP POP POP PUSH1 0x40 MLOAD RETURNDATASIZE PUSH1 0x1F NOT PUSH1 0x1F DUP3 ADD AND DUP3 ADD DUP1 PUSH1 0x40 MSTORE POP DUP2 ADD SWAP1 PUSH2 0x334 SWAP2 SWAP1 PUSH2 0x61B JUMP JUMPDEST PUSH2 0x33D JUMPI PUSH1 0x0 DUP1 REVERT JUMPDEST PUSH1 0x1 PUSH1 0x0 DUP5 PUSH20 0xFFFFFFFFFFFFFFFFFFFFFFFFFFFFFFFFFFFFFFFF AND PUSH20 0xFFFFFFFFFFFFFFFFFFFFFFFFFFFFFFFFFFFFFFFF AND DUP2 MSTORE PUSH1 0x20 ADD SWAP1 DUP2 MSTORE PUSH1 0x20 ADD PUSH1 0x0 KECCAK256 DUP1 SLOAD DUP1 PUSH1 0x20 MUL PUSH1 0x20 ADD PUSH1 0x40 MLOAD SWAP1 DUP2 ADD PUSH1 0x40 MSTORE DUP1 SWAP3 SWAP2 SWAP1 DUP2 DUP2 MSTORE PUSH1 0x20 ADD DUP3 DUP1 SLOAD DUP1 ISZERO PUSH2 0x3FC JUMPI PUSH1 0x20 MUL DUP3 ADD SWAP2 SWAP1 PUSH1 0x0 MSTORE PUSH1 0x20 PUSH1 0x0 KECCAK256 SWAP1 JUMPDEST DUP2 PUSH1 0x0 SWAP1 SLOAD SWAP1 PUSH2 0x100 EXP SWAP1 DIV PUSH20 0xFFFFFFFFFFFFFFFFFFFFFFFFFFFFFFFFFFFFFFFF AND PUSH20 0xFFFFFFFFFFFFFFFFFFFFFFFFFFFFFFFFFFFFFFFF AND DUP2 MSTORE PUSH1 0x20 ADD SWAP1 PUSH1 0x1 ADD SWAP1 DUP1 DUP4 GT PUSH2 0x3B2 JUMPI JUMPDEST POP POP POP POP POP SWAP2 POP POP SWAP2 SWAP1 POP JUMP JUMPDEST PUSH1 0x0 DUP1 REVERT JUMPDEST PUSH1 0x0 PUSH20 0xFFFFFFFFFFFFFFFFFFFFFFFFFFFFFFFFFFFFFFFF DUP3 AND SWAP1 POP SWAP2 SWAP1 POP JUMP JUMPDEST PUSH1 0x0 PUSH2 0x439 DUP3 PUSH2 0x40E JUMP JUMPDEST SWAP1 POP SWAP2 SWAP1 POP JUMP JUMPDEST PUSH2 0x449 DUP2 PUSH2 0x42E JUMP JUMPDEST DUP2 EQ PUSH2 0x454 JUMPI PUSH1 0x0 DUP1 REVERT JUMPDEST POP JUMP JUMPDEST PUSH1 0x0 DUP2 CALLDATALOAD SWAP1 POP PUSH2 0x466 DUP2 PUSH2 0x440 JUMP JUMPDEST SWAP3 SWAP2 POP POP JUMP JUMPDEST PUSH1 0x0 PUSH1 0x20 DUP3 DUP5 SUB SLT ISZERO PUSH2 0x482 JUMPI PUSH2 0x481 PUSH2 0x409 JUMP JUMPDEST JUMPDEST PUSH1 0x0 PUSH2 0x490 DUP5 DUP3 DUP6 ADD PUSH2 0x457 JUMP JUMPDEST SWAP2 POP POP SWAP3 SWAP2 POP POP JUMP JUMPDEST PUSH1 0x0 DUP1 PUSH1 0x40 DUP4 DUP6 SUB SLT ISZERO PUSH2 0x4B0 JUMPI PUSH2 0x4AF PUSH2 0x409 JUMP JUMPDEST JUMPDEST PUSH1 0x0 PUSH2 0x4BE DUP6 DUP3 DUP7 ADD PUSH2 0x457 JUMP JUMPDEST SWAP3 POP POP PUSH1 0x20 PUSH2 0x4CF DUP6 DUP3 DUP7 ADD PUSH2 0x457 JUMP JUMPDEST SWAP2 POP POP SWAP3 POP SWAP3 SWAP1 POP JUMP JUMPDEST PUSH1 0x0 DUP2 MLOAD SWAP1 POP SWAP2 SWAP1 POP JUMP JUMPDEST PUSH1 0x0 DUP3 DUP3 MSTORE PUSH1 0x20 DUP3 ADD SWAP1 POP SWAP3 SWAP2 POP POP JUMP JUMPDEST PUSH1 0x0 DUP2 SWAP1 POP PUSH1 0x20 DUP3 ADD SWAP1 POP SWAP2 SWAP1 POP JUMP JUMPDEST PUSH2 0x50E DUP2 PUSH2 0x42E JUMP JUMPDEST DUP3 MSTORE POP POP JUMP JUMPDEST PUSH1 0x0 PUSH2 0x520 DUP4 DUP4 PUSH2 0x505 JUMP JUMPDEST PUSH1 0x20 DUP4 ADD SWAP1 POP SWAP3 SWAP2 POP POP JUMP JUMPDEST PUSH1 0x0 PUSH1 0x20 DUP3 ADD SWAP1 POP SWAP2 SWAP1 POP JUMP JUMPDEST PUSH1 0x0 PUSH2 0x544 DUP3 PUSH2 0x4D9 JUMP JUMPDEST PUSH2 0x54E DUP2 DUP6 PUSH2 0x4E4 JUMP JUMPDEST SWAP4 POP PUSH2 0x559 DUP4 PUSH2 0x4F5 JUMP JUMPDEST DUP1 PUSH1 0x0 JUMPDEST DUP4 DUP2 LT ISZERO PUSH2 0x58A JUMPI DUP2 MLOAD PUSH2 0x571 DUP9 DUP3 PUSH2 0x514 JUMP JUMPDEST SWAP8 POP PUSH2 0x57C DUP4 PUSH2 0x52C JUMP JUMPDEST SWAP3 POP POP PUSH1 0x1 DUP2 ADD SWAP1 POP PUSH2 0x55D JUMP JUMPDEST POP DUP6 SWAP4 POP POP POP POP SWAP3 SWAP2 POP POP JUMP JUMPDEST PUSH1 0x0 PUSH1 0x20 DUP3 ADD SWAP1 POP DUP2 DUP2 SUB PUSH1 0x0 DUP4 ADD MSTORE PUSH2 0x5B1 DUP2 DUP5 PUSH2 0x539 JUMP JUMPDEST SWAP1 POP SWAP3 SWAP2 POP POP JUMP JUMPDEST PUSH2 0x5C2 DUP2 PUSH2 0x42E JUMP JUMPDEST DUP3 MSTORE POP POP JUMP JUMPDEST PUSH1 0x0 PUSH1 0x20 DUP3 ADD SWAP1 POP PUSH2 0x5DD PUSH1 0x0 DUP4 ADD DUP5 PUSH2 0x5B9 JUMP JUMPDEST SWAP3 SWAP2 POP POP JUMP JUMPDEST PUSH1 0x0 DUP2 ISZERO ISZERO SWAP1 POP SWAP2 SWAP1 POP JUMP JUMPDEST PUSH2 0x5F8 DUP2 PUSH2 0x5E3 JUMP JUMPDEST DUP2 EQ PUSH2 0x603 JUMPI PUSH1 0x0 DUP1 REVERT JUMPDEST POP JUMP JUMPDEST PUSH1 0x0 DUP2 MLOAD SWAP1 POP PUSH2 0x615 DUP2 PUSH2 0x5EF JUMP JUMPDEST SWAP3 SWAP2 POP POP JUMP JUMPDEST PUSH1 0x0 PUSH1 0x20 DUP3 DUP5 SUB SLT ISZERO PUSH2 0x631 JUMPI PUSH2 0x630 PUSH2 0x409 JUMP JUMPDEST JUMPDEST PUSH1 0x0 PUSH2 0x63F DUP5 DUP3 DUP6 ADD PUSH2 0x606 JUMP JUMPDEST SWAP2 POP POP SWAP3 SWAP2 POP POP JUMP INVALID LOG2 PUSH5 0x6970667358 0x22 SLT KECCAK256 0xE5 EXP CALLDATASIZE PUSH18 0x559224B366FD6C52262ACC989503D65758D6 PUSH19 0xB3BCA0864B114F315764736F6C634300081100 CALLER "},"gasEstimates":{"creation":{"codeDepositCost":"359400","executionCost":"infinite","totalCost":"infinite"},"external":{"admin()":"2514","getAllContractAddress(string)":"infinite"}},"methodIdentifiers":{"admin()":"f851a440","getAllContractAddress(string)":"c4fe354c"}},"storageLayout":{"storage":[{"astId":12,"contract":"ElectronicMedicalRecords.sol:ContractDeployer","label":"bunchOfContractAddress","offset":0,"slot":"0","type":"t_mapping(t_string_memory_ptr,t_array(t_struct(ContractAddress)6_storage)dyn_storage)"},{"astId":14,"contract":"ElectronicMedicalRecords.sol:ContractDeployer","label":"admin","offset":0,"slot":"1","type":"t_address"}],"types":{"t_address":{"encoding":"inplace","label":"address","numberOfBytes":"20"},"t_array(t_struct(ContractAddress)6_storage)dyn_storage":{"base":"t_struct(ContractAddress)6_storage","encoding":"dynamic_array","label":"struct ContractDeployer.ContractAddress[]","numberOfBytes":"32"},"t_mapping(t_string_memory_ptr,t_array(t_struct(ContractAddress)6_storage)dyn_storage)":{"encoding":"mapping","key":"t_string_memory_ptr","label":"mapping(string => struct ContractDeployer.ContractAddress[])","numberOfBytes":"32","value":"t_array(t_struct(ContractAddress)6_storage)dyn_storage"},"t_string_memory_ptr":{"encoding":"bytes","label":"string","numberOfBytes":"32"},"t_string_storage":{"encoding":"bytes","label":"string","numberOfBytes":"32"},"t_struct(ContractAddress)6_storage":{"encoding":"inplace","label":"struct ContractDeployer.ContractAddress","members":[{"astId":3,"contract":"ElectronicMedicalRecords.sol:ContractDeployer","label":"name","offset":0,"slot":"0","type":"t_string_storage"},{"astId":5,"contract":"ElectronicMedicalRecords.sol:ContractDeployer","label":"contractAddress","offset":0,"slot":"1","type":"t_address"}],"numberOfBytes":"64"}}},"userdoc":{"kind":"user","methods":{},"version":1}}