{"abi":[{"inputs":[],"stateMutability":"nonpayable","type":"constructor"},{"inputs":[],"name":"admin","outputs":[{"internalType":"address","name":"","type":"address"}],"stateMutability":"view","type":"function"},{"inputs":[{"internalType":"string","name":"_name","type":"string"}],"name":"getAllContractAddress","outputs":[{"components":[{"internalType":"string","name":"name","type":"string"},{"internalType":"address","name":"contractAddress","type":"address"}],"internalType":"struct ContractDeployer.ContractAddress[]","name":"data","type":"tuple[]"}],"stateMutability":"view","type":"function"}],"devdoc":{"kind":"dev","methods":{},"version":1},"evm":{"assembly":"    /* \"ElectronicMedicalRecords.sol\":66:1263  contract ContractDeployer {... */\n  mstore(0x40, 0x80)\n    /* \"ElectronicMedicalRecords.sol\":297:1054  constructor() {... */\n  callvalue\n  dup1\n  iszero\n  tag_1\n  jumpi\n  0x00\n  dup1\n  revert\ntag_1:\n  pop\n    /* \"ElectronicMedicalRecords.sol\":330:340  msg.sender */\n  caller\n    /* \"ElectronicMedicalRecords.sol\":322:327  admin */\n  0x01\n  0x00\n    /* \"ElectronicMedicalRecords.sol\":322:340  admin = msg.sender */\n  0x0100\n  exp\n  dup2\n  sload\n  dup2\n  0xffffffffffffffffffffffffffffffffffffffff\n  mul\n  not\n  and\n  swap1\n  dup4\n  0xffffffffffffffffffffffffffffffffffffffff\n  and\n  mul\n  or\n  swap1\n  sstore\n  pop\n    /* \"ElectronicMedicalRecords.sol\":353:368  address patient */\n  0x00\n    /* \"ElectronicMedicalRecords.sol\":391:401  msg.sender */\n  caller\n    /* \"ElectronicMedicalRecords.sol\":379:402  new Patient(msg.sender) */\n  mload(0x40)\n  tag_4\n  swap1\n  tag_5\n  jump\t// in\ntag_4:\n  tag_6\n  swap2\n  swap1\n  tag_7\n  jump\t// in\ntag_6:\n  mload(0x40)\n  dup1\n  swap2\n  sub\n  swap1\n  0x00\n  create\n  dup1\n  iszero\n  dup1\n  iszero\n  tag_8\n  jumpi\n  returndatasize\n  0x00\n  dup1\n  returndatacopy\n  revert(0x00, returndatasize)\ntag_8:\n  pop\n    /* \"ElectronicMedicalRecords.sol\":353:403  address patient = address(new Patient(msg.sender)) */\n  swap1\n  pop\n    /* \"ElectronicMedicalRecords.sol\":414:436  bunchOfContractAddress */\n  0x00\n    /* \"ElectronicMedicalRecords.sol\":414:446  bunchOfContractAddress[\"pantek\"] */\n  mload(0x40)\n  tag_9\n  swap1\n  tag_10\n  jump\t// in\ntag_9:\n  swap1\n  dup2\n  mstore\n  0x20\n  add\n  mload(0x40)\n  dup1\n  swap2\n  sub\n  swap1\n  keccak256\n    /* \"ElectronicMedicalRecords.sol\":452:487  ContractAddress(\"patient\", patient) */\n  mload(0x40)\n  dup1\n  0x40\n  add\n  0x40\n  mstore\n  dup1\n  mload(0x40)\n  dup1\n  0x40\n  add\n  0x40\n  mstore\n  dup1\n  0x07\n  dup2\n  mstore\n  0x20\n  add\n  0x70617469656e7400000000000000000000000000000000000000000000000000\n  dup2\n  mstore\n  pop\n  dup2\n  mstore\n  0x20\n  add\n    /* \"ElectronicMedicalRecords.sol\":479:486  patient */\n  dup4\n    /* \"ElectronicMedicalRecords.sol\":452:487  ContractAddress(\"patient\", patient) */\n  0xffffffffffffffffffffffffffffffffffffffff\n  and\n  dup2\n  mstore\n  pop\n    /* \"ElectronicMedicalRecords.sol\":414:488  bunchOfContractAddress[\"pantek\"].push(ContractAddress(\"patient\", patient)) */\n  swap1\n  dup1\n  0x01\n  dup2\n  sload\n  add\n  dup1\n  dup3\n  sstore\n  dup1\n  swap2\n  pop\n  pop\n  0x01\n  swap1\n  sub\n  swap1\n  0x00\n  mstore\n  keccak256(0x00, 0x20)\n  swap1\n  0x02\n  mul\n  add\n  0x00\n  swap1\n  swap2\n  swap1\n  swap2\n  swap1\n  swap2\n  pop\n  0x00\n  dup3\n  add\n  mload\n  dup2\n  0x00\n  add\n  swap1\n  dup2\n  tag_12\n  swap2\n  swap1\n  tag_13\n  jump\t// in\ntag_12:\n  pop\n  0x20\n  dup3\n  add\n  mload\n  dup2\n  0x01\n  add\n  exp(0x0100, 0x00)\n  dup2\n  sload\n  dup2\n  0xffffffffffffffffffffffffffffffffffffffff\n  mul\n  not\n  and\n  swap1\n  dup4\n  0xffffffffffffffffffffffffffffffffffffffff\n  and\n  mul\n  or\n  swap1\n  sstore\n  pop\n  pop\n  pop\n    /* \"ElectronicMedicalRecords.sol\":501:527  address patientVerificator */\n  0x00\n    /* \"ElectronicMedicalRecords.sol\":561:571  msg.sender */\n  caller\n    /* \"ElectronicMedicalRecords.sol\":538:572  new PatientVerificator(msg.sender) */\n  mload(0x40)\n  tag_14\n  swap1\n  tag_15\n  jump\t// in\ntag_14:\n  tag_16\n  swap2\n  swap1\n  tag_7\n  jump\t// in\ntag_16:\n  mload(0x40)\n  dup1\n  swap2\n  sub\n  swap1\n  0x00\n  create\n  dup1\n  iszero\n  dup1\n  iszero\n  tag_17\n  jumpi\n  returndatasize\n  0x00\n  dup1\n  returndatacopy\n  revert(0x00, returndatasize)\ntag_17:\n  pop\n    /* \"ElectronicMedicalRecords.sol\":501:573  address patientVerificator = address(new PatientVerificator(msg.sender)) */\n  swap1\n  pop\n    /* \"ElectronicMedicalRecords.sol\":584:606  bunchOfContractAddress */\n  0x00\n    /* \"ElectronicMedicalRecords.sol\":584:616  bunchOfContractAddress[\"pantek\"] */\n  mload(0x40)\n  tag_18\n  swap1\n  tag_10\n  jump\t// in\ntag_18:\n  swap1\n  dup2\n  mstore\n  0x20\n  add\n  mload(0x40)\n  dup1\n  swap2\n  sub\n  swap1\n  keccak256\n    /* \"ElectronicMedicalRecords.sol\":622:679  ContractAddress(\"patientVerificator\", patientVerificator) */\n  mload(0x40)\n  dup1\n  0x40\n  add\n  0x40\n  mstore\n  dup1\n  mload(0x40)\n  dup1\n  0x40\n  add\n  0x40\n  mstore\n  dup1\n  0x12\n  dup2\n  mstore\n  0x20\n  add\n  0x70617469656e745665726966696361746f720000000000000000000000000000\n  dup2\n  mstore\n  pop\n  dup2\n  mstore\n  0x20\n  add\n    /* \"ElectronicMedicalRecords.sol\":660:678  patientVerificator */\n  dup4\n    /* \"ElectronicMedicalRecords.sol\":622:679  ContractAddress(\"patientVerificator\", patientVerificator) */\n  0xffffffffffffffffffffffffffffffffffffffff\n  and\n  dup2\n  mstore\n  pop\n    /* \"ElectronicMedicalRecords.sol\":584:680  bunchOfContractAddress[\"pantek\"].push(ContractAddress(\"patientVerificator\", patientVerificator)) */\n  swap1\n  dup1\n  0x01\n  dup2\n  sload\n  add\n  dup1\n  dup3\n  sstore\n  dup1\n  swap2\n  pop\n  pop\n  0x01\n  swap1\n  sub\n  swap1\n  0x00\n  mstore\n  keccak256(0x00, 0x20)\n  swap1\n  0x02\n  mul\n  add\n  0x00\n  swap1\n  swap2\n  swap1\n  swap2\n  swap1\n  swap2\n  pop\n  0x00\n  dup3\n  add\n  mload\n  dup2\n  0x00\n  add\n  swap1\n  dup2\n  tag_20\n  swap2\n  swap1\n  tag_13\n  jump\t// in\ntag_20:\n  pop\n  0x20\n  dup3\n  add\n  mload\n  dup2\n  0x01\n  add\n  exp(0x0100, 0x00)\n  dup2\n  sload\n  dup2\n  0xffffffffffffffffffffffffffffffffffffffff\n  mul\n  not\n  and\n  swap1\n  dup4\n  0xffffffffffffffffffffffffffffffffffffffff\n  and\n  mul\n  or\n  swap1\n  sstore\n  pop\n  pop\n  pop\n    /* \"ElectronicMedicalRecords.sol\":693:718  address doctorVerificator */\n  0x00\n    /* \"ElectronicMedicalRecords.sol\":751:761  msg.sender */\n  caller\n    /* \"ElectronicMedicalRecords.sol\":729:762  new DoctorVerificator(msg.sender) */\n  mload(0x40)\n  tag_21\n  swap1\n  tag_22\n  jump\t// in\ntag_21:\n  tag_23\n  swap2\n  swap1\n  tag_7\n  jump\t// in\ntag_23:\n  mload(0x40)\n  dup1\n  swap2\n  sub\n  swap1\n  0x00\n  create\n  dup1\n  iszero\n  dup1\n  iszero\n  tag_24\n  jumpi\n  returndatasize\n  0x00\n  dup1\n  returndatacopy\n  revert(0x00, returndatasize)\ntag_24:\n  pop\n    /* \"ElectronicMedicalRecords.sol\":693:763  address doctorVerificator = address(new DoctorVerificator(msg.sender)) */\n  swap1\n  pop\n    /* \"ElectronicMedicalRecords.sol\":774:796  bunchOfContractAddress */\n  0x00\n    /* \"ElectronicMedicalRecords.sol\":774:806  bunchOfContractAddress[\"pantek\"] */\n  mload(0x40)\n  tag_25\n  swap1\n  tag_10\n  jump\t// in\ntag_25:\n  swap1\n  dup2\n  mstore\n  0x20\n  add\n  mload(0x40)\n  dup1\n  swap2\n  sub\n  swap1\n  keccak256\n    /* \"ElectronicMedicalRecords.sol\":812:867  ContractAddress(\"doctorVerificator\", doctorVerificator) */\n  mload(0x40)\n  dup1\n  0x40\n  add\n  0x40\n  mstore\n  dup1\n  mload(0x40)\n  dup1\n  0x40\n  add\n  0x40\n  mstore\n  dup1\n  0x11\n  dup2\n  mstore\n  0x20\n  add\n  0x646f63746f725665726966696361746f72000000000000000000000000000000\n  dup2\n  mstore\n  pop\n  dup2\n  mstore\n  0x20\n  add\n    /* \"ElectronicMedicalRecords.sol\":849:866  doctorVerificator */\n  dup4\n    /* \"ElectronicMedicalRecords.sol\":812:867  ContractAddress(\"doctorVerificator\", doctorVerificator) */\n  0xffffffffffffffffffffffffffffffffffffffff\n  and\n  dup2\n  mstore\n  pop\n    /* \"ElectronicMedicalRecords.sol\":774:868  bunchOfContractAddress[\"pantek\"].push(ContractAddress(\"doctorVerificator\", doctorVerificator)) */\n  swap1\n  dup1\n  0x01\n  dup2\n  sload\n  add\n  dup1\n  dup3\n  sstore\n  dup1\n  swap2\n  pop\n  pop\n  0x01\n  swap1\n  sub\n  swap1\n  0x00\n  mstore\n  keccak256(0x00, 0x20)\n  swap1\n  0x02\n  mul\n  add\n  0x00\n  swap1\n  swap2\n  swap1\n  swap2\n  swap1\n  swap2\n  pop\n  0x00\n  dup3\n  add\n  mload\n  dup2\n  0x00\n  add\n  swap1\n  dup2\n  tag_27\n  swap2\n  swap1\n  tag_13\n  jump\t// in\ntag_27:\n  pop\n  0x20\n  dup3\n  add\n  mload\n  dup2\n  0x01\n  add\n  exp(0x0100, 0x00)\n  dup2\n  sload\n  dup2\n  0xffffffffffffffffffffffffffffffffffffffff\n  mul\n  not\n  and\n  swap1\n  dup4\n  0xffffffffffffffffffffffffffffffffffffffff\n  and\n  mul\n  or\n  swap1\n  sstore\n  pop\n  pop\n  pop\n    /* \"ElectronicMedicalRecords.sol\":881:903  address doctorRelation */\n  0x00\n    /* \"ElectronicMedicalRecords.sol\":933:943  msg.sender */\n  caller\n    /* \"ElectronicMedicalRecords.sol\":914:944  new DoctorRelation(msg.sender) */\n  mload(0x40)\n  tag_28\n  swap1\n  tag_29\n  jump\t// in\ntag_28:\n  tag_30\n  swap2\n  swap1\n  tag_7\n  jump\t// in\ntag_30:\n  mload(0x40)\n  dup1\n  swap2\n  sub\n  swap1\n  0x00\n  create\n  dup1\n  iszero\n  dup1\n  iszero\n  tag_31\n  jumpi\n  returndatasize\n  0x00\n  dup1\n  returndatacopy\n  revert(0x00, returndatasize)\ntag_31:\n  pop\n    /* \"ElectronicMedicalRecords.sol\":881:945  address doctorRelation = address(new DoctorRelation(msg.sender)) */\n  swap1\n  pop\n    /* \"ElectronicMedicalRecords.sol\":956:978  bunchOfContractAddress */\n  0x00\n    /* \"ElectronicMedicalRecords.sol\":956:988  bunchOfContractAddress[\"pantek\"] */\n  mload(0x40)\n  tag_32\n  swap1\n  tag_10\n  jump\t// in\ntag_32:\n  swap1\n  dup2\n  mstore\n  0x20\n  add\n  mload(0x40)\n  dup1\n  swap2\n  sub\n  swap1\n  keccak256\n    /* \"ElectronicMedicalRecords.sol\":994:1043  ContractAddress(\"doctorRelation\", doctorRelation) */\n  mload(0x40)\n  dup1\n  0x40\n  add\n  0x40\n  mstore\n  dup1\n  mload(0x40)\n  dup1\n  0x40\n  add\n  0x40\n  mstore\n  dup1\n  0x0e\n  dup2\n  mstore\n  0x20\n  add\n  0x646f63746f7252656c6174696f6e000000000000000000000000000000000000\n  dup2\n  mstore\n  pop\n  dup2\n  mstore\n  0x20\n  add\n    /* \"ElectronicMedicalRecords.sol\":1028:1042  doctorRelation */\n  dup4\n    /* \"ElectronicMedicalRecords.sol\":994:1043  ContractAddress(\"doctorRelation\", doctorRelation) */\n  0xffffffffffffffffffffffffffffffffffffffff\n  and\n  dup2\n  mstore\n  pop\n    /* \"ElectronicMedicalRecords.sol\":956:1044  bunchOfContractAddress[\"pantek\"].push(ContractAddress(\"doctorRelation\", doctorRelation)) */\n  swap1\n  dup1\n  0x01\n  dup2\n  sload\n  add\n  dup1\n  dup3\n  sstore\n  dup1\n  swap2\n  pop\n  pop\n  0x01\n  swap1\n  sub\n  swap1\n  0x00\n  mstore\n  keccak256(0x00, 0x20)\n  swap1\n  0x02\n  mul\n  add\n  0x00\n  swap1\n  swap2\n  swap1\n  swap2\n  swap1\n  swap2\n  pop\n  0x00\n  dup3\n  add\n  mload\n  dup2\n  0x00\n  add\n  swap1\n  dup2\n  tag_34\n  swap2\n  swap1\n  tag_13\n  jump\t// in\ntag_34:\n  pop\n  0x20\n  dup3\n  add\n  mload\n  dup2\n  0x01\n  add\n  exp(0x0100, 0x00)\n  dup2\n  sload\n  dup2\n  0xffffffffffffffffffffffffffffffffffffffff\n  mul\n  not\n  and\n  swap1\n  dup4\n  0xffffffffffffffffffffffffffffffffffffffff\n  and\n  mul\n  or\n  swap1\n  sstore\n  pop\n  pop\n  pop\n    /* \"ElectronicMedicalRecords.sol\":311:1054  {... */\n  pop\n  pop\n  pop\n  pop\n    /* \"ElectronicMedicalRecords.sol\":66:1263  contract ContractDeployer {... */\n  jump(tag_35)\ntag_5:\n  dataSize(sub_1)\n  dup1\n  dataOffset(sub_1)\n  dup4\n  codecopy\n  add\n  swap1\n  jump\t// out\ntag_15:\n  dataSize(sub_2)\n  dup1\n  dataOffset(sub_2)\n  dup4\n  codecopy\n  add\n  swap1\n  jump\t// out\ntag_22:\n  dataSize(sub_3)\n  dup1\n  dataOffset(sub_3)\n  dup4\n  codecopy\n  add\n  swap1\n  jump\t// out\ntag_29:\n  dataSize(sub_4)\n  dup1\n  dataOffset(sub_4)\n  dup4\n  codecopy\n  add\n  swap1\n  jump\t// out\n    /* \"#utility.yul\":7:133   */\ntag_36:\n    /* \"#utility.yul\":44:51   */\n  0x00\n    /* \"#utility.yul\":84:126   */\n  0xffffffffffffffffffffffffffffffffffffffff\n    /* \"#utility.yul\":77:82   */\n  dup3\n    /* \"#utility.yul\":73:127   */\n  and\n    /* \"#utility.yul\":62:127   */\n  swap1\n  pop\n    /* \"#utility.yul\":7:133   */\n  swap2\n  swap1\n  pop\n  jump\t// out\n    /* \"#utility.yul\":139:235   */\ntag_37:\n    /* \"#utility.yul\":176:183   */\n  0x00\n    /* \"#utility.yul\":205:229   */\n  tag_65\n    /* \"#utility.yul\":223:228   */\n  dup3\n    /* \"#utility.yul\":205:229   */\n  tag_36\n  jump\t// in\ntag_65:\n    /* \"#utility.yul\":194:229   */\n  swap1\n  pop\n    /* \"#utility.yul\":139:235   */\n  swap2\n  swap1\n  pop\n  jump\t// out\n    /* \"#utility.yul\":241:359   */\ntag_38:\n    /* \"#utility.yul\":328:352   */\n  tag_67\n    /* \"#utility.yul\":346:351   */\n  dup2\n    /* \"#utility.yul\":328:352   */\n  tag_37\n  jump\t// in\ntag_67:\n    /* \"#utility.yul\":323:326   */\n  dup3\n    /* \"#utility.yul\":316:353   */\n  mstore\n    /* \"#utility.yul\":241:359   */\n  pop\n  pop\n  jump\t// out\n    /* \"#utility.yul\":365:587   */\ntag_7:\n    /* \"#utility.yul\":458:462   */\n  0x00\n    /* \"#utility.yul\":496:498   */\n  0x20\n    /* \"#utility.yul\":485:494   */\n  dup3\n    /* \"#utility.yul\":481:499   */\n  add\n    /* \"#utility.yul\":473:499   */\n  swap1\n  pop\n    /* \"#utility.yul\":509:580   */\n  tag_69\n    /* \"#utility.yul\":577:578   */\n  0x00\n    /* \"#utility.yul\":566:575   */\n  dup4\n    /* \"#utility.yul\":562:579   */\n  add\n    /* \"#utility.yul\":553:559   */\n  dup5\n    /* \"#utility.yul\":509:580   */\n  tag_38\n  jump\t// in\ntag_69:\n    /* \"#utility.yul\":365:587   */\n  swap3\n  swap2\n  pop\n  pop\n  jump\t// out\n    /* \"#utility.yul\":593:741   */\ntag_39:\n    /* \"#utility.yul\":695:706   */\n  0x00\n    /* \"#utility.yul\":732:735   */\n  dup2\n    /* \"#utility.yul\":717:735   */\n  swap1\n  pop\n    /* \"#utility.yul\":593:741   */\n  swap3\n  swap2\n  pop\n  pop\n  jump\t// out\n    /* \"#utility.yul\":747:903   */\ntag_40:\n    /* \"#utility.yul\":887:895   */\n  0x70616e74656b0000000000000000000000000000000000000000000000000000\n    /* \"#utility.yul\":883:884   */\n  0x00\n    /* \"#utility.yul\":875:881   */\n  dup3\n    /* \"#utility.yul\":871:885   */\n  add\n    /* \"#utility.yul\":864:896   */\n  mstore\n    /* \"#utility.yul\":747:903   */\n  pop\n  jump\t// out\n    /* \"#utility.yul\":909:1309   */\ntag_41:\n    /* \"#utility.yul\":1069:1072   */\n  0x00\n    /* \"#utility.yul\":1090:1174   */\n  tag_73\n    /* \"#utility.yul\":1172:1173   */\n  0x06\n    /* \"#utility.yul\":1167:1170   */\n  dup4\n    /* \"#utility.yul\":1090:1174   */\n  tag_39\n  jump\t// in\ntag_73:\n    /* \"#utility.yul\":1083:1174   */\n  swap2\n  pop\n    /* \"#utility.yul\":1183:1276   */\n  tag_74\n    /* \"#utility.yul\":1272:1275   */\n  dup3\n    /* \"#utility.yul\":1183:1276   */\n  tag_40\n  jump\t// in\ntag_74:\n    /* \"#utility.yul\":1301:1302   */\n  0x06\n    /* \"#utility.yul\":1296:1299   */\n  dup3\n    /* \"#utility.yul\":1292:1303   */\n  add\n    /* \"#utility.yul\":1285:1303   */\n  swap1\n  pop\n    /* \"#utility.yul\":909:1309   */\n  swap2\n  swap1\n  pop\n  jump\t// out\n    /* \"#utility.yul\":1315:1696   */\ntag_10:\n    /* \"#utility.yul\":1500:1503   */\n  0x00\n    /* \"#utility.yul\":1522:1670   */\n  tag_76\n    /* \"#utility.yul\":1666:1669   */\n  dup3\n    /* \"#utility.yul\":1522:1670   */\n  tag_41\n  jump\t// in\ntag_76:\n    /* \"#utility.yul\":1515:1670   */\n  swap2\n  pop\n    /* \"#utility.yul\":1687:1690   */\n  dup2\n    /* \"#utility.yul\":1680:1690   */\n  swap1\n  pop\n    /* \"#utility.yul\":1315:1696   */\n  swap2\n  swap1\n  pop\n  jump\t// out\n    /* \"#utility.yul\":1702:1801   */\ntag_42:\n    /* \"#utility.yul\":1754:1760   */\n  0x00\n    /* \"#utility.yul\":1788:1793   */\n  dup2\n    /* \"#utility.yul\":1782:1794   */\n  mload\n    /* \"#utility.yul\":1772:1794   */\n  swap1\n  pop\n    /* \"#utility.yul\":1702:1801   */\n  swap2\n  swap1\n  pop\n  jump\t// out\n    /* \"#utility.yul\":1807:1987   */\ntag_43:\n    /* \"#utility.yul\":1855:1932   */\n  0x4e487b7100000000000000000000000000000000000000000000000000000000\n    /* \"#utility.yul\":1852:1853   */\n  0x00\n    /* \"#utility.yul\":1845:1933   */\n  mstore\n    /* \"#utility.yul\":1952:1956   */\n  0x41\n    /* \"#utility.yul\":1949:1950   */\n  0x04\n    /* \"#utility.yul\":1942:1957   */\n  mstore\n    /* \"#utility.yul\":1976:1980   */\n  0x24\n    /* \"#utility.yul\":1973:1974   */\n  0x00\n    /* \"#utility.yul\":1966:1981   */\n  revert\n    /* \"#utility.yul\":1993:2173   */\ntag_44:\n    /* \"#utility.yul\":2041:2118   */\n  0x4e487b7100000000000000000000000000000000000000000000000000000000\n    /* \"#utility.yul\":2038:2039   */\n  0x00\n    /* \"#utility.yul\":2031:2119   */\n  mstore\n    /* \"#utility.yul\":2138:2142   */\n  0x22\n    /* \"#utility.yul\":2135:2136   */\n  0x04\n    /* \"#utility.yul\":2128:2143   */\n  mstore\n    /* \"#utility.yul\":2162:2166   */\n  0x24\n    /* \"#utility.yul\":2159:2160   */\n  0x00\n    /* \"#utility.yul\":2152:2167   */\n  revert\n    /* \"#utility.yul\":2179:2499   */\ntag_45:\n    /* \"#utility.yul\":2223:2229   */\n  0x00\n    /* \"#utility.yul\":2260:2261   */\n  0x02\n    /* \"#utility.yul\":2254:2258   */\n  dup3\n    /* \"#utility.yul\":2250:2262   */\n  div\n    /* \"#utility.yul\":2240:2262   */\n  swap1\n  pop\n    /* \"#utility.yul\":2307:2308   */\n  0x01\n    /* \"#utility.yul\":2301:2305   */\n  dup3\n    /* \"#utility.yul\":2297:2309   */\n  and\n    /* \"#utility.yul\":2328:2346   */\n  dup1\n    /* \"#utility.yul\":2318:2399   */\n  tag_81\n  jumpi\n    /* \"#utility.yul\":2384:2388   */\n  0x7f\n    /* \"#utility.yul\":2376:2382   */\n  dup3\n    /* \"#utility.yul\":2372:2389   */\n  and\n    /* \"#utility.yul\":2362:2389   */\n  swap2\n  pop\n    /* \"#utility.yul\":2318:2399   */\ntag_81:\n    /* \"#utility.yul\":2446:2448   */\n  0x20\n    /* \"#utility.yul\":2438:2444   */\n  dup3\n    /* \"#utility.yul\":2435:2449   */\n  lt\n    /* \"#utility.yul\":2415:2433   */\n  dup2\n    /* \"#utility.yul\":2412:2450   */\n  sub\n    /* \"#utility.yul\":2409:2493   */\n  tag_82\n  jumpi\n    /* \"#utility.yul\":2465:2483   */\n  tag_83\n  tag_44\n  jump\t// in\ntag_83:\n    /* \"#utility.yul\":2409:2493   */\ntag_82:\n    /* \"#utility.yul\":2230:2499   */\n  pop\n    /* \"#utility.yul\":2179:2499   */\n  swap2\n  swap1\n  pop\n  jump\t// out\n    /* \"#utility.yul\":2505:2646   */\ntag_46:\n    /* \"#utility.yul\":2554:2558   */\n  0x00\n    /* \"#utility.yul\":2577:2580   */\n  dup2\n    /* \"#utility.yul\":2569:2580   */\n  swap1\n  pop\n    /* \"#utility.yul\":2600:2603   */\n  dup2\n    /* \"#utility.yul\":2597:2598   */\n  0x00\n    /* \"#utility.yul\":2590:2604   */\n  mstore\n    /* \"#utility.yul\":2634:2638   */\n  0x20\n    /* \"#utility.yul\":2631:2632   */\n  0x00\n    /* \"#utility.yul\":2621:2639   */\n  keccak256\n    /* \"#utility.yul\":2613:2639   */\n  swap1\n  pop\n    /* \"#utility.yul\":2505:2646   */\n  swap2\n  swap1\n  pop\n  jump\t// out\n    /* \"#utility.yul\":2652:2745   */\ntag_47:\n    /* \"#utility.yul\":2689:2695   */\n  0x00\n    /* \"#utility.yul\":2736:2738   */\n  0x20\n    /* \"#utility.yul\":2731:2733   */\n  0x1f\n    /* \"#utility.yul\":2724:2729   */\n  dup4\n    /* \"#utility.yul\":2720:2734   */\n  add\n    /* \"#utility.yul\":2716:2739   */\n  div\n    /* \"#utility.yul\":2706:2739   */\n  swap1\n  pop\n    /* \"#utility.yul\":2652:2745   */\n  swap2\n  swap1\n  pop\n  jump\t// out\n    /* \"#utility.yul\":2751:2858   */\ntag_48:\n    /* \"#utility.yul\":2795:2803   */\n  0x00\n    /* \"#utility.yul\":2845:2850   */\n  dup3\n    /* \"#utility.yul\":2839:2843   */\n  dup3\n    /* \"#utility.yul\":2835:2851   */\n  shl\n    /* \"#utility.yul\":2814:2851   */\n  swap1\n  pop\n    /* \"#utility.yul\":2751:2858   */\n  swap3\n  swap2\n  pop\n  pop\n  jump\t// out\n    /* \"#utility.yul\":2864:3257   */\ntag_49:\n    /* \"#utility.yul\":2933:2939   */\n  0x00\n    /* \"#utility.yul\":2983:2984   */\n  0x08\n    /* \"#utility.yul\":2971:2981   */\n  dup4\n    /* \"#utility.yul\":2967:2985   */\n  mul\n    /* \"#utility.yul\":3006:3103   */\n  tag_88\n    /* \"#utility.yul\":3036:3102   */\n  0xffffffffffffffffffffffffffffffffffffffffffffffffffffffffffffffff\n    /* \"#utility.yul\":3025:3034   */\n  dup3\n    /* \"#utility.yul\":3006:3103   */\n  tag_48\n  jump\t// in\ntag_88:\n    /* \"#utility.yul\":3124:3163   */\n  tag_89\n    /* \"#utility.yul\":3154:3162   */\n  dup7\n    /* \"#utility.yul\":3143:3152   */\n  dup4\n    /* \"#utility.yul\":3124:3163   */\n  tag_48\n  jump\t// in\ntag_89:\n    /* \"#utility.yul\":3112:3163   */\n  swap6\n  pop\n    /* \"#utility.yul\":3196:3200   */\n  dup1\n    /* \"#utility.yul\":3192:3201   */\n  not\n    /* \"#utility.yul\":3185:3190   */\n  dup5\n    /* \"#utility.yul\":3181:3202   */\n  and\n    /* \"#utility.yul\":3172:3202   */\n  swap4\n  pop\n    /* \"#utility.yul\":3245:3249   */\n  dup1\n    /* \"#utility.yul\":3235:3243   */\n  dup7\n    /* \"#utility.yul\":3231:3250   */\n  and\n    /* \"#utility.yul\":3224:3229   */\n  dup5\n    /* \"#utility.yul\":3221:3251   */\n  or\n    /* \"#utility.yul\":3211:3251   */\n  swap3\n  pop\n    /* \"#utility.yul\":2940:3257   */\n  pop\n  pop\n    /* \"#utility.yul\":2864:3257   */\n  swap4\n  swap3\n  pop\n  pop\n  pop\n  jump\t// out\n    /* \"#utility.yul\":3263:3340   */\ntag_50:\n    /* \"#utility.yul\":3300:3307   */\n  0x00\n    /* \"#utility.yul\":3329:3334   */\n  dup2\n    /* \"#utility.yul\":3318:3334   */\n  swap1\n  pop\n    /* \"#utility.yul\":3263:3340   */\n  swap2\n  swap1\n  pop\n  jump\t// out\n    /* \"#utility.yul\":3346:3406   */\ntag_51:\n    /* \"#utility.yul\":3374:3377   */\n  0x00\n    /* \"#utility.yul\":3395:3400   */\n  dup2\n    /* \"#utility.yul\":3388:3400   */\n  swap1\n  pop\n    /* \"#utility.yul\":3346:3406   */\n  swap2\n  swap1\n  pop\n  jump\t// out\n    /* \"#utility.yul\":3412:3554   */\ntag_52:\n    /* \"#utility.yul\":3462:3471   */\n  0x00\n    /* \"#utility.yul\":3495:3548   */\n  tag_93\n    /* \"#utility.yul\":3513:3547   */\n  tag_94\n    /* \"#utility.yul\":3522:3546   */\n  tag_95\n    /* \"#utility.yul\":3540:3545   */\n  dup5\n    /* \"#utility.yul\":3522:3546   */\n  tag_50\n  jump\t// in\ntag_95:\n    /* \"#utility.yul\":3513:3547   */\n  tag_51\n  jump\t// in\ntag_94:\n    /* \"#utility.yul\":3495:3548   */\n  tag_50\n  jump\t// in\ntag_93:\n    /* \"#utility.yul\":3482:3548   */\n  swap1\n  pop\n    /* \"#utility.yul\":3412:3554   */\n  swap2\n  swap1\n  pop\n  jump\t// out\n    /* \"#utility.yul\":3560:3635   */\ntag_53:\n    /* \"#utility.yul\":3603:3606   */\n  0x00\n    /* \"#utility.yul\":3624:3629   */\n  dup2\n    /* \"#utility.yul\":3617:3629   */\n  swap1\n  pop\n    /* \"#utility.yul\":3560:3635   */\n  swap2\n  swap1\n  pop\n  jump\t// out\n    /* \"#utility.yul\":3641:3910   */\ntag_54:\n    /* \"#utility.yul\":3751:3790   */\n  tag_98\n    /* \"#utility.yul\":3782:3789   */\n  dup4\n    /* \"#utility.yul\":3751:3790   */\n  tag_52\n  jump\t// in\ntag_98:\n    /* \"#utility.yul\":3812:3903   */\n  tag_99\n    /* \"#utility.yul\":3861:3902   */\n  tag_100\n    /* \"#utility.yul\":3885:3901   */\n  dup3\n    /* \"#utility.yul\":3861:3902   */\n  tag_53\n  jump\t// in\ntag_100:\n    /* \"#utility.yul\":3853:3859   */\n  dup5\n    /* \"#utility.yul\":3846:3850   */\n  dup5\n    /* \"#utility.yul\":3840:3851   */\n  sload\n    /* \"#utility.yul\":3812:3903   */\n  tag_49\n  jump\t// in\ntag_99:\n    /* \"#utility.yul\":3806:3810   */\n  dup3\n    /* \"#utility.yul\":3799:3904   */\n  sstore\n    /* \"#utility.yul\":3717:3910   */\n  pop\n    /* \"#utility.yul\":3641:3910   */\n  pop\n  pop\n  pop\n  jump\t// out\n    /* \"#utility.yul\":3916:3989   */\ntag_55:\n    /* \"#utility.yul\":3961:3964   */\n  0x00\n    /* \"#utility.yul\":3916:3989   */\n  swap1\n  jump\t// out\n    /* \"#utility.yul\":3995:4184   */\ntag_56:\n    /* \"#utility.yul\":4072:4104   */\n  tag_103\n  tag_55\n  jump\t// in\ntag_103:\n    /* \"#utility.yul\":4113:4178   */\n  tag_104\n    /* \"#utility.yul\":4171:4177   */\n  dup2\n    /* \"#utility.yul\":4163:4169   */\n  dup5\n    /* \"#utility.yul\":4157:4161   */\n  dup5\n    /* \"#utility.yul\":4113:4178   */\n  tag_54\n  jump\t// in\ntag_104:\n    /* \"#utility.yul\":4048:4184   */\n  pop\n    /* \"#utility.yul\":3995:4184   */\n  pop\n  pop\n  jump\t// out\n    /* \"#utility.yul\":4190:4376   */\ntag_57:\n    /* \"#utility.yul\":4250:4370   */\ntag_106:\n    /* \"#utility.yul\":4267:4270   */\n  dup2\n    /* \"#utility.yul\":4260:4265   */\n  dup2\n    /* \"#utility.yul\":4257:4271   */\n  lt\n    /* \"#utility.yul\":4250:4370   */\n  iszero\n  tag_108\n  jumpi\n    /* \"#utility.yul\":4321:4360   */\n  tag_109\n    /* \"#utility.yul\":4358:4359   */\n  0x00\n    /* \"#utility.yul\":4351:4356   */\n  dup3\n    /* \"#utility.yul\":4321:4360   */\n  tag_56\n  jump\t// in\ntag_109:\n    /* \"#utility.yul\":4294:4295   */\n  0x01\n    /* \"#utility.yul\":4287:4292   */\n  dup2\n    /* \"#utility.yul\":4283:4296   */\n  add\n    /* \"#utility.yul\":4274:4296   */\n  swap1\n  pop\n    /* \"#utility.yul\":4250:4370   */\n  jump(tag_106)\ntag_108:\n    /* \"#utility.yul\":4190:4376   */\n  pop\n  pop\n  jump\t// out\n    /* \"#utility.yul\":4382:4925   */\ntag_58:\n    /* \"#utility.yul\":4483:4485   */\n  0x1f\n    /* \"#utility.yul\":4478:4481   */\n  dup3\n    /* \"#utility.yul\":4475:4486   */\n  gt\n    /* \"#utility.yul\":4472:4918   */\n  iszero\n  tag_111\n  jumpi\n    /* \"#utility.yul\":4517:4555   */\n  tag_112\n    /* \"#utility.yul\":4549:4554   */\n  dup2\n    /* \"#utility.yul\":4517:4555   */\n  tag_46\n  jump\t// in\ntag_112:\n    /* \"#utility.yul\":4601:4630   */\n  tag_113\n    /* \"#utility.yul\":4619:4629   */\n  dup5\n    /* \"#utility.yul\":4601:4630   */\n  tag_47\n  jump\t// in\ntag_113:\n    /* \"#utility.yul\":4591:4599   */\n  dup2\n    /* \"#utility.yul\":4587:4631   */\n  add\n    /* \"#utility.yul\":4784:4786   */\n  0x20\n    /* \"#utility.yul\":4772:4782   */\n  dup6\n    /* \"#utility.yul\":4769:4787   */\n  lt\n    /* \"#utility.yul\":4766:4815   */\n  iszero\n  tag_114\n  jumpi\n    /* \"#utility.yul\":4805:4813   */\n  dup2\n    /* \"#utility.yul\":4790:4813   */\n  swap1\n  pop\n    /* \"#utility.yul\":4766:4815   */\ntag_114:\n    /* \"#utility.yul\":4828:4908   */\n  tag_115\n    /* \"#utility.yul\":4884:4906   */\n  tag_116\n    /* \"#utility.yul\":4902:4905   */\n  dup6\n    /* \"#utility.yul\":4884:4906   */\n  tag_47\n  jump\t// in\ntag_116:\n    /* \"#utility.yul\":4874:4882   */\n  dup4\n    /* \"#utility.yul\":4870:4907   */\n  add\n    /* \"#utility.yul\":4857:4868   */\n  dup3\n    /* \"#utility.yul\":4828:4908   */\n  tag_57\n  jump\t// in\ntag_115:\n    /* \"#utility.yul\":4487:4918   */\n  pop\n  pop\n    /* \"#utility.yul\":4472:4918   */\ntag_111:\n    /* \"#utility.yul\":4382:4925   */\n  pop\n  pop\n  pop\n  jump\t// out\n    /* \"#utility.yul\":4931:5048   */\ntag_59:\n    /* \"#utility.yul\":4985:4993   */\n  0x00\n    /* \"#utility.yul\":5035:5040   */\n  dup3\n    /* \"#utility.yul\":5029:5033   */\n  dup3\n    /* \"#utility.yul\":5025:5041   */\n  shr\n    /* \"#utility.yul\":5004:5041   */\n  swap1\n  pop\n    /* \"#utility.yul\":4931:5048   */\n  swap3\n  swap2\n  pop\n  pop\n  jump\t// out\n    /* \"#utility.yul\":5054:5223   */\ntag_60:\n    /* \"#utility.yul\":5098:5104   */\n  0x00\n    /* \"#utility.yul\":5131:5182   */\n  tag_119\n    /* \"#utility.yul\":5179:5180   */\n  0x00\n    /* \"#utility.yul\":5175:5181   */\n  not\n    /* \"#utility.yul\":5167:5172   */\n  dup5\n    /* \"#utility.yul\":5164:5165   */\n  0x08\n    /* \"#utility.yul\":5160:5173   */\n  mul\n    /* \"#utility.yul\":5131:5182   */\n  tag_59\n  jump\t// in\ntag_119:\n    /* \"#utility.yul\":5127:5183   */\n  not\n    /* \"#utility.yul\":5212:5216   */\n  dup1\n    /* \"#utility.yul\":5206:5210   */\n  dup4\n    /* \"#utility.yul\":5202:5217   */\n  and\n    /* \"#utility.yul\":5192:5217   */\n  swap2\n  pop\n    /* \"#utility.yul\":5105:5223   */\n  pop\n    /* \"#utility.yul\":5054:5223   */\n  swap3\n  swap2\n  pop\n  pop\n  jump\t// out\n    /* \"#utility.yul\":5228:5523   */\ntag_61:\n    /* \"#utility.yul\":5304:5308   */\n  0x00\n    /* \"#utility.yul\":5450:5479   */\n  tag_121\n    /* \"#utility.yul\":5475:5478   */\n  dup4\n    /* \"#utility.yul\":5469:5473   */\n  dup4\n    /* \"#utility.yul\":5450:5479   */\n  tag_60\n  jump\t// in\ntag_121:\n    /* \"#utility.yul\":5442:5479   */\n  swap2\n  pop\n    /* \"#utility.yul\":5512:5515   */\n  dup3\n    /* \"#utility.yul\":5509:5510   */\n  0x02\n    /* \"#utility.yul\":5505:5516   */\n  mul\n    /* \"#utility.yul\":5499:5503   */\n  dup3\n    /* \"#utility.yul\":5496:5517   */\n  or\n    /* \"#utility.yul\":5488:5517   */\n  swap1\n  pop\n    /* \"#utility.yul\":5228:5523   */\n  swap3\n  swap2\n  pop\n  pop\n  jump\t// out\n    /* \"#utility.yul\":5528:6923   */\ntag_13:\n    /* \"#utility.yul\":5645:5682   */\n  tag_123\n    /* \"#utility.yul\":5678:5681   */\n  dup3\n    /* \"#utility.yul\":5645:5682   */\n  tag_42\n  jump\t// in\ntag_123:\n    /* \"#utility.yul\":5747:5765   */\n  0xffffffffffffffff\n    /* \"#utility.yul\":5739:5745   */\n  dup2\n    /* \"#utility.yul\":5736:5766   */\n  gt\n    /* \"#utility.yul\":5733:5789   */\n  iszero\n  tag_124\n  jumpi\n    /* \"#utility.yul\":5769:5787   */\n  tag_125\n  tag_43\n  jump\t// in\ntag_125:\n    /* \"#utility.yul\":5733:5789   */\ntag_124:\n    /* \"#utility.yul\":5813:5851   */\n  tag_126\n    /* \"#utility.yul\":5845:5849   */\n  dup3\n    /* \"#utility.yul\":5839:5850   */\n  sload\n    /* \"#utility.yul\":5813:5851   */\n  tag_45\n  jump\t// in\ntag_126:\n    /* \"#utility.yul\":5898:5965   */\n  tag_127\n    /* \"#utility.yul\":5958:5964   */\n  dup3\n    /* \"#utility.yul\":5950:5956   */\n  dup3\n    /* \"#utility.yul\":5944:5948   */\n  dup6\n    /* \"#utility.yul\":5898:5965   */\n  tag_58\n  jump\t// in\ntag_127:\n    /* \"#utility.yul\":5992:5993   */\n  0x00\n    /* \"#utility.yul\":6016:6020   */\n  0x20\n    /* \"#utility.yul\":6003:6020   */\n  swap1\n  pop\n    /* \"#utility.yul\":6048:6050   */\n  0x1f\n    /* \"#utility.yul\":6040:6046   */\n  dup4\n    /* \"#utility.yul\":6037:6051   */\n  gt\n    /* \"#utility.yul\":6065:6066   */\n  0x01\n    /* \"#utility.yul\":6060:6678   */\n  dup2\n  eq\n  tag_129\n  jumpi\n    /* \"#utility.yul\":6722:6723   */\n  0x00\n    /* \"#utility.yul\":6739:6745   */\n  dup5\n    /* \"#utility.yul\":6736:6813   */\n  iszero\n  tag_130\n  jumpi\n    /* \"#utility.yul\":6788:6797   */\n  dup3\n    /* \"#utility.yul\":6783:6786   */\n  dup8\n    /* \"#utility.yul\":6779:6798   */\n  add\n    /* \"#utility.yul\":6773:6799   */\n  mload\n    /* \"#utility.yul\":6764:6799   */\n  swap1\n  pop\n    /* \"#utility.yul\":6736:6813   */\ntag_130:\n    /* \"#utility.yul\":6839:6906   */\n  tag_131\n    /* \"#utility.yul\":6899:6905   */\n  dup6\n    /* \"#utility.yul\":6892:6897   */\n  dup3\n    /* \"#utility.yul\":6839:6906   */\n  tag_61\n  jump\t// in\ntag_131:\n    /* \"#utility.yul\":6833:6837   */\n  dup7\n    /* \"#utility.yul\":6826:6907   */\n  sstore\n    /* \"#utility.yul\":6695:6917   */\n  pop\n    /* \"#utility.yul\":6030:6917   */\n  jump(tag_128)\n    /* \"#utility.yul\":6060:6678   */\ntag_129:\n    /* \"#utility.yul\":6112:6116   */\n  0x1f\n    /* \"#utility.yul\":6108:6117   */\n  not\n    /* \"#utility.yul\":6100:6106   */\n  dup5\n    /* \"#utility.yul\":6096:6118   */\n  and\n    /* \"#utility.yul\":6146:6183   */\n  tag_132\n    /* \"#utility.yul\":6178:6182   */\n  dup7\n    /* \"#utility.yul\":6146:6183   */\n  tag_46\n  jump\t// in\ntag_132:\n    /* \"#utility.yul\":6205:6206   */\n  0x00\n    /* \"#utility.yul\":6219:6427   */\ntag_133:\n    /* \"#utility.yul\":6233:6240   */\n  dup3\n    /* \"#utility.yul\":6230:6231   */\n  dup2\n    /* \"#utility.yul\":6227:6241   */\n  lt\n    /* \"#utility.yul\":6219:6427   */\n  iszero\n  tag_135\n  jumpi\n    /* \"#utility.yul\":6312:6321   */\n  dup5\n    /* \"#utility.yul\":6307:6310   */\n  dup10\n    /* \"#utility.yul\":6303:6322   */\n  add\n    /* \"#utility.yul\":6297:6323   */\n  mload\n    /* \"#utility.yul\":6289:6295   */\n  dup3\n    /* \"#utility.yul\":6282:6324   */\n  sstore\n    /* \"#utility.yul\":6363:6364   */\n  0x01\n    /* \"#utility.yul\":6355:6361   */\n  dup3\n    /* \"#utility.yul\":6351:6365   */\n  add\n    /* \"#utility.yul\":6341:6365   */\n  swap2\n  pop\n    /* \"#utility.yul\":6410:6412   */\n  0x20\n    /* \"#utility.yul\":6399:6408   */\n  dup6\n    /* \"#utility.yul\":6395:6413   */\n  add\n    /* \"#utility.yul\":6382:6413   */\n  swap5\n  pop\n    /* \"#utility.yul\":6256:6260   */\n  0x20\n    /* \"#utility.yul\":6253:6254   */\n  dup2\n    /* \"#utility.yul\":6249:6261   */\n  add\n    /* \"#utility.yul\":6244:6261   */\n  swap1\n  pop\n    /* \"#utility.yul\":6219:6427   */\n  jump(tag_133)\ntag_135:\n    /* \"#utility.yul\":6455:6461   */\n  dup7\n    /* \"#utility.yul\":6446:6453   */\n  dup4\n    /* \"#utility.yul\":6443:6462   */\n  lt\n    /* \"#utility.yul\":6440:6619   */\n  iszero\n  tag_136\n  jumpi\n    /* \"#utility.yul\":6513:6522   */\n  dup5\n    /* \"#utility.yul\":6508:6511   */\n  dup10\n    /* \"#utility.yul\":6504:6523   */\n  add\n    /* \"#utility.yul\":6498:6524   */\n  mload\n    /* \"#utility.yul\":6556:6604   */\n  tag_137\n    /* \"#utility.yul\":6598:6602   */\n  0x1f\n    /* \"#utility.yul\":6590:6596   */\n  dup10\n    /* \"#utility.yul\":6586:6603   */\n  and\n    /* \"#utility.yul\":6575:6584   */\n  dup3\n    /* \"#utility.yul\":6556:6604   */\n  tag_60\n  jump\t// in\ntag_137:\n    /* \"#utility.yul\":6548:6554   */\n  dup4\n    /* \"#utility.yul\":6541:6605   */\n  sstore\n    /* \"#utility.yul\":6463:6619   */\n  pop\n    /* \"#utility.yul\":6440:6619   */\ntag_136:\n    /* \"#utility.yul\":6665:6666   */\n  0x01\n    /* \"#utility.yul\":6661:6662   */\n  0x02\n    /* \"#utility.yul\":6653:6659   */\n  dup9\n    /* \"#utility.yul\":6649:6663   */\n  mul\n    /* \"#utility.yul\":6645:6667   */\n  add\n    /* \"#utility.yul\":6639:6643   */\n  dup9\n    /* \"#utility.yul\":6632:6668   */\n  sstore\n    /* \"#utility.yul\":6067:6678   */\n  pop\n  pop\n  pop\n    /* \"#utility.yul\":6030:6917   */\ntag_128:\n  pop\n    /* \"#utility.yul\":5620:6923   */\n  pop\n  pop\n  pop\n    /* \"#utility.yul\":5528:6923   */\n  pop\n  pop\n  jump\t// out\n    /* \"ElectronicMedicalRecords.sol\":66:1263  contract ContractDeployer {... */\ntag_35:\n  dataSize(sub_0)\n  dup1\n  dataOffset(sub_0)\n  0x00\n  codecopy\n  0x00\n  return\nstop\n\nsub_0: assembly {\n        /* \"ElectronicMedicalRecords.sol\":66:1263  contract ContractDeployer {... */\n      mstore(0x40, 0x80)\n      callvalue\n      dup1\n      iszero\n      tag_1\n      jumpi\n      0x00\n      dup1\n      revert\n    tag_1:\n      pop\n      jumpi(tag_2, lt(calldatasize, 0x04))\n      shr(0xe0, calldataload(0x00))\n      dup1\n      0xc4fe354c\n      eq\n      tag_3\n      jumpi\n      dup1\n      0xf851a440\n      eq\n      tag_4\n      jumpi\n    tag_2:\n      0x00\n      dup1\n      revert\n        /* \"ElectronicMedicalRecords.sol\":1062:1260  function getAllContractAddress(string memory _name) public view returns (ContractAddress[] memory data) {... */\n    tag_3:\n      tag_5\n      0x04\n      dup1\n      calldatasize\n      sub\n      dup2\n      add\n      swap1\n      tag_6\n      swap2\n      swap1\n      tag_7\n      jump\t// in\n    tag_6:\n      tag_8\n      jump\t// in\n    tag_5:\n      mload(0x40)\n      tag_9\n      swap2\n      swap1\n      tag_10\n      jump\t// in\n    tag_9:\n      mload(0x40)\n      dup1\n      swap2\n      sub\n      swap1\n      return\n        /* \"ElectronicMedicalRecords.sol\":268:288  address public admin */\n    tag_4:\n      tag_11\n      tag_12\n      jump\t// in\n    tag_11:\n      mload(0x40)\n      tag_13\n      swap2\n      swap1\n      tag_14\n      jump\t// in\n    tag_13:\n      mload(0x40)\n      dup1\n      swap2\n      sub\n      swap1\n      return\n        /* \"ElectronicMedicalRecords.sol\":1062:1260  function getAllContractAddress(string memory _name) public view returns (ContractAddress[] memory data) {... */\n    tag_8:\n        /* \"ElectronicMedicalRecords.sol\":1135:1164  ContractAddress[] memory data */\n      0x60\n        /* \"ElectronicMedicalRecords.sol\":1199:1204  admin */\n      0x01\n      0x00\n      swap1\n      sload\n      swap1\n      0x0100\n      exp\n      swap1\n      div\n      0xffffffffffffffffffffffffffffffffffffffff\n      and\n        /* \"ElectronicMedicalRecords.sol\":1185:1204  msg.sender == admin */\n      0xffffffffffffffffffffffffffffffffffffffff\n      and\n        /* \"ElectronicMedicalRecords.sol\":1185:1195  msg.sender */\n      caller\n        /* \"ElectronicMedicalRecords.sol\":1185:1204  msg.sender == admin */\n      0xffffffffffffffffffffffffffffffffffffffff\n      and\n      eq\n        /* \"ElectronicMedicalRecords.sol\":1177:1205  require(msg.sender == admin) */\n      tag_16\n      jumpi\n      0x00\n      dup1\n      revert\n    tag_16:\n        /* \"ElectronicMedicalRecords.sol\":1223:1245  bunchOfContractAddress */\n      0x00\n        /* \"ElectronicMedicalRecords.sol\":1246:1251  _name */\n      dup3\n        /* \"ElectronicMedicalRecords.sol\":1223:1252  bunchOfContractAddress[_name] */\n      mload(0x40)\n      tag_17\n      swap2\n      swap1\n      tag_18\n      jump\t// in\n    tag_17:\n      swap1\n      dup2\n      mstore\n      0x20\n      add\n      mload(0x40)\n      dup1\n      swap2\n      sub\n      swap1\n      keccak256\n        /* \"ElectronicMedicalRecords.sol\":1216:1252  return bunchOfContractAddress[_name] */\n      dup1\n      sload\n      dup1\n      0x20\n      mul\n      0x20\n      add\n      mload(0x40)\n      swap1\n      dup2\n      add\n      0x40\n      mstore\n      dup1\n      swap3\n      swap2\n      swap1\n      dup2\n      dup2\n      mstore\n      0x20\n      add\n      0x00\n      swap1\n    tag_19:\n      dup3\n      dup3\n      lt\n      iszero\n      tag_20\n      jumpi\n      dup4\n      dup3\n      swap1\n      0x00\n      mstore\n      keccak256(0x00, 0x20)\n      swap1\n      0x02\n      mul\n      add\n      mload(0x40)\n      dup1\n      0x40\n      add\n      0x40\n      mstore\n      swap1\n      dup2\n      0x00\n      dup3\n      add\n      dup1\n      sload\n      tag_22\n      swap1\n      tag_23\n      jump\t// in\n    tag_22:\n      dup1\n      0x1f\n      add\n      0x20\n      dup1\n      swap2\n      div\n      mul\n      0x20\n      add\n      mload(0x40)\n      swap1\n      dup2\n      add\n      0x40\n      mstore\n      dup1\n      swap3\n      swap2\n      swap1\n      dup2\n      dup2\n      mstore\n      0x20\n      add\n      dup3\n      dup1\n      sload\n      tag_24\n      swap1\n      tag_23\n      jump\t// in\n    tag_24:\n      dup1\n      iszero\n      tag_25\n      jumpi\n      dup1\n      0x1f\n      lt\n      tag_26\n      jumpi\n      0x0100\n      dup1\n      dup4\n      sload\n      div\n      mul\n      dup4\n      mstore\n      swap2\n      0x20\n      add\n      swap2\n      jump(tag_25)\n    tag_26:\n      dup3\n      add\n      swap2\n      swap1\n      0x00\n      mstore\n      keccak256(0x00, 0x20)\n      swap1\n    tag_27:\n      dup2\n      sload\n      dup2\n      mstore\n      swap1\n      0x01\n      add\n      swap1\n      0x20\n      add\n      dup1\n      dup4\n      gt\n      tag_27\n      jumpi\n      dup3\n      swap1\n      sub\n      0x1f\n      and\n      dup3\n      add\n      swap2\n    tag_25:\n      pop\n      pop\n      pop\n      pop\n      pop\n      dup2\n      mstore\n      0x20\n      add\n      0x01\n      dup3\n      add\n      0x00\n      swap1\n      sload\n      swap1\n      0x0100\n      exp\n      swap1\n      div\n      0xffffffffffffffffffffffffffffffffffffffff\n      and\n      0xffffffffffffffffffffffffffffffffffffffff\n      and\n      0xffffffffffffffffffffffffffffffffffffffff\n      and\n      dup2\n      mstore\n      pop\n      pop\n      dup2\n      mstore\n      0x20\n      add\n      swap1\n      0x01\n      add\n      swap1\n      jump(tag_19)\n    tag_20:\n      pop\n      pop\n      pop\n      pop\n      swap1\n      pop\n        /* \"ElectronicMedicalRecords.sol\":1062:1260  function getAllContractAddress(string memory _name) public view returns (ContractAddress[] memory data) {... */\n      swap2\n      swap1\n      pop\n      jump\t// out\n        /* \"ElectronicMedicalRecords.sol\":268:288  address public admin */\n    tag_12:\n      0x01\n      0x00\n      swap1\n      sload\n      swap1\n      0x0100\n      exp\n      swap1\n      div\n      0xffffffffffffffffffffffffffffffffffffffff\n      and\n      dup2\n      jump\t// out\n        /* \"#utility.yul\":7:82   */\n    tag_28:\n        /* \"#utility.yul\":40:46   */\n      0x00\n        /* \"#utility.yul\":73:75   */\n      0x40\n        /* \"#utility.yul\":67:76   */\n      mload\n        /* \"#utility.yul\":57:76   */\n      swap1\n      pop\n        /* \"#utility.yul\":7:82   */\n      swap1\n      jump\t// out\n        /* \"#utility.yul\":88:205   */\n    tag_29:\n        /* \"#utility.yul\":197:198   */\n      0x00\n        /* \"#utility.yul\":194:195   */\n      dup1\n        /* \"#utility.yul\":187:199   */\n      revert\n        /* \"#utility.yul\":211:328   */\n    tag_30:\n        /* \"#utility.yul\":320:321   */\n      0x00\n        /* \"#utility.yul\":317:318   */\n      dup1\n        /* \"#utility.yul\":310:322   */\n      revert\n        /* \"#utility.yul\":334:451   */\n    tag_31:\n        /* \"#utility.yul\":443:444   */\n      0x00\n        /* \"#utility.yul\":440:441   */\n      dup1\n        /* \"#utility.yul\":433:445   */\n      revert\n        /* \"#utility.yul\":457:574   */\n    tag_32:\n        /* \"#utility.yul\":566:567   */\n      0x00\n        /* \"#utility.yul\":563:564   */\n      dup1\n        /* \"#utility.yul\":556:568   */\n      revert\n        /* \"#utility.yul\":580:682   */\n    tag_33:\n        /* \"#utility.yul\":621:627   */\n      0x00\n        /* \"#utility.yul\":672:674   */\n      0x1f\n        /* \"#utility.yul\":668:675   */\n      not\n        /* \"#utility.yul\":663:665   */\n      0x1f\n        /* \"#utility.yul\":656:661   */\n      dup4\n        /* \"#utility.yul\":652:666   */\n      add\n        /* \"#utility.yul\":648:676   */\n      and\n        /* \"#utility.yul\":638:676   */\n      swap1\n      pop\n        /* \"#utility.yul\":580:682   */\n      swap2\n      swap1\n      pop\n      jump\t// out\n        /* \"#utility.yul\":688:868   */\n    tag_34:\n        /* \"#utility.yul\":736:813   */\n      0x4e487b7100000000000000000000000000000000000000000000000000000000\n        /* \"#utility.yul\":733:734   */\n      0x00\n        /* \"#utility.yul\":726:814   */\n      mstore\n        /* \"#utility.yul\":833:837   */\n      0x41\n        /* \"#utility.yul\":830:831   */\n      0x04\n        /* \"#utility.yul\":823:838   */\n      mstore\n        /* \"#utility.yul\":857:861   */\n      0x24\n        /* \"#utility.yul\":854:855   */\n      0x00\n        /* \"#utility.yul\":847:862   */\n      revert\n        /* \"#utility.yul\":874:1155   */\n    tag_35:\n        /* \"#utility.yul\":957:984   */\n      tag_68\n        /* \"#utility.yul\":979:983   */\n      dup3\n        /* \"#utility.yul\":957:984   */\n      tag_33\n      jump\t// in\n    tag_68:\n        /* \"#utility.yul\":949:955   */\n      dup2\n        /* \"#utility.yul\":945:985   */\n      add\n        /* \"#utility.yul\":1087:1093   */\n      dup2\n        /* \"#utility.yul\":1075:1085   */\n      dup2\n        /* \"#utility.yul\":1072:1094   */\n      lt\n        /* \"#utility.yul\":1051:1069   */\n      0xffffffffffffffff\n        /* \"#utility.yul\":1039:1049   */\n      dup3\n        /* \"#utility.yul\":1036:1070   */\n      gt\n        /* \"#utility.yul\":1033:1095   */\n      or\n        /* \"#utility.yul\":1030:1118   */\n      iszero\n      tag_69\n      jumpi\n        /* \"#utility.yul\":1098:1116   */\n      tag_70\n      tag_34\n      jump\t// in\n    tag_70:\n        /* \"#utility.yul\":1030:1118   */\n    tag_69:\n        /* \"#utility.yul\":1138:1148   */\n      dup1\n        /* \"#utility.yul\":1134:1136   */\n      0x40\n        /* \"#utility.yul\":1127:1149   */\n      mstore\n        /* \"#utility.yul\":917:1155   */\n      pop\n        /* \"#utility.yul\":874:1155   */\n      pop\n      pop\n      jump\t// out\n        /* \"#utility.yul\":1161:1290   */\n    tag_36:\n        /* \"#utility.yul\":1195:1201   */\n      0x00\n        /* \"#utility.yul\":1222:1242   */\n      tag_72\n      tag_28\n      jump\t// in\n    tag_72:\n        /* \"#utility.yul\":1212:1242   */\n      swap1\n      pop\n        /* \"#utility.yul\":1251:1284   */\n      tag_73\n        /* \"#utility.yul\":1279:1283   */\n      dup3\n        /* \"#utility.yul\":1271:1277   */\n      dup3\n        /* \"#utility.yul\":1251:1284   */\n      tag_35\n      jump\t// in\n    tag_73:\n        /* \"#utility.yul\":1161:1290   */\n      swap2\n      swap1\n      pop\n      jump\t// out\n        /* \"#utility.yul\":1296:1604   */\n    tag_37:\n        /* \"#utility.yul\":1358:1362   */\n      0x00\n        /* \"#utility.yul\":1448:1466   */\n      0xffffffffffffffff\n        /* \"#utility.yul\":1440:1446   */\n      dup3\n        /* \"#utility.yul\":1437:1467   */\n      gt\n        /* \"#utility.yul\":1434:1490   */\n      iszero\n      tag_75\n      jumpi\n        /* \"#utility.yul\":1470:1488   */\n      tag_76\n      tag_34\n      jump\t// in\n    tag_76:\n        /* \"#utility.yul\":1434:1490   */\n    tag_75:\n        /* \"#utility.yul\":1508:1537   */\n      tag_77\n        /* \"#utility.yul\":1530:1536   */\n      dup3\n        /* \"#utility.yul\":1508:1537   */\n      tag_33\n      jump\t// in\n    tag_77:\n        /* \"#utility.yul\":1500:1537   */\n      swap1\n      pop\n        /* \"#utility.yul\":1592:1596   */\n      0x20\n        /* \"#utility.yul\":1586:1590   */\n      dup2\n        /* \"#utility.yul\":1582:1597   */\n      add\n        /* \"#utility.yul\":1574:1597   */\n      swap1\n      pop\n        /* \"#utility.yul\":1296:1604   */\n      swap2\n      swap1\n      pop\n      jump\t// out\n        /* \"#utility.yul\":1610:1756   */\n    tag_38:\n        /* \"#utility.yul\":1707:1713   */\n      dup3\n        /* \"#utility.yul\":1702:1705   */\n      dup2\n        /* \"#utility.yul\":1697:1700   */\n      dup4\n        /* \"#utility.yul\":1684:1714   */\n      calldatacopy\n        /* \"#utility.yul\":1748:1749   */\n      0x00\n        /* \"#utility.yul\":1739:1745   */\n      dup4\n        /* \"#utility.yul\":1734:1737   */\n      dup4\n        /* \"#utility.yul\":1730:1746   */\n      add\n        /* \"#utility.yul\":1723:1750   */\n      mstore\n        /* \"#utility.yul\":1610:1756   */\n      pop\n      pop\n      pop\n      jump\t// out\n        /* \"#utility.yul\":1762:2187   */\n    tag_39:\n        /* \"#utility.yul\":1840:1845   */\n      0x00\n        /* \"#utility.yul\":1865:1931   */\n      tag_80\n        /* \"#utility.yul\":1881:1930   */\n      tag_81\n        /* \"#utility.yul\":1923:1929   */\n      dup5\n        /* \"#utility.yul\":1881:1930   */\n      tag_37\n      jump\t// in\n    tag_81:\n        /* \"#utility.yul\":1865:1931   */\n      tag_36\n      jump\t// in\n    tag_80:\n        /* \"#utility.yul\":1856:1931   */\n      swap1\n      pop\n        /* \"#utility.yul\":1954:1960   */\n      dup3\n        /* \"#utility.yul\":1947:1952   */\n      dup2\n        /* \"#utility.yul\":1940:1961   */\n      mstore\n        /* \"#utility.yul\":1992:1996   */\n      0x20\n        /* \"#utility.yul\":1985:1990   */\n      dup2\n        /* \"#utility.yul\":1981:1997   */\n      add\n        /* \"#utility.yul\":2030:2033   */\n      dup5\n        /* \"#utility.yul\":2021:2027   */\n      dup5\n        /* \"#utility.yul\":2016:2019   */\n      dup5\n        /* \"#utility.yul\":2012:2028   */\n      add\n        /* \"#utility.yul\":2009:2034   */\n      gt\n        /* \"#utility.yul\":2006:2118   */\n      iszero\n      tag_82\n      jumpi\n        /* \"#utility.yul\":2037:2116   */\n      tag_83\n      tag_32\n      jump\t// in\n    tag_83:\n        /* \"#utility.yul\":2006:2118   */\n    tag_82:\n        /* \"#utility.yul\":2127:2181   */\n      tag_84\n        /* \"#utility.yul\":2174:2180   */\n      dup5\n        /* \"#utility.yul\":2169:2172   */\n      dup3\n        /* \"#utility.yul\":2164:2167   */\n      dup6\n        /* \"#utility.yul\":2127:2181   */\n      tag_38\n      jump\t// in\n    tag_84:\n        /* \"#utility.yul\":1846:2187   */\n      pop\n        /* \"#utility.yul\":1762:2187   */\n      swap4\n      swap3\n      pop\n      pop\n      pop\n      jump\t// out\n        /* \"#utility.yul\":2207:2547   */\n    tag_40:\n        /* \"#utility.yul\":2263:2268   */\n      0x00\n        /* \"#utility.yul\":2312:2315   */\n      dup3\n        /* \"#utility.yul\":2305:2309   */\n      0x1f\n        /* \"#utility.yul\":2297:2303   */\n      dup4\n        /* \"#utility.yul\":2293:2310   */\n      add\n        /* \"#utility.yul\":2289:2316   */\n      slt\n        /* \"#utility.yul\":2279:2401   */\n      tag_86\n      jumpi\n        /* \"#utility.yul\":2320:2399   */\n      tag_87\n      tag_31\n      jump\t// in\n    tag_87:\n        /* \"#utility.yul\":2279:2401   */\n    tag_86:\n        /* \"#utility.yul\":2437:2443   */\n      dup2\n        /* \"#utility.yul\":2424:2444   */\n      calldataload\n        /* \"#utility.yul\":2462:2541   */\n      tag_88\n        /* \"#utility.yul\":2537:2540   */\n      dup5\n        /* \"#utility.yul\":2529:2535   */\n      dup3\n        /* \"#utility.yul\":2522:2526   */\n      0x20\n        /* \"#utility.yul\":2514:2520   */\n      dup7\n        /* \"#utility.yul\":2510:2527   */\n      add\n        /* \"#utility.yul\":2462:2541   */\n      tag_39\n      jump\t// in\n    tag_88:\n        /* \"#utility.yul\":2453:2541   */\n      swap2\n      pop\n        /* \"#utility.yul\":2269:2547   */\n      pop\n        /* \"#utility.yul\":2207:2547   */\n      swap3\n      swap2\n      pop\n      pop\n      jump\t// out\n        /* \"#utility.yul\":2553:3062   */\n    tag_7:\n        /* \"#utility.yul\":2622:2628   */\n      0x00\n        /* \"#utility.yul\":2671:2673   */\n      0x20\n        /* \"#utility.yul\":2659:2668   */\n      dup3\n        /* \"#utility.yul\":2650:2657   */\n      dup5\n        /* \"#utility.yul\":2646:2669   */\n      sub\n        /* \"#utility.yul\":2642:2674   */\n      slt\n        /* \"#utility.yul\":2639:2758   */\n      iszero\n      tag_90\n      jumpi\n        /* \"#utility.yul\":2677:2756   */\n      tag_91\n      tag_29\n      jump\t// in\n    tag_91:\n        /* \"#utility.yul\":2639:2758   */\n    tag_90:\n        /* \"#utility.yul\":2825:2826   */\n      0x00\n        /* \"#utility.yul\":2814:2823   */\n      dup3\n        /* \"#utility.yul\":2810:2827   */\n      add\n        /* \"#utility.yul\":2797:2828   */\n      calldataload\n        /* \"#utility.yul\":2855:2873   */\n      0xffffffffffffffff\n        /* \"#utility.yul\":2847:2853   */\n      dup2\n        /* \"#utility.yul\":2844:2874   */\n      gt\n        /* \"#utility.yul\":2841:2958   */\n      iszero\n      tag_92\n      jumpi\n        /* \"#utility.yul\":2877:2956   */\n      tag_93\n      tag_30\n      jump\t// in\n    tag_93:\n        /* \"#utility.yul\":2841:2958   */\n    tag_92:\n        /* \"#utility.yul\":2982:3045   */\n      tag_94\n        /* \"#utility.yul\":3037:3044   */\n      dup5\n        /* \"#utility.yul\":3028:3034   */\n      dup3\n        /* \"#utility.yul\":3017:3026   */\n      dup6\n        /* \"#utility.yul\":3013:3035   */\n      add\n        /* \"#utility.yul\":2982:3045   */\n      tag_40\n      jump\t// in\n    tag_94:\n        /* \"#utility.yul\":2972:3045   */\n      swap2\n      pop\n        /* \"#utility.yul\":2768:3055   */\n      pop\n        /* \"#utility.yul\":2553:3062   */\n      swap3\n      swap2\n      pop\n      pop\n      jump\t// out\n        /* \"#utility.yul\":3068:3212   */\n    tag_41:\n        /* \"#utility.yul\":3165:3171   */\n      0x00\n        /* \"#utility.yul\":3199:3204   */\n      dup2\n        /* \"#utility.yul\":3193:3205   */\n      mload\n        /* \"#utility.yul\":3183:3205   */\n      swap1\n      pop\n        /* \"#utility.yul\":3068:3212   */\n      swap2\n      swap1\n      pop\n      jump\t// out\n        /* \"#utility.yul\":3218:3432   */\n    tag_42:\n        /* \"#utility.yul\":3347:3358   */\n      0x00\n        /* \"#utility.yul\":3381:3387   */\n      dup3\n        /* \"#utility.yul\":3376:3379   */\n      dup3\n        /* \"#utility.yul\":3369:3388   */\n      mstore\n        /* \"#utility.yul\":3421:3425   */\n      0x20\n        /* \"#utility.yul\":3416:3419   */\n      dup3\n        /* \"#utility.yul\":3412:3426   */\n      add\n        /* \"#utility.yul\":3397:3426   */\n      swap1\n      pop\n        /* \"#utility.yul\":3218:3432   */\n      swap3\n      swap2\n      pop\n      pop\n      jump\t// out\n        /* \"#utility.yul\":3438:3600   */\n    tag_43:\n        /* \"#utility.yul\":3535:3539   */\n      0x00\n        /* \"#utility.yul\":3558:3561   */\n      dup2\n        /* \"#utility.yul\":3550:3561   */\n      swap1\n      pop\n        /* \"#utility.yul\":3588:3592   */\n      0x20\n        /* \"#utility.yul\":3583:3586   */\n      dup3\n        /* \"#utility.yul\":3579:3593   */\n      add\n        /* \"#utility.yul\":3571:3593   */\n      swap1\n      pop\n        /* \"#utility.yul\":3438:3600   */\n      swap2\n      swap1\n      pop\n      jump\t// out\n        /* \"#utility.yul\":3606:3705   */\n    tag_44:\n        /* \"#utility.yul\":3658:3664   */\n      0x00\n        /* \"#utility.yul\":3692:3697   */\n      dup2\n        /* \"#utility.yul\":3686:3698   */\n      mload\n        /* \"#utility.yul\":3676:3698   */\n      swap1\n      pop\n        /* \"#utility.yul\":3606:3705   */\n      swap2\n      swap1\n      pop\n      jump\t// out\n        /* \"#utility.yul\":3711:3870   */\n    tag_45:\n        /* \"#utility.yul\":3785:3796   */\n      0x00\n        /* \"#utility.yul\":3819:3825   */\n      dup3\n        /* \"#utility.yul\":3814:3817   */\n      dup3\n        /* \"#utility.yul\":3807:3826   */\n      mstore\n        /* \"#utility.yul\":3859:3863   */\n      0x20\n        /* \"#utility.yul\":3854:3857   */\n      dup3\n        /* \"#utility.yul\":3850:3864   */\n      add\n        /* \"#utility.yul\":3835:3864   */\n      swap1\n      pop\n        /* \"#utility.yul\":3711:3870   */\n      swap3\n      swap2\n      pop\n      pop\n      jump\t// out\n        /* \"#utility.yul\":3876:4122   */\n    tag_46:\n        /* \"#utility.yul\":3957:3958   */\n      0x00\n        /* \"#utility.yul\":3967:4080   */\n    tag_101:\n        /* \"#utility.yul\":3981:3987   */\n      dup4\n        /* \"#utility.yul\":3978:3979   */\n      dup2\n        /* \"#utility.yul\":3975:3988   */\n      lt\n        /* \"#utility.yul\":3967:4080   */\n      iszero\n      tag_103\n      jumpi\n        /* \"#utility.yul\":4066:4067   */\n      dup1\n        /* \"#utility.yul\":4061:4064   */\n      dup3\n        /* \"#utility.yul\":4057:4068   */\n      add\n        /* \"#utility.yul\":4051:4069   */\n      mload\n        /* \"#utility.yul\":4047:4048   */\n      dup2\n        /* \"#utility.yul\":4042:4045   */\n      dup5\n        /* \"#utility.yul\":4038:4049   */\n      add\n        /* \"#utility.yul\":4031:4070   */\n      mstore\n        /* \"#utility.yul\":4003:4005   */\n      0x20\n        /* \"#utility.yul\":4000:4001   */\n      dup2\n        /* \"#utility.yul\":3996:4006   */\n      add\n        /* \"#utility.yul\":3991:4006   */\n      swap1\n      pop\n        /* \"#utility.yul\":3967:4080   */\n      jump(tag_101)\n    tag_103:\n        /* \"#utility.yul\":4114:4115   */\n      0x00\n        /* \"#utility.yul\":4105:4111   */\n      dup5\n        /* \"#utility.yul\":4100:4103   */\n      dup5\n        /* \"#utility.yul\":4096:4112   */\n      add\n        /* \"#utility.yul\":4089:4116   */\n      mstore\n        /* \"#utility.yul\":3938:4122   */\n      pop\n        /* \"#utility.yul\":3876:4122   */\n      pop\n      pop\n      pop\n      jump\t// out\n        /* \"#utility.yul\":4128:4485   */\n    tag_47:\n        /* \"#utility.yul\":4206:4209   */\n      0x00\n        /* \"#utility.yul\":4234:4273   */\n      tag_105\n        /* \"#utility.yul\":4267:4272   */\n      dup3\n        /* \"#utility.yul\":4234:4273   */\n      tag_44\n      jump\t// in\n    tag_105:\n        /* \"#utility.yul\":4289:4350   */\n      tag_106\n        /* \"#utility.yul\":4343:4349   */\n      dup2\n        /* \"#utility.yul\":4338:4341   */\n      dup6\n        /* \"#utility.yul\":4289:4350   */\n      tag_45\n      jump\t// in\n    tag_106:\n        /* \"#utility.yul\":4282:4350   */\n      swap4\n      pop\n        /* \"#utility.yul\":4359:4424   */\n      tag_107\n        /* \"#utility.yul\":4417:4423   */\n      dup2\n        /* \"#utility.yul\":4412:4415   */\n      dup6\n        /* \"#utility.yul\":4405:4409   */\n      0x20\n        /* \"#utility.yul\":4398:4403   */\n      dup7\n        /* \"#utility.yul\":4394:4410   */\n      add\n        /* \"#utility.yul\":4359:4424   */\n      tag_46\n      jump\t// in\n    tag_107:\n        /* \"#utility.yul\":4449:4478   */\n      tag_108\n        /* \"#utility.yul\":4471:4477   */\n      dup2\n        /* \"#utility.yul\":4449:4478   */\n      tag_33\n      jump\t// in\n    tag_108:\n        /* \"#utility.yul\":4444:4447   */\n      dup5\n        /* \"#utility.yul\":4440:4479   */\n      add\n        /* \"#utility.yul\":4433:4479   */\n      swap2\n      pop\n        /* \"#utility.yul\":4210:4485   */\n      pop\n        /* \"#utility.yul\":4128:4485   */\n      swap3\n      swap2\n      pop\n      pop\n      jump\t// out\n        /* \"#utility.yul\":4491:4617   */\n    tag_48:\n        /* \"#utility.yul\":4528:4535   */\n      0x00\n        /* \"#utility.yul\":4568:4610   */\n      0xffffffffffffffffffffffffffffffffffffffff\n        /* \"#utility.yul\":4561:4566   */\n      dup3\n        /* \"#utility.yul\":4557:4611   */\n      and\n        /* \"#utility.yul\":4546:4611   */\n      swap1\n      pop\n        /* \"#utility.yul\":4491:4617   */\n      swap2\n      swap1\n      pop\n      jump\t// out\n        /* \"#utility.yul\":4623:4719   */\n    tag_49:\n        /* \"#utility.yul\":4660:4667   */\n      0x00\n        /* \"#utility.yul\":4689:4713   */\n      tag_111\n        /* \"#utility.yul\":4707:4712   */\n      dup3\n        /* \"#utility.yul\":4689:4713   */\n      tag_48\n      jump\t// in\n    tag_111:\n        /* \"#utility.yul\":4678:4713   */\n      swap1\n      pop\n        /* \"#utility.yul\":4623:4719   */\n      swap2\n      swap1\n      pop\n      jump\t// out\n        /* \"#utility.yul\":4725:4833   */\n    tag_50:\n        /* \"#utility.yul\":4802:4826   */\n      tag_113\n        /* \"#utility.yul\":4820:4825   */\n      dup2\n        /* \"#utility.yul\":4802:4826   */\n      tag_49\n      jump\t// in\n    tag_113:\n        /* \"#utility.yul\":4797:4800   */\n      dup3\n        /* \"#utility.yul\":4790:4827   */\n      mstore\n        /* \"#utility.yul\":4725:4833   */\n      pop\n      pop\n      jump\t// out\n        /* \"#utility.yul\":4929:5546   */\n    tag_51:\n        /* \"#utility.yul\":5048:5051   */\n      0x00\n        /* \"#utility.yul\":5084:5088   */\n      0x40\n        /* \"#utility.yul\":5079:5082   */\n      dup4\n        /* \"#utility.yul\":5075:5089   */\n      add\n        /* \"#utility.yul\":5171:5175   */\n      0x00\n        /* \"#utility.yul\":5164:5169   */\n      dup4\n        /* \"#utility.yul\":5160:5176   */\n      add\n        /* \"#utility.yul\":5154:5177   */\n      mload\n        /* \"#utility.yul\":5224:5227   */\n      dup5\n        /* \"#utility.yul\":5218:5222   */\n      dup3\n        /* \"#utility.yul\":5214:5228   */\n      sub\n        /* \"#utility.yul\":5207:5211   */\n      0x00\n        /* \"#utility.yul\":5202:5205   */\n      dup7\n        /* \"#utility.yul\":5198:5212   */\n      add\n        /* \"#utility.yul\":5191:5229   */\n      mstore\n        /* \"#utility.yul\":5250:5323   */\n      tag_115\n        /* \"#utility.yul\":5318:5322   */\n      dup3\n        /* \"#utility.yul\":5304:5316   */\n      dup3\n        /* \"#utility.yul\":5250:5323   */\n      tag_47\n      jump\t// in\n    tag_115:\n        /* \"#utility.yul\":5242:5323   */\n      swap2\n      pop\n        /* \"#utility.yul\":5099:5334   */\n      pop\n        /* \"#utility.yul\":5427:5431   */\n      0x20\n        /* \"#utility.yul\":5420:5425   */\n      dup4\n        /* \"#utility.yul\":5416:5432   */\n      add\n        /* \"#utility.yul\":5410:5433   */\n      mload\n        /* \"#utility.yul\":5446:5509   */\n      tag_116\n        /* \"#utility.yul\":5503:5507   */\n      0x20\n        /* \"#utility.yul\":5498:5501   */\n      dup7\n        /* \"#utility.yul\":5494:5508   */\n      add\n        /* \"#utility.yul\":5480:5492   */\n      dup3\n        /* \"#utility.yul\":5446:5509   */\n      tag_50\n      jump\t// in\n    tag_116:\n        /* \"#utility.yul\":5344:5519   */\n      pop\n        /* \"#utility.yul\":5536:5540   */\n      dup1\n        /* \"#utility.yul\":5529:5540   */\n      swap2\n      pop\n        /* \"#utility.yul\":5053:5546   */\n      pop\n        /* \"#utility.yul\":4929:5546   */\n      swap3\n      swap2\n      pop\n      pop\n      jump\t// out\n        /* \"#utility.yul\":5552:5828   */\n    tag_52:\n        /* \"#utility.yul\":5681:5691   */\n      0x00\n        /* \"#utility.yul\":5716:5822   */\n      tag_118\n        /* \"#utility.yul\":5818:5821   */\n      dup4\n        /* \"#utility.yul\":5810:5816   */\n      dup4\n        /* \"#utility.yul\":5716:5822   */\n      tag_51\n      jump\t// in\n    tag_118:\n        /* \"#utility.yul\":5702:5822   */\n      swap1\n      pop\n        /* \"#utility.yul\":5552:5828   */\n      swap3\n      swap2\n      pop\n      pop\n      jump\t// out\n        /* \"#utility.yul\":5834:5977   */\n    tag_53:\n        /* \"#utility.yul\":5934:5938   */\n      0x00\n        /* \"#utility.yul\":5966:5970   */\n      0x20\n        /* \"#utility.yul\":5961:5964   */\n      dup3\n        /* \"#utility.yul\":5957:5971   */\n      add\n        /* \"#utility.yul\":5949:5971   */\n      swap1\n      pop\n        /* \"#utility.yul\":5834:5977   */\n      swap2\n      swap1\n      pop\n      jump\t// out\n        /* \"#utility.yul\":6077:7228   */\n    tag_54:\n        /* \"#utility.yul\":6256:6259   */\n      0x00\n        /* \"#utility.yul\":6285:6369   */\n      tag_121\n        /* \"#utility.yul\":6363:6368   */\n      dup3\n        /* \"#utility.yul\":6285:6369   */\n      tag_41\n      jump\t// in\n    tag_121:\n        /* \"#utility.yul\":6385:6501   */\n      tag_122\n        /* \"#utility.yul\":6494:6500   */\n      dup2\n        /* \"#utility.yul\":6489:6492   */\n      dup6\n        /* \"#utility.yul\":6385:6501   */\n      tag_42\n      jump\t// in\n    tag_122:\n        /* \"#utility.yul\":6378:6501   */\n      swap4\n      pop\n        /* \"#utility.yul\":6527:6530   */\n      dup4\n        /* \"#utility.yul\":6572:6576   */\n      0x20\n        /* \"#utility.yul\":6564:6570   */\n      dup3\n        /* \"#utility.yul\":6560:6577   */\n      mul\n        /* \"#utility.yul\":6555:6558   */\n      dup6\n        /* \"#utility.yul\":6551:6578   */\n      add\n        /* \"#utility.yul\":6602:6688   */\n      tag_123\n        /* \"#utility.yul\":6682:6687   */\n      dup6\n        /* \"#utility.yul\":6602:6688   */\n      tag_43\n      jump\t// in\n    tag_123:\n        /* \"#utility.yul\":6711:6718   */\n      dup1\n        /* \"#utility.yul\":6742:6743   */\n      0x00\n        /* \"#utility.yul\":6727:7183   */\n    tag_124:\n        /* \"#utility.yul\":6752:6758   */\n      dup6\n        /* \"#utility.yul\":6749:6750   */\n      dup2\n        /* \"#utility.yul\":6746:6759   */\n      lt\n        /* \"#utility.yul\":6727:7183   */\n      iszero\n      tag_126\n      jumpi\n        /* \"#utility.yul\":6823:6832   */\n      dup5\n        /* \"#utility.yul\":6817:6821   */\n      dup5\n        /* \"#utility.yul\":6813:6833   */\n      sub\n        /* \"#utility.yul\":6808:6811   */\n      dup10\n        /* \"#utility.yul\":6801:6834   */\n      mstore\n        /* \"#utility.yul\":6874:6880   */\n      dup2\n        /* \"#utility.yul\":6868:6881   */\n      mload\n        /* \"#utility.yul\":6902:7026   */\n      tag_127\n        /* \"#utility.yul\":7021:7025   */\n      dup6\n        /* \"#utility.yul\":7006:7019   */\n      dup3\n        /* \"#utility.yul\":6902:7026   */\n      tag_52\n      jump\t// in\n    tag_127:\n        /* \"#utility.yul\":6894:7026   */\n      swap5\n      pop\n        /* \"#utility.yul\":7049:7139   */\n      tag_128\n        /* \"#utility.yul\":7132:7138   */\n      dup4\n        /* \"#utility.yul\":7049:7139   */\n      tag_53\n      jump\t// in\n    tag_128:\n        /* \"#utility.yul\":7039:7139   */\n      swap3\n      pop\n        /* \"#utility.yul\":7168:7172   */\n      0x20\n        /* \"#utility.yul\":7163:7166   */\n      dup11\n        /* \"#utility.yul\":7159:7173   */\n      add\n        /* \"#utility.yul\":7152:7173   */\n      swap10\n      pop\n        /* \"#utility.yul\":6787:7183   */\n      pop\n        /* \"#utility.yul\":6774:6775   */\n      0x01\n        /* \"#utility.yul\":6771:6772   */\n      dup2\n        /* \"#utility.yul\":6767:6776   */\n      add\n        /* \"#utility.yul\":6762:6776   */\n      swap1\n      pop\n        /* \"#utility.yul\":6727:7183   */\n      jump(tag_124)\n    tag_126:\n        /* \"#utility.yul\":6731:6745   */\n      pop\n        /* \"#utility.yul\":7199:7203   */\n      dup3\n        /* \"#utility.yul\":7192:7203   */\n      swap8\n      pop\n        /* \"#utility.yul\":7219:7222   */\n      dup8\n        /* \"#utility.yul\":7212:7222   */\n      swap6\n      pop\n        /* \"#utility.yul\":6261:7228   */\n      pop\n      pop\n      pop\n      pop\n      pop\n        /* \"#utility.yul\":6077:7228   */\n      swap3\n      swap2\n      pop\n      pop\n      jump\t// out\n        /* \"#utility.yul\":7234:7727   */\n    tag_10:\n        /* \"#utility.yul\":7437:7441   */\n      0x00\n        /* \"#utility.yul\":7475:7477   */\n      0x20\n        /* \"#utility.yul\":7464:7473   */\n      dup3\n        /* \"#utility.yul\":7460:7478   */\n      add\n        /* \"#utility.yul\":7452:7478   */\n      swap1\n      pop\n        /* \"#utility.yul\":7524:7533   */\n      dup2\n        /* \"#utility.yul\":7518:7522   */\n      dup2\n        /* \"#utility.yul\":7514:7534   */\n      sub\n        /* \"#utility.yul\":7510:7511   */\n      0x00\n        /* \"#utility.yul\":7499:7508   */\n      dup4\n        /* \"#utility.yul\":7495:7512   */\n      add\n        /* \"#utility.yul\":7488:7535   */\n      mstore\n        /* \"#utility.yul\":7552:7720   */\n      tag_130\n        /* \"#utility.yul\":7715:7719   */\n      dup2\n        /* \"#utility.yul\":7706:7712   */\n      dup5\n        /* \"#utility.yul\":7552:7720   */\n      tag_54\n      jump\t// in\n    tag_130:\n        /* \"#utility.yul\":7544:7720   */\n      swap1\n      pop\n        /* \"#utility.yul\":7234:7727   */\n      swap3\n      swap2\n      pop\n      pop\n      jump\t// out\n        /* \"#utility.yul\":7733:7851   */\n    tag_55:\n        /* \"#utility.yul\":7820:7844   */\n      tag_132\n        /* \"#utility.yul\":7838:7843   */\n      dup2\n        /* \"#utility.yul\":7820:7844   */\n      tag_49\n      jump\t// in\n    tag_132:\n        /* \"#utility.yul\":7815:7818   */\n      dup3\n        /* \"#utility.yul\":7808:7845   */\n      mstore\n        /* \"#utility.yul\":7733:7851   */\n      pop\n      pop\n      jump\t// out\n        /* \"#utility.yul\":7857:8079   */\n    tag_14:\n        /* \"#utility.yul\":7950:7954   */\n      0x00\n        /* \"#utility.yul\":7988:7990   */\n      0x20\n        /* \"#utility.yul\":7977:7986   */\n      dup3\n        /* \"#utility.yul\":7973:7991   */\n      add\n        /* \"#utility.yul\":7965:7991   */\n      swap1\n      pop\n        /* \"#utility.yul\":8001:8072   */\n      tag_134\n        /* \"#utility.yul\":8069:8070   */\n      0x00\n        /* \"#utility.yul\":8058:8067   */\n      dup4\n        /* \"#utility.yul\":8054:8071   */\n      add\n        /* \"#utility.yul\":8045:8051   */\n      dup5\n        /* \"#utility.yul\":8001:8072   */\n      tag_55\n      jump\t// in\n    tag_134:\n        /* \"#utility.yul\":7857:8079   */\n      swap3\n      swap2\n      pop\n      pop\n      jump\t// out\n        /* \"#utility.yul\":8085:8233   */\n    tag_56:\n        /* \"#utility.yul\":8187:8198   */\n      0x00\n        /* \"#utility.yul\":8224:8227   */\n      dup2\n        /* \"#utility.yul\":8209:8227   */\n      swap1\n      pop\n        /* \"#utility.yul\":8085:8233   */\n      swap3\n      swap2\n      pop\n      pop\n      jump\t// out\n        /* \"#utility.yul\":8239:8629   */\n    tag_57:\n        /* \"#utility.yul\":8345:8348   */\n      0x00\n        /* \"#utility.yul\":8373:8412   */\n      tag_137\n        /* \"#utility.yul\":8406:8411   */\n      dup3\n        /* \"#utility.yul\":8373:8412   */\n      tag_44\n      jump\t// in\n    tag_137:\n        /* \"#utility.yul\":8428:8517   */\n      tag_138\n        /* \"#utility.yul\":8510:8516   */\n      dup2\n        /* \"#utility.yul\":8505:8508   */\n      dup6\n        /* \"#utility.yul\":8428:8517   */\n      tag_56\n      jump\t// in\n    tag_138:\n        /* \"#utility.yul\":8421:8517   */\n      swap4\n      pop\n        /* \"#utility.yul\":8526:8591   */\n      tag_139\n        /* \"#utility.yul\":8584:8590   */\n      dup2\n        /* \"#utility.yul\":8579:8582   */\n      dup6\n        /* \"#utility.yul\":8572:8576   */\n      0x20\n        /* \"#utility.yul\":8565:8570   */\n      dup7\n        /* \"#utility.yul\":8561:8577   */\n      add\n        /* \"#utility.yul\":8526:8591   */\n      tag_46\n      jump\t// in\n    tag_139:\n        /* \"#utility.yul\":8616:8622   */\n      dup1\n        /* \"#utility.yul\":8611:8614   */\n      dup5\n        /* \"#utility.yul\":8607:8623   */\n      add\n        /* \"#utility.yul\":8600:8623   */\n      swap2\n      pop\n        /* \"#utility.yul\":8349:8629   */\n      pop\n        /* \"#utility.yul\":8239:8629   */\n      swap3\n      swap2\n      pop\n      pop\n      jump\t// out\n        /* \"#utility.yul\":8635:8910   */\n    tag_18:\n        /* \"#utility.yul\":8767:8770   */\n      0x00\n        /* \"#utility.yul\":8789:8884   */\n      tag_141\n        /* \"#utility.yul\":8880:8883   */\n      dup3\n        /* \"#utility.yul\":8871:8877   */\n      dup5\n        /* \"#utility.yul\":8789:8884   */\n      tag_57\n      jump\t// in\n    tag_141:\n        /* \"#utility.yul\":8782:8884   */\n      swap2\n      pop\n        /* \"#utility.yul\":8901:8904   */\n      dup2\n        /* \"#utility.yul\":8894:8904   */\n      swap1\n      pop\n        /* \"#utility.yul\":8635:8910   */\n      swap3\n      swap2\n      pop\n      pop\n      jump\t// out\n        /* \"#utility.yul\":8916:9096   */\n    tag_58:\n        /* \"#utility.yul\":8964:9041   */\n      0x4e487b7100000000000000000000000000000000000000000000000000000000\n        /* \"#utility.yul\":8961:8962   */\n      0x00\n        /* \"#utility.yul\":8954:9042   */\n      mstore\n        /* \"#utility.yul\":9061:9065   */\n      0x22\n        /* \"#utility.yul\":9058:9059   */\n      0x04\n        /* \"#utility.yul\":9051:9066   */\n      mstore\n        /* \"#utility.yul\":9085:9089   */\n      0x24\n        /* \"#utility.yul\":9082:9083   */\n      0x00\n        /* \"#utility.yul\":9075:9090   */\n      revert\n        /* \"#utility.yul\":9102:9422   */\n    tag_23:\n        /* \"#utility.yul\":9146:9152   */\n      0x00\n        /* \"#utility.yul\":9183:9184   */\n      0x02\n        /* \"#utility.yul\":9177:9181   */\n      dup3\n        /* \"#utility.yul\":9173:9185   */\n      div\n        /* \"#utility.yul\":9163:9185   */\n      swap1\n      pop\n        /* \"#utility.yul\":9230:9231   */\n      0x01\n        /* \"#utility.yul\":9224:9228   */\n      dup3\n        /* \"#utility.yul\":9220:9232   */\n      and\n        /* \"#utility.yul\":9251:9269   */\n      dup1\n        /* \"#utility.yul\":9241:9322   */\n      tag_144\n      jumpi\n        /* \"#utility.yul\":9307:9311   */\n      0x7f\n        /* \"#utility.yul\":9299:9305   */\n      dup3\n        /* \"#utility.yul\":9295:9312   */\n      and\n        /* \"#utility.yul\":9285:9312   */\n      swap2\n      pop\n        /* \"#utility.yul\":9241:9322   */\n    tag_144:\n        /* \"#utility.yul\":9369:9371   */\n      0x20\n        /* \"#utility.yul\":9361:9367   */\n      dup3\n        /* \"#utility.yul\":9358:9372   */\n      lt\n        /* \"#utility.yul\":9338:9356   */\n      dup2\n        /* \"#utility.yul\":9335:9373   */\n      sub\n        /* \"#utility.yul\":9332:9416   */\n      tag_145\n      jumpi\n        /* \"#utility.yul\":9388:9406   */\n      tag_146\n      tag_58\n      jump\t// in\n    tag_146:\n        /* \"#utility.yul\":9332:9416   */\n    tag_145:\n        /* \"#utility.yul\":9153:9422   */\n      pop\n        /* \"#utility.yul\":9102:9422   */\n      swap2\n      swap1\n      pop\n      jump\t// out\n\n    auxdata: 0xa264697066735822122001bb287af7a4047b93d3104d4e4dad7eac9a90bf53208cb5badf3cceb9678c8e64736f6c63430008110033\n}\n\nsub_1: assembly {\n        /* \"ElectronicMedicalRecords.sol\":1267:4504  contract Patient {... */\n      mstore(0x40, 0x80)\n        /* \"ElectronicMedicalRecords.sol\":1742:1803  constructor(address _admin) {... */\n      callvalue\n      dup1\n      iszero\n      tag_1\n      jumpi\n      0x00\n      dup1\n      revert\n    tag_1:\n      pop\n      mload(0x40)\n      sub(codesize, bytecodeSize)\n      dup1\n      bytecodeSize\n      dup4\n      codecopy\n      dup2\n      dup2\n      add\n      0x40\n      mstore\n      dup2\n      add\n      swap1\n      tag_2\n      swap2\n      swap1\n      tag_3\n      jump\t// in\n    tag_2:\n        /* \"ElectronicMedicalRecords.sol\":1789:1795  _admin */\n      dup1\n        /* \"ElectronicMedicalRecords.sol\":1781:1786  admin */\n      0x01\n      0x00\n        /* \"ElectronicMedicalRecords.sol\":1781:1795  admin = _admin */\n      0x0100\n      exp\n      dup2\n      sload\n      dup2\n      0xffffffffffffffffffffffffffffffffffffffff\n      mul\n      not\n      and\n      swap1\n      dup4\n      0xffffffffffffffffffffffffffffffffffffffff\n      and\n      mul\n      or\n      swap1\n      sstore\n      pop\n        /* \"ElectronicMedicalRecords.sol\":1742:1803  constructor(address _admin) {... */\n      pop\n        /* \"ElectronicMedicalRecords.sol\":1267:4504  contract Patient {... */\n      jump(tag_6)\n        /* \"#utility.yul\":88:205   */\n    tag_8:\n        /* \"#utility.yul\":197:198   */\n      0x00\n        /* \"#utility.yul\":194:195   */\n      dup1\n        /* \"#utility.yul\":187:199   */\n      revert\n        /* \"#utility.yul\":334:460   */\n    tag_10:\n        /* \"#utility.yul\":371:378   */\n      0x00\n        /* \"#utility.yul\":411:453   */\n      0xffffffffffffffffffffffffffffffffffffffff\n        /* \"#utility.yul\":404:409   */\n      dup3\n        /* \"#utility.yul\":400:454   */\n      and\n        /* \"#utility.yul\":389:454   */\n      swap1\n      pop\n        /* \"#utility.yul\":334:460   */\n      swap2\n      swap1\n      pop\n      jump\t// out\n        /* \"#utility.yul\":466:562   */\n    tag_11:\n        /* \"#utility.yul\":503:510   */\n      0x00\n        /* \"#utility.yul\":532:556   */\n      tag_20\n        /* \"#utility.yul\":550:555   */\n      dup3\n        /* \"#utility.yul\":532:556   */\n      tag_10\n      jump\t// in\n    tag_20:\n        /* \"#utility.yul\":521:556   */\n      swap1\n      pop\n        /* \"#utility.yul\":466:562   */\n      swap2\n      swap1\n      pop\n      jump\t// out\n        /* \"#utility.yul\":568:690   */\n    tag_12:\n        /* \"#utility.yul\":641:665   */\n      tag_22\n        /* \"#utility.yul\":659:664   */\n      dup2\n        /* \"#utility.yul\":641:665   */\n      tag_11\n      jump\t// in\n    tag_22:\n        /* \"#utility.yul\":634:639   */\n      dup2\n        /* \"#utility.yul\":631:666   */\n      eq\n        /* \"#utility.yul\":621:684   */\n      tag_23\n      jumpi\n        /* \"#utility.yul\":680:681   */\n      0x00\n        /* \"#utility.yul\":677:678   */\n      dup1\n        /* \"#utility.yul\":670:682   */\n      revert\n        /* \"#utility.yul\":621:684   */\n    tag_23:\n        /* \"#utility.yul\":568:690   */\n      pop\n      jump\t// out\n        /* \"#utility.yul\":696:839   */\n    tag_13:\n        /* \"#utility.yul\":753:758   */\n      0x00\n        /* \"#utility.yul\":784:790   */\n      dup2\n        /* \"#utility.yul\":778:791   */\n      mload\n        /* \"#utility.yul\":769:791   */\n      swap1\n      pop\n        /* \"#utility.yul\":800:833   */\n      tag_25\n        /* \"#utility.yul\":827:832   */\n      dup2\n        /* \"#utility.yul\":800:833   */\n      tag_12\n      jump\t// in\n    tag_25:\n        /* \"#utility.yul\":696:839   */\n      swap3\n      swap2\n      pop\n      pop\n      jump\t// out\n        /* \"#utility.yul\":845:1196   */\n    tag_3:\n        /* \"#utility.yul\":915:921   */\n      0x00\n        /* \"#utility.yul\":964:966   */\n      0x20\n        /* \"#utility.yul\":952:961   */\n      dup3\n        /* \"#utility.yul\":943:950   */\n      dup5\n        /* \"#utility.yul\":939:962   */\n      sub\n        /* \"#utility.yul\":935:967   */\n      slt\n        /* \"#utility.yul\":932:1051   */\n      iszero\n      tag_27\n      jumpi\n        /* \"#utility.yul\":970:1049   */\n      tag_28\n      tag_8\n      jump\t// in\n    tag_28:\n        /* \"#utility.yul\":932:1051   */\n    tag_27:\n        /* \"#utility.yul\":1090:1091   */\n      0x00\n        /* \"#utility.yul\":1115:1179   */\n      tag_29\n        /* \"#utility.yul\":1171:1178   */\n      dup5\n        /* \"#utility.yul\":1162:1168   */\n      dup3\n        /* \"#utility.yul\":1151:1160   */\n      dup6\n        /* \"#utility.yul\":1147:1169   */\n      add\n        /* \"#utility.yul\":1115:1179   */\n      tag_13\n      jump\t// in\n    tag_29:\n        /* \"#utility.yul\":1105:1179   */\n      swap2\n      pop\n        /* \"#utility.yul\":1061:1189   */\n      pop\n        /* \"#utility.yul\":845:1196   */\n      swap3\n      swap2\n      pop\n      pop\n      jump\t// out\n        /* \"ElectronicMedicalRecords.sol\":1267:4504  contract Patient {... */\n    tag_6:\n      dataSize(sub_0)\n      dup1\n      dataOffset(sub_0)\n      0x00\n      codecopy\n      0x00\n      return\n    stop\n\n    sub_0: assembly {\n            /* \"ElectronicMedicalRecords.sol\":1267:4504  contract Patient {... */\n          mstore(0x40, 0x80)\n          callvalue\n          dup1\n          iszero\n          tag_1\n          jumpi\n          0x00\n          dup1\n          revert\n        tag_1:\n          pop\n          jumpi(tag_2, lt(calldatasize, 0x04))\n          shr(0xe0, calldataload(0x00))\n          dup1\n          0x1107747e\n          eq\n          tag_3\n          jumpi\n          dup1\n          0x26c01f7d\n          eq\n          tag_4\n          jumpi\n          dup1\n          0x48e81852\n          eq\n          tag_5\n          jumpi\n          dup1\n          0x52a6042d\n          eq\n          tag_6\n          jumpi\n          dup1\n          0x5db185c7\n          eq\n          tag_7\n          jumpi\n          dup1\n          0x7621df6f\n          eq\n          tag_8\n          jumpi\n        tag_2:\n          0x00\n          dup1\n          revert\n            /* \"ElectronicMedicalRecords.sol\":1811:1974  function setDoctorVerificatorAddress(address _DoctorVerificatorAddress) public {... */\n        tag_3:\n          tag_9\n          0x04\n          dup1\n          calldatasize\n          sub\n          dup2\n          add\n          swap1\n          tag_10\n          swap2\n          swap1\n          tag_11\n          jump\t// in\n        tag_10:\n          tag_12\n          jump\t// in\n        tag_9:\n          stop\n            /* \"ElectronicMedicalRecords.sol\":2314:3212  function setPatientData(... */\n        tag_4:\n          tag_13\n          0x04\n          dup1\n          calldatasize\n          sub\n          dup2\n          add\n          swap1\n          tag_14\n          swap2\n          swap1\n          tag_15\n          jump\t// in\n        tag_14:\n          tag_16\n          jump\t// in\n        tag_13:\n          stop\n            /* \"ElectronicMedicalRecords.sol\":3220:3417  function getPatientData(address _address)... */\n        tag_5:\n          tag_17\n          0x04\n          dup1\n          calldatasize\n          sub\n          dup2\n          add\n          swap1\n          tag_18\n          swap2\n          swap1\n          tag_11\n          jump\t// in\n        tag_18:\n          tag_19\n          jump\t// in\n        tag_17:\n          mload(0x40)\n          tag_20\n          swap2\n          swap1\n          tag_21\n          jump\t// in\n        tag_20:\n          mload(0x40)\n          dup1\n          swap2\n          sub\n          swap1\n          return\n            /* \"ElectronicMedicalRecords.sol\":3425:4234  function updatePatientData(... */\n        tag_6:\n          tag_22\n          0x04\n          dup1\n          calldatasize\n          sub\n          dup2\n          add\n          swap1\n          tag_23\n          swap2\n          swap1\n          tag_15\n          jump\t// in\n        tag_23:\n          tag_24\n          jump\t// in\n        tag_22:\n          stop\n            /* \"ElectronicMedicalRecords.sol\":1982:2150  function setPatientVerificatorAddress(address _PatientVerificatorAddress) public {... */\n        tag_7:\n          tag_25\n          0x04\n          dup1\n          calldatasize\n          sub\n          dup2\n          add\n          swap1\n          tag_26\n          swap2\n          swap1\n          tag_11\n          jump\t// in\n        tag_26:\n          tag_27\n          jump\t// in\n        tag_25:\n          stop\n            /* \"ElectronicMedicalRecords.sol\":2158:2306  function setDoctorRelationAddress(address _DoctorRelationAddress) public {... */\n        tag_8:\n          tag_28\n          0x04\n          dup1\n          calldatasize\n          sub\n          dup2\n          add\n          swap1\n          tag_29\n          swap2\n          swap1\n          tag_11\n          jump\t// in\n        tag_29:\n          tag_30\n          jump\t// in\n        tag_28:\n          stop\n            /* \"ElectronicMedicalRecords.sol\":1811:1974  function setDoctorVerificatorAddress(address _DoctorVerificatorAddress) public {... */\n        tag_12:\n            /* \"ElectronicMedicalRecords.sol\":1940:1965  _DoctorVerificatorAddress */\n          dup1\n            /* \"ElectronicMedicalRecords.sol\":1901:1919  doctor_verificator */\n          0x02\n          0x00\n            /* \"ElectronicMedicalRecords.sol\":1901:1966  doctor_verificator = DoctorVerificator(_DoctorVerificatorAddress) */\n          0x0100\n          exp\n          dup2\n          sload\n          dup2\n          0xffffffffffffffffffffffffffffffffffffffff\n          mul\n          not\n          and\n          swap1\n          dup4\n          0xffffffffffffffffffffffffffffffffffffffff\n          and\n          mul\n          or\n          swap1\n          sstore\n          pop\n            /* \"ElectronicMedicalRecords.sol\":1811:1974  function setDoctorVerificatorAddress(address _DoctorVerificatorAddress) public {... */\n          pop\n          jump\t// out\n            /* \"ElectronicMedicalRecords.sol\":2314:3212  function setPatientData(... */\n        tag_16:\n            /* \"ElectronicMedicalRecords.sol\":4283:4301  doctor_verificator */\n          0x02\n          0x00\n          swap1\n          sload\n          swap1\n          0x0100\n          exp\n          swap1\n          div\n          0xffffffffffffffffffffffffffffffffffffffff\n          and\n            /* \"ElectronicMedicalRecords.sol\":4283:4308  doctor_verificator.verify */\n          0xffffffffffffffffffffffffffffffffffffffff\n          and\n          0x63a9c3d7\n            /* \"ElectronicMedicalRecords.sol\":4309:4319  msg.sender */\n          caller\n            /* \"ElectronicMedicalRecords.sol\":4283:4320  doctor_verificator.verify(msg.sender) */\n          mload(0x40)\n          dup3\n          0xffffffff\n          and\n          0xe0\n          shl\n          dup2\n          mstore\n          0x04\n          add\n          tag_33\n          swap2\n          swap1\n          tag_34\n          jump\t// in\n        tag_33:\n          0x20\n          mload(0x40)\n          dup1\n          dup4\n          sub\n          dup2\n          dup7\n          gas\n          staticcall\n          iszero\n          dup1\n          iszero\n          tag_36\n          jumpi\n          returndatasize\n          0x00\n          dup1\n          returndatacopy\n          revert(0x00, returndatasize)\n        tag_36:\n          pop\n          pop\n          pop\n          pop\n          mload(0x40)\n          returndatasize\n          not(0x1f)\n          0x1f\n          dup3\n          add\n          and\n          dup3\n          add\n          dup1\n          0x40\n          mstore\n          pop\n          dup2\n          add\n          swap1\n          tag_37\n          swap2\n          swap1\n          tag_38\n          jump\t// in\n        tag_37:\n            /* \"ElectronicMedicalRecords.sol\":4275:4321  require(doctor_verificator.verify(msg.sender)) */\n          tag_39\n          jumpi\n          0x00\n          dup1\n          revert\n        tag_39:\n            /* \"ElectronicMedicalRecords.sol\":2666:2700  PatientData storage newPatientData */\n          0x00\n            /* \"ElectronicMedicalRecords.sol\":2703:2715  Patient_Data */\n          dup1\n            /* \"ElectronicMedicalRecords.sol\":2703:2725  Patient_Data[_patient] */\n          0x00\n            /* \"ElectronicMedicalRecords.sol\":2716:2724  _patient */\n          dup11\n            /* \"ElectronicMedicalRecords.sol\":2703:2725  Patient_Data[_patient] */\n          0xffffffffffffffffffffffffffffffffffffffff\n          and\n          0xffffffffffffffffffffffffffffffffffffffff\n          and\n          dup2\n          mstore\n          0x20\n          add\n          swap1\n          dup2\n          mstore\n          0x20\n          add\n          0x00\n          keccak256\n            /* \"ElectronicMedicalRecords.sol\":2666:2725  PatientData storage newPatientData = Patient_Data[_patient] */\n          swap1\n          pop\n            /* \"ElectronicMedicalRecords.sol\":2766:2779  _nama_lengkap */\n          dup8\n            /* \"ElectronicMedicalRecords.sol\":2736:2750  newPatientData */\n          dup2\n            /* \"ElectronicMedicalRecords.sol\":2736:2763  newPatientData.nama_lengkap */\n          0x00\n          add\n            /* \"ElectronicMedicalRecords.sol\":2736:2779  newPatientData.nama_lengkap = _nama_lengkap */\n          swap1\n          dup2\n          tag_41\n          swap2\n          swap1\n          tag_42\n          jump\t// in\n        tag_41:\n          pop\n            /* \"ElectronicMedicalRecords.sol\":2812:2817  _umur */\n          dup7\n            /* \"ElectronicMedicalRecords.sol\":2790:2804  newPatientData */\n          dup2\n            /* \"ElectronicMedicalRecords.sol\":2790:2809  newPatientData.umur */\n          0x01\n          add\n            /* \"ElectronicMedicalRecords.sol\":2790:2817  newPatientData.umur = _umur */\n          dup2\n          swap1\n          sstore\n          pop\n            /* \"ElectronicMedicalRecords.sol\":2859:2873  _tanggal_lahir */\n          dup6\n            /* \"ElectronicMedicalRecords.sol\":2828:2842  newPatientData */\n          dup2\n            /* \"ElectronicMedicalRecords.sol\":2828:2856  newPatientData.tanggal_lahir */\n          0x02\n          add\n            /* \"ElectronicMedicalRecords.sol\":2828:2873  newPatientData.tanggal_lahir = _tanggal_lahir */\n          swap1\n          dup2\n          tag_43\n          swap2\n          swap1\n          tag_42\n          jump\t// in\n        tag_43:\n          pop\n            /* \"ElectronicMedicalRecords.sol\":2915:2929  _tanggal_masuk */\n          dup5\n            /* \"ElectronicMedicalRecords.sol\":2884:2898  newPatientData */\n          dup2\n            /* \"ElectronicMedicalRecords.sol\":2884:2912  newPatientData.tanggal_masuk */\n          0x03\n          add\n            /* \"ElectronicMedicalRecords.sol\":2884:2929  newPatientData.tanggal_masuk = _tanggal_masuk */\n          swap1\n          dup2\n          tag_44\n          swap2\n          swap1\n          tag_42\n          jump\t// in\n        tag_44:\n          pop\n            /* \"ElectronicMedicalRecords.sol\":2972:2987  _tanggal_keluar */\n          dup4\n            /* \"ElectronicMedicalRecords.sol\":2940:2954  newPatientData */\n          dup2\n            /* \"ElectronicMedicalRecords.sol\":2940:2969  newPatientData.tanggal_keluar */\n          0x04\n          add\n            /* \"ElectronicMedicalRecords.sol\":2940:2987  newPatientData.tanggal_keluar = _tanggal_keluar */\n          swap1\n          dup2\n          tag_45\n          swap2\n          swap1\n          tag_42\n          jump\t// in\n        tag_45:\n          pop\n            /* \"ElectronicMedicalRecords.sol\":3025:3035  _anamnesis */\n          dup3\n            /* \"ElectronicMedicalRecords.sol\":2998:3012  newPatientData */\n          dup2\n            /* \"ElectronicMedicalRecords.sol\":2998:3022  newPatientData.anamnesis */\n          0x05\n          add\n            /* \"ElectronicMedicalRecords.sol\":2998:3035  newPatientData.anamnesis = _anamnesis */\n          swap1\n          dup2\n          tag_46\n          swap2\n          swap1\n          tag_42\n          jump\t// in\n        tag_46:\n          pop\n            /* \"ElectronicMedicalRecords.sol\":3073:3083  _diagnosis */\n          dup2\n            /* \"ElectronicMedicalRecords.sol\":3046:3060  newPatientData */\n          dup2\n            /* \"ElectronicMedicalRecords.sol\":3046:3070  newPatientData.diagnosis */\n          0x06\n          add\n            /* \"ElectronicMedicalRecords.sol\":3046:3083  newPatientData.diagnosis = _diagnosis */\n          swap1\n          dup2\n          tag_47\n          swap2\n          swap1\n          tag_42\n          jump\t// in\n        tag_47:\n          pop\n            /* \"ElectronicMedicalRecords.sol\":3096:3115  patient_verificator */\n          0x03\n          0x00\n          swap1\n          sload\n          swap1\n          0x0100\n          exp\n          swap1\n          div\n          0xffffffffffffffffffffffffffffffffffffffff\n          and\n            /* \"ElectronicMedicalRecords.sol\":3096:3126  patient_verificator.addPatient */\n          0xffffffffffffffffffffffffffffffffffffffff\n          and\n          0x6d263ceb\n            /* \"ElectronicMedicalRecords.sol\":3127:3135  _patient */\n          dup11\n            /* \"ElectronicMedicalRecords.sol\":3096:3136  patient_verificator.addPatient(_patient) */\n          mload(0x40)\n          dup3\n          0xffffffff\n          and\n          0xe0\n          shl\n          dup2\n          mstore\n          0x04\n          add\n          tag_48\n          swap2\n          swap1\n          tag_34\n          jump\t// in\n        tag_48:\n          0x00\n          mload(0x40)\n          dup1\n          dup4\n          sub\n          dup2\n          0x00\n          dup8\n          gas\n          call\n          iszero\n          dup1\n          iszero\n          tag_50\n          jumpi\n          returndatasize\n          0x00\n          dup1\n          returndatacopy\n          revert(0x00, returndatasize)\n        tag_50:\n          pop\n          pop\n          pop\n          pop\n          mload(0x40)\n          returndatasize\n          0x00\n          dup3\n          returndatacopy\n          returndatasize\n          not(0x1f)\n          0x1f\n          dup3\n          add\n          and\n          dup3\n          add\n          dup1\n          0x40\n          mstore\n          pop\n          dup2\n          add\n          swap1\n          tag_51\n          swap2\n          swap1\n          tag_52\n          jump\t// in\n        tag_51:\n          pop\n            /* \"ElectronicMedicalRecords.sol\":3147:3162  doctor_relation */\n          0x04\n          0x00\n          swap1\n          sload\n          swap1\n          0x0100\n          exp\n          swap1\n          div\n          0xffffffffffffffffffffffffffffffffffffffff\n          and\n            /* \"ElectronicMedicalRecords.sol\":3147:3180  doctor_relation.addDoctorRelation */\n          0xffffffffffffffffffffffffffffffffffffffff\n          and\n          0x8bfc8c71\n            /* \"ElectronicMedicalRecords.sol\":3181:3191  msg.sender */\n          caller\n            /* \"ElectronicMedicalRecords.sol\":3193:3201  _patient */\n          dup12\n            /* \"ElectronicMedicalRecords.sol\":3147:3202  doctor_relation.addDoctorRelation(msg.sender, _patient) */\n          mload(0x40)\n          dup4\n          0xffffffff\n          and\n          0xe0\n          shl\n          dup2\n          mstore\n          0x04\n          add\n          tag_53\n          swap3\n          swap2\n          swap1\n          tag_54\n          jump\t// in\n        tag_53:\n          0x00\n          mload(0x40)\n          dup1\n          dup4\n          sub\n          dup2\n          0x00\n          dup8\n          dup1\n          extcodesize\n          iszero\n          dup1\n          iszero\n          tag_55\n          jumpi\n          0x00\n          dup1\n          revert\n        tag_55:\n          pop\n          gas\n          call\n          iszero\n          dup1\n          iszero\n          tag_57\n          jumpi\n          returndatasize\n          0x00\n          dup1\n          returndatacopy\n          revert(0x00, returndatasize)\n        tag_57:\n          pop\n          pop\n          pop\n          pop\n            /* \"ElectronicMedicalRecords.sol\":2642:3212  { //onlyDoctor... */\n          pop\n            /* \"ElectronicMedicalRecords.sol\":2314:3212  function setPatientData(... */\n          pop\n          pop\n          pop\n          pop\n          pop\n          pop\n          pop\n          pop\n          jump\t// out\n            /* \"ElectronicMedicalRecords.sol\":3220:3417  function getPatientData(address _address)... */\n        tag_19:\n            /* \"ElectronicMedicalRecords.sol\":3339:3362  PatientData memory data */\n          tag_58\n          tag_59\n          jump\t// in\n        tag_58:\n            /* \"ElectronicMedicalRecords.sol\":4399:4417  doctor_verificator */\n          0x02\n          0x00\n          swap1\n          sload\n          swap1\n          0x0100\n          exp\n          swap1\n          div\n          0xffffffffffffffffffffffffffffffffffffffff\n          and\n            /* \"ElectronicMedicalRecords.sol\":4399:4424  doctor_verificator.verify */\n          0xffffffffffffffffffffffffffffffffffffffff\n          and\n          0x63a9c3d7\n            /* \"ElectronicMedicalRecords.sol\":4425:4435  msg.sender */\n          caller\n            /* \"ElectronicMedicalRecords.sol\":4399:4436  doctor_verificator.verify(msg.sender) */\n          mload(0x40)\n          dup3\n          0xffffffff\n          and\n          0xe0\n          shl\n          dup2\n          mstore\n          0x04\n          add\n          tag_61\n          swap2\n          swap1\n          tag_34\n          jump\t// in\n        tag_61:\n          0x20\n          mload(0x40)\n          dup1\n          dup4\n          sub\n          dup2\n          dup7\n          gas\n          staticcall\n          iszero\n          dup1\n          iszero\n          tag_63\n          jumpi\n          returndatasize\n          0x00\n          dup1\n          returndatacopy\n          revert(0x00, returndatasize)\n        tag_63:\n          pop\n          pop\n          pop\n          pop\n          mload(0x40)\n          returndatasize\n          not(0x1f)\n          0x1f\n          dup3\n          add\n          and\n          dup3\n          add\n          dup1\n          0x40\n          mstore\n          pop\n          dup2\n          add\n          swap1\n          tag_64\n          swap2\n          swap1\n          tag_38\n          jump\t// in\n        tag_64:\n            /* \"ElectronicMedicalRecords.sol\":4399:4478  doctor_verificator.verify(msg.sender) || patient_verificator.verify(msg.sender) */\n          dup1\n          tag_65\n          jumpi\n          pop\n            /* \"ElectronicMedicalRecords.sol\":4440:4459  patient_verificator */\n          0x03\n          0x00\n          swap1\n          sload\n          swap1\n          0x0100\n          exp\n          swap1\n          div\n          0xffffffffffffffffffffffffffffffffffffffff\n          and\n            /* \"ElectronicMedicalRecords.sol\":4440:4466  patient_verificator.verify */\n          0xffffffffffffffffffffffffffffffffffffffff\n          and\n          0x63a9c3d7\n            /* \"ElectronicMedicalRecords.sol\":4467:4477  msg.sender */\n          caller\n            /* \"ElectronicMedicalRecords.sol\":4440:4478  patient_verificator.verify(msg.sender) */\n          mload(0x40)\n          dup3\n          0xffffffff\n          and\n          0xe0\n          shl\n          dup2\n          mstore\n          0x04\n          add\n          tag_66\n          swap2\n          swap1\n          tag_34\n          jump\t// in\n        tag_66:\n          0x20\n          mload(0x40)\n          dup1\n          dup4\n          sub\n          dup2\n          dup7\n          gas\n          staticcall\n          iszero\n          dup1\n          iszero\n          tag_68\n          jumpi\n          returndatasize\n          0x00\n          dup1\n          returndatacopy\n          revert(0x00, returndatasize)\n        tag_68:\n          pop\n          pop\n          pop\n          pop\n          mload(0x40)\n          returndatasize\n          not(0x1f)\n          0x1f\n          dup3\n          add\n          and\n          dup3\n          add\n          dup1\n          0x40\n          mstore\n          pop\n          dup2\n          add\n          swap1\n          tag_69\n          swap2\n          swap1\n          tag_38\n          jump\t// in\n        tag_69:\n            /* \"ElectronicMedicalRecords.sol\":4399:4478  doctor_verificator.verify(msg.sender) || patient_verificator.verify(msg.sender) */\n        tag_65:\n            /* \"ElectronicMedicalRecords.sol\":4391:4479  require(doctor_verificator.verify(msg.sender) || patient_verificator.verify(msg.sender)) */\n          tag_70\n          jumpi\n          0x00\n          dup1\n          revert\n        tag_70:\n            /* \"ElectronicMedicalRecords.sol\":3387:3399  Patient_Data */\n          0x00\n            /* \"ElectronicMedicalRecords.sol\":3387:3409  Patient_Data[_address] */\n          dup1\n            /* \"ElectronicMedicalRecords.sol\":3400:3408  _address */\n          dup4\n            /* \"ElectronicMedicalRecords.sol\":3387:3409  Patient_Data[_address] */\n          0xffffffffffffffffffffffffffffffffffffffff\n          and\n          0xffffffffffffffffffffffffffffffffffffffff\n          and\n          dup2\n          mstore\n          0x20\n          add\n          swap1\n          dup2\n          mstore\n          0x20\n          add\n          0x00\n          keccak256\n            /* \"ElectronicMedicalRecords.sol\":3380:3409  return Patient_Data[_address] */\n          mload(0x40)\n          dup1\n          0xe0\n          add\n          0x40\n          mstore\n          swap1\n          dup2\n          0x00\n          dup3\n          add\n          dup1\n          sload\n          tag_72\n          swap1\n          tag_73\n          jump\t// in\n        tag_72:\n          dup1\n          0x1f\n          add\n          0x20\n          dup1\n          swap2\n          div\n          mul\n          0x20\n          add\n          mload(0x40)\n          swap1\n          dup2\n          add\n          0x40\n          mstore\n          dup1\n          swap3\n          swap2\n          swap1\n          dup2\n          dup2\n          mstore\n          0x20\n          add\n          dup3\n          dup1\n          sload\n          tag_74\n          swap1\n          tag_73\n          jump\t// in\n        tag_74:\n          dup1\n          iszero\n          tag_75\n          jumpi\n          dup1\n          0x1f\n          lt\n          tag_76\n          jumpi\n          0x0100\n          dup1\n          dup4\n          sload\n          div\n          mul\n          dup4\n          mstore\n          swap2\n          0x20\n          add\n          swap2\n          jump(tag_75)\n        tag_76:\n          dup3\n          add\n          swap2\n          swap1\n          0x00\n          mstore\n          keccak256(0x00, 0x20)\n          swap1\n        tag_77:\n          dup2\n          sload\n          dup2\n          mstore\n          swap1\n          0x01\n          add\n          swap1\n          0x20\n          add\n          dup1\n          dup4\n          gt\n          tag_77\n          jumpi\n          dup3\n          swap1\n          sub\n          0x1f\n          and\n          dup3\n          add\n          swap2\n        tag_75:\n          pop\n          pop\n          pop\n          pop\n          pop\n          dup2\n          mstore\n          0x20\n          add\n          0x01\n          dup3\n          add\n          sload\n          dup2\n          mstore\n          0x20\n          add\n          0x02\n          dup3\n          add\n          dup1\n          sload\n          tag_78\n          swap1\n          tag_73\n          jump\t// in\n        tag_78:\n          dup1\n          0x1f\n          add\n          0x20\n          dup1\n          swap2\n          div\n          mul\n          0x20\n          add\n          mload(0x40)\n          swap1\n          dup2\n          add\n          0x40\n          mstore\n          dup1\n          swap3\n          swap2\n          swap1\n          dup2\n          dup2\n          mstore\n          0x20\n          add\n          dup3\n          dup1\n          sload\n          tag_79\n          swap1\n          tag_73\n          jump\t// in\n        tag_79:\n          dup1\n          iszero\n          tag_80\n          jumpi\n          dup1\n          0x1f\n          lt\n          tag_81\n          jumpi\n          0x0100\n          dup1\n          dup4\n          sload\n          div\n          mul\n          dup4\n          mstore\n          swap2\n          0x20\n          add\n          swap2\n          jump(tag_80)\n        tag_81:\n          dup3\n          add\n          swap2\n          swap1\n          0x00\n          mstore\n          keccak256(0x00, 0x20)\n          swap1\n        tag_82:\n          dup2\n          sload\n          dup2\n          mstore\n          swap1\n          0x01\n          add\n          swap1\n          0x20\n          add\n          dup1\n          dup4\n          gt\n          tag_82\n          jumpi\n          dup3\n          swap1\n          sub\n          0x1f\n          and\n          dup3\n          add\n          swap2\n        tag_80:\n          pop\n          pop\n          pop\n          pop\n          pop\n          dup2\n          mstore\n          0x20\n          add\n          0x03\n          dup3\n          add\n          dup1\n          sload\n          tag_83\n          swap1\n          tag_73\n          jump\t// in\n        tag_83:\n          dup1\n          0x1f\n          add\n          0x20\n          dup1\n          swap2\n          div\n          mul\n          0x20\n          add\n          mload(0x40)\n          swap1\n          dup2\n          add\n          0x40\n          mstore\n          dup1\n          swap3\n          swap2\n          swap1\n          dup2\n          dup2\n          mstore\n          0x20\n          add\n          dup3\n          dup1\n          sload\n          tag_84\n          swap1\n          tag_73\n          jump\t// in\n        tag_84:\n          dup1\n          iszero\n          tag_85\n          jumpi\n          dup1\n          0x1f\n          lt\n          tag_86\n          jumpi\n          0x0100\n          dup1\n          dup4\n          sload\n          div\n          mul\n          dup4\n          mstore\n          swap2\n          0x20\n          add\n          swap2\n          jump(tag_85)\n        tag_86:\n          dup3\n          add\n          swap2\n          swap1\n          0x00\n          mstore\n          keccak256(0x00, 0x20)\n          swap1\n        tag_87:\n          dup2\n          sload\n          dup2\n          mstore\n          swap1\n          0x01\n          add\n          swap1\n          0x20\n          add\n          dup1\n          dup4\n          gt\n          tag_87\n          jumpi\n          dup3\n          swap1\n          sub\n          0x1f\n          and\n          dup3\n          add\n          swap2\n        tag_85:\n          pop\n          pop\n          pop\n          pop\n          pop\n          dup2\n          mstore\n          0x20\n          add\n          0x04\n          dup3\n          add\n          dup1\n          sload\n          tag_88\n          swap1\n          tag_73\n          jump\t// in\n        tag_88:\n          dup1\n          0x1f\n          add\n          0x20\n          dup1\n          swap2\n          div\n          mul\n          0x20\n          add\n          mload(0x40)\n          swap1\n          dup2\n          add\n          0x40\n          mstore\n          dup1\n          swap3\n          swap2\n          swap1\n          dup2\n          dup2\n          mstore\n          0x20\n          add\n          dup3\n          dup1\n          sload\n          tag_89\n          swap1\n          tag_73\n          jump\t// in\n        tag_89:\n          dup1\n          iszero\n          tag_90\n          jumpi\n          dup1\n          0x1f\n          lt\n          tag_91\n          jumpi\n          0x0100\n          dup1\n          dup4\n          sload\n          div\n          mul\n          dup4\n          mstore\n          swap2\n          0x20\n          add\n          swap2\n          jump(tag_90)\n        tag_91:\n          dup3\n          add\n          swap2\n          swap1\n          0x00\n          mstore\n          keccak256(0x00, 0x20)\n          swap1\n        tag_92:\n          dup2\n          sload\n          dup2\n          mstore\n          swap1\n          0x01\n          add\n          swap1\n          0x20\n          add\n          dup1\n          dup4\n          gt\n          tag_92\n          jumpi\n          dup3\n          swap1\n          sub\n          0x1f\n          and\n          dup3\n          add\n          swap2\n        tag_90:\n          pop\n          pop\n          pop\n          pop\n          pop\n          dup2\n          mstore\n          0x20\n          add\n          0x05\n          dup3\n          add\n          dup1\n          sload\n          tag_93\n          swap1\n          tag_73\n          jump\t// in\n        tag_93:\n          dup1\n          0x1f\n          add\n          0x20\n          dup1\n          swap2\n          div\n          mul\n          0x20\n          add\n          mload(0x40)\n          swap1\n          dup2\n          add\n          0x40\n          mstore\n          dup1\n          swap3\n          swap2\n          swap1\n          dup2\n          dup2\n          mstore\n          0x20\n          add\n          dup3\n          dup1\n          sload\n          tag_94\n          swap1\n          tag_73\n          jump\t// in\n        tag_94:\n          dup1\n          iszero\n          tag_95\n          jumpi\n          dup1\n          0x1f\n          lt\n          tag_96\n          jumpi\n          0x0100\n          dup1\n          dup4\n          sload\n          div\n          mul\n          dup4\n          mstore\n          swap2\n          0x20\n          add\n          swap2\n          jump(tag_95)\n        tag_96:\n          dup3\n          add\n          swap2\n          swap1\n          0x00\n          mstore\n          keccak256(0x00, 0x20)\n          swap1\n        tag_97:\n          dup2\n          sload\n          dup2\n          mstore\n          swap1\n          0x01\n          add\n          swap1\n          0x20\n          add\n          dup1\n          dup4\n          gt\n          tag_97\n          jumpi\n          dup3\n          swap1\n          sub\n          0x1f\n          and\n          dup3\n          add\n          swap2\n        tag_95:\n          pop\n          pop\n          pop\n          pop\n          pop\n          dup2\n          mstore\n          0x20\n          add\n          0x06\n          dup3\n          add\n          dup1\n          sload\n          tag_98\n          swap1\n          tag_73\n          jump\t// in\n        tag_98:\n          dup1\n          0x1f\n          add\n          0x20\n          dup1\n          swap2\n          div\n          mul\n          0x20\n          add\n          mload(0x40)\n          swap1\n          dup2\n          add\n          0x40\n          mstore\n          dup1\n          swap3\n          swap2\n          swap1\n          dup2\n          dup2\n          mstore\n          0x20\n          add\n          dup3\n          dup1\n          sload\n          tag_99\n          swap1\n          tag_73\n          jump\t// in\n        tag_99:\n          dup1\n          iszero\n          tag_100\n          jumpi\n          dup1\n          0x1f\n          lt\n          tag_101\n          jumpi\n          0x0100\n          dup1\n          dup4\n          sload\n          div\n          mul\n          dup4\n          mstore\n          swap2\n          0x20\n          add\n          swap2\n          jump(tag_100)\n        tag_101:\n          dup3\n          add\n          swap2\n          swap1\n          0x00\n          mstore\n          keccak256(0x00, 0x20)\n          swap1\n        tag_102:\n          dup2\n          sload\n          dup2\n          mstore\n          swap1\n          0x01\n          add\n          swap1\n          0x20\n          add\n          dup1\n          dup4\n          gt\n          tag_102\n          jumpi\n          dup3\n          swap1\n          sub\n          0x1f\n          and\n          dup3\n          add\n          swap2\n        tag_100:\n          pop\n          pop\n          pop\n          pop\n          pop\n          dup2\n          mstore\n          pop\n          pop\n          swap1\n          pop\n            /* \"ElectronicMedicalRecords.sol\":3220:3417  function getPatientData(address _address)... */\n          swap2\n          swap1\n          pop\n          jump\t// out\n            /* \"ElectronicMedicalRecords.sol\":3425:4234  function updatePatientData(... */\n        tag_24:\n            /* \"ElectronicMedicalRecords.sol\":3769:3808  PatientData storage existingPatientData */\n          0x00\n            /* \"ElectronicMedicalRecords.sol\":3811:3823  Patient_Data */\n          dup1\n            /* \"ElectronicMedicalRecords.sol\":3811:3833  Patient_Data[_patient] */\n          0x00\n            /* \"ElectronicMedicalRecords.sol\":3824:3832  _patient */\n          dup11\n            /* \"ElectronicMedicalRecords.sol\":3811:3833  Patient_Data[_patient] */\n          0xffffffffffffffffffffffffffffffffffffffff\n          and\n          0xffffffffffffffffffffffffffffffffffffffff\n          and\n          dup2\n          mstore\n          0x20\n          add\n          swap1\n          dup2\n          mstore\n          0x20\n          add\n          0x00\n          keccak256\n            /* \"ElectronicMedicalRecords.sol\":3769:3833  PatientData storage existingPatientData = Patient_Data[_patient] */\n          swap1\n          pop\n            /* \"ElectronicMedicalRecords.sol\":3879:3892  _nama_lengkap */\n          dup8\n            /* \"ElectronicMedicalRecords.sol\":3844:3863  existingPatientData */\n          dup2\n            /* \"ElectronicMedicalRecords.sol\":3844:3876  existingPatientData.nama_lengkap */\n          0x00\n          add\n            /* \"ElectronicMedicalRecords.sol\":3844:3892  existingPatientData.nama_lengkap = _nama_lengkap */\n          swap1\n          dup2\n          tag_104\n          swap2\n          swap1\n          tag_42\n          jump\t// in\n        tag_104:\n          pop\n            /* \"ElectronicMedicalRecords.sol\":3930:3935  _umur */\n          dup7\n            /* \"ElectronicMedicalRecords.sol\":3903:3922  existingPatientData */\n          dup2\n            /* \"ElectronicMedicalRecords.sol\":3903:3927  existingPatientData.umur */\n          0x01\n          add\n            /* \"ElectronicMedicalRecords.sol\":3903:3935  existingPatientData.umur = _umur */\n          dup2\n          swap1\n          sstore\n          pop\n            /* \"ElectronicMedicalRecords.sol\":3982:3996  _tanggal_lahir */\n          dup6\n            /* \"ElectronicMedicalRecords.sol\":3946:3965  existingPatientData */\n          dup2\n            /* \"ElectronicMedicalRecords.sol\":3946:3979  existingPatientData.tanggal_lahir */\n          0x02\n          add\n            /* \"ElectronicMedicalRecords.sol\":3946:3996  existingPatientData.tanggal_lahir = _tanggal_lahir */\n          swap1\n          dup2\n          tag_105\n          swap2\n          swap1\n          tag_42\n          jump\t// in\n        tag_105:\n          pop\n            /* \"ElectronicMedicalRecords.sol\":4043:4057  _tanggal_masuk */\n          dup5\n            /* \"ElectronicMedicalRecords.sol\":4007:4026  existingPatientData */\n          dup2\n            /* \"ElectronicMedicalRecords.sol\":4007:4040  existingPatientData.tanggal_masuk */\n          0x03\n          add\n            /* \"ElectronicMedicalRecords.sol\":4007:4057  existingPatientData.tanggal_masuk = _tanggal_masuk */\n          swap1\n          dup2\n          tag_106\n          swap2\n          swap1\n          tag_42\n          jump\t// in\n        tag_106:\n          pop\n            /* \"ElectronicMedicalRecords.sol\":4105:4120  _tanggal_keluar */\n          dup4\n            /* \"ElectronicMedicalRecords.sol\":4068:4087  existingPatientData */\n          dup2\n            /* \"ElectronicMedicalRecords.sol\":4068:4102  existingPatientData.tanggal_keluar */\n          0x04\n          add\n            /* \"ElectronicMedicalRecords.sol\":4068:4120  existingPatientData.tanggal_keluar = _tanggal_keluar */\n          swap1\n          dup2\n          tag_107\n          swap2\n          swap1\n          tag_42\n          jump\t// in\n        tag_107:\n          pop\n            /* \"ElectronicMedicalRecords.sol\":4163:4173  _anamnesis */\n          dup3\n            /* \"ElectronicMedicalRecords.sol\":4131:4150  existingPatientData */\n          dup2\n            /* \"ElectronicMedicalRecords.sol\":4131:4160  existingPatientData.anamnesis */\n          0x05\n          add\n            /* \"ElectronicMedicalRecords.sol\":4131:4173  existingPatientData.anamnesis = _anamnesis */\n          swap1\n          dup2\n          tag_108\n          swap2\n          swap1\n          tag_42\n          jump\t// in\n        tag_108:\n          pop\n            /* \"ElectronicMedicalRecords.sol\":4216:4226  _diagnosis */\n          dup2\n            /* \"ElectronicMedicalRecords.sol\":4184:4203  existingPatientData */\n          dup2\n            /* \"ElectronicMedicalRecords.sol\":4184:4213  existingPatientData.diagnosis */\n          0x06\n          add\n            /* \"ElectronicMedicalRecords.sol\":4184:4226  existingPatientData.diagnosis = _diagnosis */\n          swap1\n          dup2\n          tag_109\n          swap2\n          swap1\n          tag_42\n          jump\t// in\n        tag_109:\n          pop\n            /* \"ElectronicMedicalRecords.sol\":3745:4234  { //onlyDoctor... */\n          pop\n            /* \"ElectronicMedicalRecords.sol\":3425:4234  function updatePatientData(... */\n          pop\n          pop\n          pop\n          pop\n          pop\n          pop\n          pop\n          pop\n          jump\t// out\n            /* \"ElectronicMedicalRecords.sol\":1982:2150  function setPatientVerificatorAddress(address _PatientVerificatorAddress) public {... */\n        tag_27:\n            /* \"ElectronicMedicalRecords.sol\":2115:2141  _PatientVerificatorAddress */\n          dup1\n            /* \"ElectronicMedicalRecords.sol\":2074:2093  patient_verificator */\n          0x03\n          0x00\n            /* \"ElectronicMedicalRecords.sol\":2074:2142  patient_verificator = PatientVerificator(_PatientVerificatorAddress) */\n          0x0100\n          exp\n          dup2\n          sload\n          dup2\n          0xffffffffffffffffffffffffffffffffffffffff\n          mul\n          not\n          and\n          swap1\n          dup4\n          0xffffffffffffffffffffffffffffffffffffffff\n          and\n          mul\n          or\n          swap1\n          sstore\n          pop\n            /* \"ElectronicMedicalRecords.sol\":1982:2150  function setPatientVerificatorAddress(address _PatientVerificatorAddress) public {... */\n          pop\n          jump\t// out\n            /* \"ElectronicMedicalRecords.sol\":2158:2306  function setDoctorRelationAddress(address _DoctorRelationAddress) public {... */\n        tag_30:\n            /* \"ElectronicMedicalRecords.sol\":2275:2297  _DoctorRelationAddress */\n          dup1\n            /* \"ElectronicMedicalRecords.sol\":2242:2257  doctor_relation */\n          0x04\n          0x00\n            /* \"ElectronicMedicalRecords.sol\":2242:2298  doctor_relation = DoctorRelation(_DoctorRelationAddress) */\n          0x0100\n          exp\n          dup2\n          sload\n          dup2\n          0xffffffffffffffffffffffffffffffffffffffff\n          mul\n          not\n          and\n          swap1\n          dup4\n          0xffffffffffffffffffffffffffffffffffffffff\n          and\n          mul\n          or\n          swap1\n          sstore\n          pop\n            /* \"ElectronicMedicalRecords.sol\":2158:2306  function setDoctorRelationAddress(address _DoctorRelationAddress) public {... */\n          pop\n          jump\t// out\n        tag_59:\n          mload(0x40)\n          dup1\n          0xe0\n          add\n          0x40\n          mstore\n          dup1\n          0x60\n          dup2\n          mstore\n          0x20\n          add\n          0x00\n          dup2\n          mstore\n          0x20\n          add\n          0x60\n          dup2\n          mstore\n          0x20\n          add\n          0x60\n          dup2\n          mstore\n          0x20\n          add\n          0x60\n          dup2\n          mstore\n          0x20\n          add\n          0x60\n          dup2\n          mstore\n          0x20\n          add\n          0x60\n          dup2\n          mstore\n          pop\n          swap1\n          jump\t// out\n            /* \"#utility.yul\":7:82   */\n        tag_112:\n            /* \"#utility.yul\":40:46   */\n          0x00\n            /* \"#utility.yul\":73:75   */\n          0x40\n            /* \"#utility.yul\":67:76   */\n          mload\n            /* \"#utility.yul\":57:76   */\n          swap1\n          pop\n            /* \"#utility.yul\":7:82   */\n          swap1\n          jump\t// out\n            /* \"#utility.yul\":88:205   */\n        tag_113:\n            /* \"#utility.yul\":197:198   */\n          0x00\n            /* \"#utility.yul\":194:195   */\n          dup1\n            /* \"#utility.yul\":187:199   */\n          revert\n            /* \"#utility.yul\":211:328   */\n        tag_114:\n            /* \"#utility.yul\":320:321   */\n          0x00\n            /* \"#utility.yul\":317:318   */\n          dup1\n            /* \"#utility.yul\":310:322   */\n          revert\n            /* \"#utility.yul\":334:460   */\n        tag_115:\n            /* \"#utility.yul\":371:378   */\n          0x00\n            /* \"#utility.yul\":411:453   */\n          0xffffffffffffffffffffffffffffffffffffffff\n            /* \"#utility.yul\":404:409   */\n          dup3\n            /* \"#utility.yul\":400:454   */\n          and\n            /* \"#utility.yul\":389:454   */\n          swap1\n          pop\n            /* \"#utility.yul\":334:460   */\n          swap2\n          swap1\n          pop\n          jump\t// out\n            /* \"#utility.yul\":466:562   */\n        tag_116:\n            /* \"#utility.yul\":503:510   */\n          0x00\n            /* \"#utility.yul\":532:556   */\n          tag_166\n            /* \"#utility.yul\":550:555   */\n          dup3\n            /* \"#utility.yul\":532:556   */\n          tag_115\n          jump\t// in\n        tag_166:\n            /* \"#utility.yul\":521:556   */\n          swap1\n          pop\n            /* \"#utility.yul\":466:562   */\n          swap2\n          swap1\n          pop\n          jump\t// out\n            /* \"#utility.yul\":568:690   */\n        tag_117:\n            /* \"#utility.yul\":641:665   */\n          tag_168\n            /* \"#utility.yul\":659:664   */\n          dup2\n            /* \"#utility.yul\":641:665   */\n          tag_116\n          jump\t// in\n        tag_168:\n            /* \"#utility.yul\":634:639   */\n          dup2\n            /* \"#utility.yul\":631:666   */\n          eq\n            /* \"#utility.yul\":621:684   */\n          tag_169\n          jumpi\n            /* \"#utility.yul\":680:681   */\n          0x00\n            /* \"#utility.yul\":677:678   */\n          dup1\n            /* \"#utility.yul\":670:682   */\n          revert\n            /* \"#utility.yul\":621:684   */\n        tag_169:\n            /* \"#utility.yul\":568:690   */\n          pop\n          jump\t// out\n            /* \"#utility.yul\":696:835   */\n        tag_118:\n            /* \"#utility.yul\":742:747   */\n          0x00\n            /* \"#utility.yul\":780:786   */\n          dup2\n            /* \"#utility.yul\":767:787   */\n          calldataload\n            /* \"#utility.yul\":758:787   */\n          swap1\n          pop\n            /* \"#utility.yul\":796:829   */\n          tag_171\n            /* \"#utility.yul\":823:828   */\n          dup2\n            /* \"#utility.yul\":796:829   */\n          tag_117\n          jump\t// in\n        tag_171:\n            /* \"#utility.yul\":696:835   */\n          swap3\n          swap2\n          pop\n          pop\n          jump\t// out\n            /* \"#utility.yul\":841:1170   */\n        tag_11:\n            /* \"#utility.yul\":900:906   */\n          0x00\n            /* \"#utility.yul\":949:951   */\n          0x20\n            /* \"#utility.yul\":937:946   */\n          dup3\n            /* \"#utility.yul\":928:935   */\n          dup5\n            /* \"#utility.yul\":924:947   */\n          sub\n            /* \"#utility.yul\":920:952   */\n          slt\n            /* \"#utility.yul\":917:1036   */\n          iszero\n          tag_173\n          jumpi\n            /* \"#utility.yul\":955:1034   */\n          tag_174\n          tag_113\n          jump\t// in\n        tag_174:\n            /* \"#utility.yul\":917:1036   */\n        tag_173:\n            /* \"#utility.yul\":1075:1076   */\n          0x00\n            /* \"#utility.yul\":1100:1153   */\n          tag_175\n            /* \"#utility.yul\":1145:1152   */\n          dup5\n            /* \"#utility.yul\":1136:1142   */\n          dup3\n            /* \"#utility.yul\":1125:1134   */\n          dup6\n            /* \"#utility.yul\":1121:1143   */\n          add\n            /* \"#utility.yul\":1100:1153   */\n          tag_118\n          jump\t// in\n        tag_175:\n            /* \"#utility.yul\":1090:1153   */\n          swap2\n          pop\n            /* \"#utility.yul\":1046:1163   */\n          pop\n            /* \"#utility.yul\":841:1170   */\n          swap3\n          swap2\n          pop\n          pop\n          jump\t// out\n            /* \"#utility.yul\":1176:1293   */\n        tag_119:\n            /* \"#utility.yul\":1285:1286   */\n          0x00\n            /* \"#utility.yul\":1282:1283   */\n          dup1\n            /* \"#utility.yul\":1275:1287   */\n          revert\n            /* \"#utility.yul\":1299:1416   */\n        tag_120:\n            /* \"#utility.yul\":1408:1409   */\n          0x00\n            /* \"#utility.yul\":1405:1406   */\n          dup1\n            /* \"#utility.yul\":1398:1410   */\n          revert\n            /* \"#utility.yul\":1422:1524   */\n        tag_121:\n            /* \"#utility.yul\":1463:1469   */\n          0x00\n            /* \"#utility.yul\":1514:1516   */\n          0x1f\n            /* \"#utility.yul\":1510:1517   */\n          not\n            /* \"#utility.yul\":1505:1507   */\n          0x1f\n            /* \"#utility.yul\":1498:1503   */\n          dup4\n            /* \"#utility.yul\":1494:1508   */\n          add\n            /* \"#utility.yul\":1490:1518   */\n          and\n            /* \"#utility.yul\":1480:1518   */\n          swap1\n          pop\n            /* \"#utility.yul\":1422:1524   */\n          swap2\n          swap1\n          pop\n          jump\t// out\n            /* \"#utility.yul\":1530:1710   */\n        tag_122:\n            /* \"#utility.yul\":1578:1655   */\n          0x4e487b7100000000000000000000000000000000000000000000000000000000\n            /* \"#utility.yul\":1575:1576   */\n          0x00\n            /* \"#utility.yul\":1568:1656   */\n          mstore\n            /* \"#utility.yul\":1675:1679   */\n          0x41\n            /* \"#utility.yul\":1672:1673   */\n          0x04\n            /* \"#utility.yul\":1665:1680   */\n          mstore\n            /* \"#utility.yul\":1699:1703   */\n          0x24\n            /* \"#utility.yul\":1696:1697   */\n          0x00\n            /* \"#utility.yul\":1689:1704   */\n          revert\n            /* \"#utility.yul\":1716:1997   */\n        tag_123:\n            /* \"#utility.yul\":1799:1826   */\n          tag_181\n            /* \"#utility.yul\":1821:1825   */\n          dup3\n            /* \"#utility.yul\":1799:1826   */\n          tag_121\n          jump\t// in\n        tag_181:\n            /* \"#utility.yul\":1791:1797   */\n          dup2\n            /* \"#utility.yul\":1787:1827   */\n          add\n            /* \"#utility.yul\":1929:1935   */\n          dup2\n            /* \"#utility.yul\":1917:1927   */\n          dup2\n            /* \"#utility.yul\":1914:1936   */\n          lt\n            /* \"#utility.yul\":1893:1911   */\n          0xffffffffffffffff\n            /* \"#utility.yul\":1881:1891   */\n          dup3\n            /* \"#utility.yul\":1878:1912   */\n          gt\n            /* \"#utility.yul\":1875:1937   */\n          or\n            /* \"#utility.yul\":1872:1960   */\n          iszero\n          tag_182\n          jumpi\n            /* \"#utility.yul\":1940:1958   */\n          tag_183\n          tag_122\n          jump\t// in\n        tag_183:\n            /* \"#utility.yul\":1872:1960   */\n        tag_182:\n            /* \"#utility.yul\":1980:1990   */\n          dup1\n            /* \"#utility.yul\":1976:1978   */\n          0x40\n            /* \"#utility.yul\":1969:1991   */\n          mstore\n            /* \"#utility.yul\":1759:1997   */\n          pop\n            /* \"#utility.yul\":1716:1997   */\n          pop\n          pop\n          jump\t// out\n            /* \"#utility.yul\":2003:2132   */\n        tag_124:\n            /* \"#utility.yul\":2037:2043   */\n          0x00\n            /* \"#utility.yul\":2064:2084   */\n          tag_185\n          tag_112\n          jump\t// in\n        tag_185:\n            /* \"#utility.yul\":2054:2084   */\n          swap1\n          pop\n            /* \"#utility.yul\":2093:2126   */\n          tag_186\n            /* \"#utility.yul\":2121:2125   */\n          dup3\n            /* \"#utility.yul\":2113:2119   */\n          dup3\n            /* \"#utility.yul\":2093:2126   */\n          tag_123\n          jump\t// in\n        tag_186:\n            /* \"#utility.yul\":2003:2132   */\n          swap2\n          swap1\n          pop\n          jump\t// out\n            /* \"#utility.yul\":2138:2446   */\n        tag_125:\n            /* \"#utility.yul\":2200:2204   */\n          0x00\n            /* \"#utility.yul\":2290:2308   */\n          0xffffffffffffffff\n            /* \"#utility.yul\":2282:2288   */\n          dup3\n            /* \"#utility.yul\":2279:2309   */\n          gt\n            /* \"#utility.yul\":2276:2332   */\n          iszero\n          tag_188\n          jumpi\n            /* \"#utility.yul\":2312:2330   */\n          tag_189\n          tag_122\n          jump\t// in\n        tag_189:\n            /* \"#utility.yul\":2276:2332   */\n        tag_188:\n            /* \"#utility.yul\":2350:2379   */\n          tag_190\n            /* \"#utility.yul\":2372:2378   */\n          dup3\n            /* \"#utility.yul\":2350:2379   */\n          tag_121\n          jump\t// in\n        tag_190:\n            /* \"#utility.yul\":2342:2379   */\n          swap1\n          pop\n            /* \"#utility.yul\":2434:2438   */\n          0x20\n            /* \"#utility.yul\":2428:2432   */\n          dup2\n            /* \"#utility.yul\":2424:2439   */\n          add\n            /* \"#utility.yul\":2416:2439   */\n          swap1\n          pop\n            /* \"#utility.yul\":2138:2446   */\n          swap2\n          swap1\n          pop\n          jump\t// out\n            /* \"#utility.yul\":2452:2598   */\n        tag_126:\n            /* \"#utility.yul\":2549:2555   */\n          dup3\n            /* \"#utility.yul\":2544:2547   */\n          dup2\n            /* \"#utility.yul\":2539:2542   */\n          dup4\n            /* \"#utility.yul\":2526:2556   */\n          calldatacopy\n            /* \"#utility.yul\":2590:2591   */\n          0x00\n            /* \"#utility.yul\":2581:2587   */\n          dup4\n            /* \"#utility.yul\":2576:2579   */\n          dup4\n            /* \"#utility.yul\":2572:2588   */\n          add\n            /* \"#utility.yul\":2565:2592   */\n          mstore\n            /* \"#utility.yul\":2452:2598   */\n          pop\n          pop\n          pop\n          jump\t// out\n            /* \"#utility.yul\":2604:3029   */\n        tag_127:\n            /* \"#utility.yul\":2682:2687   */\n          0x00\n            /* \"#utility.yul\":2707:2773   */\n          tag_193\n            /* \"#utility.yul\":2723:2772   */\n          tag_194\n            /* \"#utility.yul\":2765:2771   */\n          dup5\n            /* \"#utility.yul\":2723:2772   */\n          tag_125\n          jump\t// in\n        tag_194:\n            /* \"#utility.yul\":2707:2773   */\n          tag_124\n          jump\t// in\n        tag_193:\n            /* \"#utility.yul\":2698:2773   */\n          swap1\n          pop\n            /* \"#utility.yul\":2796:2802   */\n          dup3\n            /* \"#utility.yul\":2789:2794   */\n          dup2\n            /* \"#utility.yul\":2782:2803   */\n          mstore\n            /* \"#utility.yul\":2834:2838   */\n          0x20\n            /* \"#utility.yul\":2827:2832   */\n          dup2\n            /* \"#utility.yul\":2823:2839   */\n          add\n            /* \"#utility.yul\":2872:2875   */\n          dup5\n            /* \"#utility.yul\":2863:2869   */\n          dup5\n            /* \"#utility.yul\":2858:2861   */\n          dup5\n            /* \"#utility.yul\":2854:2870   */\n          add\n            /* \"#utility.yul\":2851:2876   */\n          gt\n            /* \"#utility.yul\":2848:2960   */\n          iszero\n          tag_195\n          jumpi\n            /* \"#utility.yul\":2879:2958   */\n          tag_196\n          tag_120\n          jump\t// in\n        tag_196:\n            /* \"#utility.yul\":2848:2960   */\n        tag_195:\n            /* \"#utility.yul\":2969:3023   */\n          tag_197\n            /* \"#utility.yul\":3016:3022   */\n          dup5\n            /* \"#utility.yul\":3011:3014   */\n          dup3\n            /* \"#utility.yul\":3006:3009   */\n          dup6\n            /* \"#utility.yul\":2969:3023   */\n          tag_126\n          jump\t// in\n        tag_197:\n            /* \"#utility.yul\":2688:3029   */\n          pop\n            /* \"#utility.yul\":2604:3029   */\n          swap4\n          swap3\n          pop\n          pop\n          pop\n          jump\t// out\n            /* \"#utility.yul\":3049:3389   */\n        tag_128:\n            /* \"#utility.yul\":3105:3110   */\n          0x00\n            /* \"#utility.yul\":3154:3157   */\n          dup3\n            /* \"#utility.yul\":3147:3151   */\n          0x1f\n            /* \"#utility.yul\":3139:3145   */\n          dup4\n            /* \"#utility.yul\":3135:3152   */\n          add\n            /* \"#utility.yul\":3131:3158   */\n          slt\n            /* \"#utility.yul\":3121:3243   */\n          tag_199\n          jumpi\n            /* \"#utility.yul\":3162:3241   */\n          tag_200\n          tag_119\n          jump\t// in\n        tag_200:\n            /* \"#utility.yul\":3121:3243   */\n        tag_199:\n            /* \"#utility.yul\":3279:3285   */\n          dup2\n            /* \"#utility.yul\":3266:3286   */\n          calldataload\n            /* \"#utility.yul\":3304:3383   */\n          tag_201\n            /* \"#utility.yul\":3379:3382   */\n          dup5\n            /* \"#utility.yul\":3371:3377   */\n          dup3\n            /* \"#utility.yul\":3364:3368   */\n          0x20\n            /* \"#utility.yul\":3356:3362   */\n          dup7\n            /* \"#utility.yul\":3352:3369   */\n          add\n            /* \"#utility.yul\":3304:3383   */\n          tag_127\n          jump\t// in\n        tag_201:\n            /* \"#utility.yul\":3295:3383   */\n          swap2\n          pop\n            /* \"#utility.yul\":3111:3389   */\n          pop\n            /* \"#utility.yul\":3049:3389   */\n          swap3\n          swap2\n          pop\n          pop\n          jump\t// out\n            /* \"#utility.yul\":3395:3472   */\n        tag_129:\n            /* \"#utility.yul\":3432:3439   */\n          0x00\n            /* \"#utility.yul\":3461:3466   */\n          dup2\n            /* \"#utility.yul\":3450:3466   */\n          swap1\n          pop\n            /* \"#utility.yul\":3395:3472   */\n          swap2\n          swap1\n          pop\n          jump\t// out\n            /* \"#utility.yul\":3478:3600   */\n        tag_130:\n            /* \"#utility.yul\":3551:3575   */\n          tag_204\n            /* \"#utility.yul\":3569:3574   */\n          dup2\n            /* \"#utility.yul\":3551:3575   */\n          tag_129\n          jump\t// in\n        tag_204:\n            /* \"#utility.yul\":3544:3549   */\n          dup2\n            /* \"#utility.yul\":3541:3576   */\n          eq\n            /* \"#utility.yul\":3531:3594   */\n          tag_205\n          jumpi\n            /* \"#utility.yul\":3590:3591   */\n          0x00\n            /* \"#utility.yul\":3587:3588   */\n          dup1\n            /* \"#utility.yul\":3580:3592   */\n          revert\n            /* \"#utility.yul\":3531:3594   */\n        tag_205:\n            /* \"#utility.yul\":3478:3600   */\n          pop\n          jump\t// out\n            /* \"#utility.yul\":3606:3745   */\n        tag_131:\n            /* \"#utility.yul\":3652:3657   */\n          0x00\n            /* \"#utility.yul\":3690:3696   */\n          dup2\n            /* \"#utility.yul\":3677:3697   */\n          calldataload\n            /* \"#utility.yul\":3668:3697   */\n          swap1\n          pop\n            /* \"#utility.yul\":3706:3739   */\n          tag_207\n            /* \"#utility.yul\":3733:3738   */\n          dup2\n            /* \"#utility.yul\":3706:3739   */\n          tag_130\n          jump\t// in\n        tag_207:\n            /* \"#utility.yul\":3606:3745   */\n          swap3\n          swap2\n          pop\n          pop\n          jump\t// out\n            /* \"#utility.yul\":3751:6180   */\n        tag_15:\n            /* \"#utility.yul\":3933:3939   */\n          0x00\n            /* \"#utility.yul\":3941:3947   */\n          dup1\n            /* \"#utility.yul\":3949:3955   */\n          0x00\n            /* \"#utility.yul\":3957:3963   */\n          dup1\n            /* \"#utility.yul\":3965:3971   */\n          0x00\n            /* \"#utility.yul\":3973:3979   */\n          dup1\n            /* \"#utility.yul\":3981:3987   */\n          0x00\n            /* \"#utility.yul\":3989:3995   */\n          dup1\n            /* \"#utility.yul\":4038:4041   */\n          0x0100\n            /* \"#utility.yul\":4026:4035   */\n          dup10\n            /* \"#utility.yul\":4017:4024   */\n          dup12\n            /* \"#utility.yul\":4013:4036   */\n          sub\n            /* \"#utility.yul\":4009:4042   */\n          slt\n            /* \"#utility.yul\":4006:4126   */\n          iszero\n          tag_209\n          jumpi\n            /* \"#utility.yul\":4045:4124   */\n          tag_210\n          tag_113\n          jump\t// in\n        tag_210:\n            /* \"#utility.yul\":4006:4126   */\n        tag_209:\n            /* \"#utility.yul\":4165:4166   */\n          0x00\n            /* \"#utility.yul\":4190:4243   */\n          tag_211\n            /* \"#utility.yul\":4235:4242   */\n          dup12\n            /* \"#utility.yul\":4226:4232   */\n          dup3\n            /* \"#utility.yul\":4215:4224   */\n          dup13\n            /* \"#utility.yul\":4211:4233   */\n          add\n            /* \"#utility.yul\":4190:4243   */\n          tag_118\n          jump\t// in\n        tag_211:\n            /* \"#utility.yul\":4180:4243   */\n          swap9\n          pop\n            /* \"#utility.yul\":4136:4253   */\n          pop\n            /* \"#utility.yul\":4320:4322   */\n          0x20\n            /* \"#utility.yul\":4309:4318   */\n          dup10\n            /* \"#utility.yul\":4305:4323   */\n          add\n            /* \"#utility.yul\":4292:4324   */\n          calldataload\n            /* \"#utility.yul\":4351:4369   */\n          0xffffffffffffffff\n            /* \"#utility.yul\":4343:4349   */\n          dup2\n            /* \"#utility.yul\":4340:4370   */\n          gt\n            /* \"#utility.yul\":4337:4454   */\n          iszero\n          tag_212\n          jumpi\n            /* \"#utility.yul\":4373:4452   */\n          tag_213\n          tag_114\n          jump\t// in\n        tag_213:\n            /* \"#utility.yul\":4337:4454   */\n        tag_212:\n            /* \"#utility.yul\":4478:4541   */\n          tag_214\n            /* \"#utility.yul\":4533:4540   */\n          dup12\n            /* \"#utility.yul\":4524:4530   */\n          dup3\n            /* \"#utility.yul\":4513:4522   */\n          dup13\n            /* \"#utility.yul\":4509:4531   */\n          add\n            /* \"#utility.yul\":4478:4541   */\n          tag_128\n          jump\t// in\n        tag_214:\n            /* \"#utility.yul\":4468:4541   */\n          swap8\n          pop\n            /* \"#utility.yul\":4263:4551   */\n          pop\n            /* \"#utility.yul\":4590:4592   */\n          0x40\n            /* \"#utility.yul\":4616:4669   */\n          tag_215\n            /* \"#utility.yul\":4661:4668   */\n          dup12\n            /* \"#utility.yul\":4652:4658   */\n          dup3\n            /* \"#utility.yul\":4641:4650   */\n          dup13\n            /* \"#utility.yul\":4637:4659   */\n          add\n            /* \"#utility.yul\":4616:4669   */\n          tag_131\n          jump\t// in\n        tag_215:\n            /* \"#utility.yul\":4606:4669   */\n          swap7\n          pop\n            /* \"#utility.yul\":4561:4679   */\n          pop\n            /* \"#utility.yul\":4746:4748   */\n          0x60\n            /* \"#utility.yul\":4735:4744   */\n          dup10\n            /* \"#utility.yul\":4731:4749   */\n          add\n            /* \"#utility.yul\":4718:4750   */\n          calldataload\n            /* \"#utility.yul\":4777:4795   */\n          0xffffffffffffffff\n            /* \"#utility.yul\":4769:4775   */\n          dup2\n            /* \"#utility.yul\":4766:4796   */\n          gt\n            /* \"#utility.yul\":4763:4880   */\n          iszero\n          tag_216\n          jumpi\n            /* \"#utility.yul\":4799:4878   */\n          tag_217\n          tag_114\n          jump\t// in\n        tag_217:\n            /* \"#utility.yul\":4763:4880   */\n        tag_216:\n            /* \"#utility.yul\":4904:4967   */\n          tag_218\n            /* \"#utility.yul\":4959:4966   */\n          dup12\n            /* \"#utility.yul\":4950:4956   */\n          dup3\n            /* \"#utility.yul\":4939:4948   */\n          dup13\n            /* \"#utility.yul\":4935:4957   */\n          add\n            /* \"#utility.yul\":4904:4967   */\n          tag_128\n          jump\t// in\n        tag_218:\n            /* \"#utility.yul\":4894:4967   */\n          swap6\n          pop\n            /* \"#utility.yul\":4689:4977   */\n          pop\n            /* \"#utility.yul\":5044:5047   */\n          0x80\n            /* \"#utility.yul\":5033:5042   */\n          dup10\n            /* \"#utility.yul\":5029:5048   */\n          add\n            /* \"#utility.yul\":5016:5049   */\n          calldataload\n            /* \"#utility.yul\":5076:5094   */\n          0xffffffffffffffff\n            /* \"#utility.yul\":5068:5074   */\n          dup2\n            /* \"#utility.yul\":5065:5095   */\n          gt\n            /* \"#utility.yul\":5062:5179   */\n          iszero\n          tag_219\n          jumpi\n            /* \"#utility.yul\":5098:5177   */\n          tag_220\n          tag_114\n          jump\t// in\n        tag_220:\n            /* \"#utility.yul\":5062:5179   */\n        tag_219:\n            /* \"#utility.yul\":5203:5266   */\n          tag_221\n            /* \"#utility.yul\":5258:5265   */\n          dup12\n            /* \"#utility.yul\":5249:5255   */\n          dup3\n            /* \"#utility.yul\":5238:5247   */\n          dup13\n            /* \"#utility.yul\":5234:5256   */\n          add\n            /* \"#utility.yul\":5203:5266   */\n          tag_128\n          jump\t// in\n        tag_221:\n            /* \"#utility.yul\":5193:5266   */\n          swap5\n          pop\n            /* \"#utility.yul\":4987:5276   */\n          pop\n            /* \"#utility.yul\":5343:5346   */\n          0xa0\n            /* \"#utility.yul\":5332:5341   */\n          dup10\n            /* \"#utility.yul\":5328:5347   */\n          add\n            /* \"#utility.yul\":5315:5348   */\n          calldataload\n            /* \"#utility.yul\":5375:5393   */\n          0xffffffffffffffff\n            /* \"#utility.yul\":5367:5373   */\n          dup2\n            /* \"#utility.yul\":5364:5394   */\n          gt\n            /* \"#utility.yul\":5361:5478   */\n          iszero\n          tag_222\n          jumpi\n            /* \"#utility.yul\":5397:5476   */\n          tag_223\n          tag_114\n          jump\t// in\n        tag_223:\n            /* \"#utility.yul\":5361:5478   */\n        tag_222:\n            /* \"#utility.yul\":5502:5565   */\n          tag_224\n            /* \"#utility.yul\":5557:5564   */\n          dup12\n            /* \"#utility.yul\":5548:5554   */\n          dup3\n            /* \"#utility.yul\":5537:5546   */\n          dup13\n            /* \"#utility.yul\":5533:5555   */\n          add\n            /* \"#utility.yul\":5502:5565   */\n          tag_128\n          jump\t// in\n        tag_224:\n            /* \"#utility.yul\":5492:5565   */\n          swap4\n          pop\n            /* \"#utility.yul\":5286:5575   */\n          pop\n            /* \"#utility.yul\":5642:5645   */\n          0xc0\n            /* \"#utility.yul\":5631:5640   */\n          dup10\n            /* \"#utility.yul\":5627:5646   */\n          add\n            /* \"#utility.yul\":5614:5647   */\n          calldataload\n            /* \"#utility.yul\":5674:5692   */\n          0xffffffffffffffff\n            /* \"#utility.yul\":5666:5672   */\n          dup2\n            /* \"#utility.yul\":5663:5693   */\n          gt\n            /* \"#utility.yul\":5660:5777   */\n          iszero\n          tag_225\n          jumpi\n            /* \"#utility.yul\":5696:5775   */\n          tag_226\n          tag_114\n          jump\t// in\n        tag_226:\n            /* \"#utility.yul\":5660:5777   */\n        tag_225:\n            /* \"#utility.yul\":5801:5864   */\n          tag_227\n            /* \"#utility.yul\":5856:5863   */\n          dup12\n            /* \"#utility.yul\":5847:5853   */\n          dup3\n            /* \"#utility.yul\":5836:5845   */\n          dup13\n            /* \"#utility.yul\":5832:5854   */\n          add\n            /* \"#utility.yul\":5801:5864   */\n          tag_128\n          jump\t// in\n        tag_227:\n            /* \"#utility.yul\":5791:5864   */\n          swap3\n          pop\n            /* \"#utility.yul\":5585:5874   */\n          pop\n            /* \"#utility.yul\":5941:5944   */\n          0xe0\n            /* \"#utility.yul\":5930:5939   */\n          dup10\n            /* \"#utility.yul\":5926:5945   */\n          add\n            /* \"#utility.yul\":5913:5946   */\n          calldataload\n            /* \"#utility.yul\":5973:5991   */\n          0xffffffffffffffff\n            /* \"#utility.yul\":5965:5971   */\n          dup2\n            /* \"#utility.yul\":5962:5992   */\n          gt\n            /* \"#utility.yul\":5959:6076   */\n          iszero\n          tag_228\n          jumpi\n            /* \"#utility.yul\":5995:6074   */\n          tag_229\n          tag_114\n          jump\t// in\n        tag_229:\n            /* \"#utility.yul\":5959:6076   */\n        tag_228:\n            /* \"#utility.yul\":6100:6163   */\n          tag_230\n            /* \"#utility.yul\":6155:6162   */\n          dup12\n            /* \"#utility.yul\":6146:6152   */\n          dup3\n            /* \"#utility.yul\":6135:6144   */\n          dup13\n            /* \"#utility.yul\":6131:6153   */\n          add\n            /* \"#utility.yul\":6100:6163   */\n          tag_128\n          jump\t// in\n        tag_230:\n            /* \"#utility.yul\":6090:6163   */\n          swap2\n          pop\n            /* \"#utility.yul\":5884:6173   */\n          pop\n            /* \"#utility.yul\":3751:6180   */\n          swap3\n          swap6\n          swap9\n          pop\n          swap3\n          swap6\n          swap9\n          swap1\n          swap4\n          swap7\n          pop\n          jump\t// out\n            /* \"#utility.yul\":6186:6285   */\n        tag_132:\n            /* \"#utility.yul\":6238:6244   */\n          0x00\n            /* \"#utility.yul\":6272:6277   */\n          dup2\n            /* \"#utility.yul\":6266:6278   */\n          mload\n            /* \"#utility.yul\":6256:6278   */\n          swap1\n          pop\n            /* \"#utility.yul\":6186:6285   */\n          swap2\n          swap1\n          pop\n          jump\t// out\n            /* \"#utility.yul\":6291:6450   */\n        tag_133:\n            /* \"#utility.yul\":6365:6376   */\n          0x00\n            /* \"#utility.yul\":6399:6405   */\n          dup3\n            /* \"#utility.yul\":6394:6397   */\n          dup3\n            /* \"#utility.yul\":6387:6406   */\n          mstore\n            /* \"#utility.yul\":6439:6443   */\n          0x20\n            /* \"#utility.yul\":6434:6437   */\n          dup3\n            /* \"#utility.yul\":6430:6444   */\n          add\n            /* \"#utility.yul\":6415:6444   */\n          swap1\n          pop\n            /* \"#utility.yul\":6291:6450   */\n          swap3\n          swap2\n          pop\n          pop\n          jump\t// out\n            /* \"#utility.yul\":6456:6702   */\n        tag_134:\n            /* \"#utility.yul\":6537:6538   */\n          0x00\n            /* \"#utility.yul\":6547:6660   */\n        tag_234:\n            /* \"#utility.yul\":6561:6567   */\n          dup4\n            /* \"#utility.yul\":6558:6559   */\n          dup2\n            /* \"#utility.yul\":6555:6568   */\n          lt\n            /* \"#utility.yul\":6547:6660   */\n          iszero\n          tag_236\n          jumpi\n            /* \"#utility.yul\":6646:6647   */\n          dup1\n            /* \"#utility.yul\":6641:6644   */\n          dup3\n            /* \"#utility.yul\":6637:6648   */\n          add\n            /* \"#utility.yul\":6631:6649   */\n          mload\n            /* \"#utility.yul\":6627:6628   */\n          dup2\n            /* \"#utility.yul\":6622:6625   */\n          dup5\n            /* \"#utility.yul\":6618:6629   */\n          add\n            /* \"#utility.yul\":6611:6650   */\n          mstore\n            /* \"#utility.yul\":6583:6585   */\n          0x20\n            /* \"#utility.yul\":6580:6581   */\n          dup2\n            /* \"#utility.yul\":6576:6586   */\n          add\n            /* \"#utility.yul\":6571:6586   */\n          swap1\n          pop\n            /* \"#utility.yul\":6547:6660   */\n          jump(tag_234)\n        tag_236:\n            /* \"#utility.yul\":6694:6695   */\n          0x00\n            /* \"#utility.yul\":6685:6691   */\n          dup5\n            /* \"#utility.yul\":6680:6683   */\n          dup5\n            /* \"#utility.yul\":6676:6692   */\n          add\n            /* \"#utility.yul\":6669:6696   */\n          mstore\n            /* \"#utility.yul\":6518:6702   */\n          pop\n            /* \"#utility.yul\":6456:6702   */\n          pop\n          pop\n          pop\n          jump\t// out\n            /* \"#utility.yul\":6708:7065   */\n        tag_135:\n            /* \"#utility.yul\":6786:6789   */\n          0x00\n            /* \"#utility.yul\":6814:6853   */\n          tag_238\n            /* \"#utility.yul\":6847:6852   */\n          dup3\n            /* \"#utility.yul\":6814:6853   */\n          tag_132\n          jump\t// in\n        tag_238:\n            /* \"#utility.yul\":6869:6930   */\n          tag_239\n            /* \"#utility.yul\":6923:6929   */\n          dup2\n            /* \"#utility.yul\":6918:6921   */\n          dup6\n            /* \"#utility.yul\":6869:6930   */\n          tag_133\n          jump\t// in\n        tag_239:\n            /* \"#utility.yul\":6862:6930   */\n          swap4\n          pop\n            /* \"#utility.yul\":6939:7004   */\n          tag_240\n            /* \"#utility.yul\":6997:7003   */\n          dup2\n            /* \"#utility.yul\":6992:6995   */\n          dup6\n            /* \"#utility.yul\":6985:6989   */\n          0x20\n            /* \"#utility.yul\":6978:6983   */\n          dup7\n            /* \"#utility.yul\":6974:6990   */\n          add\n            /* \"#utility.yul\":6939:7004   */\n          tag_134\n          jump\t// in\n        tag_240:\n            /* \"#utility.yul\":7029:7058   */\n          tag_241\n            /* \"#utility.yul\":7051:7057   */\n          dup2\n            /* \"#utility.yul\":7029:7058   */\n          tag_121\n          jump\t// in\n        tag_241:\n            /* \"#utility.yul\":7024:7027   */\n          dup5\n            /* \"#utility.yul\":7020:7059   */\n          add\n            /* \"#utility.yul\":7013:7059   */\n          swap2\n          pop\n            /* \"#utility.yul\":6790:7065   */\n          pop\n            /* \"#utility.yul\":6708:7065   */\n          swap3\n          swap2\n          pop\n          pop\n          jump\t// out\n            /* \"#utility.yul\":7071:7179   */\n        tag_136:\n            /* \"#utility.yul\":7148:7172   */\n          tag_243\n            /* \"#utility.yul\":7166:7171   */\n          dup2\n            /* \"#utility.yul\":7148:7172   */\n          tag_129\n          jump\t// in\n        tag_243:\n            /* \"#utility.yul\":7143:7146   */\n          dup3\n            /* \"#utility.yul\":7136:7173   */\n          mstore\n            /* \"#utility.yul\":7071:7179   */\n          pop\n          pop\n          jump\t// out\n            /* \"#utility.yul\":7249:9132   */\n        tag_137:\n            /* \"#utility.yul\":7374:7377   */\n          0x00\n            /* \"#utility.yul\":7410:7414   */\n          0xe0\n            /* \"#utility.yul\":7405:7408   */\n          dup4\n            /* \"#utility.yul\":7401:7415   */\n          add\n            /* \"#utility.yul\":7505:7509   */\n          0x00\n            /* \"#utility.yul\":7498:7503   */\n          dup4\n            /* \"#utility.yul\":7494:7510   */\n          add\n            /* \"#utility.yul\":7488:7511   */\n          mload\n            /* \"#utility.yul\":7558:7561   */\n          dup5\n            /* \"#utility.yul\":7552:7556   */\n          dup3\n            /* \"#utility.yul\":7548:7562   */\n          sub\n            /* \"#utility.yul\":7541:7545   */\n          0x00\n            /* \"#utility.yul\":7536:7539   */\n          dup7\n            /* \"#utility.yul\":7532:7546   */\n          add\n            /* \"#utility.yul\":7525:7563   */\n          mstore\n            /* \"#utility.yul\":7584:7657   */\n          tag_245\n            /* \"#utility.yul\":7652:7656   */\n          dup3\n            /* \"#utility.yul\":7638:7650   */\n          dup3\n            /* \"#utility.yul\":7584:7657   */\n          tag_135\n          jump\t// in\n        tag_245:\n            /* \"#utility.yul\":7576:7657   */\n          swap2\n          pop\n            /* \"#utility.yul\":7425:7668   */\n          pop\n            /* \"#utility.yul\":7750:7754   */\n          0x20\n            /* \"#utility.yul\":7743:7748   */\n          dup4\n            /* \"#utility.yul\":7739:7755   */\n          add\n            /* \"#utility.yul\":7733:7756   */\n          mload\n            /* \"#utility.yul\":7769:7832   */\n          tag_246\n            /* \"#utility.yul\":7826:7830   */\n          0x20\n            /* \"#utility.yul\":7821:7824   */\n          dup7\n            /* \"#utility.yul\":7817:7831   */\n          add\n            /* \"#utility.yul\":7803:7815   */\n          dup3\n            /* \"#utility.yul\":7769:7832   */\n          tag_136\n          jump\t// in\n        tag_246:\n            /* \"#utility.yul\":7678:7842   */\n          pop\n            /* \"#utility.yul\":7933:7937   */\n          0x40\n            /* \"#utility.yul\":7926:7931   */\n          dup4\n            /* \"#utility.yul\":7922:7938   */\n          add\n            /* \"#utility.yul\":7916:7939   */\n          mload\n            /* \"#utility.yul\":7986:7989   */\n          dup5\n            /* \"#utility.yul\":7980:7984   */\n          dup3\n            /* \"#utility.yul\":7976:7990   */\n          sub\n            /* \"#utility.yul\":7969:7973   */\n          0x40\n            /* \"#utility.yul\":7964:7967   */\n          dup7\n            /* \"#utility.yul\":7960:7974   */\n          add\n            /* \"#utility.yul\":7953:7991   */\n          mstore\n            /* \"#utility.yul\":8012:8085   */\n          tag_247\n            /* \"#utility.yul\":8080:8084   */\n          dup3\n            /* \"#utility.yul\":8066:8078   */\n          dup3\n            /* \"#utility.yul\":8012:8085   */\n          tag_135\n          jump\t// in\n        tag_247:\n            /* \"#utility.yul\":8004:8085   */\n          swap2\n          pop\n            /* \"#utility.yul\":7852:8096   */\n          pop\n            /* \"#utility.yul\":8187:8191   */\n          0x60\n            /* \"#utility.yul\":8180:8185   */\n          dup4\n            /* \"#utility.yul\":8176:8192   */\n          add\n            /* \"#utility.yul\":8170:8193   */\n          mload\n            /* \"#utility.yul\":8240:8243   */\n          dup5\n            /* \"#utility.yul\":8234:8238   */\n          dup3\n            /* \"#utility.yul\":8230:8244   */\n          sub\n            /* \"#utility.yul\":8223:8227   */\n          0x60\n            /* \"#utility.yul\":8218:8221   */\n          dup7\n            /* \"#utility.yul\":8214:8228   */\n          add\n            /* \"#utility.yul\":8207:8245   */\n          mstore\n            /* \"#utility.yul\":8266:8339   */\n          tag_248\n            /* \"#utility.yul\":8334:8338   */\n          dup3\n            /* \"#utility.yul\":8320:8332   */\n          dup3\n            /* \"#utility.yul\":8266:8339   */\n          tag_135\n          jump\t// in\n        tag_248:\n            /* \"#utility.yul\":8258:8339   */\n          swap2\n          pop\n            /* \"#utility.yul\":8106:8350   */\n          pop\n            /* \"#utility.yul\":8442:8446   */\n          0x80\n            /* \"#utility.yul\":8435:8440   */\n          dup4\n            /* \"#utility.yul\":8431:8447   */\n          add\n            /* \"#utility.yul\":8425:8448   */\n          mload\n            /* \"#utility.yul\":8495:8498   */\n          dup5\n            /* \"#utility.yul\":8489:8493   */\n          dup3\n            /* \"#utility.yul\":8485:8499   */\n          sub\n            /* \"#utility.yul\":8478:8482   */\n          0x80\n            /* \"#utility.yul\":8473:8476   */\n          dup7\n            /* \"#utility.yul\":8469:8483   */\n          add\n            /* \"#utility.yul\":8462:8500   */\n          mstore\n            /* \"#utility.yul\":8521:8594   */\n          tag_249\n            /* \"#utility.yul\":8589:8593   */\n          dup3\n            /* \"#utility.yul\":8575:8587   */\n          dup3\n            /* \"#utility.yul\":8521:8594   */\n          tag_135\n          jump\t// in\n        tag_249:\n            /* \"#utility.yul\":8513:8594   */\n          swap2\n          pop\n            /* \"#utility.yul\":8360:8605   */\n          pop\n            /* \"#utility.yul\":8692:8696   */\n          0xa0\n            /* \"#utility.yul\":8685:8690   */\n          dup4\n            /* \"#utility.yul\":8681:8697   */\n          add\n            /* \"#utility.yul\":8675:8698   */\n          mload\n            /* \"#utility.yul\":8745:8748   */\n          dup5\n            /* \"#utility.yul\":8739:8743   */\n          dup3\n            /* \"#utility.yul\":8735:8749   */\n          sub\n            /* \"#utility.yul\":8728:8732   */\n          0xa0\n            /* \"#utility.yul\":8723:8726   */\n          dup7\n            /* \"#utility.yul\":8719:8733   */\n          add\n            /* \"#utility.yul\":8712:8750   */\n          mstore\n            /* \"#utility.yul\":8771:8844   */\n          tag_250\n            /* \"#utility.yul\":8839:8843   */\n          dup3\n            /* \"#utility.yul\":8825:8837   */\n          dup3\n            /* \"#utility.yul\":8771:8844   */\n          tag_135\n          jump\t// in\n        tag_250:\n            /* \"#utility.yul\":8763:8844   */\n          swap2\n          pop\n            /* \"#utility.yul\":8615:8855   */\n          pop\n            /* \"#utility.yul\":8942:8946   */\n          0xc0\n            /* \"#utility.yul\":8935:8940   */\n          dup4\n            /* \"#utility.yul\":8931:8947   */\n          add\n            /* \"#utility.yul\":8925:8948   */\n          mload\n            /* \"#utility.yul\":8995:8998   */\n          dup5\n            /* \"#utility.yul\":8989:8993   */\n          dup3\n            /* \"#utility.yul\":8985:8999   */\n          sub\n            /* \"#utility.yul\":8978:8982   */\n          0xc0\n            /* \"#utility.yul\":8973:8976   */\n          dup7\n            /* \"#utility.yul\":8969:8983   */\n          add\n            /* \"#utility.yul\":8962:9000   */\n          mstore\n            /* \"#utility.yul\":9021:9094   */\n          tag_251\n            /* \"#utility.yul\":9089:9093   */\n          dup3\n            /* \"#utility.yul\":9075:9087   */\n          dup3\n            /* \"#utility.yul\":9021:9094   */\n          tag_135\n          jump\t// in\n        tag_251:\n            /* \"#utility.yul\":9013:9094   */\n          swap2\n          pop\n            /* \"#utility.yul\":8865:9105   */\n          pop\n            /* \"#utility.yul\":9122:9126   */\n          dup1\n            /* \"#utility.yul\":9115:9126   */\n          swap2\n          pop\n            /* \"#utility.yul\":7379:9132   */\n          pop\n            /* \"#utility.yul\":7249:9132   */\n          swap3\n          swap2\n          pop\n          pop\n          jump\t// out\n            /* \"#utility.yul\":9138:9523   */\n        tag_21:\n            /* \"#utility.yul\":9287:9291   */\n          0x00\n            /* \"#utility.yul\":9325:9327   */\n          0x20\n            /* \"#utility.yul\":9314:9323   */\n          dup3\n            /* \"#utility.yul\":9310:9328   */\n          add\n            /* \"#utility.yul\":9302:9328   */\n          swap1\n          pop\n            /* \"#utility.yul\":9374:9383   */\n          dup2\n            /* \"#utility.yul\":9368:9372   */\n          dup2\n            /* \"#utility.yul\":9364:9384   */\n          sub\n            /* \"#utility.yul\":9360:9361   */\n          0x00\n            /* \"#utility.yul\":9349:9358   */\n          dup4\n            /* \"#utility.yul\":9345:9362   */\n          add\n            /* \"#utility.yul\":9338:9385   */\n          mstore\n            /* \"#utility.yul\":9402:9516   */\n          tag_253\n            /* \"#utility.yul\":9511:9515   */\n          dup2\n            /* \"#utility.yul\":9502:9508   */\n          dup5\n            /* \"#utility.yul\":9402:9516   */\n          tag_137\n          jump\t// in\n        tag_253:\n            /* \"#utility.yul\":9394:9516   */\n          swap1\n          pop\n            /* \"#utility.yul\":9138:9523   */\n          swap3\n          swap2\n          pop\n          pop\n          jump\t// out\n            /* \"#utility.yul\":9529:9647   */\n        tag_138:\n            /* \"#utility.yul\":9616:9640   */\n          tag_255\n            /* \"#utility.yul\":9634:9639   */\n          dup2\n            /* \"#utility.yul\":9616:9640   */\n          tag_116\n          jump\t// in\n        tag_255:\n            /* \"#utility.yul\":9611:9614   */\n          dup3\n            /* \"#utility.yul\":9604:9641   */\n          mstore\n            /* \"#utility.yul\":9529:9647   */\n          pop\n          pop\n          jump\t// out\n            /* \"#utility.yul\":9653:9875   */\n        tag_34:\n            /* \"#utility.yul\":9746:9750   */\n          0x00\n            /* \"#utility.yul\":9784:9786   */\n          0x20\n            /* \"#utility.yul\":9773:9782   */\n          dup3\n            /* \"#utility.yul\":9769:9787   */\n          add\n            /* \"#utility.yul\":9761:9787   */\n          swap1\n          pop\n            /* \"#utility.yul\":9797:9868   */\n          tag_257\n            /* \"#utility.yul\":9865:9866   */\n          0x00\n            /* \"#utility.yul\":9854:9863   */\n          dup4\n            /* \"#utility.yul\":9850:9867   */\n          add\n            /* \"#utility.yul\":9841:9847   */\n          dup5\n            /* \"#utility.yul\":9797:9868   */\n          tag_138\n          jump\t// in\n        tag_257:\n            /* \"#utility.yul\":9653:9875   */\n          swap3\n          swap2\n          pop\n          pop\n          jump\t// out\n            /* \"#utility.yul\":9881:9971   */\n        tag_139:\n            /* \"#utility.yul\":9915:9922   */\n          0x00\n            /* \"#utility.yul\":9958:9963   */\n          dup2\n            /* \"#utility.yul\":9951:9964   */\n          iszero\n            /* \"#utility.yul\":9944:9965   */\n          iszero\n            /* \"#utility.yul\":9933:9965   */\n          swap1\n          pop\n            /* \"#utility.yul\":9881:9971   */\n          swap2\n          swap1\n          pop\n          jump\t// out\n            /* \"#utility.yul\":9977:10093   */\n        tag_140:\n            /* \"#utility.yul\":10047:10068   */\n          tag_260\n            /* \"#utility.yul\":10062:10067   */\n          dup2\n            /* \"#utility.yul\":10047:10068   */\n          tag_139\n          jump\t// in\n        tag_260:\n            /* \"#utility.yul\":10040:10045   */\n          dup2\n            /* \"#utility.yul\":10037:10069   */\n          eq\n            /* \"#utility.yul\":10027:10087   */\n          tag_261\n          jumpi\n            /* \"#utility.yul\":10083:10084   */\n          0x00\n            /* \"#utility.yul\":10080:10081   */\n          dup1\n            /* \"#utility.yul\":10073:10085   */\n          revert\n            /* \"#utility.yul\":10027:10087   */\n        tag_261:\n            /* \"#utility.yul\":9977:10093   */\n          pop\n          jump\t// out\n            /* \"#utility.yul\":10099:10236   */\n        tag_141:\n            /* \"#utility.yul\":10153:10158   */\n          0x00\n            /* \"#utility.yul\":10184:10190   */\n          dup2\n            /* \"#utility.yul\":10178:10191   */\n          mload\n            /* \"#utility.yul\":10169:10191   */\n          swap1\n          pop\n            /* \"#utility.yul\":10200:10230   */\n          tag_263\n            /* \"#utility.yul\":10224:10229   */\n          dup2\n            /* \"#utility.yul\":10200:10230   */\n          tag_140\n          jump\t// in\n        tag_263:\n            /* \"#utility.yul\":10099:10236   */\n          swap3\n          swap2\n          pop\n          pop\n          jump\t// out\n            /* \"#utility.yul\":10242:10587   */\n        tag_38:\n            /* \"#utility.yul\":10309:10315   */\n          0x00\n            /* \"#utility.yul\":10358:10360   */\n          0x20\n            /* \"#utility.yul\":10346:10355   */\n          dup3\n            /* \"#utility.yul\":10337:10344   */\n          dup5\n            /* \"#utility.yul\":10333:10356   */\n          sub\n            /* \"#utility.yul\":10329:10361   */\n          slt\n            /* \"#utility.yul\":10326:10445   */\n          iszero\n          tag_265\n          jumpi\n            /* \"#utility.yul\":10364:10443   */\n          tag_266\n          tag_113\n          jump\t// in\n        tag_266:\n            /* \"#utility.yul\":10326:10445   */\n        tag_265:\n            /* \"#utility.yul\":10484:10485   */\n          0x00\n            /* \"#utility.yul\":10509:10570   */\n          tag_267\n            /* \"#utility.yul\":10562:10569   */\n          dup5\n            /* \"#utility.yul\":10553:10559   */\n          dup3\n            /* \"#utility.yul\":10542:10551   */\n          dup6\n            /* \"#utility.yul\":10538:10560   */\n          add\n            /* \"#utility.yul\":10509:10570   */\n          tag_141\n          jump\t// in\n        tag_267:\n            /* \"#utility.yul\":10499:10570   */\n          swap2\n          pop\n            /* \"#utility.yul\":10455:10580   */\n          pop\n            /* \"#utility.yul\":10242:10587   */\n          swap3\n          swap2\n          pop\n          pop\n          jump\t// out\n            /* \"#utility.yul\":10593:10773   */\n        tag_142:\n            /* \"#utility.yul\":10641:10718   */\n          0x4e487b7100000000000000000000000000000000000000000000000000000000\n            /* \"#utility.yul\":10638:10639   */\n          0x00\n            /* \"#utility.yul\":10631:10719   */\n          mstore\n            /* \"#utility.yul\":10738:10742   */\n          0x22\n            /* \"#utility.yul\":10735:10736   */\n          0x04\n            /* \"#utility.yul\":10728:10743   */\n          mstore\n            /* \"#utility.yul\":10762:10766   */\n          0x24\n            /* \"#utility.yul\":10759:10760   */\n          0x00\n            /* \"#utility.yul\":10752:10767   */\n          revert\n            /* \"#utility.yul\":10779:11099   */\n        tag_73:\n            /* \"#utility.yul\":10823:10829   */\n          0x00\n            /* \"#utility.yul\":10860:10861   */\n          0x02\n            /* \"#utility.yul\":10854:10858   */\n          dup3\n            /* \"#utility.yul\":10850:10862   */\n          div\n            /* \"#utility.yul\":10840:10862   */\n          swap1\n          pop\n            /* \"#utility.yul\":10907:10908   */\n          0x01\n            /* \"#utility.yul\":10901:10905   */\n          dup3\n            /* \"#utility.yul\":10897:10909   */\n          and\n            /* \"#utility.yul\":10928:10946   */\n          dup1\n            /* \"#utility.yul\":10918:10999   */\n          tag_270\n          jumpi\n            /* \"#utility.yul\":10984:10988   */\n          0x7f\n            /* \"#utility.yul\":10976:10982   */\n          dup3\n            /* \"#utility.yul\":10972:10989   */\n          and\n            /* \"#utility.yul\":10962:10989   */\n          swap2\n          pop\n            /* \"#utility.yul\":10918:10999   */\n        tag_270:\n            /* \"#utility.yul\":11046:11048   */\n          0x20\n            /* \"#utility.yul\":11038:11044   */\n          dup3\n            /* \"#utility.yul\":11035:11049   */\n          lt\n            /* \"#utility.yul\":11015:11033   */\n          dup2\n            /* \"#utility.yul\":11012:11050   */\n          sub\n            /* \"#utility.yul\":11009:11093   */\n          tag_271\n          jumpi\n            /* \"#utility.yul\":11065:11083   */\n          tag_272\n          tag_142\n          jump\t// in\n        tag_272:\n            /* \"#utility.yul\":11009:11093   */\n        tag_271:\n            /* \"#utility.yul\":10830:11099   */\n          pop\n            /* \"#utility.yul\":10779:11099   */\n          swap2\n          swap1\n          pop\n          jump\t// out\n            /* \"#utility.yul\":11105:11246   */\n        tag_143:\n            /* \"#utility.yul\":11154:11158   */\n          0x00\n            /* \"#utility.yul\":11177:11180   */\n          dup2\n            /* \"#utility.yul\":11169:11180   */\n          swap1\n          pop\n            /* \"#utility.yul\":11200:11203   */\n          dup2\n            /* \"#utility.yul\":11197:11198   */\n          0x00\n            /* \"#utility.yul\":11190:11204   */\n          mstore\n            /* \"#utility.yul\":11234:11238   */\n          0x20\n            /* \"#utility.yul\":11231:11232   */\n          0x00\n            /* \"#utility.yul\":11221:11239   */\n          keccak256\n            /* \"#utility.yul\":11213:11239   */\n          swap1\n          pop\n            /* \"#utility.yul\":11105:11246   */\n          swap2\n          swap1\n          pop\n          jump\t// out\n            /* \"#utility.yul\":11252:11345   */\n        tag_144:\n            /* \"#utility.yul\":11289:11295   */\n          0x00\n            /* \"#utility.yul\":11336:11338   */\n          0x20\n            /* \"#utility.yul\":11331:11333   */\n          0x1f\n            /* \"#utility.yul\":11324:11329   */\n          dup4\n            /* \"#utility.yul\":11320:11334   */\n          add\n            /* \"#utility.yul\":11316:11339   */\n          div\n            /* \"#utility.yul\":11306:11339   */\n          swap1\n          pop\n            /* \"#utility.yul\":11252:11345   */\n          swap2\n          swap1\n          pop\n          jump\t// out\n            /* \"#utility.yul\":11351:11458   */\n        tag_145:\n            /* \"#utility.yul\":11395:11403   */\n          0x00\n            /* \"#utility.yul\":11445:11450   */\n          dup3\n            /* \"#utility.yul\":11439:11443   */\n          dup3\n            /* \"#utility.yul\":11435:11451   */\n          shl\n            /* \"#utility.yul\":11414:11451   */\n          swap1\n          pop\n            /* \"#utility.yul\":11351:11458   */\n          swap3\n          swap2\n          pop\n          pop\n          jump\t// out\n            /* \"#utility.yul\":11464:11857   */\n        tag_146:\n            /* \"#utility.yul\":11533:11539   */\n          0x00\n            /* \"#utility.yul\":11583:11584   */\n          0x08\n            /* \"#utility.yul\":11571:11581   */\n          dup4\n            /* \"#utility.yul\":11567:11585   */\n          mul\n            /* \"#utility.yul\":11606:11703   */\n          tag_277\n            /* \"#utility.yul\":11636:11702   */\n          0xffffffffffffffffffffffffffffffffffffffffffffffffffffffffffffffff\n            /* \"#utility.yul\":11625:11634   */\n          dup3\n            /* \"#utility.yul\":11606:11703   */\n          tag_145\n          jump\t// in\n        tag_277:\n            /* \"#utility.yul\":11724:11763   */\n          tag_278\n            /* \"#utility.yul\":11754:11762   */\n          dup7\n            /* \"#utility.yul\":11743:11752   */\n          dup4\n            /* \"#utility.yul\":11724:11763   */\n          tag_145\n          jump\t// in\n        tag_278:\n            /* \"#utility.yul\":11712:11763   */\n          swap6\n          pop\n            /* \"#utility.yul\":11796:11800   */\n          dup1\n            /* \"#utility.yul\":11792:11801   */\n          not\n            /* \"#utility.yul\":11785:11790   */\n          dup5\n            /* \"#utility.yul\":11781:11802   */\n          and\n            /* \"#utility.yul\":11772:11802   */\n          swap4\n          pop\n            /* \"#utility.yul\":11845:11849   */\n          dup1\n            /* \"#utility.yul\":11835:11843   */\n          dup7\n            /* \"#utility.yul\":11831:11850   */\n          and\n            /* \"#utility.yul\":11824:11829   */\n          dup5\n            /* \"#utility.yul\":11821:11851   */\n          or\n            /* \"#utility.yul\":11811:11851   */\n          swap3\n          pop\n            /* \"#utility.yul\":11540:11857   */\n          pop\n          pop\n            /* \"#utility.yul\":11464:11857   */\n          swap4\n          swap3\n          pop\n          pop\n          pop\n          jump\t// out\n            /* \"#utility.yul\":11863:11923   */\n        tag_147:\n            /* \"#utility.yul\":11891:11894   */\n          0x00\n            /* \"#utility.yul\":11912:11917   */\n          dup2\n            /* \"#utility.yul\":11905:11917   */\n          swap1\n          pop\n            /* \"#utility.yul\":11863:11923   */\n          swap2\n          swap1\n          pop\n          jump\t// out\n            /* \"#utility.yul\":11929:12071   */\n        tag_148:\n            /* \"#utility.yul\":11979:11988   */\n          0x00\n            /* \"#utility.yul\":12012:12065   */\n          tag_281\n            /* \"#utility.yul\":12030:12064   */\n          tag_282\n            /* \"#utility.yul\":12039:12063   */\n          tag_283\n            /* \"#utility.yul\":12057:12062   */\n          dup5\n            /* \"#utility.yul\":12039:12063   */\n          tag_129\n          jump\t// in\n        tag_283:\n            /* \"#utility.yul\":12030:12064   */\n          tag_147\n          jump\t// in\n        tag_282:\n            /* \"#utility.yul\":12012:12065   */\n          tag_129\n          jump\t// in\n        tag_281:\n            /* \"#utility.yul\":11999:12065   */\n          swap1\n          pop\n            /* \"#utility.yul\":11929:12071   */\n          swap2\n          swap1\n          pop\n          jump\t// out\n            /* \"#utility.yul\":12077:12152   */\n        tag_149:\n            /* \"#utility.yul\":12120:12123   */\n          0x00\n            /* \"#utility.yul\":12141:12146   */\n          dup2\n            /* \"#utility.yul\":12134:12146   */\n          swap1\n          pop\n            /* \"#utility.yul\":12077:12152   */\n          swap2\n          swap1\n          pop\n          jump\t// out\n            /* \"#utility.yul\":12158:12427   */\n        tag_150:\n            /* \"#utility.yul\":12268:12307   */\n          tag_286\n            /* \"#utility.yul\":12299:12306   */\n          dup4\n            /* \"#utility.yul\":12268:12307   */\n          tag_148\n          jump\t// in\n        tag_286:\n            /* \"#utility.yul\":12329:12420   */\n          tag_287\n            /* \"#utility.yul\":12378:12419   */\n          tag_288\n            /* \"#utility.yul\":12402:12418   */\n          dup3\n            /* \"#utility.yul\":12378:12419   */\n          tag_149\n          jump\t// in\n        tag_288:\n            /* \"#utility.yul\":12370:12376   */\n          dup5\n            /* \"#utility.yul\":12363:12367   */\n          dup5\n            /* \"#utility.yul\":12357:12368   */\n          sload\n            /* \"#utility.yul\":12329:12420   */\n          tag_146\n          jump\t// in\n        tag_287:\n            /* \"#utility.yul\":12323:12327   */\n          dup3\n            /* \"#utility.yul\":12316:12421   */\n          sstore\n            /* \"#utility.yul\":12234:12427   */\n          pop\n            /* \"#utility.yul\":12158:12427   */\n          pop\n          pop\n          pop\n          jump\t// out\n            /* \"#utility.yul\":12433:12506   */\n        tag_151:\n            /* \"#utility.yul\":12478:12481   */\n          0x00\n            /* \"#utility.yul\":12433:12506   */\n          swap1\n          jump\t// out\n            /* \"#utility.yul\":12512:12701   */\n        tag_152:\n            /* \"#utility.yul\":12589:12621   */\n          tag_291\n          tag_151\n          jump\t// in\n        tag_291:\n            /* \"#utility.yul\":12630:12695   */\n          tag_292\n            /* \"#utility.yul\":12688:12694   */\n          dup2\n            /* \"#utility.yul\":12680:12686   */\n          dup5\n            /* \"#utility.yul\":12674:12678   */\n          dup5\n            /* \"#utility.yul\":12630:12695   */\n          tag_150\n          jump\t// in\n        tag_292:\n            /* \"#utility.yul\":12565:12701   */\n          pop\n            /* \"#utility.yul\":12512:12701   */\n          pop\n          pop\n          jump\t// out\n            /* \"#utility.yul\":12707:12893   */\n        tag_153:\n            /* \"#utility.yul\":12767:12887   */\n        tag_294:\n            /* \"#utility.yul\":12784:12787   */\n          dup2\n            /* \"#utility.yul\":12777:12782   */\n          dup2\n            /* \"#utility.yul\":12774:12788   */\n          lt\n            /* \"#utility.yul\":12767:12887   */\n          iszero\n          tag_296\n          jumpi\n            /* \"#utility.yul\":12838:12877   */\n          tag_297\n            /* \"#utility.yul\":12875:12876   */\n          0x00\n            /* \"#utility.yul\":12868:12873   */\n          dup3\n            /* \"#utility.yul\":12838:12877   */\n          tag_152\n          jump\t// in\n        tag_297:\n            /* \"#utility.yul\":12811:12812   */\n          0x01\n            /* \"#utility.yul\":12804:12809   */\n          dup2\n            /* \"#utility.yul\":12800:12813   */\n          add\n            /* \"#utility.yul\":12791:12813   */\n          swap1\n          pop\n            /* \"#utility.yul\":12767:12887   */\n          jump(tag_294)\n        tag_296:\n            /* \"#utility.yul\":12707:12893   */\n          pop\n          pop\n          jump\t// out\n            /* \"#utility.yul\":12899:13442   */\n        tag_154:\n            /* \"#utility.yul\":13000:13002   */\n          0x1f\n            /* \"#utility.yul\":12995:12998   */\n          dup3\n            /* \"#utility.yul\":12992:13003   */\n          gt\n            /* \"#utility.yul\":12989:13435   */\n          iszero\n          tag_299\n          jumpi\n            /* \"#utility.yul\":13034:13072   */\n          tag_300\n            /* \"#utility.yul\":13066:13071   */\n          dup2\n            /* \"#utility.yul\":13034:13072   */\n          tag_143\n          jump\t// in\n        tag_300:\n            /* \"#utility.yul\":13118:13147   */\n          tag_301\n            /* \"#utility.yul\":13136:13146   */\n          dup5\n            /* \"#utility.yul\":13118:13147   */\n          tag_144\n          jump\t// in\n        tag_301:\n            /* \"#utility.yul\":13108:13116   */\n          dup2\n            /* \"#utility.yul\":13104:13148   */\n          add\n            /* \"#utility.yul\":13301:13303   */\n          0x20\n            /* \"#utility.yul\":13289:13299   */\n          dup6\n            /* \"#utility.yul\":13286:13304   */\n          lt\n            /* \"#utility.yul\":13283:13332   */\n          iszero\n          tag_302\n          jumpi\n            /* \"#utility.yul\":13322:13330   */\n          dup2\n            /* \"#utility.yul\":13307:13330   */\n          swap1\n          pop\n            /* \"#utility.yul\":13283:13332   */\n        tag_302:\n            /* \"#utility.yul\":13345:13425   */\n          tag_303\n            /* \"#utility.yul\":13401:13423   */\n          tag_304\n            /* \"#utility.yul\":13419:13422   */\n          dup6\n            /* \"#utility.yul\":13401:13423   */\n          tag_144\n          jump\t// in\n        tag_304:\n            /* \"#utility.yul\":13391:13399   */\n          dup4\n            /* \"#utility.yul\":13387:13424   */\n          add\n            /* \"#utility.yul\":13374:13385   */\n          dup3\n            /* \"#utility.yul\":13345:13425   */\n          tag_153\n          jump\t// in\n        tag_303:\n            /* \"#utility.yul\":13004:13435   */\n          pop\n          pop\n            /* \"#utility.yul\":12989:13435   */\n        tag_299:\n            /* \"#utility.yul\":12899:13442   */\n          pop\n          pop\n          pop\n          jump\t// out\n            /* \"#utility.yul\":13448:13565   */\n        tag_155:\n            /* \"#utility.yul\":13502:13510   */\n          0x00\n            /* \"#utility.yul\":13552:13557   */\n          dup3\n            /* \"#utility.yul\":13546:13550   */\n          dup3\n            /* \"#utility.yul\":13542:13558   */\n          shr\n            /* \"#utility.yul\":13521:13558   */\n          swap1\n          pop\n            /* \"#utility.yul\":13448:13565   */\n          swap3\n          swap2\n          pop\n          pop\n          jump\t// out\n            /* \"#utility.yul\":13571:13740   */\n        tag_156:\n            /* \"#utility.yul\":13615:13621   */\n          0x00\n            /* \"#utility.yul\":13648:13699   */\n          tag_307\n            /* \"#utility.yul\":13696:13697   */\n          0x00\n            /* \"#utility.yul\":13692:13698   */\n          not\n            /* \"#utility.yul\":13684:13689   */\n          dup5\n            /* \"#utility.yul\":13681:13682   */\n          0x08\n            /* \"#utility.yul\":13677:13690   */\n          mul\n            /* \"#utility.yul\":13648:13699   */\n          tag_155\n          jump\t// in\n        tag_307:\n            /* \"#utility.yul\":13644:13700   */\n          not\n            /* \"#utility.yul\":13729:13733   */\n          dup1\n            /* \"#utility.yul\":13723:13727   */\n          dup4\n            /* \"#utility.yul\":13719:13734   */\n          and\n            /* \"#utility.yul\":13709:13734   */\n          swap2\n          pop\n            /* \"#utility.yul\":13622:13740   */\n          pop\n            /* \"#utility.yul\":13571:13740   */\n          swap3\n          swap2\n          pop\n          pop\n          jump\t// out\n            /* \"#utility.yul\":13745:14040   */\n        tag_157:\n            /* \"#utility.yul\":13821:13825   */\n          0x00\n            /* \"#utility.yul\":13967:13996   */\n          tag_309\n            /* \"#utility.yul\":13992:13995   */\n          dup4\n            /* \"#utility.yul\":13986:13990   */\n          dup4\n            /* \"#utility.yul\":13967:13996   */\n          tag_156\n          jump\t// in\n        tag_309:\n            /* \"#utility.yul\":13959:13996   */\n          swap2\n          pop\n            /* \"#utility.yul\":14029:14032   */\n          dup3\n            /* \"#utility.yul\":14026:14027   */\n          0x02\n            /* \"#utility.yul\":14022:14033   */\n          mul\n            /* \"#utility.yul\":14016:14020   */\n          dup3\n            /* \"#utility.yul\":14013:14034   */\n          or\n            /* \"#utility.yul\":14005:14034   */\n          swap1\n          pop\n            /* \"#utility.yul\":13745:14040   */\n          swap3\n          swap2\n          pop\n          pop\n          jump\t// out\n            /* \"#utility.yul\":14045:15440   */\n        tag_42:\n            /* \"#utility.yul\":14162:14199   */\n          tag_311\n            /* \"#utility.yul\":14195:14198   */\n          dup3\n            /* \"#utility.yul\":14162:14199   */\n          tag_132\n          jump\t// in\n        tag_311:\n            /* \"#utility.yul\":14264:14282   */\n          0xffffffffffffffff\n            /* \"#utility.yul\":14256:14262   */\n          dup2\n            /* \"#utility.yul\":14253:14283   */\n          gt\n            /* \"#utility.yul\":14250:14306   */\n          iszero\n          tag_312\n          jumpi\n            /* \"#utility.yul\":14286:14304   */\n          tag_313\n          tag_122\n          jump\t// in\n        tag_313:\n            /* \"#utility.yul\":14250:14306   */\n        tag_312:\n            /* \"#utility.yul\":14330:14368   */\n          tag_314\n            /* \"#utility.yul\":14362:14366   */\n          dup3\n            /* \"#utility.yul\":14356:14367   */\n          sload\n            /* \"#utility.yul\":14330:14368   */\n          tag_73\n          jump\t// in\n        tag_314:\n            /* \"#utility.yul\":14415:14482   */\n          tag_315\n            /* \"#utility.yul\":14475:14481   */\n          dup3\n            /* \"#utility.yul\":14467:14473   */\n          dup3\n            /* \"#utility.yul\":14461:14465   */\n          dup6\n            /* \"#utility.yul\":14415:14482   */\n          tag_154\n          jump\t// in\n        tag_315:\n            /* \"#utility.yul\":14509:14510   */\n          0x00\n            /* \"#utility.yul\":14533:14537   */\n          0x20\n            /* \"#utility.yul\":14520:14537   */\n          swap1\n          pop\n            /* \"#utility.yul\":14565:14567   */\n          0x1f\n            /* \"#utility.yul\":14557:14563   */\n          dup4\n            /* \"#utility.yul\":14554:14568   */\n          gt\n            /* \"#utility.yul\":14582:14583   */\n          0x01\n            /* \"#utility.yul\":14577:15195   */\n          dup2\n          eq\n          tag_317\n          jumpi\n            /* \"#utility.yul\":15239:15240   */\n          0x00\n            /* \"#utility.yul\":15256:15262   */\n          dup5\n            /* \"#utility.yul\":15253:15330   */\n          iszero\n          tag_318\n          jumpi\n            /* \"#utility.yul\":15305:15314   */\n          dup3\n            /* \"#utility.yul\":15300:15303   */\n          dup8\n            /* \"#utility.yul\":15296:15315   */\n          add\n            /* \"#utility.yul\":15290:15316   */\n          mload\n            /* \"#utility.yul\":15281:15316   */\n          swap1\n          pop\n            /* \"#utility.yul\":15253:15330   */\n        tag_318:\n            /* \"#utility.yul\":15356:15423   */\n          tag_319\n            /* \"#utility.yul\":15416:15422   */\n          dup6\n            /* \"#utility.yul\":15409:15414   */\n          dup3\n            /* \"#utility.yul\":15356:15423   */\n          tag_157\n          jump\t// in\n        tag_319:\n            /* \"#utility.yul\":15350:15354   */\n          dup7\n            /* \"#utility.yul\":15343:15424   */\n          sstore\n            /* \"#utility.yul\":15212:15434   */\n          pop\n            /* \"#utility.yul\":14547:15434   */\n          jump(tag_316)\n            /* \"#utility.yul\":14577:15195   */\n        tag_317:\n            /* \"#utility.yul\":14629:14633   */\n          0x1f\n            /* \"#utility.yul\":14625:14634   */\n          not\n            /* \"#utility.yul\":14617:14623   */\n          dup5\n            /* \"#utility.yul\":14613:14635   */\n          and\n            /* \"#utility.yul\":14663:14700   */\n          tag_320\n            /* \"#utility.yul\":14695:14699   */\n          dup7\n            /* \"#utility.yul\":14663:14700   */\n          tag_143\n          jump\t// in\n        tag_320:\n            /* \"#utility.yul\":14722:14723   */\n          0x00\n            /* \"#utility.yul\":14736:14944   */\n        tag_321:\n            /* \"#utility.yul\":14750:14757   */\n          dup3\n            /* \"#utility.yul\":14747:14748   */\n          dup2\n            /* \"#utility.yul\":14744:14758   */\n          lt\n            /* \"#utility.yul\":14736:14944   */\n          iszero\n          tag_323\n          jumpi\n            /* \"#utility.yul\":14829:14838   */\n          dup5\n            /* \"#utility.yul\":14824:14827   */\n          dup10\n            /* \"#utility.yul\":14820:14839   */\n          add\n            /* \"#utility.yul\":14814:14840   */\n          mload\n            /* \"#utility.yul\":14806:14812   */\n          dup3\n            /* \"#utility.yul\":14799:14841   */\n          sstore\n            /* \"#utility.yul\":14880:14881   */\n          0x01\n            /* \"#utility.yul\":14872:14878   */\n          dup3\n            /* \"#utility.yul\":14868:14882   */\n          add\n            /* \"#utility.yul\":14858:14882   */\n          swap2\n          pop\n            /* \"#utility.yul\":14927:14929   */\n          0x20\n            /* \"#utility.yul\":14916:14925   */\n          dup6\n            /* \"#utility.yul\":14912:14930   */\n          add\n            /* \"#utility.yul\":14899:14930   */\n          swap5\n          pop\n            /* \"#utility.yul\":14773:14777   */\n          0x20\n            /* \"#utility.yul\":14770:14771   */\n          dup2\n            /* \"#utility.yul\":14766:14778   */\n          add\n            /* \"#utility.yul\":14761:14778   */\n          swap1\n          pop\n            /* \"#utility.yul\":14736:14944   */\n          jump(tag_321)\n        tag_323:\n            /* \"#utility.yul\":14972:14978   */\n          dup7\n            /* \"#utility.yul\":14963:14970   */\n          dup4\n            /* \"#utility.yul\":14960:14979   */\n          lt\n            /* \"#utility.yul\":14957:15136   */\n          iszero\n          tag_324\n          jumpi\n            /* \"#utility.yul\":15030:15039   */\n          dup5\n            /* \"#utility.yul\":15025:15028   */\n          dup10\n            /* \"#utility.yul\":15021:15040   */\n          add\n            /* \"#utility.yul\":15015:15041   */\n          mload\n            /* \"#utility.yul\":15073:15121   */\n          tag_325\n            /* \"#utility.yul\":15115:15119   */\n          0x1f\n            /* \"#utility.yul\":15107:15113   */\n          dup10\n            /* \"#utility.yul\":15103:15120   */\n          and\n            /* \"#utility.yul\":15092:15101   */\n          dup3\n            /* \"#utility.yul\":15073:15121   */\n          tag_156\n          jump\t// in\n        tag_325:\n            /* \"#utility.yul\":15065:15071   */\n          dup4\n            /* \"#utility.yul\":15058:15122   */\n          sstore\n            /* \"#utility.yul\":14980:15136   */\n          pop\n            /* \"#utility.yul\":14957:15136   */\n        tag_324:\n            /* \"#utility.yul\":15182:15183   */\n          0x01\n            /* \"#utility.yul\":15178:15179   */\n          0x02\n            /* \"#utility.yul\":15170:15176   */\n          dup9\n            /* \"#utility.yul\":15166:15180   */\n          mul\n            /* \"#utility.yul\":15162:15184   */\n          add\n            /* \"#utility.yul\":15156:15160   */\n          dup9\n            /* \"#utility.yul\":15149:15185   */\n          sstore\n            /* \"#utility.yul\":14584:15195   */\n          pop\n          pop\n          pop\n            /* \"#utility.yul\":14547:15434   */\n        tag_316:\n          pop\n            /* \"#utility.yul\":14137:15440   */\n          pop\n          pop\n          pop\n            /* \"#utility.yul\":14045:15440   */\n          pop\n          pop\n          jump\t// out\n            /* \"#utility.yul\":15446:15880   */\n        tag_158:\n            /* \"#utility.yul\":15535:15540   */\n          0x00\n            /* \"#utility.yul\":15560:15626   */\n          tag_327\n            /* \"#utility.yul\":15576:15625   */\n          tag_328\n            /* \"#utility.yul\":15618:15624   */\n          dup5\n            /* \"#utility.yul\":15576:15625   */\n          tag_125\n          jump\t// in\n        tag_328:\n            /* \"#utility.yul\":15560:15626   */\n          tag_124\n          jump\t// in\n        tag_327:\n            /* \"#utility.yul\":15551:15626   */\n          swap1\n          pop\n            /* \"#utility.yul\":15649:15655   */\n          dup3\n            /* \"#utility.yul\":15642:15647   */\n          dup2\n            /* \"#utility.yul\":15635:15656   */\n          mstore\n            /* \"#utility.yul\":15687:15691   */\n          0x20\n            /* \"#utility.yul\":15680:15685   */\n          dup2\n            /* \"#utility.yul\":15676:15692   */\n          add\n            /* \"#utility.yul\":15725:15728   */\n          dup5\n            /* \"#utility.yul\":15716:15722   */\n          dup5\n            /* \"#utility.yul\":15711:15714   */\n          dup5\n            /* \"#utility.yul\":15707:15723   */\n          add\n            /* \"#utility.yul\":15704:15729   */\n          gt\n            /* \"#utility.yul\":15701:15813   */\n          iszero\n          tag_329\n          jumpi\n            /* \"#utility.yul\":15732:15811   */\n          tag_330\n          tag_120\n          jump\t// in\n        tag_330:\n            /* \"#utility.yul\":15701:15813   */\n        tag_329:\n            /* \"#utility.yul\":15822:15874   */\n          tag_331\n            /* \"#utility.yul\":15867:15873   */\n          dup5\n            /* \"#utility.yul\":15862:15865   */\n          dup3\n            /* \"#utility.yul\":15857:15860   */\n          dup6\n            /* \"#utility.yul\":15822:15874   */\n          tag_134\n          jump\t// in\n        tag_331:\n            /* \"#utility.yul\":15541:15880   */\n          pop\n            /* \"#utility.yul\":15446:15880   */\n          swap4\n          swap3\n          pop\n          pop\n          pop\n          jump\t// out\n            /* \"#utility.yul\":15900:16255   */\n        tag_159:\n            /* \"#utility.yul\":15967:15972   */\n          0x00\n            /* \"#utility.yul\":16016:16019   */\n          dup3\n            /* \"#utility.yul\":16009:16013   */\n          0x1f\n            /* \"#utility.yul\":16001:16007   */\n          dup4\n            /* \"#utility.yul\":15997:16014   */\n          add\n            /* \"#utility.yul\":15993:16020   */\n          slt\n            /* \"#utility.yul\":15983:16105   */\n          tag_333\n          jumpi\n            /* \"#utility.yul\":16024:16103   */\n          tag_334\n          tag_119\n          jump\t// in\n        tag_334:\n            /* \"#utility.yul\":15983:16105   */\n        tag_333:\n            /* \"#utility.yul\":16134:16140   */\n          dup2\n            /* \"#utility.yul\":16128:16141   */\n          mload\n            /* \"#utility.yul\":16159:16249   */\n          tag_335\n            /* \"#utility.yul\":16245:16248   */\n          dup5\n            /* \"#utility.yul\":16237:16243   */\n          dup3\n            /* \"#utility.yul\":16230:16234   */\n          0x20\n            /* \"#utility.yul\":16222:16228   */\n          dup7\n            /* \"#utility.yul\":16218:16235   */\n          add\n            /* \"#utility.yul\":16159:16249   */\n          tag_158\n          jump\t// in\n        tag_335:\n            /* \"#utility.yul\":16150:16249   */\n          swap2\n          pop\n            /* \"#utility.yul\":15973:16255   */\n          pop\n            /* \"#utility.yul\":15900:16255   */\n          swap3\n          swap2\n          pop\n          pop\n          jump\t// out\n            /* \"#utility.yul\":16261:16785   */\n        tag_52:\n            /* \"#utility.yul\":16341:16347   */\n          0x00\n            /* \"#utility.yul\":16390:16392   */\n          0x20\n            /* \"#utility.yul\":16378:16387   */\n          dup3\n            /* \"#utility.yul\":16369:16376   */\n          dup5\n            /* \"#utility.yul\":16365:16388   */\n          sub\n            /* \"#utility.yul\":16361:16393   */\n          slt\n            /* \"#utility.yul\":16358:16477   */\n          iszero\n          tag_337\n          jumpi\n            /* \"#utility.yul\":16396:16475   */\n          tag_338\n          tag_113\n          jump\t// in\n        tag_338:\n            /* \"#utility.yul\":16358:16477   */\n        tag_337:\n            /* \"#utility.yul\":16537:16538   */\n          0x00\n            /* \"#utility.yul\":16526:16535   */\n          dup3\n            /* \"#utility.yul\":16522:16539   */\n          add\n            /* \"#utility.yul\":16516:16540   */\n          mload\n            /* \"#utility.yul\":16567:16585   */\n          0xffffffffffffffff\n            /* \"#utility.yul\":16559:16565   */\n          dup2\n            /* \"#utility.yul\":16556:16586   */\n          gt\n            /* \"#utility.yul\":16553:16670   */\n          iszero\n          tag_339\n          jumpi\n            /* \"#utility.yul\":16589:16668   */\n          tag_340\n          tag_114\n          jump\t// in\n        tag_340:\n            /* \"#utility.yul\":16553:16670   */\n        tag_339:\n            /* \"#utility.yul\":16694:16768   */\n          tag_341\n            /* \"#utility.yul\":16760:16767   */\n          dup5\n            /* \"#utility.yul\":16751:16757   */\n          dup3\n            /* \"#utility.yul\":16740:16749   */\n          dup6\n            /* \"#utility.yul\":16736:16758   */\n          add\n            /* \"#utility.yul\":16694:16768   */\n          tag_159\n          jump\t// in\n        tag_341:\n            /* \"#utility.yul\":16684:16768   */\n          swap2\n          pop\n            /* \"#utility.yul\":16487:16778   */\n          pop\n            /* \"#utility.yul\":16261:16785   */\n          swap3\n          swap2\n          pop\n          pop\n          jump\t// out\n            /* \"#utility.yul\":16791:17123   */\n        tag_54:\n            /* \"#utility.yul\":16912:16916   */\n          0x00\n            /* \"#utility.yul\":16950:16952   */\n          0x40\n            /* \"#utility.yul\":16939:16948   */\n          dup3\n            /* \"#utility.yul\":16935:16953   */\n          add\n            /* \"#utility.yul\":16927:16953   */\n          swap1\n          pop\n            /* \"#utility.yul\":16963:17034   */\n          tag_343\n            /* \"#utility.yul\":17031:17032   */\n          0x00\n            /* \"#utility.yul\":17020:17029   */\n          dup4\n            /* \"#utility.yul\":17016:17033   */\n          add\n            /* \"#utility.yul\":17007:17013   */\n          dup6\n            /* \"#utility.yul\":16963:17034   */\n          tag_138\n          jump\t// in\n        tag_343:\n            /* \"#utility.yul\":17044:17116   */\n          tag_344\n            /* \"#utility.yul\":17112:17114   */\n          0x20\n            /* \"#utility.yul\":17101:17110   */\n          dup4\n            /* \"#utility.yul\":17097:17115   */\n          add\n            /* \"#utility.yul\":17088:17094   */\n          dup5\n            /* \"#utility.yul\":17044:17116   */\n          tag_138\n          jump\t// in\n        tag_344:\n            /* \"#utility.yul\":16791:17123   */\n          swap4\n          swap3\n          pop\n          pop\n          pop\n          jump\t// out\n\n        auxdata: 0xa26469706673582212200301eef7e335e89229e63ee54feeb0d0b6f31bd48573d9c6f84057f1510655c464736f6c63430008110033\n    }\n}\n\nsub_2: assembly {\n        /* \"ElectronicMedicalRecords.sol\":4508:5467  contract PatientVerificator {... */\n      mstore(0x40, 0x80)\n        /* \"ElectronicMedicalRecords.sol\":4667:4728  constructor(address _admin) {... */\n      callvalue\n      dup1\n      iszero\n      tag_1\n      jumpi\n      0x00\n      dup1\n      revert\n    tag_1:\n      pop\n      mload(0x40)\n      sub(codesize, bytecodeSize)\n      dup1\n      bytecodeSize\n      dup4\n      codecopy\n      dup2\n      dup2\n      add\n      0x40\n      mstore\n      dup2\n      add\n      swap1\n      tag_2\n      swap2\n      swap1\n      tag_3\n      jump\t// in\n    tag_2:\n        /* \"ElectronicMedicalRecords.sol\":4714:4720  _admin */\n      dup1\n        /* \"ElectronicMedicalRecords.sol\":4706:4711  admin */\n      0x00\n      dup1\n        /* \"ElectronicMedicalRecords.sol\":4706:4720  admin = _admin */\n      0x0100\n      exp\n      dup2\n      sload\n      dup2\n      0xffffffffffffffffffffffffffffffffffffffff\n      mul\n      not\n      and\n      swap1\n      dup4\n      0xffffffffffffffffffffffffffffffffffffffff\n      and\n      mul\n      or\n      swap1\n      sstore\n      pop\n        /* \"ElectronicMedicalRecords.sol\":4667:4728  constructor(address _admin) {... */\n      pop\n        /* \"ElectronicMedicalRecords.sol\":4508:5467  contract PatientVerificator {... */\n      jump(tag_6)\n        /* \"#utility.yul\":88:205   */\n    tag_8:\n        /* \"#utility.yul\":197:198   */\n      0x00\n        /* \"#utility.yul\":194:195   */\n      dup1\n        /* \"#utility.yul\":187:199   */\n      revert\n        /* \"#utility.yul\":334:460   */\n    tag_10:\n        /* \"#utility.yul\":371:378   */\n      0x00\n        /* \"#utility.yul\":411:453   */\n      0xffffffffffffffffffffffffffffffffffffffff\n        /* \"#utility.yul\":404:409   */\n      dup3\n        /* \"#utility.yul\":400:454   */\n      and\n        /* \"#utility.yul\":389:454   */\n      swap1\n      pop\n        /* \"#utility.yul\":334:460   */\n      swap2\n      swap1\n      pop\n      jump\t// out\n        /* \"#utility.yul\":466:562   */\n    tag_11:\n        /* \"#utility.yul\":503:510   */\n      0x00\n        /* \"#utility.yul\":532:556   */\n      tag_20\n        /* \"#utility.yul\":550:555   */\n      dup3\n        /* \"#utility.yul\":532:556   */\n      tag_10\n      jump\t// in\n    tag_20:\n        /* \"#utility.yul\":521:556   */\n      swap1\n      pop\n        /* \"#utility.yul\":466:562   */\n      swap2\n      swap1\n      pop\n      jump\t// out\n        /* \"#utility.yul\":568:690   */\n    tag_12:\n        /* \"#utility.yul\":641:665   */\n      tag_22\n        /* \"#utility.yul\":659:664   */\n      dup2\n        /* \"#utility.yul\":641:665   */\n      tag_11\n      jump\t// in\n    tag_22:\n        /* \"#utility.yul\":634:639   */\n      dup2\n        /* \"#utility.yul\":631:666   */\n      eq\n        /* \"#utility.yul\":621:684   */\n      tag_23\n      jumpi\n        /* \"#utility.yul\":680:681   */\n      0x00\n        /* \"#utility.yul\":677:678   */\n      dup1\n        /* \"#utility.yul\":670:682   */\n      revert\n        /* \"#utility.yul\":621:684   */\n    tag_23:\n        /* \"#utility.yul\":568:690   */\n      pop\n      jump\t// out\n        /* \"#utility.yul\":696:839   */\n    tag_13:\n        /* \"#utility.yul\":753:758   */\n      0x00\n        /* \"#utility.yul\":784:790   */\n      dup2\n        /* \"#utility.yul\":778:791   */\n      mload\n        /* \"#utility.yul\":769:791   */\n      swap1\n      pop\n        /* \"#utility.yul\":800:833   */\n      tag_25\n        /* \"#utility.yul\":827:832   */\n      dup2\n        /* \"#utility.yul\":800:833   */\n      tag_12\n      jump\t// in\n    tag_25:\n        /* \"#utility.yul\":696:839   */\n      swap3\n      swap2\n      pop\n      pop\n      jump\t// out\n        /* \"#utility.yul\":845:1196   */\n    tag_3:\n        /* \"#utility.yul\":915:921   */\n      0x00\n        /* \"#utility.yul\":964:966   */\n      0x20\n        /* \"#utility.yul\":952:961   */\n      dup3\n        /* \"#utility.yul\":943:950   */\n      dup5\n        /* \"#utility.yul\":939:962   */\n      sub\n        /* \"#utility.yul\":935:967   */\n      slt\n        /* \"#utility.yul\":932:1051   */\n      iszero\n      tag_27\n      jumpi\n        /* \"#utility.yul\":970:1049   */\n      tag_28\n      tag_8\n      jump\t// in\n    tag_28:\n        /* \"#utility.yul\":932:1051   */\n    tag_27:\n        /* \"#utility.yul\":1090:1091   */\n      0x00\n        /* \"#utility.yul\":1115:1179   */\n      tag_29\n        /* \"#utility.yul\":1171:1178   */\n      dup5\n        /* \"#utility.yul\":1162:1168   */\n      dup3\n        /* \"#utility.yul\":1151:1160   */\n      dup6\n        /* \"#utility.yul\":1147:1169   */\n      add\n        /* \"#utility.yul\":1115:1179   */\n      tag_13\n      jump\t// in\n    tag_29:\n        /* \"#utility.yul\":1105:1179   */\n      swap2\n      pop\n        /* \"#utility.yul\":1061:1189   */\n      pop\n        /* \"#utility.yul\":845:1196   */\n      swap3\n      swap2\n      pop\n      pop\n      jump\t// out\n        /* \"ElectronicMedicalRecords.sol\":4508:5467  contract PatientVerificator {... */\n    tag_6:\n      dataSize(sub_0)\n      dup1\n      dataOffset(sub_0)\n      0x00\n      codecopy\n      0x00\n      return\n    stop\n\n    sub_0: assembly {\n            /* \"ElectronicMedicalRecords.sol\":4508:5467  contract PatientVerificator {... */\n          mstore(0x40, 0x80)\n          callvalue\n          dup1\n          iszero\n          tag_1\n          jumpi\n          0x00\n          dup1\n          revert\n        tag_1:\n          pop\n          jumpi(tag_2, lt(calldatasize, 0x04))\n          shr(0xe0, calldataload(0x00))\n          dup1\n          0x18a231a9\n          eq\n          tag_3\n          jumpi\n          dup1\n          0x63a9c3d7\n          eq\n          tag_4\n          jumpi\n          dup1\n          0x6d263ceb\n          eq\n          tag_5\n          jumpi\n        tag_2:\n          0x00\n          dup1\n          revert\n            /* \"ElectronicMedicalRecords.sol\":5259:5376  function getAllPatients() onlyAdmin public view returns(address[] memory _address) {... */\n        tag_3:\n          tag_6\n          tag_7\n          jump\t// in\n        tag_6:\n          mload(0x40)\n          tag_8\n          swap2\n          swap1\n          tag_9\n          jump\t// in\n        tag_8:\n          mload(0x40)\n          dup1\n          swap2\n          sub\n          swap1\n          return\n            /* \"ElectronicMedicalRecords.sol\":5060:5251  function verify(address _address) public view returns(bool _bool) {... */\n        tag_4:\n          tag_10\n          0x04\n          dup1\n          calldatasize\n          sub\n          dup2\n          add\n          swap1\n          tag_11\n          swap2\n          swap1\n          tag_12\n          jump\t// in\n        tag_11:\n          tag_13\n          jump\t// in\n        tag_10:\n          mload(0x40)\n          tag_14\n          swap2\n          swap1\n          tag_15\n          jump\t// in\n        tag_14:\n          mload(0x40)\n          dup1\n          swap2\n          sub\n          swap1\n          return\n            /* \"ElectronicMedicalRecords.sol\":4736:5052  function addPatient(address _address) public returns(string memory notif) {... */\n        tag_5:\n          tag_16\n          0x04\n          dup1\n          calldatasize\n          sub\n          dup2\n          add\n          swap1\n          tag_17\n          swap2\n          swap1\n          tag_12\n          jump\t// in\n        tag_17:\n          tag_18\n          jump\t// in\n        tag_16:\n          mload(0x40)\n          tag_19\n          swap2\n          swap1\n          tag_20\n          jump\t// in\n        tag_19:\n          mload(0x40)\n          dup1\n          swap2\n          sub\n          swap1\n          return\n            /* \"ElectronicMedicalRecords.sol\":5259:5376  function getAllPatients() onlyAdmin public view returns(address[] memory _address) {... */\n        tag_7:\n            /* \"ElectronicMedicalRecords.sol\":5315:5340  address[] memory _address */\n          0x60\n            /* \"ElectronicMedicalRecords.sol\":5438:5443  admin */\n          0x00\n          dup1\n          sload\n          swap1\n          0x0100\n          exp\n          swap1\n          div\n          0xffffffffffffffffffffffffffffffffffffffff\n          and\n            /* \"ElectronicMedicalRecords.sol\":5424:5443  msg.sender == admin */\n          0xffffffffffffffffffffffffffffffffffffffff\n          and\n            /* \"ElectronicMedicalRecords.sol\":5424:5434  msg.sender */\n          caller\n            /* \"ElectronicMedicalRecords.sol\":5424:5443  msg.sender == admin */\n          0xffffffffffffffffffffffffffffffffffffffff\n          and\n          eq\n            /* \"ElectronicMedicalRecords.sol\":5416:5444  require(msg.sender == admin) */\n          tag_22\n          jumpi\n          0x00\n          dup1\n          revert\n        tag_22:\n            /* \"ElectronicMedicalRecords.sol\":5360:5368  patients */\n          0x01\n            /* \"ElectronicMedicalRecords.sol\":5353:5368  return patients */\n          dup1\n          sload\n          dup1\n          0x20\n          mul\n          0x20\n          add\n          mload(0x40)\n          swap1\n          dup2\n          add\n          0x40\n          mstore\n          dup1\n          swap3\n          swap2\n          swap1\n          dup2\n          dup2\n          mstore\n          0x20\n          add\n          dup3\n          dup1\n          sload\n          dup1\n          iszero\n          tag_24\n          jumpi\n          0x20\n          mul\n          dup3\n          add\n          swap2\n          swap1\n          0x00\n          mstore\n          keccak256(0x00, 0x20)\n          swap1\n        tag_25:\n          dup2\n          0x00\n          swap1\n          sload\n          swap1\n          0x0100\n          exp\n          swap1\n          div\n          0xffffffffffffffffffffffffffffffffffffffff\n          and\n          0xffffffffffffffffffffffffffffffffffffffff\n          and\n          dup2\n          mstore\n          0x20\n          add\n          swap1\n          0x01\n          add\n          swap1\n          dup1\n          dup4\n          gt\n          tag_25\n          jumpi\n        tag_24:\n          pop\n          pop\n          pop\n          pop\n          pop\n          swap1\n          pop\n            /* \"ElectronicMedicalRecords.sol\":5259:5376  function getAllPatients() onlyAdmin public view returns(address[] memory _address) {... */\n          swap1\n          jump\t// out\n            /* \"ElectronicMedicalRecords.sol\":5060:5251  function verify(address _address) public view returns(bool _bool) {... */\n        tag_13:\n            /* \"ElectronicMedicalRecords.sol\":5114:5124  bool _bool */\n          0x00\n            /* \"ElectronicMedicalRecords.sol\":5140:5147  patient */\n          0x02\n            /* \"ElectronicMedicalRecords.sol\":5140:5157  patient[_address] */\n          0x00\n            /* \"ElectronicMedicalRecords.sol\":5148:5156  _address */\n          dup4\n            /* \"ElectronicMedicalRecords.sol\":5140:5157  patient[_address] */\n          0xffffffffffffffffffffffffffffffffffffffff\n          and\n          0xffffffffffffffffffffffffffffffffffffffff\n          and\n          dup2\n          mstore\n          0x20\n          add\n          swap1\n          dup2\n          mstore\n          0x20\n          add\n          0x00\n          keccak256\n          0x00\n          swap1\n          sload\n          swap1\n          0x0100\n          exp\n          swap1\n          div\n          0xff\n          and\n            /* \"ElectronicMedicalRecords.sol\":5137:5242  if(patient[_address]) {... */\n          iszero\n          tag_27\n          jumpi\n            /* \"ElectronicMedicalRecords.sol\":5181:5185  true */\n          0x01\n            /* \"ElectronicMedicalRecords.sol\":5174:5185  return true */\n          swap1\n          pop\n          jump(tag_26)\n            /* \"ElectronicMedicalRecords.sol\":5137:5242  if(patient[_address]) {... */\n        tag_27:\n            /* \"ElectronicMedicalRecords.sol\":5225:5230  false */\n          0x00\n            /* \"ElectronicMedicalRecords.sol\":5218:5230  return false */\n          swap1\n          pop\n            /* \"ElectronicMedicalRecords.sol\":5060:5251  function verify(address _address) public view returns(bool _bool) {... */\n        tag_26:\n          swap2\n          swap1\n          pop\n          jump\t// out\n            /* \"ElectronicMedicalRecords.sol\":4736:5052  function addPatient(address _address) public returns(string memory notif) {... */\n        tag_18:\n            /* \"ElectronicMedicalRecords.sol\":4789:4808  string memory notif */\n          0x60\n            /* \"ElectronicMedicalRecords.sol\":4825:4832  patient */\n          0x02\n            /* \"ElectronicMedicalRecords.sol\":4825:4842  patient[_address] */\n          0x00\n            /* \"ElectronicMedicalRecords.sol\":4833:4841  _address */\n          dup4\n            /* \"ElectronicMedicalRecords.sol\":4825:4842  patient[_address] */\n          0xffffffffffffffffffffffffffffffffffffffff\n          and\n          0xffffffffffffffffffffffffffffffffffffffff\n          and\n          dup2\n          mstore\n          0x20\n          add\n          swap1\n          dup2\n          mstore\n          0x20\n          add\n          0x00\n          keccak256\n          0x00\n          swap1\n          sload\n          swap1\n          0x0100\n          exp\n          swap1\n          div\n          0xff\n          and\n            /* \"ElectronicMedicalRecords.sol\":4821:5035  if(!patient[_address]) {... */\n          tag_30\n          jumpi\n            /* \"ElectronicMedicalRecords.sol\":4879:4883  true */\n          0x01\n            /* \"ElectronicMedicalRecords.sol\":4859:4866  patient */\n          0x02\n            /* \"ElectronicMedicalRecords.sol\":4859:4876  patient[_address] */\n          0x00\n            /* \"ElectronicMedicalRecords.sol\":4867:4875  _address */\n          dup5\n            /* \"ElectronicMedicalRecords.sol\":4859:4876  patient[_address] */\n          0xffffffffffffffffffffffffffffffffffffffff\n          and\n          0xffffffffffffffffffffffffffffffffffffffff\n          and\n          dup2\n          mstore\n          0x20\n          add\n          swap1\n          dup2\n          mstore\n          0x20\n          add\n          0x00\n          keccak256\n          0x00\n            /* \"ElectronicMedicalRecords.sol\":4859:4883  patient[_address] = true */\n          0x0100\n          exp\n          dup2\n          sload\n          dup2\n          0xff\n          mul\n          not\n          and\n          swap1\n          dup4\n          iszero\n          iszero\n          mul\n          or\n          swap1\n          sstore\n          pop\n            /* \"ElectronicMedicalRecords.sol\":4898:4906  patients */\n          0x01\n            /* \"ElectronicMedicalRecords.sol\":4912:4920  _address */\n          dup3\n            /* \"ElectronicMedicalRecords.sol\":4898:4921  patients.push(_address) */\n          swap1\n          dup1\n          0x01\n          dup2\n          sload\n          add\n          dup1\n          dup3\n          sstore\n          dup1\n          swap2\n          pop\n          pop\n          0x01\n          swap1\n          sub\n          swap1\n          0x00\n          mstore\n          keccak256(0x00, 0x20)\n          add\n          0x00\n          swap1\n          swap2\n          swap1\n          swap2\n          swap1\n          swap2\n          0x0100\n          exp\n          dup2\n          sload\n          dup2\n          0xffffffffffffffffffffffffffffffffffffffff\n          mul\n          not\n          and\n          swap1\n          dup4\n          0xffffffffffffffffffffffffffffffffffffffff\n          and\n          mul\n          or\n          swap1\n          sstore\n          pop\n            /* \"ElectronicMedicalRecords.sol\":4936:4958  return \"Address added\" */\n          mload(0x40)\n          dup1\n          0x40\n          add\n          0x40\n          mstore\n          dup1\n          0x0d\n          dup2\n          mstore\n          0x20\n          add\n          0x4164647265737320616464656400000000000000000000000000000000000000\n          dup2\n          mstore\n          pop\n          swap1\n          pop\n          jump(tag_29)\n            /* \"ElectronicMedicalRecords.sol\":4821:5035  if(!patient[_address]) {... */\n        tag_30:\n            /* \"ElectronicMedicalRecords.sol\":4991:5023  return \"Cannot add same address\" */\n          mload(0x40)\n          dup1\n          0x40\n          add\n          0x40\n          mstore\n          dup1\n          0x17\n          dup2\n          mstore\n          0x20\n          add\n          0x43616e6e6f74206164642073616d652061646472657373000000000000000000\n          dup2\n          mstore\n          pop\n          swap1\n          pop\n            /* \"ElectronicMedicalRecords.sol\":4736:5052  function addPatient(address _address) public returns(string memory notif) {... */\n        tag_29:\n          swap2\n          swap1\n          pop\n          jump\t// out\n            /* \"#utility.yul\":7:121   */\n        tag_33:\n            /* \"#utility.yul\":74:80   */\n          0x00\n            /* \"#utility.yul\":108:113   */\n          dup2\n            /* \"#utility.yul\":102:114   */\n          mload\n            /* \"#utility.yul\":92:114   */\n          swap1\n          pop\n            /* \"#utility.yul\":7:121   */\n          swap2\n          swap1\n          pop\n          jump\t// out\n            /* \"#utility.yul\":127:311   */\n        tag_34:\n            /* \"#utility.yul\":226:237   */\n          0x00\n            /* \"#utility.yul\":260:266   */\n          dup3\n            /* \"#utility.yul\":255:258   */\n          dup3\n            /* \"#utility.yul\":248:267   */\n          mstore\n            /* \"#utility.yul\":300:304   */\n          0x20\n            /* \"#utility.yul\":295:298   */\n          dup3\n            /* \"#utility.yul\":291:305   */\n          add\n            /* \"#utility.yul\":276:305   */\n          swap1\n          pop\n            /* \"#utility.yul\":127:311   */\n          swap3\n          swap2\n          pop\n          pop\n          jump\t// out\n            /* \"#utility.yul\":317:449   */\n        tag_35:\n            /* \"#utility.yul\":384:388   */\n          0x00\n            /* \"#utility.yul\":407:410   */\n          dup2\n            /* \"#utility.yul\":399:410   */\n          swap1\n          pop\n            /* \"#utility.yul\":437:441   */\n          0x20\n            /* \"#utility.yul\":432:435   */\n          dup3\n            /* \"#utility.yul\":428:442   */\n          add\n            /* \"#utility.yul\":420:442   */\n          swap1\n          pop\n            /* \"#utility.yul\":317:449   */\n          swap2\n          swap1\n          pop\n          jump\t// out\n            /* \"#utility.yul\":455:581   */\n        tag_36:\n            /* \"#utility.yul\":492:499   */\n          0x00\n            /* \"#utility.yul\":532:574   */\n          0xffffffffffffffffffffffffffffffffffffffff\n            /* \"#utility.yul\":525:530   */\n          dup3\n            /* \"#utility.yul\":521:575   */\n          and\n            /* \"#utility.yul\":510:575   */\n          swap1\n          pop\n            /* \"#utility.yul\":455:581   */\n          swap2\n          swap1\n          pop\n          jump\t// out\n            /* \"#utility.yul\":587:683   */\n        tag_37:\n            /* \"#utility.yul\":624:631   */\n          0x00\n            /* \"#utility.yul\":653:677   */\n          tag_60\n            /* \"#utility.yul\":671:676   */\n          dup3\n            /* \"#utility.yul\":653:677   */\n          tag_36\n          jump\t// in\n        tag_60:\n            /* \"#utility.yul\":642:677   */\n          swap1\n          pop\n            /* \"#utility.yul\":587:683   */\n          swap2\n          swap1\n          pop\n          jump\t// out\n            /* \"#utility.yul\":689:797   */\n        tag_38:\n            /* \"#utility.yul\":766:790   */\n          tag_62\n            /* \"#utility.yul\":784:789   */\n          dup2\n            /* \"#utility.yul\":766:790   */\n          tag_37\n          jump\t// in\n        tag_62:\n            /* \"#utility.yul\":761:764   */\n          dup3\n            /* \"#utility.yul\":754:791   */\n          mstore\n            /* \"#utility.yul\":689:797   */\n          pop\n          pop\n          jump\t// out\n            /* \"#utility.yul\":803:982   */\n        tag_39:\n            /* \"#utility.yul\":872:882   */\n          0x00\n            /* \"#utility.yul\":893:939   */\n          tag_64\n            /* \"#utility.yul\":935:938   */\n          dup4\n            /* \"#utility.yul\":927:933   */\n          dup4\n            /* \"#utility.yul\":893:939   */\n          tag_38\n          jump\t// in\n        tag_64:\n            /* \"#utility.yul\":971:975   */\n          0x20\n            /* \"#utility.yul\":966:969   */\n          dup4\n            /* \"#utility.yul\":962:976   */\n          add\n            /* \"#utility.yul\":948:976   */\n          swap1\n          pop\n            /* \"#utility.yul\":803:982   */\n          swap3\n          swap2\n          pop\n          pop\n          jump\t// out\n            /* \"#utility.yul\":988:1101   */\n        tag_40:\n            /* \"#utility.yul\":1058:1062   */\n          0x00\n            /* \"#utility.yul\":1090:1094   */\n          0x20\n            /* \"#utility.yul\":1085:1088   */\n          dup3\n            /* \"#utility.yul\":1081:1095   */\n          add\n            /* \"#utility.yul\":1073:1095   */\n          swap1\n          pop\n            /* \"#utility.yul\":988:1101   */\n          swap2\n          swap1\n          pop\n          jump\t// out\n            /* \"#utility.yul\":1137:1869   */\n        tag_41:\n            /* \"#utility.yul\":1256:1259   */\n          0x00\n            /* \"#utility.yul\":1285:1339   */\n          tag_67\n            /* \"#utility.yul\":1333:1338   */\n          dup3\n            /* \"#utility.yul\":1285:1339   */\n          tag_33\n          jump\t// in\n        tag_67:\n            /* \"#utility.yul\":1355:1441   */\n          tag_68\n            /* \"#utility.yul\":1434:1440   */\n          dup2\n            /* \"#utility.yul\":1429:1432   */\n          dup6\n            /* \"#utility.yul\":1355:1441   */\n          tag_34\n          jump\t// in\n        tag_68:\n            /* \"#utility.yul\":1348:1441   */\n          swap4\n          pop\n            /* \"#utility.yul\":1465:1521   */\n          tag_69\n            /* \"#utility.yul\":1515:1520   */\n          dup4\n            /* \"#utility.yul\":1465:1521   */\n          tag_35\n          jump\t// in\n        tag_69:\n            /* \"#utility.yul\":1544:1551   */\n          dup1\n            /* \"#utility.yul\":1575:1576   */\n          0x00\n            /* \"#utility.yul\":1560:1844   */\n        tag_70:\n            /* \"#utility.yul\":1585:1591   */\n          dup4\n            /* \"#utility.yul\":1582:1583   */\n          dup2\n            /* \"#utility.yul\":1579:1592   */\n          lt\n            /* \"#utility.yul\":1560:1844   */\n          iszero\n          tag_72\n          jumpi\n            /* \"#utility.yul\":1661:1667   */\n          dup2\n            /* \"#utility.yul\":1655:1668   */\n          mload\n            /* \"#utility.yul\":1688:1751   */\n          tag_73\n            /* \"#utility.yul\":1747:1750   */\n          dup9\n            /* \"#utility.yul\":1732:1745   */\n          dup3\n            /* \"#utility.yul\":1688:1751   */\n          tag_39\n          jump\t// in\n        tag_73:\n            /* \"#utility.yul\":1681:1751   */\n          swap8\n          pop\n            /* \"#utility.yul\":1774:1834   */\n          tag_74\n            /* \"#utility.yul\":1827:1833   */\n          dup4\n            /* \"#utility.yul\":1774:1834   */\n          tag_40\n          jump\t// in\n        tag_74:\n            /* \"#utility.yul\":1764:1834   */\n          swap3\n          pop\n            /* \"#utility.yul\":1620:1844   */\n          pop\n            /* \"#utility.yul\":1607:1608   */\n          0x01\n            /* \"#utility.yul\":1604:1605   */\n          dup2\n            /* \"#utility.yul\":1600:1609   */\n          add\n            /* \"#utility.yul\":1595:1609   */\n          swap1\n          pop\n            /* \"#utility.yul\":1560:1844   */\n          jump(tag_70)\n        tag_72:\n            /* \"#utility.yul\":1564:1578   */\n          pop\n            /* \"#utility.yul\":1860:1863   */\n          dup6\n            /* \"#utility.yul\":1853:1863   */\n          swap4\n          pop\n            /* \"#utility.yul\":1261:1869   */\n          pop\n          pop\n          pop\n            /* \"#utility.yul\":1137:1869   */\n          swap3\n          swap2\n          pop\n          pop\n          jump\t// out\n            /* \"#utility.yul\":1875:2248   */\n        tag_9:\n            /* \"#utility.yul\":2018:2022   */\n          0x00\n            /* \"#utility.yul\":2056:2058   */\n          0x20\n            /* \"#utility.yul\":2045:2054   */\n          dup3\n            /* \"#utility.yul\":2041:2059   */\n          add\n            /* \"#utility.yul\":2033:2059   */\n          swap1\n          pop\n            /* \"#utility.yul\":2105:2114   */\n          dup2\n            /* \"#utility.yul\":2099:2103   */\n          dup2\n            /* \"#utility.yul\":2095:2115   */\n          sub\n            /* \"#utility.yul\":2091:2092   */\n          0x00\n            /* \"#utility.yul\":2080:2089   */\n          dup4\n            /* \"#utility.yul\":2076:2093   */\n          add\n            /* \"#utility.yul\":2069:2116   */\n          mstore\n            /* \"#utility.yul\":2133:2241   */\n          tag_76\n            /* \"#utility.yul\":2236:2240   */\n          dup2\n            /* \"#utility.yul\":2227:2233   */\n          dup5\n            /* \"#utility.yul\":2133:2241   */\n          tag_41\n          jump\t// in\n        tag_76:\n            /* \"#utility.yul\":2125:2241   */\n          swap1\n          pop\n            /* \"#utility.yul\":1875:2248   */\n          swap3\n          swap2\n          pop\n          pop\n          jump\t// out\n            /* \"#utility.yul\":2335:2452   */\n        tag_43:\n            /* \"#utility.yul\":2444:2445   */\n          0x00\n            /* \"#utility.yul\":2441:2442   */\n          dup1\n            /* \"#utility.yul\":2434:2446   */\n          revert\n            /* \"#utility.yul\":2581:2703   */\n        tag_45:\n            /* \"#utility.yul\":2654:2678   */\n          tag_81\n            /* \"#utility.yul\":2672:2677   */\n          dup2\n            /* \"#utility.yul\":2654:2678   */\n          tag_37\n          jump\t// in\n        tag_81:\n            /* \"#utility.yul\":2647:2652   */\n          dup2\n            /* \"#utility.yul\":2644:2679   */\n          eq\n            /* \"#utility.yul\":2634:2697   */\n          tag_82\n          jumpi\n            /* \"#utility.yul\":2693:2694   */\n          0x00\n            /* \"#utility.yul\":2690:2691   */\n          dup1\n            /* \"#utility.yul\":2683:2695   */\n          revert\n            /* \"#utility.yul\":2634:2697   */\n        tag_82:\n            /* \"#utility.yul\":2581:2703   */\n          pop\n          jump\t// out\n            /* \"#utility.yul\":2709:2848   */\n        tag_46:\n            /* \"#utility.yul\":2755:2760   */\n          0x00\n            /* \"#utility.yul\":2793:2799   */\n          dup2\n            /* \"#utility.yul\":2780:2800   */\n          calldataload\n            /* \"#utility.yul\":2771:2800   */\n          swap1\n          pop\n            /* \"#utility.yul\":2809:2842   */\n          tag_84\n            /* \"#utility.yul\":2836:2841   */\n          dup2\n            /* \"#utility.yul\":2809:2842   */\n          tag_45\n          jump\t// in\n        tag_84:\n            /* \"#utility.yul\":2709:2848   */\n          swap3\n          swap2\n          pop\n          pop\n          jump\t// out\n            /* \"#utility.yul\":2854:3183   */\n        tag_12:\n            /* \"#utility.yul\":2913:2919   */\n          0x00\n            /* \"#utility.yul\":2962:2964   */\n          0x20\n            /* \"#utility.yul\":2950:2959   */\n          dup3\n            /* \"#utility.yul\":2941:2948   */\n          dup5\n            /* \"#utility.yul\":2937:2960   */\n          sub\n            /* \"#utility.yul\":2933:2965   */\n          slt\n            /* \"#utility.yul\":2930:3049   */\n          iszero\n          tag_86\n          jumpi\n            /* \"#utility.yul\":2968:3047   */\n          tag_87\n          tag_43\n          jump\t// in\n        tag_87:\n            /* \"#utility.yul\":2930:3049   */\n        tag_86:\n            /* \"#utility.yul\":3088:3089   */\n          0x00\n            /* \"#utility.yul\":3113:3166   */\n          tag_88\n            /* \"#utility.yul\":3158:3165   */\n          dup5\n            /* \"#utility.yul\":3149:3155   */\n          dup3\n            /* \"#utility.yul\":3138:3147   */\n          dup6\n            /* \"#utility.yul\":3134:3156   */\n          add\n            /* \"#utility.yul\":3113:3166   */\n          tag_46\n          jump\t// in\n        tag_88:\n            /* \"#utility.yul\":3103:3166   */\n          swap2\n          pop\n            /* \"#utility.yul\":3059:3176   */\n          pop\n            /* \"#utility.yul\":2854:3183   */\n          swap3\n          swap2\n          pop\n          pop\n          jump\t// out\n            /* \"#utility.yul\":3189:3279   */\n        tag_47:\n            /* \"#utility.yul\":3223:3230   */\n          0x00\n            /* \"#utility.yul\":3266:3271   */\n          dup2\n            /* \"#utility.yul\":3259:3272   */\n          iszero\n            /* \"#utility.yul\":3252:3273   */\n          iszero\n            /* \"#utility.yul\":3241:3273   */\n          swap1\n          pop\n            /* \"#utility.yul\":3189:3279   */\n          swap2\n          swap1\n          pop\n          jump\t// out\n            /* \"#utility.yul\":3285:3394   */\n        tag_48:\n            /* \"#utility.yul\":3366:3387   */\n          tag_91\n            /* \"#utility.yul\":3381:3386   */\n          dup2\n            /* \"#utility.yul\":3366:3387   */\n          tag_47\n          jump\t// in\n        tag_91:\n            /* \"#utility.yul\":3361:3364   */\n          dup3\n            /* \"#utility.yul\":3354:3388   */\n          mstore\n            /* \"#utility.yul\":3285:3394   */\n          pop\n          pop\n          jump\t// out\n            /* \"#utility.yul\":3400:3610   */\n        tag_15:\n            /* \"#utility.yul\":3487:3491   */\n          0x00\n            /* \"#utility.yul\":3525:3527   */\n          0x20\n            /* \"#utility.yul\":3514:3523   */\n          dup3\n            /* \"#utility.yul\":3510:3528   */\n          add\n            /* \"#utility.yul\":3502:3528   */\n          swap1\n          pop\n            /* \"#utility.yul\":3538:3603   */\n          tag_93\n            /* \"#utility.yul\":3600:3601   */\n          0x00\n            /* \"#utility.yul\":3589:3598   */\n          dup4\n            /* \"#utility.yul\":3585:3602   */\n          add\n            /* \"#utility.yul\":3576:3582   */\n          dup5\n            /* \"#utility.yul\":3538:3603   */\n          tag_48\n          jump\t// in\n        tag_93:\n            /* \"#utility.yul\":3400:3610   */\n          swap3\n          swap2\n          pop\n          pop\n          jump\t// out\n            /* \"#utility.yul\":3616:3715   */\n        tag_49:\n            /* \"#utility.yul\":3668:3674   */\n          0x00\n            /* \"#utility.yul\":3702:3707   */\n          dup2\n            /* \"#utility.yul\":3696:3708   */\n          mload\n            /* \"#utility.yul\":3686:3708   */\n          swap1\n          pop\n            /* \"#utility.yul\":3616:3715   */\n          swap2\n          swap1\n          pop\n          jump\t// out\n            /* \"#utility.yul\":3721:3890   */\n        tag_50:\n            /* \"#utility.yul\":3805:3816   */\n          0x00\n            /* \"#utility.yul\":3839:3845   */\n          dup3\n            /* \"#utility.yul\":3834:3837   */\n          dup3\n            /* \"#utility.yul\":3827:3846   */\n          mstore\n            /* \"#utility.yul\":3879:3883   */\n          0x20\n            /* \"#utility.yul\":3874:3877   */\n          dup3\n            /* \"#utility.yul\":3870:3884   */\n          add\n            /* \"#utility.yul\":3855:3884   */\n          swap1\n          pop\n            /* \"#utility.yul\":3721:3890   */\n          swap3\n          swap2\n          pop\n          pop\n          jump\t// out\n            /* \"#utility.yul\":3896:4142   */\n        tag_51:\n            /* \"#utility.yul\":3977:3978   */\n          0x00\n            /* \"#utility.yul\":3987:4100   */\n        tag_97:\n            /* \"#utility.yul\":4001:4007   */\n          dup4\n            /* \"#utility.yul\":3998:3999   */\n          dup2\n            /* \"#utility.yul\":3995:4008   */\n          lt\n            /* \"#utility.yul\":3987:4100   */\n          iszero\n          tag_99\n          jumpi\n            /* \"#utility.yul\":4086:4087   */\n          dup1\n            /* \"#utility.yul\":4081:4084   */\n          dup3\n            /* \"#utility.yul\":4077:4088   */\n          add\n            /* \"#utility.yul\":4071:4089   */\n          mload\n            /* \"#utility.yul\":4067:4068   */\n          dup2\n            /* \"#utility.yul\":4062:4065   */\n          dup5\n            /* \"#utility.yul\":4058:4069   */\n          add\n            /* \"#utility.yul\":4051:4090   */\n          mstore\n            /* \"#utility.yul\":4023:4025   */\n          0x20\n            /* \"#utility.yul\":4020:4021   */\n          dup2\n            /* \"#utility.yul\":4016:4026   */\n          add\n            /* \"#utility.yul\":4011:4026   */\n          swap1\n          pop\n            /* \"#utility.yul\":3987:4100   */\n          jump(tag_97)\n        tag_99:\n            /* \"#utility.yul\":4134:4135   */\n          0x00\n            /* \"#utility.yul\":4125:4131   */\n          dup5\n            /* \"#utility.yul\":4120:4123   */\n          dup5\n            /* \"#utility.yul\":4116:4132   */\n          add\n            /* \"#utility.yul\":4109:4136   */\n          mstore\n            /* \"#utility.yul\":3958:4142   */\n          pop\n            /* \"#utility.yul\":3896:4142   */\n          pop\n          pop\n          pop\n          jump\t// out\n            /* \"#utility.yul\":4148:4250   */\n        tag_52:\n            /* \"#utility.yul\":4189:4195   */\n          0x00\n            /* \"#utility.yul\":4240:4242   */\n          0x1f\n            /* \"#utility.yul\":4236:4243   */\n          not\n            /* \"#utility.yul\":4231:4233   */\n          0x1f\n            /* \"#utility.yul\":4224:4229   */\n          dup4\n            /* \"#utility.yul\":4220:4234   */\n          add\n            /* \"#utility.yul\":4216:4244   */\n          and\n            /* \"#utility.yul\":4206:4244   */\n          swap1\n          pop\n            /* \"#utility.yul\":4148:4250   */\n          swap2\n          swap1\n          pop\n          jump\t// out\n            /* \"#utility.yul\":4256:4633   */\n        tag_53:\n            /* \"#utility.yul\":4344:4347   */\n          0x00\n            /* \"#utility.yul\":4372:4411   */\n          tag_102\n            /* \"#utility.yul\":4405:4410   */\n          dup3\n            /* \"#utility.yul\":4372:4411   */\n          tag_49\n          jump\t// in\n        tag_102:\n            /* \"#utility.yul\":4427:4498   */\n          tag_103\n            /* \"#utility.yul\":4491:4497   */\n          dup2\n            /* \"#utility.yul\":4486:4489   */\n          dup6\n            /* \"#utility.yul\":4427:4498   */\n          tag_50\n          jump\t// in\n        tag_103:\n            /* \"#utility.yul\":4420:4498   */\n          swap4\n          pop\n            /* \"#utility.yul\":4507:4572   */\n          tag_104\n            /* \"#utility.yul\":4565:4571   */\n          dup2\n            /* \"#utility.yul\":4560:4563   */\n          dup6\n            /* \"#utility.yul\":4553:4557   */\n          0x20\n            /* \"#utility.yul\":4546:4551   */\n          dup7\n            /* \"#utility.yul\":4542:4558   */\n          add\n            /* \"#utility.yul\":4507:4572   */\n          tag_51\n          jump\t// in\n        tag_104:\n            /* \"#utility.yul\":4597:4626   */\n          tag_105\n            /* \"#utility.yul\":4619:4625   */\n          dup2\n            /* \"#utility.yul\":4597:4626   */\n          tag_52\n          jump\t// in\n        tag_105:\n            /* \"#utility.yul\":4592:4595   */\n          dup5\n            /* \"#utility.yul\":4588:4627   */\n          add\n            /* \"#utility.yul\":4581:4627   */\n          swap2\n          pop\n            /* \"#utility.yul\":4348:4633   */\n          pop\n            /* \"#utility.yul\":4256:4633   */\n          swap3\n          swap2\n          pop\n          pop\n          jump\t// out\n            /* \"#utility.yul\":4639:4952   */\n        tag_20:\n            /* \"#utility.yul\":4752:4756   */\n          0x00\n            /* \"#utility.yul\":4790:4792   */\n          0x20\n            /* \"#utility.yul\":4779:4788   */\n          dup3\n            /* \"#utility.yul\":4775:4793   */\n          add\n            /* \"#utility.yul\":4767:4793   */\n          swap1\n          pop\n            /* \"#utility.yul\":4839:4848   */\n          dup2\n            /* \"#utility.yul\":4833:4837   */\n          dup2\n            /* \"#utility.yul\":4829:4849   */\n          sub\n            /* \"#utility.yul\":4825:4826   */\n          0x00\n            /* \"#utility.yul\":4814:4823   */\n          dup4\n            /* \"#utility.yul\":4810:4827   */\n          add\n            /* \"#utility.yul\":4803:4850   */\n          mstore\n            /* \"#utility.yul\":4867:4945   */\n          tag_107\n            /* \"#utility.yul\":4940:4944   */\n          dup2\n            /* \"#utility.yul\":4931:4937   */\n          dup5\n            /* \"#utility.yul\":4867:4945   */\n          tag_53\n          jump\t// in\n        tag_107:\n            /* \"#utility.yul\":4859:4945   */\n          swap1\n          pop\n            /* \"#utility.yul\":4639:4952   */\n          swap3\n          swap2\n          pop\n          pop\n          jump\t// out\n\n        auxdata: 0xa264697066735822122037441a15b00b2aeaf5874d21d070c9069176a640e4ef7ac295249b1cdf5ba6a264736f6c63430008110033\n    }\n}\n\nsub_3: assembly {\n        /* \"ElectronicMedicalRecords.sol\":5471:6430  contract DoctorVerificator {... */\n      mstore(0x40, 0x80)\n        /* \"ElectronicMedicalRecords.sol\":5627:5688  constructor(address _admin) {... */\n      callvalue\n      dup1\n      iszero\n      tag_1\n      jumpi\n      0x00\n      dup1\n      revert\n    tag_1:\n      pop\n      mload(0x40)\n      sub(codesize, bytecodeSize)\n      dup1\n      bytecodeSize\n      dup4\n      codecopy\n      dup2\n      dup2\n      add\n      0x40\n      mstore\n      dup2\n      add\n      swap1\n      tag_2\n      swap2\n      swap1\n      tag_3\n      jump\t// in\n    tag_2:\n        /* \"ElectronicMedicalRecords.sol\":5674:5680  _admin */\n      dup1\n        /* \"ElectronicMedicalRecords.sol\":5666:5671  admin */\n      0x00\n      dup1\n        /* \"ElectronicMedicalRecords.sol\":5666:5680  admin = _admin */\n      0x0100\n      exp\n      dup2\n      sload\n      dup2\n      0xffffffffffffffffffffffffffffffffffffffff\n      mul\n      not\n      and\n      swap1\n      dup4\n      0xffffffffffffffffffffffffffffffffffffffff\n      and\n      mul\n      or\n      swap1\n      sstore\n      pop\n        /* \"ElectronicMedicalRecords.sol\":5627:5688  constructor(address _admin) {... */\n      pop\n        /* \"ElectronicMedicalRecords.sol\":5471:6430  contract DoctorVerificator {... */\n      jump(tag_6)\n        /* \"#utility.yul\":88:205   */\n    tag_8:\n        /* \"#utility.yul\":197:198   */\n      0x00\n        /* \"#utility.yul\":194:195   */\n      dup1\n        /* \"#utility.yul\":187:199   */\n      revert\n        /* \"#utility.yul\":334:460   */\n    tag_10:\n        /* \"#utility.yul\":371:378   */\n      0x00\n        /* \"#utility.yul\":411:453   */\n      0xffffffffffffffffffffffffffffffffffffffff\n        /* \"#utility.yul\":404:409   */\n      dup3\n        /* \"#utility.yul\":400:454   */\n      and\n        /* \"#utility.yul\":389:454   */\n      swap1\n      pop\n        /* \"#utility.yul\":334:460   */\n      swap2\n      swap1\n      pop\n      jump\t// out\n        /* \"#utility.yul\":466:562   */\n    tag_11:\n        /* \"#utility.yul\":503:510   */\n      0x00\n        /* \"#utility.yul\":532:556   */\n      tag_20\n        /* \"#utility.yul\":550:555   */\n      dup3\n        /* \"#utility.yul\":532:556   */\n      tag_10\n      jump\t// in\n    tag_20:\n        /* \"#utility.yul\":521:556   */\n      swap1\n      pop\n        /* \"#utility.yul\":466:562   */\n      swap2\n      swap1\n      pop\n      jump\t// out\n        /* \"#utility.yul\":568:690   */\n    tag_12:\n        /* \"#utility.yul\":641:665   */\n      tag_22\n        /* \"#utility.yul\":659:664   */\n      dup2\n        /* \"#utility.yul\":641:665   */\n      tag_11\n      jump\t// in\n    tag_22:\n        /* \"#utility.yul\":634:639   */\n      dup2\n        /* \"#utility.yul\":631:666   */\n      eq\n        /* \"#utility.yul\":621:684   */\n      tag_23\n      jumpi\n        /* \"#utility.yul\":680:681   */\n      0x00\n        /* \"#utility.yul\":677:678   */\n      dup1\n        /* \"#utility.yul\":670:682   */\n      revert\n        /* \"#utility.yul\":621:684   */\n    tag_23:\n        /* \"#utility.yul\":568:690   */\n      pop\n      jump\t// out\n        /* \"#utility.yul\":696:839   */\n    tag_13:\n        /* \"#utility.yul\":753:758   */\n      0x00\n        /* \"#utility.yul\":784:790   */\n      dup2\n        /* \"#utility.yul\":778:791   */\n      mload\n        /* \"#utility.yul\":769:791   */\n      swap1\n      pop\n        /* \"#utility.yul\":800:833   */\n      tag_25\n        /* \"#utility.yul\":827:832   */\n      dup2\n        /* \"#utility.yul\":800:833   */\n      tag_12\n      jump\t// in\n    tag_25:\n        /* \"#utility.yul\":696:839   */\n      swap3\n      swap2\n      pop\n      pop\n      jump\t// out\n        /* \"#utility.yul\":845:1196   */\n    tag_3:\n        /* \"#utility.yul\":915:921   */\n      0x00\n        /* \"#utility.yul\":964:966   */\n      0x20\n        /* \"#utility.yul\":952:961   */\n      dup3\n        /* \"#utility.yul\":943:950   */\n      dup5\n        /* \"#utility.yul\":939:962   */\n      sub\n        /* \"#utility.yul\":935:967   */\n      slt\n        /* \"#utility.yul\":932:1051   */\n      iszero\n      tag_27\n      jumpi\n        /* \"#utility.yul\":970:1049   */\n      tag_28\n      tag_8\n      jump\t// in\n    tag_28:\n        /* \"#utility.yul\":932:1051   */\n    tag_27:\n        /* \"#utility.yul\":1090:1091   */\n      0x00\n        /* \"#utility.yul\":1115:1179   */\n      tag_29\n        /* \"#utility.yul\":1171:1178   */\n      dup5\n        /* \"#utility.yul\":1162:1168   */\n      dup3\n        /* \"#utility.yul\":1151:1160   */\n      dup6\n        /* \"#utility.yul\":1147:1169   */\n      add\n        /* \"#utility.yul\":1115:1179   */\n      tag_13\n      jump\t// in\n    tag_29:\n        /* \"#utility.yul\":1105:1179   */\n      swap2\n      pop\n        /* \"#utility.yul\":1061:1189   */\n      pop\n        /* \"#utility.yul\":845:1196   */\n      swap3\n      swap2\n      pop\n      pop\n      jump\t// out\n        /* \"ElectronicMedicalRecords.sol\":5471:6430  contract DoctorVerificator {... */\n    tag_6:\n      dataSize(sub_0)\n      dup1\n      dataOffset(sub_0)\n      0x00\n      codecopy\n      0x00\n      return\n    stop\n\n    sub_0: assembly {\n            /* \"ElectronicMedicalRecords.sol\":5471:6430  contract DoctorVerificator {... */\n          mstore(0x40, 0x80)\n          callvalue\n          dup1\n          iszero\n          tag_1\n          jumpi\n          0x00\n          dup1\n          revert\n        tag_1:\n          pop\n          jumpi(tag_2, lt(calldatasize, 0x04))\n          shr(0xe0, calldataload(0x00))\n          dup1\n          0x4780468f\n          eq\n          tag_3\n          jumpi\n          dup1\n          0x63a9c3d7\n          eq\n          tag_4\n          jumpi\n          dup1\n          0xf0d95090\n          eq\n          tag_5\n          jumpi\n        tag_2:\n          0x00\n          dup1\n          revert\n            /* \"ElectronicMedicalRecords.sol\":5696:6018  function addDoctor(address _address) onlyAdmin public returns(string memory notif) {... */\n        tag_3:\n          tag_6\n          0x04\n          dup1\n          calldatasize\n          sub\n          dup2\n          add\n          swap1\n          tag_7\n          swap2\n          swap1\n          tag_8\n          jump\t// in\n        tag_7:\n          tag_9\n          jump\t// in\n        tag_6:\n          mload(0x40)\n          tag_10\n          swap2\n          swap1\n          tag_11\n          jump\t// in\n        tag_10:\n          mload(0x40)\n          dup1\n          swap2\n          sub\n          swap1\n          return\n            /* \"ElectronicMedicalRecords.sol\":6026:6216  function verify(address _address) public view returns(bool _bool) {... */\n        tag_4:\n          tag_12\n          0x04\n          dup1\n          calldatasize\n          sub\n          dup2\n          add\n          swap1\n          tag_13\n          swap2\n          swap1\n          tag_8\n          jump\t// in\n        tag_13:\n          tag_14\n          jump\t// in\n        tag_12:\n          mload(0x40)\n          tag_15\n          swap2\n          swap1\n          tag_16\n          jump\t// in\n        tag_15:\n          mload(0x40)\n          dup1\n          swap2\n          sub\n          swap1\n          return\n            /* \"ElectronicMedicalRecords.sol\":6224:6339  function getAllDoctors() onlyAdmin public view returns(address[] memory _address) {... */\n        tag_5:\n          tag_17\n          tag_18\n          jump\t// in\n        tag_17:\n          mload(0x40)\n          tag_19\n          swap2\n          swap1\n          tag_20\n          jump\t// in\n        tag_19:\n          mload(0x40)\n          dup1\n          swap2\n          sub\n          swap1\n          return\n            /* \"ElectronicMedicalRecords.sol\":5696:6018  function addDoctor(address _address) onlyAdmin public returns(string memory notif) {... */\n        tag_9:\n            /* \"ElectronicMedicalRecords.sol\":5758:5777  string memory notif */\n          0x60\n            /* \"ElectronicMedicalRecords.sol\":6401:6406  admin */\n          0x00\n          dup1\n          sload\n          swap1\n          0x0100\n          exp\n          swap1\n          div\n          0xffffffffffffffffffffffffffffffffffffffff\n          and\n            /* \"ElectronicMedicalRecords.sol\":6387:6406  msg.sender == admin */\n          0xffffffffffffffffffffffffffffffffffffffff\n          and\n            /* \"ElectronicMedicalRecords.sol\":6387:6397  msg.sender */\n          caller\n            /* \"ElectronicMedicalRecords.sol\":6387:6406  msg.sender == admin */\n          0xffffffffffffffffffffffffffffffffffffffff\n          and\n          eq\n            /* \"ElectronicMedicalRecords.sol\":6379:6407  require(msg.sender == admin) */\n          tag_22\n          jumpi\n          0x00\n          dup1\n          revert\n        tag_22:\n            /* \"ElectronicMedicalRecords.sol\":5794:5800  doctor */\n          0x02\n            /* \"ElectronicMedicalRecords.sol\":5794:5810  doctor[_address] */\n          0x00\n            /* \"ElectronicMedicalRecords.sol\":5801:5809  _address */\n          dup4\n            /* \"ElectronicMedicalRecords.sol\":5794:5810  doctor[_address] */\n          0xffffffffffffffffffffffffffffffffffffffff\n          and\n          0xffffffffffffffffffffffffffffffffffffffff\n          and\n          dup2\n          mstore\n          0x20\n          add\n          swap1\n          dup2\n          mstore\n          0x20\n          add\n          0x00\n          keccak256\n          0x00\n          swap1\n          sload\n          swap1\n          0x0100\n          exp\n          swap1\n          div\n          0xff\n          and\n            /* \"ElectronicMedicalRecords.sol\":5790:6001  if(!doctor[_address]) {... */\n          tag_24\n          jumpi\n            /* \"ElectronicMedicalRecords.sol\":5846:5850  true */\n          0x01\n            /* \"ElectronicMedicalRecords.sol\":5827:5833  doctor */\n          0x02\n            /* \"ElectronicMedicalRecords.sol\":5827:5843  doctor[_address] */\n          0x00\n            /* \"ElectronicMedicalRecords.sol\":5834:5842  _address */\n          dup5\n            /* \"ElectronicMedicalRecords.sol\":5827:5843  doctor[_address] */\n          0xffffffffffffffffffffffffffffffffffffffff\n          and\n          0xffffffffffffffffffffffffffffffffffffffff\n          and\n          dup2\n          mstore\n          0x20\n          add\n          swap1\n          dup2\n          mstore\n          0x20\n          add\n          0x00\n          keccak256\n          0x00\n            /* \"ElectronicMedicalRecords.sol\":5827:5850  doctor[_address] = true */\n          0x0100\n          exp\n          dup2\n          sload\n          dup2\n          0xff\n          mul\n          not\n          and\n          swap1\n          dup4\n          iszero\n          iszero\n          mul\n          or\n          swap1\n          sstore\n          pop\n            /* \"ElectronicMedicalRecords.sol\":5865:5872  doctors */\n          0x01\n            /* \"ElectronicMedicalRecords.sol\":5878:5886  _address */\n          dup3\n            /* \"ElectronicMedicalRecords.sol\":5865:5887  doctors.push(_address) */\n          swap1\n          dup1\n          0x01\n          dup2\n          sload\n          add\n          dup1\n          dup3\n          sstore\n          dup1\n          swap2\n          pop\n          pop\n          0x01\n          swap1\n          sub\n          swap1\n          0x00\n          mstore\n          keccak256(0x00, 0x20)\n          add\n          0x00\n          swap1\n          swap2\n          swap1\n          swap2\n          swap1\n          swap2\n          0x0100\n          exp\n          dup2\n          sload\n          dup2\n          0xffffffffffffffffffffffffffffffffffffffff\n          mul\n          not\n          and\n          swap1\n          dup4\n          0xffffffffffffffffffffffffffffffffffffffff\n          and\n          mul\n          or\n          swap1\n          sstore\n          pop\n            /* \"ElectronicMedicalRecords.sol\":5902:5924  return \"Address added\" */\n          mload(0x40)\n          dup1\n          0x40\n          add\n          0x40\n          mstore\n          dup1\n          0x0d\n          dup2\n          mstore\n          0x20\n          add\n          0x4164647265737320616464656400000000000000000000000000000000000000\n          dup2\n          mstore\n          pop\n          swap1\n          pop\n          jump(tag_23)\n            /* \"ElectronicMedicalRecords.sol\":5790:6001  if(!doctor[_address]) {... */\n        tag_24:\n            /* \"ElectronicMedicalRecords.sol\":5957:5989  return \"Cannot add same address\" */\n          mload(0x40)\n          dup1\n          0x40\n          add\n          0x40\n          mstore\n          dup1\n          0x17\n          dup2\n          mstore\n          0x20\n          add\n          0x43616e6e6f74206164642073616d652061646472657373000000000000000000\n          dup2\n          mstore\n          pop\n          swap1\n          pop\n            /* \"ElectronicMedicalRecords.sol\":6418:6419  _ */\n        tag_23:\n            /* \"ElectronicMedicalRecords.sol\":5696:6018  function addDoctor(address _address) onlyAdmin public returns(string memory notif) {... */\n          swap2\n          swap1\n          pop\n          jump\t// out\n            /* \"ElectronicMedicalRecords.sol\":6026:6216  function verify(address _address) public view returns(bool _bool) {... */\n        tag_14:\n            /* \"ElectronicMedicalRecords.sol\":6080:6090  bool _bool */\n          0x00\n            /* \"ElectronicMedicalRecords.sol\":6106:6112  doctor */\n          0x02\n            /* \"ElectronicMedicalRecords.sol\":6106:6122  doctor[_address] */\n          0x00\n            /* \"ElectronicMedicalRecords.sol\":6113:6121  _address */\n          dup4\n            /* \"ElectronicMedicalRecords.sol\":6106:6122  doctor[_address] */\n          0xffffffffffffffffffffffffffffffffffffffff\n          and\n          0xffffffffffffffffffffffffffffffffffffffff\n          and\n          dup2\n          mstore\n          0x20\n          add\n          swap1\n          dup2\n          mstore\n          0x20\n          add\n          0x00\n          keccak256\n          0x00\n          swap1\n          sload\n          swap1\n          0x0100\n          exp\n          swap1\n          div\n          0xff\n          and\n            /* \"ElectronicMedicalRecords.sol\":6103:6207  if(doctor[_address]) {... */\n          iszero\n          tag_28\n          jumpi\n            /* \"ElectronicMedicalRecords.sol\":6146:6150  true */\n          0x01\n            /* \"ElectronicMedicalRecords.sol\":6139:6150  return true */\n          swap1\n          pop\n          jump(tag_27)\n            /* \"ElectronicMedicalRecords.sol\":6103:6207  if(doctor[_address]) {... */\n        tag_28:\n            /* \"ElectronicMedicalRecords.sol\":6190:6195  false */\n          0x00\n            /* \"ElectronicMedicalRecords.sol\":6183:6195  return false */\n          swap1\n          pop\n            /* \"ElectronicMedicalRecords.sol\":6026:6216  function verify(address _address) public view returns(bool _bool) {... */\n        tag_27:\n          swap2\n          swap1\n          pop\n          jump\t// out\n            /* \"ElectronicMedicalRecords.sol\":6224:6339  function getAllDoctors() onlyAdmin public view returns(address[] memory _address) {... */\n        tag_18:\n            /* \"ElectronicMedicalRecords.sol\":6279:6304  address[] memory _address */\n          0x60\n            /* \"ElectronicMedicalRecords.sol\":6401:6406  admin */\n          0x00\n          dup1\n          sload\n          swap1\n          0x0100\n          exp\n          swap1\n          div\n          0xffffffffffffffffffffffffffffffffffffffff\n          and\n            /* \"ElectronicMedicalRecords.sol\":6387:6406  msg.sender == admin */\n          0xffffffffffffffffffffffffffffffffffffffff\n          and\n            /* \"ElectronicMedicalRecords.sol\":6387:6397  msg.sender */\n          caller\n            /* \"ElectronicMedicalRecords.sol\":6387:6406  msg.sender == admin */\n          0xffffffffffffffffffffffffffffffffffffffff\n          and\n          eq\n            /* \"ElectronicMedicalRecords.sol\":6379:6407  require(msg.sender == admin) */\n          tag_31\n          jumpi\n          0x00\n          dup1\n          revert\n        tag_31:\n            /* \"ElectronicMedicalRecords.sol\":6324:6331  doctors */\n          0x01\n            /* \"ElectronicMedicalRecords.sol\":6317:6331  return doctors */\n          dup1\n          sload\n          dup1\n          0x20\n          mul\n          0x20\n          add\n          mload(0x40)\n          swap1\n          dup2\n          add\n          0x40\n          mstore\n          dup1\n          swap3\n          swap2\n          swap1\n          dup2\n          dup2\n          mstore\n          0x20\n          add\n          dup3\n          dup1\n          sload\n          dup1\n          iszero\n          tag_33\n          jumpi\n          0x20\n          mul\n          dup3\n          add\n          swap2\n          swap1\n          0x00\n          mstore\n          keccak256(0x00, 0x20)\n          swap1\n        tag_34:\n          dup2\n          0x00\n          swap1\n          sload\n          swap1\n          0x0100\n          exp\n          swap1\n          div\n          0xffffffffffffffffffffffffffffffffffffffff\n          and\n          0xffffffffffffffffffffffffffffffffffffffff\n          and\n          dup2\n          mstore\n          0x20\n          add\n          swap1\n          0x01\n          add\n          swap1\n          dup1\n          dup4\n          gt\n          tag_34\n          jumpi\n        tag_33:\n          pop\n          pop\n          pop\n          pop\n          pop\n          swap1\n          pop\n            /* \"ElectronicMedicalRecords.sol\":6224:6339  function getAllDoctors() onlyAdmin public view returns(address[] memory _address) {... */\n          swap1\n          jump\t// out\n            /* \"#utility.yul\":88:205   */\n        tag_36:\n            /* \"#utility.yul\":197:198   */\n          0x00\n            /* \"#utility.yul\":194:195   */\n          dup1\n            /* \"#utility.yul\":187:199   */\n          revert\n            /* \"#utility.yul\":334:460   */\n        tag_38:\n            /* \"#utility.yul\":371:378   */\n          0x00\n            /* \"#utility.yul\":411:453   */\n          0xffffffffffffffffffffffffffffffffffffffff\n            /* \"#utility.yul\":404:409   */\n          dup3\n            /* \"#utility.yul\":400:454   */\n          and\n            /* \"#utility.yul\":389:454   */\n          swap1\n          pop\n            /* \"#utility.yul\":334:460   */\n          swap2\n          swap1\n          pop\n          jump\t// out\n            /* \"#utility.yul\":466:562   */\n        tag_39:\n            /* \"#utility.yul\":503:510   */\n          0x00\n            /* \"#utility.yul\":532:556   */\n          tag_62\n            /* \"#utility.yul\":550:555   */\n          dup3\n            /* \"#utility.yul\":532:556   */\n          tag_38\n          jump\t// in\n        tag_62:\n            /* \"#utility.yul\":521:556   */\n          swap1\n          pop\n            /* \"#utility.yul\":466:562   */\n          swap2\n          swap1\n          pop\n          jump\t// out\n            /* \"#utility.yul\":568:690   */\n        tag_40:\n            /* \"#utility.yul\":641:665   */\n          tag_64\n            /* \"#utility.yul\":659:664   */\n          dup2\n            /* \"#utility.yul\":641:665   */\n          tag_39\n          jump\t// in\n        tag_64:\n            /* \"#utility.yul\":634:639   */\n          dup2\n            /* \"#utility.yul\":631:666   */\n          eq\n            /* \"#utility.yul\":621:684   */\n          tag_65\n          jumpi\n            /* \"#utility.yul\":680:681   */\n          0x00\n            /* \"#utility.yul\":677:678   */\n          dup1\n            /* \"#utility.yul\":670:682   */\n          revert\n            /* \"#utility.yul\":621:684   */\n        tag_65:\n            /* \"#utility.yul\":568:690   */\n          pop\n          jump\t// out\n            /* \"#utility.yul\":696:835   */\n        tag_41:\n            /* \"#utility.yul\":742:747   */\n          0x00\n            /* \"#utility.yul\":780:786   */\n          dup2\n            /* \"#utility.yul\":767:787   */\n          calldataload\n            /* \"#utility.yul\":758:787   */\n          swap1\n          pop\n            /* \"#utility.yul\":796:829   */\n          tag_67\n            /* \"#utility.yul\":823:828   */\n          dup2\n            /* \"#utility.yul\":796:829   */\n          tag_40\n          jump\t// in\n        tag_67:\n            /* \"#utility.yul\":696:835   */\n          swap3\n          swap2\n          pop\n          pop\n          jump\t// out\n            /* \"#utility.yul\":841:1170   */\n        tag_8:\n            /* \"#utility.yul\":900:906   */\n          0x00\n            /* \"#utility.yul\":949:951   */\n          0x20\n            /* \"#utility.yul\":937:946   */\n          dup3\n            /* \"#utility.yul\":928:935   */\n          dup5\n            /* \"#utility.yul\":924:947   */\n          sub\n            /* \"#utility.yul\":920:952   */\n          slt\n            /* \"#utility.yul\":917:1036   */\n          iszero\n          tag_69\n          jumpi\n            /* \"#utility.yul\":955:1034   */\n          tag_70\n          tag_36\n          jump\t// in\n        tag_70:\n            /* \"#utility.yul\":917:1036   */\n        tag_69:\n            /* \"#utility.yul\":1075:1076   */\n          0x00\n            /* \"#utility.yul\":1100:1153   */\n          tag_71\n            /* \"#utility.yul\":1145:1152   */\n          dup5\n            /* \"#utility.yul\":1136:1142   */\n          dup3\n            /* \"#utility.yul\":1125:1134   */\n          dup6\n            /* \"#utility.yul\":1121:1143   */\n          add\n            /* \"#utility.yul\":1100:1153   */\n          tag_41\n          jump\t// in\n        tag_71:\n            /* \"#utility.yul\":1090:1153   */\n          swap2\n          pop\n            /* \"#utility.yul\":1046:1163   */\n          pop\n            /* \"#utility.yul\":841:1170   */\n          swap3\n          swap2\n          pop\n          pop\n          jump\t// out\n            /* \"#utility.yul\":1176:1275   */\n        tag_42:\n            /* \"#utility.yul\":1228:1234   */\n          0x00\n            /* \"#utility.yul\":1262:1267   */\n          dup2\n            /* \"#utility.yul\":1256:1268   */\n          mload\n            /* \"#utility.yul\":1246:1268   */\n          swap1\n          pop\n            /* \"#utility.yul\":1176:1275   */\n          swap2\n          swap1\n          pop\n          jump\t// out\n            /* \"#utility.yul\":1281:1450   */\n        tag_43:\n            /* \"#utility.yul\":1365:1376   */\n          0x00\n            /* \"#utility.yul\":1399:1405   */\n          dup3\n            /* \"#utility.yul\":1394:1397   */\n          dup3\n            /* \"#utility.yul\":1387:1406   */\n          mstore\n            /* \"#utility.yul\":1439:1443   */\n          0x20\n            /* \"#utility.yul\":1434:1437   */\n          dup3\n            /* \"#utility.yul\":1430:1444   */\n          add\n            /* \"#utility.yul\":1415:1444   */\n          swap1\n          pop\n            /* \"#utility.yul\":1281:1450   */\n          swap3\n          swap2\n          pop\n          pop\n          jump\t// out\n            /* \"#utility.yul\":1456:1702   */\n        tag_44:\n            /* \"#utility.yul\":1537:1538   */\n          0x00\n            /* \"#utility.yul\":1547:1660   */\n        tag_75:\n            /* \"#utility.yul\":1561:1567   */\n          dup4\n            /* \"#utility.yul\":1558:1559   */\n          dup2\n            /* \"#utility.yul\":1555:1568   */\n          lt\n            /* \"#utility.yul\":1547:1660   */\n          iszero\n          tag_77\n          jumpi\n            /* \"#utility.yul\":1646:1647   */\n          dup1\n            /* \"#utility.yul\":1641:1644   */\n          dup3\n            /* \"#utility.yul\":1637:1648   */\n          add\n            /* \"#utility.yul\":1631:1649   */\n          mload\n            /* \"#utility.yul\":1627:1628   */\n          dup2\n            /* \"#utility.yul\":1622:1625   */\n          dup5\n            /* \"#utility.yul\":1618:1629   */\n          add\n            /* \"#utility.yul\":1611:1650   */\n          mstore\n            /* \"#utility.yul\":1583:1585   */\n          0x20\n            /* \"#utility.yul\":1580:1581   */\n          dup2\n            /* \"#utility.yul\":1576:1586   */\n          add\n            /* \"#utility.yul\":1571:1586   */\n          swap1\n          pop\n            /* \"#utility.yul\":1547:1660   */\n          jump(tag_75)\n        tag_77:\n            /* \"#utility.yul\":1694:1695   */\n          0x00\n            /* \"#utility.yul\":1685:1691   */\n          dup5\n            /* \"#utility.yul\":1680:1683   */\n          dup5\n            /* \"#utility.yul\":1676:1692   */\n          add\n            /* \"#utility.yul\":1669:1696   */\n          mstore\n            /* \"#utility.yul\":1518:1702   */\n          pop\n            /* \"#utility.yul\":1456:1702   */\n          pop\n          pop\n          pop\n          jump\t// out\n            /* \"#utility.yul\":1708:1810   */\n        tag_45:\n            /* \"#utility.yul\":1749:1755   */\n          0x00\n            /* \"#utility.yul\":1800:1802   */\n          0x1f\n            /* \"#utility.yul\":1796:1803   */\n          not\n            /* \"#utility.yul\":1791:1793   */\n          0x1f\n            /* \"#utility.yul\":1784:1789   */\n          dup4\n            /* \"#utility.yul\":1780:1794   */\n          add\n            /* \"#utility.yul\":1776:1804   */\n          and\n            /* \"#utility.yul\":1766:1804   */\n          swap1\n          pop\n            /* \"#utility.yul\":1708:1810   */\n          swap2\n          swap1\n          pop\n          jump\t// out\n            /* \"#utility.yul\":1816:2193   */\n        tag_46:\n            /* \"#utility.yul\":1904:1907   */\n          0x00\n            /* \"#utility.yul\":1932:1971   */\n          tag_80\n            /* \"#utility.yul\":1965:1970   */\n          dup3\n            /* \"#utility.yul\":1932:1971   */\n          tag_42\n          jump\t// in\n        tag_80:\n            /* \"#utility.yul\":1987:2058   */\n          tag_81\n            /* \"#utility.yul\":2051:2057   */\n          dup2\n            /* \"#utility.yul\":2046:2049   */\n          dup6\n            /* \"#utility.yul\":1987:2058   */\n          tag_43\n          jump\t// in\n        tag_81:\n            /* \"#utility.yul\":1980:2058   */\n          swap4\n          pop\n            /* \"#utility.yul\":2067:2132   */\n          tag_82\n            /* \"#utility.yul\":2125:2131   */\n          dup2\n            /* \"#utility.yul\":2120:2123   */\n          dup6\n            /* \"#utility.yul\":2113:2117   */\n          0x20\n            /* \"#utility.yul\":2106:2111   */\n          dup7\n            /* \"#utility.yul\":2102:2118   */\n          add\n            /* \"#utility.yul\":2067:2132   */\n          tag_44\n          jump\t// in\n        tag_82:\n            /* \"#utility.yul\":2157:2186   */\n          tag_83\n            /* \"#utility.yul\":2179:2185   */\n          dup2\n            /* \"#utility.yul\":2157:2186   */\n          tag_45\n          jump\t// in\n        tag_83:\n            /* \"#utility.yul\":2152:2155   */\n          dup5\n            /* \"#utility.yul\":2148:2187   */\n          add\n            /* \"#utility.yul\":2141:2187   */\n          swap2\n          pop\n            /* \"#utility.yul\":1908:2193   */\n          pop\n            /* \"#utility.yul\":1816:2193   */\n          swap3\n          swap2\n          pop\n          pop\n          jump\t// out\n            /* \"#utility.yul\":2199:2512   */\n        tag_11:\n            /* \"#utility.yul\":2312:2316   */\n          0x00\n            /* \"#utility.yul\":2350:2352   */\n          0x20\n            /* \"#utility.yul\":2339:2348   */\n          dup3\n            /* \"#utility.yul\":2335:2353   */\n          add\n            /* \"#utility.yul\":2327:2353   */\n          swap1\n          pop\n            /* \"#utility.yul\":2399:2408   */\n          dup2\n            /* \"#utility.yul\":2393:2397   */\n          dup2\n            /* \"#utility.yul\":2389:2409   */\n          sub\n            /* \"#utility.yul\":2385:2386   */\n          0x00\n            /* \"#utility.yul\":2374:2383   */\n          dup4\n            /* \"#utility.yul\":2370:2387   */\n          add\n            /* \"#utility.yul\":2363:2410   */\n          mstore\n            /* \"#utility.yul\":2427:2505   */\n          tag_85\n            /* \"#utility.yul\":2500:2504   */\n          dup2\n            /* \"#utility.yul\":2491:2497   */\n          dup5\n            /* \"#utility.yul\":2427:2505   */\n          tag_46\n          jump\t// in\n        tag_85:\n            /* \"#utility.yul\":2419:2505   */\n          swap1\n          pop\n            /* \"#utility.yul\":2199:2512   */\n          swap3\n          swap2\n          pop\n          pop\n          jump\t// out\n            /* \"#utility.yul\":2518:2608   */\n        tag_47:\n            /* \"#utility.yul\":2552:2559   */\n          0x00\n            /* \"#utility.yul\":2595:2600   */\n          dup2\n            /* \"#utility.yul\":2588:2601   */\n          iszero\n            /* \"#utility.yul\":2581:2602   */\n          iszero\n            /* \"#utility.yul\":2570:2602   */\n          swap1\n          pop\n            /* \"#utility.yul\":2518:2608   */\n          swap2\n          swap1\n          pop\n          jump\t// out\n            /* \"#utility.yul\":2614:2723   */\n        tag_48:\n            /* \"#utility.yul\":2695:2716   */\n          tag_88\n            /* \"#utility.yul\":2710:2715   */\n          dup2\n            /* \"#utility.yul\":2695:2716   */\n          tag_47\n          jump\t// in\n        tag_88:\n            /* \"#utility.yul\":2690:2693   */\n          dup3\n            /* \"#utility.yul\":2683:2717   */\n          mstore\n            /* \"#utility.yul\":2614:2723   */\n          pop\n          pop\n          jump\t// out\n            /* \"#utility.yul\":2729:2939   */\n        tag_16:\n            /* \"#utility.yul\":2816:2820   */\n          0x00\n            /* \"#utility.yul\":2854:2856   */\n          0x20\n            /* \"#utility.yul\":2843:2852   */\n          dup3\n            /* \"#utility.yul\":2839:2857   */\n          add\n            /* \"#utility.yul\":2831:2857   */\n          swap1\n          pop\n            /* \"#utility.yul\":2867:2932   */\n          tag_90\n            /* \"#utility.yul\":2929:2930   */\n          0x00\n            /* \"#utility.yul\":2918:2927   */\n          dup4\n            /* \"#utility.yul\":2914:2931   */\n          add\n            /* \"#utility.yul\":2905:2911   */\n          dup5\n            /* \"#utility.yul\":2867:2932   */\n          tag_48\n          jump\t// in\n        tag_90:\n            /* \"#utility.yul\":2729:2939   */\n          swap3\n          swap2\n          pop\n          pop\n          jump\t// out\n            /* \"#utility.yul\":2945:3059   */\n        tag_49:\n            /* \"#utility.yul\":3012:3018   */\n          0x00\n            /* \"#utility.yul\":3046:3051   */\n          dup2\n            /* \"#utility.yul\":3040:3052   */\n          mload\n            /* \"#utility.yul\":3030:3052   */\n          swap1\n          pop\n            /* \"#utility.yul\":2945:3059   */\n          swap2\n          swap1\n          pop\n          jump\t// out\n            /* \"#utility.yul\":3065:3249   */\n        tag_50:\n            /* \"#utility.yul\":3164:3175   */\n          0x00\n            /* \"#utility.yul\":3198:3204   */\n          dup3\n            /* \"#utility.yul\":3193:3196   */\n          dup3\n            /* \"#utility.yul\":3186:3205   */\n          mstore\n            /* \"#utility.yul\":3238:3242   */\n          0x20\n            /* \"#utility.yul\":3233:3236   */\n          dup3\n            /* \"#utility.yul\":3229:3243   */\n          add\n            /* \"#utility.yul\":3214:3243   */\n          swap1\n          pop\n            /* \"#utility.yul\":3065:3249   */\n          swap3\n          swap2\n          pop\n          pop\n          jump\t// out\n            /* \"#utility.yul\":3255:3387   */\n        tag_51:\n            /* \"#utility.yul\":3322:3326   */\n          0x00\n            /* \"#utility.yul\":3345:3348   */\n          dup2\n            /* \"#utility.yul\":3337:3348   */\n          swap1\n          pop\n            /* \"#utility.yul\":3375:3379   */\n          0x20\n            /* \"#utility.yul\":3370:3373   */\n          dup3\n            /* \"#utility.yul\":3366:3380   */\n          add\n            /* \"#utility.yul\":3358:3380   */\n          swap1\n          pop\n            /* \"#utility.yul\":3255:3387   */\n          swap2\n          swap1\n          pop\n          jump\t// out\n            /* \"#utility.yul\":3393:3501   */\n        tag_52:\n            /* \"#utility.yul\":3470:3494   */\n          tag_95\n            /* \"#utility.yul\":3488:3493   */\n          dup2\n            /* \"#utility.yul\":3470:3494   */\n          tag_39\n          jump\t// in\n        tag_95:\n            /* \"#utility.yul\":3465:3468   */\n          dup3\n            /* \"#utility.yul\":3458:3495   */\n          mstore\n            /* \"#utility.yul\":3393:3501   */\n          pop\n          pop\n          jump\t// out\n            /* \"#utility.yul\":3507:3686   */\n        tag_53:\n            /* \"#utility.yul\":3576:3586   */\n          0x00\n            /* \"#utility.yul\":3597:3643   */\n          tag_97\n            /* \"#utility.yul\":3639:3642   */\n          dup4\n            /* \"#utility.yul\":3631:3637   */\n          dup4\n            /* \"#utility.yul\":3597:3643   */\n          tag_52\n          jump\t// in\n        tag_97:\n            /* \"#utility.yul\":3675:3679   */\n          0x20\n            /* \"#utility.yul\":3670:3673   */\n          dup4\n            /* \"#utility.yul\":3666:3680   */\n          add\n            /* \"#utility.yul\":3652:3680   */\n          swap1\n          pop\n            /* \"#utility.yul\":3507:3686   */\n          swap3\n          swap2\n          pop\n          pop\n          jump\t// out\n            /* \"#utility.yul\":3692:3805   */\n        tag_54:\n            /* \"#utility.yul\":3762:3766   */\n          0x00\n            /* \"#utility.yul\":3794:3798   */\n          0x20\n            /* \"#utility.yul\":3789:3792   */\n          dup3\n            /* \"#utility.yul\":3785:3799   */\n          add\n            /* \"#utility.yul\":3777:3799   */\n          swap1\n          pop\n            /* \"#utility.yul\":3692:3805   */\n          swap2\n          swap1\n          pop\n          jump\t// out\n            /* \"#utility.yul\":3841:4573   */\n        tag_55:\n            /* \"#utility.yul\":3960:3963   */\n          0x00\n            /* \"#utility.yul\":3989:4043   */\n          tag_100\n            /* \"#utility.yul\":4037:4042   */\n          dup3\n            /* \"#utility.yul\":3989:4043   */\n          tag_49\n          jump\t// in\n        tag_100:\n            /* \"#utility.yul\":4059:4145   */\n          tag_101\n            /* \"#utility.yul\":4138:4144   */\n          dup2\n            /* \"#utility.yul\":4133:4136   */\n          dup6\n            /* \"#utility.yul\":4059:4145   */\n          tag_50\n          jump\t// in\n        tag_101:\n            /* \"#utility.yul\":4052:4145   */\n          swap4\n          pop\n            /* \"#utility.yul\":4169:4225   */\n          tag_102\n            /* \"#utility.yul\":4219:4224   */\n          dup4\n            /* \"#utility.yul\":4169:4225   */\n          tag_51\n          jump\t// in\n        tag_102:\n            /* \"#utility.yul\":4248:4255   */\n          dup1\n            /* \"#utility.yul\":4279:4280   */\n          0x00\n            /* \"#utility.yul\":4264:4548   */\n        tag_103:\n            /* \"#utility.yul\":4289:4295   */\n          dup4\n            /* \"#utility.yul\":4286:4287   */\n          dup2\n            /* \"#utility.yul\":4283:4296   */\n          lt\n            /* \"#utility.yul\":4264:4548   */\n          iszero\n          tag_105\n          jumpi\n            /* \"#utility.yul\":4365:4371   */\n          dup2\n            /* \"#utility.yul\":4359:4372   */\n          mload\n            /* \"#utility.yul\":4392:4455   */\n          tag_106\n            /* \"#utility.yul\":4451:4454   */\n          dup9\n            /* \"#utility.yul\":4436:4449   */\n          dup3\n            /* \"#utility.yul\":4392:4455   */\n          tag_53\n          jump\t// in\n        tag_106:\n            /* \"#utility.yul\":4385:4455   */\n          swap8\n          pop\n            /* \"#utility.yul\":4478:4538   */\n          tag_107\n            /* \"#utility.yul\":4531:4537   */\n          dup4\n            /* \"#utility.yul\":4478:4538   */\n          tag_54\n          jump\t// in\n        tag_107:\n            /* \"#utility.yul\":4468:4538   */\n          swap3\n          pop\n            /* \"#utility.yul\":4324:4548   */\n          pop\n            /* \"#utility.yul\":4311:4312   */\n          0x01\n            /* \"#utility.yul\":4308:4309   */\n          dup2\n            /* \"#utility.yul\":4304:4313   */\n          add\n            /* \"#utility.yul\":4299:4313   */\n          swap1\n          pop\n            /* \"#utility.yul\":4264:4548   */\n          jump(tag_103)\n        tag_105:\n            /* \"#utility.yul\":4268:4282   */\n          pop\n            /* \"#utility.yul\":4564:4567   */\n          dup6\n            /* \"#utility.yul\":4557:4567   */\n          swap4\n          pop\n            /* \"#utility.yul\":3965:4573   */\n          pop\n          pop\n          pop\n            /* \"#utility.yul\":3841:4573   */\n          swap3\n          swap2\n          pop\n          pop\n          jump\t// out\n            /* \"#utility.yul\":4579:4952   */\n        tag_20:\n            /* \"#utility.yul\":4722:4726   */\n          0x00\n            /* \"#utility.yul\":4760:4762   */\n          0x20\n            /* \"#utility.yul\":4749:4758   */\n          dup3\n            /* \"#utility.yul\":4745:4763   */\n          add\n            /* \"#utility.yul\":4737:4763   */\n          swap1\n          pop\n            /* \"#utility.yul\":4809:4818   */\n          dup2\n            /* \"#utility.yul\":4803:4807   */\n          dup2\n            /* \"#utility.yul\":4799:4819   */\n          sub\n            /* \"#utility.yul\":4795:4796   */\n          0x00\n            /* \"#utility.yul\":4784:4793   */\n          dup4\n            /* \"#utility.yul\":4780:4797   */\n          add\n            /* \"#utility.yul\":4773:4820   */\n          mstore\n            /* \"#utility.yul\":4837:4945   */\n          tag_109\n            /* \"#utility.yul\":4940:4944   */\n          dup2\n            /* \"#utility.yul\":4931:4937   */\n          dup5\n            /* \"#utility.yul\":4837:4945   */\n          tag_55\n          jump\t// in\n        tag_109:\n            /* \"#utility.yul\":4829:4945   */\n          swap1\n          pop\n            /* \"#utility.yul\":4579:4952   */\n          swap3\n          swap2\n          pop\n          pop\n          jump\t// out\n\n        auxdata: 0xa264697066735822122091504de4159983cb5fbaeb39783b7026cecabd3e82bdeec9549c9ac0166b69d564736f6c63430008110033\n    }\n}\n\nsub_4: assembly {\n        /* \"ElectronicMedicalRecords.sol\":6434:6935  contract DoctorRelation {... */\n      mstore(0x40, 0x80)\n        /* \"ElectronicMedicalRecords.sol\":6595:6656  constructor(address _admin) {... */\n      callvalue\n      dup1\n      iszero\n      tag_1\n      jumpi\n      0x00\n      dup1\n      revert\n    tag_1:\n      pop\n      mload(0x40)\n      sub(codesize, bytecodeSize)\n      dup1\n      bytecodeSize\n      dup4\n      codecopy\n      dup2\n      dup2\n      add\n      0x40\n      mstore\n      dup2\n      add\n      swap1\n      tag_2\n      swap2\n      swap1\n      tag_3\n      jump\t// in\n    tag_2:\n        /* \"ElectronicMedicalRecords.sol\":6642:6648  _admin */\n      dup1\n        /* \"ElectronicMedicalRecords.sol\":6634:6639  admin */\n      0x00\n      dup1\n        /* \"ElectronicMedicalRecords.sol\":6634:6648  admin = _admin */\n      0x0100\n      exp\n      dup2\n      sload\n      dup2\n      0xffffffffffffffffffffffffffffffffffffffff\n      mul\n      not\n      and\n      swap1\n      dup4\n      0xffffffffffffffffffffffffffffffffffffffff\n      and\n      mul\n      or\n      swap1\n      sstore\n      pop\n        /* \"ElectronicMedicalRecords.sol\":6595:6656  constructor(address _admin) {... */\n      pop\n        /* \"ElectronicMedicalRecords.sol\":6434:6935  contract DoctorRelation {... */\n      jump(tag_6)\n        /* \"#utility.yul\":88:205   */\n    tag_8:\n        /* \"#utility.yul\":197:198   */\n      0x00\n        /* \"#utility.yul\":194:195   */\n      dup1\n        /* \"#utility.yul\":187:199   */\n      revert\n        /* \"#utility.yul\":334:460   */\n    tag_10:\n        /* \"#utility.yul\":371:378   */\n      0x00\n        /* \"#utility.yul\":411:453   */\n      0xffffffffffffffffffffffffffffffffffffffff\n        /* \"#utility.yul\":404:409   */\n      dup3\n        /* \"#utility.yul\":400:454   */\n      and\n        /* \"#utility.yul\":389:454   */\n      swap1\n      pop\n        /* \"#utility.yul\":334:460   */\n      swap2\n      swap1\n      pop\n      jump\t// out\n        /* \"#utility.yul\":466:562   */\n    tag_11:\n        /* \"#utility.yul\":503:510   */\n      0x00\n        /* \"#utility.yul\":532:556   */\n      tag_20\n        /* \"#utility.yul\":550:555   */\n      dup3\n        /* \"#utility.yul\":532:556   */\n      tag_10\n      jump\t// in\n    tag_20:\n        /* \"#utility.yul\":521:556   */\n      swap1\n      pop\n        /* \"#utility.yul\":466:562   */\n      swap2\n      swap1\n      pop\n      jump\t// out\n        /* \"#utility.yul\":568:690   */\n    tag_12:\n        /* \"#utility.yul\":641:665   */\n      tag_22\n        /* \"#utility.yul\":659:664   */\n      dup2\n        /* \"#utility.yul\":641:665   */\n      tag_11\n      jump\t// in\n    tag_22:\n        /* \"#utility.yul\":634:639   */\n      dup2\n        /* \"#utility.yul\":631:666   */\n      eq\n        /* \"#utility.yul\":621:684   */\n      tag_23\n      jumpi\n        /* \"#utility.yul\":680:681   */\n      0x00\n        /* \"#utility.yul\":677:678   */\n      dup1\n        /* \"#utility.yul\":670:682   */\n      revert\n        /* \"#utility.yul\":621:684   */\n    tag_23:\n        /* \"#utility.yul\":568:690   */\n      pop\n      jump\t// out\n        /* \"#utility.yul\":696:839   */\n    tag_13:\n        /* \"#utility.yul\":753:758   */\n      0x00\n        /* \"#utility.yul\":784:790   */\n      dup2\n        /* \"#utility.yul\":778:791   */\n      mload\n        /* \"#utility.yul\":769:791   */\n      swap1\n      pop\n        /* \"#utility.yul\":800:833   */\n      tag_25\n        /* \"#utility.yul\":827:832   */\n      dup2\n        /* \"#utility.yul\":800:833   */\n      tag_12\n      jump\t// in\n    tag_25:\n        /* \"#utility.yul\":696:839   */\n      swap3\n      swap2\n      pop\n      pop\n      jump\t// out\n        /* \"#utility.yul\":845:1196   */\n    tag_3:\n        /* \"#utility.yul\":915:921   */\n      0x00\n        /* \"#utility.yul\":964:966   */\n      0x20\n        /* \"#utility.yul\":952:961   */\n      dup3\n        /* \"#utility.yul\":943:950   */\n      dup5\n        /* \"#utility.yul\":939:962   */\n      sub\n        /* \"#utility.yul\":935:967   */\n      slt\n        /* \"#utility.yul\":932:1051   */\n      iszero\n      tag_27\n      jumpi\n        /* \"#utility.yul\":970:1049   */\n      tag_28\n      tag_8\n      jump\t// in\n    tag_28:\n        /* \"#utility.yul\":932:1051   */\n    tag_27:\n        /* \"#utility.yul\":1090:1091   */\n      0x00\n        /* \"#utility.yul\":1115:1179   */\n      tag_29\n        /* \"#utility.yul\":1171:1178   */\n      dup5\n        /* \"#utility.yul\":1162:1168   */\n      dup3\n        /* \"#utility.yul\":1151:1160   */\n      dup6\n        /* \"#utility.yul\":1147:1169   */\n      add\n        /* \"#utility.yul\":1115:1179   */\n      tag_13\n      jump\t// in\n    tag_29:\n        /* \"#utility.yul\":1105:1179   */\n      swap2\n      pop\n        /* \"#utility.yul\":1061:1189   */\n      pop\n        /* \"#utility.yul\":845:1196   */\n      swap3\n      swap2\n      pop\n      pop\n      jump\t// out\n        /* \"ElectronicMedicalRecords.sol\":6434:6935  contract DoctorRelation {... */\n    tag_6:\n      dataSize(sub_0)\n      dup1\n      dataOffset(sub_0)\n      0x00\n      codecopy\n      0x00\n      return\n    stop\n\n    sub_0: assembly {\n            /* \"ElectronicMedicalRecords.sol\":6434:6935  contract DoctorRelation {... */\n          mstore(0x40, 0x80)\n          callvalue\n          dup1\n          iszero\n          tag_1\n          jumpi\n          0x00\n          dup1\n          revert\n        tag_1:\n          pop\n          jumpi(tag_2, lt(calldatasize, 0x04))\n          shr(0xe0, calldataload(0x00))\n          dup1\n          0x8bfc8c71\n          eq\n          tag_3\n          jumpi\n          dup1\n          0xf40941d0\n          eq\n          tag_4\n          jumpi\n        tag_2:\n          0x00\n          dup1\n          revert\n            /* \"ElectronicMedicalRecords.sol\":6664:6789  function addDoctorRelation(address _doctor, address _patient) public {... */\n        tag_3:\n          tag_5\n          0x04\n          dup1\n          calldatasize\n          sub\n          dup2\n          add\n          swap1\n          tag_6\n          swap2\n          swap1\n          tag_7\n          jump\t// in\n        tag_6:\n          tag_8\n          jump\t// in\n        tag_5:\n          stop\n            /* \"ElectronicMedicalRecords.sol\":6797:6928  function getDoctorRelations(address _doctor) public view returns(address[] memory) {... */\n        tag_4:\n          tag_9\n          0x04\n          dup1\n          calldatasize\n          sub\n          dup2\n          add\n          swap1\n          tag_10\n          swap2\n          swap1\n          tag_11\n          jump\t// in\n        tag_10:\n          tag_12\n          jump\t// in\n        tag_9:\n          mload(0x40)\n          tag_13\n          swap2\n          swap1\n          tag_14\n          jump\t// in\n        tag_13:\n          mload(0x40)\n          dup1\n          swap2\n          sub\n          swap1\n          return\n            /* \"ElectronicMedicalRecords.sol\":6664:6789  function addDoctorRelation(address _doctor, address _patient) public {... */\n        tag_8:\n            /* \"ElectronicMedicalRecords.sol\":6744:6757  relatedPatien */\n          0x02\n            /* \"ElectronicMedicalRecords.sol\":6744:6766  relatedPatien[_doctor] */\n          0x00\n            /* \"ElectronicMedicalRecords.sol\":6758:6765  _doctor */\n          dup4\n            /* \"ElectronicMedicalRecords.sol\":6744:6766  relatedPatien[_doctor] */\n          0xffffffffffffffffffffffffffffffffffffffff\n          and\n          0xffffffffffffffffffffffffffffffffffffffff\n          and\n          dup2\n          mstore\n          0x20\n          add\n          swap1\n          dup2\n          mstore\n          0x20\n          add\n          0x00\n          keccak256\n            /* \"ElectronicMedicalRecords.sol\":6772:6780  _patient */\n          dup2\n            /* \"ElectronicMedicalRecords.sol\":6744:6781  relatedPatien[_doctor].push(_patient) */\n          swap1\n          dup1\n          0x01\n          dup2\n          sload\n          add\n          dup1\n          dup3\n          sstore\n          dup1\n          swap2\n          pop\n          pop\n          0x01\n          swap1\n          sub\n          swap1\n          0x00\n          mstore\n          keccak256(0x00, 0x20)\n          add\n          0x00\n          swap1\n          swap2\n          swap1\n          swap2\n          swap1\n          swap2\n          0x0100\n          exp\n          dup2\n          sload\n          dup2\n          0xffffffffffffffffffffffffffffffffffffffff\n          mul\n          not\n          and\n          swap1\n          dup4\n          0xffffffffffffffffffffffffffffffffffffffff\n          and\n          mul\n          or\n          swap1\n          sstore\n          pop\n            /* \"ElectronicMedicalRecords.sol\":6664:6789  function addDoctorRelation(address _doctor, address _patient) public {... */\n          pop\n          pop\n          jump\t// out\n            /* \"ElectronicMedicalRecords.sol\":6797:6928  function getDoctorRelations(address _doctor) public view returns(address[] memory) {... */\n        tag_12:\n            /* \"ElectronicMedicalRecords.sol\":6862:6878  address[] memory */\n          0x60\n            /* \"ElectronicMedicalRecords.sol\":6898:6911  relatedPatien */\n          0x02\n            /* \"ElectronicMedicalRecords.sol\":6898:6920  relatedPatien[_doctor] */\n          0x00\n            /* \"ElectronicMedicalRecords.sol\":6912:6919  _doctor */\n          dup4\n            /* \"ElectronicMedicalRecords.sol\":6898:6920  relatedPatien[_doctor] */\n          0xffffffffffffffffffffffffffffffffffffffff\n          and\n          0xffffffffffffffffffffffffffffffffffffffff\n          and\n          dup2\n          mstore\n          0x20\n          add\n          swap1\n          dup2\n          mstore\n          0x20\n          add\n          0x00\n          keccak256\n            /* \"ElectronicMedicalRecords.sol\":6891:6920  return relatedPatien[_doctor] */\n          dup1\n          sload\n          dup1\n          0x20\n          mul\n          0x20\n          add\n          mload(0x40)\n          swap1\n          dup2\n          add\n          0x40\n          mstore\n          dup1\n          swap3\n          swap2\n          swap1\n          dup2\n          dup2\n          mstore\n          0x20\n          add\n          dup3\n          dup1\n          sload\n          dup1\n          iszero\n          tag_18\n          jumpi\n          0x20\n          mul\n          dup3\n          add\n          swap2\n          swap1\n          0x00\n          mstore\n          keccak256(0x00, 0x20)\n          swap1\n        tag_19:\n          dup2\n          0x00\n          swap1\n          sload\n          swap1\n          0x0100\n          exp\n          swap1\n          div\n          0xffffffffffffffffffffffffffffffffffffffff\n          and\n          0xffffffffffffffffffffffffffffffffffffffff\n          and\n          dup2\n          mstore\n          0x20\n          add\n          swap1\n          0x01\n          add\n          swap1\n          dup1\n          dup4\n          gt\n          tag_19\n          jumpi\n        tag_18:\n          pop\n          pop\n          pop\n          pop\n          pop\n          swap1\n          pop\n            /* \"ElectronicMedicalRecords.sol\":6797:6928  function getDoctorRelations(address _doctor) public view returns(address[] memory) {... */\n          swap2\n          swap1\n          pop\n          jump\t// out\n            /* \"#utility.yul\":88:205   */\n        tag_21:\n            /* \"#utility.yul\":197:198   */\n          0x00\n            /* \"#utility.yul\":194:195   */\n          dup1\n            /* \"#utility.yul\":187:199   */\n          revert\n            /* \"#utility.yul\":334:460   */\n        tag_23:\n            /* \"#utility.yul\":371:378   */\n          0x00\n            /* \"#utility.yul\":411:453   */\n          0xffffffffffffffffffffffffffffffffffffffff\n            /* \"#utility.yul\":404:409   */\n          dup3\n            /* \"#utility.yul\":400:454   */\n          and\n            /* \"#utility.yul\":389:454   */\n          swap1\n          pop\n            /* \"#utility.yul\":334:460   */\n          swap2\n          swap1\n          pop\n          jump\t// out\n            /* \"#utility.yul\":466:562   */\n        tag_24:\n            /* \"#utility.yul\":503:510   */\n          0x00\n            /* \"#utility.yul\":532:556   */\n          tag_40\n            /* \"#utility.yul\":550:555   */\n          dup3\n            /* \"#utility.yul\":532:556   */\n          tag_23\n          jump\t// in\n        tag_40:\n            /* \"#utility.yul\":521:556   */\n          swap1\n          pop\n            /* \"#utility.yul\":466:562   */\n          swap2\n          swap1\n          pop\n          jump\t// out\n            /* \"#utility.yul\":568:690   */\n        tag_25:\n            /* \"#utility.yul\":641:665   */\n          tag_42\n            /* \"#utility.yul\":659:664   */\n          dup2\n            /* \"#utility.yul\":641:665   */\n          tag_24\n          jump\t// in\n        tag_42:\n            /* \"#utility.yul\":634:639   */\n          dup2\n            /* \"#utility.yul\":631:666   */\n          eq\n            /* \"#utility.yul\":621:684   */\n          tag_43\n          jumpi\n            /* \"#utility.yul\":680:681   */\n          0x00\n            /* \"#utility.yul\":677:678   */\n          dup1\n            /* \"#utility.yul\":670:682   */\n          revert\n            /* \"#utility.yul\":621:684   */\n        tag_43:\n            /* \"#utility.yul\":568:690   */\n          pop\n          jump\t// out\n            /* \"#utility.yul\":696:835   */\n        tag_26:\n            /* \"#utility.yul\":742:747   */\n          0x00\n            /* \"#utility.yul\":780:786   */\n          dup2\n            /* \"#utility.yul\":767:787   */\n          calldataload\n            /* \"#utility.yul\":758:787   */\n          swap1\n          pop\n            /* \"#utility.yul\":796:829   */\n          tag_45\n            /* \"#utility.yul\":823:828   */\n          dup2\n            /* \"#utility.yul\":796:829   */\n          tag_25\n          jump\t// in\n        tag_45:\n            /* \"#utility.yul\":696:835   */\n          swap3\n          swap2\n          pop\n          pop\n          jump\t// out\n            /* \"#utility.yul\":841:1315   */\n        tag_7:\n            /* \"#utility.yul\":909:915   */\n          0x00\n            /* \"#utility.yul\":917:923   */\n          dup1\n            /* \"#utility.yul\":966:968   */\n          0x40\n            /* \"#utility.yul\":954:963   */\n          dup4\n            /* \"#utility.yul\":945:952   */\n          dup6\n            /* \"#utility.yul\":941:964   */\n          sub\n            /* \"#utility.yul\":937:969   */\n          slt\n            /* \"#utility.yul\":934:1053   */\n          iszero\n          tag_47\n          jumpi\n            /* \"#utility.yul\":972:1051   */\n          tag_48\n          tag_21\n          jump\t// in\n        tag_48:\n            /* \"#utility.yul\":934:1053   */\n        tag_47:\n            /* \"#utility.yul\":1092:1093   */\n          0x00\n            /* \"#utility.yul\":1117:1170   */\n          tag_49\n            /* \"#utility.yul\":1162:1169   */\n          dup6\n            /* \"#utility.yul\":1153:1159   */\n          dup3\n            /* \"#utility.yul\":1142:1151   */\n          dup7\n            /* \"#utility.yul\":1138:1160   */\n          add\n            /* \"#utility.yul\":1117:1170   */\n          tag_26\n          jump\t// in\n        tag_49:\n            /* \"#utility.yul\":1107:1170   */\n          swap3\n          pop\n            /* \"#utility.yul\":1063:1180   */\n          pop\n            /* \"#utility.yul\":1219:1221   */\n          0x20\n            /* \"#utility.yul\":1245:1298   */\n          tag_50\n            /* \"#utility.yul\":1290:1297   */\n          dup6\n            /* \"#utility.yul\":1281:1287   */\n          dup3\n            /* \"#utility.yul\":1270:1279   */\n          dup7\n            /* \"#utility.yul\":1266:1288   */\n          add\n            /* \"#utility.yul\":1245:1298   */\n          tag_26\n          jump\t// in\n        tag_50:\n            /* \"#utility.yul\":1235:1298   */\n          swap2\n          pop\n            /* \"#utility.yul\":1190:1308   */\n          pop\n            /* \"#utility.yul\":841:1315   */\n          swap3\n          pop\n          swap3\n          swap1\n          pop\n          jump\t// out\n            /* \"#utility.yul\":1321:1650   */\n        tag_11:\n            /* \"#utility.yul\":1380:1386   */\n          0x00\n            /* \"#utility.yul\":1429:1431   */\n          0x20\n            /* \"#utility.yul\":1417:1426   */\n          dup3\n            /* \"#utility.yul\":1408:1415   */\n          dup5\n            /* \"#utility.yul\":1404:1427   */\n          sub\n            /* \"#utility.yul\":1400:1432   */\n          slt\n            /* \"#utility.yul\":1397:1516   */\n          iszero\n          tag_52\n          jumpi\n            /* \"#utility.yul\":1435:1514   */\n          tag_53\n          tag_21\n          jump\t// in\n        tag_53:\n            /* \"#utility.yul\":1397:1516   */\n        tag_52:\n            /* \"#utility.yul\":1555:1556   */\n          0x00\n            /* \"#utility.yul\":1580:1633   */\n          tag_54\n            /* \"#utility.yul\":1625:1632   */\n          dup5\n            /* \"#utility.yul\":1616:1622   */\n          dup3\n            /* \"#utility.yul\":1605:1614   */\n          dup6\n            /* \"#utility.yul\":1601:1623   */\n          add\n            /* \"#utility.yul\":1580:1633   */\n          tag_26\n          jump\t// in\n        tag_54:\n            /* \"#utility.yul\":1570:1633   */\n          swap2\n          pop\n            /* \"#utility.yul\":1526:1643   */\n          pop\n            /* \"#utility.yul\":1321:1650   */\n          swap3\n          swap2\n          pop\n          pop\n          jump\t// out\n            /* \"#utility.yul\":1656:1770   */\n        tag_27:\n            /* \"#utility.yul\":1723:1729   */\n          0x00\n            /* \"#utility.yul\":1757:1762   */\n          dup2\n            /* \"#utility.yul\":1751:1763   */\n          mload\n            /* \"#utility.yul\":1741:1763   */\n          swap1\n          pop\n            /* \"#utility.yul\":1656:1770   */\n          swap2\n          swap1\n          pop\n          jump\t// out\n            /* \"#utility.yul\":1776:1960   */\n        tag_28:\n            /* \"#utility.yul\":1875:1886   */\n          0x00\n            /* \"#utility.yul\":1909:1915   */\n          dup3\n            /* \"#utility.yul\":1904:1907   */\n          dup3\n            /* \"#utility.yul\":1897:1916   */\n          mstore\n            /* \"#utility.yul\":1949:1953   */\n          0x20\n            /* \"#utility.yul\":1944:1947   */\n          dup3\n            /* \"#utility.yul\":1940:1954   */\n          add\n            /* \"#utility.yul\":1925:1954   */\n          swap1\n          pop\n            /* \"#utility.yul\":1776:1960   */\n          swap3\n          swap2\n          pop\n          pop\n          jump\t// out\n            /* \"#utility.yul\":1966:2098   */\n        tag_29:\n            /* \"#utility.yul\":2033:2037   */\n          0x00\n            /* \"#utility.yul\":2056:2059   */\n          dup2\n            /* \"#utility.yul\":2048:2059   */\n          swap1\n          pop\n            /* \"#utility.yul\":2086:2090   */\n          0x20\n            /* \"#utility.yul\":2081:2084   */\n          dup3\n            /* \"#utility.yul\":2077:2091   */\n          add\n            /* \"#utility.yul\":2069:2091   */\n          swap1\n          pop\n            /* \"#utility.yul\":1966:2098   */\n          swap2\n          swap1\n          pop\n          jump\t// out\n            /* \"#utility.yul\":2104:2212   */\n        tag_30:\n            /* \"#utility.yul\":2181:2205   */\n          tag_59\n            /* \"#utility.yul\":2199:2204   */\n          dup2\n            /* \"#utility.yul\":2181:2205   */\n          tag_24\n          jump\t// in\n        tag_59:\n            /* \"#utility.yul\":2176:2179   */\n          dup3\n            /* \"#utility.yul\":2169:2206   */\n          mstore\n            /* \"#utility.yul\":2104:2212   */\n          pop\n          pop\n          jump\t// out\n            /* \"#utility.yul\":2218:2397   */\n        tag_31:\n            /* \"#utility.yul\":2287:2297   */\n          0x00\n            /* \"#utility.yul\":2308:2354   */\n          tag_61\n            /* \"#utility.yul\":2350:2353   */\n          dup4\n            /* \"#utility.yul\":2342:2348   */\n          dup4\n            /* \"#utility.yul\":2308:2354   */\n          tag_30\n          jump\t// in\n        tag_61:\n            /* \"#utility.yul\":2386:2390   */\n          0x20\n            /* \"#utility.yul\":2381:2384   */\n          dup4\n            /* \"#utility.yul\":2377:2391   */\n          add\n            /* \"#utility.yul\":2363:2391   */\n          swap1\n          pop\n            /* \"#utility.yul\":2218:2397   */\n          swap3\n          swap2\n          pop\n          pop\n          jump\t// out\n            /* \"#utility.yul\":2403:2516   */\n        tag_32:\n            /* \"#utility.yul\":2473:2477   */\n          0x00\n            /* \"#utility.yul\":2505:2509   */\n          0x20\n            /* \"#utility.yul\":2500:2503   */\n          dup3\n            /* \"#utility.yul\":2496:2510   */\n          add\n            /* \"#utility.yul\":2488:2510   */\n          swap1\n          pop\n            /* \"#utility.yul\":2403:2516   */\n          swap2\n          swap1\n          pop\n          jump\t// out\n            /* \"#utility.yul\":2552:3284   */\n        tag_33:\n            /* \"#utility.yul\":2671:2674   */\n          0x00\n            /* \"#utility.yul\":2700:2754   */\n          tag_64\n            /* \"#utility.yul\":2748:2753   */\n          dup3\n            /* \"#utility.yul\":2700:2754   */\n          tag_27\n          jump\t// in\n        tag_64:\n            /* \"#utility.yul\":2770:2856   */\n          tag_65\n            /* \"#utility.yul\":2849:2855   */\n          dup2\n            /* \"#utility.yul\":2844:2847   */\n          dup6\n            /* \"#utility.yul\":2770:2856   */\n          tag_28\n          jump\t// in\n        tag_65:\n            /* \"#utility.yul\":2763:2856   */\n          swap4\n          pop\n            /* \"#utility.yul\":2880:2936   */\n          tag_66\n            /* \"#utility.yul\":2930:2935   */\n          dup4\n            /* \"#utility.yul\":2880:2936   */\n          tag_29\n          jump\t// in\n        tag_66:\n            /* \"#utility.yul\":2959:2966   */\n          dup1\n            /* \"#utility.yul\":2990:2991   */\n          0x00\n            /* \"#utility.yul\":2975:3259   */\n        tag_67:\n            /* \"#utility.yul\":3000:3006   */\n          dup4\n            /* \"#utility.yul\":2997:2998   */\n          dup2\n            /* \"#utility.yul\":2994:3007   */\n          lt\n            /* \"#utility.yul\":2975:3259   */\n          iszero\n          tag_69\n          jumpi\n            /* \"#utility.yul\":3076:3082   */\n          dup2\n            /* \"#utility.yul\":3070:3083   */\n          mload\n            /* \"#utility.yul\":3103:3166   */\n          tag_70\n            /* \"#utility.yul\":3162:3165   */\n          dup9\n            /* \"#utility.yul\":3147:3160   */\n          dup3\n            /* \"#utility.yul\":3103:3166   */\n          tag_31\n          jump\t// in\n        tag_70:\n            /* \"#utility.yul\":3096:3166   */\n          swap8\n          pop\n            /* \"#utility.yul\":3189:3249   */\n          tag_71\n            /* \"#utility.yul\":3242:3248   */\n          dup4\n            /* \"#utility.yul\":3189:3249   */\n          tag_32\n          jump\t// in\n        tag_71:\n            /* \"#utility.yul\":3179:3249   */\n          swap3\n          pop\n            /* \"#utility.yul\":3035:3259   */\n          pop\n            /* \"#utility.yul\":3022:3023   */\n          0x01\n            /* \"#utility.yul\":3019:3020   */\n          dup2\n            /* \"#utility.yul\":3015:3024   */\n          add\n            /* \"#utility.yul\":3010:3024   */\n          swap1\n          pop\n            /* \"#utility.yul\":2975:3259   */\n          jump(tag_67)\n        tag_69:\n            /* \"#utility.yul\":2979:2993   */\n          pop\n            /* \"#utility.yul\":3275:3278   */\n          dup6\n            /* \"#utility.yul\":3268:3278   */\n          swap4\n          pop\n            /* \"#utility.yul\":2676:3284   */\n          pop\n          pop\n          pop\n            /* \"#utility.yul\":2552:3284   */\n          swap3\n          swap2\n          pop\n          pop\n          jump\t// out\n            /* \"#utility.yul\":3290:3663   */\n        tag_14:\n            /* \"#utility.yul\":3433:3437   */\n          0x00\n            /* \"#utility.yul\":3471:3473   */\n          0x20\n            /* \"#utility.yul\":3460:3469   */\n          dup3\n            /* \"#utility.yul\":3456:3474   */\n          add\n            /* \"#utility.yul\":3448:3474   */\n          swap1\n          pop\n            /* \"#utility.yul\":3520:3529   */\n          dup2\n            /* \"#utility.yul\":3514:3518   */\n          dup2\n            /* \"#utility.yul\":3510:3530   */\n          sub\n            /* \"#utility.yul\":3506:3507   */\n          0x00\n            /* \"#utility.yul\":3495:3504   */\n          dup4\n            /* \"#utility.yul\":3491:3508   */\n          add\n            /* \"#utility.yul\":3484:3531   */\n          mstore\n            /* \"#utility.yul\":3548:3656   */\n          tag_73\n            /* \"#utility.yul\":3651:3655   */\n          dup2\n            /* \"#utility.yul\":3642:3648   */\n          dup5\n            /* \"#utility.yul\":3548:3656   */\n          tag_33\n          jump\t// in\n        tag_73:\n            /* \"#utility.yul\":3540:3656   */\n          swap1\n          pop\n            /* \"#utility.yul\":3290:3663   */\n          swap3\n          swap2\n          pop\n          pop\n          jump\t// out\n\n        auxdata: 0xa264697066735822122053e79a7e35e4e12f45c9d9922be2bfcaa123720b9d4851a8fea0bc068089c59c64736f6c63430008110033\n    }\n}\n","bytecode":{"linkReferences":{},"object":"60806040523480156200001157600080fd5b5033600160006101000a81548173ffffffffffffffffffffffffffffffffffffffff021916908373ffffffffffffffffffffffffffffffffffffffff160217905550600033604051620000649062000571565b620000709190620005ee565b604051809103906000f0801580156200008d573d6000803e3d6000fd5b5090506000604051620000a09062000666565b908152602001604051809103902060405180604001604052806040518060400160405280600781526020017f70617469656e740000000000000000000000000000000000000000000000000081525081526020018373ffffffffffffffffffffffffffffffffffffffff16815250908060018154018082558091505060019003906000526020600020906002020160009091909190915060008201518160000190816200014e9190620008f7565b5060208201518160010160006101000a81548173ffffffffffffffffffffffffffffffffffffffff021916908373ffffffffffffffffffffffffffffffffffffffff1602179055505050600033604051620001a9906200057f565b620001b59190620005ee565b604051809103906000f080158015620001d2573d6000803e3d6000fd5b5090506000604051620001e59062000666565b908152602001604051809103902060405180604001604052806040518060400160405280601281526020017f70617469656e745665726966696361746f72000000000000000000000000000081525081526020018373ffffffffffffffffffffffffffffffffffffffff1681525090806001815401808255809150506001900390600052602060002090600202016000909190919091506000820151816000019081620002939190620008f7565b5060208201518160010160006101000a81548173ffffffffffffffffffffffffffffffffffffffff021916908373ffffffffffffffffffffffffffffffffffffffff1602179055505050600033604051620002ee906200058d565b620002fa9190620005ee565b604051809103906000f08015801562000317573d6000803e3d6000fd5b50905060006040516200032a9062000666565b908152602001604051809103902060405180604001604052806040518060400160405280601181526020017f646f63746f725665726966696361746f7200000000000000000000000000000081525081526020018373ffffffffffffffffffffffffffffffffffffffff1681525090806001815401808255809150506001900390600052602060002090600202016000909190919091506000820151816000019081620003d89190620008f7565b5060208201518160010160006101000a81548173ffffffffffffffffffffffffffffffffffffffff021916908373ffffffffffffffffffffffffffffffffffffffff160217905550505060003360405162000433906200059b565b6200043f9190620005ee565b604051809103906000f0801580156200045c573d6000803e3d6000fd5b50905060006040516200046f9062000666565b908152602001604051809103902060405180604001604052806040518060400160405280600e81526020017f646f63746f7252656c6174696f6e00000000000000000000000000000000000081525081526020018373ffffffffffffffffffffffffffffffffffffffff16815250908060018154018082558091505060019003906000526020600020906002020160009091909190915060008201518160000190816200051d9190620008f7565b5060208201518160010160006101000a81548173ffffffffffffffffffffffffffffffffffffffff021916908373ffffffffffffffffffffffffffffffffffffffff160217905550505050505050620009de565b61153680620010f383390190565b61073f806200262983390190565b6107978062002d6883390190565b6104f580620034ff83390190565b600073ffffffffffffffffffffffffffffffffffffffff82169050919050565b6000620005d682620005a9565b9050919050565b620005e881620005c9565b82525050565b6000602082019050620006056000830184620005dd565b92915050565b600081905092915050565b7f70616e74656b0000000000000000000000000000000000000000000000000000600082015250565b60006200064e6006836200060b565b91506200065b8262000616565b600682019050919050565b600062000673826200063f565b9150819050919050565b600081519050919050565b7f4e487b7100000000000000000000000000000000000000000000000000000000600052604160045260246000fd5b7f4e487b7100000000000000000000000000000000000000000000000000000000600052602260045260246000fd5b60006002820490506001821680620006ff57607f821691505b602082108103620007155762000714620006b7565b5b50919050565b60008190508160005260206000209050919050565b60006020601f8301049050919050565b600082821b905092915050565b6000600883026200077f7fffffffffffffffffffffffffffffffffffffffffffffffffffffffffffffffff8262000740565b6200078b868362000740565b95508019841693508086168417925050509392505050565b6000819050919050565b6000819050919050565b6000620007d8620007d2620007cc84620007a3565b620007ad565b620007a3565b9050919050565b6000819050919050565b620007f483620007b7565b6200080c6200080382620007df565b8484546200074d565b825550505050565b600090565b6200082362000814565b62000830818484620007e9565b505050565b5b8181101562000858576200084c60008262000819565b60018101905062000836565b5050565b601f821115620008a75762000871816200071b565b6200087c8462000730565b810160208510156200088c578190505b620008a46200089b8562000730565b83018262000835565b50505b505050565b600082821c905092915050565b6000620008cc60001984600802620008ac565b1980831691505092915050565b6000620008e78383620008b9565b9150826002028217905092915050565b62000902826200067d565b67ffffffffffffffff8111156200091e576200091d62000688565b5b6200092a8254620006e6565b620009378282856200085c565b600060209050601f8311600181146200096f57600084156200095a578287015190505b620009668582620008d9565b865550620009d6565b601f1984166200097f866200071b565b60005b82811015620009a95784890151825560018201915060208501945060208101905062000982565b86831015620009c95784890151620009c5601f891682620008b9565b8355505b6001600288020188555050505b505050505050565b61070580620009ee6000396000f3fe608060405234801561001057600080fd5b50600436106100365760003560e01c8063c4fe354c1461003b578063f851a4401461006b575b600080fd5b610055600480360381019061005091906103c8565b610089565b60405161006291906105d0565b60405180910390f35b610073610248565b6040516100809190610601565b60405180910390f35b6060600160009054906101000a900473ffffffffffffffffffffffffffffffffffffffff1673ffffffffffffffffffffffffffffffffffffffff163373ffffffffffffffffffffffffffffffffffffffff16146100e557600080fd5b6000826040516100f59190610658565b9081526020016040518091039020805480602002602001604051908101604052809291908181526020016000905b8282101561023d57838290600052602060002090600202016040518060400160405290816000820180546101569061069e565b80601f01602080910402602001604051908101604052809291908181526020018280546101829061069e565b80156101cf5780601f106101a4576101008083540402835291602001916101cf565b820191906000526020600020905b8154815290600101906020018083116101b257829003601f168201915b505050505081526020016001820160009054906101000a900473ffffffffffffffffffffffffffffffffffffffff1673ffffffffffffffffffffffffffffffffffffffff1673ffffffffffffffffffffffffffffffffffffffff168152505081526020019060010190610123565b505050509050919050565b600160009054906101000a900473ffffffffffffffffffffffffffffffffffffffff1681565b6000604051905090565b600080fd5b600080fd5b600080fd5b600080fd5b6000601f19601f8301169050919050565b7f4e487b7100000000000000000000000000000000000000000000000000000000600052604160045260246000fd5b6102d58261028c565b810181811067ffffffffffffffff821117156102f4576102f361029d565b5b80604052505050565b600061030761026e565b905061031382826102cc565b919050565b600067ffffffffffffffff8211156103335761033261029d565b5b61033c8261028c565b9050602081019050919050565b82818337600083830152505050565b600061036b61036684610318565b6102fd565b90508281526020810184848401111561038757610386610287565b5b610392848285610349565b509392505050565b600082601f8301126103af576103ae610282565b5b81356103bf848260208601610358565b91505092915050565b6000602082840312156103de576103dd610278565b5b600082013567ffffffffffffffff8111156103fc576103fb61027d565b5b6104088482850161039a565b91505092915050565b600081519050919050565b600082825260208201905092915050565b6000819050602082019050919050565b600081519050919050565b600082825260208201905092915050565b60005b8381101561047757808201518184015260208101905061045c565b60008484015250505050565b600061048e8261043d565b6104988185610448565b93506104a8818560208601610459565b6104b18161028c565b840191505092915050565b600073ffffffffffffffffffffffffffffffffffffffff82169050919050565b60006104e7826104bc565b9050919050565b6104f7816104dc565b82525050565b6000604083016000830151848203600086015261051a8282610483565b915050602083015161052f60208601826104ee565b508091505092915050565b600061054683836104fd565b905092915050565b6000602082019050919050565b600061056682610411565b610570818561041c565b9350836020820285016105828561042d565b8060005b858110156105be578484038952815161059f858261053a565b94506105aa8361054e565b925060208a01995050600181019050610586565b50829750879550505050505092915050565b600060208201905081810360008301526105ea818461055b565b905092915050565b6105fb816104dc565b82525050565b600060208201905061061660008301846105f2565b92915050565b600081905092915050565b60006106328261043d565b61063c818561061c565b935061064c818560208601610459565b80840191505092915050565b60006106648284610627565b915081905092915050565b7f4e487b7100000000000000000000000000000000000000000000000000000000600052602260045260246000fd5b600060028204905060018216806106b657607f821691505b6020821081036106c9576106c861066f565b5b5091905056fea264697066735822122001bb287af7a4047b93d3104d4e4dad7eac9a90bf53208cb5badf3cceb9678c8e64736f6c6343000811003360806040523480156200001157600080fd5b5060405162001536380380620015368339818101604052810190620000379190620000e9565b80600160006101000a81548173ffffffffffffffffffffffffffffffffffffffff021916908373ffffffffffffffffffffffffffffffffffffffff160217905550506200011b565b600080fd5b600073ffffffffffffffffffffffffffffffffffffffff82169050919050565b6000620000b18262000084565b9050919050565b620000c381620000a4565b8114620000cf57600080fd5b50565b600081519050620000e381620000b8565b92915050565b6000602082840312156200010257620001016200007f565b5b60006200011284828501620000d2565b91505092915050565b61140b806200012b6000396000f3fe608060405234801561001057600080fd5b50600436106100625760003560e01c80631107747e1461006757806326c01f7d1461008357806348e818521461009f57806352a6042d146100cf5780635db185c7146100eb5780637621df6f14610107575b600080fd5b610081600480360381019061007c9190610b10565b610123565b005b61009d60048036038101906100989190610cb9565b610167565b005b6100b960048036038101906100b49190610b10565b610401565b6040516100c69190610f64565b60405180910390f35b6100e960048036038101906100e49190610cb9565b610917565b005b61010560048036038101906101009190610b10565b6109d9565b005b610121600480360381019061011c9190610b10565b610a1d565b005b80600260006101000a81548173ffffffffffffffffffffffffffffffffffffffff021916908373ffffffffffffffffffffffffffffffffffffffff16021790555050565b600260009054906101000a900473ffffffffffffffffffffffffffffffffffffffff1673ffffffffffffffffffffffffffffffffffffffff166363a9c3d7336040518263ffffffff1660e01b81526004016101c29190610f95565b602060405180830381865afa1580156101df573d6000803e3d6000fd5b505050506040513d601f19601f820116820180604052508101906102039190610fe8565b61020c57600080fd5b60008060008a73ffffffffffffffffffffffffffffffffffffffff1673ffffffffffffffffffffffffffffffffffffffff16815260200190815260200160002090508781600001908161025f9190611221565b508681600101819055508581600201908161027a9190611221565b508481600301908161028c9190611221565b508381600401908161029e9190611221565b50828160050190816102b09190611221565b50818160060190816102c29190611221565b50600360009054906101000a900473ffffffffffffffffffffffffffffffffffffffff1673ffffffffffffffffffffffffffffffffffffffff16636d263ceb8a6040518263ffffffff1660e01b815260040161031e9190610f95565b6000604051808303816000875af115801561033d573d6000803e3d6000fd5b505050506040513d6000823e3d601f19601f820116820180604052508101906103669190611363565b50600460009054906101000a900473ffffffffffffffffffffffffffffffffffffffff1673ffffffffffffffffffffffffffffffffffffffff16638bfc8c71338b6040518363ffffffff1660e01b81526004016103c49291906113ac565b600060405180830381600087803b1580156103de57600080fd5b505af11580156103f2573d6000803e3d6000fd5b50505050505050505050505050565b610409610a61565b600260009054906101000a900473ffffffffffffffffffffffffffffffffffffffff1673ffffffffffffffffffffffffffffffffffffffff166363a9c3d7336040518263ffffffff1660e01b81526004016104649190610f95565b602060405180830381865afa158015610481573d6000803e3d6000fd5b505050506040513d601f19601f820116820180604052508101906104a59190610fe8565b806105485750600360009054906101000a900473ffffffffffffffffffffffffffffffffffffffff1673ffffffffffffffffffffffffffffffffffffffff166363a9c3d7336040518263ffffffff1660e01b81526004016105069190610f95565b602060405180830381865afa158015610523573d6000803e3d6000fd5b505050506040513d601f19601f820116820180604052508101906105479190610fe8565b5b61055157600080fd5b6000808373ffffffffffffffffffffffffffffffffffffffff1673ffffffffffffffffffffffffffffffffffffffff1681526020019081526020016000206040518060e00160405290816000820180546105aa90611044565b80601f01602080910402602001604051908101604052809291908181526020018280546105d690611044565b80156106235780601f106105f857610100808354040283529160200191610623565b820191906000526020600020905b81548152906001019060200180831161060657829003601f168201915b505050505081526020016001820154815260200160028201805461064690611044565b80601f016020809104026020016040519081016040528092919081815260200182805461067290611044565b80156106bf5780601f10610694576101008083540402835291602001916106bf565b820191906000526020600020905b8154815290600101906020018083116106a257829003601f168201915b505050505081526020016003820180546106d890611044565b80601f016020809104026020016040519081016040528092919081815260200182805461070490611044565b80156107515780601f1061072657610100808354040283529160200191610751565b820191906000526020600020905b81548152906001019060200180831161073457829003601f168201915b5050505050815260200160048201805461076a90611044565b80601f016020809104026020016040519081016040528092919081815260200182805461079690611044565b80156107e35780601f106107b8576101008083540402835291602001916107e3565b820191906000526020600020905b8154815290600101906020018083116107c657829003601f168201915b505050505081526020016005820180546107fc90611044565b80601f016020809104026020016040519081016040528092919081815260200182805461082890611044565b80156108755780601f1061084a57610100808354040283529160200191610875565b820191906000526020600020905b81548152906001019060200180831161085857829003601f168201915b5050505050815260200160068201805461088e90611044565b80601f01602080910402602001604051908101604052809291908181526020018280546108ba90611044565b80156109075780601f106108dc57610100808354040283529160200191610907565b820191906000526020600020905b8154815290600101906020018083116108ea57829003601f168201915b5050505050815250509050919050565b60008060008a73ffffffffffffffffffffffffffffffffffffffff1673ffffffffffffffffffffffffffffffffffffffff16815260200190815260200160002090508781600001908161096a9190611221565b50868160010181905550858160020190816109859190611221565b50848160030190816109979190611221565b50838160040190816109a99190611221565b50828160050190816109bb9190611221565b50818160060190816109cd9190611221565b50505050505050505050565b80600360006101000a81548173ffffffffffffffffffffffffffffffffffffffff021916908373ffffffffffffffffffffffffffffffffffffffff16021790555050565b80600460006101000a81548173ffffffffffffffffffffffffffffffffffffffff021916908373ffffffffffffffffffffffffffffffffffffffff16021790555050565b6040518060e00160405280606081526020016000815260200160608152602001606081526020016060815260200160608152602001606081525090565b6000604051905090565b600080fd5b600080fd5b600073ffffffffffffffffffffffffffffffffffffffff82169050919050565b6000610add82610ab2565b9050919050565b610aed81610ad2565b8114610af857600080fd5b50565b600081359050610b0a81610ae4565b92915050565b600060208284031215610b2657610b25610aa8565b5b6000610b3484828501610afb565b91505092915050565b600080fd5b600080fd5b6000601f19601f8301169050919050565b7f4e487b7100000000000000000000000000000000000000000000000000000000600052604160045260246000fd5b610b9082610b47565b810181811067ffffffffffffffff82111715610baf57610bae610b58565b5b80604052505050565b6000610bc2610a9e565b9050610bce8282610b87565b919050565b600067ffffffffffffffff821115610bee57610bed610b58565b5b610bf782610b47565b9050602081019050919050565b82818337600083830152505050565b6000610c26610c2184610bd3565b610bb8565b905082815260208101848484011115610c4257610c41610b42565b5b610c4d848285610c04565b509392505050565b600082601f830112610c6a57610c69610b3d565b5b8135610c7a848260208601610c13565b91505092915050565b6000819050919050565b610c9681610c83565b8114610ca157600080fd5b50565b600081359050610cb381610c8d565b92915050565b600080600080600080600080610100898b031215610cda57610cd9610aa8565b5b6000610ce88b828c01610afb565b985050602089013567ffffffffffffffff811115610d0957610d08610aad565b5b610d158b828c01610c55565b9750506040610d268b828c01610ca4565b965050606089013567ffffffffffffffff811115610d4757610d46610aad565b5b610d538b828c01610c55565b955050608089013567ffffffffffffffff811115610d7457610d73610aad565b5b610d808b828c01610c55565b94505060a089013567ffffffffffffffff811115610da157610da0610aad565b5b610dad8b828c01610c55565b93505060c089013567ffffffffffffffff811115610dce57610dcd610aad565b5b610dda8b828c01610c55565b92505060e089013567ffffffffffffffff811115610dfb57610dfa610aad565b5b610e078b828c01610c55565b9150509295985092959890939650565b600081519050919050565b600082825260208201905092915050565b60005b83811015610e51578082015181840152602081019050610e36565b60008484015250505050565b6000610e6882610e17565b610e728185610e22565b9350610e82818560208601610e33565b610e8b81610b47565b840191505092915050565b610e9f81610c83565b82525050565b600060e0830160008301518482036000860152610ec28282610e5d565b9150506020830151610ed76020860182610e96565b5060408301518482036040860152610eef8282610e5d565b91505060608301518482036060860152610f098282610e5d565b91505060808301518482036080860152610f238282610e5d565b91505060a083015184820360a0860152610f3d8282610e5d565b91505060c083015184820360c0860152610f578282610e5d565b9150508091505092915050565b60006020820190508181036000830152610f7e8184610ea5565b905092915050565b610f8f81610ad2565b82525050565b6000602082019050610faa6000830184610f86565b92915050565b60008115159050919050565b610fc581610fb0565b8114610fd057600080fd5b50565b600081519050610fe281610fbc565b92915050565b600060208284031215610ffe57610ffd610aa8565b5b600061100c84828501610fd3565b91505092915050565b7f4e487b7100000000000000000000000000000000000000000000000000000000600052602260045260246000fd5b6000600282049050600182168061105c57607f821691505b60208210810361106f5761106e611015565b5b50919050565b60008190508160005260206000209050919050565b60006020601f8301049050919050565b600082821b905092915050565b6000600883026110d77fffffffffffffffffffffffffffffffffffffffffffffffffffffffffffffffff8261109a565b6110e1868361109a565b95508019841693508086168417925050509392505050565b6000819050919050565b600061111e61111961111484610c83565b6110f9565b610c83565b9050919050565b6000819050919050565b61113883611103565b61114c61114482611125565b8484546110a7565b825550505050565b600090565b611161611154565b61116c81848461112f565b505050565b5b8181101561119057611185600082611159565b600181019050611172565b5050565b601f8211156111d5576111a681611075565b6111af8461108a565b810160208510156111be578190505b6111d26111ca8561108a565b830182611171565b50505b505050565b600082821c905092915050565b60006111f8600019846008026111da565b1980831691505092915050565b600061121183836111e7565b9150826002028217905092915050565b61122a82610e17565b67ffffffffffffffff81111561124357611242610b58565b5b61124d8254611044565b611258828285611194565b600060209050601f83116001811461128b5760008415611279578287015190505b6112838582611205565b8655506112eb565b601f19841661129986611075565b60005b828110156112c15784890151825560018201915060208501945060208101905061129c565b868310156112de57848901516112da601f8916826111e7565b8355505b6001600288020188555050505b505050505050565b600061130661130184610bd3565b610bb8565b90508281526020810184848401111561132257611321610b42565b5b61132d848285610e33565b509392505050565b600082601f83011261134a57611349610b3d565b5b815161135a8482602086016112f3565b91505092915050565b60006020828403121561137957611378610aa8565b5b600082015167ffffffffffffffff81111561139757611396610aad565b5b6113a384828501611335565b91505092915050565b60006040820190506113c16000830185610f86565b6113ce6020830184610f86565b939250505056fea26469706673582212200301eef7e335e89229e63ee54feeb0d0b6f31bd48573d9c6f84057f1510655c464736f6c63430008110033608060405234801561001057600080fd5b5060405161073f38038061073f833981810160405281019061003291906100db565b806000806101000a81548173ffffffffffffffffffffffffffffffffffffffff021916908373ffffffffffffffffffffffffffffffffffffffff16021790555050610108565b600080fd5b600073ffffffffffffffffffffffffffffffffffffffff82169050919050565b60006100a88261007d565b9050919050565b6100b88161009d565b81146100c357600080fd5b50565b6000815190506100d5816100af565b92915050565b6000602082840312156100f1576100f0610078565b5b60006100ff848285016100c6565b91505092915050565b610628806101176000396000f3fe608060405234801561001057600080fd5b50600436106100415760003560e01c806318a231a91461004657806363a9c3d7146100645780636d263ceb14610094575b600080fd5b61004e6100c4565b60405161005b919061048a565b60405180910390f35b61007e600480360381019061007991906104dd565b6101aa565b60405161008b9190610525565b60405180910390f35b6100ae60048036038101906100a991906104dd565b610211565b6040516100bb91906105d0565b60405180910390f35b606060008054906101000a900473ffffffffffffffffffffffffffffffffffffffff1673ffffffffffffffffffffffffffffffffffffffff163373ffffffffffffffffffffffffffffffffffffffff161461011e57600080fd5b60018054806020026020016040519081016040528092919081815260200182805480156101a057602002820191906000526020600020905b8160009054906101000a900473ffffffffffffffffffffffffffffffffffffffff1673ffffffffffffffffffffffffffffffffffffffff1681526020019060010190808311610156575b5050505050905090565b6000600260008373ffffffffffffffffffffffffffffffffffffffff1673ffffffffffffffffffffffffffffffffffffffff16815260200190815260200160002060009054906101000a900460ff1615610207576001905061020c565b600090505b919050565b6060600260008373ffffffffffffffffffffffffffffffffffffffff1673ffffffffffffffffffffffffffffffffffffffff16815260200190815260200160002060009054906101000a900460ff1661035c576001600260008473ffffffffffffffffffffffffffffffffffffffff1673ffffffffffffffffffffffffffffffffffffffff16815260200190815260200160002060006101000a81548160ff0219169083151502179055506001829080600181540180825580915050600190039060005260206000200160009091909190916101000a81548173ffffffffffffffffffffffffffffffffffffffff021916908373ffffffffffffffffffffffffffffffffffffffff1602179055506040518060400160405280600d81526020017f41646472657373206164646564000000000000000000000000000000000000008152509050610395565b6040518060400160405280601781526020017f43616e6e6f74206164642073616d65206164647265737300000000000000000081525090505b919050565b600081519050919050565b600082825260208201905092915050565b6000819050602082019050919050565b600073ffffffffffffffffffffffffffffffffffffffff82169050919050565b60006103f1826103c6565b9050919050565b610401816103e6565b82525050565b600061041383836103f8565b60208301905092915050565b6000602082019050919050565b60006104378261039a565b61044181856103a5565b935061044c836103b6565b8060005b8381101561047d5781516104648882610407565b975061046f8361041f565b925050600181019050610450565b5085935050505092915050565b600060208201905081810360008301526104a4818461042c565b905092915050565b600080fd5b6104ba816103e6565b81146104c557600080fd5b50565b6000813590506104d7816104b1565b92915050565b6000602082840312156104f3576104f26104ac565b5b6000610501848285016104c8565b91505092915050565b60008115159050919050565b61051f8161050a565b82525050565b600060208201905061053a6000830184610516565b92915050565b600081519050919050565b600082825260208201905092915050565b60005b8381101561057a57808201518184015260208101905061055f565b60008484015250505050565b6000601f19601f8301169050919050565b60006105a282610540565b6105ac818561054b565b93506105bc81856020860161055c565b6105c581610586565b840191505092915050565b600060208201905081810360008301526105ea8184610597565b90509291505056fea264697066735822122037441a15b00b2aeaf5874d21d070c9069176a640e4ef7ac295249b1cdf5ba6a264736f6c63430008110033608060405234801561001057600080fd5b50604051610797380380610797833981810160405281019061003291906100db565b806000806101000a81548173ffffffffffffffffffffffffffffffffffffffff021916908373ffffffffffffffffffffffffffffffffffffffff16021790555050610108565b600080fd5b600073ffffffffffffffffffffffffffffffffffffffff82169050919050565b60006100a88261007d565b9050919050565b6100b88161009d565b81146100c357600080fd5b50565b6000815190506100d5816100af565b92915050565b6000602082840312156100f1576100f0610078565b5b60006100ff848285016100c6565b91505092915050565b610680806101176000396000f3fe608060405234801561001057600080fd5b50600436106100415760003560e01c80634780468f1461004657806363a9c3d714610076578063f0d95090146100a6575b600080fd5b610060600480360381019061005b9190610455565b6100c4565b60405161006d9190610512565b60405180910390f35b610090600480360381019061008b9190610455565b6102a5565b60405161009d919061054f565b60405180910390f35b6100ae61030c565b6040516100bb9190610628565b60405180910390f35b606060008054906101000a900473ffffffffffffffffffffffffffffffffffffffff1673ffffffffffffffffffffffffffffffffffffffff163373ffffffffffffffffffffffffffffffffffffffff161461011e57600080fd5b600260008373ffffffffffffffffffffffffffffffffffffffff1673ffffffffffffffffffffffffffffffffffffffff16815260200190815260200160002060009054906101000a900460ff16610267576001600260008473ffffffffffffffffffffffffffffffffffffffff1673ffffffffffffffffffffffffffffffffffffffff16815260200190815260200160002060006101000a81548160ff0219169083151502179055506001829080600181540180825580915050600190039060005260206000200160009091909190916101000a81548173ffffffffffffffffffffffffffffffffffffffff021916908373ffffffffffffffffffffffffffffffffffffffff1602179055506040518060400160405280600d81526020017f416464726573732061646465640000000000000000000000000000000000000081525090506102a0565b6040518060400160405280601781526020017f43616e6e6f74206164642073616d65206164647265737300000000000000000081525090505b919050565b6000600260008373ffffffffffffffffffffffffffffffffffffffff1673ffffffffffffffffffffffffffffffffffffffff16815260200190815260200160002060009054906101000a900460ff16156103025760019050610307565b600090505b919050565b606060008054906101000a900473ffffffffffffffffffffffffffffffffffffffff1673ffffffffffffffffffffffffffffffffffffffff163373ffffffffffffffffffffffffffffffffffffffff161461036657600080fd5b60018054806020026020016040519081016040528092919081815260200182805480156103e857602002820191906000526020600020905b8160009054906101000a900473ffffffffffffffffffffffffffffffffffffffff1673ffffffffffffffffffffffffffffffffffffffff168152602001906001019080831161039e575b5050505050905090565b600080fd5b600073ffffffffffffffffffffffffffffffffffffffff82169050919050565b6000610422826103f7565b9050919050565b61043281610417565b811461043d57600080fd5b50565b60008135905061044f81610429565b92915050565b60006020828403121561046b5761046a6103f2565b5b600061047984828501610440565b91505092915050565b600081519050919050565b600082825260208201905092915050565b60005b838110156104bc5780820151818401526020810190506104a1565b60008484015250505050565b6000601f19601f8301169050919050565b60006104e482610482565b6104ee818561048d565b93506104fe81856020860161049e565b610507816104c8565b840191505092915050565b6000602082019050818103600083015261052c81846104d9565b905092915050565b60008115159050919050565b61054981610534565b82525050565b60006020820190506105646000830184610540565b92915050565b600081519050919050565b600082825260208201905092915050565b6000819050602082019050919050565b61059f81610417565b82525050565b60006105b18383610596565b60208301905092915050565b6000602082019050919050565b60006105d58261056a565b6105df8185610575565b93506105ea83610586565b8060005b8381101561061b57815161060288826105a5565b975061060d836105bd565b9250506001810190506105ee565b5085935050505092915050565b6000602082019050818103600083015261064281846105ca565b90509291505056fea264697066735822122091504de4159983cb5fbaeb39783b7026cecabd3e82bdeec9549c9ac0166b69d564736f6c63430008110033608060405234801561001057600080fd5b506040516104f53803806104f5833981810160405281019061003291906100db565b806000806101000a81548173ffffffffffffffffffffffffffffffffffffffff021916908373ffffffffffffffffffffffffffffffffffffffff16021790555050610108565b600080fd5b600073ffffffffffffffffffffffffffffffffffffffff82169050919050565b60006100a88261007d565b9050919050565b6100b88161009d565b81146100c357600080fd5b50565b6000815190506100d5816100af565b92915050565b6000602082840312156100f1576100f0610078565b5b60006100ff848285016100c6565b91505092915050565b6103de806101176000396000f3fe608060405234801561001057600080fd5b50600436106100365760003560e01c80638bfc8c711461003b578063f40941d014610057575b600080fd5b6100556004803603810190610050919061025b565b610087565b005b610071600480360381019061006c919061029b565b61012b565b60405161007e9190610386565b60405180910390f35b600260008373ffffffffffffffffffffffffffffffffffffffff1673ffffffffffffffffffffffffffffffffffffffff168152602001908152602001600020819080600181540180825580915050600190039060005260206000200160009091909190916101000a81548173ffffffffffffffffffffffffffffffffffffffff021916908373ffffffffffffffffffffffffffffffffffffffff1602179055505050565b6060600260008373ffffffffffffffffffffffffffffffffffffffff1673ffffffffffffffffffffffffffffffffffffffff1681526020019081526020016000208054806020026020016040519081016040528092919081815260200182805480156101ec57602002820191906000526020600020905b8160009054906101000a900473ffffffffffffffffffffffffffffffffffffffff1673ffffffffffffffffffffffffffffffffffffffff16815260200190600101908083116101a2575b50505050509050919050565b600080fd5b600073ffffffffffffffffffffffffffffffffffffffff82169050919050565b6000610228826101fd565b9050919050565b6102388161021d565b811461024357600080fd5b50565b6000813590506102558161022f565b92915050565b60008060408385031215610272576102716101f8565b5b600061028085828601610246565b925050602061029185828601610246565b9150509250929050565b6000602082840312156102b1576102b06101f8565b5b60006102bf84828501610246565b91505092915050565b600081519050919050565b600082825260208201905092915050565b6000819050602082019050919050565b6102fd8161021d565b82525050565b600061030f83836102f4565b60208301905092915050565b6000602082019050919050565b6000610333826102c8565b61033d81856102d3565b9350610348836102e4565b8060005b838110156103795781516103608882610303565b975061036b8361031b565b92505060018101905061034c565b5085935050505092915050565b600060208201905081810360008301526103a08184610328565b90509291505056fea264697066735822122053e79a7e35e4e12f45c9d9922be2bfcaa123720b9d4851a8fea0bc068089c59c64736f6c63430008110033","opcodes":"PUSH1 0x80 PUSH1 0x40 MSTORE CALLVALUE DUP1 ISZERO PUSH3 0x11 JUMPI PUSH1 0x0 DUP1 REVERT JUMPDEST POP CALLER PUSH1 0x1 PUSH1 0x0 PUSH2 0x100 EXP DUP2 SLOAD DUP2 PUSH20 0xFFFFFFFFFFFFFFFFFFFFFFFFFFFFFFFFFFFFFFFF MUL NOT AND SWAP1 DUP4 PUSH20 0xFFFFFFFFFFFFFFFFFFFFFFFFFFFFFFFFFFFFFFFF AND MUL OR SWAP1 SSTORE POP PUSH1 0x0 CALLER PUSH1 0x40 MLOAD PUSH3 0x64 SWAP1 PUSH3 0x571 JUMP JUMPDEST PUSH3 0x70 SWAP2 SWAP1 PUSH3 0x5EE JUMP JUMPDEST PUSH1 0x40 MLOAD DUP1 SWAP2 SUB SWAP1 PUSH1 0x0 CREATE DUP1 ISZERO DUP1 ISZERO PUSH3 0x8D JUMPI RETURNDATASIZE PUSH1 0x0 DUP1 RETURNDATACOPY RETURNDATASIZE PUSH1 0x0 REVERT JUMPDEST POP SWAP1 POP PUSH1 0x0 PUSH1 0x40 MLOAD PUSH3 0xA0 SWAP1 PUSH3 0x666 JUMP JUMPDEST SWAP1 DUP2 MSTORE PUSH1 0x20 ADD PUSH1 0x40 MLOAD DUP1 SWAP2 SUB SWAP1 KECCAK256 PUSH1 0x40 MLOAD DUP1 PUSH1 0x40 ADD PUSH1 0x40 MSTORE DUP1 PUSH1 0x40 MLOAD DUP1 PUSH1 0x40 ADD PUSH1 0x40 MSTORE DUP1 PUSH1 0x7 DUP2 MSTORE PUSH1 0x20 ADD PUSH32 0x70617469656E7400000000000000000000000000000000000000000000000000 DUP2 MSTORE POP DUP2 MSTORE PUSH1 0x20 ADD DUP4 PUSH20 0xFFFFFFFFFFFFFFFFFFFFFFFFFFFFFFFFFFFFFFFF AND DUP2 MSTORE POP SWAP1 DUP1 PUSH1 0x1 DUP2 SLOAD ADD DUP1 DUP3 SSTORE DUP1 SWAP2 POP POP PUSH1 0x1 SWAP1 SUB SWAP1 PUSH1 0x0 MSTORE PUSH1 0x20 PUSH1 0x0 KECCAK256 SWAP1 PUSH1 0x2 MUL ADD PUSH1 0x0 SWAP1 SWAP2 SWAP1 SWAP2 SWAP1 SWAP2 POP PUSH1 0x0 DUP3 ADD MLOAD DUP2 PUSH1 0x0 ADD SWAP1 DUP2 PUSH3 0x14E SWAP2 SWAP1 PUSH3 0x8F7 JUMP JUMPDEST POP PUSH1 0x20 DUP3 ADD MLOAD DUP2 PUSH1 0x1 ADD PUSH1 0x0 PUSH2 0x100 EXP DUP2 SLOAD DUP2 PUSH20 0xFFFFFFFFFFFFFFFFFFFFFFFFFFFFFFFFFFFFFFFF MUL NOT AND SWAP1 DUP4 PUSH20 0xFFFFFFFFFFFFFFFFFFFFFFFFFFFFFFFFFFFFFFFF AND MUL OR SWAP1 SSTORE POP POP POP PUSH1 0x0 CALLER PUSH1 0x40 MLOAD PUSH3 0x1A9 SWAP1 PUSH3 0x57F JUMP JUMPDEST PUSH3 0x1B5 SWAP2 SWAP1 PUSH3 0x5EE JUMP JUMPDEST PUSH1 0x40 MLOAD DUP1 SWAP2 SUB SWAP1 PUSH1 0x0 CREATE DUP1 ISZERO DUP1 ISZERO PUSH3 0x1D2 JUMPI RETURNDATASIZE PUSH1 0x0 DUP1 RETURNDATACOPY RETURNDATASIZE PUSH1 0x0 REVERT JUMPDEST POP SWAP1 POP PUSH1 0x0 PUSH1 0x40 MLOAD PUSH3 0x1E5 SWAP1 PUSH3 0x666 JUMP JUMPDEST SWAP1 DUP2 MSTORE PUSH1 0x20 ADD PUSH1 0x40 MLOAD DUP1 SWAP2 SUB SWAP1 KECCAK256 PUSH1 0x40 MLOAD DUP1 PUSH1 0x40 ADD PUSH1 0x40 MSTORE DUP1 PUSH1 0x40 MLOAD DUP1 PUSH1 0x40 ADD PUSH1 0x40 MSTORE DUP1 PUSH1 0x12 DUP2 MSTORE PUSH1 0x20 ADD PUSH32 0x70617469656E745665726966696361746F720000000000000000000000000000 DUP2 MSTORE POP DUP2 MSTORE PUSH1 0x20 ADD DUP4 PUSH20 0xFFFFFFFFFFFFFFFFFFFFFFFFFFFFFFFFFFFFFFFF AND DUP2 MSTORE POP SWAP1 DUP1 PUSH1 0x1 DUP2 SLOAD ADD DUP1 DUP3 SSTORE DUP1 SWAP2 POP POP PUSH1 0x1 SWAP1 SUB SWAP1 PUSH1 0x0 MSTORE PUSH1 0x20 PUSH1 0x0 KECCAK256 SWAP1 PUSH1 0x2 MUL ADD PUSH1 0x0 SWAP1 SWAP2 SWAP1 SWAP2 SWAP1 SWAP2 POP PUSH1 0x0 DUP3 ADD MLOAD DUP2 PUSH1 0x0 ADD SWAP1 DUP2 PUSH3 0x293 SWAP2 SWAP1 PUSH3 0x8F7 JUMP JUMPDEST POP PUSH1 0x20 DUP3 ADD MLOAD DUP2 PUSH1 0x1 ADD PUSH1 0x0 PUSH2 0x100 EXP DUP2 SLOAD DUP2 PUSH20 0xFFFFFFFFFFFFFFFFFFFFFFFFFFFFFFFFFFFFFFFF MUL NOT AND SWAP1 DUP4 PUSH20 0xFFFFFFFFFFFFFFFFFFFFFFFFFFFFFFFFFFFFFFFF AND MUL OR SWAP1 SSTORE POP POP POP PUSH1 0x0 CALLER PUSH1 0x40 MLOAD PUSH3 0x2EE SWAP1 PUSH3 0x58D JUMP JUMPDEST PUSH3 0x2FA SWAP2 SWAP1 PUSH3 0x5EE JUMP JUMPDEST PUSH1 0x40 MLOAD DUP1 SWAP2 SUB SWAP1 PUSH1 0x0 CREATE DUP1 ISZERO DUP1 ISZERO PUSH3 0x317 JUMPI RETURNDATASIZE PUSH1 0x0 DUP1 RETURNDATACOPY RETURNDATASIZE PUSH1 0x0 REVERT JUMPDEST POP SWAP1 POP PUSH1 0x0 PUSH1 0x40 MLOAD PUSH3 0x32A SWAP1 PUSH3 0x666 JUMP JUMPDEST SWAP1 DUP2 MSTORE PUSH1 0x20 ADD PUSH1 0x40 MLOAD DUP1 SWAP2 SUB SWAP1 KECCAK256 PUSH1 0x40 MLOAD DUP1 PUSH1 0x40 ADD PUSH1 0x40 MSTORE DUP1 PUSH1 0x40 MLOAD DUP1 PUSH1 0x40 ADD PUSH1 0x40 MSTORE DUP1 PUSH1 0x11 DUP2 MSTORE PUSH1 0x20 ADD PUSH32 0x646F63746F725665726966696361746F72000000000000000000000000000000 DUP2 MSTORE POP DUP2 MSTORE PUSH1 0x20 ADD DUP4 PUSH20 0xFFFFFFFFFFFFFFFFFFFFFFFFFFFFFFFFFFFFFFFF AND DUP2 MSTORE POP SWAP1 DUP1 PUSH1 0x1 DUP2 SLOAD ADD DUP1 DUP3 SSTORE DUP1 SWAP2 POP POP PUSH1 0x1 SWAP1 SUB SWAP1 PUSH1 0x0 MSTORE PUSH1 0x20 PUSH1 0x0 KECCAK256 SWAP1 PUSH1 0x2 MUL ADD PUSH1 0x0 SWAP1 SWAP2 SWAP1 SWAP2 SWAP1 SWAP2 POP PUSH1 0x0 DUP3 ADD MLOAD DUP2 PUSH1 0x0 ADD SWAP1 DUP2 PUSH3 0x3D8 SWAP2 SWAP1 PUSH3 0x8F7 JUMP JUMPDEST POP PUSH1 0x20 DUP3 ADD MLOAD DUP2 PUSH1 0x1 ADD PUSH1 0x0 PUSH2 0x100 EXP DUP2 SLOAD DUP2 PUSH20 0xFFFFFFFFFFFFFFFFFFFFFFFFFFFFFFFFFFFFFFFF MUL NOT AND SWAP1 DUP4 PUSH20 0xFFFFFFFFFFFFFFFFFFFFFFFFFFFFFFFFFFFFFFFF AND MUL OR SWAP1 SSTORE POP POP POP PUSH1 0x0 CALLER PUSH1 0x40 MLOAD PUSH3 0x433 SWAP1 PUSH3 0x59B JUMP JUMPDEST PUSH3 0x43F SWAP2 SWAP1 PUSH3 0x5EE JUMP JUMPDEST PUSH1 0x40 MLOAD DUP1 SWAP2 SUB SWAP1 PUSH1 0x0 CREATE DUP1 ISZERO DUP1 ISZERO PUSH3 0x45C JUMPI RETURNDATASIZE PUSH1 0x0 DUP1 RETURNDATACOPY RETURNDATASIZE PUSH1 0x0 REVERT JUMPDEST POP SWAP1 POP PUSH1 0x0 PUSH1 0x40 MLOAD PUSH3 0x46F SWAP1 PUSH3 0x666 JUMP JUMPDEST SWAP1 DUP2 MSTORE PUSH1 0x20 ADD PUSH1 0x40 MLOAD DUP1 SWAP2 SUB SWAP1 KECCAK256 PUSH1 0x40 MLOAD DUP1 PUSH1 0x40 ADD PUSH1 0x40 MSTORE DUP1 PUSH1 0x40 MLOAD DUP1 PUSH1 0x40 ADD PUSH1 0x40 MSTORE DUP1 PUSH1 0xE DUP2 MSTORE PUSH1 0x20 ADD PUSH32 0x646F63746F7252656C6174696F6E000000000000000000000000000000000000 DUP2 MSTORE POP DUP2 MSTORE PUSH1 0x20 ADD DUP4 PUSH20 0xFFFFFFFFFFFFFFFFFFFFFFFFFFFFFFFFFFFFFFFF AND DUP2 MSTORE POP SWAP1 DUP1 PUSH1 0x1 DUP2 SLOAD ADD DUP1 DUP3 SSTORE DUP1 SWAP2 POP POP PUSH1 0x1 SWAP1 SUB SWAP1 PUSH1 0x0 MSTORE PUSH1 0x20 PUSH1 0x0 KECCAK256 SWAP1 PUSH1 0x2 MUL ADD PUSH1 0x0 SWAP1 SWAP2 SWAP1 SWAP2 SWAP1 SWAP2 POP PUSH1 0x0 DUP3 ADD MLOAD DUP2 PUSH1 0x0 ADD SWAP1 DUP2 PUSH3 0x51D SWAP2 SWAP1 PUSH3 0x8F7 JUMP JUMPDEST POP PUSH1 0x20 DUP3 ADD MLOAD DUP2 PUSH1 0x1 ADD PUSH1 0x0 PUSH2 0x100 EXP DUP2 SLOAD DUP2 PUSH20 0xFFFFFFFFFFFFFFFFFFFFFFFFFFFFFFFFFFFFFFFF MUL NOT AND SWAP1 DUP4 PUSH20 0xFFFFFFFFFFFFFFFFFFFFFFFFFFFFFFFFFFFFFFFF AND MUL OR SWAP1 SSTORE POP POP POP POP POP POP POP PUSH3 0x9DE JUMP JUMPDEST PUSH2 0x1536 DUP1 PUSH3 0x10F3 DUP4 CODECOPY ADD SWAP1 JUMP JUMPDEST PUSH2 0x73F DUP1 PUSH3 0x2629 DUP4 CODECOPY ADD SWAP1 JUMP JUMPDEST PUSH2 0x797 DUP1 PUSH3 0x2D68 DUP4 CODECOPY ADD SWAP1 JUMP JUMPDEST PUSH2 0x4F5 DUP1 PUSH3 0x34FF DUP4 CODECOPY ADD SWAP1 JUMP JUMPDEST PUSH1 0x0 PUSH20 0xFFFFFFFFFFFFFFFFFFFFFFFFFFFFFFFFFFFFFFFF DUP3 AND SWAP1 POP SWAP2 SWAP1 POP JUMP JUMPDEST PUSH1 0x0 PUSH3 0x5D6 DUP3 PUSH3 0x5A9 JUMP JUMPDEST SWAP1 POP SWAP2 SWAP1 POP JUMP JUMPDEST PUSH3 0x5E8 DUP2 PUSH3 0x5C9 JUMP JUMPDEST DUP3 MSTORE POP POP JUMP JUMPDEST PUSH1 0x0 PUSH1 0x20 DUP3 ADD SWAP1 POP PUSH3 0x605 PUSH1 0x0 DUP4 ADD DUP5 PUSH3 0x5DD JUMP JUMPDEST SWAP3 SWAP2 POP POP JUMP JUMPDEST PUSH1 0x0 DUP2 SWAP1 POP SWAP3 SWAP2 POP POP JUMP JUMPDEST PUSH32 0x70616E74656B0000000000000000000000000000000000000000000000000000 PUSH1 0x0 DUP3 ADD MSTORE POP JUMP JUMPDEST PUSH1 0x0 PUSH3 0x64E PUSH1 0x6 DUP4 PUSH3 0x60B JUMP JUMPDEST SWAP2 POP PUSH3 0x65B DUP3 PUSH3 0x616 JUMP JUMPDEST PUSH1 0x6 DUP3 ADD SWAP1 POP SWAP2 SWAP1 POP JUMP JUMPDEST PUSH1 0x0 PUSH3 0x673 DUP3 PUSH3 0x63F JUMP JUMPDEST SWAP2 POP DUP2 SWAP1 POP SWAP2 SWAP1 POP JUMP JUMPDEST PUSH1 0x0 DUP2 MLOAD SWAP1 POP SWAP2 SWAP1 POP JUMP JUMPDEST PUSH32 0x4E487B7100000000000000000000000000000000000000000000000000000000 PUSH1 0x0 MSTORE PUSH1 0x41 PUSH1 0x4 MSTORE PUSH1 0x24 PUSH1 0x0 REVERT JUMPDEST PUSH32 0x4E487B7100000000000000000000000000000000000000000000000000000000 PUSH1 0x0 MSTORE PUSH1 0x22 PUSH1 0x4 MSTORE PUSH1 0x24 PUSH1 0x0 REVERT JUMPDEST PUSH1 0x0 PUSH1 0x2 DUP3 DIV SWAP1 POP PUSH1 0x1 DUP3 AND DUP1 PUSH3 0x6FF JUMPI PUSH1 0x7F DUP3 AND SWAP2 POP JUMPDEST PUSH1 0x20 DUP3 LT DUP2 SUB PUSH3 0x715 JUMPI PUSH3 0x714 PUSH3 0x6B7 JUMP JUMPDEST JUMPDEST POP SWAP2 SWAP1 POP JUMP JUMPDEST PUSH1 0x0 DUP2 SWAP1 POP DUP2 PUSH1 0x0 MSTORE PUSH1 0x20 PUSH1 0x0 KECCAK256 SWAP1 POP SWAP2 SWAP1 POP JUMP JUMPDEST PUSH1 0x0 PUSH1 0x20 PUSH1 0x1F DUP4 ADD DIV SWAP1 POP SWAP2 SWAP1 POP JUMP JUMPDEST PUSH1 0x0 DUP3 DUP3 SHL SWAP1 POP SWAP3 SWAP2 POP POP JUMP JUMPDEST PUSH1 0x0 PUSH1 0x8 DUP4 MUL PUSH3 0x77F PUSH32 0xFFFFFFFFFFFFFFFFFFFFFFFFFFFFFFFFFFFFFFFFFFFFFFFFFFFFFFFFFFFFFFFF DUP3 PUSH3 0x740 JUMP JUMPDEST PUSH3 0x78B DUP7 DUP4 PUSH3 0x740 JUMP JUMPDEST SWAP6 POP DUP1 NOT DUP5 AND SWAP4 POP DUP1 DUP7 AND DUP5 OR SWAP3 POP POP POP SWAP4 SWAP3 POP POP POP JUMP JUMPDEST PUSH1 0x0 DUP2 SWAP1 POP SWAP2 SWAP1 POP JUMP JUMPDEST PUSH1 0x0 DUP2 SWAP1 POP SWAP2 SWAP1 POP JUMP JUMPDEST PUSH1 0x0 PUSH3 0x7D8 PUSH3 0x7D2 PUSH3 0x7CC DUP5 PUSH3 0x7A3 JUMP JUMPDEST PUSH3 0x7AD JUMP JUMPDEST PUSH3 0x7A3 JUMP JUMPDEST SWAP1 POP SWAP2 SWAP1 POP JUMP JUMPDEST PUSH1 0x0 DUP2 SWAP1 POP SWAP2 SWAP1 POP JUMP JUMPDEST PUSH3 0x7F4 DUP4 PUSH3 0x7B7 JUMP JUMPDEST PUSH3 0x80C PUSH3 0x803 DUP3 PUSH3 0x7DF JUMP JUMPDEST DUP5 DUP5 SLOAD PUSH3 0x74D JUMP JUMPDEST DUP3 SSTORE POP POP POP POP JUMP JUMPDEST PUSH1 0x0 SWAP1 JUMP JUMPDEST PUSH3 0x823 PUSH3 0x814 JUMP JUMPDEST PUSH3 0x830 DUP2 DUP5 DUP5 PUSH3 0x7E9 JUMP JUMPDEST POP POP POP JUMP JUMPDEST JUMPDEST DUP2 DUP2 LT ISZERO PUSH3 0x858 JUMPI PUSH3 0x84C PUSH1 0x0 DUP3 PUSH3 0x819 JUMP JUMPDEST PUSH1 0x1 DUP2 ADD SWAP1 POP PUSH3 0x836 JUMP JUMPDEST POP POP JUMP JUMPDEST PUSH1 0x1F DUP3 GT ISZERO PUSH3 0x8A7 JUMPI PUSH3 0x871 DUP2 PUSH3 0x71B JUMP JUMPDEST PUSH3 0x87C DUP5 PUSH3 0x730 JUMP JUMPDEST DUP2 ADD PUSH1 0x20 DUP6 LT ISZERO PUSH3 0x88C JUMPI DUP2 SWAP1 POP JUMPDEST PUSH3 0x8A4 PUSH3 0x89B DUP6 PUSH3 0x730 JUMP JUMPDEST DUP4 ADD DUP3 PUSH3 0x835 JUMP JUMPDEST POP POP JUMPDEST POP POP POP JUMP JUMPDEST PUSH1 0x0 DUP3 DUP3 SHR SWAP1 POP SWAP3 SWAP2 POP POP JUMP JUMPDEST PUSH1 0x0 PUSH3 0x8CC PUSH1 0x0 NOT DUP5 PUSH1 0x8 MUL PUSH3 0x8AC JUMP JUMPDEST NOT DUP1 DUP4 AND SWAP2 POP POP SWAP3 SWAP2 POP POP JUMP JUMPDEST PUSH1 0x0 PUSH3 0x8E7 DUP4 DUP4 PUSH3 0x8B9 JUMP JUMPDEST SWAP2 POP DUP3 PUSH1 0x2 MUL DUP3 OR SWAP1 POP SWAP3 SWAP2 POP POP JUMP JUMPDEST PUSH3 0x902 DUP3 PUSH3 0x67D JUMP JUMPDEST PUSH8 0xFFFFFFFFFFFFFFFF DUP2 GT ISZERO PUSH3 0x91E JUMPI PUSH3 0x91D PUSH3 0x688 JUMP JUMPDEST JUMPDEST PUSH3 0x92A DUP3 SLOAD PUSH3 0x6E6 JUMP JUMPDEST PUSH3 0x937 DUP3 DUP3 DUP6 PUSH3 0x85C JUMP JUMPDEST PUSH1 0x0 PUSH1 0x20 SWAP1 POP PUSH1 0x1F DUP4 GT PUSH1 0x1 DUP2 EQ PUSH3 0x96F JUMPI PUSH1 0x0 DUP5 ISZERO PUSH3 0x95A JUMPI DUP3 DUP8 ADD MLOAD SWAP1 POP JUMPDEST PUSH3 0x966 DUP6 DUP3 PUSH3 0x8D9 JUMP JUMPDEST DUP7 SSTORE POP PUSH3 0x9D6 JUMP JUMPDEST PUSH1 0x1F NOT DUP5 AND PUSH3 0x97F DUP7 PUSH3 0x71B JUMP JUMPDEST PUSH1 0x0 JUMPDEST DUP3 DUP2 LT ISZERO PUSH3 0x9A9 JUMPI DUP5 DUP10 ADD MLOAD DUP3 SSTORE PUSH1 0x1 DUP3 ADD SWAP2 POP PUSH1 0x20 DUP6 ADD SWAP5 POP PUSH1 0x20 DUP2 ADD SWAP1 POP PUSH3 0x982 JUMP JUMPDEST DUP7 DUP4 LT ISZERO PUSH3 0x9C9 JUMPI DUP5 DUP10 ADD MLOAD PUSH3 0x9C5 PUSH1 0x1F DUP10 AND DUP3 PUSH3 0x8B9 JUMP JUMPDEST DUP4 SSTORE POP JUMPDEST PUSH1 0x1 PUSH1 0x2 DUP9 MUL ADD DUP9 SSTORE POP POP POP JUMPDEST POP POP POP POP POP POP JUMP JUMPDEST PUSH2 0x705 DUP1 PUSH3 0x9EE PUSH1 0x0 CODECOPY PUSH1 0x0 RETURN INVALID PUSH1 0x80 PUSH1 0x40 MSTORE CALLVALUE DUP1 ISZERO PUSH2 0x10 JUMPI PUSH1 0x0 DUP1 REVERT JUMPDEST POP PUSH1 0x4 CALLDATASIZE LT PUSH2 0x36 JUMPI PUSH1 0x0 CALLDATALOAD PUSH1 0xE0 SHR DUP1 PUSH4 0xC4FE354C EQ PUSH2 0x3B JUMPI DUP1 PUSH4 0xF851A440 EQ PUSH2 0x6B JUMPI JUMPDEST PUSH1 0x0 DUP1 REVERT JUMPDEST PUSH2 0x55 PUSH1 0x4 DUP1 CALLDATASIZE SUB DUP2 ADD SWAP1 PUSH2 0x50 SWAP2 SWAP1 PUSH2 0x3C8 JUMP JUMPDEST PUSH2 0x89 JUMP JUMPDEST PUSH1 0x40 MLOAD PUSH2 0x62 SWAP2 SWAP1 PUSH2 0x5D0 JUMP JUMPDEST PUSH1 0x40 MLOAD DUP1 SWAP2 SUB SWAP1 RETURN JUMPDEST PUSH2 0x73 PUSH2 0x248 JUMP JUMPDEST PUSH1 0x40 MLOAD PUSH2 0x80 SWAP2 SWAP1 PUSH2 0x601 JUMP JUMPDEST PUSH1 0x40 MLOAD DUP1 SWAP2 SUB SWAP1 RETURN JUMPDEST PUSH1 0x60 PUSH1 0x1 PUSH1 0x0 SWAP1 SLOAD SWAP1 PUSH2 0x100 EXP SWAP1 DIV PUSH20 0xFFFFFFFFFFFFFFFFFFFFFFFFFFFFFFFFFFFFFFFF AND PUSH20 0xFFFFFFFFFFFFFFFFFFFFFFFFFFFFFFFFFFFFFFFF AND CALLER PUSH20 0xFFFFFFFFFFFFFFFFFFFFFFFFFFFFFFFFFFFFFFFF AND EQ PUSH2 0xE5 JUMPI PUSH1 0x0 DUP1 REVERT JUMPDEST PUSH1 0x0 DUP3 PUSH1 0x40 MLOAD PUSH2 0xF5 SWAP2 SWAP1 PUSH2 0x658 JUMP JUMPDEST SWAP1 DUP2 MSTORE PUSH1 0x20 ADD PUSH1 0x40 MLOAD DUP1 SWAP2 SUB SWAP1 KECCAK256 DUP1 SLOAD DUP1 PUSH1 0x20 MUL PUSH1 0x20 ADD PUSH1 0x40 MLOAD SWAP1 DUP2 ADD PUSH1 0x40 MSTORE DUP1 SWAP3 SWAP2 SWAP1 DUP2 DUP2 MSTORE PUSH1 0x20 ADD PUSH1 0x0 SWAP1 JUMPDEST DUP3 DUP3 LT ISZERO PUSH2 0x23D JUMPI DUP4 DUP3 SWAP1 PUSH1 0x0 MSTORE PUSH1 0x20 PUSH1 0x0 KECCAK256 SWAP1 PUSH1 0x2 MUL ADD PUSH1 0x40 MLOAD DUP1 PUSH1 0x40 ADD PUSH1 0x40 MSTORE SWAP1 DUP2 PUSH1 0x0 DUP3 ADD DUP1 SLOAD PUSH2 0x156 SWAP1 PUSH2 0x69E JUMP JUMPDEST DUP1 PUSH1 0x1F ADD PUSH1 0x20 DUP1 SWAP2 DIV MUL PUSH1 0x20 ADD PUSH1 0x40 MLOAD SWAP1 DUP2 ADD PUSH1 0x40 MSTORE DUP1 SWAP3 SWAP2 SWAP1 DUP2 DUP2 MSTORE PUSH1 0x20 ADD DUP3 DUP1 SLOAD PUSH2 0x182 SWAP1 PUSH2 0x69E JUMP JUMPDEST DUP1 ISZERO PUSH2 0x1CF JUMPI DUP1 PUSH1 0x1F LT PUSH2 0x1A4 JUMPI PUSH2 0x100 DUP1 DUP4 SLOAD DIV MUL DUP4 MSTORE SWAP2 PUSH1 0x20 ADD SWAP2 PUSH2 0x1CF JUMP JUMPDEST DUP3 ADD SWAP2 SWAP1 PUSH1 0x0 MSTORE PUSH1 0x20 PUSH1 0x0 KECCAK256 SWAP1 JUMPDEST DUP2 SLOAD DUP2 MSTORE SWAP1 PUSH1 0x1 ADD SWAP1 PUSH1 0x20 ADD DUP1 DUP4 GT PUSH2 0x1B2 JUMPI DUP3 SWAP1 SUB PUSH1 0x1F AND DUP3 ADD SWAP2 JUMPDEST POP POP POP POP POP DUP2 MSTORE PUSH1 0x20 ADD PUSH1 0x1 DUP3 ADD PUSH1 0x0 SWAP1 SLOAD SWAP1 PUSH2 0x100 EXP SWAP1 DIV PUSH20 0xFFFFFFFFFFFFFFFFFFFFFFFFFFFFFFFFFFFFFFFF AND PUSH20 0xFFFFFFFFFFFFFFFFFFFFFFFFFFFFFFFFFFFFFFFF AND PUSH20 0xFFFFFFFFFFFFFFFFFFFFFFFFFFFFFFFFFFFFFFFF AND DUP2 MSTORE POP POP DUP2 MSTORE PUSH1 0x20 ADD SWAP1 PUSH1 0x1 ADD SWAP1 PUSH2 0x123 JUMP JUMPDEST POP POP POP POP SWAP1 POP SWAP2 SWAP1 POP JUMP JUMPDEST PUSH1 0x1 PUSH1 0x0 SWAP1 SLOAD SWAP1 PUSH2 0x100 EXP SWAP1 DIV PUSH20 0xFFFFFFFFFFFFFFFFFFFFFFFFFFFFFFFFFFFFFFFF AND DUP2 JUMP JUMPDEST PUSH1 0x0 PUSH1 0x40 MLOAD SWAP1 POP SWAP1 JUMP JUMPDEST PUSH1 0x0 DUP1 REVERT JUMPDEST PUSH1 0x0 DUP1 REVERT JUMPDEST PUSH1 0x0 DUP1 REVERT JUMPDEST PUSH1 0x0 DUP1 REVERT JUMPDEST PUSH1 0x0 PUSH1 0x1F NOT PUSH1 0x1F DUP4 ADD AND SWAP1 POP SWAP2 SWAP1 POP JUMP JUMPDEST PUSH32 0x4E487B7100000000000000000000000000000000000000000000000000000000 PUSH1 0x0 MSTORE PUSH1 0x41 PUSH1 0x4 MSTORE PUSH1 0x24 PUSH1 0x0 REVERT JUMPDEST PUSH2 0x2D5 DUP3 PUSH2 0x28C JUMP JUMPDEST DUP2 ADD DUP2 DUP2 LT PUSH8 0xFFFFFFFFFFFFFFFF DUP3 GT OR ISZERO PUSH2 0x2F4 JUMPI PUSH2 0x2F3 PUSH2 0x29D JUMP JUMPDEST JUMPDEST DUP1 PUSH1 0x40 MSTORE POP POP POP JUMP JUMPDEST PUSH1 0x0 PUSH2 0x307 PUSH2 0x26E JUMP JUMPDEST SWAP1 POP PUSH2 0x313 DUP3 DUP3 PUSH2 0x2CC JUMP JUMPDEST SWAP2 SWAP1 POP JUMP JUMPDEST PUSH1 0x0 PUSH8 0xFFFFFFFFFFFFFFFF DUP3 GT ISZERO PUSH2 0x333 JUMPI PUSH2 0x332 PUSH2 0x29D JUMP JUMPDEST JUMPDEST PUSH2 0x33C DUP3 PUSH2 0x28C JUMP JUMPDEST SWAP1 POP PUSH1 0x20 DUP2 ADD SWAP1 POP SWAP2 SWAP1 POP JUMP JUMPDEST DUP3 DUP2 DUP4 CALLDATACOPY PUSH1 0x0 DUP4 DUP4 ADD MSTORE POP POP POP JUMP JUMPDEST PUSH1 0x0 PUSH2 0x36B PUSH2 0x366 DUP5 PUSH2 0x318 JUMP JUMPDEST PUSH2 0x2FD JUMP JUMPDEST SWAP1 POP DUP3 DUP2 MSTORE PUSH1 0x20 DUP2 ADD DUP5 DUP5 DUP5 ADD GT ISZERO PUSH2 0x387 JUMPI PUSH2 0x386 PUSH2 0x287 JUMP JUMPDEST JUMPDEST PUSH2 0x392 DUP5 DUP3 DUP6 PUSH2 0x349 JUMP JUMPDEST POP SWAP4 SWAP3 POP POP POP JUMP JUMPDEST PUSH1 0x0 DUP3 PUSH1 0x1F DUP4 ADD SLT PUSH2 0x3AF JUMPI PUSH2 0x3AE PUSH2 0x282 JUMP JUMPDEST JUMPDEST DUP2 CALLDATALOAD PUSH2 0x3BF DUP5 DUP3 PUSH1 0x20 DUP7 ADD PUSH2 0x358 JUMP JUMPDEST SWAP2 POP POP SWAP3 SWAP2 POP POP JUMP JUMPDEST PUSH1 0x0 PUSH1 0x20 DUP3 DUP5 SUB SLT ISZERO PUSH2 0x3DE JUMPI PUSH2 0x3DD PUSH2 0x278 JUMP JUMPDEST JUMPDEST PUSH1 0x0 DUP3 ADD CALLDATALOAD PUSH8 0xFFFFFFFFFFFFFFFF DUP2 GT ISZERO PUSH2 0x3FC JUMPI PUSH2 0x3FB PUSH2 0x27D JUMP JUMPDEST JUMPDEST PUSH2 0x408 DUP5 DUP3 DUP6 ADD PUSH2 0x39A JUMP JUMPDEST SWAP2 POP POP SWAP3 SWAP2 POP POP JUMP JUMPDEST PUSH1 0x0 DUP2 MLOAD SWAP1 POP SWAP2 SWAP1 POP JUMP JUMPDEST PUSH1 0x0 DUP3 DUP3 MSTORE PUSH1 0x20 DUP3 ADD SWAP1 POP SWAP3 SWAP2 POP POP JUMP JUMPDEST PUSH1 0x0 DUP2 SWAP1 POP PUSH1 0x20 DUP3 ADD SWAP1 POP SWAP2 SWAP1 POP JUMP JUMPDEST PUSH1 0x0 DUP2 MLOAD SWAP1 POP SWAP2 SWAP1 POP JUMP JUMPDEST PUSH1 0x0 DUP3 DUP3 MSTORE PUSH1 0x20 DUP3 ADD SWAP1 POP SWAP3 SWAP2 POP POP JUMP JUMPDEST PUSH1 0x0 JUMPDEST DUP4 DUP2 LT ISZERO PUSH2 0x477 JUMPI DUP1 DUP3 ADD MLOAD DUP2 DUP5 ADD MSTORE PUSH1 0x20 DUP2 ADD SWAP1 POP PUSH2 0x45C JUMP JUMPDEST PUSH1 0x0 DUP5 DUP5 ADD MSTORE POP POP POP POP JUMP JUMPDEST PUSH1 0x0 PUSH2 0x48E DUP3 PUSH2 0x43D JUMP JUMPDEST PUSH2 0x498 DUP2 DUP6 PUSH2 0x448 JUMP JUMPDEST SWAP4 POP PUSH2 0x4A8 DUP2 DUP6 PUSH1 0x20 DUP7 ADD PUSH2 0x459 JUMP JUMPDEST PUSH2 0x4B1 DUP2 PUSH2 0x28C JUMP JUMPDEST DUP5 ADD SWAP2 POP POP SWAP3 SWAP2 POP POP JUMP JUMPDEST PUSH1 0x0 PUSH20 0xFFFFFFFFFFFFFFFFFFFFFFFFFFFFFFFFFFFFFFFF DUP3 AND SWAP1 POP SWAP2 SWAP1 POP JUMP JUMPDEST PUSH1 0x0 PUSH2 0x4E7 DUP3 PUSH2 0x4BC JUMP JUMPDEST SWAP1 POP SWAP2 SWAP1 POP JUMP JUMPDEST PUSH2 0x4F7 DUP2 PUSH2 0x4DC JUMP JUMPDEST DUP3 MSTORE POP POP JUMP JUMPDEST PUSH1 0x0 PUSH1 0x40 DUP4 ADD PUSH1 0x0 DUP4 ADD MLOAD DUP5 DUP3 SUB PUSH1 0x0 DUP7 ADD MSTORE PUSH2 0x51A DUP3 DUP3 PUSH2 0x483 JUMP JUMPDEST SWAP2 POP POP PUSH1 0x20 DUP4 ADD MLOAD PUSH2 0x52F PUSH1 0x20 DUP7 ADD DUP3 PUSH2 0x4EE JUMP JUMPDEST POP DUP1 SWAP2 POP POP SWAP3 SWAP2 POP POP JUMP JUMPDEST PUSH1 0x0 PUSH2 0x546 DUP4 DUP4 PUSH2 0x4FD JUMP JUMPDEST SWAP1 POP SWAP3 SWAP2 POP POP JUMP JUMPDEST PUSH1 0x0 PUSH1 0x20 DUP3 ADD SWAP1 POP SWAP2 SWAP1 POP JUMP JUMPDEST PUSH1 0x0 PUSH2 0x566 DUP3 PUSH2 0x411 JUMP JUMPDEST PUSH2 0x570 DUP2 DUP6 PUSH2 0x41C JUMP JUMPDEST SWAP4 POP DUP4 PUSH1 0x20 DUP3 MUL DUP6 ADD PUSH2 0x582 DUP6 PUSH2 0x42D JUMP JUMPDEST DUP1 PUSH1 0x0 JUMPDEST DUP6 DUP2 LT ISZERO PUSH2 0x5BE JUMPI DUP5 DUP5 SUB DUP10 MSTORE DUP2 MLOAD PUSH2 0x59F DUP6 DUP3 PUSH2 0x53A JUMP JUMPDEST SWAP5 POP PUSH2 0x5AA DUP4 PUSH2 0x54E JUMP JUMPDEST SWAP3 POP PUSH1 0x20 DUP11 ADD SWAP10 POP POP PUSH1 0x1 DUP2 ADD SWAP1 POP PUSH2 0x586 JUMP JUMPDEST POP DUP3 SWAP8 POP DUP8 SWAP6 POP POP POP POP POP POP SWAP3 SWAP2 POP POP JUMP JUMPDEST PUSH1 0x0 PUSH1 0x20 DUP3 ADD SWAP1 POP DUP2 DUP2 SUB PUSH1 0x0 DUP4 ADD MSTORE PUSH2 0x5EA DUP2 DUP5 PUSH2 0x55B JUMP JUMPDEST SWAP1 POP SWAP3 SWAP2 POP POP JUMP JUMPDEST PUSH2 0x5FB DUP2 PUSH2 0x4DC JUMP JUMPDEST DUP3 MSTORE POP POP JUMP JUMPDEST PUSH1 0x0 PUSH1 0x20 DUP3 ADD SWAP1 POP PUSH2 0x616 PUSH1 0x0 DUP4 ADD DUP5 PUSH2 0x5F2 JUMP JUMPDEST SWAP3 SWAP2 POP POP JUMP JUMPDEST PUSH1 0x0 DUP2 SWAP1 POP SWAP3 SWAP2 POP POP JUMP JUMPDEST PUSH1 0x0 PUSH2 0x632 DUP3 PUSH2 0x43D JUMP JUMPDEST PUSH2 0x63C DUP2 DUP6 PUSH2 0x61C JUMP JUMPDEST SWAP4 POP PUSH2 0x64C DUP2 DUP6 PUSH1 0x20 DUP7 ADD PUSH2 0x459 JUMP JUMPDEST DUP1 DUP5 ADD SWAP2 POP POP SWAP3 SWAP2 POP POP JUMP JUMPDEST PUSH1 0x0 PUSH2 0x664 DUP3 DUP5 PUSH2 0x627 JUMP JUMPDEST SWAP2 POP DUP2 SWAP1 POP SWAP3 SWAP2 POP POP JUMP JUMPDEST PUSH32 0x4E487B7100000000000000000000000000000000000000000000000000000000 PUSH1 0x0 MSTORE PUSH1 0x22 PUSH1 0x4 MSTORE PUSH1 0x24 PUSH1 0x0 REVERT JUMPDEST PUSH1 0x0 PUSH1 0x2 DUP3 DIV SWAP1 POP PUSH1 0x1 DUP3 AND DUP1 PUSH2 0x6B6 JUMPI PUSH1 0x7F DUP3 AND SWAP2 POP JUMPDEST PUSH1 0x20 DUP3 LT DUP2 SUB PUSH2 0x6C9 JUMPI PUSH2 0x6C8 PUSH2 0x66F JUMP JUMPDEST JUMPDEST POP SWAP2 SWAP1 POP JUMP INVALID LOG2 PUSH5 0x6970667358 0x22 SLT KECCAK256 ADD 0xBB 0x28 PUSH27 0xF7A4047B93D3104D4E4DAD7EAC9A90BF53208CB5BADF3CCEB9678C DUP15 PUSH5 0x736F6C6343 STOP ADDMOD GT STOP CALLER PUSH1 0x80 PUSH1 0x40 MSTORE CALLVALUE DUP1 ISZERO PUSH3 0x11 JUMPI PUSH1 0x0 DUP1 REVERT JUMPDEST POP PUSH1 0x40 MLOAD PUSH3 0x1536 CODESIZE SUB DUP1 PUSH3 0x1536 DUP4 CODECOPY DUP2 DUP2 ADD PUSH1 0x40 MSTORE DUP2 ADD SWAP1 PUSH3 0x37 SWAP2 SWAP1 PUSH3 0xE9 JUMP JUMPDEST DUP1 PUSH1 0x1 PUSH1 0x0 PUSH2 0x100 EXP DUP2 SLOAD DUP2 PUSH20 0xFFFFFFFFFFFFFFFFFFFFFFFFFFFFFFFFFFFFFFFF MUL NOT AND SWAP1 DUP4 PUSH20 0xFFFFFFFFFFFFFFFFFFFFFFFFFFFFFFFFFFFFFFFF AND MUL OR SWAP1 SSTORE POP POP PUSH3 0x11B JUMP JUMPDEST PUSH1 0x0 DUP1 REVERT JUMPDEST PUSH1 0x0 PUSH20 0xFFFFFFFFFFFFFFFFFFFFFFFFFFFFFFFFFFFFFFFF DUP3 AND SWAP1 POP SWAP2 SWAP1 POP JUMP JUMPDEST PUSH1 0x0 PUSH3 0xB1 DUP3 PUSH3 0x84 JUMP JUMPDEST SWAP1 POP SWAP2 SWAP1 POP JUMP JUMPDEST PUSH3 0xC3 DUP2 PUSH3 0xA4 JUMP JUMPDEST DUP2 EQ PUSH3 0xCF JUMPI PUSH1 0x0 DUP1 REVERT JUMPDEST POP JUMP JUMPDEST PUSH1 0x0 DUP2 MLOAD SWAP1 POP PUSH3 0xE3 DUP2 PUSH3 0xB8 JUMP JUMPDEST SWAP3 SWAP2 POP POP JUMP JUMPDEST PUSH1 0x0 PUSH1 0x20 DUP3 DUP5 SUB SLT ISZERO PUSH3 0x102 JUMPI PUSH3 0x101 PUSH3 0x7F JUMP JUMPDEST JUMPDEST PUSH1 0x0 PUSH3 0x112 DUP5 DUP3 DUP6 ADD PUSH3 0xD2 JUMP JUMPDEST SWAP2 POP POP SWAP3 SWAP2 POP POP JUMP JUMPDEST PUSH2 0x140B DUP1 PUSH3 0x12B PUSH1 0x0 CODECOPY PUSH1 0x0 RETURN INVALID PUSH1 0x80 PUSH1 0x40 MSTORE CALLVALUE DUP1 ISZERO PUSH2 0x10 JUMPI PUSH1 0x0 DUP1 REVERT JUMPDEST POP PUSH1 0x4 CALLDATASIZE LT PUSH2 0x62 JUMPI PUSH1 0x0 CALLDATALOAD PUSH1 0xE0 SHR DUP1 PUSH4 0x1107747E EQ PUSH2 0x67 JUMPI DUP1 PUSH4 0x26C01F7D EQ PUSH2 0x83 JUMPI DUP1 PUSH4 0x48E81852 EQ PUSH2 0x9F JUMPI DUP1 PUSH4 0x52A6042D EQ PUSH2 0xCF JUMPI DUP1 PUSH4 0x5DB185C7 EQ PUSH2 0xEB JUMPI DUP1 PUSH4 0x7621DF6F EQ PUSH2 0x107 JUMPI JUMPDEST PUSH1 0x0 DUP1 REVERT JUMPDEST PUSH2 0x81 PUSH1 0x4 DUP1 CALLDATASIZE SUB DUP2 ADD SWAP1 PUSH2 0x7C SWAP2 SWAP1 PUSH2 0xB10 JUMP JUMPDEST PUSH2 0x123 JUMP JUMPDEST STOP JUMPDEST PUSH2 0x9D PUSH1 0x4 DUP1 CALLDATASIZE SUB DUP2 ADD SWAP1 PUSH2 0x98 SWAP2 SWAP1 PUSH2 0xCB9 JUMP JUMPDEST PUSH2 0x167 JUMP JUMPDEST STOP JUMPDEST PUSH2 0xB9 PUSH1 0x4 DUP1 CALLDATASIZE SUB DUP2 ADD SWAP1 PUSH2 0xB4 SWAP2 SWAP1 PUSH2 0xB10 JUMP JUMPDEST PUSH2 0x401 JUMP JUMPDEST PUSH1 0x40 MLOAD PUSH2 0xC6 SWAP2 SWAP1 PUSH2 0xF64 JUMP JUMPDEST PUSH1 0x40 MLOAD DUP1 SWAP2 SUB SWAP1 RETURN JUMPDEST PUSH2 0xE9 PUSH1 0x4 DUP1 CALLDATASIZE SUB DUP2 ADD SWAP1 PUSH2 0xE4 SWAP2 SWAP1 PUSH2 0xCB9 JUMP JUMPDEST PUSH2 0x917 JUMP JUMPDEST STOP JUMPDEST PUSH2 0x105 PUSH1 0x4 DUP1 CALLDATASIZE SUB DUP2 ADD SWAP1 PUSH2 0x100 SWAP2 SWAP1 PUSH2 0xB10 JUMP JUMPDEST PUSH2 0x9D9 JUMP JUMPDEST STOP JUMPDEST PUSH2 0x121 PUSH1 0x4 DUP1 CALLDATASIZE SUB DUP2 ADD SWAP1 PUSH2 0x11C SWAP2 SWAP1 PUSH2 0xB10 JUMP JUMPDEST PUSH2 0xA1D JUMP JUMPDEST STOP JUMPDEST DUP1 PUSH1 0x2 PUSH1 0x0 PUSH2 0x100 EXP DUP2 SLOAD DUP2 PUSH20 0xFFFFFFFFFFFFFFFFFFFFFFFFFFFFFFFFFFFFFFFF MUL NOT AND SWAP1 DUP4 PUSH20 0xFFFFFFFFFFFFFFFFFFFFFFFFFFFFFFFFFFFFFFFF AND MUL OR SWAP1 SSTORE POP POP JUMP JUMPDEST PUSH1 0x2 PUSH1 0x0 SWAP1 SLOAD SWAP1 PUSH2 0x100 EXP SWAP1 DIV PUSH20 0xFFFFFFFFFFFFFFFFFFFFFFFFFFFFFFFFFFFFFFFF AND PUSH20 0xFFFFFFFFFFFFFFFFFFFFFFFFFFFFFFFFFFFFFFFF AND PUSH4 0x63A9C3D7 CALLER PUSH1 0x40 MLOAD DUP3 PUSH4 0xFFFFFFFF AND PUSH1 0xE0 SHL DUP2 MSTORE PUSH1 0x4 ADD PUSH2 0x1C2 SWAP2 SWAP1 PUSH2 0xF95 JUMP JUMPDEST PUSH1 0x20 PUSH1 0x40 MLOAD DUP1 DUP4 SUB DUP2 DUP7 GAS STATICCALL ISZERO DUP1 ISZERO PUSH2 0x1DF JUMPI RETURNDATASIZE PUSH1 0x0 DUP1 RETURNDATACOPY RETURNDATASIZE PUSH1 0x0 REVERT JUMPDEST POP POP POP POP PUSH1 0x40 MLOAD RETURNDATASIZE PUSH1 0x1F NOT PUSH1 0x1F DUP3 ADD AND DUP3 ADD DUP1 PUSH1 0x40 MSTORE POP DUP2 ADD SWAP1 PUSH2 0x203 SWAP2 SWAP1 PUSH2 0xFE8 JUMP JUMPDEST PUSH2 0x20C JUMPI PUSH1 0x0 DUP1 REVERT JUMPDEST PUSH1 0x0 DUP1 PUSH1 0x0 DUP11 PUSH20 0xFFFFFFFFFFFFFFFFFFFFFFFFFFFFFFFFFFFFFFFF AND PUSH20 0xFFFFFFFFFFFFFFFFFFFFFFFFFFFFFFFFFFFFFFFF AND DUP2 MSTORE PUSH1 0x20 ADD SWAP1 DUP2 MSTORE PUSH1 0x20 ADD PUSH1 0x0 KECCAK256 SWAP1 POP DUP8 DUP2 PUSH1 0x0 ADD SWAP1 DUP2 PUSH2 0x25F SWAP2 SWAP1 PUSH2 0x1221 JUMP JUMPDEST POP DUP7 DUP2 PUSH1 0x1 ADD DUP2 SWAP1 SSTORE POP DUP6 DUP2 PUSH1 0x2 ADD SWAP1 DUP2 PUSH2 0x27A SWAP2 SWAP1 PUSH2 0x1221 JUMP JUMPDEST POP DUP5 DUP2 PUSH1 0x3 ADD SWAP1 DUP2 PUSH2 0x28C SWAP2 SWAP1 PUSH2 0x1221 JUMP JUMPDEST POP DUP4 DUP2 PUSH1 0x4 ADD SWAP1 DUP2 PUSH2 0x29E SWAP2 SWAP1 PUSH2 0x1221 JUMP JUMPDEST POP DUP3 DUP2 PUSH1 0x5 ADD SWAP1 DUP2 PUSH2 0x2B0 SWAP2 SWAP1 PUSH2 0x1221 JUMP JUMPDEST POP DUP2 DUP2 PUSH1 0x6 ADD SWAP1 DUP2 PUSH2 0x2C2 SWAP2 SWAP1 PUSH2 0x1221 JUMP JUMPDEST POP PUSH1 0x3 PUSH1 0x0 SWAP1 SLOAD SWAP1 PUSH2 0x100 EXP SWAP1 DIV PUSH20 0xFFFFFFFFFFFFFFFFFFFFFFFFFFFFFFFFFFFFFFFF AND PUSH20 0xFFFFFFFFFFFFFFFFFFFFFFFFFFFFFFFFFFFFFFFF AND PUSH4 0x6D263CEB DUP11 PUSH1 0x40 MLOAD DUP3 PUSH4 0xFFFFFFFF AND PUSH1 0xE0 SHL DUP2 MSTORE PUSH1 0x4 ADD PUSH2 0x31E SWAP2 SWAP1 PUSH2 0xF95 JUMP JUMPDEST PUSH1 0x0 PUSH1 0x40 MLOAD DUP1 DUP4 SUB DUP2 PUSH1 0x0 DUP8 GAS CALL ISZERO DUP1 ISZERO PUSH2 0x33D JUMPI RETURNDATASIZE PUSH1 0x0 DUP1 RETURNDATACOPY RETURNDATASIZE PUSH1 0x0 REVERT JUMPDEST POP POP POP POP PUSH1 0x40 MLOAD RETURNDATASIZE PUSH1 0x0 DUP3 RETURNDATACOPY RETURNDATASIZE PUSH1 0x1F NOT PUSH1 0x1F DUP3 ADD AND DUP3 ADD DUP1 PUSH1 0x40 MSTORE POP DUP2 ADD SWAP1 PUSH2 0x366 SWAP2 SWAP1 PUSH2 0x1363 JUMP JUMPDEST POP PUSH1 0x4 PUSH1 0x0 SWAP1 SLOAD SWAP1 PUSH2 0x100 EXP SWAP1 DIV PUSH20 0xFFFFFFFFFFFFFFFFFFFFFFFFFFFFFFFFFFFFFFFF AND PUSH20 0xFFFFFFFFFFFFFFFFFFFFFFFFFFFFFFFFFFFFFFFF AND PUSH4 0x8BFC8C71 CALLER DUP12 PUSH1 0x40 MLOAD DUP4 PUSH4 0xFFFFFFFF AND PUSH1 0xE0 SHL DUP2 MSTORE PUSH1 0x4 ADD PUSH2 0x3C4 SWAP3 SWAP2 SWAP1 PUSH2 0x13AC JUMP JUMPDEST PUSH1 0x0 PUSH1 0x40 MLOAD DUP1 DUP4 SUB DUP2 PUSH1 0x0 DUP8 DUP1 EXTCODESIZE ISZERO DUP1 ISZERO PUSH2 0x3DE JUMPI PUSH1 0x0 DUP1 REVERT JUMPDEST POP GAS CALL ISZERO DUP1 ISZERO PUSH2 0x3F2 JUMPI RETURNDATASIZE PUSH1 0x0 DUP1 RETURNDATACOPY RETURNDATASIZE PUSH1 0x0 REVERT JUMPDEST POP POP POP POP POP POP POP POP POP POP POP POP POP JUMP JUMPDEST PUSH2 0x409 PUSH2 0xA61 JUMP JUMPDEST PUSH1 0x2 PUSH1 0x0 SWAP1 SLOAD SWAP1 PUSH2 0x100 EXP SWAP1 DIV PUSH20 0xFFFFFFFFFFFFFFFFFFFFFFFFFFFFFFFFFFFFFFFF AND PUSH20 0xFFFFFFFFFFFFFFFFFFFFFFFFFFFFFFFFFFFFFFFF AND PUSH4 0x63A9C3D7 CALLER PUSH1 0x40 MLOAD DUP3 PUSH4 0xFFFFFFFF AND PUSH1 0xE0 SHL DUP2 MSTORE PUSH1 0x4 ADD PUSH2 0x464 SWAP2 SWAP1 PUSH2 0xF95 JUMP JUMPDEST PUSH1 0x20 PUSH1 0x40 MLOAD DUP1 DUP4 SUB DUP2 DUP7 GAS STATICCALL ISZERO DUP1 ISZERO PUSH2 0x481 JUMPI RETURNDATASIZE PUSH1 0x0 DUP1 RETURNDATACOPY RETURNDATASIZE PUSH1 0x0 REVERT JUMPDEST POP POP POP POP PUSH1 0x40 MLOAD RETURNDATASIZE PUSH1 0x1F NOT PUSH1 0x1F DUP3 ADD AND DUP3 ADD DUP1 PUSH1 0x40 MSTORE POP DUP2 ADD SWAP1 PUSH2 0x4A5 SWAP2 SWAP1 PUSH2 0xFE8 JUMP JUMPDEST DUP1 PUSH2 0x548 JUMPI POP PUSH1 0x3 PUSH1 0x0 SWAP1 SLOAD SWAP1 PUSH2 0x100 EXP SWAP1 DIV PUSH20 0xFFFFFFFFFFFFFFFFFFFFFFFFFFFFFFFFFFFFFFFF AND PUSH20 0xFFFFFFFFFFFFFFFFFFFFFFFFFFFFFFFFFFFFFFFF AND PUSH4 0x63A9C3D7 CALLER PUSH1 0x40 MLOAD DUP3 PUSH4 0xFFFFFFFF AND PUSH1 0xE0 SHL DUP2 MSTORE PUSH1 0x4 ADD PUSH2 0x506 SWAP2 SWAP1 PUSH2 0xF95 JUMP JUMPDEST PUSH1 0x20 PUSH1 0x40 MLOAD DUP1 DUP4 SUB DUP2 DUP7 GAS STATICCALL ISZERO DUP1 ISZERO PUSH2 0x523 JUMPI RETURNDATASIZE PUSH1 0x0 DUP1 RETURNDATACOPY RETURNDATASIZE PUSH1 0x0 REVERT JUMPDEST POP POP POP POP PUSH1 0x40 MLOAD RETURNDATASIZE PUSH1 0x1F NOT PUSH1 0x1F DUP3 ADD AND DUP3 ADD DUP1 PUSH1 0x40 MSTORE POP DUP2 ADD SWAP1 PUSH2 0x547 SWAP2 SWAP1 PUSH2 0xFE8 JUMP JUMPDEST JUMPDEST PUSH2 0x551 JUMPI PUSH1 0x0 DUP1 REVERT JUMPDEST PUSH1 0x0 DUP1 DUP4 PUSH20 0xFFFFFFFFFFFFFFFFFFFFFFFFFFFFFFFFFFFFFFFF AND PUSH20 0xFFFFFFFFFFFFFFFFFFFFFFFFFFFFFFFFFFFFFFFF AND DUP2 MSTORE PUSH1 0x20 ADD SWAP1 DUP2 MSTORE PUSH1 0x20 ADD PUSH1 0x0 KECCAK256 PUSH1 0x40 MLOAD DUP1 PUSH1 0xE0 ADD PUSH1 0x40 MSTORE SWAP1 DUP2 PUSH1 0x0 DUP3 ADD DUP1 SLOAD PUSH2 0x5AA SWAP1 PUSH2 0x1044 JUMP JUMPDEST DUP1 PUSH1 0x1F ADD PUSH1 0x20 DUP1 SWAP2 DIV MUL PUSH1 0x20 ADD PUSH1 0x40 MLOAD SWAP1 DUP2 ADD PUSH1 0x40 MSTORE DUP1 SWAP3 SWAP2 SWAP1 DUP2 DUP2 MSTORE PUSH1 0x20 ADD DUP3 DUP1 SLOAD PUSH2 0x5D6 SWAP1 PUSH2 0x1044 JUMP JUMPDEST DUP1 ISZERO PUSH2 0x623 JUMPI DUP1 PUSH1 0x1F LT PUSH2 0x5F8 JUMPI PUSH2 0x100 DUP1 DUP4 SLOAD DIV MUL DUP4 MSTORE SWAP2 PUSH1 0x20 ADD SWAP2 PUSH2 0x623 JUMP JUMPDEST DUP3 ADD SWAP2 SWAP1 PUSH1 0x0 MSTORE PUSH1 0x20 PUSH1 0x0 KECCAK256 SWAP1 JUMPDEST DUP2 SLOAD DUP2 MSTORE SWAP1 PUSH1 0x1 ADD SWAP1 PUSH1 0x20 ADD DUP1 DUP4 GT PUSH2 0x606 JUMPI DUP3 SWAP1 SUB PUSH1 0x1F AND DUP3 ADD SWAP2 JUMPDEST POP POP POP POP POP DUP2 MSTORE PUSH1 0x20 ADD PUSH1 0x1 DUP3 ADD SLOAD DUP2 MSTORE PUSH1 0x20 ADD PUSH1 0x2 DUP3 ADD DUP1 SLOAD PUSH2 0x646 SWAP1 PUSH2 0x1044 JUMP JUMPDEST DUP1 PUSH1 0x1F ADD PUSH1 0x20 DUP1 SWAP2 DIV MUL PUSH1 0x20 ADD PUSH1 0x40 MLOAD SWAP1 DUP2 ADD PUSH1 0x40 MSTORE DUP1 SWAP3 SWAP2 SWAP1 DUP2 DUP2 MSTORE PUSH1 0x20 ADD DUP3 DUP1 SLOAD PUSH2 0x672 SWAP1 PUSH2 0x1044 JUMP JUMPDEST DUP1 ISZERO PUSH2 0x6BF JUMPI DUP1 PUSH1 0x1F LT PUSH2 0x694 JUMPI PUSH2 0x100 DUP1 DUP4 SLOAD DIV MUL DUP4 MSTORE SWAP2 PUSH1 0x20 ADD SWAP2 PUSH2 0x6BF JUMP JUMPDEST DUP3 ADD SWAP2 SWAP1 PUSH1 0x0 MSTORE PUSH1 0x20 PUSH1 0x0 KECCAK256 SWAP1 JUMPDEST DUP2 SLOAD DUP2 MSTORE SWAP1 PUSH1 0x1 ADD SWAP1 PUSH1 0x20 ADD DUP1 DUP4 GT PUSH2 0x6A2 JUMPI DUP3 SWAP1 SUB PUSH1 0x1F AND DUP3 ADD SWAP2 JUMPDEST POP POP POP POP POP DUP2 MSTORE PUSH1 0x20 ADD PUSH1 0x3 DUP3 ADD DUP1 SLOAD PUSH2 0x6D8 SWAP1 PUSH2 0x1044 JUMP JUMPDEST DUP1 PUSH1 0x1F ADD PUSH1 0x20 DUP1 SWAP2 DIV MUL PUSH1 0x20 ADD PUSH1 0x40 MLOAD SWAP1 DUP2 ADD PUSH1 0x40 MSTORE DUP1 SWAP3 SWAP2 SWAP1 DUP2 DUP2 MSTORE PUSH1 0x20 ADD DUP3 DUP1 SLOAD PUSH2 0x704 SWAP1 PUSH2 0x1044 JUMP JUMPDEST DUP1 ISZERO PUSH2 0x751 JUMPI DUP1 PUSH1 0x1F LT PUSH2 0x726 JUMPI PUSH2 0x100 DUP1 DUP4 SLOAD DIV MUL DUP4 MSTORE SWAP2 PUSH1 0x20 ADD SWAP2 PUSH2 0x751 JUMP JUMPDEST DUP3 ADD SWAP2 SWAP1 PUSH1 0x0 MSTORE PUSH1 0x20 PUSH1 0x0 KECCAK256 SWAP1 JUMPDEST DUP2 SLOAD DUP2 MSTORE SWAP1 PUSH1 0x1 ADD SWAP1 PUSH1 0x20 ADD DUP1 DUP4 GT PUSH2 0x734 JUMPI DUP3 SWAP1 SUB PUSH1 0x1F AND DUP3 ADD SWAP2 JUMPDEST POP POP POP POP POP DUP2 MSTORE PUSH1 0x20 ADD PUSH1 0x4 DUP3 ADD DUP1 SLOAD PUSH2 0x76A SWAP1 PUSH2 0x1044 JUMP JUMPDEST DUP1 PUSH1 0x1F ADD PUSH1 0x20 DUP1 SWAP2 DIV MUL PUSH1 0x20 ADD PUSH1 0x40 MLOAD SWAP1 DUP2 ADD PUSH1 0x40 MSTORE DUP1 SWAP3 SWAP2 SWAP1 DUP2 DUP2 MSTORE PUSH1 0x20 ADD DUP3 DUP1 SLOAD PUSH2 0x796 SWAP1 PUSH2 0x1044 JUMP JUMPDEST DUP1 ISZERO PUSH2 0x7E3 JUMPI DUP1 PUSH1 0x1F LT PUSH2 0x7B8 JUMPI PUSH2 0x100 DUP1 DUP4 SLOAD DIV MUL DUP4 MSTORE SWAP2 PUSH1 0x20 ADD SWAP2 PUSH2 0x7E3 JUMP JUMPDEST DUP3 ADD SWAP2 SWAP1 PUSH1 0x0 MSTORE PUSH1 0x20 PUSH1 0x0 KECCAK256 SWAP1 JUMPDEST DUP2 SLOAD DUP2 MSTORE SWAP1 PUSH1 0x1 ADD SWAP1 PUSH1 0x20 ADD DUP1 DUP4 GT PUSH2 0x7C6 JUMPI DUP3 SWAP1 SUB PUSH1 0x1F AND DUP3 ADD SWAP2 JUMPDEST POP POP POP POP POP DUP2 MSTORE PUSH1 0x20 ADD PUSH1 0x5 DUP3 ADD DUP1 SLOAD PUSH2 0x7FC SWAP1 PUSH2 0x1044 JUMP JUMPDEST DUP1 PUSH1 0x1F ADD PUSH1 0x20 DUP1 SWAP2 DIV MUL PUSH1 0x20 ADD PUSH1 0x40 MLOAD SWAP1 DUP2 ADD PUSH1 0x40 MSTORE DUP1 SWAP3 SWAP2 SWAP1 DUP2 DUP2 MSTORE PUSH1 0x20 ADD DUP3 DUP1 SLOAD PUSH2 0x828 SWAP1 PUSH2 0x1044 JUMP JUMPDEST DUP1 ISZERO PUSH2 0x875 JUMPI DUP1 PUSH1 0x1F LT PUSH2 0x84A JUMPI PUSH2 0x100 DUP1 DUP4 SLOAD DIV MUL DUP4 MSTORE SWAP2 PUSH1 0x20 ADD SWAP2 PUSH2 0x875 JUMP JUMPDEST DUP3 ADD SWAP2 SWAP1 PUSH1 0x0 MSTORE PUSH1 0x20 PUSH1 0x0 KECCAK256 SWAP1 JUMPDEST DUP2 SLOAD DUP2 MSTORE SWAP1 PUSH1 0x1 ADD SWAP1 PUSH1 0x20 ADD DUP1 DUP4 GT PUSH2 0x858 JUMPI DUP3 SWAP1 SUB PUSH1 0x1F AND DUP3 ADD SWAP2 JUMPDEST POP POP POP POP POP DUP2 MSTORE PUSH1 0x20 ADD PUSH1 0x6 DUP3 ADD DUP1 SLOAD PUSH2 0x88E SWAP1 PUSH2 0x1044 JUMP JUMPDEST DUP1 PUSH1 0x1F ADD PUSH1 0x20 DUP1 SWAP2 DIV MUL PUSH1 0x20 ADD PUSH1 0x40 MLOAD SWAP1 DUP2 ADD PUSH1 0x40 MSTORE DUP1 SWAP3 SWAP2 SWAP1 DUP2 DUP2 MSTORE PUSH1 0x20 ADD DUP3 DUP1 SLOAD PUSH2 0x8BA SWAP1 PUSH2 0x1044 JUMP JUMPDEST DUP1 ISZERO PUSH2 0x907 JUMPI DUP1 PUSH1 0x1F LT PUSH2 0x8DC JUMPI PUSH2 0x100 DUP1 DUP4 SLOAD DIV MUL DUP4 MSTORE SWAP2 PUSH1 0x20 ADD SWAP2 PUSH2 0x907 JUMP JUMPDEST DUP3 ADD SWAP2 SWAP1 PUSH1 0x0 MSTORE PUSH1 0x20 PUSH1 0x0 KECCAK256 SWAP1 JUMPDEST DUP2 SLOAD DUP2 MSTORE SWAP1 PUSH1 0x1 ADD SWAP1 PUSH1 0x20 ADD DUP1 DUP4 GT PUSH2 0x8EA JUMPI DUP3 SWAP1 SUB PUSH1 0x1F AND DUP3 ADD SWAP2 JUMPDEST POP POP POP POP POP DUP2 MSTORE POP POP SWAP1 POP SWAP2 SWAP1 POP JUMP JUMPDEST PUSH1 0x0 DUP1 PUSH1 0x0 DUP11 PUSH20 0xFFFFFFFFFFFFFFFFFFFFFFFFFFFFFFFFFFFFFFFF AND PUSH20 0xFFFFFFFFFFFFFFFFFFFFFFFFFFFFFFFFFFFFFFFF AND DUP2 MSTORE PUSH1 0x20 ADD SWAP1 DUP2 MSTORE PUSH1 0x20 ADD PUSH1 0x0 KECCAK256 SWAP1 POP DUP8 DUP2 PUSH1 0x0 ADD SWAP1 DUP2 PUSH2 0x96A SWAP2 SWAP1 PUSH2 0x1221 JUMP JUMPDEST POP DUP7 DUP2 PUSH1 0x1 ADD DUP2 SWAP1 SSTORE POP DUP6 DUP2 PUSH1 0x2 ADD SWAP1 DUP2 PUSH2 0x985 SWAP2 SWAP1 PUSH2 0x1221 JUMP JUMPDEST POP DUP5 DUP2 PUSH1 0x3 ADD SWAP1 DUP2 PUSH2 0x997 SWAP2 SWAP1 PUSH2 0x1221 JUMP JUMPDEST POP DUP4 DUP2 PUSH1 0x4 ADD SWAP1 DUP2 PUSH2 0x9A9 SWAP2 SWAP1 PUSH2 0x1221 JUMP JUMPDEST POP DUP3 DUP2 PUSH1 0x5 ADD SWAP1 DUP2 PUSH2 0x9BB SWAP2 SWAP1 PUSH2 0x1221 JUMP JUMPDEST POP DUP2 DUP2 PUSH1 0x6 ADD SWAP1 DUP2 PUSH2 0x9CD SWAP2 SWAP1 PUSH2 0x1221 JUMP JUMPDEST POP POP POP POP POP POP POP POP POP POP JUMP JUMPDEST DUP1 PUSH1 0x3 PUSH1 0x0 PUSH2 0x100 EXP DUP2 SLOAD DUP2 PUSH20 0xFFFFFFFFFFFFFFFFFFFFFFFFFFFFFFFFFFFFFFFF MUL NOT AND SWAP1 DUP4 PUSH20 0xFFFFFFFFFFFFFFFFFFFFFFFFFFFFFFFFFFFFFFFF AND MUL OR SWAP1 SSTORE POP POP JUMP JUMPDEST DUP1 PUSH1 0x4 PUSH1 0x0 PUSH2 0x100 EXP DUP2 SLOAD DUP2 PUSH20 0xFFFFFFFFFFFFFFFFFFFFFFFFFFFFFFFFFFFFFFFF MUL NOT AND SWAP1 DUP4 PUSH20 0xFFFFFFFFFFFFFFFFFFFFFFFFFFFFFFFFFFFFFFFF AND MUL OR SWAP1 SSTORE POP POP JUMP JUMPDEST PUSH1 0x40 MLOAD DUP1 PUSH1 0xE0 ADD PUSH1 0x40 MSTORE DUP1 PUSH1 0x60 DUP2 MSTORE PUSH1 0x20 ADD PUSH1 0x0 DUP2 MSTORE PUSH1 0x20 ADD PUSH1 0x60 DUP2 MSTORE PUSH1 0x20 ADD PUSH1 0x60 DUP2 MSTORE PUSH1 0x20 ADD PUSH1 0x60 DUP2 MSTORE PUSH1 0x20 ADD PUSH1 0x60 DUP2 MSTORE PUSH1 0x20 ADD PUSH1 0x60 DUP2 MSTORE POP SWAP1 JUMP JUMPDEST PUSH1 0x0 PUSH1 0x40 MLOAD SWAP1 POP SWAP1 JUMP JUMPDEST PUSH1 0x0 DUP1 REVERT JUMPDEST PUSH1 0x0 DUP1 REVERT JUMPDEST PUSH1 0x0 PUSH20 0xFFFFFFFFFFFFFFFFFFFFFFFFFFFFFFFFFFFFFFFF DUP3 AND SWAP1 POP SWAP2 SWAP1 POP JUMP JUMPDEST PUSH1 0x0 PUSH2 0xADD DUP3 PUSH2 0xAB2 JUMP JUMPDEST SWAP1 POP SWAP2 SWAP1 POP JUMP JUMPDEST PUSH2 0xAED DUP2 PUSH2 0xAD2 JUMP JUMPDEST DUP2 EQ PUSH2 0xAF8 JUMPI PUSH1 0x0 DUP1 REVERT JUMPDEST POP JUMP JUMPDEST PUSH1 0x0 DUP2 CALLDATALOAD SWAP1 POP PUSH2 0xB0A DUP2 PUSH2 0xAE4 JUMP JUMPDEST SWAP3 SWAP2 POP POP JUMP JUMPDEST PUSH1 0x0 PUSH1 0x20 DUP3 DUP5 SUB SLT ISZERO PUSH2 0xB26 JUMPI PUSH2 0xB25 PUSH2 0xAA8 JUMP JUMPDEST JUMPDEST PUSH1 0x0 PUSH2 0xB34 DUP5 DUP3 DUP6 ADD PUSH2 0xAFB JUMP JUMPDEST SWAP2 POP POP SWAP3 SWAP2 POP POP JUMP JUMPDEST PUSH1 0x0 DUP1 REVERT JUMPDEST PUSH1 0x0 DUP1 REVERT JUMPDEST PUSH1 0x0 PUSH1 0x1F NOT PUSH1 0x1F DUP4 ADD AND SWAP1 POP SWAP2 SWAP1 POP JUMP JUMPDEST PUSH32 0x4E487B7100000000000000000000000000000000000000000000000000000000 PUSH1 0x0 MSTORE PUSH1 0x41 PUSH1 0x4 MSTORE PUSH1 0x24 PUSH1 0x0 REVERT JUMPDEST PUSH2 0xB90 DUP3 PUSH2 0xB47 JUMP JUMPDEST DUP2 ADD DUP2 DUP2 LT PUSH8 0xFFFFFFFFFFFFFFFF DUP3 GT OR ISZERO PUSH2 0xBAF JUMPI PUSH2 0xBAE PUSH2 0xB58 JUMP JUMPDEST JUMPDEST DUP1 PUSH1 0x40 MSTORE POP POP POP JUMP JUMPDEST PUSH1 0x0 PUSH2 0xBC2 PUSH2 0xA9E JUMP JUMPDEST SWAP1 POP PUSH2 0xBCE DUP3 DUP3 PUSH2 0xB87 JUMP JUMPDEST SWAP2 SWAP1 POP JUMP JUMPDEST PUSH1 0x0 PUSH8 0xFFFFFFFFFFFFFFFF DUP3 GT ISZERO PUSH2 0xBEE JUMPI PUSH2 0xBED PUSH2 0xB58 JUMP JUMPDEST JUMPDEST PUSH2 0xBF7 DUP3 PUSH2 0xB47 JUMP JUMPDEST SWAP1 POP PUSH1 0x20 DUP2 ADD SWAP1 POP SWAP2 SWAP1 POP JUMP JUMPDEST DUP3 DUP2 DUP4 CALLDATACOPY PUSH1 0x0 DUP4 DUP4 ADD MSTORE POP POP POP JUMP JUMPDEST PUSH1 0x0 PUSH2 0xC26 PUSH2 0xC21 DUP5 PUSH2 0xBD3 JUMP JUMPDEST PUSH2 0xBB8 JUMP JUMPDEST SWAP1 POP DUP3 DUP2 MSTORE PUSH1 0x20 DUP2 ADD DUP5 DUP5 DUP5 ADD GT ISZERO PUSH2 0xC42 JUMPI PUSH2 0xC41 PUSH2 0xB42 JUMP JUMPDEST JUMPDEST PUSH2 0xC4D DUP5 DUP3 DUP6 PUSH2 0xC04 JUMP JUMPDEST POP SWAP4 SWAP3 POP POP POP JUMP JUMPDEST PUSH1 0x0 DUP3 PUSH1 0x1F DUP4 ADD SLT PUSH2 0xC6A JUMPI PUSH2 0xC69 PUSH2 0xB3D JUMP JUMPDEST JUMPDEST DUP2 CALLDATALOAD PUSH2 0xC7A DUP5 DUP3 PUSH1 0x20 DUP7 ADD PUSH2 0xC13 JUMP JUMPDEST SWAP2 POP POP SWAP3 SWAP2 POP POP JUMP JUMPDEST PUSH1 0x0 DUP2 SWAP1 POP SWAP2 SWAP1 POP JUMP JUMPDEST PUSH2 0xC96 DUP2 PUSH2 0xC83 JUMP JUMPDEST DUP2 EQ PUSH2 0xCA1 JUMPI PUSH1 0x0 DUP1 REVERT JUMPDEST POP JUMP JUMPDEST PUSH1 0x0 DUP2 CALLDATALOAD SWAP1 POP PUSH2 0xCB3 DUP2 PUSH2 0xC8D JUMP JUMPDEST SWAP3 SWAP2 POP POP JUMP JUMPDEST PUSH1 0x0 DUP1 PUSH1 0x0 DUP1 PUSH1 0x0 DUP1 PUSH1 0x0 DUP1 PUSH2 0x100 DUP10 DUP12 SUB SLT ISZERO PUSH2 0xCDA JUMPI PUSH2 0xCD9 PUSH2 0xAA8 JUMP JUMPDEST JUMPDEST PUSH1 0x0 PUSH2 0xCE8 DUP12 DUP3 DUP13 ADD PUSH2 0xAFB JUMP JUMPDEST SWAP9 POP POP PUSH1 0x20 DUP10 ADD CALLDATALOAD PUSH8 0xFFFFFFFFFFFFFFFF DUP2 GT ISZERO PUSH2 0xD09 JUMPI PUSH2 0xD08 PUSH2 0xAAD JUMP JUMPDEST JUMPDEST PUSH2 0xD15 DUP12 DUP3 DUP13 ADD PUSH2 0xC55 JUMP JUMPDEST SWAP8 POP POP PUSH1 0x40 PUSH2 0xD26 DUP12 DUP3 DUP13 ADD PUSH2 0xCA4 JUMP JUMPDEST SWAP7 POP POP PUSH1 0x60 DUP10 ADD CALLDATALOAD PUSH8 0xFFFFFFFFFFFFFFFF DUP2 GT ISZERO PUSH2 0xD47 JUMPI PUSH2 0xD46 PUSH2 0xAAD JUMP JUMPDEST JUMPDEST PUSH2 0xD53 DUP12 DUP3 DUP13 ADD PUSH2 0xC55 JUMP JUMPDEST SWAP6 POP POP PUSH1 0x80 DUP10 ADD CALLDATALOAD PUSH8 0xFFFFFFFFFFFFFFFF DUP2 GT ISZERO PUSH2 0xD74 JUMPI PUSH2 0xD73 PUSH2 0xAAD JUMP JUMPDEST JUMPDEST PUSH2 0xD80 DUP12 DUP3 DUP13 ADD PUSH2 0xC55 JUMP JUMPDEST SWAP5 POP POP PUSH1 0xA0 DUP10 ADD CALLDATALOAD PUSH8 0xFFFFFFFFFFFFFFFF DUP2 GT ISZERO PUSH2 0xDA1 JUMPI PUSH2 0xDA0 PUSH2 0xAAD JUMP JUMPDEST JUMPDEST PUSH2 0xDAD DUP12 DUP3 DUP13 ADD PUSH2 0xC55 JUMP JUMPDEST SWAP4 POP POP PUSH1 0xC0 DUP10 ADD CALLDATALOAD PUSH8 0xFFFFFFFFFFFFFFFF DUP2 GT ISZERO PUSH2 0xDCE JUMPI PUSH2 0xDCD PUSH2 0xAAD JUMP JUMPDEST JUMPDEST PUSH2 0xDDA DUP12 DUP3 DUP13 ADD PUSH2 0xC55 JUMP JUMPDEST SWAP3 POP POP PUSH1 0xE0 DUP10 ADD CALLDATALOAD PUSH8 0xFFFFFFFFFFFFFFFF DUP2 GT ISZERO PUSH2 0xDFB JUMPI PUSH2 0xDFA PUSH2 0xAAD JUMP JUMPDEST JUMPDEST PUSH2 0xE07 DUP12 DUP3 DUP13 ADD PUSH2 0xC55 JUMP JUMPDEST SWAP2 POP POP SWAP3 SWAP6 SWAP9 POP SWAP3 SWAP6 SWAP9 SWAP1 SWAP4 SWAP7 POP JUMP JUMPDEST PUSH1 0x0 DUP2 MLOAD SWAP1 POP SWAP2 SWAP1 POP JUMP JUMPDEST PUSH1 0x0 DUP3 DUP3 MSTORE PUSH1 0x20 DUP3 ADD SWAP1 POP SWAP3 SWAP2 POP POP JUMP JUMPDEST PUSH1 0x0 JUMPDEST DUP4 DUP2 LT ISZERO PUSH2 0xE51 JUMPI DUP1 DUP3 ADD MLOAD DUP2 DUP5 ADD MSTORE PUSH1 0x20 DUP2 ADD SWAP1 POP PUSH2 0xE36 JUMP JUMPDEST PUSH1 0x0 DUP5 DUP5 ADD MSTORE POP POP POP POP JUMP JUMPDEST PUSH1 0x0 PUSH2 0xE68 DUP3 PUSH2 0xE17 JUMP JUMPDEST PUSH2 0xE72 DUP2 DUP6 PUSH2 0xE22 JUMP JUMPDEST SWAP4 POP PUSH2 0xE82 DUP2 DUP6 PUSH1 0x20 DUP7 ADD PUSH2 0xE33 JUMP JUMPDEST PUSH2 0xE8B DUP2 PUSH2 0xB47 JUMP JUMPDEST DUP5 ADD SWAP2 POP POP SWAP3 SWAP2 POP POP JUMP JUMPDEST PUSH2 0xE9F DUP2 PUSH2 0xC83 JUMP JUMPDEST DUP3 MSTORE POP POP JUMP JUMPDEST PUSH1 0x0 PUSH1 0xE0 DUP4 ADD PUSH1 0x0 DUP4 ADD MLOAD DUP5 DUP3 SUB PUSH1 0x0 DUP7 ADD MSTORE PUSH2 0xEC2 DUP3 DUP3 PUSH2 0xE5D JUMP JUMPDEST SWAP2 POP POP PUSH1 0x20 DUP4 ADD MLOAD PUSH2 0xED7 PUSH1 0x20 DUP7 ADD DUP3 PUSH2 0xE96 JUMP JUMPDEST POP PUSH1 0x40 DUP4 ADD MLOAD DUP5 DUP3 SUB PUSH1 0x40 DUP7 ADD MSTORE PUSH2 0xEEF DUP3 DUP3 PUSH2 0xE5D JUMP JUMPDEST SWAP2 POP POP PUSH1 0x60 DUP4 ADD MLOAD DUP5 DUP3 SUB PUSH1 0x60 DUP7 ADD MSTORE PUSH2 0xF09 DUP3 DUP3 PUSH2 0xE5D JUMP JUMPDEST SWAP2 POP POP PUSH1 0x80 DUP4 ADD MLOAD DUP5 DUP3 SUB PUSH1 0x80 DUP7 ADD MSTORE PUSH2 0xF23 DUP3 DUP3 PUSH2 0xE5D JUMP JUMPDEST SWAP2 POP POP PUSH1 0xA0 DUP4 ADD MLOAD DUP5 DUP3 SUB PUSH1 0xA0 DUP7 ADD MSTORE PUSH2 0xF3D DUP3 DUP3 PUSH2 0xE5D JUMP JUMPDEST SWAP2 POP POP PUSH1 0xC0 DUP4 ADD MLOAD DUP5 DUP3 SUB PUSH1 0xC0 DUP7 ADD MSTORE PUSH2 0xF57 DUP3 DUP3 PUSH2 0xE5D JUMP JUMPDEST SWAP2 POP POP DUP1 SWAP2 POP POP SWAP3 SWAP2 POP POP JUMP JUMPDEST PUSH1 0x0 PUSH1 0x20 DUP3 ADD SWAP1 POP DUP2 DUP2 SUB PUSH1 0x0 DUP4 ADD MSTORE PUSH2 0xF7E DUP2 DUP5 PUSH2 0xEA5 JUMP JUMPDEST SWAP1 POP SWAP3 SWAP2 POP POP JUMP JUMPDEST PUSH2 0xF8F DUP2 PUSH2 0xAD2 JUMP JUMPDEST DUP3 MSTORE POP POP JUMP JUMPDEST PUSH1 0x0 PUSH1 0x20 DUP3 ADD SWAP1 POP PUSH2 0xFAA PUSH1 0x0 DUP4 ADD DUP5 PUSH2 0xF86 JUMP JUMPDEST SWAP3 SWAP2 POP POP JUMP JUMPDEST PUSH1 0x0 DUP2 ISZERO ISZERO SWAP1 POP SWAP2 SWAP1 POP JUMP JUMPDEST PUSH2 0xFC5 DUP2 PUSH2 0xFB0 JUMP JUMPDEST DUP2 EQ PUSH2 0xFD0 JUMPI PUSH1 0x0 DUP1 REVERT JUMPDEST POP JUMP JUMPDEST PUSH1 0x0 DUP2 MLOAD SWAP1 POP PUSH2 0xFE2 DUP2 PUSH2 0xFBC JUMP JUMPDEST SWAP3 SWAP2 POP POP JUMP JUMPDEST PUSH1 0x0 PUSH1 0x20 DUP3 DUP5 SUB SLT ISZERO PUSH2 0xFFE JUMPI PUSH2 0xFFD PUSH2 0xAA8 JUMP JUMPDEST JUMPDEST PUSH1 0x0 PUSH2 0x100C DUP5 DUP3 DUP6 ADD PUSH2 0xFD3 JUMP JUMPDEST SWAP2 POP POP SWAP3 SWAP2 POP POP JUMP JUMPDEST PUSH32 0x4E487B7100000000000000000000000000000000000000000000000000000000 PUSH1 0x0 MSTORE PUSH1 0x22 PUSH1 0x4 MSTORE PUSH1 0x24 PUSH1 0x0 REVERT JUMPDEST PUSH1 0x0 PUSH1 0x2 DUP3 DIV SWAP1 POP PUSH1 0x1 DUP3 AND DUP1 PUSH2 0x105C JUMPI PUSH1 0x7F DUP3 AND SWAP2 POP JUMPDEST PUSH1 0x20 DUP3 LT DUP2 SUB PUSH2 0x106F JUMPI PUSH2 0x106E PUSH2 0x1015 JUMP JUMPDEST JUMPDEST POP SWAP2 SWAP1 POP JUMP JUMPDEST PUSH1 0x0 DUP2 SWAP1 POP DUP2 PUSH1 0x0 MSTORE PUSH1 0x20 PUSH1 0x0 KECCAK256 SWAP1 POP SWAP2 SWAP1 POP JUMP JUMPDEST PUSH1 0x0 PUSH1 0x20 PUSH1 0x1F DUP4 ADD DIV SWAP1 POP SWAP2 SWAP1 POP JUMP JUMPDEST PUSH1 0x0 DUP3 DUP3 SHL SWAP1 POP SWAP3 SWAP2 POP POP JUMP JUMPDEST PUSH1 0x0 PUSH1 0x8 DUP4 MUL PUSH2 0x10D7 PUSH32 0xFFFFFFFFFFFFFFFFFFFFFFFFFFFFFFFFFFFFFFFFFFFFFFFFFFFFFFFFFFFFFFFF DUP3 PUSH2 0x109A JUMP JUMPDEST PUSH2 0x10E1 DUP7 DUP4 PUSH2 0x109A JUMP JUMPDEST SWAP6 POP DUP1 NOT DUP5 AND SWAP4 POP DUP1 DUP7 AND DUP5 OR SWAP3 POP POP POP SWAP4 SWAP3 POP POP POP JUMP JUMPDEST PUSH1 0x0 DUP2 SWAP1 POP SWAP2 SWAP1 POP JUMP JUMPDEST PUSH1 0x0 PUSH2 0x111E PUSH2 0x1119 PUSH2 0x1114 DUP5 PUSH2 0xC83 JUMP JUMPDEST PUSH2 0x10F9 JUMP JUMPDEST PUSH2 0xC83 JUMP JUMPDEST SWAP1 POP SWAP2 SWAP1 POP JUMP JUMPDEST PUSH1 0x0 DUP2 SWAP1 POP SWAP2 SWAP1 POP JUMP JUMPDEST PUSH2 0x1138 DUP4 PUSH2 0x1103 JUMP JUMPDEST PUSH2 0x114C PUSH2 0x1144 DUP3 PUSH2 0x1125 JUMP JUMPDEST DUP5 DUP5 SLOAD PUSH2 0x10A7 JUMP JUMPDEST DUP3 SSTORE POP POP POP POP JUMP JUMPDEST PUSH1 0x0 SWAP1 JUMP JUMPDEST PUSH2 0x1161 PUSH2 0x1154 JUMP JUMPDEST PUSH2 0x116C DUP2 DUP5 DUP5 PUSH2 0x112F JUMP JUMPDEST POP POP POP JUMP JUMPDEST JUMPDEST DUP2 DUP2 LT ISZERO PUSH2 0x1190 JUMPI PUSH2 0x1185 PUSH1 0x0 DUP3 PUSH2 0x1159 JUMP JUMPDEST PUSH1 0x1 DUP2 ADD SWAP1 POP PUSH2 0x1172 JUMP JUMPDEST POP POP JUMP JUMPDEST PUSH1 0x1F DUP3 GT ISZERO PUSH2 0x11D5 JUMPI PUSH2 0x11A6 DUP2 PUSH2 0x1075 JUMP JUMPDEST PUSH2 0x11AF DUP5 PUSH2 0x108A JUMP JUMPDEST DUP2 ADD PUSH1 0x20 DUP6 LT ISZERO PUSH2 0x11BE JUMPI DUP2 SWAP1 POP JUMPDEST PUSH2 0x11D2 PUSH2 0x11CA DUP6 PUSH2 0x108A JUMP JUMPDEST DUP4 ADD DUP3 PUSH2 0x1171 JUMP JUMPDEST POP POP JUMPDEST POP POP POP JUMP JUMPDEST PUSH1 0x0 DUP3 DUP3 SHR SWAP1 POP SWAP3 SWAP2 POP POP JUMP JUMPDEST PUSH1 0x0 PUSH2 0x11F8 PUSH1 0x0 NOT DUP5 PUSH1 0x8 MUL PUSH2 0x11DA JUMP JUMPDEST NOT DUP1 DUP4 AND SWAP2 POP POP SWAP3 SWAP2 POP POP JUMP JUMPDEST PUSH1 0x0 PUSH2 0x1211 DUP4 DUP4 PUSH2 0x11E7 JUMP JUMPDEST SWAP2 POP DUP3 PUSH1 0x2 MUL DUP3 OR SWAP1 POP SWAP3 SWAP2 POP POP JUMP JUMPDEST PUSH2 0x122A DUP3 PUSH2 0xE17 JUMP JUMPDEST PUSH8 0xFFFFFFFFFFFFFFFF DUP2 GT ISZERO PUSH2 0x1243 JUMPI PUSH2 0x1242 PUSH2 0xB58 JUMP JUMPDEST JUMPDEST PUSH2 0x124D DUP3 SLOAD PUSH2 0x1044 JUMP JUMPDEST PUSH2 0x1258 DUP3 DUP3 DUP6 PUSH2 0x1194 JUMP JUMPDEST PUSH1 0x0 PUSH1 0x20 SWAP1 POP PUSH1 0x1F DUP4 GT PUSH1 0x1 DUP2 EQ PUSH2 0x128B JUMPI PUSH1 0x0 DUP5 ISZERO PUSH2 0x1279 JUMPI DUP3 DUP8 ADD MLOAD SWAP1 POP JUMPDEST PUSH2 0x1283 DUP6 DUP3 PUSH2 0x1205 JUMP JUMPDEST DUP7 SSTORE POP PUSH2 0x12EB JUMP JUMPDEST PUSH1 0x1F NOT DUP5 AND PUSH2 0x1299 DUP7 PUSH2 0x1075 JUMP JUMPDEST PUSH1 0x0 JUMPDEST DUP3 DUP2 LT ISZERO PUSH2 0x12C1 JUMPI DUP5 DUP10 ADD MLOAD DUP3 SSTORE PUSH1 0x1 DUP3 ADD SWAP2 POP PUSH1 0x20 DUP6 ADD SWAP5 POP PUSH1 0x20 DUP2 ADD SWAP1 POP PUSH2 0x129C JUMP JUMPDEST DUP7 DUP4 LT ISZERO PUSH2 0x12DE JUMPI DUP5 DUP10 ADD MLOAD PUSH2 0x12DA PUSH1 0x1F DUP10 AND DUP3 PUSH2 0x11E7 JUMP JUMPDEST DUP4 SSTORE POP JUMPDEST PUSH1 0x1 PUSH1 0x2 DUP9 MUL ADD DUP9 SSTORE POP POP POP JUMPDEST POP POP POP POP POP POP JUMP JUMPDEST PUSH1 0x0 PUSH2 0x1306 PUSH2 0x1301 DUP5 PUSH2 0xBD3 JUMP JUMPDEST PUSH2 0xBB8 JUMP JUMPDEST SWAP1 POP DUP3 DUP2 MSTORE PUSH1 0x20 DUP2 ADD DUP5 DUP5 DUP5 ADD GT ISZERO PUSH2 0x1322 JUMPI PUSH2 0x1321 PUSH2 0xB42 JUMP JUMPDEST JUMPDEST PUSH2 0x132D DUP5 DUP3 DUP6 PUSH2 0xE33 JUMP JUMPDEST POP SWAP4 SWAP3 POP POP POP JUMP JUMPDEST PUSH1 0x0 DUP3 PUSH1 0x1F DUP4 ADD SLT PUSH2 0x134A JUMPI PUSH2 0x1349 PUSH2 0xB3D JUMP JUMPDEST JUMPDEST DUP2 MLOAD PUSH2 0x135A DUP5 DUP3 PUSH1 0x20 DUP7 ADD PUSH2 0x12F3 JUMP JUMPDEST SWAP2 POP POP SWAP3 SWAP2 POP POP JUMP JUMPDEST PUSH1 0x0 PUSH1 0x20 DUP3 DUP5 SUB SLT ISZERO PUSH2 0x1379 JUMPI PUSH2 0x1378 PUSH2 0xAA8 JUMP JUMPDEST JUMPDEST PUSH1 0x0 DUP3 ADD MLOAD PUSH8 0xFFFFFFFFFFFFFFFF DUP2 GT ISZERO PUSH2 0x1397 JUMPI PUSH2 0x1396 PUSH2 0xAAD JUMP JUMPDEST JUMPDEST PUSH2 0x13A3 DUP5 DUP3 DUP6 ADD PUSH2 0x1335 JUMP JUMPDEST SWAP2 POP POP SWAP3 SWAP2 POP POP JUMP JUMPDEST PUSH1 0x0 PUSH1 0x40 DUP3 ADD SWAP1 POP PUSH2 0x13C1 PUSH1 0x0 DUP4 ADD DUP6 PUSH2 0xF86 JUMP JUMPDEST PUSH2 0x13CE PUSH1 0x20 DUP4 ADD DUP5 PUSH2 0xF86 JUMP JUMPDEST SWAP4 SWAP3 POP POP POP JUMP INVALID LOG2 PUSH5 0x6970667358 0x22 SLT KECCAK256 SUB ADD 0xEE 0xF7 0xE3 CALLDATALOAD 0xE8 SWAP3 0x29 0xE6 RETURNDATACOPY 0xE5 0x4F 0xEE 0xB0 0xD0 0xB6 RETURN SHL 0xD4 DUP6 PUSH20 0xD9C6F84057F1510655C464736F6C634300081100 CALLER PUSH1 0x80 PUSH1 0x40 MSTORE CALLVALUE DUP1 ISZERO PUSH2 0x10 JUMPI PUSH1 0x0 DUP1 REVERT JUMPDEST POP PUSH1 0x40 MLOAD PUSH2 0x73F CODESIZE SUB DUP1 PUSH2 0x73F DUP4 CODECOPY DUP2 DUP2 ADD PUSH1 0x40 MSTORE DUP2 ADD SWAP1 PUSH2 0x32 SWAP2 SWAP1 PUSH2 0xDB JUMP JUMPDEST DUP1 PUSH1 0x0 DUP1 PUSH2 0x100 EXP DUP2 SLOAD DUP2 PUSH20 0xFFFFFFFFFFFFFFFFFFFFFFFFFFFFFFFFFFFFFFFF MUL NOT AND SWAP1 DUP4 PUSH20 0xFFFFFFFFFFFFFFFFFFFFFFFFFFFFFFFFFFFFFFFF AND MUL OR SWAP1 SSTORE POP POP PUSH2 0x108 JUMP JUMPDEST PUSH1 0x0 DUP1 REVERT JUMPDEST PUSH1 0x0 PUSH20 0xFFFFFFFFFFFFFFFFFFFFFFFFFFFFFFFFFFFFFFFF DUP3 AND SWAP1 POP SWAP2 SWAP1 POP JUMP JUMPDEST PUSH1 0x0 PUSH2 0xA8 DUP3 PUSH2 0x7D JUMP JUMPDEST SWAP1 POP SWAP2 SWAP1 POP JUMP JUMPDEST PUSH2 0xB8 DUP2 PUSH2 0x9D JUMP JUMPDEST DUP2 EQ PUSH2 0xC3 JUMPI PUSH1 0x0 DUP1 REVERT JUMPDEST POP JUMP JUMPDEST PUSH1 0x0 DUP2 MLOAD SWAP1 POP PUSH2 0xD5 DUP2 PUSH2 0xAF JUMP JUMPDEST SWAP3 SWAP2 POP POP JUMP JUMPDEST PUSH1 0x0 PUSH1 0x20 DUP3 DUP5 SUB SLT ISZERO PUSH2 0xF1 JUMPI PUSH2 0xF0 PUSH2 0x78 JUMP JUMPDEST JUMPDEST PUSH1 0x0 PUSH2 0xFF DUP5 DUP3 DUP6 ADD PUSH2 0xC6 JUMP JUMPDEST SWAP2 POP POP SWAP3 SWAP2 POP POP JUMP JUMPDEST PUSH2 0x628 DUP1 PUSH2 0x117 PUSH1 0x0 CODECOPY PUSH1 0x0 RETURN INVALID PUSH1 0x80 PUSH1 0x40 MSTORE CALLVALUE DUP1 ISZERO PUSH2 0x10 JUMPI PUSH1 0x0 DUP1 REVERT JUMPDEST POP PUSH1 0x4 CALLDATASIZE LT PUSH2 0x41 JUMPI PUSH1 0x0 CALLDATALOAD PUSH1 0xE0 SHR DUP1 PUSH4 0x18A231A9 EQ PUSH2 0x46 JUMPI DUP1 PUSH4 0x63A9C3D7 EQ PUSH2 0x64 JUMPI DUP1 PUSH4 0x6D263CEB EQ PUSH2 0x94 JUMPI JUMPDEST PUSH1 0x0 DUP1 REVERT JUMPDEST PUSH2 0x4E PUSH2 0xC4 JUMP JUMPDEST PUSH1 0x40 MLOAD PUSH2 0x5B SWAP2 SWAP1 PUSH2 0x48A JUMP JUMPDEST PUSH1 0x40 MLOAD DUP1 SWAP2 SUB SWAP1 RETURN JUMPDEST PUSH2 0x7E PUSH1 0x4 DUP1 CALLDATASIZE SUB DUP2 ADD SWAP1 PUSH2 0x79 SWAP2 SWAP1 PUSH2 0x4DD JUMP JUMPDEST PUSH2 0x1AA JUMP JUMPDEST PUSH1 0x40 MLOAD PUSH2 0x8B SWAP2 SWAP1 PUSH2 0x525 JUMP JUMPDEST PUSH1 0x40 MLOAD DUP1 SWAP2 SUB SWAP1 RETURN JUMPDEST PUSH2 0xAE PUSH1 0x4 DUP1 CALLDATASIZE SUB DUP2 ADD SWAP1 PUSH2 0xA9 SWAP2 SWAP1 PUSH2 0x4DD JUMP JUMPDEST PUSH2 0x211 JUMP JUMPDEST PUSH1 0x40 MLOAD PUSH2 0xBB SWAP2 SWAP1 PUSH2 0x5D0 JUMP JUMPDEST PUSH1 0x40 MLOAD DUP1 SWAP2 SUB SWAP1 RETURN JUMPDEST PUSH1 0x60 PUSH1 0x0 DUP1 SLOAD SWAP1 PUSH2 0x100 EXP SWAP1 DIV PUSH20 0xFFFFFFFFFFFFFFFFFFFFFFFFFFFFFFFFFFFFFFFF AND PUSH20 0xFFFFFFFFFFFFFFFFFFFFFFFFFFFFFFFFFFFFFFFF AND CALLER PUSH20 0xFFFFFFFFFFFFFFFFFFFFFFFFFFFFFFFFFFFFFFFF AND EQ PUSH2 0x11E JUMPI PUSH1 0x0 DUP1 REVERT JUMPDEST PUSH1 0x1 DUP1 SLOAD DUP1 PUSH1 0x20 MUL PUSH1 0x20 ADD PUSH1 0x40 MLOAD SWAP1 DUP2 ADD PUSH1 0x40 MSTORE DUP1 SWAP3 SWAP2 SWAP1 DUP2 DUP2 MSTORE PUSH1 0x20 ADD DUP3 DUP1 SLOAD DUP1 ISZERO PUSH2 0x1A0 JUMPI PUSH1 0x20 MUL DUP3 ADD SWAP2 SWAP1 PUSH1 0x0 MSTORE PUSH1 0x20 PUSH1 0x0 KECCAK256 SWAP1 JUMPDEST DUP2 PUSH1 0x0 SWAP1 SLOAD SWAP1 PUSH2 0x100 EXP SWAP1 DIV PUSH20 0xFFFFFFFFFFFFFFFFFFFFFFFFFFFFFFFFFFFFFFFF AND PUSH20 0xFFFFFFFFFFFFFFFFFFFFFFFFFFFFFFFFFFFFFFFF AND DUP2 MSTORE PUSH1 0x20 ADD SWAP1 PUSH1 0x1 ADD SWAP1 DUP1 DUP4 GT PUSH2 0x156 JUMPI JUMPDEST POP POP POP POP POP SWAP1 POP SWAP1 JUMP JUMPDEST PUSH1 0x0 PUSH1 0x2 PUSH1 0x0 DUP4 PUSH20 0xFFFFFFFFFFFFFFFFFFFFFFFFFFFFFFFFFFFFFFFF AND PUSH20 0xFFFFFFFFFFFFFFFFFFFFFFFFFFFFFFFFFFFFFFFF AND DUP2 MSTORE PUSH1 0x20 ADD SWAP1 DUP2 MSTORE PUSH1 0x20 ADD PUSH1 0x0 KECCAK256 PUSH1 0x0 SWAP1 SLOAD SWAP1 PUSH2 0x100 EXP SWAP1 DIV PUSH1 0xFF AND ISZERO PUSH2 0x207 JUMPI PUSH1 0x1 SWAP1 POP PUSH2 0x20C JUMP JUMPDEST PUSH1 0x0 SWAP1 POP JUMPDEST SWAP2 SWAP1 POP JUMP JUMPDEST PUSH1 0x60 PUSH1 0x2 PUSH1 0x0 DUP4 PUSH20 0xFFFFFFFFFFFFFFFFFFFFFFFFFFFFFFFFFFFFFFFF AND PUSH20 0xFFFFFFFFFFFFFFFFFFFFFFFFFFFFFFFFFFFFFFFF AND DUP2 MSTORE PUSH1 0x20 ADD SWAP1 DUP2 MSTORE PUSH1 0x20 ADD PUSH1 0x0 KECCAK256 PUSH1 0x0 SWAP1 SLOAD SWAP1 PUSH2 0x100 EXP SWAP1 DIV PUSH1 0xFF AND PUSH2 0x35C JUMPI PUSH1 0x1 PUSH1 0x2 PUSH1 0x0 DUP5 PUSH20 0xFFFFFFFFFFFFFFFFFFFFFFFFFFFFFFFFFFFFFFFF AND PUSH20 0xFFFFFFFFFFFFFFFFFFFFFFFFFFFFFFFFFFFFFFFF AND DUP2 MSTORE PUSH1 0x20 ADD SWAP1 DUP2 MSTORE PUSH1 0x20 ADD PUSH1 0x0 KECCAK256 PUSH1 0x0 PUSH2 0x100 EXP DUP2 SLOAD DUP2 PUSH1 0xFF MUL NOT AND SWAP1 DUP4 ISZERO ISZERO MUL OR SWAP1 SSTORE POP PUSH1 0x1 DUP3 SWAP1 DUP1 PUSH1 0x1 DUP2 SLOAD ADD DUP1 DUP3 SSTORE DUP1 SWAP2 POP POP PUSH1 0x1 SWAP1 SUB SWAP1 PUSH1 0x0 MSTORE PUSH1 0x20 PUSH1 0x0 KECCAK256 ADD PUSH1 0x0 SWAP1 SWAP2 SWAP1 SWAP2 SWAP1 SWAP2 PUSH2 0x100 EXP DUP2 SLOAD DUP2 PUSH20 0xFFFFFFFFFFFFFFFFFFFFFFFFFFFFFFFFFFFFFFFF MUL NOT AND SWAP1 DUP4 PUSH20 0xFFFFFFFFFFFFFFFFFFFFFFFFFFFFFFFFFFFFFFFF AND MUL OR SWAP1 SSTORE POP PUSH1 0x40 MLOAD DUP1 PUSH1 0x40 ADD PUSH1 0x40 MSTORE DUP1 PUSH1 0xD DUP2 MSTORE PUSH1 0x20 ADD PUSH32 0x4164647265737320616464656400000000000000000000000000000000000000 DUP2 MSTORE POP SWAP1 POP PUSH2 0x395 JUMP JUMPDEST PUSH1 0x40 MLOAD DUP1 PUSH1 0x40 ADD PUSH1 0x40 MSTORE DUP1 PUSH1 0x17 DUP2 MSTORE PUSH1 0x20 ADD PUSH32 0x43616E6E6F74206164642073616D652061646472657373000000000000000000 DUP2 MSTORE POP SWAP1 POP JUMPDEST SWAP2 SWAP1 POP JUMP JUMPDEST PUSH1 0x0 DUP2 MLOAD SWAP1 POP SWAP2 SWAP1 POP JUMP JUMPDEST PUSH1 0x0 DUP3 DUP3 MSTORE PUSH1 0x20 DUP3 ADD SWAP1 POP SWAP3 SWAP2 POP POP JUMP JUMPDEST PUSH1 0x0 DUP2 SWAP1 POP PUSH1 0x20 DUP3 ADD SWAP1 POP SWAP2 SWAP1 POP JUMP JUMPDEST PUSH1 0x0 PUSH20 0xFFFFFFFFFFFFFFFFFFFFFFFFFFFFFFFFFFFFFFFF DUP3 AND SWAP1 POP SWAP2 SWAP1 POP JUMP JUMPDEST PUSH1 0x0 PUSH2 0x3F1 DUP3 PUSH2 0x3C6 JUMP JUMPDEST SWAP1 POP SWAP2 SWAP1 POP JUMP JUMPDEST PUSH2 0x401 DUP2 PUSH2 0x3E6 JUMP JUMPDEST DUP3 MSTORE POP POP JUMP JUMPDEST PUSH1 0x0 PUSH2 0x413 DUP4 DUP4 PUSH2 0x3F8 JUMP JUMPDEST PUSH1 0x20 DUP4 ADD SWAP1 POP SWAP3 SWAP2 POP POP JUMP JUMPDEST PUSH1 0x0 PUSH1 0x20 DUP3 ADD SWAP1 POP SWAP2 SWAP1 POP JUMP JUMPDEST PUSH1 0x0 PUSH2 0x437 DUP3 PUSH2 0x39A JUMP JUMPDEST PUSH2 0x441 DUP2 DUP6 PUSH2 0x3A5 JUMP JUMPDEST SWAP4 POP PUSH2 0x44C DUP4 PUSH2 0x3B6 JUMP JUMPDEST DUP1 PUSH1 0x0 JUMPDEST DUP4 DUP2 LT ISZERO PUSH2 0x47D JUMPI DUP2 MLOAD PUSH2 0x464 DUP9 DUP3 PUSH2 0x407 JUMP JUMPDEST SWAP8 POP PUSH2 0x46F DUP4 PUSH2 0x41F JUMP JUMPDEST SWAP3 POP POP PUSH1 0x1 DUP2 ADD SWAP1 POP PUSH2 0x450 JUMP JUMPDEST POP DUP6 SWAP4 POP POP POP POP SWAP3 SWAP2 POP POP JUMP JUMPDEST PUSH1 0x0 PUSH1 0x20 DUP3 ADD SWAP1 POP DUP2 DUP2 SUB PUSH1 0x0 DUP4 ADD MSTORE PUSH2 0x4A4 DUP2 DUP5 PUSH2 0x42C JUMP JUMPDEST SWAP1 POP SWAP3 SWAP2 POP POP JUMP JUMPDEST PUSH1 0x0 DUP1 REVERT JUMPDEST PUSH2 0x4BA DUP2 PUSH2 0x3E6 JUMP JUMPDEST DUP2 EQ PUSH2 0x4C5 JUMPI PUSH1 0x0 DUP1 REVERT JUMPDEST POP JUMP JUMPDEST PUSH1 0x0 DUP2 CALLDATALOAD SWAP1 POP PUSH2 0x4D7 DUP2 PUSH2 0x4B1 JUMP JUMPDEST SWAP3 SWAP2 POP POP JUMP JUMPDEST PUSH1 0x0 PUSH1 0x20 DUP3 DUP5 SUB SLT ISZERO PUSH2 0x4F3 JUMPI PUSH2 0x4F2 PUSH2 0x4AC JUMP JUMPDEST JUMPDEST PUSH1 0x0 PUSH2 0x501 DUP5 DUP3 DUP6 ADD PUSH2 0x4C8 JUMP JUMPDEST SWAP2 POP POP SWAP3 SWAP2 POP POP JUMP JUMPDEST PUSH1 0x0 DUP2 ISZERO ISZERO SWAP1 POP SWAP2 SWAP1 POP JUMP JUMPDEST PUSH2 0x51F DUP2 PUSH2 0x50A JUMP JUMPDEST DUP3 MSTORE POP POP JUMP JUMPDEST PUSH1 0x0 PUSH1 0x20 DUP3 ADD SWAP1 POP PUSH2 0x53A PUSH1 0x0 DUP4 ADD DUP5 PUSH2 0x516 JUMP JUMPDEST SWAP3 SWAP2 POP POP JUMP JUMPDEST PUSH1 0x0 DUP2 MLOAD SWAP1 POP SWAP2 SWAP1 POP JUMP JUMPDEST PUSH1 0x0 DUP3 DUP3 MSTORE PUSH1 0x20 DUP3 ADD SWAP1 POP SWAP3 SWAP2 POP POP JUMP JUMPDEST PUSH1 0x0 JUMPDEST DUP4 DUP2 LT ISZERO PUSH2 0x57A JUMPI DUP1 DUP3 ADD MLOAD DUP2 DUP5 ADD MSTORE PUSH1 0x20 DUP2 ADD SWAP1 POP PUSH2 0x55F JUMP JUMPDEST PUSH1 0x0 DUP5 DUP5 ADD MSTORE POP POP POP POP JUMP JUMPDEST PUSH1 0x0 PUSH1 0x1F NOT PUSH1 0x1F DUP4 ADD AND SWAP1 POP SWAP2 SWAP1 POP JUMP JUMPDEST PUSH1 0x0 PUSH2 0x5A2 DUP3 PUSH2 0x540 JUMP JUMPDEST PUSH2 0x5AC DUP2 DUP6 PUSH2 0x54B JUMP JUMPDEST SWAP4 POP PUSH2 0x5BC DUP2 DUP6 PUSH1 0x20 DUP7 ADD PUSH2 0x55C JUMP JUMPDEST PUSH2 0x5C5 DUP2 PUSH2 0x586 JUMP JUMPDEST DUP5 ADD SWAP2 POP POP SWAP3 SWAP2 POP POP JUMP JUMPDEST PUSH1 0x0 PUSH1 0x20 DUP3 ADD SWAP1 POP DUP2 DUP2 SUB PUSH1 0x0 DUP4 ADD MSTORE PUSH2 0x5EA DUP2 DUP5 PUSH2 0x597 JUMP JUMPDEST SWAP1 POP SWAP3 SWAP2 POP POP JUMP INVALID LOG2 PUSH5 0x6970667358 0x22 SLT KECCAK256 CALLDATACOPY DIFFICULTY BYTE ISZERO 0xB0 SIGNEXTEND 0x2A 0xEA CREATE2 DUP8 0x4D 0x21 0xD0 PUSH17 0xC9069176A640E4EF7AC295249B1CDF5BA6 LOG2 PUSH5 0x736F6C6343 STOP ADDMOD GT STOP CALLER PUSH1 0x80 PUSH1 0x40 MSTORE CALLVALUE DUP1 ISZERO PUSH2 0x10 JUMPI PUSH1 0x0 DUP1 REVERT JUMPDEST POP PUSH1 0x40 MLOAD PUSH2 0x797 CODESIZE SUB DUP1 PUSH2 0x797 DUP4 CODECOPY DUP2 DUP2 ADD PUSH1 0x40 MSTORE DUP2 ADD SWAP1 PUSH2 0x32 SWAP2 SWAP1 PUSH2 0xDB JUMP JUMPDEST DUP1 PUSH1 0x0 DUP1 PUSH2 0x100 EXP DUP2 SLOAD DUP2 PUSH20 0xFFFFFFFFFFFFFFFFFFFFFFFFFFFFFFFFFFFFFFFF MUL NOT AND SWAP1 DUP4 PUSH20 0xFFFFFFFFFFFFFFFFFFFFFFFFFFFFFFFFFFFFFFFF AND MUL OR SWAP1 SSTORE POP POP PUSH2 0x108 JUMP JUMPDEST PUSH1 0x0 DUP1 REVERT JUMPDEST PUSH1 0x0 PUSH20 0xFFFFFFFFFFFFFFFFFFFFFFFFFFFFFFFFFFFFFFFF DUP3 AND SWAP1 POP SWAP2 SWAP1 POP JUMP JUMPDEST PUSH1 0x0 PUSH2 0xA8 DUP3 PUSH2 0x7D JUMP JUMPDEST SWAP1 POP SWAP2 SWAP1 POP JUMP JUMPDEST PUSH2 0xB8 DUP2 PUSH2 0x9D JUMP JUMPDEST DUP2 EQ PUSH2 0xC3 JUMPI PUSH1 0x0 DUP1 REVERT JUMPDEST POP JUMP JUMPDEST PUSH1 0x0 DUP2 MLOAD SWAP1 POP PUSH2 0xD5 DUP2 PUSH2 0xAF JUMP JUMPDEST SWAP3 SWAP2 POP POP JUMP JUMPDEST PUSH1 0x0 PUSH1 0x20 DUP3 DUP5 SUB SLT ISZERO PUSH2 0xF1 JUMPI PUSH2 0xF0 PUSH2 0x78 JUMP JUMPDEST JUMPDEST PUSH1 0x0 PUSH2 0xFF DUP5 DUP3 DUP6 ADD PUSH2 0xC6 JUMP JUMPDEST SWAP2 POP POP SWAP3 SWAP2 POP POP JUMP JUMPDEST PUSH2 0x680 DUP1 PUSH2 0x117 PUSH1 0x0 CODECOPY PUSH1 0x0 RETURN INVALID PUSH1 0x80 PUSH1 0x40 MSTORE CALLVALUE DUP1 ISZERO PUSH2 0x10 JUMPI PUSH1 0x0 DUP1 REVERT JUMPDEST POP PUSH1 0x4 CALLDATASIZE LT PUSH2 0x41 JUMPI PUSH1 0x0 CALLDATALOAD PUSH1 0xE0 SHR DUP1 PUSH4 0x4780468F EQ PUSH2 0x46 JUMPI DUP1 PUSH4 0x63A9C3D7 EQ PUSH2 0x76 JUMPI DUP1 PUSH4 0xF0D95090 EQ PUSH2 0xA6 JUMPI JUMPDEST PUSH1 0x0 DUP1 REVERT JUMPDEST PUSH2 0x60 PUSH1 0x4 DUP1 CALLDATASIZE SUB DUP2 ADD SWAP1 PUSH2 0x5B SWAP2 SWAP1 PUSH2 0x455 JUMP JUMPDEST PUSH2 0xC4 JUMP JUMPDEST PUSH1 0x40 MLOAD PUSH2 0x6D SWAP2 SWAP1 PUSH2 0x512 JUMP JUMPDEST PUSH1 0x40 MLOAD DUP1 SWAP2 SUB SWAP1 RETURN JUMPDEST PUSH2 0x90 PUSH1 0x4 DUP1 CALLDATASIZE SUB DUP2 ADD SWAP1 PUSH2 0x8B SWAP2 SWAP1 PUSH2 0x455 JUMP JUMPDEST PUSH2 0x2A5 JUMP JUMPDEST PUSH1 0x40 MLOAD PUSH2 0x9D SWAP2 SWAP1 PUSH2 0x54F JUMP JUMPDEST PUSH1 0x40 MLOAD DUP1 SWAP2 SUB SWAP1 RETURN JUMPDEST PUSH2 0xAE PUSH2 0x30C JUMP JUMPDEST PUSH1 0x40 MLOAD PUSH2 0xBB SWAP2 SWAP1 PUSH2 0x628 JUMP JUMPDEST PUSH1 0x40 MLOAD DUP1 SWAP2 SUB SWAP1 RETURN JUMPDEST PUSH1 0x60 PUSH1 0x0 DUP1 SLOAD SWAP1 PUSH2 0x100 EXP SWAP1 DIV PUSH20 0xFFFFFFFFFFFFFFFFFFFFFFFFFFFFFFFFFFFFFFFF AND PUSH20 0xFFFFFFFFFFFFFFFFFFFFFFFFFFFFFFFFFFFFFFFF AND CALLER PUSH20 0xFFFFFFFFFFFFFFFFFFFFFFFFFFFFFFFFFFFFFFFF AND EQ PUSH2 0x11E JUMPI PUSH1 0x0 DUP1 REVERT JUMPDEST PUSH1 0x2 PUSH1 0x0 DUP4 PUSH20 0xFFFFFFFFFFFFFFFFFFFFFFFFFFFFFFFFFFFFFFFF AND PUSH20 0xFFFFFFFFFFFFFFFFFFFFFFFFFFFFFFFFFFFFFFFF AND DUP2 MSTORE PUSH1 0x20 ADD SWAP1 DUP2 MSTORE PUSH1 0x20 ADD PUSH1 0x0 KECCAK256 PUSH1 0x0 SWAP1 SLOAD SWAP1 PUSH2 0x100 EXP SWAP1 DIV PUSH1 0xFF AND PUSH2 0x267 JUMPI PUSH1 0x1 PUSH1 0x2 PUSH1 0x0 DUP5 PUSH20 0xFFFFFFFFFFFFFFFFFFFFFFFFFFFFFFFFFFFFFFFF AND PUSH20 0xFFFFFFFFFFFFFFFFFFFFFFFFFFFFFFFFFFFFFFFF AND DUP2 MSTORE PUSH1 0x20 ADD SWAP1 DUP2 MSTORE PUSH1 0x20 ADD PUSH1 0x0 KECCAK256 PUSH1 0x0 PUSH2 0x100 EXP DUP2 SLOAD DUP2 PUSH1 0xFF MUL NOT AND SWAP1 DUP4 ISZERO ISZERO MUL OR SWAP1 SSTORE POP PUSH1 0x1 DUP3 SWAP1 DUP1 PUSH1 0x1 DUP2 SLOAD ADD DUP1 DUP3 SSTORE DUP1 SWAP2 POP POP PUSH1 0x1 SWAP1 SUB SWAP1 PUSH1 0x0 MSTORE PUSH1 0x20 PUSH1 0x0 KECCAK256 ADD PUSH1 0x0 SWAP1 SWAP2 SWAP1 SWAP2 SWAP1 SWAP2 PUSH2 0x100 EXP DUP2 SLOAD DUP2 PUSH20 0xFFFFFFFFFFFFFFFFFFFFFFFFFFFFFFFFFFFFFFFF MUL NOT AND SWAP1 DUP4 PUSH20 0xFFFFFFFFFFFFFFFFFFFFFFFFFFFFFFFFFFFFFFFF AND MUL OR SWAP1 SSTORE POP PUSH1 0x40 MLOAD DUP1 PUSH1 0x40 ADD PUSH1 0x40 MSTORE DUP1 PUSH1 0xD DUP2 MSTORE PUSH1 0x20 ADD PUSH32 0x4164647265737320616464656400000000000000000000000000000000000000 DUP2 MSTORE POP SWAP1 POP PUSH2 0x2A0 JUMP JUMPDEST PUSH1 0x40 MLOAD DUP1 PUSH1 0x40 ADD PUSH1 0x40 MSTORE DUP1 PUSH1 0x17 DUP2 MSTORE PUSH1 0x20 ADD PUSH32 0x43616E6E6F74206164642073616D652061646472657373000000000000000000 DUP2 MSTORE POP SWAP1 POP JUMPDEST SWAP2 SWAP1 POP JUMP JUMPDEST PUSH1 0x0 PUSH1 0x2 PUSH1 0x0 DUP4 PUSH20 0xFFFFFFFFFFFFFFFFFFFFFFFFFFFFFFFFFFFFFFFF AND PUSH20 0xFFFFFFFFFFFFFFFFFFFFFFFFFFFFFFFFFFFFFFFF AND DUP2 MSTORE PUSH1 0x20 ADD SWAP1 DUP2 MSTORE PUSH1 0x20 ADD PUSH1 0x0 KECCAK256 PUSH1 0x0 SWAP1 SLOAD SWAP1 PUSH2 0x100 EXP SWAP1 DIV PUSH1 0xFF AND ISZERO PUSH2 0x302 JUMPI PUSH1 0x1 SWAP1 POP PUSH2 0x307 JUMP JUMPDEST PUSH1 0x0 SWAP1 POP JUMPDEST SWAP2 SWAP1 POP JUMP JUMPDEST PUSH1 0x60 PUSH1 0x0 DUP1 SLOAD SWAP1 PUSH2 0x100 EXP SWAP1 DIV PUSH20 0xFFFFFFFFFFFFFFFFFFFFFFFFFFFFFFFFFFFFFFFF AND PUSH20 0xFFFFFFFFFFFFFFFFFFFFFFFFFFFFFFFFFFFFFFFF AND CALLER PUSH20 0xFFFFFFFFFFFFFFFFFFFFFFFFFFFFFFFFFFFFFFFF AND EQ PUSH2 0x366 JUMPI PUSH1 0x0 DUP1 REVERT JUMPDEST PUSH1 0x1 DUP1 SLOAD DUP1 PUSH1 0x20 MUL PUSH1 0x20 ADD PUSH1 0x40 MLOAD SWAP1 DUP2 ADD PUSH1 0x40 MSTORE DUP1 SWAP3 SWAP2 SWAP1 DUP2 DUP2 MSTORE PUSH1 0x20 ADD DUP3 DUP1 SLOAD DUP1 ISZERO PUSH2 0x3E8 JUMPI PUSH1 0x20 MUL DUP3 ADD SWAP2 SWAP1 PUSH1 0x0 MSTORE PUSH1 0x20 PUSH1 0x0 KECCAK256 SWAP1 JUMPDEST DUP2 PUSH1 0x0 SWAP1 SLOAD SWAP1 PUSH2 0x100 EXP SWAP1 DIV PUSH20 0xFFFFFFFFFFFFFFFFFFFFFFFFFFFFFFFFFFFFFFFF AND PUSH20 0xFFFFFFFFFFFFFFFFFFFFFFFFFFFFFFFFFFFFFFFF AND DUP2 MSTORE PUSH1 0x20 ADD SWAP1 PUSH1 0x1 ADD SWAP1 DUP1 DUP4 GT PUSH2 0x39E JUMPI JUMPDEST POP POP POP POP POP SWAP1 POP SWAP1 JUMP JUMPDEST PUSH1 0x0 DUP1 REVERT JUMPDEST PUSH1 0x0 PUSH20 0xFFFFFFFFFFFFFFFFFFFFFFFFFFFFFFFFFFFFFFFF DUP3 AND SWAP1 POP SWAP2 SWAP1 POP JUMP JUMPDEST PUSH1 0x0 PUSH2 0x422 DUP3 PUSH2 0x3F7 JUMP JUMPDEST SWAP1 POP SWAP2 SWAP1 POP JUMP JUMPDEST PUSH2 0x432 DUP2 PUSH2 0x417 JUMP JUMPDEST DUP2 EQ PUSH2 0x43D JUMPI PUSH1 0x0 DUP1 REVERT JUMPDEST POP JUMP JUMPDEST PUSH1 0x0 DUP2 CALLDATALOAD SWAP1 POP PUSH2 0x44F DUP2 PUSH2 0x429 JUMP JUMPDEST SWAP3 SWAP2 POP POP JUMP JUMPDEST PUSH1 0x0 PUSH1 0x20 DUP3 DUP5 SUB SLT ISZERO PUSH2 0x46B JUMPI PUSH2 0x46A PUSH2 0x3F2 JUMP JUMPDEST JUMPDEST PUSH1 0x0 PUSH2 0x479 DUP5 DUP3 DUP6 ADD PUSH2 0x440 JUMP JUMPDEST SWAP2 POP POP SWAP3 SWAP2 POP POP JUMP JUMPDEST PUSH1 0x0 DUP2 MLOAD SWAP1 POP SWAP2 SWAP1 POP JUMP JUMPDEST PUSH1 0x0 DUP3 DUP3 MSTORE PUSH1 0x20 DUP3 ADD SWAP1 POP SWAP3 SWAP2 POP POP JUMP JUMPDEST PUSH1 0x0 JUMPDEST DUP4 DUP2 LT ISZERO PUSH2 0x4BC JUMPI DUP1 DUP3 ADD MLOAD DUP2 DUP5 ADD MSTORE PUSH1 0x20 DUP2 ADD SWAP1 POP PUSH2 0x4A1 JUMP JUMPDEST PUSH1 0x0 DUP5 DUP5 ADD MSTORE POP POP POP POP JUMP JUMPDEST PUSH1 0x0 PUSH1 0x1F NOT PUSH1 0x1F DUP4 ADD AND SWAP1 POP SWAP2 SWAP1 POP JUMP JUMPDEST PUSH1 0x0 PUSH2 0x4E4 DUP3 PUSH2 0x482 JUMP JUMPDEST PUSH2 0x4EE DUP2 DUP6 PUSH2 0x48D JUMP JUMPDEST SWAP4 POP PUSH2 0x4FE DUP2 DUP6 PUSH1 0x20 DUP7 ADD PUSH2 0x49E JUMP JUMPDEST PUSH2 0x507 DUP2 PUSH2 0x4C8 JUMP JUMPDEST DUP5 ADD SWAP2 POP POP SWAP3 SWAP2 POP POP JUMP JUMPDEST PUSH1 0x0 PUSH1 0x20 DUP3 ADD SWAP1 POP DUP2 DUP2 SUB PUSH1 0x0 DUP4 ADD MSTORE PUSH2 0x52C DUP2 DUP5 PUSH2 0x4D9 JUMP JUMPDEST SWAP1 POP SWAP3 SWAP2 POP POP JUMP JUMPDEST PUSH1 0x0 DUP2 ISZERO ISZERO SWAP1 POP SWAP2 SWAP1 POP JUMP JUMPDEST PUSH2 0x549 DUP2 PUSH2 0x534 JUMP JUMPDEST DUP3 MSTORE POP POP JUMP JUMPDEST PUSH1 0x0 PUSH1 0x20 DUP3 ADD SWAP1 POP PUSH2 0x564 PUSH1 0x0 DUP4 ADD DUP5 PUSH2 0x540 JUMP JUMPDEST SWAP3 SWAP2 POP POP JUMP JUMPDEST PUSH1 0x0 DUP2 MLOAD SWAP1 POP SWAP2 SWAP1 POP JUMP JUMPDEST PUSH1 0x0 DUP3 DUP3 MSTORE PUSH1 0x20 DUP3 ADD SWAP1 POP SWAP3 SWAP2 POP POP JUMP JUMPDEST PUSH1 0x0 DUP2 SWAP1 POP PUSH1 0x20 DUP3 ADD SWAP1 POP SWAP2 SWAP1 POP JUMP JUMPDEST PUSH2 0x59F DUP2 PUSH2 0x417 JUMP JUMPDEST DUP3 MSTORE POP POP JUMP JUMPDEST PUSH1 0x0 PUSH2 0x5B1 DUP4 DUP4 PUSH2 0x596 JUMP JUMPDEST PUSH1 0x20 DUP4 ADD SWAP1 POP SWAP3 SWAP2 POP POP JUMP JUMPDEST PUSH1 0x0 PUSH1 0x20 DUP3 ADD SWAP1 POP SWAP2 SWAP1 POP JUMP JUMPDEST PUSH1 0x0 PUSH2 0x5D5 DUP3 PUSH2 0x56A JUMP JUMPDEST PUSH2 0x5DF DUP2 DUP6 PUSH2 0x575 JUMP JUMPDEST SWAP4 POP PUSH2 0x5EA DUP4 PUSH2 0x586 JUMP JUMPDEST DUP1 PUSH1 0x0 JUMPDEST DUP4 DUP2 LT ISZERO PUSH2 0x61B JUMPI DUP2 MLOAD PUSH2 0x602 DUP9 DUP3 PUSH2 0x5A5 JUMP JUMPDEST SWAP8 POP PUSH2 0x60D DUP4 PUSH2 0x5BD JUMP JUMPDEST SWAP3 POP POP PUSH1 0x1 DUP2 ADD SWAP1 POP PUSH2 0x5EE JUMP JUMPDEST POP DUP6 SWAP4 POP POP POP POP SWAP3 SWAP2 POP POP JUMP JUMPDEST PUSH1 0x0 PUSH1 0x20 DUP3 ADD SWAP1 POP DUP2 DUP2 SUB PUSH1 0x0 DUP4 ADD MSTORE PUSH2 0x642 DUP2 DUP5 PUSH2 0x5CA JUMP JUMPDEST SWAP1 POP SWAP3 SWAP2 POP POP JUMP INVALID LOG2 PUSH5 0x6970667358 0x22 SLT KECCAK256 SWAP2 POP 0x4D 0xE4 ISZERO SWAP10 DUP4 0xCB 0x5F 0xBA 0xEB CODECOPY PUSH25 0x3B7026CECABD3E82BDEEC9549C9AC0166B69D564736F6C6343 STOP ADDMOD GT STOP CALLER PUSH1 0x80 PUSH1 0x40 MSTORE CALLVALUE DUP1 ISZERO PUSH2 0x10 JUMPI PUSH1 0x0 DUP1 REVERT JUMPDEST POP PUSH1 0x40 MLOAD PUSH2 0x4F5 CODESIZE SUB DUP1 PUSH2 0x4F5 DUP4 CODECOPY DUP2 DUP2 ADD PUSH1 0x40 MSTORE DUP2 ADD SWAP1 PUSH2 0x32 SWAP2 SWAP1 PUSH2 0xDB JUMP JUMPDEST DUP1 PUSH1 0x0 DUP1 PUSH2 0x100 EXP DUP2 SLOAD DUP2 PUSH20 0xFFFFFFFFFFFFFFFFFFFFFFFFFFFFFFFFFFFFFFFF MUL NOT AND SWAP1 DUP4 PUSH20 0xFFFFFFFFFFFFFFFFFFFFFFFFFFFFFFFFFFFFFFFF AND MUL OR SWAP1 SSTORE POP POP PUSH2 0x108 JUMP JUMPDEST PUSH1 0x0 DUP1 REVERT JUMPDEST PUSH1 0x0 PUSH20 0xFFFFFFFFFFFFFFFFFFFFFFFFFFFFFFFFFFFFFFFF DUP3 AND SWAP1 POP SWAP2 SWAP1 POP JUMP JUMPDEST PUSH1 0x0 PUSH2 0xA8 DUP3 PUSH2 0x7D JUMP JUMPDEST SWAP1 POP SWAP2 SWAP1 POP JUMP JUMPDEST PUSH2 0xB8 DUP2 PUSH2 0x9D JUMP JUMPDEST DUP2 EQ PUSH2 0xC3 JUMPI PUSH1 0x0 DUP1 REVERT JUMPDEST POP JUMP JUMPDEST PUSH1 0x0 DUP2 MLOAD SWAP1 POP PUSH2 0xD5 DUP2 PUSH2 0xAF JUMP JUMPDEST SWAP3 SWAP2 POP POP JUMP JUMPDEST PUSH1 0x0 PUSH1 0x20 DUP3 DUP5 SUB SLT ISZERO PUSH2 0xF1 JUMPI PUSH2 0xF0 PUSH2 0x78 JUMP JUMPDEST JUMPDEST PUSH1 0x0 PUSH2 0xFF DUP5 DUP3 DUP6 ADD PUSH2 0xC6 JUMP JUMPDEST SWAP2 POP POP SWAP3 SWAP2 POP POP JUMP JUMPDEST PUSH2 0x3DE DUP1 PUSH2 0x117 PUSH1 0x0 CODECOPY PUSH1 0x0 RETURN INVALID PUSH1 0x80 PUSH1 0x40 MSTORE CALLVALUE DUP1 ISZERO PUSH2 0x10 JUMPI PUSH1 0x0 DUP1 REVERT JUMPDEST POP PUSH1 0x4 CALLDATASIZE LT PUSH2 0x36 JUMPI PUSH1 0x0 CALLDATALOAD PUSH1 0xE0 SHR DUP1 PUSH4 0x8BFC8C71 EQ PUSH2 0x3B JUMPI DUP1 PUSH4 0xF40941D0 EQ PUSH2 0x57 JUMPI JUMPDEST PUSH1 0x0 DUP1 REVERT JUMPDEST PUSH2 0x55 PUSH1 0x4 DUP1 CALLDATASIZE SUB DUP2 ADD SWAP1 PUSH2 0x50 SWAP2 SWAP1 PUSH2 0x25B JUMP JUMPDEST PUSH2 0x87 JUMP JUMPDEST STOP JUMPDEST PUSH2 0x71 PUSH1 0x4 DUP1 CALLDATASIZE SUB DUP2 ADD SWAP1 PUSH2 0x6C SWAP2 SWAP1 PUSH2 0x29B JUMP JUMPDEST PUSH2 0x12B JUMP JUMPDEST PUSH1 0x40 MLOAD PUSH2 0x7E SWAP2 SWAP1 PUSH2 0x386 JUMP JUMPDEST PUSH1 0x40 MLOAD DUP1 SWAP2 SUB SWAP1 RETURN JUMPDEST PUSH1 0x2 PUSH1 0x0 DUP4 PUSH20 0xFFFFFFFFFFFFFFFFFFFFFFFFFFFFFFFFFFFFFFFF AND PUSH20 0xFFFFFFFFFFFFFFFFFFFFFFFFFFFFFFFFFFFFFFFF AND DUP2 MSTORE PUSH1 0x20 ADD SWAP1 DUP2 MSTORE PUSH1 0x20 ADD PUSH1 0x0 KECCAK256 DUP2 SWAP1 DUP1 PUSH1 0x1 DUP2 SLOAD ADD DUP1 DUP3 SSTORE DUP1 SWAP2 POP POP PUSH1 0x1 SWAP1 SUB SWAP1 PUSH1 0x0 MSTORE PUSH1 0x20 PUSH1 0x0 KECCAK256 ADD PUSH1 0x0 SWAP1 SWAP2 SWAP1 SWAP2 SWAP1 SWAP2 PUSH2 0x100 EXP DUP2 SLOAD DUP2 PUSH20 0xFFFFFFFFFFFFFFFFFFFFFFFFFFFFFFFFFFFFFFFF MUL NOT AND SWAP1 DUP4 PUSH20 0xFFFFFFFFFFFFFFFFFFFFFFFFFFFFFFFFFFFFFFFF AND MUL OR SWAP1 SSTORE POP POP POP JUMP JUMPDEST PUSH1 0x60 PUSH1 0x2 PUSH1 0x0 DUP4 PUSH20 0xFFFFFFFFFFFFFFFFFFFFFFFFFFFFFFFFFFFFFFFF AND PUSH20 0xFFFFFFFFFFFFFFFFFFFFFFFFFFFFFFFFFFFFFFFF AND DUP2 MSTORE PUSH1 0x20 ADD SWAP1 DUP2 MSTORE PUSH1 0x20 ADD PUSH1 0x0 KECCAK256 DUP1 SLOAD DUP1 PUSH1 0x20 MUL PUSH1 0x20 ADD PUSH1 0x40 MLOAD SWAP1 DUP2 ADD PUSH1 0x40 MSTORE DUP1 SWAP3 SWAP2 SWAP1 DUP2 DUP2 MSTORE PUSH1 0x20 ADD DUP3 DUP1 SLOAD DUP1 ISZERO PUSH2 0x1EC JUMPI PUSH1 0x20 MUL DUP3 ADD SWAP2 SWAP1 PUSH1 0x0 MSTORE PUSH1 0x20 PUSH1 0x0 KECCAK256 SWAP1 JUMPDEST DUP2 PUSH1 0x0 SWAP1 SLOAD SWAP1 PUSH2 0x100 EXP SWAP1 DIV PUSH20 0xFFFFFFFFFFFFFFFFFFFFFFFFFFFFFFFFFFFFFFFF AND PUSH20 0xFFFFFFFFFFFFFFFFFFFFFFFFFFFFFFFFFFFFFFFF AND DUP2 MSTORE PUSH1 0x20 ADD SWAP1 PUSH1 0x1 ADD SWAP1 DUP1 DUP4 GT PUSH2 0x1A2 JUMPI JUMPDEST POP POP POP POP POP SWAP1 POP SWAP2 SWAP1 POP JUMP JUMPDEST PUSH1 0x0 DUP1 REVERT JUMPDEST PUSH1 0x0 PUSH20 0xFFFFFFFFFFFFFFFFFFFFFFFFFFFFFFFFFFFFFFFF DUP3 AND SWAP1 POP SWAP2 SWAP1 POP JUMP JUMPDEST PUSH1 0x0 PUSH2 0x228 DUP3 PUSH2 0x1FD JUMP JUMPDEST SWAP1 POP SWAP2 SWAP1 POP JUMP JUMPDEST PUSH2 0x238 DUP2 PUSH2 0x21D JUMP JUMPDEST DUP2 EQ PUSH2 0x243 JUMPI PUSH1 0x0 DUP1 REVERT JUMPDEST POP JUMP JUMPDEST PUSH1 0x0 DUP2 CALLDATALOAD SWAP1 POP PUSH2 0x255 DUP2 PUSH2 0x22F JUMP JUMPDEST SWAP3 SWAP2 POP POP JUMP JUMPDEST PUSH1 0x0 DUP1 PUSH1 0x40 DUP4 DUP6 SUB SLT ISZERO PUSH2 0x272 JUMPI PUSH2 0x271 PUSH2 0x1F8 JUMP JUMPDEST JUMPDEST PUSH1 0x0 PUSH2 0x280 DUP6 DUP3 DUP7 ADD PUSH2 0x246 JUMP JUMPDEST SWAP3 POP POP PUSH1 0x20 PUSH2 0x291 DUP6 DUP3 DUP7 ADD PUSH2 0x246 JUMP JUMPDEST SWAP2 POP POP SWAP3 POP SWAP3 SWAP1 POP JUMP JUMPDEST PUSH1 0x0 PUSH1 0x20 DUP3 DUP5 SUB SLT ISZERO PUSH2 0x2B1 JUMPI PUSH2 0x2B0 PUSH2 0x1F8 JUMP JUMPDEST JUMPDEST PUSH1 0x0 PUSH2 0x2BF DUP5 DUP3 DUP6 ADD PUSH2 0x246 JUMP JUMPDEST SWAP2 POP POP SWAP3 SWAP2 POP POP JUMP JUMPDEST PUSH1 0x0 DUP2 MLOAD SWAP1 POP SWAP2 SWAP1 POP JUMP JUMPDEST PUSH1 0x0 DUP3 DUP3 MSTORE PUSH1 0x20 DUP3 ADD SWAP1 POP SWAP3 SWAP2 POP POP JUMP JUMPDEST PUSH1 0x0 DUP2 SWAP1 POP PUSH1 0x20 DUP3 ADD SWAP1 POP SWAP2 SWAP1 POP JUMP JUMPDEST PUSH2 0x2FD DUP2 PUSH2 0x21D JUMP JUMPDEST DUP3 MSTORE POP POP JUMP JUMPDEST PUSH1 0x0 PUSH2 0x30F DUP4 DUP4 PUSH2 0x2F4 JUMP JUMPDEST PUSH1 0x20 DUP4 ADD SWAP1 POP SWAP3 SWAP2 POP POP JUMP JUMPDEST PUSH1 0x0 PUSH1 0x20 DUP3 ADD SWAP1 POP SWAP2 SWAP1 POP JUMP JUMPDEST PUSH1 0x0 PUSH2 0x333 DUP3 PUSH2 0x2C8 JUMP JUMPDEST PUSH2 0x33D DUP2 DUP6 PUSH2 0x2D3 JUMP JUMPDEST SWAP4 POP PUSH2 0x348 DUP4 PUSH2 0x2E4 JUMP JUMPDEST DUP1 PUSH1 0x0 JUMPDEST DUP4 DUP2 LT ISZERO PUSH2 0x379 JUMPI DUP2 MLOAD PUSH2 0x360 DUP9 DUP3 PUSH2 0x303 JUMP JUMPDEST SWAP8 POP PUSH2 0x36B DUP4 PUSH2 0x31B JUMP JUMPDEST SWAP3 POP POP PUSH1 0x1 DUP2 ADD SWAP1 POP PUSH2 0x34C JUMP JUMPDEST POP DUP6 SWAP4 POP POP POP POP SWAP3 SWAP2 POP POP JUMP JUMPDEST PUSH1 0x0 PUSH1 0x20 DUP3 ADD SWAP1 POP DUP2 DUP2 SUB PUSH1 0x0 DUP4 ADD MSTORE PUSH2 0x3A0 DUP2 DUP5 PUSH2 0x328 JUMP JUMPDEST SWAP1 POP SWAP3 SWAP2 POP POP JUMP INVALID LOG2 PUSH5 0x6970667358 0x22 SLT KECCAK256 MSTORE8 0xE7 SWAP11 PUSH31 0x35E4E12F45C9D9922BE2BFCAA123720B9D4851A8FEA0BC068089C59C64736F PUSH13 0x63430008110033000000000000 "},"gasEstimates":{"creation":{"codeDepositCost":"359400","executionCost":"infinite","totalCost":"infinite"},"external":{"admin()":"2514","getAllContractAddress(string)":"infinite"}},"methodIdentifiers":{"admin()":"f851a440","getAllContractAddress(string)":"c4fe354c"}},"storageLayout":{"storage":[{"astId":12,"contract":"ElectronicMedicalRecords.sol:ContractDeployer","label":"bunchOfContractAddress","offset":0,"slot":"0","type":"t_mapping(t_string_memory_ptr,t_array(t_struct(ContractAddress)6_storage)dyn_storage)"},{"astId":14,"contract":"ElectronicMedicalRecords.sol:ContractDeployer","label":"admin","offset":0,"slot":"1","type":"t_address"}],"types":{"t_address":{"encoding":"inplace","label":"address","numberOfBytes":"20"},"t_array(t_struct(ContractAddress)6_storage)dyn_storage":{"base":"t_struct(ContractAddress)6_storage","encoding":"dynamic_array","label":"struct ContractDeployer.ContractAddress[]","numberOfBytes":"32"},"t_mapping(t_string_memory_ptr,t_array(t_struct(ContractAddress)6_storage)dyn_storage)":{"encoding":"mapping","key":"t_string_memory_ptr","label":"mapping(string => struct ContractDeployer.ContractAddress[])","numberOfBytes":"32","value":"t_array(t_struct(ContractAddress)6_storage)dyn_storage"},"t_string_memory_ptr":{"encoding":"bytes","label":"string","numberOfBytes":"32"},"t_string_storage":{"encoding":"bytes","label":"string","numberOfBytes":"32"},"t_struct(ContractAddress)6_storage":{"encoding":"inplace","label":"struct ContractDeployer.ContractAddress","members":[{"astId":3,"contract":"ElectronicMedicalRecords.sol:ContractDeployer","label":"name","offset":0,"slot":"0","type":"t_string_storage"},{"astId":5,"contract":"ElectronicMedicalRecords.sol:ContractDeployer","label":"contractAddress","offset":0,"slot":"1","type":"t_address"}],"numberOfBytes":"64"}}},"userdoc":{"kind":"user","methods":{},"version":1}}