{"abi":[{"inputs":[{"internalType":"address","name":"_admin","type":"address"}],"stateMutability":"nonpayable","type":"constructor"},{"inputs":[{"internalType":"address","name":"_doctor","type":"address"},{"internalType":"address","name":"_patient","type":"address"}],"name":"addDoctorRelation","outputs":[],"stateMutability":"nonpayable","type":"function"},{"inputs":[{"internalType":"address","name":"_doctor","type":"address"}],"name":"getDoctorRelations","outputs":[{"internalType":"address[]","name":"","type":"address[]"}],"stateMutability":"view","type":"function"},{"inputs":[{"internalType":"address","name":"_DoctorVerificatorAddress","type":"address"}],"name":"setDoctorVerificatorAddress","outputs":[],"stateMutability":"nonpayable","type":"function"}],"devdoc":{"kind":"dev","methods":{},"version":1},"evm":{"assembly":"    /* \"ElectronicMedicalRecords.sol\":6224:7096  contract DoctorRelation {... */\n  mstore(0x40, 0x80)\n    /* \"ElectronicMedicalRecords.sol\":6380:6441  constructor(address _admin) {... */\n  callvalue\n  dup1\n  iszero\n  tag_1\n  jumpi\n  0x00\n  dup1\n  revert\ntag_1:\n  pop\n  mload(0x40)\n  sub(codesize, bytecodeSize)\n  dup1\n  bytecodeSize\n  dup4\n  codecopy\n  dup2\n  dup2\n  add\n  0x40\n  mstore\n  dup2\n  add\n  swap1\n  tag_2\n  swap2\n  swap1\n  tag_3\n  jump\t// in\ntag_2:\n    /* \"ElectronicMedicalRecords.sol\":6427:6433  _admin */\n  dup1\n    /* \"ElectronicMedicalRecords.sol\":6419:6424  admin */\n  0x00\n  dup1\n    /* \"ElectronicMedicalRecords.sol\":6419:6433  admin = _admin */\n  0x0100\n  exp\n  dup2\n  sload\n  dup2\n  0xffffffffffffffffffffffffffffffffffffffff\n  mul\n  not\n  and\n  swap1\n  dup4\n  0xffffffffffffffffffffffffffffffffffffffff\n  and\n  mul\n  or\n  swap1\n  sstore\n  pop\n    /* \"ElectronicMedicalRecords.sol\":6380:6441  constructor(address _admin) {... */\n  pop\n    /* \"ElectronicMedicalRecords.sol\":6224:7096  contract DoctorRelation {... */\n  jump(tag_6)\n    /* \"#utility.yul\":88:205   */\ntag_8:\n    /* \"#utility.yul\":197:198   */\n  0x00\n    /* \"#utility.yul\":194:195   */\n  dup1\n    /* \"#utility.yul\":187:199   */\n  revert\n    /* \"#utility.yul\":334:460   */\ntag_10:\n    /* \"#utility.yul\":371:378   */\n  0x00\n    /* \"#utility.yul\":411:453   */\n  0xffffffffffffffffffffffffffffffffffffffff\n    /* \"#utility.yul\":404:409   */\n  dup3\n    /* \"#utility.yul\":400:454   */\n  and\n    /* \"#utility.yul\":389:454   */\n  swap1\n  pop\n    /* \"#utility.yul\":334:460   */\n  swap2\n  swap1\n  pop\n  jump\t// out\n    /* \"#utility.yul\":466:562   */\ntag_11:\n    /* \"#utility.yul\":503:510   */\n  0x00\n    /* \"#utility.yul\":532:556   */\n  tag_20\n    /* \"#utility.yul\":550:555   */\n  dup3\n    /* \"#utility.yul\":532:556   */\n  tag_10\n  jump\t// in\ntag_20:\n    /* \"#utility.yul\":521:556   */\n  swap1\n  pop\n    /* \"#utility.yul\":466:562   */\n  swap2\n  swap1\n  pop\n  jump\t// out\n    /* \"#utility.yul\":568:690   */\ntag_12:\n    /* \"#utility.yul\":641:665   */\n  tag_22\n    /* \"#utility.yul\":659:664   */\n  dup2\n    /* \"#utility.yul\":641:665   */\n  tag_11\n  jump\t// in\ntag_22:\n    /* \"#utility.yul\":634:639   */\n  dup2\n    /* \"#utility.yul\":631:666   */\n  eq\n    /* \"#utility.yul\":621:684   */\n  tag_23\n  jumpi\n    /* \"#utility.yul\":680:681   */\n  0x00\n    /* \"#utility.yul\":677:678   */\n  dup1\n    /* \"#utility.yul\":670:682   */\n  revert\n    /* \"#utility.yul\":621:684   */\ntag_23:\n    /* \"#utility.yul\":568:690   */\n  pop\n  jump\t// out\n    /* \"#utility.yul\":696:839   */\ntag_13:\n    /* \"#utility.yul\":753:758   */\n  0x00\n    /* \"#utility.yul\":784:790   */\n  dup2\n    /* \"#utility.yul\":778:791   */\n  mload\n    /* \"#utility.yul\":769:791   */\n  swap1\n  pop\n    /* \"#utility.yul\":800:833   */\n  tag_25\n    /* \"#utility.yul\":827:832   */\n  dup2\n    /* \"#utility.yul\":800:833   */\n  tag_12\n  jump\t// in\ntag_25:\n    /* \"#utility.yul\":696:839   */\n  swap3\n  swap2\n  pop\n  pop\n  jump\t// out\n    /* \"#utility.yul\":845:1196   */\ntag_3:\n    /* \"#utility.yul\":915:921   */\n  0x00\n    /* \"#utility.yul\":964:966   */\n  0x20\n    /* \"#utility.yul\":952:961   */\n  dup3\n    /* \"#utility.yul\":943:950   */\n  dup5\n    /* \"#utility.yul\":939:962   */\n  sub\n    /* \"#utility.yul\":935:967   */\n  slt\n    /* \"#utility.yul\":932:1051   */\n  iszero\n  tag_27\n  jumpi\n    /* \"#utility.yul\":970:1049   */\n  tag_28\n  tag_8\n  jump\t// in\ntag_28:\n    /* \"#utility.yul\":932:1051   */\ntag_27:\n    /* \"#utility.yul\":1090:1091   */\n  0x00\n    /* \"#utility.yul\":1115:1179   */\n  tag_29\n    /* \"#utility.yul\":1171:1178   */\n  dup5\n    /* \"#utility.yul\":1162:1168   */\n  dup3\n    /* \"#utility.yul\":1151:1160   */\n  dup6\n    /* \"#utility.yul\":1147:1169   */\n  add\n    /* \"#utility.yul\":1115:1179   */\n  tag_13\n  jump\t// in\ntag_29:\n    /* \"#utility.yul\":1105:1179   */\n  swap2\n  pop\n    /* \"#utility.yul\":1061:1189   */\n  pop\n    /* \"#utility.yul\":845:1196   */\n  swap3\n  swap2\n  pop\n  pop\n  jump\t// out\n    /* \"ElectronicMedicalRecords.sol\":6224:7096  contract DoctorRelation {... */\ntag_6:\n  dataSize(sub_0)\n  dup1\n  dataOffset(sub_0)\n  0x00\n  codecopy\n  0x00\n  return\nstop\n\nsub_0: assembly {\n        /* \"ElectronicMedicalRecords.sol\":6224:7096  contract DoctorRelation {... */\n      mstore(0x40, 0x80)\n      callvalue\n      dup1\n      iszero\n      tag_1\n      jumpi\n      0x00\n      dup1\n      revert\n    tag_1:\n      pop\n      jumpi(tag_2, lt(calldatasize, 0x04))\n      shr(0xe0, calldataload(0x00))\n      dup1\n      0x1107747e\n      eq\n      tag_3\n      jumpi\n      dup1\n      0x8bfc8c71\n      eq\n      tag_4\n      jumpi\n      dup1\n      0xf40941d0\n      eq\n      tag_5\n      jumpi\n    tag_2:\n      0x00\n      dup1\n      revert\n        /* \"ElectronicMedicalRecords.sol\":6449:6651  function setDoctorVerificatorAddress(address _DoctorVerificatorAddress) public {... */\n    tag_3:\n      tag_6\n      0x04\n      dup1\n      calldatasize\n      sub\n      dup2\n      add\n      swap1\n      tag_7\n      swap2\n      swap1\n      tag_8\n      jump\t// in\n    tag_7:\n      tag_9\n      jump\t// in\n    tag_6:\n      stop\n        /* \"ElectronicMedicalRecords.sol\":6659:6808  function addDoctorRelation(address _doctor, address _patient) public onlyDoctor (msg.sender) {... */\n    tag_4:\n      tag_10\n      0x04\n      dup1\n      calldatasize\n      sub\n      dup2\n      add\n      swap1\n      tag_11\n      swap2\n      swap1\n      tag_12\n      jump\t// in\n    tag_11:\n      tag_13\n      jump\t// in\n    tag_10:\n      stop\n        /* \"ElectronicMedicalRecords.sol\":6816:6970  function getDoctorRelations(address _doctor) public view onlyDoctor(msg.sender) returns(address[] memory) {... */\n    tag_5:\n      tag_14\n      0x04\n      dup1\n      calldatasize\n      sub\n      dup2\n      add\n      swap1\n      tag_15\n      swap2\n      swap1\n      tag_8\n      jump\t// in\n    tag_15:\n      tag_16\n      jump\t// in\n    tag_14:\n      mload(0x40)\n      tag_17\n      swap2\n      swap1\n      tag_18\n      jump\t// in\n    tag_17:\n      mload(0x40)\n      dup1\n      swap2\n      sub\n      swap1\n      return\n        /* \"ElectronicMedicalRecords.sol\":6449:6651  function setDoctorVerificatorAddress(address _DoctorVerificatorAddress) public {... */\n    tag_9:\n        /* \"ElectronicMedicalRecords.sol\":6561:6566  admin */\n      0x00\n      dup1\n      sload\n      swap1\n      0x0100\n      exp\n      swap1\n      div\n      0xffffffffffffffffffffffffffffffffffffffff\n      and\n        /* \"ElectronicMedicalRecords.sol\":6547:6566  msg.sender == admin */\n      0xffffffffffffffffffffffffffffffffffffffff\n      and\n        /* \"ElectronicMedicalRecords.sol\":6547:6557  msg.sender */\n      caller\n        /* \"ElectronicMedicalRecords.sol\":6547:6566  msg.sender == admin */\n      0xffffffffffffffffffffffffffffffffffffffff\n      and\n      eq\n        /* \"ElectronicMedicalRecords.sol\":6539:6567  require(msg.sender == admin) */\n      tag_20\n      jumpi\n      0x00\n      dup1\n      revert\n    tag_20:\n        /* \"ElectronicMedicalRecords.sol\":6617:6642  _DoctorVerificatorAddress */\n      dup1\n        /* \"ElectronicMedicalRecords.sol\":6578:6596  doctor_verificator */\n      0x02\n      0x00\n        /* \"ElectronicMedicalRecords.sol\":6578:6643  doctor_verificator = DoctorVerificator(_DoctorVerificatorAddress) */\n      0x0100\n      exp\n      dup2\n      sload\n      dup2\n      0xffffffffffffffffffffffffffffffffffffffff\n      mul\n      not\n      and\n      swap1\n      dup4\n      0xffffffffffffffffffffffffffffffffffffffff\n      and\n      mul\n      or\n      swap1\n      sstore\n      pop\n        /* \"ElectronicMedicalRecords.sol\":6449:6651  function setDoctorVerificatorAddress(address _DoctorVerificatorAddress) public {... */\n      pop\n      jump\t// out\n        /* \"ElectronicMedicalRecords.sol\":6659:6808  function addDoctorRelation(address _doctor, address _patient) public onlyDoctor (msg.sender) {... */\n    tag_13:\n        /* \"ElectronicMedicalRecords.sol\":6740:6750  msg.sender */\n      caller\n        /* \"ElectronicMedicalRecords.sol\":7034:7052  doctor_verificator */\n      0x02\n      0x00\n      swap1\n      sload\n      swap1\n      0x0100\n      exp\n      swap1\n      div\n      0xffffffffffffffffffffffffffffffffffffffff\n      and\n        /* \"ElectronicMedicalRecords.sol\":7034:7059  doctor_verificator.verify */\n      0xffffffffffffffffffffffffffffffffffffffff\n      and\n      0x63a9c3d7\n        /* \"ElectronicMedicalRecords.sol\":7060:7067  _doctor */\n      dup3\n        /* \"ElectronicMedicalRecords.sol\":7034:7068  doctor_verificator.verify(_doctor) */\n      mload(0x40)\n      dup3\n      0xffffffff\n      and\n      0xe0\n      shl\n      dup2\n      mstore\n      0x04\n      add\n      tag_22\n      swap2\n      swap1\n      tag_23\n      jump\t// in\n    tag_22:\n      0x20\n      mload(0x40)\n      dup1\n      dup4\n      sub\n      dup2\n      dup7\n      gas\n      staticcall\n      iszero\n      dup1\n      iszero\n      tag_25\n      jumpi\n      returndatasize\n      0x00\n      dup1\n      returndatacopy\n      revert(0x00, returndatasize)\n    tag_25:\n      pop\n      pop\n      pop\n      pop\n      mload(0x40)\n      returndatasize\n      not(0x1f)\n      0x1f\n      dup3\n      add\n      and\n      dup3\n      add\n      dup1\n      0x40\n      mstore\n      pop\n      dup2\n      add\n      swap1\n      tag_26\n      swap2\n      swap1\n      tag_27\n      jump\t// in\n    tag_26:\n        /* \"ElectronicMedicalRecords.sol\":7026:7069  require(doctor_verificator.verify(_doctor)) */\n      tag_28\n      jumpi\n      0x00\n      dup1\n      revert\n    tag_28:\n        /* \"ElectronicMedicalRecords.sol\":6763:6776  relatedPatien */\n      0x01\n        /* \"ElectronicMedicalRecords.sol\":6763:6785  relatedPatien[_doctor] */\n      0x00\n        /* \"ElectronicMedicalRecords.sol\":6777:6784  _doctor */\n      dup5\n        /* \"ElectronicMedicalRecords.sol\":6763:6785  relatedPatien[_doctor] */\n      0xffffffffffffffffffffffffffffffffffffffff\n      and\n      0xffffffffffffffffffffffffffffffffffffffff\n      and\n      dup2\n      mstore\n      0x20\n      add\n      swap1\n      dup2\n      mstore\n      0x20\n      add\n      0x00\n      keccak256\n        /* \"ElectronicMedicalRecords.sol\":6791:6799  _patient */\n      dup3\n        /* \"ElectronicMedicalRecords.sol\":6763:6800  relatedPatien[_doctor].push(_patient) */\n      swap1\n      dup1\n      0x01\n      dup2\n      sload\n      add\n      dup1\n      dup3\n      sstore\n      dup1\n      swap2\n      pop\n      pop\n      0x01\n      swap1\n      sub\n      swap1\n      0x00\n      mstore\n      keccak256(0x00, 0x20)\n      add\n      0x00\n      swap1\n      swap2\n      swap1\n      swap2\n      swap1\n      swap2\n      0x0100\n      exp\n      dup2\n      sload\n      dup2\n      0xffffffffffffffffffffffffffffffffffffffff\n      mul\n      not\n      and\n      swap1\n      dup4\n      0xffffffffffffffffffffffffffffffffffffffff\n      and\n      mul\n      or\n      swap1\n      sstore\n      pop\n        /* \"ElectronicMedicalRecords.sol\":6659:6808  function addDoctorRelation(address _doctor, address _patient) public onlyDoctor (msg.sender) {... */\n      pop\n      pop\n      pop\n      jump\t// out\n        /* \"ElectronicMedicalRecords.sol\":6816:6970  function getDoctorRelations(address _doctor) public view onlyDoctor(msg.sender) returns(address[] memory) {... */\n    tag_16:\n        /* \"ElectronicMedicalRecords.sol\":6904:6920  address[] memory */\n      0x60\n        /* \"ElectronicMedicalRecords.sol\":6884:6894  msg.sender */\n      caller\n        /* \"ElectronicMedicalRecords.sol\":7034:7052  doctor_verificator */\n      0x02\n      0x00\n      swap1\n      sload\n      swap1\n      0x0100\n      exp\n      swap1\n      div\n      0xffffffffffffffffffffffffffffffffffffffff\n      and\n        /* \"ElectronicMedicalRecords.sol\":7034:7059  doctor_verificator.verify */\n      0xffffffffffffffffffffffffffffffffffffffff\n      and\n      0x63a9c3d7\n        /* \"ElectronicMedicalRecords.sol\":7060:7067  _doctor */\n      dup3\n        /* \"ElectronicMedicalRecords.sol\":7034:7068  doctor_verificator.verify(_doctor) */\n      mload(0x40)\n      dup3\n      0xffffffff\n      and\n      0xe0\n      shl\n      dup2\n      mstore\n      0x04\n      add\n      tag_32\n      swap2\n      swap1\n      tag_23\n      jump\t// in\n    tag_32:\n      0x20\n      mload(0x40)\n      dup1\n      dup4\n      sub\n      dup2\n      dup7\n      gas\n      staticcall\n      iszero\n      dup1\n      iszero\n      tag_34\n      jumpi\n      returndatasize\n      0x00\n      dup1\n      returndatacopy\n      revert(0x00, returndatasize)\n    tag_34:\n      pop\n      pop\n      pop\n      pop\n      mload(0x40)\n      returndatasize\n      not(0x1f)\n      0x1f\n      dup3\n      add\n      and\n      dup3\n      add\n      dup1\n      0x40\n      mstore\n      pop\n      dup2\n      add\n      swap1\n      tag_35\n      swap2\n      swap1\n      tag_27\n      jump\t// in\n    tag_35:\n        /* \"ElectronicMedicalRecords.sol\":7026:7069  require(doctor_verificator.verify(_doctor)) */\n      tag_36\n      jumpi\n      0x00\n      dup1\n      revert\n    tag_36:\n        /* \"ElectronicMedicalRecords.sol\":6940:6953  relatedPatien */\n      0x01\n        /* \"ElectronicMedicalRecords.sol\":6940:6962  relatedPatien[_doctor] */\n      0x00\n        /* \"ElectronicMedicalRecords.sol\":6954:6961  _doctor */\n      dup5\n        /* \"ElectronicMedicalRecords.sol\":6940:6962  relatedPatien[_doctor] */\n      0xffffffffffffffffffffffffffffffffffffffff\n      and\n      0xffffffffffffffffffffffffffffffffffffffff\n      and\n      dup2\n      mstore\n      0x20\n      add\n      swap1\n      dup2\n      mstore\n      0x20\n      add\n      0x00\n      keccak256\n        /* \"ElectronicMedicalRecords.sol\":6933:6962  return relatedPatien[_doctor] */\n      dup1\n      sload\n      dup1\n      0x20\n      mul\n      0x20\n      add\n      mload(0x40)\n      swap1\n      dup2\n      add\n      0x40\n      mstore\n      dup1\n      swap3\n      swap2\n      swap1\n      dup2\n      dup2\n      mstore\n      0x20\n      add\n      dup3\n      dup1\n      sload\n      dup1\n      iszero\n      tag_38\n      jumpi\n      0x20\n      mul\n      dup3\n      add\n      swap2\n      swap1\n      0x00\n      mstore\n      keccak256(0x00, 0x20)\n      swap1\n    tag_39:\n      dup2\n      0x00\n      swap1\n      sload\n      swap1\n      0x0100\n      exp\n      swap1\n      div\n      0xffffffffffffffffffffffffffffffffffffffff\n      and\n      0xffffffffffffffffffffffffffffffffffffffff\n      and\n      dup2\n      mstore\n      0x20\n      add\n      swap1\n      0x01\n      add\n      swap1\n      dup1\n      dup4\n      gt\n      tag_39\n      jumpi\n    tag_38:\n      pop\n      pop\n      pop\n      pop\n      pop\n      swap2\n      pop\n        /* \"ElectronicMedicalRecords.sol\":6816:6970  function getDoctorRelations(address _doctor) public view onlyDoctor(msg.sender) returns(address[] memory) {... */\n      pop\n      swap2\n      swap1\n      pop\n      jump\t// out\n        /* \"#utility.yul\":88:205   */\n    tag_41:\n        /* \"#utility.yul\":197:198   */\n      0x00\n        /* \"#utility.yul\":194:195   */\n      dup1\n        /* \"#utility.yul\":187:199   */\n      revert\n        /* \"#utility.yul\":334:460   */\n    tag_43:\n        /* \"#utility.yul\":371:378   */\n      0x00\n        /* \"#utility.yul\":411:453   */\n      0xffffffffffffffffffffffffffffffffffffffff\n        /* \"#utility.yul\":404:409   */\n      dup3\n        /* \"#utility.yul\":400:454   */\n      and\n        /* \"#utility.yul\":389:454   */\n      swap1\n      pop\n        /* \"#utility.yul\":334:460   */\n      swap2\n      swap1\n      pop\n      jump\t// out\n        /* \"#utility.yul\":466:562   */\n    tag_44:\n        /* \"#utility.yul\":503:510   */\n      0x00\n        /* \"#utility.yul\":532:556   */\n      tag_64\n        /* \"#utility.yul\":550:555   */\n      dup3\n        /* \"#utility.yul\":532:556   */\n      tag_43\n      jump\t// in\n    tag_64:\n        /* \"#utility.yul\":521:556   */\n      swap1\n      pop\n        /* \"#utility.yul\":466:562   */\n      swap2\n      swap1\n      pop\n      jump\t// out\n        /* \"#utility.yul\":568:690   */\n    tag_45:\n        /* \"#utility.yul\":641:665   */\n      tag_66\n        /* \"#utility.yul\":659:664   */\n      dup2\n        /* \"#utility.yul\":641:665   */\n      tag_44\n      jump\t// in\n    tag_66:\n        /* \"#utility.yul\":634:639   */\n      dup2\n        /* \"#utility.yul\":631:666   */\n      eq\n        /* \"#utility.yul\":621:684   */\n      tag_67\n      jumpi\n        /* \"#utility.yul\":680:681   */\n      0x00\n        /* \"#utility.yul\":677:678   */\n      dup1\n        /* \"#utility.yul\":670:682   */\n      revert\n        /* \"#utility.yul\":621:684   */\n    tag_67:\n        /* \"#utility.yul\":568:690   */\n      pop\n      jump\t// out\n        /* \"#utility.yul\":696:835   */\n    tag_46:\n        /* \"#utility.yul\":742:747   */\n      0x00\n        /* \"#utility.yul\":780:786   */\n      dup2\n        /* \"#utility.yul\":767:787   */\n      calldataload\n        /* \"#utility.yul\":758:787   */\n      swap1\n      pop\n        /* \"#utility.yul\":796:829   */\n      tag_69\n        /* \"#utility.yul\":823:828   */\n      dup2\n        /* \"#utility.yul\":796:829   */\n      tag_45\n      jump\t// in\n    tag_69:\n        /* \"#utility.yul\":696:835   */\n      swap3\n      swap2\n      pop\n      pop\n      jump\t// out\n        /* \"#utility.yul\":841:1170   */\n    tag_8:\n        /* \"#utility.yul\":900:906   */\n      0x00\n        /* \"#utility.yul\":949:951   */\n      0x20\n        /* \"#utility.yul\":937:946   */\n      dup3\n        /* \"#utility.yul\":928:935   */\n      dup5\n        /* \"#utility.yul\":924:947   */\n      sub\n        /* \"#utility.yul\":920:952   */\n      slt\n        /* \"#utility.yul\":917:1036   */\n      iszero\n      tag_71\n      jumpi\n        /* \"#utility.yul\":955:1034   */\n      tag_72\n      tag_41\n      jump\t// in\n    tag_72:\n        /* \"#utility.yul\":917:1036   */\n    tag_71:\n        /* \"#utility.yul\":1075:1076   */\n      0x00\n        /* \"#utility.yul\":1100:1153   */\n      tag_73\n        /* \"#utility.yul\":1145:1152   */\n      dup5\n        /* \"#utility.yul\":1136:1142   */\n      dup3\n        /* \"#utility.yul\":1125:1134   */\n      dup6\n        /* \"#utility.yul\":1121:1143   */\n      add\n        /* \"#utility.yul\":1100:1153   */\n      tag_46\n      jump\t// in\n    tag_73:\n        /* \"#utility.yul\":1090:1153   */\n      swap2\n      pop\n        /* \"#utility.yul\":1046:1163   */\n      pop\n        /* \"#utility.yul\":841:1170   */\n      swap3\n      swap2\n      pop\n      pop\n      jump\t// out\n        /* \"#utility.yul\":1176:1650   */\n    tag_12:\n        /* \"#utility.yul\":1244:1250   */\n      0x00\n        /* \"#utility.yul\":1252:1258   */\n      dup1\n        /* \"#utility.yul\":1301:1303   */\n      0x40\n        /* \"#utility.yul\":1289:1298   */\n      dup4\n        /* \"#utility.yul\":1280:1287   */\n      dup6\n        /* \"#utility.yul\":1276:1299   */\n      sub\n        /* \"#utility.yul\":1272:1304   */\n      slt\n        /* \"#utility.yul\":1269:1388   */\n      iszero\n      tag_75\n      jumpi\n        /* \"#utility.yul\":1307:1386   */\n      tag_76\n      tag_41\n      jump\t// in\n    tag_76:\n        /* \"#utility.yul\":1269:1388   */\n    tag_75:\n        /* \"#utility.yul\":1427:1428   */\n      0x00\n        /* \"#utility.yul\":1452:1505   */\n      tag_77\n        /* \"#utility.yul\":1497:1504   */\n      dup6\n        /* \"#utility.yul\":1488:1494   */\n      dup3\n        /* \"#utility.yul\":1477:1486   */\n      dup7\n        /* \"#utility.yul\":1473:1495   */\n      add\n        /* \"#utility.yul\":1452:1505   */\n      tag_46\n      jump\t// in\n    tag_77:\n        /* \"#utility.yul\":1442:1505   */\n      swap3\n      pop\n        /* \"#utility.yul\":1398:1515   */\n      pop\n        /* \"#utility.yul\":1554:1556   */\n      0x20\n        /* \"#utility.yul\":1580:1633   */\n      tag_78\n        /* \"#utility.yul\":1625:1632   */\n      dup6\n        /* \"#utility.yul\":1616:1622   */\n      dup3\n        /* \"#utility.yul\":1605:1614   */\n      dup7\n        /* \"#utility.yul\":1601:1623   */\n      add\n        /* \"#utility.yul\":1580:1633   */\n      tag_46\n      jump\t// in\n    tag_78:\n        /* \"#utility.yul\":1570:1633   */\n      swap2\n      pop\n        /* \"#utility.yul\":1525:1643   */\n      pop\n        /* \"#utility.yul\":1176:1650   */\n      swap3\n      pop\n      swap3\n      swap1\n      pop\n      jump\t// out\n        /* \"#utility.yul\":1656:1770   */\n    tag_47:\n        /* \"#utility.yul\":1723:1729   */\n      0x00\n        /* \"#utility.yul\":1757:1762   */\n      dup2\n        /* \"#utility.yul\":1751:1763   */\n      mload\n        /* \"#utility.yul\":1741:1763   */\n      swap1\n      pop\n        /* \"#utility.yul\":1656:1770   */\n      swap2\n      swap1\n      pop\n      jump\t// out\n        /* \"#utility.yul\":1776:1960   */\n    tag_48:\n        /* \"#utility.yul\":1875:1886   */\n      0x00\n        /* \"#utility.yul\":1909:1915   */\n      dup3\n        /* \"#utility.yul\":1904:1907   */\n      dup3\n        /* \"#utility.yul\":1897:1916   */\n      mstore\n        /* \"#utility.yul\":1949:1953   */\n      0x20\n        /* \"#utility.yul\":1944:1947   */\n      dup3\n        /* \"#utility.yul\":1940:1954   */\n      add\n        /* \"#utility.yul\":1925:1954   */\n      swap1\n      pop\n        /* \"#utility.yul\":1776:1960   */\n      swap3\n      swap2\n      pop\n      pop\n      jump\t// out\n        /* \"#utility.yul\":1966:2098   */\n    tag_49:\n        /* \"#utility.yul\":2033:2037   */\n      0x00\n        /* \"#utility.yul\":2056:2059   */\n      dup2\n        /* \"#utility.yul\":2048:2059   */\n      swap1\n      pop\n        /* \"#utility.yul\":2086:2090   */\n      0x20\n        /* \"#utility.yul\":2081:2084   */\n      dup3\n        /* \"#utility.yul\":2077:2091   */\n      add\n        /* \"#utility.yul\":2069:2091   */\n      swap1\n      pop\n        /* \"#utility.yul\":1966:2098   */\n      swap2\n      swap1\n      pop\n      jump\t// out\n        /* \"#utility.yul\":2104:2212   */\n    tag_50:\n        /* \"#utility.yul\":2181:2205   */\n      tag_83\n        /* \"#utility.yul\":2199:2204   */\n      dup2\n        /* \"#utility.yul\":2181:2205   */\n      tag_44\n      jump\t// in\n    tag_83:\n        /* \"#utility.yul\":2176:2179   */\n      dup3\n        /* \"#utility.yul\":2169:2206   */\n      mstore\n        /* \"#utility.yul\":2104:2212   */\n      pop\n      pop\n      jump\t// out\n        /* \"#utility.yul\":2218:2397   */\n    tag_51:\n        /* \"#utility.yul\":2287:2297   */\n      0x00\n        /* \"#utility.yul\":2308:2354   */\n      tag_85\n        /* \"#utility.yul\":2350:2353   */\n      dup4\n        /* \"#utility.yul\":2342:2348   */\n      dup4\n        /* \"#utility.yul\":2308:2354   */\n      tag_50\n      jump\t// in\n    tag_85:\n        /* \"#utility.yul\":2386:2390   */\n      0x20\n        /* \"#utility.yul\":2381:2384   */\n      dup4\n        /* \"#utility.yul\":2377:2391   */\n      add\n        /* \"#utility.yul\":2363:2391   */\n      swap1\n      pop\n        /* \"#utility.yul\":2218:2397   */\n      swap3\n      swap2\n      pop\n      pop\n      jump\t// out\n        /* \"#utility.yul\":2403:2516   */\n    tag_52:\n        /* \"#utility.yul\":2473:2477   */\n      0x00\n        /* \"#utility.yul\":2505:2509   */\n      0x20\n        /* \"#utility.yul\":2500:2503   */\n      dup3\n        /* \"#utility.yul\":2496:2510   */\n      add\n        /* \"#utility.yul\":2488:2510   */\n      swap1\n      pop\n        /* \"#utility.yul\":2403:2516   */\n      swap2\n      swap1\n      pop\n      jump\t// out\n        /* \"#utility.yul\":2552:3284   */\n    tag_53:\n        /* \"#utility.yul\":2671:2674   */\n      0x00\n        /* \"#utility.yul\":2700:2754   */\n      tag_88\n        /* \"#utility.yul\":2748:2753   */\n      dup3\n        /* \"#utility.yul\":2700:2754   */\n      tag_47\n      jump\t// in\n    tag_88:\n        /* \"#utility.yul\":2770:2856   */\n      tag_89\n        /* \"#utility.yul\":2849:2855   */\n      dup2\n        /* \"#utility.yul\":2844:2847   */\n      dup6\n        /* \"#utility.yul\":2770:2856   */\n      tag_48\n      jump\t// in\n    tag_89:\n        /* \"#utility.yul\":2763:2856   */\n      swap4\n      pop\n        /* \"#utility.yul\":2880:2936   */\n      tag_90\n        /* \"#utility.yul\":2930:2935   */\n      dup4\n        /* \"#utility.yul\":2880:2936   */\n      tag_49\n      jump\t// in\n    tag_90:\n        /* \"#utility.yul\":2959:2966   */\n      dup1\n        /* \"#utility.yul\":2990:2991   */\n      0x00\n        /* \"#utility.yul\":2975:3259   */\n    tag_91:\n        /* \"#utility.yul\":3000:3006   */\n      dup4\n        /* \"#utility.yul\":2997:2998   */\n      dup2\n        /* \"#utility.yul\":2994:3007   */\n      lt\n        /* \"#utility.yul\":2975:3259   */\n      iszero\n      tag_93\n      jumpi\n        /* \"#utility.yul\":3076:3082   */\n      dup2\n        /* \"#utility.yul\":3070:3083   */\n      mload\n        /* \"#utility.yul\":3103:3166   */\n      tag_94\n        /* \"#utility.yul\":3162:3165   */\n      dup9\n        /* \"#utility.yul\":3147:3160   */\n      dup3\n        /* \"#utility.yul\":3103:3166   */\n      tag_51\n      jump\t// in\n    tag_94:\n        /* \"#utility.yul\":3096:3166   */\n      swap8\n      pop\n        /* \"#utility.yul\":3189:3249   */\n      tag_95\n        /* \"#utility.yul\":3242:3248   */\n      dup4\n        /* \"#utility.yul\":3189:3249   */\n      tag_52\n      jump\t// in\n    tag_95:\n        /* \"#utility.yul\":3179:3249   */\n      swap3\n      pop\n        /* \"#utility.yul\":3035:3259   */\n      pop\n        /* \"#utility.yul\":3022:3023   */\n      0x01\n        /* \"#utility.yul\":3019:3020   */\n      dup2\n        /* \"#utility.yul\":3015:3024   */\n      add\n        /* \"#utility.yul\":3010:3024   */\n      swap1\n      pop\n        /* \"#utility.yul\":2975:3259   */\n      jump(tag_91)\n    tag_93:\n        /* \"#utility.yul\":2979:2993   */\n      pop\n        /* \"#utility.yul\":3275:3278   */\n      dup6\n        /* \"#utility.yul\":3268:3278   */\n      swap4\n      pop\n        /* \"#utility.yul\":2676:3284   */\n      pop\n      pop\n      pop\n        /* \"#utility.yul\":2552:3284   */\n      swap3\n      swap2\n      pop\n      pop\n      jump\t// out\n        /* \"#utility.yul\":3290:3663   */\n    tag_18:\n        /* \"#utility.yul\":3433:3437   */\n      0x00\n        /* \"#utility.yul\":3471:3473   */\n      0x20\n        /* \"#utility.yul\":3460:3469   */\n      dup3\n        /* \"#utility.yul\":3456:3474   */\n      add\n        /* \"#utility.yul\":3448:3474   */\n      swap1\n      pop\n        /* \"#utility.yul\":3520:3529   */\n      dup2\n        /* \"#utility.yul\":3514:3518   */\n      dup2\n        /* \"#utility.yul\":3510:3530   */\n      sub\n        /* \"#utility.yul\":3506:3507   */\n      0x00\n        /* \"#utility.yul\":3495:3504   */\n      dup4\n        /* \"#utility.yul\":3491:3508   */\n      add\n        /* \"#utility.yul\":3484:3531   */\n      mstore\n        /* \"#utility.yul\":3548:3656   */\n      tag_97\n        /* \"#utility.yul\":3651:3655   */\n      dup2\n        /* \"#utility.yul\":3642:3648   */\n      dup5\n        /* \"#utility.yul\":3548:3656   */\n      tag_53\n      jump\t// in\n    tag_97:\n        /* \"#utility.yul\":3540:3656   */\n      swap1\n      pop\n        /* \"#utility.yul\":3290:3663   */\n      swap3\n      swap2\n      pop\n      pop\n      jump\t// out\n        /* \"#utility.yul\":3669:3787   */\n    tag_54:\n        /* \"#utility.yul\":3756:3780   */\n      tag_99\n        /* \"#utility.yul\":3774:3779   */\n      dup2\n        /* \"#utility.yul\":3756:3780   */\n      tag_44\n      jump\t// in\n    tag_99:\n        /* \"#utility.yul\":3751:3754   */\n      dup3\n        /* \"#utility.yul\":3744:3781   */\n      mstore\n        /* \"#utility.yul\":3669:3787   */\n      pop\n      pop\n      jump\t// out\n        /* \"#utility.yul\":3793:4015   */\n    tag_23:\n        /* \"#utility.yul\":3886:3890   */\n      0x00\n        /* \"#utility.yul\":3924:3926   */\n      0x20\n        /* \"#utility.yul\":3913:3922   */\n      dup3\n        /* \"#utility.yul\":3909:3927   */\n      add\n        /* \"#utility.yul\":3901:3927   */\n      swap1\n      pop\n        /* \"#utility.yul\":3937:4008   */\n      tag_101\n        /* \"#utility.yul\":4005:4006   */\n      0x00\n        /* \"#utility.yul\":3994:4003   */\n      dup4\n        /* \"#utility.yul\":3990:4007   */\n      add\n        /* \"#utility.yul\":3981:3987   */\n      dup5\n        /* \"#utility.yul\":3937:4008   */\n      tag_54\n      jump\t// in\n    tag_101:\n        /* \"#utility.yul\":3793:4015   */\n      swap3\n      swap2\n      pop\n      pop\n      jump\t// out\n        /* \"#utility.yul\":4021:4111   */\n    tag_55:\n        /* \"#utility.yul\":4055:4062   */\n      0x00\n        /* \"#utility.yul\":4098:4103   */\n      dup2\n        /* \"#utility.yul\":4091:4104   */\n      iszero\n        /* \"#utility.yul\":4084:4105   */\n      iszero\n        /* \"#utility.yul\":4073:4105   */\n      swap1\n      pop\n        /* \"#utility.yul\":4021:4111   */\n      swap2\n      swap1\n      pop\n      jump\t// out\n        /* \"#utility.yul\":4117:4233   */\n    tag_56:\n        /* \"#utility.yul\":4187:4208   */\n      tag_104\n        /* \"#utility.yul\":4202:4207   */\n      dup2\n        /* \"#utility.yul\":4187:4208   */\n      tag_55\n      jump\t// in\n    tag_104:\n        /* \"#utility.yul\":4180:4185   */\n      dup2\n        /* \"#utility.yul\":4177:4209   */\n      eq\n        /* \"#utility.yul\":4167:4227   */\n      tag_105\n      jumpi\n        /* \"#utility.yul\":4223:4224   */\n      0x00\n        /* \"#utility.yul\":4220:4221   */\n      dup1\n        /* \"#utility.yul\":4213:4225   */\n      revert\n        /* \"#utility.yul\":4167:4227   */\n    tag_105:\n        /* \"#utility.yul\":4117:4233   */\n      pop\n      jump\t// out\n        /* \"#utility.yul\":4239:4376   */\n    tag_57:\n        /* \"#utility.yul\":4293:4298   */\n      0x00\n        /* \"#utility.yul\":4324:4330   */\n      dup2\n        /* \"#utility.yul\":4318:4331   */\n      mload\n        /* \"#utility.yul\":4309:4331   */\n      swap1\n      pop\n        /* \"#utility.yul\":4340:4370   */\n      tag_107\n        /* \"#utility.yul\":4364:4369   */\n      dup2\n        /* \"#utility.yul\":4340:4370   */\n      tag_56\n      jump\t// in\n    tag_107:\n        /* \"#utility.yul\":4239:4376   */\n      swap3\n      swap2\n      pop\n      pop\n      jump\t// out\n        /* \"#utility.yul\":4382:4727   */\n    tag_27:\n        /* \"#utility.yul\":4449:4455   */\n      0x00\n        /* \"#utility.yul\":4498:4500   */\n      0x20\n        /* \"#utility.yul\":4486:4495   */\n      dup3\n        /* \"#utility.yul\":4477:4484   */\n      dup5\n        /* \"#utility.yul\":4473:4496   */\n      sub\n        /* \"#utility.yul\":4469:4501   */\n      slt\n        /* \"#utility.yul\":4466:4585   */\n      iszero\n      tag_109\n      jumpi\n        /* \"#utility.yul\":4504:4583   */\n      tag_110\n      tag_41\n      jump\t// in\n    tag_110:\n        /* \"#utility.yul\":4466:4585   */\n    tag_109:\n        /* \"#utility.yul\":4624:4625   */\n      0x00\n        /* \"#utility.yul\":4649:4710   */\n      tag_111\n        /* \"#utility.yul\":4702:4709   */\n      dup5\n        /* \"#utility.yul\":4693:4699   */\n      dup3\n        /* \"#utility.yul\":4682:4691   */\n      dup6\n        /* \"#utility.yul\":4678:4700   */\n      add\n        /* \"#utility.yul\":4649:4710   */\n      tag_57\n      jump\t// in\n    tag_111:\n        /* \"#utility.yul\":4639:4710   */\n      swap2\n      pop\n        /* \"#utility.yul\":4595:4720   */\n      pop\n        /* \"#utility.yul\":4382:4727   */\n      swap3\n      swap2\n      pop\n      pop\n      jump\t// out\n\n    auxdata: 0xa2646970667358221220e50a3671559224b366fd6c52262acc989503d65758d672b3bca0864b114f315764736f6c63430008110033\n}\n","bytecode":{"linkReferences":{},"object":"608060405234801561001057600080fd5b50604051610795380380610795833981810160405281019061003291906100db565b806000806101000a81548173ffffffffffffffffffffffffffffffffffffffff021916908373ffffffffffffffffffffffffffffffffffffffff16021790555050610108565b600080fd5b600073ffffffffffffffffffffffffffffffffffffffff82169050919050565b60006100a88261007d565b9050919050565b6100b88161009d565b81146100c357600080fd5b50565b6000815190506100d5816100af565b92915050565b6000602082840312156100f1576100f0610078565b5b60006100ff848285016100c6565b91505092915050565b61067e806101176000396000f3fe608060405234801561001057600080fd5b50600436106100415760003560e01c80631107747e146100465780638bfc8c7114610062578063f40941d01461007e575b600080fd5b610060600480360381019061005b919061046c565b6100ae565b005b61007c60048036038101906100779190610499565b61014a565b005b6100986004803603810190610093919061046c565b610295565b6040516100a59190610597565b60405180910390f35b60008054906101000a900473ffffffffffffffffffffffffffffffffffffffff1673ffffffffffffffffffffffffffffffffffffffff163373ffffffffffffffffffffffffffffffffffffffff161461010657600080fd5b80600260006101000a81548173ffffffffffffffffffffffffffffffffffffffff021916908373ffffffffffffffffffffffffffffffffffffffff16021790555050565b33600260009054906101000a900473ffffffffffffffffffffffffffffffffffffffff1673ffffffffffffffffffffffffffffffffffffffff166363a9c3d7826040518263ffffffff1660e01b81526004016101a691906105c8565b602060405180830381865afa1580156101c3573d6000803e3d6000fd5b505050506040513d601f19601f820116820180604052508101906101e7919061061b565b6101f057600080fd5b600160008473ffffffffffffffffffffffffffffffffffffffff1673ffffffffffffffffffffffffffffffffffffffff168152602001908152602001600020829080600181540180825580915050600190039060005260206000200160009091909190916101000a81548173ffffffffffffffffffffffffffffffffffffffff021916908373ffffffffffffffffffffffffffffffffffffffff160217905550505050565b606033600260009054906101000a900473ffffffffffffffffffffffffffffffffffffffff1673ffffffffffffffffffffffffffffffffffffffff166363a9c3d7826040518263ffffffff1660e01b81526004016102f391906105c8565b602060405180830381865afa158015610310573d6000803e3d6000fd5b505050506040513d601f19601f82011682018060405250810190610334919061061b565b61033d57600080fd5b600160008473ffffffffffffffffffffffffffffffffffffffff1673ffffffffffffffffffffffffffffffffffffffff1681526020019081526020016000208054806020026020016040519081016040528092919081815260200182805480156103fc57602002820191906000526020600020905b8160009054906101000a900473ffffffffffffffffffffffffffffffffffffffff1673ffffffffffffffffffffffffffffffffffffffff16815260200190600101908083116103b2575b5050505050915050919050565b600080fd5b600073ffffffffffffffffffffffffffffffffffffffff82169050919050565b60006104398261040e565b9050919050565b6104498161042e565b811461045457600080fd5b50565b60008135905061046681610440565b92915050565b60006020828403121561048257610481610409565b5b600061049084828501610457565b91505092915050565b600080604083850312156104b0576104af610409565b5b60006104be85828601610457565b92505060206104cf85828601610457565b9150509250929050565b600081519050919050565b600082825260208201905092915050565b6000819050602082019050919050565b61050e8161042e565b82525050565b60006105208383610505565b60208301905092915050565b6000602082019050919050565b6000610544826104d9565b61054e81856104e4565b9350610559836104f5565b8060005b8381101561058a5781516105718882610514565b975061057c8361052c565b92505060018101905061055d565b5085935050505092915050565b600060208201905081810360008301526105b18184610539565b905092915050565b6105c28161042e565b82525050565b60006020820190506105dd60008301846105b9565b92915050565b60008115159050919050565b6105f8816105e3565b811461060357600080fd5b50565b600081519050610615816105ef565b92915050565b60006020828403121561063157610630610409565b5b600061063f84828501610606565b9150509291505056fea2646970667358221220e50a3671559224b366fd6c52262acc989503d65758d672b3bca0864b114f315764736f6c63430008110033","opcodes":"PUSH1 0x80 PUSH1 0x40 MSTORE CALLVALUE DUP1 ISZERO PUSH2 0x10 JUMPI PUSH1 0x0 DUP1 REVERT JUMPDEST POP PUSH1 0x40 MLOAD PUSH2 0x795 CODESIZE SUB DUP1 PUSH2 0x795 DUP4 CODECOPY DUP2 DUP2 ADD PUSH1 0x40 MSTORE DUP2 ADD SWAP1 PUSH2 0x32 SWAP2 SWAP1 PUSH2 0xDB JUMP JUMPDEST DUP1 PUSH1 0x0 DUP1 PUSH2 0x100 EXP DUP2 SLOAD DUP2 PUSH20 0xFFFFFFFFFFFFFFFFFFFFFFFFFFFFFFFFFFFFFFFF MUL NOT AND SWAP1 DUP4 PUSH20 0xFFFFFFFFFFFFFFFFFFFFFFFFFFFFFFFFFFFFFFFF AND MUL OR SWAP1 SSTORE POP POP PUSH2 0x108 JUMP JUMPDEST PUSH1 0x0 DUP1 REVERT JUMPDEST PUSH1 0x0 PUSH20 0xFFFFFFFFFFFFFFFFFFFFFFFFFFFFFFFFFFFFFFFF DUP3 AND SWAP1 POP SWAP2 SWAP1 POP JUMP JUMPDEST PUSH1 0x0 PUSH2 0xA8 DUP3 PUSH2 0x7D JUMP JUMPDEST SWAP1 POP SWAP2 SWAP1 POP JUMP JUMPDEST PUSH2 0xB8 DUP2 PUSH2 0x9D JUMP JUMPDEST DUP2 EQ PUSH2 0xC3 JUMPI PUSH1 0x0 DUP1 REVERT JUMPDEST POP JUMP JUMPDEST PUSH1 0x0 DUP2 MLOAD SWAP1 POP PUSH2 0xD5 DUP2 PUSH2 0xAF JUMP JUMPDEST SWAP3 SWAP2 POP POP JUMP JUMPDEST PUSH1 0x0 PUSH1 0x20 DUP3 DUP5 SUB SLT ISZERO PUSH2 0xF1 JUMPI PUSH2 0xF0 PUSH2 0x78 JUMP JUMPDEST JUMPDEST PUSH1 0x0 PUSH2 0xFF DUP5 DUP3 DUP6 ADD PUSH2 0xC6 JUMP JUMPDEST SWAP2 POP POP SWAP3 SWAP2 POP POP JUMP JUMPDEST PUSH2 0x67E DUP1 PUSH2 0x117 PUSH1 0x0 CODECOPY PUSH1 0x0 RETURN INVALID PUSH1 0x80 PUSH1 0x40 MSTORE CALLVALUE DUP1 ISZERO PUSH2 0x10 JUMPI PUSH1 0x0 DUP1 REVERT JUMPDEST POP PUSH1 0x4 CALLDATASIZE LT PUSH2 0x41 JUMPI PUSH1 0x0 CALLDATALOAD PUSH1 0xE0 SHR DUP1 PUSH4 0x1107747E EQ PUSH2 0x46 JUMPI DUP1 PUSH4 0x8BFC8C71 EQ PUSH2 0x62 JUMPI DUP1 PUSH4 0xF40941D0 EQ PUSH2 0x7E JUMPI JUMPDEST PUSH1 0x0 DUP1 REVERT JUMPDEST PUSH2 0x60 PUSH1 0x4 DUP1 CALLDATASIZE SUB DUP2 ADD SWAP1 PUSH2 0x5B SWAP2 SWAP1 PUSH2 0x46C JUMP JUMPDEST PUSH2 0xAE JUMP JUMPDEST STOP JUMPDEST PUSH2 0x7C PUSH1 0x4 DUP1 CALLDATASIZE SUB DUP2 ADD SWAP1 PUSH2 0x77 SWAP2 SWAP1 PUSH2 0x499 JUMP JUMPDEST PUSH2 0x14A JUMP JUMPDEST STOP JUMPDEST PUSH2 0x98 PUSH1 0x4 DUP1 CALLDATASIZE SUB DUP2 ADD SWAP1 PUSH2 0x93 SWAP2 SWAP1 PUSH2 0x46C JUMP JUMPDEST PUSH2 0x295 JUMP JUMPDEST PUSH1 0x40 MLOAD PUSH2 0xA5 SWAP2 SWAP1 PUSH2 0x597 JUMP JUMPDEST PUSH1 0x40 MLOAD DUP1 SWAP2 SUB SWAP1 RETURN JUMPDEST PUSH1 0x0 DUP1 SLOAD SWAP1 PUSH2 0x100 EXP SWAP1 DIV PUSH20 0xFFFFFFFFFFFFFFFFFFFFFFFFFFFFFFFFFFFFFFFF AND PUSH20 0xFFFFFFFFFFFFFFFFFFFFFFFFFFFFFFFFFFFFFFFF AND CALLER PUSH20 0xFFFFFFFFFFFFFFFFFFFFFFFFFFFFFFFFFFFFFFFF AND EQ PUSH2 0x106 JUMPI PUSH1 0x0 DUP1 REVERT JUMPDEST DUP1 PUSH1 0x2 PUSH1 0x0 PUSH2 0x100 EXP DUP2 SLOAD DUP2 PUSH20 0xFFFFFFFFFFFFFFFFFFFFFFFFFFFFFFFFFFFFFFFF MUL NOT AND SWAP1 DUP4 PUSH20 0xFFFFFFFFFFFFFFFFFFFFFFFFFFFFFFFFFFFFFFFF AND MUL OR SWAP1 SSTORE POP POP JUMP JUMPDEST CALLER PUSH1 0x2 PUSH1 0x0 SWAP1 SLOAD SWAP1 PUSH2 0x100 EXP SWAP1 DIV PUSH20 0xFFFFFFFFFFFFFFFFFFFFFFFFFFFFFFFFFFFFFFFF AND PUSH20 0xFFFFFFFFFFFFFFFFFFFFFFFFFFFFFFFFFFFFFFFF AND PUSH4 0x63A9C3D7 DUP3 PUSH1 0x40 MLOAD DUP3 PUSH4 0xFFFFFFFF AND PUSH1 0xE0 SHL DUP2 MSTORE PUSH1 0x4 ADD PUSH2 0x1A6 SWAP2 SWAP1 PUSH2 0x5C8 JUMP JUMPDEST PUSH1 0x20 PUSH1 0x40 MLOAD DUP1 DUP4 SUB DUP2 DUP7 GAS STATICCALL ISZERO DUP1 ISZERO PUSH2 0x1C3 JUMPI RETURNDATASIZE PUSH1 0x0 DUP1 RETURNDATACOPY RETURNDATASIZE PUSH1 0x0 REVERT JUMPDEST POP POP POP POP PUSH1 0x40 MLOAD RETURNDATASIZE PUSH1 0x1F NOT PUSH1 0x1F DUP3 ADD AND DUP3 ADD DUP1 PUSH1 0x40 MSTORE POP DUP2 ADD SWAP1 PUSH2 0x1E7 SWAP2 SWAP1 PUSH2 0x61B JUMP JUMPDEST PUSH2 0x1F0 JUMPI PUSH1 0x0 DUP1 REVERT JUMPDEST PUSH1 0x1 PUSH1 0x0 DUP5 PUSH20 0xFFFFFFFFFFFFFFFFFFFFFFFFFFFFFFFFFFFFFFFF AND PUSH20 0xFFFFFFFFFFFFFFFFFFFFFFFFFFFFFFFFFFFFFFFF AND DUP2 MSTORE PUSH1 0x20 ADD SWAP1 DUP2 MSTORE PUSH1 0x20 ADD PUSH1 0x0 KECCAK256 DUP3 SWAP1 DUP1 PUSH1 0x1 DUP2 SLOAD ADD DUP1 DUP3 SSTORE DUP1 SWAP2 POP POP PUSH1 0x1 SWAP1 SUB SWAP1 PUSH1 0x0 MSTORE PUSH1 0x20 PUSH1 0x0 KECCAK256 ADD PUSH1 0x0 SWAP1 SWAP2 SWAP1 SWAP2 SWAP1 SWAP2 PUSH2 0x100 EXP DUP2 SLOAD DUP2 PUSH20 0xFFFFFFFFFFFFFFFFFFFFFFFFFFFFFFFFFFFFFFFF MUL NOT AND SWAP1 DUP4 PUSH20 0xFFFFFFFFFFFFFFFFFFFFFFFFFFFFFFFFFFFFFFFF AND MUL OR SWAP1 SSTORE POP POP POP POP JUMP JUMPDEST PUSH1 0x60 CALLER PUSH1 0x2 PUSH1 0x0 SWAP1 SLOAD SWAP1 PUSH2 0x100 EXP SWAP1 DIV PUSH20 0xFFFFFFFFFFFFFFFFFFFFFFFFFFFFFFFFFFFFFFFF AND PUSH20 0xFFFFFFFFFFFFFFFFFFFFFFFFFFFFFFFFFFFFFFFF AND PUSH4 0x63A9C3D7 DUP3 PUSH1 0x40 MLOAD DUP3 PUSH4 0xFFFFFFFF AND PUSH1 0xE0 SHL DUP2 MSTORE PUSH1 0x4 ADD PUSH2 0x2F3 SWAP2 SWAP1 PUSH2 0x5C8 JUMP JUMPDEST PUSH1 0x20 PUSH1 0x40 MLOAD DUP1 DUP4 SUB DUP2 DUP7 GAS STATICCALL ISZERO DUP1 ISZERO PUSH2 0x310 JUMPI RETURNDATASIZE PUSH1 0x0 DUP1 RETURNDATACOPY RETURNDATASIZE PUSH1 0x0 REVERT JUMPDEST POP POP POP POP PUSH1 0x40 MLOAD RETURNDATASIZE PUSH1 0x1F NOT PUSH1 0x1F DUP3 ADD AND DUP3 ADD DUP1 PUSH1 0x40 MSTORE POP DUP2 ADD SWAP1 PUSH2 0x334 SWAP2 SWAP1 PUSH2 0x61B JUMP JUMPDEST PUSH2 0x33D JUMPI PUSH1 0x0 DUP1 REVERT JUMPDEST PUSH1 0x1 PUSH1 0x0 DUP5 PUSH20 0xFFFFFFFFFFFFFFFFFFFFFFFFFFFFFFFFFFFFFFFF AND PUSH20 0xFFFFFFFFFFFFFFFFFFFFFFFFFFFFFFFFFFFFFFFF AND DUP2 MSTORE PUSH1 0x20 ADD SWAP1 DUP2 MSTORE PUSH1 0x20 ADD PUSH1 0x0 KECCAK256 DUP1 SLOAD DUP1 PUSH1 0x20 MUL PUSH1 0x20 ADD PUSH1 0x40 MLOAD SWAP1 DUP2 ADD PUSH1 0x40 MSTORE DUP1 SWAP3 SWAP2 SWAP1 DUP2 DUP2 MSTORE PUSH1 0x20 ADD DUP3 DUP1 SLOAD DUP1 ISZERO PUSH2 0x3FC JUMPI PUSH1 0x20 MUL DUP3 ADD SWAP2 SWAP1 PUSH1 0x0 MSTORE PUSH1 0x20 PUSH1 0x0 KECCAK256 SWAP1 JUMPDEST DUP2 PUSH1 0x0 SWAP1 SLOAD SWAP1 PUSH2 0x100 EXP SWAP1 DIV PUSH20 0xFFFFFFFFFFFFFFFFFFFFFFFFFFFFFFFFFFFFFFFF AND PUSH20 0xFFFFFFFFFFFFFFFFFFFFFFFFFFFFFFFFFFFFFFFF AND DUP2 MSTORE PUSH1 0x20 ADD SWAP1 PUSH1 0x1 ADD SWAP1 DUP1 DUP4 GT PUSH2 0x3B2 JUMPI JUMPDEST POP POP POP POP POP SWAP2 POP POP SWAP2 SWAP1 POP JUMP JUMPDEST PUSH1 0x0 DUP1 REVERT JUMPDEST PUSH1 0x0 PUSH20 0xFFFFFFFFFFFFFFFFFFFFFFFFFFFFFFFFFFFFFFFF DUP3 AND SWAP1 POP SWAP2 SWAP1 POP JUMP JUMPDEST PUSH1 0x0 PUSH2 0x439 DUP3 PUSH2 0x40E JUMP JUMPDEST SWAP1 POP SWAP2 SWAP1 POP JUMP JUMPDEST PUSH2 0x449 DUP2 PUSH2 0x42E JUMP JUMPDEST DUP2 EQ PUSH2 0x454 JUMPI PUSH1 0x0 DUP1 REVERT JUMPDEST POP JUMP JUMPDEST PUSH1 0x0 DUP2 CALLDATALOAD SWAP1 POP PUSH2 0x466 DUP2 PUSH2 0x440 JUMP JUMPDEST SWAP3 SWAP2 POP POP JUMP JUMPDEST PUSH1 0x0 PUSH1 0x20 DUP3 DUP5 SUB SLT ISZERO PUSH2 0x482 JUMPI PUSH2 0x481 PUSH2 0x409 JUMP JUMPDEST JUMPDEST PUSH1 0x0 PUSH2 0x490 DUP5 DUP3 DUP6 ADD PUSH2 0x457 JUMP JUMPDEST SWAP2 POP POP SWAP3 SWAP2 POP POP JUMP JUMPDEST PUSH1 0x0 DUP1 PUSH1 0x40 DUP4 DUP6 SUB SLT ISZERO PUSH2 0x4B0 JUMPI PUSH2 0x4AF PUSH2 0x409 JUMP JUMPDEST JUMPDEST PUSH1 0x0 PUSH2 0x4BE DUP6 DUP3 DUP7 ADD PUSH2 0x457 JUMP JUMPDEST SWAP3 POP POP PUSH1 0x20 PUSH2 0x4CF DUP6 DUP3 DUP7 ADD PUSH2 0x457 JUMP JUMPDEST SWAP2 POP POP SWAP3 POP SWAP3 SWAP1 POP JUMP JUMPDEST PUSH1 0x0 DUP2 MLOAD SWAP1 POP SWAP2 SWAP1 POP JUMP JUMPDEST PUSH1 0x0 DUP3 DUP3 MSTORE PUSH1 0x20 DUP3 ADD SWAP1 POP SWAP3 SWAP2 POP POP JUMP JUMPDEST PUSH1 0x0 DUP2 SWAP1 POP PUSH1 0x20 DUP3 ADD SWAP1 POP SWAP2 SWAP1 POP JUMP JUMPDEST PUSH2 0x50E DUP2 PUSH2 0x42E JUMP JUMPDEST DUP3 MSTORE POP POP JUMP JUMPDEST PUSH1 0x0 PUSH2 0x520 DUP4 DUP4 PUSH2 0x505 JUMP JUMPDEST PUSH1 0x20 DUP4 ADD SWAP1 POP SWAP3 SWAP2 POP POP JUMP JUMPDEST PUSH1 0x0 PUSH1 0x20 DUP3 ADD SWAP1 POP SWAP2 SWAP1 POP JUMP JUMPDEST PUSH1 0x0 PUSH2 0x544 DUP3 PUSH2 0x4D9 JUMP JUMPDEST PUSH2 0x54E DUP2 DUP6 PUSH2 0x4E4 JUMP JUMPDEST SWAP4 POP PUSH2 0x559 DUP4 PUSH2 0x4F5 JUMP JUMPDEST DUP1 PUSH1 0x0 JUMPDEST DUP4 DUP2 LT ISZERO PUSH2 0x58A JUMPI DUP2 MLOAD PUSH2 0x571 DUP9 DUP3 PUSH2 0x514 JUMP JUMPDEST SWAP8 POP PUSH2 0x57C DUP4 PUSH2 0x52C JUMP JUMPDEST SWAP3 POP POP PUSH1 0x1 DUP2 ADD SWAP1 POP PUSH2 0x55D JUMP JUMPDEST POP DUP6 SWAP4 POP POP POP POP SWAP3 SWAP2 POP POP JUMP JUMPDEST PUSH1 0x0 PUSH1 0x20 DUP3 ADD SWAP1 POP DUP2 DUP2 SUB PUSH1 0x0 DUP4 ADD MSTORE PUSH2 0x5B1 DUP2 DUP5 PUSH2 0x539 JUMP JUMPDEST SWAP1 POP SWAP3 SWAP2 POP POP JUMP JUMPDEST PUSH2 0x5C2 DUP2 PUSH2 0x42E JUMP JUMPDEST DUP3 MSTORE POP POP JUMP JUMPDEST PUSH1 0x0 PUSH1 0x20 DUP3 ADD SWAP1 POP PUSH2 0x5DD PUSH1 0x0 DUP4 ADD DUP5 PUSH2 0x5B9 JUMP JUMPDEST SWAP3 SWAP2 POP POP JUMP JUMPDEST PUSH1 0x0 DUP2 ISZERO ISZERO SWAP1 POP SWAP2 SWAP1 POP JUMP JUMPDEST PUSH2 0x5F8 DUP2 PUSH2 0x5E3 JUMP JUMPDEST DUP2 EQ PUSH2 0x603 JUMPI PUSH1 0x0 DUP1 REVERT JUMPDEST POP JUMP JUMPDEST PUSH1 0x0 DUP2 MLOAD SWAP1 POP PUSH2 0x615 DUP2 PUSH2 0x5EF JUMP JUMPDEST SWAP3 SWAP2 POP POP JUMP JUMPDEST PUSH1 0x0 PUSH1 0x20 DUP3 DUP5 SUB SLT ISZERO PUSH2 0x631 JUMPI PUSH2 0x630 PUSH2 0x409 JUMP JUMPDEST JUMPDEST PUSH1 0x0 PUSH2 0x63F DUP5 DUP3 DUP6 ADD PUSH2 0x606 JUMP JUMPDEST SWAP2 POP POP SWAP3 SWAP2 POP POP JUMP INVALID LOG2 PUSH5 0x6970667358 0x22 SLT KECCAK256 0xE5 EXP CALLDATASIZE PUSH18 0x559224B366FD6C52262ACC989503D65758D6 PUSH19 0xB3BCA0864B114F315764736F6C634300081100 CALLER "},"gasEstimates":{"creation":{"codeDepositCost":"332400","executionCost":"infinite","totalCost":"infinite"},"external":{"addDoctorRelation(address,address)":"infinite","getDoctorRelations(address)":"infinite","setDoctorVerificatorAddress(address)":"26867"}},"methodIdentifiers":{"addDoctorRelation(address,address)":"8bfc8c71","getDoctorRelations(address)":"f40941d0","setDoctorVerificatorAddress(address)":"1107747e"}},"storageLayout":{"storage":[{"astId":594,"contract":"ElectronicMedicalRecords.sol:DoctorRelation","label":"admin","offset":0,"slot":"0","type":"t_address"},{"astId":599,"contract":"ElectronicMedicalRecords.sol:DoctorRelation","label":"relatedPatien","offset":0,"slot":"1","type":"t_mapping(t_address,t_array(t_address)dyn_storage)"},{"astId":602,"contract":"ElectronicMedicalRecords.sol:DoctorRelation","label":"doctor_verificator","offset":0,"slot":"2","type":"t_contract(DoctorVerificator)592"}],"types":{"t_address":{"encoding":"inplace","label":"address","numberOfBytes":"20"},"t_array(t_address)dyn_storage":{"base":"t_address","encoding":"dynamic_array","label":"address[]","numberOfBytes":"32"},"t_contract(DoctorVerificator)592":{"encoding":"inplace","label":"contract DoctorVerificator","numberOfBytes":"20"},"t_mapping(t_address,t_array(t_address)dyn_storage)":{"encoding":"mapping","key":"t_address","label":"mapping(address => address[])","numberOfBytes":"32","value":"t_array(t_address)dyn_storage"}}},"userdoc":{"kind":"user","methods":{},"version":1}}