{"abi":[{"inputs":[{"internalType":"address","name":"_admin","type":"address"}],"stateMutability":"nonpayable","type":"constructor"},{"inputs":[{"internalType":"address","name":"_doctor","type":"address"},{"internalType":"address","name":"_patient","type":"address"}],"name":"addDoctorRelation","outputs":[],"stateMutability":"nonpayable","type":"function"},{"inputs":[{"internalType":"address","name":"_doctor","type":"address"}],"name":"getDoctorRelations","outputs":[{"internalType":"address[]","name":"","type":"address[]"}],"stateMutability":"view","type":"function"}],"devdoc":{"kind":"dev","methods":{},"version":1},"evm":{"assembly":"    /* \"ElectronicMedicalRecords.sol\":6434:6935  contract DoctorRelation {... */\n  mstore(0x40, 0x80)\n    /* \"ElectronicMedicalRecords.sol\":6595:6656  constructor(address _admin) {... */\n  callvalue\n  dup1\n  iszero\n  tag_1\n  jumpi\n  0x00\n  dup1\n  revert\ntag_1:\n  pop\n  mload(0x40)\n  sub(codesize, bytecodeSize)\n  dup1\n  bytecodeSize\n  dup4\n  codecopy\n  dup2\n  dup2\n  add\n  0x40\n  mstore\n  dup2\n  add\n  swap1\n  tag_2\n  swap2\n  swap1\n  tag_3\n  jump\t// in\ntag_2:\n    /* \"ElectronicMedicalRecords.sol\":6642:6648  _admin */\n  dup1\n    /* \"ElectronicMedicalRecords.sol\":6634:6639  admin */\n  0x00\n  dup1\n    /* \"ElectronicMedicalRecords.sol\":6634:6648  admin = _admin */\n  0x0100\n  exp\n  dup2\n  sload\n  dup2\n  0xffffffffffffffffffffffffffffffffffffffff\n  mul\n  not\n  and\n  swap1\n  dup4\n  0xffffffffffffffffffffffffffffffffffffffff\n  and\n  mul\n  or\n  swap1\n  sstore\n  pop\n    /* \"ElectronicMedicalRecords.sol\":6595:6656  constructor(address _admin) {... */\n  pop\n    /* \"ElectronicMedicalRecords.sol\":6434:6935  contract DoctorRelation {... */\n  jump(tag_6)\n    /* \"#utility.yul\":88:205   */\ntag_8:\n    /* \"#utility.yul\":197:198   */\n  0x00\n    /* \"#utility.yul\":194:195   */\n  dup1\n    /* \"#utility.yul\":187:199   */\n  revert\n    /* \"#utility.yul\":334:460   */\ntag_10:\n    /* \"#utility.yul\":371:378   */\n  0x00\n    /* \"#utility.yul\":411:453   */\n  0xffffffffffffffffffffffffffffffffffffffff\n    /* \"#utility.yul\":404:409   */\n  dup3\n    /* \"#utility.yul\":400:454   */\n  and\n    /* \"#utility.yul\":389:454   */\n  swap1\n  pop\n    /* \"#utility.yul\":334:460   */\n  swap2\n  swap1\n  pop\n  jump\t// out\n    /* \"#utility.yul\":466:562   */\ntag_11:\n    /* \"#utility.yul\":503:510   */\n  0x00\n    /* \"#utility.yul\":532:556   */\n  tag_20\n    /* \"#utility.yul\":550:555   */\n  dup3\n    /* \"#utility.yul\":532:556   */\n  tag_10\n  jump\t// in\ntag_20:\n    /* \"#utility.yul\":521:556   */\n  swap1\n  pop\n    /* \"#utility.yul\":466:562   */\n  swap2\n  swap1\n  pop\n  jump\t// out\n    /* \"#utility.yul\":568:690   */\ntag_12:\n    /* \"#utility.yul\":641:665   */\n  tag_22\n    /* \"#utility.yul\":659:664   */\n  dup2\n    /* \"#utility.yul\":641:665   */\n  tag_11\n  jump\t// in\ntag_22:\n    /* \"#utility.yul\":634:639   */\n  dup2\n    /* \"#utility.yul\":631:666   */\n  eq\n    /* \"#utility.yul\":621:684   */\n  tag_23\n  jumpi\n    /* \"#utility.yul\":680:681   */\n  0x00\n    /* \"#utility.yul\":677:678   */\n  dup1\n    /* \"#utility.yul\":670:682   */\n  revert\n    /* \"#utility.yul\":621:684   */\ntag_23:\n    /* \"#utility.yul\":568:690   */\n  pop\n  jump\t// out\n    /* \"#utility.yul\":696:839   */\ntag_13:\n    /* \"#utility.yul\":753:758   */\n  0x00\n    /* \"#utility.yul\":784:790   */\n  dup2\n    /* \"#utility.yul\":778:791   */\n  mload\n    /* \"#utility.yul\":769:791   */\n  swap1\n  pop\n    /* \"#utility.yul\":800:833   */\n  tag_25\n    /* \"#utility.yul\":827:832   */\n  dup2\n    /* \"#utility.yul\":800:833   */\n  tag_12\n  jump\t// in\ntag_25:\n    /* \"#utility.yul\":696:839   */\n  swap3\n  swap2\n  pop\n  pop\n  jump\t// out\n    /* \"#utility.yul\":845:1196   */\ntag_3:\n    /* \"#utility.yul\":915:921   */\n  0x00\n    /* \"#utility.yul\":964:966   */\n  0x20\n    /* \"#utility.yul\":952:961   */\n  dup3\n    /* \"#utility.yul\":943:950   */\n  dup5\n    /* \"#utility.yul\":939:962   */\n  sub\n    /* \"#utility.yul\":935:967   */\n  slt\n    /* \"#utility.yul\":932:1051   */\n  iszero\n  tag_27\n  jumpi\n    /* \"#utility.yul\":970:1049   */\n  tag_28\n  tag_8\n  jump\t// in\ntag_28:\n    /* \"#utility.yul\":932:1051   */\ntag_27:\n    /* \"#utility.yul\":1090:1091   */\n  0x00\n    /* \"#utility.yul\":1115:1179   */\n  tag_29\n    /* \"#utility.yul\":1171:1178   */\n  dup5\n    /* \"#utility.yul\":1162:1168   */\n  dup3\n    /* \"#utility.yul\":1151:1160   */\n  dup6\n    /* \"#utility.yul\":1147:1169   */\n  add\n    /* \"#utility.yul\":1115:1179   */\n  tag_13\n  jump\t// in\ntag_29:\n    /* \"#utility.yul\":1105:1179   */\n  swap2\n  pop\n    /* \"#utility.yul\":1061:1189   */\n  pop\n    /* \"#utility.yul\":845:1196   */\n  swap3\n  swap2\n  pop\n  pop\n  jump\t// out\n    /* \"ElectronicMedicalRecords.sol\":6434:6935  contract DoctorRelation {... */\ntag_6:\n  dataSize(sub_0)\n  dup1\n  dataOffset(sub_0)\n  0x00\n  codecopy\n  0x00\n  return\nstop\n\nsub_0: assembly {\n        /* \"ElectronicMedicalRecords.sol\":6434:6935  contract DoctorRelation {... */\n      mstore(0x40, 0x80)\n      callvalue\n      dup1\n      iszero\n      tag_1\n      jumpi\n      0x00\n      dup1\n      revert\n    tag_1:\n      pop\n      jumpi(tag_2, lt(calldatasize, 0x04))\n      shr(0xe0, calldataload(0x00))\n      dup1\n      0x8bfc8c71\n      eq\n      tag_3\n      jumpi\n      dup1\n      0xf40941d0\n      eq\n      tag_4\n      jumpi\n    tag_2:\n      0x00\n      dup1\n      revert\n        /* \"ElectronicMedicalRecords.sol\":6664:6789  function addDoctorRelation(address _doctor, address _patient) public {... */\n    tag_3:\n      tag_5\n      0x04\n      dup1\n      calldatasize\n      sub\n      dup2\n      add\n      swap1\n      tag_6\n      swap2\n      swap1\n      tag_7\n      jump\t// in\n    tag_6:\n      tag_8\n      jump\t// in\n    tag_5:\n      stop\n        /* \"ElectronicMedicalRecords.sol\":6797:6928  function getDoctorRelations(address _doctor) public view returns(address[] memory) {... */\n    tag_4:\n      tag_9\n      0x04\n      dup1\n      calldatasize\n      sub\n      dup2\n      add\n      swap1\n      tag_10\n      swap2\n      swap1\n      tag_11\n      jump\t// in\n    tag_10:\n      tag_12\n      jump\t// in\n    tag_9:\n      mload(0x40)\n      tag_13\n      swap2\n      swap1\n      tag_14\n      jump\t// in\n    tag_13:\n      mload(0x40)\n      dup1\n      swap2\n      sub\n      swap1\n      return\n        /* \"ElectronicMedicalRecords.sol\":6664:6789  function addDoctorRelation(address _doctor, address _patient) public {... */\n    tag_8:\n        /* \"ElectronicMedicalRecords.sol\":6744:6757  relatedPatien */\n      0x02\n        /* \"ElectronicMedicalRecords.sol\":6744:6766  relatedPatien[_doctor] */\n      0x00\n        /* \"ElectronicMedicalRecords.sol\":6758:6765  _doctor */\n      dup4\n        /* \"ElectronicMedicalRecords.sol\":6744:6766  relatedPatien[_doctor] */\n      0xffffffffffffffffffffffffffffffffffffffff\n      and\n      0xffffffffffffffffffffffffffffffffffffffff\n      and\n      dup2\n      mstore\n      0x20\n      add\n      swap1\n      dup2\n      mstore\n      0x20\n      add\n      0x00\n      keccak256\n        /* \"ElectronicMedicalRecords.sol\":6772:6780  _patient */\n      dup2\n        /* \"ElectronicMedicalRecords.sol\":6744:6781  relatedPatien[_doctor].push(_patient) */\n      swap1\n      dup1\n      0x01\n      dup2\n      sload\n      add\n      dup1\n      dup3\n      sstore\n      dup1\n      swap2\n      pop\n      pop\n      0x01\n      swap1\n      sub\n      swap1\n      0x00\n      mstore\n      keccak256(0x00, 0x20)\n      add\n      0x00\n      swap1\n      swap2\n      swap1\n      swap2\n      swap1\n      swap2\n      0x0100\n      exp\n      dup2\n      sload\n      dup2\n      0xffffffffffffffffffffffffffffffffffffffff\n      mul\n      not\n      and\n      swap1\n      dup4\n      0xffffffffffffffffffffffffffffffffffffffff\n      and\n      mul\n      or\n      swap1\n      sstore\n      pop\n        /* \"ElectronicMedicalRecords.sol\":6664:6789  function addDoctorRelation(address _doctor, address _patient) public {... */\n      pop\n      pop\n      jump\t// out\n        /* \"ElectronicMedicalRecords.sol\":6797:6928  function getDoctorRelations(address _doctor) public view returns(address[] memory) {... */\n    tag_12:\n        /* \"ElectronicMedicalRecords.sol\":6862:6878  address[] memory */\n      0x60\n        /* \"ElectronicMedicalRecords.sol\":6898:6911  relatedPatien */\n      0x02\n        /* \"ElectronicMedicalRecords.sol\":6898:6920  relatedPatien[_doctor] */\n      0x00\n        /* \"ElectronicMedicalRecords.sol\":6912:6919  _doctor */\n      dup4\n        /* \"ElectronicMedicalRecords.sol\":6898:6920  relatedPatien[_doctor] */\n      0xffffffffffffffffffffffffffffffffffffffff\n      and\n      0xffffffffffffffffffffffffffffffffffffffff\n      and\n      dup2\n      mstore\n      0x20\n      add\n      swap1\n      dup2\n      mstore\n      0x20\n      add\n      0x00\n      keccak256\n        /* \"ElectronicMedicalRecords.sol\":6891:6920  return relatedPatien[_doctor] */\n      dup1\n      sload\n      dup1\n      0x20\n      mul\n      0x20\n      add\n      mload(0x40)\n      swap1\n      dup2\n      add\n      0x40\n      mstore\n      dup1\n      swap3\n      swap2\n      swap1\n      dup2\n      dup2\n      mstore\n      0x20\n      add\n      dup3\n      dup1\n      sload\n      dup1\n      iszero\n      tag_18\n      jumpi\n      0x20\n      mul\n      dup3\n      add\n      swap2\n      swap1\n      0x00\n      mstore\n      keccak256(0x00, 0x20)\n      swap1\n    tag_19:\n      dup2\n      0x00\n      swap1\n      sload\n      swap1\n      0x0100\n      exp\n      swap1\n      div\n      0xffffffffffffffffffffffffffffffffffffffff\n      and\n      0xffffffffffffffffffffffffffffffffffffffff\n      and\n      dup2\n      mstore\n      0x20\n      add\n      swap1\n      0x01\n      add\n      swap1\n      dup1\n      dup4\n      gt\n      tag_19\n      jumpi\n    tag_18:\n      pop\n      pop\n      pop\n      pop\n      pop\n      swap1\n      pop\n        /* \"ElectronicMedicalRecords.sol\":6797:6928  function getDoctorRelations(address _doctor) public view returns(address[] memory) {... */\n      swap2\n      swap1\n      pop\n      jump\t// out\n        /* \"#utility.yul\":88:205   */\n    tag_21:\n        /* \"#utility.yul\":197:198   */\n      0x00\n        /* \"#utility.yul\":194:195   */\n      dup1\n        /* \"#utility.yul\":187:199   */\n      revert\n        /* \"#utility.yul\":334:460   */\n    tag_23:\n        /* \"#utility.yul\":371:378   */\n      0x00\n        /* \"#utility.yul\":411:453   */\n      0xffffffffffffffffffffffffffffffffffffffff\n        /* \"#utility.yul\":404:409   */\n      dup3\n        /* \"#utility.yul\":400:454   */\n      and\n        /* \"#utility.yul\":389:454   */\n      swap1\n      pop\n        /* \"#utility.yul\":334:460   */\n      swap2\n      swap1\n      pop\n      jump\t// out\n        /* \"#utility.yul\":466:562   */\n    tag_24:\n        /* \"#utility.yul\":503:510   */\n      0x00\n        /* \"#utility.yul\":532:556   */\n      tag_40\n        /* \"#utility.yul\":550:555   */\n      dup3\n        /* \"#utility.yul\":532:556   */\n      tag_23\n      jump\t// in\n    tag_40:\n        /* \"#utility.yul\":521:556   */\n      swap1\n      pop\n        /* \"#utility.yul\":466:562   */\n      swap2\n      swap1\n      pop\n      jump\t// out\n        /* \"#utility.yul\":568:690   */\n    tag_25:\n        /* \"#utility.yul\":641:665   */\n      tag_42\n        /* \"#utility.yul\":659:664   */\n      dup2\n        /* \"#utility.yul\":641:665   */\n      tag_24\n      jump\t// in\n    tag_42:\n        /* \"#utility.yul\":634:639   */\n      dup2\n        /* \"#utility.yul\":631:666   */\n      eq\n        /* \"#utility.yul\":621:684   */\n      tag_43\n      jumpi\n        /* \"#utility.yul\":680:681   */\n      0x00\n        /* \"#utility.yul\":677:678   */\n      dup1\n        /* \"#utility.yul\":670:682   */\n      revert\n        /* \"#utility.yul\":621:684   */\n    tag_43:\n        /* \"#utility.yul\":568:690   */\n      pop\n      jump\t// out\n        /* \"#utility.yul\":696:835   */\n    tag_26:\n        /* \"#utility.yul\":742:747   */\n      0x00\n        /* \"#utility.yul\":780:786   */\n      dup2\n        /* \"#utility.yul\":767:787   */\n      calldataload\n        /* \"#utility.yul\":758:787   */\n      swap1\n      pop\n        /* \"#utility.yul\":796:829   */\n      tag_45\n        /* \"#utility.yul\":823:828   */\n      dup2\n        /* \"#utility.yul\":796:829   */\n      tag_25\n      jump\t// in\n    tag_45:\n        /* \"#utility.yul\":696:835   */\n      swap3\n      swap2\n      pop\n      pop\n      jump\t// out\n        /* \"#utility.yul\":841:1315   */\n    tag_7:\n        /* \"#utility.yul\":909:915   */\n      0x00\n        /* \"#utility.yul\":917:923   */\n      dup1\n        /* \"#utility.yul\":966:968   */\n      0x40\n        /* \"#utility.yul\":954:963   */\n      dup4\n        /* \"#utility.yul\":945:952   */\n      dup6\n        /* \"#utility.yul\":941:964   */\n      sub\n        /* \"#utility.yul\":937:969   */\n      slt\n        /* \"#utility.yul\":934:1053   */\n      iszero\n      tag_47\n      jumpi\n        /* \"#utility.yul\":972:1051   */\n      tag_48\n      tag_21\n      jump\t// in\n    tag_48:\n        /* \"#utility.yul\":934:1053   */\n    tag_47:\n        /* \"#utility.yul\":1092:1093   */\n      0x00\n        /* \"#utility.yul\":1117:1170   */\n      tag_49\n        /* \"#utility.yul\":1162:1169   */\n      dup6\n        /* \"#utility.yul\":1153:1159   */\n      dup3\n        /* \"#utility.yul\":1142:1151   */\n      dup7\n        /* \"#utility.yul\":1138:1160   */\n      add\n        /* \"#utility.yul\":1117:1170   */\n      tag_26\n      jump\t// in\n    tag_49:\n        /* \"#utility.yul\":1107:1170   */\n      swap3\n      pop\n        /* \"#utility.yul\":1063:1180   */\n      pop\n        /* \"#utility.yul\":1219:1221   */\n      0x20\n        /* \"#utility.yul\":1245:1298   */\n      tag_50\n        /* \"#utility.yul\":1290:1297   */\n      dup6\n        /* \"#utility.yul\":1281:1287   */\n      dup3\n        /* \"#utility.yul\":1270:1279   */\n      dup7\n        /* \"#utility.yul\":1266:1288   */\n      add\n        /* \"#utility.yul\":1245:1298   */\n      tag_26\n      jump\t// in\n    tag_50:\n        /* \"#utility.yul\":1235:1298   */\n      swap2\n      pop\n        /* \"#utility.yul\":1190:1308   */\n      pop\n        /* \"#utility.yul\":841:1315   */\n      swap3\n      pop\n      swap3\n      swap1\n      pop\n      jump\t// out\n        /* \"#utility.yul\":1321:1650   */\n    tag_11:\n        /* \"#utility.yul\":1380:1386   */\n      0x00\n        /* \"#utility.yul\":1429:1431   */\n      0x20\n        /* \"#utility.yul\":1417:1426   */\n      dup3\n        /* \"#utility.yul\":1408:1415   */\n      dup5\n        /* \"#utility.yul\":1404:1427   */\n      sub\n        /* \"#utility.yul\":1400:1432   */\n      slt\n        /* \"#utility.yul\":1397:1516   */\n      iszero\n      tag_52\n      jumpi\n        /* \"#utility.yul\":1435:1514   */\n      tag_53\n      tag_21\n      jump\t// in\n    tag_53:\n        /* \"#utility.yul\":1397:1516   */\n    tag_52:\n        /* \"#utility.yul\":1555:1556   */\n      0x00\n        /* \"#utility.yul\":1580:1633   */\n      tag_54\n        /* \"#utility.yul\":1625:1632   */\n      dup5\n        /* \"#utility.yul\":1616:1622   */\n      dup3\n        /* \"#utility.yul\":1605:1614   */\n      dup6\n        /* \"#utility.yul\":1601:1623   */\n      add\n        /* \"#utility.yul\":1580:1633   */\n      tag_26\n      jump\t// in\n    tag_54:\n        /* \"#utility.yul\":1570:1633   */\n      swap2\n      pop\n        /* \"#utility.yul\":1526:1643   */\n      pop\n        /* \"#utility.yul\":1321:1650   */\n      swap3\n      swap2\n      pop\n      pop\n      jump\t// out\n        /* \"#utility.yul\":1656:1770   */\n    tag_27:\n        /* \"#utility.yul\":1723:1729   */\n      0x00\n        /* \"#utility.yul\":1757:1762   */\n      dup2\n        /* \"#utility.yul\":1751:1763   */\n      mload\n        /* \"#utility.yul\":1741:1763   */\n      swap1\n      pop\n        /* \"#utility.yul\":1656:1770   */\n      swap2\n      swap1\n      pop\n      jump\t// out\n        /* \"#utility.yul\":1776:1960   */\n    tag_28:\n        /* \"#utility.yul\":1875:1886   */\n      0x00\n        /* \"#utility.yul\":1909:1915   */\n      dup3\n        /* \"#utility.yul\":1904:1907   */\n      dup3\n        /* \"#utility.yul\":1897:1916   */\n      mstore\n        /* \"#utility.yul\":1949:1953   */\n      0x20\n        /* \"#utility.yul\":1944:1947   */\n      dup3\n        /* \"#utility.yul\":1940:1954   */\n      add\n        /* \"#utility.yul\":1925:1954   */\n      swap1\n      pop\n        /* \"#utility.yul\":1776:1960   */\n      swap3\n      swap2\n      pop\n      pop\n      jump\t// out\n        /* \"#utility.yul\":1966:2098   */\n    tag_29:\n        /* \"#utility.yul\":2033:2037   */\n      0x00\n        /* \"#utility.yul\":2056:2059   */\n      dup2\n        /* \"#utility.yul\":2048:2059   */\n      swap1\n      pop\n        /* \"#utility.yul\":2086:2090   */\n      0x20\n        /* \"#utility.yul\":2081:2084   */\n      dup3\n        /* \"#utility.yul\":2077:2091   */\n      add\n        /* \"#utility.yul\":2069:2091   */\n      swap1\n      pop\n        /* \"#utility.yul\":1966:2098   */\n      swap2\n      swap1\n      pop\n      jump\t// out\n        /* \"#utility.yul\":2104:2212   */\n    tag_30:\n        /* \"#utility.yul\":2181:2205   */\n      tag_59\n        /* \"#utility.yul\":2199:2204   */\n      dup2\n        /* \"#utility.yul\":2181:2205   */\n      tag_24\n      jump\t// in\n    tag_59:\n        /* \"#utility.yul\":2176:2179   */\n      dup3\n        /* \"#utility.yul\":2169:2206   */\n      mstore\n        /* \"#utility.yul\":2104:2212   */\n      pop\n      pop\n      jump\t// out\n        /* \"#utility.yul\":2218:2397   */\n    tag_31:\n        /* \"#utility.yul\":2287:2297   */\n      0x00\n        /* \"#utility.yul\":2308:2354   */\n      tag_61\n        /* \"#utility.yul\":2350:2353   */\n      dup4\n        /* \"#utility.yul\":2342:2348   */\n      dup4\n        /* \"#utility.yul\":2308:2354   */\n      tag_30\n      jump\t// in\n    tag_61:\n        /* \"#utility.yul\":2386:2390   */\n      0x20\n        /* \"#utility.yul\":2381:2384   */\n      dup4\n        /* \"#utility.yul\":2377:2391   */\n      add\n        /* \"#utility.yul\":2363:2391   */\n      swap1\n      pop\n        /* \"#utility.yul\":2218:2397   */\n      swap3\n      swap2\n      pop\n      pop\n      jump\t// out\n        /* \"#utility.yul\":2403:2516   */\n    tag_32:\n        /* \"#utility.yul\":2473:2477   */\n      0x00\n        /* \"#utility.yul\":2505:2509   */\n      0x20\n        /* \"#utility.yul\":2500:2503   */\n      dup3\n        /* \"#utility.yul\":2496:2510   */\n      add\n        /* \"#utility.yul\":2488:2510   */\n      swap1\n      pop\n        /* \"#utility.yul\":2403:2516   */\n      swap2\n      swap1\n      pop\n      jump\t// out\n        /* \"#utility.yul\":2552:3284   */\n    tag_33:\n        /* \"#utility.yul\":2671:2674   */\n      0x00\n        /* \"#utility.yul\":2700:2754   */\n      tag_64\n        /* \"#utility.yul\":2748:2753   */\n      dup3\n        /* \"#utility.yul\":2700:2754   */\n      tag_27\n      jump\t// in\n    tag_64:\n        /* \"#utility.yul\":2770:2856   */\n      tag_65\n        /* \"#utility.yul\":2849:2855   */\n      dup2\n        /* \"#utility.yul\":2844:2847   */\n      dup6\n        /* \"#utility.yul\":2770:2856   */\n      tag_28\n      jump\t// in\n    tag_65:\n        /* \"#utility.yul\":2763:2856   */\n      swap4\n      pop\n        /* \"#utility.yul\":2880:2936   */\n      tag_66\n        /* \"#utility.yul\":2930:2935   */\n      dup4\n        /* \"#utility.yul\":2880:2936   */\n      tag_29\n      jump\t// in\n    tag_66:\n        /* \"#utility.yul\":2959:2966   */\n      dup1\n        /* \"#utility.yul\":2990:2991   */\n      0x00\n        /* \"#utility.yul\":2975:3259   */\n    tag_67:\n        /* \"#utility.yul\":3000:3006   */\n      dup4\n        /* \"#utility.yul\":2997:2998   */\n      dup2\n        /* \"#utility.yul\":2994:3007   */\n      lt\n        /* \"#utility.yul\":2975:3259   */\n      iszero\n      tag_69\n      jumpi\n        /* \"#utility.yul\":3076:3082   */\n      dup2\n        /* \"#utility.yul\":3070:3083   */\n      mload\n        /* \"#utility.yul\":3103:3166   */\n      tag_70\n        /* \"#utility.yul\":3162:3165   */\n      dup9\n        /* \"#utility.yul\":3147:3160   */\n      dup3\n        /* \"#utility.yul\":3103:3166   */\n      tag_31\n      jump\t// in\n    tag_70:\n        /* \"#utility.yul\":3096:3166   */\n      swap8\n      pop\n        /* \"#utility.yul\":3189:3249   */\n      tag_71\n        /* \"#utility.yul\":3242:3248   */\n      dup4\n        /* \"#utility.yul\":3189:3249   */\n      tag_32\n      jump\t// in\n    tag_71:\n        /* \"#utility.yul\":3179:3249   */\n      swap3\n      pop\n        /* \"#utility.yul\":3035:3259   */\n      pop\n        /* \"#utility.yul\":3022:3023   */\n      0x01\n        /* \"#utility.yul\":3019:3020   */\n      dup2\n        /* \"#utility.yul\":3015:3024   */\n      add\n        /* \"#utility.yul\":3010:3024   */\n      swap1\n      pop\n        /* \"#utility.yul\":2975:3259   */\n      jump(tag_67)\n    tag_69:\n        /* \"#utility.yul\":2979:2993   */\n      pop\n        /* \"#utility.yul\":3275:3278   */\n      dup6\n        /* \"#utility.yul\":3268:3278   */\n      swap4\n      pop\n        /* \"#utility.yul\":2676:3284   */\n      pop\n      pop\n      pop\n        /* \"#utility.yul\":2552:3284   */\n      swap3\n      swap2\n      pop\n      pop\n      jump\t// out\n        /* \"#utility.yul\":3290:3663   */\n    tag_14:\n        /* \"#utility.yul\":3433:3437   */\n      0x00\n        /* \"#utility.yul\":3471:3473   */\n      0x20\n        /* \"#utility.yul\":3460:3469   */\n      dup3\n        /* \"#utility.yul\":3456:3474   */\n      add\n        /* \"#utility.yul\":3448:3474   */\n      swap1\n      pop\n        /* \"#utility.yul\":3520:3529   */\n      dup2\n        /* \"#utility.yul\":3514:3518   */\n      dup2\n        /* \"#utility.yul\":3510:3530   */\n      sub\n        /* \"#utility.yul\":3506:3507   */\n      0x00\n        /* \"#utility.yul\":3495:3504   */\n      dup4\n        /* \"#utility.yul\":3491:3508   */\n      add\n        /* \"#utility.yul\":3484:3531   */\n      mstore\n        /* \"#utility.yul\":3548:3656   */\n      tag_73\n        /* \"#utility.yul\":3651:3655   */\n      dup2\n        /* \"#utility.yul\":3642:3648   */\n      dup5\n        /* \"#utility.yul\":3548:3656   */\n      tag_33\n      jump\t// in\n    tag_73:\n        /* \"#utility.yul\":3540:3656   */\n      swap1\n      pop\n        /* \"#utility.yul\":3290:3663   */\n      swap3\n      swap2\n      pop\n      pop\n      jump\t// out\n\n    auxdata: 0xa264697066735822122053e79a7e35e4e12f45c9d9922be2bfcaa123720b9d4851a8fea0bc068089c59c64736f6c63430008110033\n}\n","bytecode":{"linkReferences":{},"object":"608060405234801561001057600080fd5b506040516104f53803806104f5833981810160405281019061003291906100db565b806000806101000a81548173ffffffffffffffffffffffffffffffffffffffff021916908373ffffffffffffffffffffffffffffffffffffffff16021790555050610108565b600080fd5b600073ffffffffffffffffffffffffffffffffffffffff82169050919050565b60006100a88261007d565b9050919050565b6100b88161009d565b81146100c357600080fd5b50565b6000815190506100d5816100af565b92915050565b6000602082840312156100f1576100f0610078565b5b60006100ff848285016100c6565b91505092915050565b6103de806101176000396000f3fe608060405234801561001057600080fd5b50600436106100365760003560e01c80638bfc8c711461003b578063f40941d014610057575b600080fd5b6100556004803603810190610050919061025b565b610087565b005b610071600480360381019061006c919061029b565b61012b565b60405161007e9190610386565b60405180910390f35b600260008373ffffffffffffffffffffffffffffffffffffffff1673ffffffffffffffffffffffffffffffffffffffff168152602001908152602001600020819080600181540180825580915050600190039060005260206000200160009091909190916101000a81548173ffffffffffffffffffffffffffffffffffffffff021916908373ffffffffffffffffffffffffffffffffffffffff1602179055505050565b6060600260008373ffffffffffffffffffffffffffffffffffffffff1673ffffffffffffffffffffffffffffffffffffffff1681526020019081526020016000208054806020026020016040519081016040528092919081815260200182805480156101ec57602002820191906000526020600020905b8160009054906101000a900473ffffffffffffffffffffffffffffffffffffffff1673ffffffffffffffffffffffffffffffffffffffff16815260200190600101908083116101a2575b50505050509050919050565b600080fd5b600073ffffffffffffffffffffffffffffffffffffffff82169050919050565b6000610228826101fd565b9050919050565b6102388161021d565b811461024357600080fd5b50565b6000813590506102558161022f565b92915050565b60008060408385031215610272576102716101f8565b5b600061028085828601610246565b925050602061029185828601610246565b9150509250929050565b6000602082840312156102b1576102b06101f8565b5b60006102bf84828501610246565b91505092915050565b600081519050919050565b600082825260208201905092915050565b6000819050602082019050919050565b6102fd8161021d565b82525050565b600061030f83836102f4565b60208301905092915050565b6000602082019050919050565b6000610333826102c8565b61033d81856102d3565b9350610348836102e4565b8060005b838110156103795781516103608882610303565b975061036b8361031b565b92505060018101905061034c565b5085935050505092915050565b600060208201905081810360008301526103a08184610328565b90509291505056fea264697066735822122053e79a7e35e4e12f45c9d9922be2bfcaa123720b9d4851a8fea0bc068089c59c64736f6c63430008110033","opcodes":"PUSH1 0x80 PUSH1 0x40 MSTORE CALLVALUE DUP1 ISZERO PUSH2 0x10 JUMPI PUSH1 0x0 DUP1 REVERT JUMPDEST POP PUSH1 0x40 MLOAD PUSH2 0x4F5 CODESIZE SUB DUP1 PUSH2 0x4F5 DUP4 CODECOPY DUP2 DUP2 ADD PUSH1 0x40 MSTORE DUP2 ADD SWAP1 PUSH2 0x32 SWAP2 SWAP1 PUSH2 0xDB JUMP JUMPDEST DUP1 PUSH1 0x0 DUP1 PUSH2 0x100 EXP DUP2 SLOAD DUP2 PUSH20 0xFFFFFFFFFFFFFFFFFFFFFFFFFFFFFFFFFFFFFFFF MUL NOT AND SWAP1 DUP4 PUSH20 0xFFFFFFFFFFFFFFFFFFFFFFFFFFFFFFFFFFFFFFFF AND MUL OR SWAP1 SSTORE POP POP PUSH2 0x108 JUMP JUMPDEST PUSH1 0x0 DUP1 REVERT JUMPDEST PUSH1 0x0 PUSH20 0xFFFFFFFFFFFFFFFFFFFFFFFFFFFFFFFFFFFFFFFF DUP3 AND SWAP1 POP SWAP2 SWAP1 POP JUMP JUMPDEST PUSH1 0x0 PUSH2 0xA8 DUP3 PUSH2 0x7D JUMP JUMPDEST SWAP1 POP SWAP2 SWAP1 POP JUMP JUMPDEST PUSH2 0xB8 DUP2 PUSH2 0x9D JUMP JUMPDEST DUP2 EQ PUSH2 0xC3 JUMPI PUSH1 0x0 DUP1 REVERT JUMPDEST POP JUMP JUMPDEST PUSH1 0x0 DUP2 MLOAD SWAP1 POP PUSH2 0xD5 DUP2 PUSH2 0xAF JUMP JUMPDEST SWAP3 SWAP2 POP POP JUMP JUMPDEST PUSH1 0x0 PUSH1 0x20 DUP3 DUP5 SUB SLT ISZERO PUSH2 0xF1 JUMPI PUSH2 0xF0 PUSH2 0x78 JUMP JUMPDEST JUMPDEST PUSH1 0x0 PUSH2 0xFF DUP5 DUP3 DUP6 ADD PUSH2 0xC6 JUMP JUMPDEST SWAP2 POP POP SWAP3 SWAP2 POP POP JUMP JUMPDEST PUSH2 0x3DE DUP1 PUSH2 0x117 PUSH1 0x0 CODECOPY PUSH1 0x0 RETURN INVALID PUSH1 0x80 PUSH1 0x40 MSTORE CALLVALUE DUP1 ISZERO PUSH2 0x10 JUMPI PUSH1 0x0 DUP1 REVERT JUMPDEST POP PUSH1 0x4 CALLDATASIZE LT PUSH2 0x36 JUMPI PUSH1 0x0 CALLDATALOAD PUSH1 0xE0 SHR DUP1 PUSH4 0x8BFC8C71 EQ PUSH2 0x3B JUMPI DUP1 PUSH4 0xF40941D0 EQ PUSH2 0x57 JUMPI JUMPDEST PUSH1 0x0 DUP1 REVERT JUMPDEST PUSH2 0x55 PUSH1 0x4 DUP1 CALLDATASIZE SUB DUP2 ADD SWAP1 PUSH2 0x50 SWAP2 SWAP1 PUSH2 0x25B JUMP JUMPDEST PUSH2 0x87 JUMP JUMPDEST STOP JUMPDEST PUSH2 0x71 PUSH1 0x4 DUP1 CALLDATASIZE SUB DUP2 ADD SWAP1 PUSH2 0x6C SWAP2 SWAP1 PUSH2 0x29B JUMP JUMPDEST PUSH2 0x12B JUMP JUMPDEST PUSH1 0x40 MLOAD PUSH2 0x7E SWAP2 SWAP1 PUSH2 0x386 JUMP JUMPDEST PUSH1 0x40 MLOAD DUP1 SWAP2 SUB SWAP1 RETURN JUMPDEST PUSH1 0x2 PUSH1 0x0 DUP4 PUSH20 0xFFFFFFFFFFFFFFFFFFFFFFFFFFFFFFFFFFFFFFFF AND PUSH20 0xFFFFFFFFFFFFFFFFFFFFFFFFFFFFFFFFFFFFFFFF AND DUP2 MSTORE PUSH1 0x20 ADD SWAP1 DUP2 MSTORE PUSH1 0x20 ADD PUSH1 0x0 KECCAK256 DUP2 SWAP1 DUP1 PUSH1 0x1 DUP2 SLOAD ADD DUP1 DUP3 SSTORE DUP1 SWAP2 POP POP PUSH1 0x1 SWAP1 SUB SWAP1 PUSH1 0x0 MSTORE PUSH1 0x20 PUSH1 0x0 KECCAK256 ADD PUSH1 0x0 SWAP1 SWAP2 SWAP1 SWAP2 SWAP1 SWAP2 PUSH2 0x100 EXP DUP2 SLOAD DUP2 PUSH20 0xFFFFFFFFFFFFFFFFFFFFFFFFFFFFFFFFFFFFFFFF MUL NOT AND SWAP1 DUP4 PUSH20 0xFFFFFFFFFFFFFFFFFFFFFFFFFFFFFFFFFFFFFFFF AND MUL OR SWAP1 SSTORE POP POP POP JUMP JUMPDEST PUSH1 0x60 PUSH1 0x2 PUSH1 0x0 DUP4 PUSH20 0xFFFFFFFFFFFFFFFFFFFFFFFFFFFFFFFFFFFFFFFF AND PUSH20 0xFFFFFFFFFFFFFFFFFFFFFFFFFFFFFFFFFFFFFFFF AND DUP2 MSTORE PUSH1 0x20 ADD SWAP1 DUP2 MSTORE PUSH1 0x20 ADD PUSH1 0x0 KECCAK256 DUP1 SLOAD DUP1 PUSH1 0x20 MUL PUSH1 0x20 ADD PUSH1 0x40 MLOAD SWAP1 DUP2 ADD PUSH1 0x40 MSTORE DUP1 SWAP3 SWAP2 SWAP1 DUP2 DUP2 MSTORE PUSH1 0x20 ADD DUP3 DUP1 SLOAD DUP1 ISZERO PUSH2 0x1EC JUMPI PUSH1 0x20 MUL DUP3 ADD SWAP2 SWAP1 PUSH1 0x0 MSTORE PUSH1 0x20 PUSH1 0x0 KECCAK256 SWAP1 JUMPDEST DUP2 PUSH1 0x0 SWAP1 SLOAD SWAP1 PUSH2 0x100 EXP SWAP1 DIV PUSH20 0xFFFFFFFFFFFFFFFFFFFFFFFFFFFFFFFFFFFFFFFF AND PUSH20 0xFFFFFFFFFFFFFFFFFFFFFFFFFFFFFFFFFFFFFFFF AND DUP2 MSTORE PUSH1 0x20 ADD SWAP1 PUSH1 0x1 ADD SWAP1 DUP1 DUP4 GT PUSH2 0x1A2 JUMPI JUMPDEST POP POP POP POP POP SWAP1 POP SWAP2 SWAP1 POP JUMP JUMPDEST PUSH1 0x0 DUP1 REVERT JUMPDEST PUSH1 0x0 PUSH20 0xFFFFFFFFFFFFFFFFFFFFFFFFFFFFFFFFFFFFFFFF DUP3 AND SWAP1 POP SWAP2 SWAP1 POP JUMP JUMPDEST PUSH1 0x0 PUSH2 0x228 DUP3 PUSH2 0x1FD JUMP JUMPDEST SWAP1 POP SWAP2 SWAP1 POP JUMP JUMPDEST PUSH2 0x238 DUP2 PUSH2 0x21D JUMP JUMPDEST DUP2 EQ PUSH2 0x243 JUMPI PUSH1 0x0 DUP1 REVERT JUMPDEST POP JUMP JUMPDEST PUSH1 0x0 DUP2 CALLDATALOAD SWAP1 POP PUSH2 0x255 DUP2 PUSH2 0x22F JUMP JUMPDEST SWAP3 SWAP2 POP POP JUMP JUMPDEST PUSH1 0x0 DUP1 PUSH1 0x40 DUP4 DUP6 SUB SLT ISZERO PUSH2 0x272 JUMPI PUSH2 0x271 PUSH2 0x1F8 JUMP JUMPDEST JUMPDEST PUSH1 0x0 PUSH2 0x280 DUP6 DUP3 DUP7 ADD PUSH2 0x246 JUMP JUMPDEST SWAP3 POP POP PUSH1 0x20 PUSH2 0x291 DUP6 DUP3 DUP7 ADD PUSH2 0x246 JUMP JUMPDEST SWAP2 POP POP SWAP3 POP SWAP3 SWAP1 POP JUMP JUMPDEST PUSH1 0x0 PUSH1 0x20 DUP3 DUP5 SUB SLT ISZERO PUSH2 0x2B1 JUMPI PUSH2 0x2B0 PUSH2 0x1F8 JUMP JUMPDEST JUMPDEST PUSH1 0x0 PUSH2 0x2BF DUP5 DUP3 DUP6 ADD PUSH2 0x246 JUMP JUMPDEST SWAP2 POP POP SWAP3 SWAP2 POP POP JUMP JUMPDEST PUSH1 0x0 DUP2 MLOAD SWAP1 POP SWAP2 SWAP1 POP JUMP JUMPDEST PUSH1 0x0 DUP3 DUP3 MSTORE PUSH1 0x20 DUP3 ADD SWAP1 POP SWAP3 SWAP2 POP POP JUMP JUMPDEST PUSH1 0x0 DUP2 SWAP1 POP PUSH1 0x20 DUP3 ADD SWAP1 POP SWAP2 SWAP1 POP JUMP JUMPDEST PUSH2 0x2FD DUP2 PUSH2 0x21D JUMP JUMPDEST DUP3 MSTORE POP POP JUMP JUMPDEST PUSH1 0x0 PUSH2 0x30F DUP4 DUP4 PUSH2 0x2F4 JUMP JUMPDEST PUSH1 0x20 DUP4 ADD SWAP1 POP SWAP3 SWAP2 POP POP JUMP JUMPDEST PUSH1 0x0 PUSH1 0x20 DUP3 ADD SWAP1 POP SWAP2 SWAP1 POP JUMP JUMPDEST PUSH1 0x0 PUSH2 0x333 DUP3 PUSH2 0x2C8 JUMP JUMPDEST PUSH2 0x33D DUP2 DUP6 PUSH2 0x2D3 JUMP JUMPDEST SWAP4 POP PUSH2 0x348 DUP4 PUSH2 0x2E4 JUMP JUMPDEST DUP1 PUSH1 0x0 JUMPDEST DUP4 DUP2 LT ISZERO PUSH2 0x379 JUMPI DUP2 MLOAD PUSH2 0x360 DUP9 DUP3 PUSH2 0x303 JUMP JUMPDEST SWAP8 POP PUSH2 0x36B DUP4 PUSH2 0x31B JUMP JUMPDEST SWAP3 POP POP PUSH1 0x1 DUP2 ADD SWAP1 POP PUSH2 0x34C JUMP JUMPDEST POP DUP6 SWAP4 POP POP POP POP SWAP3 SWAP2 POP POP JUMP JUMPDEST PUSH1 0x0 PUSH1 0x20 DUP3 ADD SWAP1 POP DUP2 DUP2 SUB PUSH1 0x0 DUP4 ADD MSTORE PUSH2 0x3A0 DUP2 DUP5 PUSH2 0x328 JUMP JUMPDEST SWAP1 POP SWAP3 SWAP2 POP POP JUMP INVALID LOG2 PUSH5 0x6970667358 0x22 SLT KECCAK256 MSTORE8 0xE7 SWAP11 PUSH31 0x35E4E12F45C9D9922BE2BFCAA123720B9D4851A8FEA0BC068089C59C64736F PUSH13 0x63430008110033000000000000 "},"gasEstimates":{"creation":{"codeDepositCost":"198000","executionCost":"infinite","totalCost":"infinite"},"external":{"addDoctorRelation(address,address)":"infinite","getDoctorRelations(address)":"infinite"}},"methodIdentifiers":{"addDoctorRelation(address,address)":"8bfc8c71","getDoctorRelations(address)":"f40941d0"}},"storageLayout":{"storage":[{"astId":596,"contract":"ElectronicMedicalRecords.sol:DoctorRelation","label":"admin","offset":0,"slot":"0","type":"t_address"},{"astId":600,"contract":"ElectronicMedicalRecords.sol:DoctorRelation","label":"haveAccess","offset":0,"slot":"1","type":"t_mapping(t_address,t_bool)"},{"astId":605,"contract":"ElectronicMedicalRecords.sol:DoctorRelation","label":"relatedPatien","offset":0,"slot":"2","type":"t_mapping(t_address,t_array(t_address)dyn_storage)"}],"types":{"t_address":{"encoding":"inplace","label":"address","numberOfBytes":"20"},"t_array(t_address)dyn_storage":{"base":"t_address","encoding":"dynamic_array","label":"address[]","numberOfBytes":"32"},"t_bool":{"encoding":"inplace","label":"bool","numberOfBytes":"1"},"t_mapping(t_address,t_array(t_address)dyn_storage)":{"encoding":"mapping","key":"t_address","label":"mapping(address => address[])","numberOfBytes":"32","value":"t_array(t_address)dyn_storage"},"t_mapping(t_address,t_bool)":{"encoding":"mapping","key":"t_address","label":"mapping(address => bool)","numberOfBytes":"32","value":"t_bool"}}},"userdoc":{"kind":"user","methods":{},"version":1}}