{"abi":[{"inputs":[{"internalType":"address","name":"_admin","type":"address"}],"stateMutability":"nonpayable","type":"constructor"},{"inputs":[{"components":[{"internalType":"address","name":"patientAddress","type":"address"},{"internalType":"string","name":"nama_lengkap","type":"string"},{"internalType":"uint256","name":"umur","type":"uint256"},{"internalType":"string","name":"tanggal_lahir","type":"string"}],"internalType":"struct Patient.IdentitasPasien","name":"_identitasPasien","type":"tuple"},{"components":[{"internalType":"address","name":"patient_address","type":"address"},{"internalType":"string","name":"jenis","type":"string"},{"internalType":"string","name":"date_and_time","type":"string"},{"internalType":"string","name":"anamnesis","type":"string"},{"internalType":"string","name":"diagnosis","type":"string"},{"internalType":"string","name":"rp","type":"string"},{"internalType":"string","name":"pengobatan","type":"string"},{"internalType":"string","name":"tindakan","type":"string"},{"internalType":"string","name":"pelayanan","type":"string"},{"internalType":"bool","name":"agreement","type":"bool"}],"internalType":"struct Patient.RawatJalan","name":"_rawatjalan","type":"tuple"}],"name":"addOutPatient","outputs":[],"stateMutability":"nonpayable","type":"function"},{"inputs":[{"internalType":"address","name":"add","type":"address"}],"name":"getOutPatient","outputs":[{"components":[{"internalType":"address","name":"patientAddress","type":"address"},{"internalType":"string","name":"nama_lengkap","type":"string"},{"internalType":"uint256","name":"umur","type":"uint256"},{"internalType":"string","name":"tanggal_lahir","type":"string"}],"internalType":"struct Patient.IdentitasPasien","name":"a","type":"tuple"},{"components":[{"internalType":"address","name":"patient_address","type":"address"},{"internalType":"string","name":"jenis","type":"string"},{"internalType":"string","name":"date_and_time","type":"string"},{"internalType":"string","name":"anamnesis","type":"string"},{"internalType":"string","name":"diagnosis","type":"string"},{"internalType":"string","name":"rp","type":"string"},{"internalType":"string","name":"pengobatan","type":"string"},{"internalType":"string","name":"tindakan","type":"string"},{"internalType":"string","name":"pelayanan","type":"string"},{"internalType":"bool","name":"agreement","type":"bool"}],"internalType":"struct Patient.RawatJalan","name":"b","type":"tuple"}],"stateMutability":"view","type":"function"},{"inputs":[{"internalType":"address","name":"_address","type":"address"}],"name":"getPatientData","outputs":[{"components":[{"internalType":"address","name":"patientAddress","type":"address"},{"internalType":"string","name":"nama_lengkap","type":"string"},{"internalType":"uint256","name":"umur","type":"uint256"},{"internalType":"string","name":"tanggal_lahir","type":"string"},{"internalType":"string","name":"tanggal_masuk","type":"string"},{"internalType":"string","name":"tanggal_keluar","type":"string"},{"internalType":"string","name":"anamnesis","type":"string"},{"internalType":"string","name":"diagnosis","type":"string"}],"internalType":"struct Patient.PatientData","name":"data","type":"tuple"}],"stateMutability":"view","type":"function"},{"inputs":[{"internalType":"address","name":"","type":"address"}],"name":"outPatient","outputs":[{"internalType":"address","name":"patient_address","type":"address"},{"internalType":"string","name":"jenis","type":"string"},{"internalType":"string","name":"date_and_time","type":"string"},{"internalType":"string","name":"anamnesis","type":"string"},{"internalType":"string","name":"diagnosis","type":"string"},{"internalType":"string","name":"rp","type":"string"},{"internalType":"string","name":"pengobatan","type":"string"},{"internalType":"string","name":"tindakan","type":"string"},{"internalType":"string","name":"pelayanan","type":"string"},{"internalType":"bool","name":"agreement","type":"bool"}],"stateMutability":"view","type":"function"},{"inputs":[{"internalType":"address","name":"","type":"address"}],"name":"patientId","outputs":[{"internalType":"address","name":"patientAddress","type":"address"},{"internalType":"string","name":"nama_lengkap","type":"string"},{"internalType":"uint256","name":"umur","type":"uint256"},{"internalType":"string","name":"tanggal_lahir","type":"string"}],"stateMutability":"view","type":"function"},{"inputs":[{"internalType":"address","name":"_DoctorRelationAddress","type":"address"}],"name":"setDoctorRelationAddress","outputs":[],"stateMutability":"nonpayable","type":"function"},{"inputs":[{"internalType":"address","name":"_DoctorVerificatorAddress","type":"address"}],"name":"setDoctorVerificatorAddress","outputs":[],"stateMutability":"nonpayable","type":"function"},{"inputs":[{"internalType":"address","name":"_patient","type":"address"},{"internalType":"string","name":"_nama_lengkap","type":"string"},{"internalType":"uint256","name":"_umur","type":"uint256"},{"internalType":"string","name":"_tanggal_lahir","type":"string"},{"internalType":"string","name":"_tanggal_masuk","type":"string"},{"internalType":"string","name":"_tanggal_keluar","type":"string"},{"internalType":"string","name":"_anamnesis","type":"string"},{"internalType":"string","name":"_diagnosis","type":"string"}],"name":"setPatientData","outputs":[],"stateMutability":"nonpayable","type":"function"},{"inputs":[{"internalType":"address","name":"_PatientVerificatorAddress","type":"address"}],"name":"setPatientVerificatorAddress","outputs":[],"stateMutability":"nonpayable","type":"function"},{"inputs":[{"internalType":"address","name":"_patient","type":"address"},{"internalType":"string","name":"_nama_lengkap","type":"string"},{"internalType":"uint256","name":"_umur","type":"uint256"},{"internalType":"string","name":"_tanggal_lahir","type":"string"},{"internalType":"string","name":"_tanggal_masuk","type":"string"},{"internalType":"string","name":"_tanggal_keluar","type":"string"},{"internalType":"string","name":"_anamnesis","type":"string"},{"internalType":"string","name":"_diagnosis","type":"string"}],"name":"updatePatientData","outputs":[],"stateMutability":"nonpayable","type":"function"}],"devdoc":{"kind":"dev","methods":{},"version":1},"evm":{"assembly":"    /* \"ElectronicMedicalRecords.sol\":1267:8390  contract Patient {... */\n  mstore(0x40, 0x80)\n    /* \"ElectronicMedicalRecords.sol\":4216:4277  constructor(address _admin) {... */\n  callvalue\n  dup1\n  iszero\n  tag_1\n  jumpi\n  0x00\n  dup1\n  revert\ntag_1:\n  pop\n  mload(0x40)\n  sub(codesize, bytecodeSize)\n  dup1\n  bytecodeSize\n  dup4\n  codecopy\n  dup2\n  dup2\n  add\n  0x40\n  mstore\n  dup2\n  add\n  swap1\n  tag_2\n  swap2\n  swap1\n  tag_3\n  jump\t// in\ntag_2:\n    /* \"ElectronicMedicalRecords.sol\":4263:4269  _admin */\n  dup1\n    /* \"ElectronicMedicalRecords.sol\":4255:4260  admin */\n  0x03\n  0x00\n    /* \"ElectronicMedicalRecords.sol\":4255:4269  admin = _admin */\n  0x0100\n  exp\n  dup2\n  sload\n  dup2\n  0xffffffffffffffffffffffffffffffffffffffff\n  mul\n  not\n  and\n  swap1\n  dup4\n  0xffffffffffffffffffffffffffffffffffffffff\n  and\n  mul\n  or\n  swap1\n  sstore\n  pop\n    /* \"ElectronicMedicalRecords.sol\":4216:4277  constructor(address _admin) {... */\n  pop\n    /* \"ElectronicMedicalRecords.sol\":1267:8390  contract Patient {... */\n  jump(tag_6)\n    /* \"#utility.yul\":88:205   */\ntag_8:\n    /* \"#utility.yul\":197:198   */\n  0x00\n    /* \"#utility.yul\":194:195   */\n  dup1\n    /* \"#utility.yul\":187:199   */\n  revert\n    /* \"#utility.yul\":334:460   */\ntag_10:\n    /* \"#utility.yul\":371:378   */\n  0x00\n    /* \"#utility.yul\":411:453   */\n  0xffffffffffffffffffffffffffffffffffffffff\n    /* \"#utility.yul\":404:409   */\n  dup3\n    /* \"#utility.yul\":400:454   */\n  and\n    /* \"#utility.yul\":389:454   */\n  swap1\n  pop\n    /* \"#utility.yul\":334:460   */\n  swap2\n  swap1\n  pop\n  jump\t// out\n    /* \"#utility.yul\":466:562   */\ntag_11:\n    /* \"#utility.yul\":503:510   */\n  0x00\n    /* \"#utility.yul\":532:556   */\n  tag_20\n    /* \"#utility.yul\":550:555   */\n  dup3\n    /* \"#utility.yul\":532:556   */\n  tag_10\n  jump\t// in\ntag_20:\n    /* \"#utility.yul\":521:556   */\n  swap1\n  pop\n    /* \"#utility.yul\":466:562   */\n  swap2\n  swap1\n  pop\n  jump\t// out\n    /* \"#utility.yul\":568:690   */\ntag_12:\n    /* \"#utility.yul\":641:665   */\n  tag_22\n    /* \"#utility.yul\":659:664   */\n  dup2\n    /* \"#utility.yul\":641:665   */\n  tag_11\n  jump\t// in\ntag_22:\n    /* \"#utility.yul\":634:639   */\n  dup2\n    /* \"#utility.yul\":631:666   */\n  eq\n    /* \"#utility.yul\":621:684   */\n  tag_23\n  jumpi\n    /* \"#utility.yul\":680:681   */\n  0x00\n    /* \"#utility.yul\":677:678   */\n  dup1\n    /* \"#utility.yul\":670:682   */\n  revert\n    /* \"#utility.yul\":621:684   */\ntag_23:\n    /* \"#utility.yul\":568:690   */\n  pop\n  jump\t// out\n    /* \"#utility.yul\":696:839   */\ntag_13:\n    /* \"#utility.yul\":753:758   */\n  0x00\n    /* \"#utility.yul\":784:790   */\n  dup2\n    /* \"#utility.yul\":778:791   */\n  mload\n    /* \"#utility.yul\":769:791   */\n  swap1\n  pop\n    /* \"#utility.yul\":800:833   */\n  tag_25\n    /* \"#utility.yul\":827:832   */\n  dup2\n    /* \"#utility.yul\":800:833   */\n  tag_12\n  jump\t// in\ntag_25:\n    /* \"#utility.yul\":696:839   */\n  swap3\n  swap2\n  pop\n  pop\n  jump\t// out\n    /* \"#utility.yul\":845:1196   */\ntag_3:\n    /* \"#utility.yul\":915:921   */\n  0x00\n    /* \"#utility.yul\":964:966   */\n  0x20\n    /* \"#utility.yul\":952:961   */\n  dup3\n    /* \"#utility.yul\":943:950   */\n  dup5\n    /* \"#utility.yul\":939:962   */\n  sub\n    /* \"#utility.yul\":935:967   */\n  slt\n    /* \"#utility.yul\":932:1051   */\n  iszero\n  tag_27\n  jumpi\n    /* \"#utility.yul\":970:1049   */\n  tag_28\n  tag_8\n  jump\t// in\ntag_28:\n    /* \"#utility.yul\":932:1051   */\ntag_27:\n    /* \"#utility.yul\":1090:1091   */\n  0x00\n    /* \"#utility.yul\":1115:1179   */\n  tag_29\n    /* \"#utility.yul\":1171:1178   */\n  dup5\n    /* \"#utility.yul\":1162:1168   */\n  dup3\n    /* \"#utility.yul\":1151:1160   */\n  dup6\n    /* \"#utility.yul\":1147:1169   */\n  add\n    /* \"#utility.yul\":1115:1179   */\n  tag_13\n  jump\t// in\ntag_29:\n    /* \"#utility.yul\":1105:1179   */\n  swap2\n  pop\n    /* \"#utility.yul\":1061:1189   */\n  pop\n    /* \"#utility.yul\":845:1196   */\n  swap3\n  swap2\n  pop\n  pop\n  jump\t// out\n    /* \"ElectronicMedicalRecords.sol\":1267:8390  contract Patient {... */\ntag_6:\n  dataSize(sub_0)\n  dup1\n  dataOffset(sub_0)\n  0x00\n  codecopy\n  0x00\n  return\nstop\n\nsub_0: assembly {\n        /* \"ElectronicMedicalRecords.sol\":1267:8390  contract Patient {... */\n      mstore(0x40, 0x80)\n      callvalue\n      dup1\n      iszero\n      tag_1\n      jumpi\n      0x00\n      dup1\n      revert\n    tag_1:\n      pop\n      jumpi(tag_2, lt(calldatasize, 0x04))\n      shr(0xe0, calldataload(0x00))\n      dup1\n      0x52a6042d\n      gt\n      tag_13\n      jumpi\n      dup1\n      0x52a6042d\n      eq\n      tag_8\n      jumpi\n      dup1\n      0x5db185c7\n      eq\n      tag_9\n      jumpi\n      dup1\n      0x7621df6f\n      eq\n      tag_10\n      jumpi\n      dup1\n      0xb2c24a34\n      eq\n      tag_11\n      jumpi\n      dup1\n      0xc74bb731\n      eq\n      tag_12\n      jumpi\n      jump(tag_2)\n    tag_13:\n      dup1\n      0x1107747e\n      eq\n      tag_3\n      jumpi\n      dup1\n      0x231d90b4\n      eq\n      tag_4\n      jumpi\n      dup1\n      0x26c01f7d\n      eq\n      tag_5\n      jumpi\n      dup1\n      0x41093984\n      eq\n      tag_6\n      jumpi\n      dup1\n      0x48e81852\n      eq\n      tag_7\n      jumpi\n    tag_2:\n      0x00\n      dup1\n      revert\n        /* \"ElectronicMedicalRecords.sol\":4285:4448  function setDoctorVerificatorAddress(address _DoctorVerificatorAddress) public {... */\n    tag_3:\n      tag_14\n      0x04\n      dup1\n      calldatasize\n      sub\n      dup2\n      add\n      swap1\n      tag_15\n      swap2\n      swap1\n      tag_16\n      jump\t// in\n    tag_15:\n      tag_17\n      jump\t// in\n    tag_14:\n      stop\n        /* \"ElectronicMedicalRecords.sol\":4788:5996  function addOutPatient (... */\n    tag_4:\n      tag_18\n      0x04\n      dup1\n      calldatasize\n      sub\n      dup2\n      add\n      swap1\n      tag_19\n      swap2\n      swap1\n      tag_20\n      jump\t// in\n    tag_19:\n      tag_21\n      jump\t// in\n    tag_18:\n      stop\n        /* \"ElectronicMedicalRecords.sol\":6174:7110  function setPatientData(... */\n    tag_5:\n      tag_22\n      0x04\n      dup1\n      calldatasize\n      sub\n      dup2\n      add\n      swap1\n      tag_23\n      swap2\n      swap1\n      tag_24\n      jump\t// in\n    tag_23:\n      tag_25\n      jump\t// in\n    tag_22:\n      stop\n        /* \"ElectronicMedicalRecords.sol\":3999:4051  mapping(address => IdentitasPasien) public patientId */\n    tag_6:\n      tag_26\n      0x04\n      dup1\n      calldatasize\n      sub\n      dup2\n      add\n      swap1\n      tag_27\n      swap2\n      swap1\n      tag_16\n      jump\t// in\n    tag_27:\n      tag_28\n      jump\t// in\n    tag_26:\n      mload(0x40)\n      tag_29\n      swap5\n      swap4\n      swap3\n      swap2\n      swap1\n      tag_30\n      jump\t// in\n    tag_29:\n      mload(0x40)\n      dup1\n      swap2\n      sub\n      swap1\n      return\n        /* \"ElectronicMedicalRecords.sol\":7118:7315  function getPatientData(address _address)... */\n    tag_7:\n      tag_31\n      0x04\n      dup1\n      calldatasize\n      sub\n      dup2\n      add\n      swap1\n      tag_32\n      swap2\n      swap1\n      tag_16\n      jump\t// in\n    tag_32:\n      tag_33\n      jump\t// in\n    tag_31:\n      mload(0x40)\n      tag_34\n      swap2\n      swap1\n      tag_35\n      jump\t// in\n    tag_34:\n      mload(0x40)\n      dup1\n      swap2\n      sub\n      swap1\n      return\n        /* \"ElectronicMedicalRecords.sol\":7323:8120  function updatePatientData(... */\n    tag_8:\n      tag_36\n      0x04\n      dup1\n      calldatasize\n      sub\n      dup2\n      add\n      swap1\n      tag_37\n      swap2\n      swap1\n      tag_24\n      jump\t// in\n    tag_37:\n      tag_38\n      jump\t// in\n    tag_36:\n      stop\n        /* \"ElectronicMedicalRecords.sol\":4456:4624  function setPatientVerificatorAddress(address _PatientVerificatorAddress) public {... */\n    tag_9:\n      tag_39\n      0x04\n      dup1\n      calldatasize\n      sub\n      dup2\n      add\n      swap1\n      tag_40\n      swap2\n      swap1\n      tag_16\n      jump\t// in\n    tag_40:\n      tag_41\n      jump\t// in\n    tag_39:\n      stop\n        /* \"ElectronicMedicalRecords.sol\":4632:4780  function setDoctorRelationAddress(address _DoctorRelationAddress) public {... */\n    tag_10:\n      tag_42\n      0x04\n      dup1\n      calldatasize\n      sub\n      dup2\n      add\n      swap1\n      tag_43\n      swap2\n      swap1\n      tag_16\n      jump\t// in\n    tag_43:\n      tag_44\n      jump\t// in\n    tag_42:\n      stop\n        /* \"ElectronicMedicalRecords.sol\":6004:6166  function getOutPatient(address add) public view returns(IdentitasPasien memory a, RawatJalan memory b) {... */\n    tag_11:\n      tag_45\n      0x04\n      dup1\n      calldatasize\n      sub\n      dup2\n      add\n      swap1\n      tag_46\n      swap2\n      swap1\n      tag_16\n      jump\t// in\n    tag_46:\n      tag_47\n      jump\t// in\n    tag_45:\n      mload(0x40)\n      tag_48\n      swap3\n      swap2\n      swap1\n      tag_49\n      jump\t// in\n    tag_48:\n      mload(0x40)\n      dup1\n      swap2\n      sub\n      swap1\n      return\n        /* \"ElectronicMedicalRecords.sol\":3942:3990  mapping(address => RawatJalan) public outPatient */\n    tag_12:\n      tag_50\n      0x04\n      dup1\n      calldatasize\n      sub\n      dup2\n      add\n      swap1\n      tag_51\n      swap2\n      swap1\n      tag_16\n      jump\t// in\n    tag_51:\n      tag_52\n      jump\t// in\n    tag_50:\n      mload(0x40)\n      tag_53\n      swap11\n      swap10\n      swap9\n      swap8\n      swap7\n      swap6\n      swap5\n      swap4\n      swap3\n      swap2\n      swap1\n      tag_54\n      jump\t// in\n    tag_53:\n      mload(0x40)\n      dup1\n      swap2\n      sub\n      swap1\n      return\n        /* \"ElectronicMedicalRecords.sol\":4285:4448  function setDoctorVerificatorAddress(address _DoctorVerificatorAddress) public {... */\n    tag_17:\n        /* \"ElectronicMedicalRecords.sol\":4414:4439  _DoctorVerificatorAddress */\n      dup1\n        /* \"ElectronicMedicalRecords.sol\":4375:4393  doctor_verificator */\n      0x04\n      0x00\n        /* \"ElectronicMedicalRecords.sol\":4375:4440  doctor_verificator = DoctorVerificator(_DoctorVerificatorAddress) */\n      0x0100\n      exp\n      dup2\n      sload\n      dup2\n      0xffffffffffffffffffffffffffffffffffffffff\n      mul\n      not\n      and\n      swap1\n      dup4\n      0xffffffffffffffffffffffffffffffffffffffff\n      and\n      mul\n      or\n      swap1\n      sstore\n      pop\n        /* \"ElectronicMedicalRecords.sol\":4285:4448  function setDoctorVerificatorAddress(address _DoctorVerificatorAddress) public {... */\n      pop\n      jump\t// out\n        /* \"ElectronicMedicalRecords.sol\":4788:5996  function addOutPatient (... */\n    tag_21:\n        /* \"ElectronicMedicalRecords.sol\":4941:4979  IdentitasPasien memory identitasPasien */\n      tag_57\n      tag_58\n      jump\t// in\n    tag_57:\n        /* \"ElectronicMedicalRecords.sol\":5024:5040  _identitasPasien */\n      dup3\n        /* \"ElectronicMedicalRecords.sol\":5024:5055  _identitasPasien.patientAddress */\n      0x00\n      add\n      mload\n        /* \"ElectronicMedicalRecords.sol\":4990:5005  identitasPasien */\n      dup2\n        /* \"ElectronicMedicalRecords.sol\":4990:5020  identitasPasien.patientAddress */\n      0x00\n      add\n        /* \"ElectronicMedicalRecords.sol\":4990:5055  identitasPasien.patientAddress =  _identitasPasien.patientAddress */\n      swap1\n      0xffffffffffffffffffffffffffffffffffffffff\n      and\n      swap1\n      dup2\n      0xffffffffffffffffffffffffffffffffffffffff\n      and\n      dup2\n      mstore\n      pop\n      pop\n        /* \"ElectronicMedicalRecords.sol\":5098:5114  _identitasPasien */\n      dup3\n        /* \"ElectronicMedicalRecords.sol\":5098:5127  _identitasPasien.nama_lengkap */\n      0x20\n      add\n      mload\n        /* \"ElectronicMedicalRecords.sol\":5066:5081  identitasPasien */\n      dup2\n        /* \"ElectronicMedicalRecords.sol\":5066:5094  identitasPasien.nama_lengkap */\n      0x20\n      add\n        /* \"ElectronicMedicalRecords.sol\":5066:5127  identitasPasien.nama_lengkap =  _identitasPasien.nama_lengkap */\n      dup2\n      swap1\n      mstore\n      pop\n        /* \"ElectronicMedicalRecords.sol\":5162:5178  _identitasPasien */\n      dup3\n        /* \"ElectronicMedicalRecords.sol\":5162:5183  _identitasPasien.umur */\n      0x40\n      add\n      mload\n        /* \"ElectronicMedicalRecords.sol\":5138:5153  identitasPasien */\n      dup2\n        /* \"ElectronicMedicalRecords.sol\":5138:5158  identitasPasien.umur */\n      0x40\n      add\n        /* \"ElectronicMedicalRecords.sol\":5138:5183  identitasPasien.umur =  _identitasPasien.umur */\n      dup2\n      dup2\n      mstore\n      pop\n      pop\n        /* \"ElectronicMedicalRecords.sol\":5227:5243  _identitasPasien */\n      dup3\n        /* \"ElectronicMedicalRecords.sol\":5227:5257  _identitasPasien.tanggal_lahir */\n      0x60\n      add\n      mload\n        /* \"ElectronicMedicalRecords.sol\":5194:5209  identitasPasien */\n      dup2\n        /* \"ElectronicMedicalRecords.sol\":5194:5223  identitasPasien.tanggal_lahir */\n      0x60\n      add\n        /* \"ElectronicMedicalRecords.sol\":5194:5257  identitasPasien.tanggal_lahir =  _identitasPasien.tanggal_lahir */\n      dup2\n      swap1\n      mstore\n      pop\n        /* \"ElectronicMedicalRecords.sol\":5315:5330  identitasPasien */\n      dup1\n        /* \"ElectronicMedicalRecords.sol\":5270:5279  patientId */\n      0x02\n        /* \"ElectronicMedicalRecords.sol\":5270:5312  patientId[_identitasPasien.patientAddress] */\n      0x00\n        /* \"ElectronicMedicalRecords.sol\":5280:5296  _identitasPasien */\n      dup6\n        /* \"ElectronicMedicalRecords.sol\":5280:5311  _identitasPasien.patientAddress */\n      0x00\n      add\n      mload\n        /* \"ElectronicMedicalRecords.sol\":5270:5312  patientId[_identitasPasien.patientAddress] */\n      0xffffffffffffffffffffffffffffffffffffffff\n      and\n      0xffffffffffffffffffffffffffffffffffffffff\n      and\n      dup2\n      mstore\n      0x20\n      add\n      swap1\n      dup2\n      mstore\n      0x20\n      add\n      0x00\n      keccak256\n        /* \"ElectronicMedicalRecords.sol\":5270:5330  patientId[_identitasPasien.patientAddress] = identitasPasien */\n      0x00\n      dup3\n      add\n      mload\n      dup2\n      0x00\n      add\n      exp(0x0100, 0x00)\n      dup2\n      sload\n      dup2\n      0xffffffffffffffffffffffffffffffffffffffff\n      mul\n      not\n      and\n      swap1\n      dup4\n      0xffffffffffffffffffffffffffffffffffffffff\n      and\n      mul\n      or\n      swap1\n      sstore\n      pop\n      0x20\n      dup3\n      add\n      mload\n      dup2\n      0x01\n      add\n      swap1\n      dup2\n      tag_59\n      swap2\n      swap1\n      tag_60\n      jump\t// in\n    tag_59:\n      pop\n      0x40\n      dup3\n      add\n      mload\n      dup2\n      0x02\n      add\n      sstore\n      0x60\n      dup3\n      add\n      mload\n      dup2\n      0x03\n      add\n      swap1\n      dup2\n      tag_61\n      swap2\n      swap1\n      tag_60\n      jump\t// in\n    tag_61:\n      pop\n      swap1\n      pop\n      pop\n        /* \"ElectronicMedicalRecords.sol\":5343:5371  RawatJalan memory rawatJalan */\n      tag_62\n      tag_63\n      jump\t// in\n    tag_62:\n        /* \"ElectronicMedicalRecords.sol\":5411:5422  _rawatjalan */\n      dup3\n        /* \"ElectronicMedicalRecords.sol\":5411:5438  _rawatjalan.patient_address */\n      0x00\n      add\n      mload\n        /* \"ElectronicMedicalRecords.sol\":5382:5392  rawatJalan */\n      dup2\n        /* \"ElectronicMedicalRecords.sol\":5382:5408  rawatJalan.patient_address */\n      0x00\n      add\n        /* \"ElectronicMedicalRecords.sol\":5382:5438  rawatJalan.patient_address = _rawatjalan.patient_address */\n      swap1\n      0xffffffffffffffffffffffffffffffffffffffff\n      and\n      swap1\n      dup2\n      0xffffffffffffffffffffffffffffffffffffffff\n      and\n      dup2\n      mstore\n      pop\n      pop\n        /* \"ElectronicMedicalRecords.sol\":5468:5479  _rawatjalan */\n      dup3\n        /* \"ElectronicMedicalRecords.sol\":5468:5485  _rawatjalan.jenis */\n      0x20\n      add\n      mload\n        /* \"ElectronicMedicalRecords.sol\":5449:5459  rawatJalan */\n      dup2\n        /* \"ElectronicMedicalRecords.sol\":5449:5465  rawatJalan.jenis */\n      0x20\n      add\n        /* \"ElectronicMedicalRecords.sol\":5449:5485  rawatJalan.jenis = _rawatjalan.jenis */\n      dup2\n      swap1\n      mstore\n      pop\n        /* \"ElectronicMedicalRecords.sol\":5523:5534  _rawatjalan */\n      dup3\n        /* \"ElectronicMedicalRecords.sol\":5523:5548  _rawatjalan.date_and_time */\n      0x40\n      add\n      mload\n        /* \"ElectronicMedicalRecords.sol\":5496:5506  rawatJalan */\n      dup2\n        /* \"ElectronicMedicalRecords.sol\":5496:5520  rawatJalan.date_and_time */\n      0x40\n      add\n        /* \"ElectronicMedicalRecords.sol\":5496:5548  rawatJalan.date_and_time = _rawatjalan.date_and_time */\n      dup2\n      swap1\n      mstore\n      pop\n        /* \"ElectronicMedicalRecords.sol\":5582:5593  _rawatjalan */\n      dup3\n        /* \"ElectronicMedicalRecords.sol\":5582:5603  _rawatjalan.anamnesis */\n      0x60\n      add\n      mload\n        /* \"ElectronicMedicalRecords.sol\":5559:5569  rawatJalan */\n      dup2\n        /* \"ElectronicMedicalRecords.sol\":5559:5579  rawatJalan.anamnesis */\n      0x60\n      add\n        /* \"ElectronicMedicalRecords.sol\":5559:5603  rawatJalan.anamnesis = _rawatjalan.anamnesis */\n      dup2\n      swap1\n      mstore\n      pop\n        /* \"ElectronicMedicalRecords.sol\":5637:5648  _rawatjalan */\n      dup3\n        /* \"ElectronicMedicalRecords.sol\":5637:5658  _rawatjalan.diagnosis */\n      0x80\n      add\n      mload\n        /* \"ElectronicMedicalRecords.sol\":5614:5624  rawatJalan */\n      dup2\n        /* \"ElectronicMedicalRecords.sol\":5614:5634  rawatJalan.diagnosis */\n      0x80\n      add\n        /* \"ElectronicMedicalRecords.sol\":5614:5658  rawatJalan.diagnosis = _rawatjalan.diagnosis */\n      dup2\n      swap1\n      mstore\n      pop\n        /* \"ElectronicMedicalRecords.sol\":5685:5696  _rawatjalan */\n      dup3\n        /* \"ElectronicMedicalRecords.sol\":5685:5699  _rawatjalan.rp */\n      0xa0\n      add\n      mload\n        /* \"ElectronicMedicalRecords.sol\":5669:5679  rawatJalan */\n      dup2\n        /* \"ElectronicMedicalRecords.sol\":5669:5682  rawatJalan.rp */\n      0xa0\n      add\n        /* \"ElectronicMedicalRecords.sol\":5669:5699  rawatJalan.rp = _rawatjalan.rp */\n      dup2\n      swap1\n      mstore\n      pop\n        /* \"ElectronicMedicalRecords.sol\":5734:5745  _rawatjalan */\n      dup3\n        /* \"ElectronicMedicalRecords.sol\":5734:5756  _rawatjalan.pengobatan */\n      0xc0\n      add\n      mload\n        /* \"ElectronicMedicalRecords.sol\":5710:5720  rawatJalan */\n      dup2\n        /* \"ElectronicMedicalRecords.sol\":5710:5731  rawatJalan.pengobatan */\n      0xc0\n      add\n        /* \"ElectronicMedicalRecords.sol\":5710:5756  rawatJalan.pengobatan = _rawatjalan.pengobatan */\n      dup2\n      swap1\n      mstore\n      pop\n        /* \"ElectronicMedicalRecords.sol\":5789:5800  _rawatjalan */\n      dup3\n        /* \"ElectronicMedicalRecords.sol\":5789:5809  _rawatjalan.tindakan */\n      0xe0\n      add\n      mload\n        /* \"ElectronicMedicalRecords.sol\":5767:5777  rawatJalan */\n      dup2\n        /* \"ElectronicMedicalRecords.sol\":5767:5786  rawatJalan.tindakan */\n      0xe0\n      add\n        /* \"ElectronicMedicalRecords.sol\":5767:5809  rawatJalan.tindakan = _rawatjalan.tindakan */\n      dup2\n      swap1\n      mstore\n      pop\n        /* \"ElectronicMedicalRecords.sol\":5843:5854  _rawatjalan */\n      dup3\n        /* \"ElectronicMedicalRecords.sol\":5843:5864  _rawatjalan.pelayanan */\n      0x0100\n      add\n      mload\n        /* \"ElectronicMedicalRecords.sol\":5820:5830  rawatJalan */\n      dup2\n        /* \"ElectronicMedicalRecords.sol\":5820:5840  rawatJalan.pelayanan */\n      0x0100\n      add\n        /* \"ElectronicMedicalRecords.sol\":5820:5864  rawatJalan.pelayanan = _rawatjalan.pelayanan */\n      dup2\n      swap1\n      mstore\n      pop\n        /* \"ElectronicMedicalRecords.sol\":5898:5909  _rawatjalan */\n      dup3\n        /* \"ElectronicMedicalRecords.sol\":5898:5919  _rawatjalan.agreement */\n      0x0120\n      add\n      mload\n        /* \"ElectronicMedicalRecords.sol\":5875:5885  rawatJalan */\n      dup2\n        /* \"ElectronicMedicalRecords.sol\":5875:5895  rawatJalan.agreement */\n      0x0120\n      add\n        /* \"ElectronicMedicalRecords.sol\":5875:5919  rawatJalan.agreement = _rawatjalan.agreement */\n      swap1\n      iszero\n      iszero\n      swap1\n      dup2\n      iszero\n      iszero\n      dup2\n      mstore\n      pop\n      pop\n        /* \"ElectronicMedicalRecords.sol\":5978:5988  rawatJalan */\n      dup1\n        /* \"ElectronicMedicalRecords.sol\":5932:5942  outPatient */\n      0x01\n        /* \"ElectronicMedicalRecords.sol\":5932:5975  outPatient[_identitasPasien.patientAddress] */\n      0x00\n        /* \"ElectronicMedicalRecords.sol\":5943:5959  _identitasPasien */\n      dup7\n        /* \"ElectronicMedicalRecords.sol\":5943:5974  _identitasPasien.patientAddress */\n      0x00\n      add\n      mload\n        /* \"ElectronicMedicalRecords.sol\":5932:5975  outPatient[_identitasPasien.patientAddress] */\n      0xffffffffffffffffffffffffffffffffffffffff\n      and\n      0xffffffffffffffffffffffffffffffffffffffff\n      and\n      dup2\n      mstore\n      0x20\n      add\n      swap1\n      dup2\n      mstore\n      0x20\n      add\n      0x00\n      keccak256\n        /* \"ElectronicMedicalRecords.sol\":5932:5988  outPatient[_identitasPasien.patientAddress] = rawatJalan */\n      0x00\n      dup3\n      add\n      mload\n      dup2\n      0x00\n      add\n      exp(0x0100, 0x00)\n      dup2\n      sload\n      dup2\n      0xffffffffffffffffffffffffffffffffffffffff\n      mul\n      not\n      and\n      swap1\n      dup4\n      0xffffffffffffffffffffffffffffffffffffffff\n      and\n      mul\n      or\n      swap1\n      sstore\n      pop\n      0x20\n      dup3\n      add\n      mload\n      dup2\n      0x01\n      add\n      swap1\n      dup2\n      tag_64\n      swap2\n      swap1\n      tag_60\n      jump\t// in\n    tag_64:\n      pop\n      0x40\n      dup3\n      add\n      mload\n      dup2\n      0x02\n      add\n      swap1\n      dup2\n      tag_65\n      swap2\n      swap1\n      tag_60\n      jump\t// in\n    tag_65:\n      pop\n      0x60\n      dup3\n      add\n      mload\n      dup2\n      0x03\n      add\n      swap1\n      dup2\n      tag_66\n      swap2\n      swap1\n      tag_60\n      jump\t// in\n    tag_66:\n      pop\n      0x80\n      dup3\n      add\n      mload\n      dup2\n      0x04\n      add\n      swap1\n      dup2\n      tag_67\n      swap2\n      swap1\n      tag_60\n      jump\t// in\n    tag_67:\n      pop\n      0xa0\n      dup3\n      add\n      mload\n      dup2\n      0x05\n      add\n      swap1\n      dup2\n      tag_68\n      swap2\n      swap1\n      tag_60\n      jump\t// in\n    tag_68:\n      pop\n      0xc0\n      dup3\n      add\n      mload\n      dup2\n      0x06\n      add\n      swap1\n      dup2\n      tag_69\n      swap2\n      swap1\n      tag_60\n      jump\t// in\n    tag_69:\n      pop\n      0xe0\n      dup3\n      add\n      mload\n      dup2\n      0x07\n      add\n      swap1\n      dup2\n      tag_70\n      swap2\n      swap1\n      tag_60\n      jump\t// in\n    tag_70:\n      pop\n      0x0100\n      dup3\n      add\n      mload\n      dup2\n      0x08\n      add\n      swap1\n      dup2\n      tag_71\n      swap2\n      swap1\n      tag_60\n      jump\t// in\n    tag_71:\n      pop\n      0x0120\n      dup3\n      add\n      mload\n      dup2\n      0x09\n      add\n      exp(0x0100, 0x00)\n      dup2\n      sload\n      dup2\n      0xff\n      mul\n      not\n      and\n      swap1\n      dup4\n      iszero\n      iszero\n      mul\n      or\n      swap1\n      sstore\n      pop\n      swap1\n      pop\n      pop\n        /* \"ElectronicMedicalRecords.sol\":4920:5996  {... */\n      pop\n      pop\n        /* \"ElectronicMedicalRecords.sol\":4788:5996  function addOutPatient (... */\n      pop\n      pop\n      jump\t// out\n        /* \"ElectronicMedicalRecords.sol\":6174:7110  function setPatientData(... */\n    tag_25:\n        /* \"ElectronicMedicalRecords.sol\":8169:8187  doctor_verificator */\n      0x04\n      0x00\n      swap1\n      sload\n      swap1\n      0x0100\n      exp\n      swap1\n      div\n      0xffffffffffffffffffffffffffffffffffffffff\n      and\n        /* \"ElectronicMedicalRecords.sol\":8169:8194  doctor_verificator.verify */\n      0xffffffffffffffffffffffffffffffffffffffff\n      and\n      0x63a9c3d7\n        /* \"ElectronicMedicalRecords.sol\":8195:8205  msg.sender */\n      caller\n        /* \"ElectronicMedicalRecords.sol\":8169:8206  doctor_verificator.verify(msg.sender) */\n      mload(0x40)\n      dup3\n      0xffffffff\n      and\n      0xe0\n      shl\n      dup2\n      mstore\n      0x04\n      add\n      tag_73\n      swap2\n      swap1\n      tag_74\n      jump\t// in\n    tag_73:\n      0x20\n      mload(0x40)\n      dup1\n      dup4\n      sub\n      dup2\n      dup7\n      gas\n      staticcall\n      iszero\n      dup1\n      iszero\n      tag_76\n      jumpi\n      returndatasize\n      0x00\n      dup1\n      returndatacopy\n      revert(0x00, returndatasize)\n    tag_76:\n      pop\n      pop\n      pop\n      pop\n      mload(0x40)\n      returndatasize\n      not(0x1f)\n      0x1f\n      dup3\n      add\n      and\n      dup3\n      add\n      dup1\n      0x40\n      mstore\n      pop\n      dup2\n      add\n      swap1\n      tag_77\n      swap2\n      swap1\n      tag_78\n      jump\t// in\n    tag_77:\n        /* \"ElectronicMedicalRecords.sol\":8161:8207  require(doctor_verificator.verify(msg.sender)) */\n      tag_79\n      jumpi\n      0x00\n      dup1\n      revert\n    tag_79:\n        /* \"ElectronicMedicalRecords.sol\":6514:6547  PatientData memory newPatientData */\n      0x00\n        /* \"ElectronicMedicalRecords.sol\":6550:6562  Patient_Data */\n      dup1\n        /* \"ElectronicMedicalRecords.sol\":6550:6572  Patient_Data[_patient] */\n      0x00\n        /* \"ElectronicMedicalRecords.sol\":6563:6571  _patient */\n      dup11\n        /* \"ElectronicMedicalRecords.sol\":6550:6572  Patient_Data[_patient] */\n      0xffffffffffffffffffffffffffffffffffffffff\n      and\n      0xffffffffffffffffffffffffffffffffffffffff\n      and\n      dup2\n      mstore\n      0x20\n      add\n      swap1\n      dup2\n      mstore\n      0x20\n      add\n      0x00\n      keccak256\n        /* \"ElectronicMedicalRecords.sol\":6514:6572  PatientData memory newPatientData = Patient_Data[_patient] */\n      mload(0x40)\n      dup1\n      0x0100\n      add\n      0x40\n      mstore\n      swap1\n      dup2\n      0x00\n      dup3\n      add\n      0x00\n      swap1\n      sload\n      swap1\n      0x0100\n      exp\n      swap1\n      div\n      0xffffffffffffffffffffffffffffffffffffffff\n      and\n      0xffffffffffffffffffffffffffffffffffffffff\n      and\n      0xffffffffffffffffffffffffffffffffffffffff\n      and\n      dup2\n      mstore\n      0x20\n      add\n      0x01\n      dup3\n      add\n      dup1\n      sload\n      tag_81\n      swap1\n      tag_82\n      jump\t// in\n    tag_81:\n      dup1\n      0x1f\n      add\n      0x20\n      dup1\n      swap2\n      div\n      mul\n      0x20\n      add\n      mload(0x40)\n      swap1\n      dup2\n      add\n      0x40\n      mstore\n      dup1\n      swap3\n      swap2\n      swap1\n      dup2\n      dup2\n      mstore\n      0x20\n      add\n      dup3\n      dup1\n      sload\n      tag_83\n      swap1\n      tag_82\n      jump\t// in\n    tag_83:\n      dup1\n      iszero\n      tag_84\n      jumpi\n      dup1\n      0x1f\n      lt\n      tag_85\n      jumpi\n      0x0100\n      dup1\n      dup4\n      sload\n      div\n      mul\n      dup4\n      mstore\n      swap2\n      0x20\n      add\n      swap2\n      jump(tag_84)\n    tag_85:\n      dup3\n      add\n      swap2\n      swap1\n      0x00\n      mstore\n      keccak256(0x00, 0x20)\n      swap1\n    tag_86:\n      dup2\n      sload\n      dup2\n      mstore\n      swap1\n      0x01\n      add\n      swap1\n      0x20\n      add\n      dup1\n      dup4\n      gt\n      tag_86\n      jumpi\n      dup3\n      swap1\n      sub\n      0x1f\n      and\n      dup3\n      add\n      swap2\n    tag_84:\n      pop\n      pop\n      pop\n      pop\n      pop\n      dup2\n      mstore\n      0x20\n      add\n      0x02\n      dup3\n      add\n      sload\n      dup2\n      mstore\n      0x20\n      add\n      0x03\n      dup3\n      add\n      dup1\n      sload\n      tag_87\n      swap1\n      tag_82\n      jump\t// in\n    tag_87:\n      dup1\n      0x1f\n      add\n      0x20\n      dup1\n      swap2\n      div\n      mul\n      0x20\n      add\n      mload(0x40)\n      swap1\n      dup2\n      add\n      0x40\n      mstore\n      dup1\n      swap3\n      swap2\n      swap1\n      dup2\n      dup2\n      mstore\n      0x20\n      add\n      dup3\n      dup1\n      sload\n      tag_88\n      swap1\n      tag_82\n      jump\t// in\n    tag_88:\n      dup1\n      iszero\n      tag_89\n      jumpi\n      dup1\n      0x1f\n      lt\n      tag_90\n      jumpi\n      0x0100\n      dup1\n      dup4\n      sload\n      div\n      mul\n      dup4\n      mstore\n      swap2\n      0x20\n      add\n      swap2\n      jump(tag_89)\n    tag_90:\n      dup3\n      add\n      swap2\n      swap1\n      0x00\n      mstore\n      keccak256(0x00, 0x20)\n      swap1\n    tag_91:\n      dup2\n      sload\n      dup2\n      mstore\n      swap1\n      0x01\n      add\n      swap1\n      0x20\n      add\n      dup1\n      dup4\n      gt\n      tag_91\n      jumpi\n      dup3\n      swap1\n      sub\n      0x1f\n      and\n      dup3\n      add\n      swap2\n    tag_89:\n      pop\n      pop\n      pop\n      pop\n      pop\n      dup2\n      mstore\n      0x20\n      add\n      0x04\n      dup3\n      add\n      dup1\n      sload\n      tag_92\n      swap1\n      tag_82\n      jump\t// in\n    tag_92:\n      dup1\n      0x1f\n      add\n      0x20\n      dup1\n      swap2\n      div\n      mul\n      0x20\n      add\n      mload(0x40)\n      swap1\n      dup2\n      add\n      0x40\n      mstore\n      dup1\n      swap3\n      swap2\n      swap1\n      dup2\n      dup2\n      mstore\n      0x20\n      add\n      dup3\n      dup1\n      sload\n      tag_93\n      swap1\n      tag_82\n      jump\t// in\n    tag_93:\n      dup1\n      iszero\n      tag_94\n      jumpi\n      dup1\n      0x1f\n      lt\n      tag_95\n      jumpi\n      0x0100\n      dup1\n      dup4\n      sload\n      div\n      mul\n      dup4\n      mstore\n      swap2\n      0x20\n      add\n      swap2\n      jump(tag_94)\n    tag_95:\n      dup3\n      add\n      swap2\n      swap1\n      0x00\n      mstore\n      keccak256(0x00, 0x20)\n      swap1\n    tag_96:\n      dup2\n      sload\n      dup2\n      mstore\n      swap1\n      0x01\n      add\n      swap1\n      0x20\n      add\n      dup1\n      dup4\n      gt\n      tag_96\n      jumpi\n      dup3\n      swap1\n      sub\n      0x1f\n      and\n      dup3\n      add\n      swap2\n    tag_94:\n      pop\n      pop\n      pop\n      pop\n      pop\n      dup2\n      mstore\n      0x20\n      add\n      0x05\n      dup3\n      add\n      dup1\n      sload\n      tag_97\n      swap1\n      tag_82\n      jump\t// in\n    tag_97:\n      dup1\n      0x1f\n      add\n      0x20\n      dup1\n      swap2\n      div\n      mul\n      0x20\n      add\n      mload(0x40)\n      swap1\n      dup2\n      add\n      0x40\n      mstore\n      dup1\n      swap3\n      swap2\n      swap1\n      dup2\n      dup2\n      mstore\n      0x20\n      add\n      dup3\n      dup1\n      sload\n      tag_98\n      swap1\n      tag_82\n      jump\t// in\n    tag_98:\n      dup1\n      iszero\n      tag_99\n      jumpi\n      dup1\n      0x1f\n      lt\n      tag_100\n      jumpi\n      0x0100\n      dup1\n      dup4\n      sload\n      div\n      mul\n      dup4\n      mstore\n      swap2\n      0x20\n      add\n      swap2\n      jump(tag_99)\n    tag_100:\n      dup3\n      add\n      swap2\n      swap1\n      0x00\n      mstore\n      keccak256(0x00, 0x20)\n      swap1\n    tag_101:\n      dup2\n      sload\n      dup2\n      mstore\n      swap1\n      0x01\n      add\n      swap1\n      0x20\n      add\n      dup1\n      dup4\n      gt\n      tag_101\n      jumpi\n      dup3\n      swap1\n      sub\n      0x1f\n      and\n      dup3\n      add\n      swap2\n    tag_99:\n      pop\n      pop\n      pop\n      pop\n      pop\n      dup2\n      mstore\n      0x20\n      add\n      0x06\n      dup3\n      add\n      dup1\n      sload\n      tag_102\n      swap1\n      tag_82\n      jump\t// in\n    tag_102:\n      dup1\n      0x1f\n      add\n      0x20\n      dup1\n      swap2\n      div\n      mul\n      0x20\n      add\n      mload(0x40)\n      swap1\n      dup2\n      add\n      0x40\n      mstore\n      dup1\n      swap3\n      swap2\n      swap1\n      dup2\n      dup2\n      mstore\n      0x20\n      add\n      dup3\n      dup1\n      sload\n      tag_103\n      swap1\n      tag_82\n      jump\t// in\n    tag_103:\n      dup1\n      iszero\n      tag_104\n      jumpi\n      dup1\n      0x1f\n      lt\n      tag_105\n      jumpi\n      0x0100\n      dup1\n      dup4\n      sload\n      div\n      mul\n      dup4\n      mstore\n      swap2\n      0x20\n      add\n      swap2\n      jump(tag_104)\n    tag_105:\n      dup3\n      add\n      swap2\n      swap1\n      0x00\n      mstore\n      keccak256(0x00, 0x20)\n      swap1\n    tag_106:\n      dup2\n      sload\n      dup2\n      mstore\n      swap1\n      0x01\n      add\n      swap1\n      0x20\n      add\n      dup1\n      dup4\n      gt\n      tag_106\n      jumpi\n      dup3\n      swap1\n      sub\n      0x1f\n      and\n      dup3\n      add\n      swap2\n    tag_104:\n      pop\n      pop\n      pop\n      pop\n      pop\n      dup2\n      mstore\n      0x20\n      add\n      0x07\n      dup3\n      add\n      dup1\n      sload\n      tag_107\n      swap1\n      tag_82\n      jump\t// in\n    tag_107:\n      dup1\n      0x1f\n      add\n      0x20\n      dup1\n      swap2\n      div\n      mul\n      0x20\n      add\n      mload(0x40)\n      swap1\n      dup2\n      add\n      0x40\n      mstore\n      dup1\n      swap3\n      swap2\n      swap1\n      dup2\n      dup2\n      mstore\n      0x20\n      add\n      dup3\n      dup1\n      sload\n      tag_108\n      swap1\n      tag_82\n      jump\t// in\n    tag_108:\n      dup1\n      iszero\n      tag_109\n      jumpi\n      dup1\n      0x1f\n      lt\n      tag_110\n      jumpi\n      0x0100\n      dup1\n      dup4\n      sload\n      div\n      mul\n      dup4\n      mstore\n      swap2\n      0x20\n      add\n      swap2\n      jump(tag_109)\n    tag_110:\n      dup3\n      add\n      swap2\n      swap1\n      0x00\n      mstore\n      keccak256(0x00, 0x20)\n      swap1\n    tag_111:\n      dup2\n      sload\n      dup2\n      mstore\n      swap1\n      0x01\n      add\n      swap1\n      0x20\n      add\n      dup1\n      dup4\n      gt\n      tag_111\n      jumpi\n      dup3\n      swap1\n      sub\n      0x1f\n      and\n      dup3\n      add\n      swap2\n    tag_109:\n      pop\n      pop\n      pop\n      pop\n      pop\n      dup2\n      mstore\n      pop\n      pop\n      swap1\n      pop\n        /* \"ElectronicMedicalRecords.sol\":6615:6623  _patient */\n      dup9\n        /* \"ElectronicMedicalRecords.sol\":6583:6597  newPatientData */\n      dup2\n        /* \"ElectronicMedicalRecords.sol\":6583:6612  newPatientData.patientAddress */\n      0x00\n      add\n        /* \"ElectronicMedicalRecords.sol\":6583:6623  newPatientData.patientAddress = _patient */\n      swap1\n      0xffffffffffffffffffffffffffffffffffffffff\n      and\n      swap1\n      dup2\n      0xffffffffffffffffffffffffffffffffffffffff\n      and\n      dup2\n      mstore\n      pop\n      pop\n        /* \"ElectronicMedicalRecords.sol\":6664:6677  _nama_lengkap */\n      dup8\n        /* \"ElectronicMedicalRecords.sol\":6634:6648  newPatientData */\n      dup2\n        /* \"ElectronicMedicalRecords.sol\":6634:6661  newPatientData.nama_lengkap */\n      0x20\n      add\n        /* \"ElectronicMedicalRecords.sol\":6634:6677  newPatientData.nama_lengkap = _nama_lengkap */\n      dup2\n      swap1\n      mstore\n      pop\n        /* \"ElectronicMedicalRecords.sol\":6710:6715  _umur */\n      dup7\n        /* \"ElectronicMedicalRecords.sol\":6688:6702  newPatientData */\n      dup2\n        /* \"ElectronicMedicalRecords.sol\":6688:6707  newPatientData.umur */\n      0x40\n      add\n        /* \"ElectronicMedicalRecords.sol\":6688:6715  newPatientData.umur = _umur */\n      dup2\n      dup2\n      mstore\n      pop\n      pop\n        /* \"ElectronicMedicalRecords.sol\":6757:6771  _tanggal_lahir */\n      dup6\n        /* \"ElectronicMedicalRecords.sol\":6726:6740  newPatientData */\n      dup2\n        /* \"ElectronicMedicalRecords.sol\":6726:6754  newPatientData.tanggal_lahir */\n      0x60\n      add\n        /* \"ElectronicMedicalRecords.sol\":6726:6771  newPatientData.tanggal_lahir = _tanggal_lahir */\n      dup2\n      swap1\n      mstore\n      pop\n        /* \"ElectronicMedicalRecords.sol\":6813:6827  _tanggal_masuk */\n      dup5\n        /* \"ElectronicMedicalRecords.sol\":6782:6796  newPatientData */\n      dup2\n        /* \"ElectronicMedicalRecords.sol\":6782:6810  newPatientData.tanggal_masuk */\n      0x80\n      add\n        /* \"ElectronicMedicalRecords.sol\":6782:6827  newPatientData.tanggal_masuk = _tanggal_masuk */\n      dup2\n      swap1\n      mstore\n      pop\n        /* \"ElectronicMedicalRecords.sol\":6870:6885  _tanggal_keluar */\n      dup4\n        /* \"ElectronicMedicalRecords.sol\":6838:6852  newPatientData */\n      dup2\n        /* \"ElectronicMedicalRecords.sol\":6838:6867  newPatientData.tanggal_keluar */\n      0xa0\n      add\n        /* \"ElectronicMedicalRecords.sol\":6838:6885  newPatientData.tanggal_keluar = _tanggal_keluar */\n      dup2\n      swap1\n      mstore\n      pop\n        /* \"ElectronicMedicalRecords.sol\":6923:6933  _anamnesis */\n      dup3\n        /* \"ElectronicMedicalRecords.sol\":6896:6910  newPatientData */\n      dup2\n        /* \"ElectronicMedicalRecords.sol\":6896:6920  newPatientData.anamnesis */\n      0xc0\n      add\n        /* \"ElectronicMedicalRecords.sol\":6896:6933  newPatientData.anamnesis = _anamnesis */\n      dup2\n      swap1\n      mstore\n      pop\n        /* \"ElectronicMedicalRecords.sol\":6971:6981  _diagnosis */\n      dup2\n        /* \"ElectronicMedicalRecords.sol\":6944:6958  newPatientData */\n      dup2\n        /* \"ElectronicMedicalRecords.sol\":6944:6968  newPatientData.diagnosis */\n      0xe0\n      add\n        /* \"ElectronicMedicalRecords.sol\":6944:6981  newPatientData.diagnosis = _diagnosis */\n      dup2\n      swap1\n      mstore\n      pop\n        /* \"ElectronicMedicalRecords.sol\":6994:7013  patient_verificator */\n      0x05\n      0x00\n      swap1\n      sload\n      swap1\n      0x0100\n      exp\n      swap1\n      div\n      0xffffffffffffffffffffffffffffffffffffffff\n      and\n        /* \"ElectronicMedicalRecords.sol\":6994:7024  patient_verificator.addPatient */\n      0xffffffffffffffffffffffffffffffffffffffff\n      and\n      0x6d263ceb\n        /* \"ElectronicMedicalRecords.sol\":7025:7033  _patient */\n      dup11\n        /* \"ElectronicMedicalRecords.sol\":6994:7034  patient_verificator.addPatient(_patient) */\n      mload(0x40)\n      dup3\n      0xffffffff\n      and\n      0xe0\n      shl\n      dup2\n      mstore\n      0x04\n      add\n      tag_112\n      swap2\n      swap1\n      tag_74\n      jump\t// in\n    tag_112:\n      0x00\n      mload(0x40)\n      dup1\n      dup4\n      sub\n      dup2\n      0x00\n      dup8\n      dup1\n      extcodesize\n      iszero\n      dup1\n      iszero\n      tag_113\n      jumpi\n      0x00\n      dup1\n      revert\n    tag_113:\n      pop\n      gas\n      call\n      iszero\n      dup1\n      iszero\n      tag_115\n      jumpi\n      returndatasize\n      0x00\n      dup1\n      returndatacopy\n      revert(0x00, returndatasize)\n    tag_115:\n      pop\n      pop\n      pop\n      pop\n        /* \"ElectronicMedicalRecords.sol\":7045:7060  doctor_relation */\n      0x06\n      0x00\n      swap1\n      sload\n      swap1\n      0x0100\n      exp\n      swap1\n      div\n      0xffffffffffffffffffffffffffffffffffffffff\n      and\n        /* \"ElectronicMedicalRecords.sol\":7045:7078  doctor_relation.addDoctorRelation */\n      0xffffffffffffffffffffffffffffffffffffffff\n      and\n      0x8bfc8c71\n        /* \"ElectronicMedicalRecords.sol\":7079:7089  msg.sender */\n      caller\n        /* \"ElectronicMedicalRecords.sol\":7091:7099  _patient */\n      dup12\n        /* \"ElectronicMedicalRecords.sol\":7045:7100  doctor_relation.addDoctorRelation(msg.sender, _patient) */\n      mload(0x40)\n      dup4\n      0xffffffff\n      and\n      0xe0\n      shl\n      dup2\n      mstore\n      0x04\n      add\n      tag_116\n      swap3\n      swap2\n      swap1\n      tag_117\n      jump\t// in\n    tag_116:\n      0x00\n      mload(0x40)\n      dup1\n      dup4\n      sub\n      dup2\n      0x00\n      dup8\n      dup1\n      extcodesize\n      iszero\n      dup1\n      iszero\n      tag_118\n      jumpi\n      0x00\n      dup1\n      revert\n    tag_118:\n      pop\n      gas\n      call\n      iszero\n      dup1\n      iszero\n      tag_120\n      jumpi\n      returndatasize\n      0x00\n      dup1\n      returndatacopy\n      revert(0x00, returndatasize)\n    tag_120:\n      pop\n      pop\n      pop\n      pop\n        /* \"ElectronicMedicalRecords.sol\":6502:7110  { ... */\n      pop\n        /* \"ElectronicMedicalRecords.sol\":6174:7110  function setPatientData(... */\n      pop\n      pop\n      pop\n      pop\n      pop\n      pop\n      pop\n      pop\n      jump\t// out\n        /* \"ElectronicMedicalRecords.sol\":3999:4051  mapping(address => IdentitasPasien) public patientId */\n    tag_28:\n      mstore(0x20, 0x02)\n      dup1\n      0x00\n      mstore\n      keccak256(0x00, 0x40)\n      0x00\n      swap2\n      pop\n      swap1\n      pop\n      dup1\n      0x00\n      add\n      0x00\n      swap1\n      sload\n      swap1\n      0x0100\n      exp\n      swap1\n      div\n      0xffffffffffffffffffffffffffffffffffffffff\n      and\n      swap1\n      dup1\n      0x01\n      add\n      dup1\n      sload\n      tag_121\n      swap1\n      tag_82\n      jump\t// in\n    tag_121:\n      dup1\n      0x1f\n      add\n      0x20\n      dup1\n      swap2\n      div\n      mul\n      0x20\n      add\n      mload(0x40)\n      swap1\n      dup2\n      add\n      0x40\n      mstore\n      dup1\n      swap3\n      swap2\n      swap1\n      dup2\n      dup2\n      mstore\n      0x20\n      add\n      dup3\n      dup1\n      sload\n      tag_122\n      swap1\n      tag_82\n      jump\t// in\n    tag_122:\n      dup1\n      iszero\n      tag_123\n      jumpi\n      dup1\n      0x1f\n      lt\n      tag_124\n      jumpi\n      0x0100\n      dup1\n      dup4\n      sload\n      div\n      mul\n      dup4\n      mstore\n      swap2\n      0x20\n      add\n      swap2\n      jump(tag_123)\n    tag_124:\n      dup3\n      add\n      swap2\n      swap1\n      0x00\n      mstore\n      keccak256(0x00, 0x20)\n      swap1\n    tag_125:\n      dup2\n      sload\n      dup2\n      mstore\n      swap1\n      0x01\n      add\n      swap1\n      0x20\n      add\n      dup1\n      dup4\n      gt\n      tag_125\n      jumpi\n      dup3\n      swap1\n      sub\n      0x1f\n      and\n      dup3\n      add\n      swap2\n    tag_123:\n      pop\n      pop\n      pop\n      pop\n      pop\n      swap1\n      dup1\n      0x02\n      add\n      sload\n      swap1\n      dup1\n      0x03\n      add\n      dup1\n      sload\n      tag_126\n      swap1\n      tag_82\n      jump\t// in\n    tag_126:\n      dup1\n      0x1f\n      add\n      0x20\n      dup1\n      swap2\n      div\n      mul\n      0x20\n      add\n      mload(0x40)\n      swap1\n      dup2\n      add\n      0x40\n      mstore\n      dup1\n      swap3\n      swap2\n      swap1\n      dup2\n      dup2\n      mstore\n      0x20\n      add\n      dup3\n      dup1\n      sload\n      tag_127\n      swap1\n      tag_82\n      jump\t// in\n    tag_127:\n      dup1\n      iszero\n      tag_128\n      jumpi\n      dup1\n      0x1f\n      lt\n      tag_129\n      jumpi\n      0x0100\n      dup1\n      dup4\n      sload\n      div\n      mul\n      dup4\n      mstore\n      swap2\n      0x20\n      add\n      swap2\n      jump(tag_128)\n    tag_129:\n      dup3\n      add\n      swap2\n      swap1\n      0x00\n      mstore\n      keccak256(0x00, 0x20)\n      swap1\n    tag_130:\n      dup2\n      sload\n      dup2\n      mstore\n      swap1\n      0x01\n      add\n      swap1\n      0x20\n      add\n      dup1\n      dup4\n      gt\n      tag_130\n      jumpi\n      dup3\n      swap1\n      sub\n      0x1f\n      and\n      dup3\n      add\n      swap2\n    tag_128:\n      pop\n      pop\n      pop\n      pop\n      pop\n      swap1\n      pop\n      dup5\n      jump\t// out\n        /* \"ElectronicMedicalRecords.sol\":7118:7315  function getPatientData(address _address)... */\n    tag_33:\n        /* \"ElectronicMedicalRecords.sol\":7237:7260  PatientData memory data */\n      tag_131\n      tag_132\n      jump\t// in\n    tag_131:\n        /* \"ElectronicMedicalRecords.sol\":8285:8303  doctor_verificator */\n      0x04\n      0x00\n      swap1\n      sload\n      swap1\n      0x0100\n      exp\n      swap1\n      div\n      0xffffffffffffffffffffffffffffffffffffffff\n      and\n        /* \"ElectronicMedicalRecords.sol\":8285:8310  doctor_verificator.verify */\n      0xffffffffffffffffffffffffffffffffffffffff\n      and\n      0x63a9c3d7\n        /* \"ElectronicMedicalRecords.sol\":8311:8321  msg.sender */\n      caller\n        /* \"ElectronicMedicalRecords.sol\":8285:8322  doctor_verificator.verify(msg.sender) */\n      mload(0x40)\n      dup3\n      0xffffffff\n      and\n      0xe0\n      shl\n      dup2\n      mstore\n      0x04\n      add\n      tag_134\n      swap2\n      swap1\n      tag_74\n      jump\t// in\n    tag_134:\n      0x20\n      mload(0x40)\n      dup1\n      dup4\n      sub\n      dup2\n      dup7\n      gas\n      staticcall\n      iszero\n      dup1\n      iszero\n      tag_136\n      jumpi\n      returndatasize\n      0x00\n      dup1\n      returndatacopy\n      revert(0x00, returndatasize)\n    tag_136:\n      pop\n      pop\n      pop\n      pop\n      mload(0x40)\n      returndatasize\n      not(0x1f)\n      0x1f\n      dup3\n      add\n      and\n      dup3\n      add\n      dup1\n      0x40\n      mstore\n      pop\n      dup2\n      add\n      swap1\n      tag_137\n      swap2\n      swap1\n      tag_78\n      jump\t// in\n    tag_137:\n        /* \"ElectronicMedicalRecords.sol\":8285:8364  doctor_verificator.verify(msg.sender) || patient_verificator.verify(msg.sender) */\n      dup1\n      tag_138\n      jumpi\n      pop\n        /* \"ElectronicMedicalRecords.sol\":8326:8345  patient_verificator */\n      0x05\n      0x00\n      swap1\n      sload\n      swap1\n      0x0100\n      exp\n      swap1\n      div\n      0xffffffffffffffffffffffffffffffffffffffff\n      and\n        /* \"ElectronicMedicalRecords.sol\":8326:8352  patient_verificator.verify */\n      0xffffffffffffffffffffffffffffffffffffffff\n      and\n      0x63a9c3d7\n        /* \"ElectronicMedicalRecords.sol\":8353:8363  msg.sender */\n      caller\n        /* \"ElectronicMedicalRecords.sol\":8326:8364  patient_verificator.verify(msg.sender) */\n      mload(0x40)\n      dup3\n      0xffffffff\n      and\n      0xe0\n      shl\n      dup2\n      mstore\n      0x04\n      add\n      tag_139\n      swap2\n      swap1\n      tag_74\n      jump\t// in\n    tag_139:\n      0x20\n      mload(0x40)\n      dup1\n      dup4\n      sub\n      dup2\n      dup7\n      gas\n      staticcall\n      iszero\n      dup1\n      iszero\n      tag_141\n      jumpi\n      returndatasize\n      0x00\n      dup1\n      returndatacopy\n      revert(0x00, returndatasize)\n    tag_141:\n      pop\n      pop\n      pop\n      pop\n      mload(0x40)\n      returndatasize\n      not(0x1f)\n      0x1f\n      dup3\n      add\n      and\n      dup3\n      add\n      dup1\n      0x40\n      mstore\n      pop\n      dup2\n      add\n      swap1\n      tag_142\n      swap2\n      swap1\n      tag_78\n      jump\t// in\n    tag_142:\n        /* \"ElectronicMedicalRecords.sol\":8285:8364  doctor_verificator.verify(msg.sender) || patient_verificator.verify(msg.sender) */\n    tag_138:\n        /* \"ElectronicMedicalRecords.sol\":8277:8365  require(doctor_verificator.verify(msg.sender) || patient_verificator.verify(msg.sender)) */\n      tag_143\n      jumpi\n      0x00\n      dup1\n      revert\n    tag_143:\n        /* \"ElectronicMedicalRecords.sol\":7285:7297  Patient_Data */\n      0x00\n        /* \"ElectronicMedicalRecords.sol\":7285:7307  Patient_Data[_address] */\n      dup1\n        /* \"ElectronicMedicalRecords.sol\":7298:7306  _address */\n      dup4\n        /* \"ElectronicMedicalRecords.sol\":7285:7307  Patient_Data[_address] */\n      0xffffffffffffffffffffffffffffffffffffffff\n      and\n      0xffffffffffffffffffffffffffffffffffffffff\n      and\n      dup2\n      mstore\n      0x20\n      add\n      swap1\n      dup2\n      mstore\n      0x20\n      add\n      0x00\n      keccak256\n        /* \"ElectronicMedicalRecords.sol\":7278:7307  return Patient_Data[_address] */\n      mload(0x40)\n      dup1\n      0x0100\n      add\n      0x40\n      mstore\n      swap1\n      dup2\n      0x00\n      dup3\n      add\n      0x00\n      swap1\n      sload\n      swap1\n      0x0100\n      exp\n      swap1\n      div\n      0xffffffffffffffffffffffffffffffffffffffff\n      and\n      0xffffffffffffffffffffffffffffffffffffffff\n      and\n      0xffffffffffffffffffffffffffffffffffffffff\n      and\n      dup2\n      mstore\n      0x20\n      add\n      0x01\n      dup3\n      add\n      dup1\n      sload\n      tag_145\n      swap1\n      tag_82\n      jump\t// in\n    tag_145:\n      dup1\n      0x1f\n      add\n      0x20\n      dup1\n      swap2\n      div\n      mul\n      0x20\n      add\n      mload(0x40)\n      swap1\n      dup2\n      add\n      0x40\n      mstore\n      dup1\n      swap3\n      swap2\n      swap1\n      dup2\n      dup2\n      mstore\n      0x20\n      add\n      dup3\n      dup1\n      sload\n      tag_146\n      swap1\n      tag_82\n      jump\t// in\n    tag_146:\n      dup1\n      iszero\n      tag_147\n      jumpi\n      dup1\n      0x1f\n      lt\n      tag_148\n      jumpi\n      0x0100\n      dup1\n      dup4\n      sload\n      div\n      mul\n      dup4\n      mstore\n      swap2\n      0x20\n      add\n      swap2\n      jump(tag_147)\n    tag_148:\n      dup3\n      add\n      swap2\n      swap1\n      0x00\n      mstore\n      keccak256(0x00, 0x20)\n      swap1\n    tag_149:\n      dup2\n      sload\n      dup2\n      mstore\n      swap1\n      0x01\n      add\n      swap1\n      0x20\n      add\n      dup1\n      dup4\n      gt\n      tag_149\n      jumpi\n      dup3\n      swap1\n      sub\n      0x1f\n      and\n      dup3\n      add\n      swap2\n    tag_147:\n      pop\n      pop\n      pop\n      pop\n      pop\n      dup2\n      mstore\n      0x20\n      add\n      0x02\n      dup3\n      add\n      sload\n      dup2\n      mstore\n      0x20\n      add\n      0x03\n      dup3\n      add\n      dup1\n      sload\n      tag_150\n      swap1\n      tag_82\n      jump\t// in\n    tag_150:\n      dup1\n      0x1f\n      add\n      0x20\n      dup1\n      swap2\n      div\n      mul\n      0x20\n      add\n      mload(0x40)\n      swap1\n      dup2\n      add\n      0x40\n      mstore\n      dup1\n      swap3\n      swap2\n      swap1\n      dup2\n      dup2\n      mstore\n      0x20\n      add\n      dup3\n      dup1\n      sload\n      tag_151\n      swap1\n      tag_82\n      jump\t// in\n    tag_151:\n      dup1\n      iszero\n      tag_152\n      jumpi\n      dup1\n      0x1f\n      lt\n      tag_153\n      jumpi\n      0x0100\n      dup1\n      dup4\n      sload\n      div\n      mul\n      dup4\n      mstore\n      swap2\n      0x20\n      add\n      swap2\n      jump(tag_152)\n    tag_153:\n      dup3\n      add\n      swap2\n      swap1\n      0x00\n      mstore\n      keccak256(0x00, 0x20)\n      swap1\n    tag_154:\n      dup2\n      sload\n      dup2\n      mstore\n      swap1\n      0x01\n      add\n      swap1\n      0x20\n      add\n      dup1\n      dup4\n      gt\n      tag_154\n      jumpi\n      dup3\n      swap1\n      sub\n      0x1f\n      and\n      dup3\n      add\n      swap2\n    tag_152:\n      pop\n      pop\n      pop\n      pop\n      pop\n      dup2\n      mstore\n      0x20\n      add\n      0x04\n      dup3\n      add\n      dup1\n      sload\n      tag_155\n      swap1\n      tag_82\n      jump\t// in\n    tag_155:\n      dup1\n      0x1f\n      add\n      0x20\n      dup1\n      swap2\n      div\n      mul\n      0x20\n      add\n      mload(0x40)\n      swap1\n      dup2\n      add\n      0x40\n      mstore\n      dup1\n      swap3\n      swap2\n      swap1\n      dup2\n      dup2\n      mstore\n      0x20\n      add\n      dup3\n      dup1\n      sload\n      tag_156\n      swap1\n      tag_82\n      jump\t// in\n    tag_156:\n      dup1\n      iszero\n      tag_157\n      jumpi\n      dup1\n      0x1f\n      lt\n      tag_158\n      jumpi\n      0x0100\n      dup1\n      dup4\n      sload\n      div\n      mul\n      dup4\n      mstore\n      swap2\n      0x20\n      add\n      swap2\n      jump(tag_157)\n    tag_158:\n      dup3\n      add\n      swap2\n      swap1\n      0x00\n      mstore\n      keccak256(0x00, 0x20)\n      swap1\n    tag_159:\n      dup2\n      sload\n      dup2\n      mstore\n      swap1\n      0x01\n      add\n      swap1\n      0x20\n      add\n      dup1\n      dup4\n      gt\n      tag_159\n      jumpi\n      dup3\n      swap1\n      sub\n      0x1f\n      and\n      dup3\n      add\n      swap2\n    tag_157:\n      pop\n      pop\n      pop\n      pop\n      pop\n      dup2\n      mstore\n      0x20\n      add\n      0x05\n      dup3\n      add\n      dup1\n      sload\n      tag_160\n      swap1\n      tag_82\n      jump\t// in\n    tag_160:\n      dup1\n      0x1f\n      add\n      0x20\n      dup1\n      swap2\n      div\n      mul\n      0x20\n      add\n      mload(0x40)\n      swap1\n      dup2\n      add\n      0x40\n      mstore\n      dup1\n      swap3\n      swap2\n      swap1\n      dup2\n      dup2\n      mstore\n      0x20\n      add\n      dup3\n      dup1\n      sload\n      tag_161\n      swap1\n      tag_82\n      jump\t// in\n    tag_161:\n      dup1\n      iszero\n      tag_162\n      jumpi\n      dup1\n      0x1f\n      lt\n      tag_163\n      jumpi\n      0x0100\n      dup1\n      dup4\n      sload\n      div\n      mul\n      dup4\n      mstore\n      swap2\n      0x20\n      add\n      swap2\n      jump(tag_162)\n    tag_163:\n      dup3\n      add\n      swap2\n      swap1\n      0x00\n      mstore\n      keccak256(0x00, 0x20)\n      swap1\n    tag_164:\n      dup2\n      sload\n      dup2\n      mstore\n      swap1\n      0x01\n      add\n      swap1\n      0x20\n      add\n      dup1\n      dup4\n      gt\n      tag_164\n      jumpi\n      dup3\n      swap1\n      sub\n      0x1f\n      and\n      dup3\n      add\n      swap2\n    tag_162:\n      pop\n      pop\n      pop\n      pop\n      pop\n      dup2\n      mstore\n      0x20\n      add\n      0x06\n      dup3\n      add\n      dup1\n      sload\n      tag_165\n      swap1\n      tag_82\n      jump\t// in\n    tag_165:\n      dup1\n      0x1f\n      add\n      0x20\n      dup1\n      swap2\n      div\n      mul\n      0x20\n      add\n      mload(0x40)\n      swap1\n      dup2\n      add\n      0x40\n      mstore\n      dup1\n      swap3\n      swap2\n      swap1\n      dup2\n      dup2\n      mstore\n      0x20\n      add\n      dup3\n      dup1\n      sload\n      tag_166\n      swap1\n      tag_82\n      jump\t// in\n    tag_166:\n      dup1\n      iszero\n      tag_167\n      jumpi\n      dup1\n      0x1f\n      lt\n      tag_168\n      jumpi\n      0x0100\n      dup1\n      dup4\n      sload\n      div\n      mul\n      dup4\n      mstore\n      swap2\n      0x20\n      add\n      swap2\n      jump(tag_167)\n    tag_168:\n      dup3\n      add\n      swap2\n      swap1\n      0x00\n      mstore\n      keccak256(0x00, 0x20)\n      swap1\n    tag_169:\n      dup2\n      sload\n      dup2\n      mstore\n      swap1\n      0x01\n      add\n      swap1\n      0x20\n      add\n      dup1\n      dup4\n      gt\n      tag_169\n      jumpi\n      dup3\n      swap1\n      sub\n      0x1f\n      and\n      dup3\n      add\n      swap2\n    tag_167:\n      pop\n      pop\n      pop\n      pop\n      pop\n      dup2\n      mstore\n      0x20\n      add\n      0x07\n      dup3\n      add\n      dup1\n      sload\n      tag_170\n      swap1\n      tag_82\n      jump\t// in\n    tag_170:\n      dup1\n      0x1f\n      add\n      0x20\n      dup1\n      swap2\n      div\n      mul\n      0x20\n      add\n      mload(0x40)\n      swap1\n      dup2\n      add\n      0x40\n      mstore\n      dup1\n      swap3\n      swap2\n      swap1\n      dup2\n      dup2\n      mstore\n      0x20\n      add\n      dup3\n      dup1\n      sload\n      tag_171\n      swap1\n      tag_82\n      jump\t// in\n    tag_171:\n      dup1\n      iszero\n      tag_172\n      jumpi\n      dup1\n      0x1f\n      lt\n      tag_173\n      jumpi\n      0x0100\n      dup1\n      dup4\n      sload\n      div\n      mul\n      dup4\n      mstore\n      swap2\n      0x20\n      add\n      swap2\n      jump(tag_172)\n    tag_173:\n      dup3\n      add\n      swap2\n      swap1\n      0x00\n      mstore\n      keccak256(0x00, 0x20)\n      swap1\n    tag_174:\n      dup2\n      sload\n      dup2\n      mstore\n      swap1\n      0x01\n      add\n      swap1\n      0x20\n      add\n      dup1\n      dup4\n      gt\n      tag_174\n      jumpi\n      dup3\n      swap1\n      sub\n      0x1f\n      and\n      dup3\n      add\n      swap2\n    tag_172:\n      pop\n      pop\n      pop\n      pop\n      pop\n      dup2\n      mstore\n      pop\n      pop\n      swap1\n      pop\n        /* \"ElectronicMedicalRecords.sol\":7118:7315  function getPatientData(address _address)... */\n      swap2\n      swap1\n      pop\n      jump\t// out\n        /* \"ElectronicMedicalRecords.sol\":7323:8120  function updatePatientData(... */\n    tag_38:\n        /* \"ElectronicMedicalRecords.sol\":7655:7694  PatientData storage existingPatientData */\n      0x00\n        /* \"ElectronicMedicalRecords.sol\":7697:7709  Patient_Data */\n      dup1\n        /* \"ElectronicMedicalRecords.sol\":7697:7719  Patient_Data[_patient] */\n      0x00\n        /* \"ElectronicMedicalRecords.sol\":7710:7718  _patient */\n      dup11\n        /* \"ElectronicMedicalRecords.sol\":7697:7719  Patient_Data[_patient] */\n      0xffffffffffffffffffffffffffffffffffffffff\n      and\n      0xffffffffffffffffffffffffffffffffffffffff\n      and\n      dup2\n      mstore\n      0x20\n      add\n      swap1\n      dup2\n      mstore\n      0x20\n      add\n      0x00\n      keccak256\n        /* \"ElectronicMedicalRecords.sol\":7655:7719  PatientData storage existingPatientData = Patient_Data[_patient] */\n      swap1\n      pop\n        /* \"ElectronicMedicalRecords.sol\":7765:7778  _nama_lengkap */\n      dup8\n        /* \"ElectronicMedicalRecords.sol\":7730:7749  existingPatientData */\n      dup2\n        /* \"ElectronicMedicalRecords.sol\":7730:7762  existingPatientData.nama_lengkap */\n      0x01\n      add\n        /* \"ElectronicMedicalRecords.sol\":7730:7778  existingPatientData.nama_lengkap = _nama_lengkap */\n      swap1\n      dup2\n      tag_176\n      swap2\n      swap1\n      tag_60\n      jump\t// in\n    tag_176:\n      pop\n        /* \"ElectronicMedicalRecords.sol\":7816:7821  _umur */\n      dup7\n        /* \"ElectronicMedicalRecords.sol\":7789:7808  existingPatientData */\n      dup2\n        /* \"ElectronicMedicalRecords.sol\":7789:7813  existingPatientData.umur */\n      0x02\n      add\n        /* \"ElectronicMedicalRecords.sol\":7789:7821  existingPatientData.umur = _umur */\n      dup2\n      swap1\n      sstore\n      pop\n        /* \"ElectronicMedicalRecords.sol\":7868:7882  _tanggal_lahir */\n      dup6\n        /* \"ElectronicMedicalRecords.sol\":7832:7851  existingPatientData */\n      dup2\n        /* \"ElectronicMedicalRecords.sol\":7832:7865  existingPatientData.tanggal_lahir */\n      0x03\n      add\n        /* \"ElectronicMedicalRecords.sol\":7832:7882  existingPatientData.tanggal_lahir = _tanggal_lahir */\n      swap1\n      dup2\n      tag_177\n      swap2\n      swap1\n      tag_60\n      jump\t// in\n    tag_177:\n      pop\n        /* \"ElectronicMedicalRecords.sol\":7929:7943  _tanggal_masuk */\n      dup5\n        /* \"ElectronicMedicalRecords.sol\":7893:7912  existingPatientData */\n      dup2\n        /* \"ElectronicMedicalRecords.sol\":7893:7926  existingPatientData.tanggal_masuk */\n      0x04\n      add\n        /* \"ElectronicMedicalRecords.sol\":7893:7943  existingPatientData.tanggal_masuk = _tanggal_masuk */\n      swap1\n      dup2\n      tag_178\n      swap2\n      swap1\n      tag_60\n      jump\t// in\n    tag_178:\n      pop\n        /* \"ElectronicMedicalRecords.sol\":7991:8006  _tanggal_keluar */\n      dup4\n        /* \"ElectronicMedicalRecords.sol\":7954:7973  existingPatientData */\n      dup2\n        /* \"ElectronicMedicalRecords.sol\":7954:7988  existingPatientData.tanggal_keluar */\n      0x05\n      add\n        /* \"ElectronicMedicalRecords.sol\":7954:8006  existingPatientData.tanggal_keluar = _tanggal_keluar */\n      swap1\n      dup2\n      tag_179\n      swap2\n      swap1\n      tag_60\n      jump\t// in\n    tag_179:\n      pop\n        /* \"ElectronicMedicalRecords.sol\":8049:8059  _anamnesis */\n      dup3\n        /* \"ElectronicMedicalRecords.sol\":8017:8036  existingPatientData */\n      dup2\n        /* \"ElectronicMedicalRecords.sol\":8017:8046  existingPatientData.anamnesis */\n      0x06\n      add\n        /* \"ElectronicMedicalRecords.sol\":8017:8059  existingPatientData.anamnesis = _anamnesis */\n      swap1\n      dup2\n      tag_180\n      swap2\n      swap1\n      tag_60\n      jump\t// in\n    tag_180:\n      pop\n        /* \"ElectronicMedicalRecords.sol\":8102:8112  _diagnosis */\n      dup2\n        /* \"ElectronicMedicalRecords.sol\":8070:8089  existingPatientData */\n      dup2\n        /* \"ElectronicMedicalRecords.sol\":8070:8099  existingPatientData.diagnosis */\n      0x07\n      add\n        /* \"ElectronicMedicalRecords.sol\":8070:8112  existingPatientData.diagnosis = _diagnosis */\n      swap1\n      dup2\n      tag_181\n      swap2\n      swap1\n      tag_60\n      jump\t// in\n    tag_181:\n      pop\n        /* \"ElectronicMedicalRecords.sol\":7643:8120  { ... */\n      pop\n        /* \"ElectronicMedicalRecords.sol\":7323:8120  function updatePatientData(... */\n      pop\n      pop\n      pop\n      pop\n      pop\n      pop\n      pop\n      pop\n      jump\t// out\n        /* \"ElectronicMedicalRecords.sol\":4456:4624  function setPatientVerificatorAddress(address _PatientVerificatorAddress) public {... */\n    tag_41:\n        /* \"ElectronicMedicalRecords.sol\":4589:4615  _PatientVerificatorAddress */\n      dup1\n        /* \"ElectronicMedicalRecords.sol\":4548:4567  patient_verificator */\n      0x05\n      0x00\n        /* \"ElectronicMedicalRecords.sol\":4548:4616  patient_verificator = PatientVerificator(_PatientVerificatorAddress) */\n      0x0100\n      exp\n      dup2\n      sload\n      dup2\n      0xffffffffffffffffffffffffffffffffffffffff\n      mul\n      not\n      and\n      swap1\n      dup4\n      0xffffffffffffffffffffffffffffffffffffffff\n      and\n      mul\n      or\n      swap1\n      sstore\n      pop\n        /* \"ElectronicMedicalRecords.sol\":4456:4624  function setPatientVerificatorAddress(address _PatientVerificatorAddress) public {... */\n      pop\n      jump\t// out\n        /* \"ElectronicMedicalRecords.sol\":4632:4780  function setDoctorRelationAddress(address _DoctorRelationAddress) public {... */\n    tag_44:\n        /* \"ElectronicMedicalRecords.sol\":4749:4771  _DoctorRelationAddress */\n      dup1\n        /* \"ElectronicMedicalRecords.sol\":4716:4731  doctor_relation */\n      0x06\n      0x00\n        /* \"ElectronicMedicalRecords.sol\":4716:4772  doctor_relation = DoctorRelation(_DoctorRelationAddress) */\n      0x0100\n      exp\n      dup2\n      sload\n      dup2\n      0xffffffffffffffffffffffffffffffffffffffff\n      mul\n      not\n      and\n      swap1\n      dup4\n      0xffffffffffffffffffffffffffffffffffffffff\n      and\n      mul\n      or\n      swap1\n      sstore\n      pop\n        /* \"ElectronicMedicalRecords.sol\":4632:4780  function setDoctorRelationAddress(address _DoctorRelationAddress) public {... */\n      pop\n      jump\t// out\n        /* \"ElectronicMedicalRecords.sol\":6004:6166  function getOutPatient(address add) public view returns(IdentitasPasien memory a, RawatJalan memory b) {... */\n    tag_47:\n        /* \"ElectronicMedicalRecords.sol\":6060:6084  IdentitasPasien memory a */\n      tag_184\n      tag_58\n      jump\t// in\n    tag_184:\n        /* \"ElectronicMedicalRecords.sol\":6086:6105  RawatJalan memory b */\n      tag_185\n      tag_63\n      jump\t// in\n    tag_185:\n        /* \"ElectronicMedicalRecords.sol\":6126:6135  patientId */\n      0x02\n        /* \"ElectronicMedicalRecords.sol\":6126:6140  patientId[add] */\n      0x00\n        /* \"ElectronicMedicalRecords.sol\":6136:6139  add */\n      dup5\n        /* \"ElectronicMedicalRecords.sol\":6126:6140  patientId[add] */\n      0xffffffffffffffffffffffffffffffffffffffff\n      and\n      0xffffffffffffffffffffffffffffffffffffffff\n      and\n      dup2\n      mstore\n      0x20\n      add\n      swap1\n      dup2\n      mstore\n      0x20\n      add\n      0x00\n      keccak256\n        /* \"ElectronicMedicalRecords.sol\":6142:6152  outPatient */\n      0x01\n        /* \"ElectronicMedicalRecords.sol\":6142:6157  outPatient[add] */\n      0x00\n        /* \"ElectronicMedicalRecords.sol\":6153:6156  add */\n      dup6\n        /* \"ElectronicMedicalRecords.sol\":6142:6157  outPatient[add] */\n      0xffffffffffffffffffffffffffffffffffffffff\n      and\n      0xffffffffffffffffffffffffffffffffffffffff\n      and\n      dup2\n      mstore\n      0x20\n      add\n      swap1\n      dup2\n      mstore\n      0x20\n      add\n      0x00\n      keccak256\n        /* \"ElectronicMedicalRecords.sol\":6118:6158  return (patientId[add], outPatient[add]) */\n      dup2\n      mload(0x40)\n      dup1\n      0x80\n      add\n      0x40\n      mstore\n      swap1\n      dup2\n      0x00\n      dup3\n      add\n      0x00\n      swap1\n      sload\n      swap1\n      0x0100\n      exp\n      swap1\n      div\n      0xffffffffffffffffffffffffffffffffffffffff\n      and\n      0xffffffffffffffffffffffffffffffffffffffff\n      and\n      0xffffffffffffffffffffffffffffffffffffffff\n      and\n      dup2\n      mstore\n      0x20\n      add\n      0x01\n      dup3\n      add\n      dup1\n      sload\n      tag_187\n      swap1\n      tag_82\n      jump\t// in\n    tag_187:\n      dup1\n      0x1f\n      add\n      0x20\n      dup1\n      swap2\n      div\n      mul\n      0x20\n      add\n      mload(0x40)\n      swap1\n      dup2\n      add\n      0x40\n      mstore\n      dup1\n      swap3\n      swap2\n      swap1\n      dup2\n      dup2\n      mstore\n      0x20\n      add\n      dup3\n      dup1\n      sload\n      tag_188\n      swap1\n      tag_82\n      jump\t// in\n    tag_188:\n      dup1\n      iszero\n      tag_189\n      jumpi\n      dup1\n      0x1f\n      lt\n      tag_190\n      jumpi\n      0x0100\n      dup1\n      dup4\n      sload\n      div\n      mul\n      dup4\n      mstore\n      swap2\n      0x20\n      add\n      swap2\n      jump(tag_189)\n    tag_190:\n      dup3\n      add\n      swap2\n      swap1\n      0x00\n      mstore\n      keccak256(0x00, 0x20)\n      swap1\n    tag_191:\n      dup2\n      sload\n      dup2\n      mstore\n      swap1\n      0x01\n      add\n      swap1\n      0x20\n      add\n      dup1\n      dup4\n      gt\n      tag_191\n      jumpi\n      dup3\n      swap1\n      sub\n      0x1f\n      and\n      dup3\n      add\n      swap2\n    tag_189:\n      pop\n      pop\n      pop\n      pop\n      pop\n      dup2\n      mstore\n      0x20\n      add\n      0x02\n      dup3\n      add\n      sload\n      dup2\n      mstore\n      0x20\n      add\n      0x03\n      dup3\n      add\n      dup1\n      sload\n      tag_192\n      swap1\n      tag_82\n      jump\t// in\n    tag_192:\n      dup1\n      0x1f\n      add\n      0x20\n      dup1\n      swap2\n      div\n      mul\n      0x20\n      add\n      mload(0x40)\n      swap1\n      dup2\n      add\n      0x40\n      mstore\n      dup1\n      swap3\n      swap2\n      swap1\n      dup2\n      dup2\n      mstore\n      0x20\n      add\n      dup3\n      dup1\n      sload\n      tag_193\n      swap1\n      tag_82\n      jump\t// in\n    tag_193:\n      dup1\n      iszero\n      tag_194\n      jumpi\n      dup1\n      0x1f\n      lt\n      tag_195\n      jumpi\n      0x0100\n      dup1\n      dup4\n      sload\n      div\n      mul\n      dup4\n      mstore\n      swap2\n      0x20\n      add\n      swap2\n      jump(tag_194)\n    tag_195:\n      dup3\n      add\n      swap2\n      swap1\n      0x00\n      mstore\n      keccak256(0x00, 0x20)\n      swap1\n    tag_196:\n      dup2\n      sload\n      dup2\n      mstore\n      swap1\n      0x01\n      add\n      swap1\n      0x20\n      add\n      dup1\n      dup4\n      gt\n      tag_196\n      jumpi\n      dup3\n      swap1\n      sub\n      0x1f\n      and\n      dup3\n      add\n      swap2\n    tag_194:\n      pop\n      pop\n      pop\n      pop\n      pop\n      dup2\n      mstore\n      pop\n      pop\n      swap2\n      pop\n      dup1\n      mload(0x40)\n      dup1\n      0x0140\n      add\n      0x40\n      mstore\n      swap1\n      dup2\n      0x00\n      dup3\n      add\n      0x00\n      swap1\n      sload\n      swap1\n      0x0100\n      exp\n      swap1\n      div\n      0xffffffffffffffffffffffffffffffffffffffff\n      and\n      0xffffffffffffffffffffffffffffffffffffffff\n      and\n      0xffffffffffffffffffffffffffffffffffffffff\n      and\n      dup2\n      mstore\n      0x20\n      add\n      0x01\n      dup3\n      add\n      dup1\n      sload\n      tag_197\n      swap1\n      tag_82\n      jump\t// in\n    tag_197:\n      dup1\n      0x1f\n      add\n      0x20\n      dup1\n      swap2\n      div\n      mul\n      0x20\n      add\n      mload(0x40)\n      swap1\n      dup2\n      add\n      0x40\n      mstore\n      dup1\n      swap3\n      swap2\n      swap1\n      dup2\n      dup2\n      mstore\n      0x20\n      add\n      dup3\n      dup1\n      sload\n      tag_198\n      swap1\n      tag_82\n      jump\t// in\n    tag_198:\n      dup1\n      iszero\n      tag_199\n      jumpi\n      dup1\n      0x1f\n      lt\n      tag_200\n      jumpi\n      0x0100\n      dup1\n      dup4\n      sload\n      div\n      mul\n      dup4\n      mstore\n      swap2\n      0x20\n      add\n      swap2\n      jump(tag_199)\n    tag_200:\n      dup3\n      add\n      swap2\n      swap1\n      0x00\n      mstore\n      keccak256(0x00, 0x20)\n      swap1\n    tag_201:\n      dup2\n      sload\n      dup2\n      mstore\n      swap1\n      0x01\n      add\n      swap1\n      0x20\n      add\n      dup1\n      dup4\n      gt\n      tag_201\n      jumpi\n      dup3\n      swap1\n      sub\n      0x1f\n      and\n      dup3\n      add\n      swap2\n    tag_199:\n      pop\n      pop\n      pop\n      pop\n      pop\n      dup2\n      mstore\n      0x20\n      add\n      0x02\n      dup3\n      add\n      dup1\n      sload\n      tag_202\n      swap1\n      tag_82\n      jump\t// in\n    tag_202:\n      dup1\n      0x1f\n      add\n      0x20\n      dup1\n      swap2\n      div\n      mul\n      0x20\n      add\n      mload(0x40)\n      swap1\n      dup2\n      add\n      0x40\n      mstore\n      dup1\n      swap3\n      swap2\n      swap1\n      dup2\n      dup2\n      mstore\n      0x20\n      add\n      dup3\n      dup1\n      sload\n      tag_203\n      swap1\n      tag_82\n      jump\t// in\n    tag_203:\n      dup1\n      iszero\n      tag_204\n      jumpi\n      dup1\n      0x1f\n      lt\n      tag_205\n      jumpi\n      0x0100\n      dup1\n      dup4\n      sload\n      div\n      mul\n      dup4\n      mstore\n      swap2\n      0x20\n      add\n      swap2\n      jump(tag_204)\n    tag_205:\n      dup3\n      add\n      swap2\n      swap1\n      0x00\n      mstore\n      keccak256(0x00, 0x20)\n      swap1\n    tag_206:\n      dup2\n      sload\n      dup2\n      mstore\n      swap1\n      0x01\n      add\n      swap1\n      0x20\n      add\n      dup1\n      dup4\n      gt\n      tag_206\n      jumpi\n      dup3\n      swap1\n      sub\n      0x1f\n      and\n      dup3\n      add\n      swap2\n    tag_204:\n      pop\n      pop\n      pop\n      pop\n      pop\n      dup2\n      mstore\n      0x20\n      add\n      0x03\n      dup3\n      add\n      dup1\n      sload\n      tag_207\n      swap1\n      tag_82\n      jump\t// in\n    tag_207:\n      dup1\n      0x1f\n      add\n      0x20\n      dup1\n      swap2\n      div\n      mul\n      0x20\n      add\n      mload(0x40)\n      swap1\n      dup2\n      add\n      0x40\n      mstore\n      dup1\n      swap3\n      swap2\n      swap1\n      dup2\n      dup2\n      mstore\n      0x20\n      add\n      dup3\n      dup1\n      sload\n      tag_208\n      swap1\n      tag_82\n      jump\t// in\n    tag_208:\n      dup1\n      iszero\n      tag_209\n      jumpi\n      dup1\n      0x1f\n      lt\n      tag_210\n      jumpi\n      0x0100\n      dup1\n      dup4\n      sload\n      div\n      mul\n      dup4\n      mstore\n      swap2\n      0x20\n      add\n      swap2\n      jump(tag_209)\n    tag_210:\n      dup3\n      add\n      swap2\n      swap1\n      0x00\n      mstore\n      keccak256(0x00, 0x20)\n      swap1\n    tag_211:\n      dup2\n      sload\n      dup2\n      mstore\n      swap1\n      0x01\n      add\n      swap1\n      0x20\n      add\n      dup1\n      dup4\n      gt\n      tag_211\n      jumpi\n      dup3\n      swap1\n      sub\n      0x1f\n      and\n      dup3\n      add\n      swap2\n    tag_209:\n      pop\n      pop\n      pop\n      pop\n      pop\n      dup2\n      mstore\n      0x20\n      add\n      0x04\n      dup3\n      add\n      dup1\n      sload\n      tag_212\n      swap1\n      tag_82\n      jump\t// in\n    tag_212:\n      dup1\n      0x1f\n      add\n      0x20\n      dup1\n      swap2\n      div\n      mul\n      0x20\n      add\n      mload(0x40)\n      swap1\n      dup2\n      add\n      0x40\n      mstore\n      dup1\n      swap3\n      swap2\n      swap1\n      dup2\n      dup2\n      mstore\n      0x20\n      add\n      dup3\n      dup1\n      sload\n      tag_213\n      swap1\n      tag_82\n      jump\t// in\n    tag_213:\n      dup1\n      iszero\n      tag_214\n      jumpi\n      dup1\n      0x1f\n      lt\n      tag_215\n      jumpi\n      0x0100\n      dup1\n      dup4\n      sload\n      div\n      mul\n      dup4\n      mstore\n      swap2\n      0x20\n      add\n      swap2\n      jump(tag_214)\n    tag_215:\n      dup3\n      add\n      swap2\n      swap1\n      0x00\n      mstore\n      keccak256(0x00, 0x20)\n      swap1\n    tag_216:\n      dup2\n      sload\n      dup2\n      mstore\n      swap1\n      0x01\n      add\n      swap1\n      0x20\n      add\n      dup1\n      dup4\n      gt\n      tag_216\n      jumpi\n      dup3\n      swap1\n      sub\n      0x1f\n      and\n      dup3\n      add\n      swap2\n    tag_214:\n      pop\n      pop\n      pop\n      pop\n      pop\n      dup2\n      mstore\n      0x20\n      add\n      0x05\n      dup3\n      add\n      dup1\n      sload\n      tag_217\n      swap1\n      tag_82\n      jump\t// in\n    tag_217:\n      dup1\n      0x1f\n      add\n      0x20\n      dup1\n      swap2\n      div\n      mul\n      0x20\n      add\n      mload(0x40)\n      swap1\n      dup2\n      add\n      0x40\n      mstore\n      dup1\n      swap3\n      swap2\n      swap1\n      dup2\n      dup2\n      mstore\n      0x20\n      add\n      dup3\n      dup1\n      sload\n      tag_218\n      swap1\n      tag_82\n      jump\t// in\n    tag_218:\n      dup1\n      iszero\n      tag_219\n      jumpi\n      dup1\n      0x1f\n      lt\n      tag_220\n      jumpi\n      0x0100\n      dup1\n      dup4\n      sload\n      div\n      mul\n      dup4\n      mstore\n      swap2\n      0x20\n      add\n      swap2\n      jump(tag_219)\n    tag_220:\n      dup3\n      add\n      swap2\n      swap1\n      0x00\n      mstore\n      keccak256(0x00, 0x20)\n      swap1\n    tag_221:\n      dup2\n      sload\n      dup2\n      mstore\n      swap1\n      0x01\n      add\n      swap1\n      0x20\n      add\n      dup1\n      dup4\n      gt\n      tag_221\n      jumpi\n      dup3\n      swap1\n      sub\n      0x1f\n      and\n      dup3\n      add\n      swap2\n    tag_219:\n      pop\n      pop\n      pop\n      pop\n      pop\n      dup2\n      mstore\n      0x20\n      add\n      0x06\n      dup3\n      add\n      dup1\n      sload\n      tag_222\n      swap1\n      tag_82\n      jump\t// in\n    tag_222:\n      dup1\n      0x1f\n      add\n      0x20\n      dup1\n      swap2\n      div\n      mul\n      0x20\n      add\n      mload(0x40)\n      swap1\n      dup2\n      add\n      0x40\n      mstore\n      dup1\n      swap3\n      swap2\n      swap1\n      dup2\n      dup2\n      mstore\n      0x20\n      add\n      dup3\n      dup1\n      sload\n      tag_223\n      swap1\n      tag_82\n      jump\t// in\n    tag_223:\n      dup1\n      iszero\n      tag_224\n      jumpi\n      dup1\n      0x1f\n      lt\n      tag_225\n      jumpi\n      0x0100\n      dup1\n      dup4\n      sload\n      div\n      mul\n      dup4\n      mstore\n      swap2\n      0x20\n      add\n      swap2\n      jump(tag_224)\n    tag_225:\n      dup3\n      add\n      swap2\n      swap1\n      0x00\n      mstore\n      keccak256(0x00, 0x20)\n      swap1\n    tag_226:\n      dup2\n      sload\n      dup2\n      mstore\n      swap1\n      0x01\n      add\n      swap1\n      0x20\n      add\n      dup1\n      dup4\n      gt\n      tag_226\n      jumpi\n      dup3\n      swap1\n      sub\n      0x1f\n      and\n      dup3\n      add\n      swap2\n    tag_224:\n      pop\n      pop\n      pop\n      pop\n      pop\n      dup2\n      mstore\n      0x20\n      add\n      0x07\n      dup3\n      add\n      dup1\n      sload\n      tag_227\n      swap1\n      tag_82\n      jump\t// in\n    tag_227:\n      dup1\n      0x1f\n      add\n      0x20\n      dup1\n      swap2\n      div\n      mul\n      0x20\n      add\n      mload(0x40)\n      swap1\n      dup2\n      add\n      0x40\n      mstore\n      dup1\n      swap3\n      swap2\n      swap1\n      dup2\n      dup2\n      mstore\n      0x20\n      add\n      dup3\n      dup1\n      sload\n      tag_228\n      swap1\n      tag_82\n      jump\t// in\n    tag_228:\n      dup1\n      iszero\n      tag_229\n      jumpi\n      dup1\n      0x1f\n      lt\n      tag_230\n      jumpi\n      0x0100\n      dup1\n      dup4\n      sload\n      div\n      mul\n      dup4\n      mstore\n      swap2\n      0x20\n      add\n      swap2\n      jump(tag_229)\n    tag_230:\n      dup3\n      add\n      swap2\n      swap1\n      0x00\n      mstore\n      keccak256(0x00, 0x20)\n      swap1\n    tag_231:\n      dup2\n      sload\n      dup2\n      mstore\n      swap1\n      0x01\n      add\n      swap1\n      0x20\n      add\n      dup1\n      dup4\n      gt\n      tag_231\n      jumpi\n      dup3\n      swap1\n      sub\n      0x1f\n      and\n      dup3\n      add\n      swap2\n    tag_229:\n      pop\n      pop\n      pop\n      pop\n      pop\n      dup2\n      mstore\n      0x20\n      add\n      0x08\n      dup3\n      add\n      dup1\n      sload\n      tag_232\n      swap1\n      tag_82\n      jump\t// in\n    tag_232:\n      dup1\n      0x1f\n      add\n      0x20\n      dup1\n      swap2\n      div\n      mul\n      0x20\n      add\n      mload(0x40)\n      swap1\n      dup2\n      add\n      0x40\n      mstore\n      dup1\n      swap3\n      swap2\n      swap1\n      dup2\n      dup2\n      mstore\n      0x20\n      add\n      dup3\n      dup1\n      sload\n      tag_233\n      swap1\n      tag_82\n      jump\t// in\n    tag_233:\n      dup1\n      iszero\n      tag_234\n      jumpi\n      dup1\n      0x1f\n      lt\n      tag_235\n      jumpi\n      0x0100\n      dup1\n      dup4\n      sload\n      div\n      mul\n      dup4\n      mstore\n      swap2\n      0x20\n      add\n      swap2\n      jump(tag_234)\n    tag_235:\n      dup3\n      add\n      swap2\n      swap1\n      0x00\n      mstore\n      keccak256(0x00, 0x20)\n      swap1\n    tag_236:\n      dup2\n      sload\n      dup2\n      mstore\n      swap1\n      0x01\n      add\n      swap1\n      0x20\n      add\n      dup1\n      dup4\n      gt\n      tag_236\n      jumpi\n      dup3\n      swap1\n      sub\n      0x1f\n      and\n      dup3\n      add\n      swap2\n    tag_234:\n      pop\n      pop\n      pop\n      pop\n      pop\n      dup2\n      mstore\n      0x20\n      add\n      0x09\n      dup3\n      add\n      0x00\n      swap1\n      sload\n      swap1\n      0x0100\n      exp\n      swap1\n      div\n      0xff\n      and\n      iszero\n      iszero\n      iszero\n      iszero\n      dup2\n      mstore\n      pop\n      pop\n      swap1\n      pop\n      swap2\n      pop\n      swap2\n      pop\n        /* \"ElectronicMedicalRecords.sol\":6004:6166  function getOutPatient(address add) public view returns(IdentitasPasien memory a, RawatJalan memory b) {... */\n      swap2\n      pop\n      swap2\n      jump\t// out\n        /* \"ElectronicMedicalRecords.sol\":3942:3990  mapping(address => RawatJalan) public outPatient */\n    tag_52:\n      mstore(0x20, 0x01)\n      dup1\n      0x00\n      mstore\n      keccak256(0x00, 0x40)\n      0x00\n      swap2\n      pop\n      swap1\n      pop\n      dup1\n      0x00\n      add\n      0x00\n      swap1\n      sload\n      swap1\n      0x0100\n      exp\n      swap1\n      div\n      0xffffffffffffffffffffffffffffffffffffffff\n      and\n      swap1\n      dup1\n      0x01\n      add\n      dup1\n      sload\n      tag_237\n      swap1\n      tag_82\n      jump\t// in\n    tag_237:\n      dup1\n      0x1f\n      add\n      0x20\n      dup1\n      swap2\n      div\n      mul\n      0x20\n      add\n      mload(0x40)\n      swap1\n      dup2\n      add\n      0x40\n      mstore\n      dup1\n      swap3\n      swap2\n      swap1\n      dup2\n      dup2\n      mstore\n      0x20\n      add\n      dup3\n      dup1\n      sload\n      tag_238\n      swap1\n      tag_82\n      jump\t// in\n    tag_238:\n      dup1\n      iszero\n      tag_239\n      jumpi\n      dup1\n      0x1f\n      lt\n      tag_240\n      jumpi\n      0x0100\n      dup1\n      dup4\n      sload\n      div\n      mul\n      dup4\n      mstore\n      swap2\n      0x20\n      add\n      swap2\n      jump(tag_239)\n    tag_240:\n      dup3\n      add\n      swap2\n      swap1\n      0x00\n      mstore\n      keccak256(0x00, 0x20)\n      swap1\n    tag_241:\n      dup2\n      sload\n      dup2\n      mstore\n      swap1\n      0x01\n      add\n      swap1\n      0x20\n      add\n      dup1\n      dup4\n      gt\n      tag_241\n      jumpi\n      dup3\n      swap1\n      sub\n      0x1f\n      and\n      dup3\n      add\n      swap2\n    tag_239:\n      pop\n      pop\n      pop\n      pop\n      pop\n      swap1\n      dup1\n      0x02\n      add\n      dup1\n      sload\n      tag_242\n      swap1\n      tag_82\n      jump\t// in\n    tag_242:\n      dup1\n      0x1f\n      add\n      0x20\n      dup1\n      swap2\n      div\n      mul\n      0x20\n      add\n      mload(0x40)\n      swap1\n      dup2\n      add\n      0x40\n      mstore\n      dup1\n      swap3\n      swap2\n      swap1\n      dup2\n      dup2\n      mstore\n      0x20\n      add\n      dup3\n      dup1\n      sload\n      tag_243\n      swap1\n      tag_82\n      jump\t// in\n    tag_243:\n      dup1\n      iszero\n      tag_244\n      jumpi\n      dup1\n      0x1f\n      lt\n      tag_245\n      jumpi\n      0x0100\n      dup1\n      dup4\n      sload\n      div\n      mul\n      dup4\n      mstore\n      swap2\n      0x20\n      add\n      swap2\n      jump(tag_244)\n    tag_245:\n      dup3\n      add\n      swap2\n      swap1\n      0x00\n      mstore\n      keccak256(0x00, 0x20)\n      swap1\n    tag_246:\n      dup2\n      sload\n      dup2\n      mstore\n      swap1\n      0x01\n      add\n      swap1\n      0x20\n      add\n      dup1\n      dup4\n      gt\n      tag_246\n      jumpi\n      dup3\n      swap1\n      sub\n      0x1f\n      and\n      dup3\n      add\n      swap2\n    tag_244:\n      pop\n      pop\n      pop\n      pop\n      pop\n      swap1\n      dup1\n      0x03\n      add\n      dup1\n      sload\n      tag_247\n      swap1\n      tag_82\n      jump\t// in\n    tag_247:\n      dup1\n      0x1f\n      add\n      0x20\n      dup1\n      swap2\n      div\n      mul\n      0x20\n      add\n      mload(0x40)\n      swap1\n      dup2\n      add\n      0x40\n      mstore\n      dup1\n      swap3\n      swap2\n      swap1\n      dup2\n      dup2\n      mstore\n      0x20\n      add\n      dup3\n      dup1\n      sload\n      tag_248\n      swap1\n      tag_82\n      jump\t// in\n    tag_248:\n      dup1\n      iszero\n      tag_249\n      jumpi\n      dup1\n      0x1f\n      lt\n      tag_250\n      jumpi\n      0x0100\n      dup1\n      dup4\n      sload\n      div\n      mul\n      dup4\n      mstore\n      swap2\n      0x20\n      add\n      swap2\n      jump(tag_249)\n    tag_250:\n      dup3\n      add\n      swap2\n      swap1\n      0x00\n      mstore\n      keccak256(0x00, 0x20)\n      swap1\n    tag_251:\n      dup2\n      sload\n      dup2\n      mstore\n      swap1\n      0x01\n      add\n      swap1\n      0x20\n      add\n      dup1\n      dup4\n      gt\n      tag_251\n      jumpi\n      dup3\n      swap1\n      sub\n      0x1f\n      and\n      dup3\n      add\n      swap2\n    tag_249:\n      pop\n      pop\n      pop\n      pop\n      pop\n      swap1\n      dup1\n      0x04\n      add\n      dup1\n      sload\n      tag_252\n      swap1\n      tag_82\n      jump\t// in\n    tag_252:\n      dup1\n      0x1f\n      add\n      0x20\n      dup1\n      swap2\n      div\n      mul\n      0x20\n      add\n      mload(0x40)\n      swap1\n      dup2\n      add\n      0x40\n      mstore\n      dup1\n      swap3\n      swap2\n      swap1\n      dup2\n      dup2\n      mstore\n      0x20\n      add\n      dup3\n      dup1\n      sload\n      tag_253\n      swap1\n      tag_82\n      jump\t// in\n    tag_253:\n      dup1\n      iszero\n      tag_254\n      jumpi\n      dup1\n      0x1f\n      lt\n      tag_255\n      jumpi\n      0x0100\n      dup1\n      dup4\n      sload\n      div\n      mul\n      dup4\n      mstore\n      swap2\n      0x20\n      add\n      swap2\n      jump(tag_254)\n    tag_255:\n      dup3\n      add\n      swap2\n      swap1\n      0x00\n      mstore\n      keccak256(0x00, 0x20)\n      swap1\n    tag_256:\n      dup2\n      sload\n      dup2\n      mstore\n      swap1\n      0x01\n      add\n      swap1\n      0x20\n      add\n      dup1\n      dup4\n      gt\n      tag_256\n      jumpi\n      dup3\n      swap1\n      sub\n      0x1f\n      and\n      dup3\n      add\n      swap2\n    tag_254:\n      pop\n      pop\n      pop\n      pop\n      pop\n      swap1\n      dup1\n      0x05\n      add\n      dup1\n      sload\n      tag_257\n      swap1\n      tag_82\n      jump\t// in\n    tag_257:\n      dup1\n      0x1f\n      add\n      0x20\n      dup1\n      swap2\n      div\n      mul\n      0x20\n      add\n      mload(0x40)\n      swap1\n      dup2\n      add\n      0x40\n      mstore\n      dup1\n      swap3\n      swap2\n      swap1\n      dup2\n      dup2\n      mstore\n      0x20\n      add\n      dup3\n      dup1\n      sload\n      tag_258\n      swap1\n      tag_82\n      jump\t// in\n    tag_258:\n      dup1\n      iszero\n      tag_259\n      jumpi\n      dup1\n      0x1f\n      lt\n      tag_260\n      jumpi\n      0x0100\n      dup1\n      dup4\n      sload\n      div\n      mul\n      dup4\n      mstore\n      swap2\n      0x20\n      add\n      swap2\n      jump(tag_259)\n    tag_260:\n      dup3\n      add\n      swap2\n      swap1\n      0x00\n      mstore\n      keccak256(0x00, 0x20)\n      swap1\n    tag_261:\n      dup2\n      sload\n      dup2\n      mstore\n      swap1\n      0x01\n      add\n      swap1\n      0x20\n      add\n      dup1\n      dup4\n      gt\n      tag_261\n      jumpi\n      dup3\n      swap1\n      sub\n      0x1f\n      and\n      dup3\n      add\n      swap2\n    tag_259:\n      pop\n      pop\n      pop\n      pop\n      pop\n      swap1\n      dup1\n      0x06\n      add\n      dup1\n      sload\n      tag_262\n      swap1\n      tag_82\n      jump\t// in\n    tag_262:\n      dup1\n      0x1f\n      add\n      0x20\n      dup1\n      swap2\n      div\n      mul\n      0x20\n      add\n      mload(0x40)\n      swap1\n      dup2\n      add\n      0x40\n      mstore\n      dup1\n      swap3\n      swap2\n      swap1\n      dup2\n      dup2\n      mstore\n      0x20\n      add\n      dup3\n      dup1\n      sload\n      tag_263\n      swap1\n      tag_82\n      jump\t// in\n    tag_263:\n      dup1\n      iszero\n      tag_264\n      jumpi\n      dup1\n      0x1f\n      lt\n      tag_265\n      jumpi\n      0x0100\n      dup1\n      dup4\n      sload\n      div\n      mul\n      dup4\n      mstore\n      swap2\n      0x20\n      add\n      swap2\n      jump(tag_264)\n    tag_265:\n      dup3\n      add\n      swap2\n      swap1\n      0x00\n      mstore\n      keccak256(0x00, 0x20)\n      swap1\n    tag_266:\n      dup2\n      sload\n      dup2\n      mstore\n      swap1\n      0x01\n      add\n      swap1\n      0x20\n      add\n      dup1\n      dup4\n      gt\n      tag_266\n      jumpi\n      dup3\n      swap1\n      sub\n      0x1f\n      and\n      dup3\n      add\n      swap2\n    tag_264:\n      pop\n      pop\n      pop\n      pop\n      pop\n      swap1\n      dup1\n      0x07\n      add\n      dup1\n      sload\n      tag_267\n      swap1\n      tag_82\n      jump\t// in\n    tag_267:\n      dup1\n      0x1f\n      add\n      0x20\n      dup1\n      swap2\n      div\n      mul\n      0x20\n      add\n      mload(0x40)\n      swap1\n      dup2\n      add\n      0x40\n      mstore\n      dup1\n      swap3\n      swap2\n      swap1\n      dup2\n      dup2\n      mstore\n      0x20\n      add\n      dup3\n      dup1\n      sload\n      tag_268\n      swap1\n      tag_82\n      jump\t// in\n    tag_268:\n      dup1\n      iszero\n      tag_269\n      jumpi\n      dup1\n      0x1f\n      lt\n      tag_270\n      jumpi\n      0x0100\n      dup1\n      dup4\n      sload\n      div\n      mul\n      dup4\n      mstore\n      swap2\n      0x20\n      add\n      swap2\n      jump(tag_269)\n    tag_270:\n      dup3\n      add\n      swap2\n      swap1\n      0x00\n      mstore\n      keccak256(0x00, 0x20)\n      swap1\n    tag_271:\n      dup2\n      sload\n      dup2\n      mstore\n      swap1\n      0x01\n      add\n      swap1\n      0x20\n      add\n      dup1\n      dup4\n      gt\n      tag_271\n      jumpi\n      dup3\n      swap1\n      sub\n      0x1f\n      and\n      dup3\n      add\n      swap2\n    tag_269:\n      pop\n      pop\n      pop\n      pop\n      pop\n      swap1\n      dup1\n      0x08\n      add\n      dup1\n      sload\n      tag_272\n      swap1\n      tag_82\n      jump\t// in\n    tag_272:\n      dup1\n      0x1f\n      add\n      0x20\n      dup1\n      swap2\n      div\n      mul\n      0x20\n      add\n      mload(0x40)\n      swap1\n      dup2\n      add\n      0x40\n      mstore\n      dup1\n      swap3\n      swap2\n      swap1\n      dup2\n      dup2\n      mstore\n      0x20\n      add\n      dup3\n      dup1\n      sload\n      tag_273\n      swap1\n      tag_82\n      jump\t// in\n    tag_273:\n      dup1\n      iszero\n      tag_274\n      jumpi\n      dup1\n      0x1f\n      lt\n      tag_275\n      jumpi\n      0x0100\n      dup1\n      dup4\n      sload\n      div\n      mul\n      dup4\n      mstore\n      swap2\n      0x20\n      add\n      swap2\n      jump(tag_274)\n    tag_275:\n      dup3\n      add\n      swap2\n      swap1\n      0x00\n      mstore\n      keccak256(0x00, 0x20)\n      swap1\n    tag_276:\n      dup2\n      sload\n      dup2\n      mstore\n      swap1\n      0x01\n      add\n      swap1\n      0x20\n      add\n      dup1\n      dup4\n      gt\n      tag_276\n      jumpi\n      dup3\n      swap1\n      sub\n      0x1f\n      and\n      dup3\n      add\n      swap2\n    tag_274:\n      pop\n      pop\n      pop\n      pop\n      pop\n      swap1\n      dup1\n      0x09\n      add\n      0x00\n      swap1\n      sload\n      swap1\n      0x0100\n      exp\n      swap1\n      div\n      0xff\n      and\n      swap1\n      pop\n      dup11\n      jump\t// out\n    tag_58:\n      mload(0x40)\n      dup1\n      0x80\n      add\n      0x40\n      mstore\n      dup1\n      and(0xffffffffffffffffffffffffffffffffffffffff, 0x00)\n      dup2\n      mstore\n      0x20\n      add\n      0x60\n      dup2\n      mstore\n      0x20\n      add\n      0x00\n      dup2\n      mstore\n      0x20\n      add\n      0x60\n      dup2\n      mstore\n      pop\n      swap1\n      jump\t// out\n    tag_63:\n      mload(0x40)\n      dup1\n      0x0140\n      add\n      0x40\n      mstore\n      dup1\n      and(0xffffffffffffffffffffffffffffffffffffffff, 0x00)\n      dup2\n      mstore\n      0x20\n      add\n      0x60\n      dup2\n      mstore\n      0x20\n      add\n      0x60\n      dup2\n      mstore\n      0x20\n      add\n      0x60\n      dup2\n      mstore\n      0x20\n      add\n      0x60\n      dup2\n      mstore\n      0x20\n      add\n      0x60\n      dup2\n      mstore\n      0x20\n      add\n      0x60\n      dup2\n      mstore\n      0x20\n      add\n      0x60\n      dup2\n      mstore\n      0x20\n      add\n      0x60\n      dup2\n      mstore\n      0x20\n      add\n      iszero(iszero(0x00))\n      dup2\n      mstore\n      pop\n      swap1\n      jump\t// out\n    tag_132:\n      mload(0x40)\n      dup1\n      0x0100\n      add\n      0x40\n      mstore\n      dup1\n      and(0xffffffffffffffffffffffffffffffffffffffff, 0x00)\n      dup2\n      mstore\n      0x20\n      add\n      0x60\n      dup2\n      mstore\n      0x20\n      add\n      0x00\n      dup2\n      mstore\n      0x20\n      add\n      0x60\n      dup2\n      mstore\n      0x20\n      add\n      0x60\n      dup2\n      mstore\n      0x20\n      add\n      0x60\n      dup2\n      mstore\n      0x20\n      add\n      0x60\n      dup2\n      mstore\n      0x20\n      add\n      0x60\n      dup2\n      mstore\n      pop\n      swap1\n      jump\t// out\n        /* \"#utility.yul\":7:82   */\n    tag_277:\n        /* \"#utility.yul\":40:46   */\n      0x00\n        /* \"#utility.yul\":73:75   */\n      0x40\n        /* \"#utility.yul\":67:76   */\n      mload\n        /* \"#utility.yul\":57:76   */\n      swap1\n      pop\n        /* \"#utility.yul\":7:82   */\n      swap1\n      jump\t// out\n        /* \"#utility.yul\":88:205   */\n    tag_278:\n        /* \"#utility.yul\":197:198   */\n      0x00\n        /* \"#utility.yul\":194:195   */\n      dup1\n        /* \"#utility.yul\":187:199   */\n      revert\n        /* \"#utility.yul\":211:328   */\n    tag_279:\n        /* \"#utility.yul\":320:321   */\n      0x00\n        /* \"#utility.yul\":317:318   */\n      dup1\n        /* \"#utility.yul\":310:322   */\n      revert\n        /* \"#utility.yul\":334:460   */\n    tag_280:\n        /* \"#utility.yul\":371:378   */\n      0x00\n        /* \"#utility.yul\":411:453   */\n      0xffffffffffffffffffffffffffffffffffffffff\n        /* \"#utility.yul\":404:409   */\n      dup3\n        /* \"#utility.yul\":400:454   */\n      and\n        /* \"#utility.yul\":389:454   */\n      swap1\n      pop\n        /* \"#utility.yul\":334:460   */\n      swap2\n      swap1\n      pop\n      jump\t// out\n        /* \"#utility.yul\":466:562   */\n    tag_281:\n        /* \"#utility.yul\":503:510   */\n      0x00\n        /* \"#utility.yul\":532:556   */\n      tag_342\n        /* \"#utility.yul\":550:555   */\n      dup3\n        /* \"#utility.yul\":532:556   */\n      tag_280\n      jump\t// in\n    tag_342:\n        /* \"#utility.yul\":521:556   */\n      swap1\n      pop\n        /* \"#utility.yul\":466:562   */\n      swap2\n      swap1\n      pop\n      jump\t// out\n        /* \"#utility.yul\":568:690   */\n    tag_282:\n        /* \"#utility.yul\":641:665   */\n      tag_344\n        /* \"#utility.yul\":659:664   */\n      dup2\n        /* \"#utility.yul\":641:665   */\n      tag_281\n      jump\t// in\n    tag_344:\n        /* \"#utility.yul\":634:639   */\n      dup2\n        /* \"#utility.yul\":631:666   */\n      eq\n        /* \"#utility.yul\":621:684   */\n      tag_345\n      jumpi\n        /* \"#utility.yul\":680:681   */\n      0x00\n        /* \"#utility.yul\":677:678   */\n      dup1\n        /* \"#utility.yul\":670:682   */\n      revert\n        /* \"#utility.yul\":621:684   */\n    tag_345:\n        /* \"#utility.yul\":568:690   */\n      pop\n      jump\t// out\n        /* \"#utility.yul\":696:835   */\n    tag_283:\n        /* \"#utility.yul\":742:747   */\n      0x00\n        /* \"#utility.yul\":780:786   */\n      dup2\n        /* \"#utility.yul\":767:787   */\n      calldataload\n        /* \"#utility.yul\":758:787   */\n      swap1\n      pop\n        /* \"#utility.yul\":796:829   */\n      tag_347\n        /* \"#utility.yul\":823:828   */\n      dup2\n        /* \"#utility.yul\":796:829   */\n      tag_282\n      jump\t// in\n    tag_347:\n        /* \"#utility.yul\":696:835   */\n      swap3\n      swap2\n      pop\n      pop\n      jump\t// out\n        /* \"#utility.yul\":841:1170   */\n    tag_16:\n        /* \"#utility.yul\":900:906   */\n      0x00\n        /* \"#utility.yul\":949:951   */\n      0x20\n        /* \"#utility.yul\":937:946   */\n      dup3\n        /* \"#utility.yul\":928:935   */\n      dup5\n        /* \"#utility.yul\":924:947   */\n      sub\n        /* \"#utility.yul\":920:952   */\n      slt\n        /* \"#utility.yul\":917:1036   */\n      iszero\n      tag_349\n      jumpi\n        /* \"#utility.yul\":955:1034   */\n      tag_350\n      tag_278\n      jump\t// in\n    tag_350:\n        /* \"#utility.yul\":917:1036   */\n    tag_349:\n        /* \"#utility.yul\":1075:1076   */\n      0x00\n        /* \"#utility.yul\":1100:1153   */\n      tag_351\n        /* \"#utility.yul\":1145:1152   */\n      dup5\n        /* \"#utility.yul\":1136:1142   */\n      dup3\n        /* \"#utility.yul\":1125:1134   */\n      dup6\n        /* \"#utility.yul\":1121:1143   */\n      add\n        /* \"#utility.yul\":1100:1153   */\n      tag_283\n      jump\t// in\n    tag_351:\n        /* \"#utility.yul\":1090:1153   */\n      swap2\n      pop\n        /* \"#utility.yul\":1046:1163   */\n      pop\n        /* \"#utility.yul\":841:1170   */\n      swap3\n      swap2\n      pop\n      pop\n      jump\t// out\n        /* \"#utility.yul\":1176:1293   */\n    tag_284:\n        /* \"#utility.yul\":1285:1286   */\n      0x00\n        /* \"#utility.yul\":1282:1283   */\n      dup1\n        /* \"#utility.yul\":1275:1287   */\n      revert\n        /* \"#utility.yul\":1299:1401   */\n    tag_285:\n        /* \"#utility.yul\":1340:1346   */\n      0x00\n        /* \"#utility.yul\":1391:1393   */\n      0x1f\n        /* \"#utility.yul\":1387:1394   */\n      not\n        /* \"#utility.yul\":1382:1384   */\n      0x1f\n        /* \"#utility.yul\":1375:1380   */\n      dup4\n        /* \"#utility.yul\":1371:1385   */\n      add\n        /* \"#utility.yul\":1367:1395   */\n      and\n        /* \"#utility.yul\":1357:1395   */\n      swap1\n      pop\n        /* \"#utility.yul\":1299:1401   */\n      swap2\n      swap1\n      pop\n      jump\t// out\n        /* \"#utility.yul\":1407:1587   */\n    tag_286:\n        /* \"#utility.yul\":1455:1532   */\n      0x4e487b7100000000000000000000000000000000000000000000000000000000\n        /* \"#utility.yul\":1452:1453   */\n      0x00\n        /* \"#utility.yul\":1445:1533   */\n      mstore\n        /* \"#utility.yul\":1552:1556   */\n      0x41\n        /* \"#utility.yul\":1549:1550   */\n      0x04\n        /* \"#utility.yul\":1542:1557   */\n      mstore\n        /* \"#utility.yul\":1576:1580   */\n      0x24\n        /* \"#utility.yul\":1573:1574   */\n      0x00\n        /* \"#utility.yul\":1566:1581   */\n      revert\n        /* \"#utility.yul\":1593:1874   */\n    tag_287:\n        /* \"#utility.yul\":1676:1703   */\n      tag_356\n        /* \"#utility.yul\":1698:1702   */\n      dup3\n        /* \"#utility.yul\":1676:1703   */\n      tag_285\n      jump\t// in\n    tag_356:\n        /* \"#utility.yul\":1668:1674   */\n      dup2\n        /* \"#utility.yul\":1664:1704   */\n      add\n        /* \"#utility.yul\":1806:1812   */\n      dup2\n        /* \"#utility.yul\":1794:1804   */\n      dup2\n        /* \"#utility.yul\":1791:1813   */\n      lt\n        /* \"#utility.yul\":1770:1788   */\n      0xffffffffffffffff\n        /* \"#utility.yul\":1758:1768   */\n      dup3\n        /* \"#utility.yul\":1755:1789   */\n      gt\n        /* \"#utility.yul\":1752:1814   */\n      or\n        /* \"#utility.yul\":1749:1837   */\n      iszero\n      tag_357\n      jumpi\n        /* \"#utility.yul\":1817:1835   */\n      tag_358\n      tag_286\n      jump\t// in\n    tag_358:\n        /* \"#utility.yul\":1749:1837   */\n    tag_357:\n        /* \"#utility.yul\":1857:1867   */\n      dup1\n        /* \"#utility.yul\":1853:1855   */\n      0x40\n        /* \"#utility.yul\":1846:1868   */\n      mstore\n        /* \"#utility.yul\":1636:1874   */\n      pop\n        /* \"#utility.yul\":1593:1874   */\n      pop\n      pop\n      jump\t// out\n        /* \"#utility.yul\":1880:2009   */\n    tag_288:\n        /* \"#utility.yul\":1914:1920   */\n      0x00\n        /* \"#utility.yul\":1941:1961   */\n      tag_360\n      tag_277\n      jump\t// in\n    tag_360:\n        /* \"#utility.yul\":1931:1961   */\n      swap1\n      pop\n        /* \"#utility.yul\":1970:2003   */\n      tag_361\n        /* \"#utility.yul\":1998:2002   */\n      dup3\n        /* \"#utility.yul\":1990:1996   */\n      dup3\n        /* \"#utility.yul\":1970:2003   */\n      tag_287\n      jump\t// in\n    tag_361:\n        /* \"#utility.yul\":1880:2009   */\n      swap2\n      swap1\n      pop\n      jump\t// out\n        /* \"#utility.yul\":2015:2132   */\n    tag_289:\n        /* \"#utility.yul\":2124:2125   */\n      0x00\n        /* \"#utility.yul\":2121:2122   */\n      dup1\n        /* \"#utility.yul\":2114:2126   */\n      revert\n        /* \"#utility.yul\":2138:2255   */\n    tag_290:\n        /* \"#utility.yul\":2247:2248   */\n      0x00\n        /* \"#utility.yul\":2244:2245   */\n      dup1\n        /* \"#utility.yul\":2237:2249   */\n      revert\n        /* \"#utility.yul\":2261:2378   */\n    tag_291:\n        /* \"#utility.yul\":2370:2371   */\n      0x00\n        /* \"#utility.yul\":2367:2368   */\n      dup1\n        /* \"#utility.yul\":2360:2372   */\n      revert\n        /* \"#utility.yul\":2384:2692   */\n    tag_292:\n        /* \"#utility.yul\":2446:2450   */\n      0x00\n        /* \"#utility.yul\":2536:2554   */\n      0xffffffffffffffff\n        /* \"#utility.yul\":2528:2534   */\n      dup3\n        /* \"#utility.yul\":2525:2555   */\n      gt\n        /* \"#utility.yul\":2522:2578   */\n      iszero\n      tag_366\n      jumpi\n        /* \"#utility.yul\":2558:2576   */\n      tag_367\n      tag_286\n      jump\t// in\n    tag_367:\n        /* \"#utility.yul\":2522:2578   */\n    tag_366:\n        /* \"#utility.yul\":2596:2625   */\n      tag_368\n        /* \"#utility.yul\":2618:2624   */\n      dup3\n        /* \"#utility.yul\":2596:2625   */\n      tag_285\n      jump\t// in\n    tag_368:\n        /* \"#utility.yul\":2588:2625   */\n      swap1\n      pop\n        /* \"#utility.yul\":2680:2684   */\n      0x20\n        /* \"#utility.yul\":2674:2678   */\n      dup2\n        /* \"#utility.yul\":2670:2685   */\n      add\n        /* \"#utility.yul\":2662:2685   */\n      swap1\n      pop\n        /* \"#utility.yul\":2384:2692   */\n      swap2\n      swap1\n      pop\n      jump\t// out\n        /* \"#utility.yul\":2698:2844   */\n    tag_293:\n        /* \"#utility.yul\":2795:2801   */\n      dup3\n        /* \"#utility.yul\":2790:2793   */\n      dup2\n        /* \"#utility.yul\":2785:2788   */\n      dup4\n        /* \"#utility.yul\":2772:2802   */\n      calldatacopy\n        /* \"#utility.yul\":2836:2837   */\n      0x00\n        /* \"#utility.yul\":2827:2833   */\n      dup4\n        /* \"#utility.yul\":2822:2825   */\n      dup4\n        /* \"#utility.yul\":2818:2834   */\n      add\n        /* \"#utility.yul\":2811:2838   */\n      mstore\n        /* \"#utility.yul\":2698:2844   */\n      pop\n      pop\n      pop\n      jump\t// out\n        /* \"#utility.yul\":2850:3275   */\n    tag_294:\n        /* \"#utility.yul\":2928:2933   */\n      0x00\n        /* \"#utility.yul\":2953:3019   */\n      tag_371\n        /* \"#utility.yul\":2969:3018   */\n      tag_372\n        /* \"#utility.yul\":3011:3017   */\n      dup5\n        /* \"#utility.yul\":2969:3018   */\n      tag_292\n      jump\t// in\n    tag_372:\n        /* \"#utility.yul\":2953:3019   */\n      tag_288\n      jump\t// in\n    tag_371:\n        /* \"#utility.yul\":2944:3019   */\n      swap1\n      pop\n        /* \"#utility.yul\":3042:3048   */\n      dup3\n        /* \"#utility.yul\":3035:3040   */\n      dup2\n        /* \"#utility.yul\":3028:3049   */\n      mstore\n        /* \"#utility.yul\":3080:3084   */\n      0x20\n        /* \"#utility.yul\":3073:3078   */\n      dup2\n        /* \"#utility.yul\":3069:3085   */\n      add\n        /* \"#utility.yul\":3118:3121   */\n      dup5\n        /* \"#utility.yul\":3109:3115   */\n      dup5\n        /* \"#utility.yul\":3104:3107   */\n      dup5\n        /* \"#utility.yul\":3100:3116   */\n      add\n        /* \"#utility.yul\":3097:3122   */\n      gt\n        /* \"#utility.yul\":3094:3206   */\n      iszero\n      tag_373\n      jumpi\n        /* \"#utility.yul\":3125:3204   */\n      tag_374\n      tag_291\n      jump\t// in\n    tag_374:\n        /* \"#utility.yul\":3094:3206   */\n    tag_373:\n        /* \"#utility.yul\":3215:3269   */\n      tag_375\n        /* \"#utility.yul\":3262:3268   */\n      dup5\n        /* \"#utility.yul\":3257:3260   */\n      dup3\n        /* \"#utility.yul\":3252:3255   */\n      dup6\n        /* \"#utility.yul\":3215:3269   */\n      tag_293\n      jump\t// in\n    tag_375:\n        /* \"#utility.yul\":2934:3275   */\n      pop\n        /* \"#utility.yul\":2850:3275   */\n      swap4\n      swap3\n      pop\n      pop\n      pop\n      jump\t// out\n        /* \"#utility.yul\":3295:3635   */\n    tag_295:\n        /* \"#utility.yul\":3351:3356   */\n      0x00\n        /* \"#utility.yul\":3400:3403   */\n      dup3\n        /* \"#utility.yul\":3393:3397   */\n      0x1f\n        /* \"#utility.yul\":3385:3391   */\n      dup4\n        /* \"#utility.yul\":3381:3398   */\n      add\n        /* \"#utility.yul\":3377:3404   */\n      slt\n        /* \"#utility.yul\":3367:3489   */\n      tag_377\n      jumpi\n        /* \"#utility.yul\":3408:3487   */\n      tag_378\n      tag_290\n      jump\t// in\n    tag_378:\n        /* \"#utility.yul\":3367:3489   */\n    tag_377:\n        /* \"#utility.yul\":3525:3531   */\n      dup2\n        /* \"#utility.yul\":3512:3532   */\n      calldataload\n        /* \"#utility.yul\":3550:3629   */\n      tag_379\n        /* \"#utility.yul\":3625:3628   */\n      dup5\n        /* \"#utility.yul\":3617:3623   */\n      dup3\n        /* \"#utility.yul\":3610:3614   */\n      0x20\n        /* \"#utility.yul\":3602:3608   */\n      dup7\n        /* \"#utility.yul\":3598:3615   */\n      add\n        /* \"#utility.yul\":3550:3629   */\n      tag_294\n      jump\t// in\n    tag_379:\n        /* \"#utility.yul\":3541:3629   */\n      swap2\n      pop\n        /* \"#utility.yul\":3357:3635   */\n      pop\n        /* \"#utility.yul\":3295:3635   */\n      swap3\n      swap2\n      pop\n      pop\n      jump\t// out\n        /* \"#utility.yul\":3641:3718   */\n    tag_296:\n        /* \"#utility.yul\":3678:3685   */\n      0x00\n        /* \"#utility.yul\":3707:3712   */\n      dup2\n        /* \"#utility.yul\":3696:3712   */\n      swap1\n      pop\n        /* \"#utility.yul\":3641:3718   */\n      swap2\n      swap1\n      pop\n      jump\t// out\n        /* \"#utility.yul\":3724:3846   */\n    tag_297:\n        /* \"#utility.yul\":3797:3821   */\n      tag_382\n        /* \"#utility.yul\":3815:3820   */\n      dup2\n        /* \"#utility.yul\":3797:3821   */\n      tag_296\n      jump\t// in\n    tag_382:\n        /* \"#utility.yul\":3790:3795   */\n      dup2\n        /* \"#utility.yul\":3787:3822   */\n      eq\n        /* \"#utility.yul\":3777:3840   */\n      tag_383\n      jumpi\n        /* \"#utility.yul\":3836:3837   */\n      0x00\n        /* \"#utility.yul\":3833:3834   */\n      dup1\n        /* \"#utility.yul\":3826:3838   */\n      revert\n        /* \"#utility.yul\":3777:3840   */\n    tag_383:\n        /* \"#utility.yul\":3724:3846   */\n      pop\n      jump\t// out\n        /* \"#utility.yul\":3852:3991   */\n    tag_298:\n        /* \"#utility.yul\":3898:3903   */\n      0x00\n        /* \"#utility.yul\":3936:3942   */\n      dup2\n        /* \"#utility.yul\":3923:3943   */\n      calldataload\n        /* \"#utility.yul\":3914:3943   */\n      swap1\n      pop\n        /* \"#utility.yul\":3952:3985   */\n      tag_385\n        /* \"#utility.yul\":3979:3984   */\n      dup2\n        /* \"#utility.yul\":3952:3985   */\n      tag_297\n      jump\t// in\n    tag_385:\n        /* \"#utility.yul\":3852:3991   */\n      swap3\n      swap2\n      pop\n      pop\n      jump\t// out\n        /* \"#utility.yul\":4035:5305   */\n    tag_299:\n        /* \"#utility.yul\":4116:4121   */\n      0x00\n        /* \"#utility.yul\":4160:4164   */\n      0x80\n        /* \"#utility.yul\":4148:4157   */\n      dup3\n        /* \"#utility.yul\":4143:4146   */\n      dup5\n        /* \"#utility.yul\":4139:4158   */\n      sub\n        /* \"#utility.yul\":4135:4165   */\n      slt\n        /* \"#utility.yul\":4132:4249   */\n      iszero\n      tag_387\n      jumpi\n        /* \"#utility.yul\":4168:4247   */\n      tag_388\n      tag_284\n      jump\t// in\n    tag_388:\n        /* \"#utility.yul\":4132:4249   */\n    tag_387:\n        /* \"#utility.yul\":4267:4288   */\n      tag_389\n        /* \"#utility.yul\":4283:4287   */\n      0x80\n        /* \"#utility.yul\":4267:4288   */\n      tag_288\n      jump\t// in\n    tag_389:\n        /* \"#utility.yul\":4258:4288   */\n      swap1\n      pop\n        /* \"#utility.yul\":4357:4358   */\n      0x00\n        /* \"#utility.yul\":4397:4446   */\n      tag_390\n        /* \"#utility.yul\":4442:4445   */\n      dup5\n        /* \"#utility.yul\":4433:4439   */\n      dup3\n        /* \"#utility.yul\":4422:4431   */\n      dup6\n        /* \"#utility.yul\":4418:4440   */\n      add\n        /* \"#utility.yul\":4397:4446   */\n      tag_283\n      jump\t// in\n    tag_390:\n        /* \"#utility.yul\":4390:4394   */\n      0x00\n        /* \"#utility.yul\":4383:4388   */\n      dup4\n        /* \"#utility.yul\":4379:4395   */\n      add\n        /* \"#utility.yul\":4372:4447   */\n      mstore\n        /* \"#utility.yul\":4298:4458   */\n      pop\n        /* \"#utility.yul\":4553:4555   */\n      0x20\n        /* \"#utility.yul\":4542:4551   */\n      dup3\n        /* \"#utility.yul\":4538:4556   */\n      add\n        /* \"#utility.yul\":4525:4557   */\n      calldataload\n        /* \"#utility.yul\":4584:4602   */\n      0xffffffffffffffff\n        /* \"#utility.yul\":4576:4582   */\n      dup2\n        /* \"#utility.yul\":4573:4603   */\n      gt\n        /* \"#utility.yul\":4570:4687   */\n      iszero\n      tag_391\n      jumpi\n        /* \"#utility.yul\":4606:4685   */\n      tag_392\n      tag_289\n      jump\t// in\n    tag_392:\n        /* \"#utility.yul\":4570:4687   */\n    tag_391:\n        /* \"#utility.yul\":4726:4785   */\n      tag_393\n        /* \"#utility.yul\":4781:4784   */\n      dup5\n        /* \"#utility.yul\":4772:4778   */\n      dup3\n        /* \"#utility.yul\":4761:4770   */\n      dup6\n        /* \"#utility.yul\":4757:4779   */\n      add\n        /* \"#utility.yul\":4726:4785   */\n      tag_295\n      jump\t// in\n    tag_393:\n        /* \"#utility.yul\":4719:4723   */\n      0x20\n        /* \"#utility.yul\":4712:4717   */\n      dup4\n        /* \"#utility.yul\":4708:4724   */\n      add\n        /* \"#utility.yul\":4701:4786   */\n      mstore\n        /* \"#utility.yul\":4468:4797   */\n      pop\n        /* \"#utility.yul\":4856:4858   */\n      0x40\n        /* \"#utility.yul\":4897:4946   */\n      tag_394\n        /* \"#utility.yul\":4942:4945   */\n      dup5\n        /* \"#utility.yul\":4933:4939   */\n      dup3\n        /* \"#utility.yul\":4922:4931   */\n      dup6\n        /* \"#utility.yul\":4918:4940   */\n      add\n        /* \"#utility.yul\":4897:4946   */\n      tag_298\n      jump\t// in\n    tag_394:\n        /* \"#utility.yul\":4890:4894   */\n      0x40\n        /* \"#utility.yul\":4883:4888   */\n      dup4\n        /* \"#utility.yul\":4879:4895   */\n      add\n        /* \"#utility.yul\":4872:4947   */\n      mstore\n        /* \"#utility.yul\":4807:4958   */\n      pop\n        /* \"#utility.yul\":5054:5056   */\n      0x60\n        /* \"#utility.yul\":5043:5052   */\n      dup3\n        /* \"#utility.yul\":5039:5057   */\n      add\n        /* \"#utility.yul\":5026:5058   */\n      calldataload\n        /* \"#utility.yul\":5085:5103   */\n      0xffffffffffffffff\n        /* \"#utility.yul\":5077:5083   */\n      dup2\n        /* \"#utility.yul\":5074:5104   */\n      gt\n        /* \"#utility.yul\":5071:5188   */\n      iszero\n      tag_395\n      jumpi\n        /* \"#utility.yul\":5107:5186   */\n      tag_396\n      tag_289\n      jump\t// in\n    tag_396:\n        /* \"#utility.yul\":5071:5188   */\n    tag_395:\n        /* \"#utility.yul\":5227:5286   */\n      tag_397\n        /* \"#utility.yul\":5282:5285   */\n      dup5\n        /* \"#utility.yul\":5273:5279   */\n      dup3\n        /* \"#utility.yul\":5262:5271   */\n      dup6\n        /* \"#utility.yul\":5258:5280   */\n      add\n        /* \"#utility.yul\":5227:5286   */\n      tag_295\n      jump\t// in\n    tag_397:\n        /* \"#utility.yul\":5220:5224   */\n      0x60\n        /* \"#utility.yul\":5213:5218   */\n      dup4\n        /* \"#utility.yul\":5209:5225   */\n      add\n        /* \"#utility.yul\":5202:5287   */\n      mstore\n        /* \"#utility.yul\":4968:5298   */\n      pop\n        /* \"#utility.yul\":4035:5305   */\n      swap3\n      swap2\n      pop\n      pop\n      jump\t// out\n        /* \"#utility.yul\":5311:5401   */\n    tag_300:\n        /* \"#utility.yul\":5345:5352   */\n      0x00\n        /* \"#utility.yul\":5388:5393   */\n      dup2\n        /* \"#utility.yul\":5381:5394   */\n      iszero\n        /* \"#utility.yul\":5374:5395   */\n      iszero\n        /* \"#utility.yul\":5363:5395   */\n      swap1\n      pop\n        /* \"#utility.yul\":5311:5401   */\n      swap2\n      swap1\n      pop\n      jump\t// out\n        /* \"#utility.yul\":5407:5523   */\n    tag_301:\n        /* \"#utility.yul\":5477:5498   */\n      tag_400\n        /* \"#utility.yul\":5492:5497   */\n      dup2\n        /* \"#utility.yul\":5477:5498   */\n      tag_300\n      jump\t// in\n    tag_400:\n        /* \"#utility.yul\":5470:5475   */\n      dup2\n        /* \"#utility.yul\":5467:5499   */\n      eq\n        /* \"#utility.yul\":5457:5517   */\n      tag_401\n      jumpi\n        /* \"#utility.yul\":5513:5514   */\n      0x00\n        /* \"#utility.yul\":5510:5511   */\n      dup1\n        /* \"#utility.yul\":5503:5515   */\n      revert\n        /* \"#utility.yul\":5457:5517   */\n    tag_401:\n        /* \"#utility.yul\":5407:5523   */\n      pop\n      jump\t// out\n        /* \"#utility.yul\":5529:5662   */\n    tag_302:\n        /* \"#utility.yul\":5572:5577   */\n      0x00\n        /* \"#utility.yul\":5610:5616   */\n      dup2\n        /* \"#utility.yul\":5597:5617   */\n      calldataload\n        /* \"#utility.yul\":5588:5617   */\n      swap1\n      pop\n        /* \"#utility.yul\":5626:5656   */\n      tag_403\n        /* \"#utility.yul\":5650:5655   */\n      dup2\n        /* \"#utility.yul\":5626:5656   */\n      tag_301\n      jump\t// in\n    tag_403:\n        /* \"#utility.yul\":5529:5662   */\n      swap3\n      swap2\n      pop\n      pop\n      jump\t// out\n        /* \"#utility.yul\":5701:8985   */\n    tag_303:\n        /* \"#utility.yul\":5777:5782   */\n      0x00\n        /* \"#utility.yul\":5821:5827   */\n      0x0140\n        /* \"#utility.yul\":5809:5818   */\n      dup3\n        /* \"#utility.yul\":5804:5807   */\n      dup5\n        /* \"#utility.yul\":5800:5819   */\n      sub\n        /* \"#utility.yul\":5796:5828   */\n      slt\n        /* \"#utility.yul\":5793:5912   */\n      iszero\n      tag_405\n      jumpi\n        /* \"#utility.yul\":5831:5910   */\n      tag_406\n      tag_284\n      jump\t// in\n    tag_406:\n        /* \"#utility.yul\":5793:5912   */\n    tag_405:\n        /* \"#utility.yul\":5930:5953   */\n      tag_407\n        /* \"#utility.yul\":5946:5952   */\n      0x0140\n        /* \"#utility.yul\":5930:5953   */\n      tag_288\n      jump\t// in\n    tag_407:\n        /* \"#utility.yul\":5921:5953   */\n      swap1\n      pop\n        /* \"#utility.yul\":6023:6024   */\n      0x00\n        /* \"#utility.yul\":6063:6112   */\n      tag_408\n        /* \"#utility.yul\":6108:6111   */\n      dup5\n        /* \"#utility.yul\":6099:6105   */\n      dup3\n        /* \"#utility.yul\":6088:6097   */\n      dup6\n        /* \"#utility.yul\":6084:6106   */\n      add\n        /* \"#utility.yul\":6063:6112   */\n      tag_283\n      jump\t// in\n    tag_408:\n        /* \"#utility.yul\":6056:6060   */\n      0x00\n        /* \"#utility.yul\":6049:6054   */\n      dup4\n        /* \"#utility.yul\":6045:6061   */\n      add\n        /* \"#utility.yul\":6038:6113   */\n      mstore\n        /* \"#utility.yul\":5963:6124   */\n      pop\n        /* \"#utility.yul\":6212:6214   */\n      0x20\n        /* \"#utility.yul\":6201:6210   */\n      dup3\n        /* \"#utility.yul\":6197:6215   */\n      add\n        /* \"#utility.yul\":6184:6216   */\n      calldataload\n        /* \"#utility.yul\":6243:6261   */\n      0xffffffffffffffff\n        /* \"#utility.yul\":6235:6241   */\n      dup2\n        /* \"#utility.yul\":6232:6262   */\n      gt\n        /* \"#utility.yul\":6229:6346   */\n      iszero\n      tag_409\n      jumpi\n        /* \"#utility.yul\":6265:6344   */\n      tag_410\n      tag_289\n      jump\t// in\n    tag_410:\n        /* \"#utility.yul\":6229:6346   */\n    tag_409:\n        /* \"#utility.yul\":6385:6444   */\n      tag_411\n        /* \"#utility.yul\":6440:6443   */\n      dup5\n        /* \"#utility.yul\":6431:6437   */\n      dup3\n        /* \"#utility.yul\":6420:6429   */\n      dup6\n        /* \"#utility.yul\":6416:6438   */\n      add\n        /* \"#utility.yul\":6385:6444   */\n      tag_295\n      jump\t// in\n    tag_411:\n        /* \"#utility.yul\":6378:6382   */\n      0x20\n        /* \"#utility.yul\":6371:6376   */\n      dup4\n        /* \"#utility.yul\":6367:6383   */\n      add\n        /* \"#utility.yul\":6360:6445   */\n      mstore\n        /* \"#utility.yul\":6134:6456   */\n      pop\n        /* \"#utility.yul\":6552:6554   */\n      0x40\n        /* \"#utility.yul\":6541:6550   */\n      dup3\n        /* \"#utility.yul\":6537:6555   */\n      add\n        /* \"#utility.yul\":6524:6556   */\n      calldataload\n        /* \"#utility.yul\":6583:6601   */\n      0xffffffffffffffff\n        /* \"#utility.yul\":6575:6581   */\n      dup2\n        /* \"#utility.yul\":6572:6602   */\n      gt\n        /* \"#utility.yul\":6569:6686   */\n      iszero\n      tag_412\n      jumpi\n        /* \"#utility.yul\":6605:6684   */\n      tag_413\n      tag_289\n      jump\t// in\n    tag_413:\n        /* \"#utility.yul\":6569:6686   */\n    tag_412:\n        /* \"#utility.yul\":6725:6784   */\n      tag_414\n        /* \"#utility.yul\":6780:6783   */\n      dup5\n        /* \"#utility.yul\":6771:6777   */\n      dup3\n        /* \"#utility.yul\":6760:6769   */\n      dup6\n        /* \"#utility.yul\":6756:6778   */\n      add\n        /* \"#utility.yul\":6725:6784   */\n      tag_295\n      jump\t// in\n    tag_414:\n        /* \"#utility.yul\":6718:6722   */\n      0x40\n        /* \"#utility.yul\":6711:6716   */\n      dup4\n        /* \"#utility.yul\":6707:6723   */\n      add\n        /* \"#utility.yul\":6700:6785   */\n      mstore\n        /* \"#utility.yul\":6466:6796   */\n      pop\n        /* \"#utility.yul\":6888:6890   */\n      0x60\n        /* \"#utility.yul\":6877:6886   */\n      dup3\n        /* \"#utility.yul\":6873:6891   */\n      add\n        /* \"#utility.yul\":6860:6892   */\n      calldataload\n        /* \"#utility.yul\":6919:6937   */\n      0xffffffffffffffff\n        /* \"#utility.yul\":6911:6917   */\n      dup2\n        /* \"#utility.yul\":6908:6938   */\n      gt\n        /* \"#utility.yul\":6905:7022   */\n      iszero\n      tag_415\n      jumpi\n        /* \"#utility.yul\":6941:7020   */\n      tag_416\n      tag_289\n      jump\t// in\n    tag_416:\n        /* \"#utility.yul\":6905:7022   */\n    tag_415:\n        /* \"#utility.yul\":7061:7120   */\n      tag_417\n        /* \"#utility.yul\":7116:7119   */\n      dup5\n        /* \"#utility.yul\":7107:7113   */\n      dup3\n        /* \"#utility.yul\":7096:7105   */\n      dup6\n        /* \"#utility.yul\":7092:7114   */\n      add\n        /* \"#utility.yul\":7061:7120   */\n      tag_295\n      jump\t// in\n    tag_417:\n        /* \"#utility.yul\":7054:7058   */\n      0x60\n        /* \"#utility.yul\":7047:7052   */\n      dup4\n        /* \"#utility.yul\":7043:7059   */\n      add\n        /* \"#utility.yul\":7036:7121   */\n      mstore\n        /* \"#utility.yul\":6806:7132   */\n      pop\n        /* \"#utility.yul\":7224:7227   */\n      0x80\n        /* \"#utility.yul\":7213:7222   */\n      dup3\n        /* \"#utility.yul\":7209:7228   */\n      add\n        /* \"#utility.yul\":7196:7229   */\n      calldataload\n        /* \"#utility.yul\":7256:7274   */\n      0xffffffffffffffff\n        /* \"#utility.yul\":7248:7254   */\n      dup2\n        /* \"#utility.yul\":7245:7275   */\n      gt\n        /* \"#utility.yul\":7242:7359   */\n      iszero\n      tag_418\n      jumpi\n        /* \"#utility.yul\":7278:7357   */\n      tag_419\n      tag_289\n      jump\t// in\n    tag_419:\n        /* \"#utility.yul\":7242:7359   */\n    tag_418:\n        /* \"#utility.yul\":7398:7457   */\n      tag_420\n        /* \"#utility.yul\":7453:7456   */\n      dup5\n        /* \"#utility.yul\":7444:7450   */\n      dup3\n        /* \"#utility.yul\":7433:7442   */\n      dup6\n        /* \"#utility.yul\":7429:7451   */\n      add\n        /* \"#utility.yul\":7398:7457   */\n      tag_295\n      jump\t// in\n    tag_420:\n        /* \"#utility.yul\":7391:7395   */\n      0x80\n        /* \"#utility.yul\":7384:7389   */\n      dup4\n        /* \"#utility.yul\":7380:7396   */\n      add\n        /* \"#utility.yul\":7373:7458   */\n      mstore\n        /* \"#utility.yul\":7142:7469   */\n      pop\n        /* \"#utility.yul\":7554:7557   */\n      0xa0\n        /* \"#utility.yul\":7543:7552   */\n      dup3\n        /* \"#utility.yul\":7539:7558   */\n      add\n        /* \"#utility.yul\":7526:7559   */\n      calldataload\n        /* \"#utility.yul\":7586:7604   */\n      0xffffffffffffffff\n        /* \"#utility.yul\":7578:7584   */\n      dup2\n        /* \"#utility.yul\":7575:7605   */\n      gt\n        /* \"#utility.yul\":7572:7689   */\n      iszero\n      tag_421\n      jumpi\n        /* \"#utility.yul\":7608:7687   */\n      tag_422\n      tag_289\n      jump\t// in\n    tag_422:\n        /* \"#utility.yul\":7572:7689   */\n    tag_421:\n        /* \"#utility.yul\":7728:7787   */\n      tag_423\n        /* \"#utility.yul\":7783:7786   */\n      dup5\n        /* \"#utility.yul\":7774:7780   */\n      dup3\n        /* \"#utility.yul\":7763:7772   */\n      dup6\n        /* \"#utility.yul\":7759:7781   */\n      add\n        /* \"#utility.yul\":7728:7787   */\n      tag_295\n      jump\t// in\n    tag_423:\n        /* \"#utility.yul\":7721:7725   */\n      0xa0\n        /* \"#utility.yul\":7714:7719   */\n      dup4\n        /* \"#utility.yul\":7710:7726   */\n      add\n        /* \"#utility.yul\":7703:7788   */\n      mstore\n        /* \"#utility.yul\":7479:7799   */\n      pop\n        /* \"#utility.yul\":7892:7895   */\n      0xc0\n        /* \"#utility.yul\":7881:7890   */\n      dup3\n        /* \"#utility.yul\":7877:7896   */\n      add\n        /* \"#utility.yul\":7864:7897   */\n      calldataload\n        /* \"#utility.yul\":7924:7942   */\n      0xffffffffffffffff\n        /* \"#utility.yul\":7916:7922   */\n      dup2\n        /* \"#utility.yul\":7913:7943   */\n      gt\n        /* \"#utility.yul\":7910:8027   */\n      iszero\n      tag_424\n      jumpi\n        /* \"#utility.yul\":7946:8025   */\n      tag_425\n      tag_289\n      jump\t// in\n    tag_425:\n        /* \"#utility.yul\":7910:8027   */\n    tag_424:\n        /* \"#utility.yul\":8066:8125   */\n      tag_426\n        /* \"#utility.yul\":8121:8124   */\n      dup5\n        /* \"#utility.yul\":8112:8118   */\n      dup3\n        /* \"#utility.yul\":8101:8110   */\n      dup6\n        /* \"#utility.yul\":8097:8119   */\n      add\n        /* \"#utility.yul\":8066:8125   */\n      tag_295\n      jump\t// in\n    tag_426:\n        /* \"#utility.yul\":8059:8063   */\n      0xc0\n        /* \"#utility.yul\":8052:8057   */\n      dup4\n        /* \"#utility.yul\":8048:8064   */\n      add\n        /* \"#utility.yul\":8041:8126   */\n      mstore\n        /* \"#utility.yul\":7809:8137   */\n      pop\n        /* \"#utility.yul\":8228:8231   */\n      0xe0\n        /* \"#utility.yul\":8217:8226   */\n      dup3\n        /* \"#utility.yul\":8213:8232   */\n      add\n        /* \"#utility.yul\":8200:8233   */\n      calldataload\n        /* \"#utility.yul\":8260:8278   */\n      0xffffffffffffffff\n        /* \"#utility.yul\":8252:8258   */\n      dup2\n        /* \"#utility.yul\":8249:8279   */\n      gt\n        /* \"#utility.yul\":8246:8363   */\n      iszero\n      tag_427\n      jumpi\n        /* \"#utility.yul\":8282:8361   */\n      tag_428\n      tag_289\n      jump\t// in\n    tag_428:\n        /* \"#utility.yul\":8246:8363   */\n    tag_427:\n        /* \"#utility.yul\":8402:8461   */\n      tag_429\n        /* \"#utility.yul\":8457:8460   */\n      dup5\n        /* \"#utility.yul\":8448:8454   */\n      dup3\n        /* \"#utility.yul\":8437:8446   */\n      dup6\n        /* \"#utility.yul\":8433:8455   */\n      add\n        /* \"#utility.yul\":8402:8461   */\n      tag_295\n      jump\t// in\n    tag_429:\n        /* \"#utility.yul\":8395:8399   */\n      0xe0\n        /* \"#utility.yul\":8388:8393   */\n      dup4\n        /* \"#utility.yul\":8384:8400   */\n      add\n        /* \"#utility.yul\":8377:8462   */\n      mstore\n        /* \"#utility.yul\":8147:8473   */\n      pop\n        /* \"#utility.yul\":8565:8568   */\n      0x0100\n        /* \"#utility.yul\":8554:8563   */\n      dup3\n        /* \"#utility.yul\":8550:8569   */\n      add\n        /* \"#utility.yul\":8537:8570   */\n      calldataload\n        /* \"#utility.yul\":8597:8615   */\n      0xffffffffffffffff\n        /* \"#utility.yul\":8589:8595   */\n      dup2\n        /* \"#utility.yul\":8586:8616   */\n      gt\n        /* \"#utility.yul\":8583:8700   */\n      iszero\n      tag_430\n      jumpi\n        /* \"#utility.yul\":8619:8698   */\n      tag_431\n      tag_289\n      jump\t// in\n    tag_431:\n        /* \"#utility.yul\":8583:8700   */\n    tag_430:\n        /* \"#utility.yul\":8741:8800   */\n      tag_432\n        /* \"#utility.yul\":8796:8799   */\n      dup5\n        /* \"#utility.yul\":8787:8793   */\n      dup3\n        /* \"#utility.yul\":8776:8785   */\n      dup6\n        /* \"#utility.yul\":8772:8794   */\n      add\n        /* \"#utility.yul\":8741:8800   */\n      tag_295\n      jump\t// in\n    tag_432:\n        /* \"#utility.yul\":8732:8738   */\n      0x0100\n        /* \"#utility.yul\":8725:8730   */\n      dup4\n        /* \"#utility.yul\":8721:8739   */\n      add\n        /* \"#utility.yul\":8714:8801   */\n      mstore\n        /* \"#utility.yul\":8483:8812   */\n      pop\n        /* \"#utility.yul\":8876:8879   */\n      0x0120\n        /* \"#utility.yul\":8920:8966   */\n      tag_433\n        /* \"#utility.yul\":8962:8965   */\n      dup5\n        /* \"#utility.yul\":8953:8959   */\n      dup3\n        /* \"#utility.yul\":8942:8951   */\n      dup6\n        /* \"#utility.yul\":8938:8960   */\n      add\n        /* \"#utility.yul\":8920:8966   */\n      tag_302\n      jump\t// in\n    tag_433:\n        /* \"#utility.yul\":8911:8917   */\n      0x0120\n        /* \"#utility.yul\":8904:8909   */\n      dup4\n        /* \"#utility.yul\":8900:8918   */\n      add\n        /* \"#utility.yul\":8893:8967   */\n      mstore\n        /* \"#utility.yul\":8822:8978   */\n      pop\n        /* \"#utility.yul\":5701:8985   */\n      swap3\n      swap2\n      pop\n      pop\n      jump\t// out\n        /* \"#utility.yul\":8991:9903   */\n    tag_20:\n        /* \"#utility.yul\":9118:9124   */\n      0x00\n        /* \"#utility.yul\":9126:9132   */\n      dup1\n        /* \"#utility.yul\":9175:9177   */\n      0x40\n        /* \"#utility.yul\":9163:9172   */\n      dup4\n        /* \"#utility.yul\":9154:9161   */\n      dup6\n        /* \"#utility.yul\":9150:9173   */\n      sub\n        /* \"#utility.yul\":9146:9178   */\n      slt\n        /* \"#utility.yul\":9143:9262   */\n      iszero\n      tag_435\n      jumpi\n        /* \"#utility.yul\":9181:9260   */\n      tag_436\n      tag_278\n      jump\t// in\n    tag_436:\n        /* \"#utility.yul\":9143:9262   */\n    tag_435:\n        /* \"#utility.yul\":9329:9330   */\n      0x00\n        /* \"#utility.yul\":9318:9327   */\n      dup4\n        /* \"#utility.yul\":9314:9331   */\n      add\n        /* \"#utility.yul\":9301:9332   */\n      calldataload\n        /* \"#utility.yul\":9359:9377   */\n      0xffffffffffffffff\n        /* \"#utility.yul\":9351:9357   */\n      dup2\n        /* \"#utility.yul\":9348:9378   */\n      gt\n        /* \"#utility.yul\":9345:9462   */\n      iszero\n      tag_437\n      jumpi\n        /* \"#utility.yul\":9381:9460   */\n      tag_438\n      tag_279\n      jump\t// in\n    tag_438:\n        /* \"#utility.yul\":9345:9462   */\n    tag_437:\n        /* \"#utility.yul\":9486:9571   */\n      tag_439\n        /* \"#utility.yul\":9563:9570   */\n      dup6\n        /* \"#utility.yul\":9554:9560   */\n      dup3\n        /* \"#utility.yul\":9543:9552   */\n      dup7\n        /* \"#utility.yul\":9539:9561   */\n      add\n        /* \"#utility.yul\":9486:9571   */\n      tag_299\n      jump\t// in\n    tag_439:\n        /* \"#utility.yul\":9476:9571   */\n      swap3\n      pop\n        /* \"#utility.yul\":9272:9581   */\n      pop\n        /* \"#utility.yul\":9648:9650   */\n      0x20\n        /* \"#utility.yul\":9637:9646   */\n      dup4\n        /* \"#utility.yul\":9633:9651   */\n      add\n        /* \"#utility.yul\":9620:9652   */\n      calldataload\n        /* \"#utility.yul\":9679:9697   */\n      0xffffffffffffffff\n        /* \"#utility.yul\":9671:9677   */\n      dup2\n        /* \"#utility.yul\":9668:9698   */\n      gt\n        /* \"#utility.yul\":9665:9782   */\n      iszero\n      tag_440\n      jumpi\n        /* \"#utility.yul\":9701:9780   */\n      tag_441\n      tag_279\n      jump\t// in\n    tag_441:\n        /* \"#utility.yul\":9665:9782   */\n    tag_440:\n        /* \"#utility.yul\":9806:9886   */\n      tag_442\n        /* \"#utility.yul\":9878:9885   */\n      dup6\n        /* \"#utility.yul\":9869:9875   */\n      dup3\n        /* \"#utility.yul\":9858:9867   */\n      dup7\n        /* \"#utility.yul\":9854:9876   */\n      add\n        /* \"#utility.yul\":9806:9886   */\n      tag_303\n      jump\t// in\n    tag_442:\n        /* \"#utility.yul\":9796:9886   */\n      swap2\n      pop\n        /* \"#utility.yul\":9591:9896   */\n      pop\n        /* \"#utility.yul\":8991:9903   */\n      swap3\n      pop\n      swap3\n      swap1\n      pop\n      jump\t// out\n        /* \"#utility.yul\":9909:12338   */\n    tag_24:\n        /* \"#utility.yul\":10091:10097   */\n      0x00\n        /* \"#utility.yul\":10099:10105   */\n      dup1\n        /* \"#utility.yul\":10107:10113   */\n      0x00\n        /* \"#utility.yul\":10115:10121   */\n      dup1\n        /* \"#utility.yul\":10123:10129   */\n      0x00\n        /* \"#utility.yul\":10131:10137   */\n      dup1\n        /* \"#utility.yul\":10139:10145   */\n      0x00\n        /* \"#utility.yul\":10147:10153   */\n      dup1\n        /* \"#utility.yul\":10196:10199   */\n      0x0100\n        /* \"#utility.yul\":10184:10193   */\n      dup10\n        /* \"#utility.yul\":10175:10182   */\n      dup12\n        /* \"#utility.yul\":10171:10194   */\n      sub\n        /* \"#utility.yul\":10167:10200   */\n      slt\n        /* \"#utility.yul\":10164:10284   */\n      iszero\n      tag_444\n      jumpi\n        /* \"#utility.yul\":10203:10282   */\n      tag_445\n      tag_278\n      jump\t// in\n    tag_445:\n        /* \"#utility.yul\":10164:10284   */\n    tag_444:\n        /* \"#utility.yul\":10323:10324   */\n      0x00\n        /* \"#utility.yul\":10348:10401   */\n      tag_446\n        /* \"#utility.yul\":10393:10400   */\n      dup12\n        /* \"#utility.yul\":10384:10390   */\n      dup3\n        /* \"#utility.yul\":10373:10382   */\n      dup13\n        /* \"#utility.yul\":10369:10391   */\n      add\n        /* \"#utility.yul\":10348:10401   */\n      tag_283\n      jump\t// in\n    tag_446:\n        /* \"#utility.yul\":10338:10401   */\n      swap9\n      pop\n        /* \"#utility.yul\":10294:10411   */\n      pop\n        /* \"#utility.yul\":10478:10480   */\n      0x20\n        /* \"#utility.yul\":10467:10476   */\n      dup10\n        /* \"#utility.yul\":10463:10481   */\n      add\n        /* \"#utility.yul\":10450:10482   */\n      calldataload\n        /* \"#utility.yul\":10509:10527   */\n      0xffffffffffffffff\n        /* \"#utility.yul\":10501:10507   */\n      dup2\n        /* \"#utility.yul\":10498:10528   */\n      gt\n        /* \"#utility.yul\":10495:10612   */\n      iszero\n      tag_447\n      jumpi\n        /* \"#utility.yul\":10531:10610   */\n      tag_448\n      tag_279\n      jump\t// in\n    tag_448:\n        /* \"#utility.yul\":10495:10612   */\n    tag_447:\n        /* \"#utility.yul\":10636:10699   */\n      tag_449\n        /* \"#utility.yul\":10691:10698   */\n      dup12\n        /* \"#utility.yul\":10682:10688   */\n      dup3\n        /* \"#utility.yul\":10671:10680   */\n      dup13\n        /* \"#utility.yul\":10667:10689   */\n      add\n        /* \"#utility.yul\":10636:10699   */\n      tag_295\n      jump\t// in\n    tag_449:\n        /* \"#utility.yul\":10626:10699   */\n      swap8\n      pop\n        /* \"#utility.yul\":10421:10709   */\n      pop\n        /* \"#utility.yul\":10748:10750   */\n      0x40\n        /* \"#utility.yul\":10774:10827   */\n      tag_450\n        /* \"#utility.yul\":10819:10826   */\n      dup12\n        /* \"#utility.yul\":10810:10816   */\n      dup3\n        /* \"#utility.yul\":10799:10808   */\n      dup13\n        /* \"#utility.yul\":10795:10817   */\n      add\n        /* \"#utility.yul\":10774:10827   */\n      tag_298\n      jump\t// in\n    tag_450:\n        /* \"#utility.yul\":10764:10827   */\n      swap7\n      pop\n        /* \"#utility.yul\":10719:10837   */\n      pop\n        /* \"#utility.yul\":10904:10906   */\n      0x60\n        /* \"#utility.yul\":10893:10902   */\n      dup10\n        /* \"#utility.yul\":10889:10907   */\n      add\n        /* \"#utility.yul\":10876:10908   */\n      calldataload\n        /* \"#utility.yul\":10935:10953   */\n      0xffffffffffffffff\n        /* \"#utility.yul\":10927:10933   */\n      dup2\n        /* \"#utility.yul\":10924:10954   */\n      gt\n        /* \"#utility.yul\":10921:11038   */\n      iszero\n      tag_451\n      jumpi\n        /* \"#utility.yul\":10957:11036   */\n      tag_452\n      tag_279\n      jump\t// in\n    tag_452:\n        /* \"#utility.yul\":10921:11038   */\n    tag_451:\n        /* \"#utility.yul\":11062:11125   */\n      tag_453\n        /* \"#utility.yul\":11117:11124   */\n      dup12\n        /* \"#utility.yul\":11108:11114   */\n      dup3\n        /* \"#utility.yul\":11097:11106   */\n      dup13\n        /* \"#utility.yul\":11093:11115   */\n      add\n        /* \"#utility.yul\":11062:11125   */\n      tag_295\n      jump\t// in\n    tag_453:\n        /* \"#utility.yul\":11052:11125   */\n      swap6\n      pop\n        /* \"#utility.yul\":10847:11135   */\n      pop\n        /* \"#utility.yul\":11202:11205   */\n      0x80\n        /* \"#utility.yul\":11191:11200   */\n      dup10\n        /* \"#utility.yul\":11187:11206   */\n      add\n        /* \"#utility.yul\":11174:11207   */\n      calldataload\n        /* \"#utility.yul\":11234:11252   */\n      0xffffffffffffffff\n        /* \"#utility.yul\":11226:11232   */\n      dup2\n        /* \"#utility.yul\":11223:11253   */\n      gt\n        /* \"#utility.yul\":11220:11337   */\n      iszero\n      tag_454\n      jumpi\n        /* \"#utility.yul\":11256:11335   */\n      tag_455\n      tag_279\n      jump\t// in\n    tag_455:\n        /* \"#utility.yul\":11220:11337   */\n    tag_454:\n        /* \"#utility.yul\":11361:11424   */\n      tag_456\n        /* \"#utility.yul\":11416:11423   */\n      dup12\n        /* \"#utility.yul\":11407:11413   */\n      dup3\n        /* \"#utility.yul\":11396:11405   */\n      dup13\n        /* \"#utility.yul\":11392:11414   */\n      add\n        /* \"#utility.yul\":11361:11424   */\n      tag_295\n      jump\t// in\n    tag_456:\n        /* \"#utility.yul\":11351:11424   */\n      swap5\n      pop\n        /* \"#utility.yul\":11145:11434   */\n      pop\n        /* \"#utility.yul\":11501:11504   */\n      0xa0\n        /* \"#utility.yul\":11490:11499   */\n      dup10\n        /* \"#utility.yul\":11486:11505   */\n      add\n        /* \"#utility.yul\":11473:11506   */\n      calldataload\n        /* \"#utility.yul\":11533:11551   */\n      0xffffffffffffffff\n        /* \"#utility.yul\":11525:11531   */\n      dup2\n        /* \"#utility.yul\":11522:11552   */\n      gt\n        /* \"#utility.yul\":11519:11636   */\n      iszero\n      tag_457\n      jumpi\n        /* \"#utility.yul\":11555:11634   */\n      tag_458\n      tag_279\n      jump\t// in\n    tag_458:\n        /* \"#utility.yul\":11519:11636   */\n    tag_457:\n        /* \"#utility.yul\":11660:11723   */\n      tag_459\n        /* \"#utility.yul\":11715:11722   */\n      dup12\n        /* \"#utility.yul\":11706:11712   */\n      dup3\n        /* \"#utility.yul\":11695:11704   */\n      dup13\n        /* \"#utility.yul\":11691:11713   */\n      add\n        /* \"#utility.yul\":11660:11723   */\n      tag_295\n      jump\t// in\n    tag_459:\n        /* \"#utility.yul\":11650:11723   */\n      swap4\n      pop\n        /* \"#utility.yul\":11444:11733   */\n      pop\n        /* \"#utility.yul\":11800:11803   */\n      0xc0\n        /* \"#utility.yul\":11789:11798   */\n      dup10\n        /* \"#utility.yul\":11785:11804   */\n      add\n        /* \"#utility.yul\":11772:11805   */\n      calldataload\n        /* \"#utility.yul\":11832:11850   */\n      0xffffffffffffffff\n        /* \"#utility.yul\":11824:11830   */\n      dup2\n        /* \"#utility.yul\":11821:11851   */\n      gt\n        /* \"#utility.yul\":11818:11935   */\n      iszero\n      tag_460\n      jumpi\n        /* \"#utility.yul\":11854:11933   */\n      tag_461\n      tag_279\n      jump\t// in\n    tag_461:\n        /* \"#utility.yul\":11818:11935   */\n    tag_460:\n        /* \"#utility.yul\":11959:12022   */\n      tag_462\n        /* \"#utility.yul\":12014:12021   */\n      dup12\n        /* \"#utility.yul\":12005:12011   */\n      dup3\n        /* \"#utility.yul\":11994:12003   */\n      dup13\n        /* \"#utility.yul\":11990:12012   */\n      add\n        /* \"#utility.yul\":11959:12022   */\n      tag_295\n      jump\t// in\n    tag_462:\n        /* \"#utility.yul\":11949:12022   */\n      swap3\n      pop\n        /* \"#utility.yul\":11743:12032   */\n      pop\n        /* \"#utility.yul\":12099:12102   */\n      0xe0\n        /* \"#utility.yul\":12088:12097   */\n      dup10\n        /* \"#utility.yul\":12084:12103   */\n      add\n        /* \"#utility.yul\":12071:12104   */\n      calldataload\n        /* \"#utility.yul\":12131:12149   */\n      0xffffffffffffffff\n        /* \"#utility.yul\":12123:12129   */\n      dup2\n        /* \"#utility.yul\":12120:12150   */\n      gt\n        /* \"#utility.yul\":12117:12234   */\n      iszero\n      tag_463\n      jumpi\n        /* \"#utility.yul\":12153:12232   */\n      tag_464\n      tag_279\n      jump\t// in\n    tag_464:\n        /* \"#utility.yul\":12117:12234   */\n    tag_463:\n        /* \"#utility.yul\":12258:12321   */\n      tag_465\n        /* \"#utility.yul\":12313:12320   */\n      dup12\n        /* \"#utility.yul\":12304:12310   */\n      dup3\n        /* \"#utility.yul\":12293:12302   */\n      dup13\n        /* \"#utility.yul\":12289:12311   */\n      add\n        /* \"#utility.yul\":12258:12321   */\n      tag_295\n      jump\t// in\n    tag_465:\n        /* \"#utility.yul\":12248:12321   */\n      swap2\n      pop\n        /* \"#utility.yul\":12042:12331   */\n      pop\n        /* \"#utility.yul\":9909:12338   */\n      swap3\n      swap6\n      swap9\n      pop\n      swap3\n      swap6\n      swap9\n      swap1\n      swap4\n      swap7\n      pop\n      jump\t// out\n        /* \"#utility.yul\":12344:12462   */\n    tag_304:\n        /* \"#utility.yul\":12431:12455   */\n      tag_467\n        /* \"#utility.yul\":12449:12454   */\n      dup2\n        /* \"#utility.yul\":12431:12455   */\n      tag_281\n      jump\t// in\n    tag_467:\n        /* \"#utility.yul\":12426:12429   */\n      dup3\n        /* \"#utility.yul\":12419:12456   */\n      mstore\n        /* \"#utility.yul\":12344:12462   */\n      pop\n      pop\n      jump\t// out\n        /* \"#utility.yul\":12468:12567   */\n    tag_305:\n        /* \"#utility.yul\":12520:12526   */\n      0x00\n        /* \"#utility.yul\":12554:12559   */\n      dup2\n        /* \"#utility.yul\":12548:12560   */\n      mload\n        /* \"#utility.yul\":12538:12560   */\n      swap1\n      pop\n        /* \"#utility.yul\":12468:12567   */\n      swap2\n      swap1\n      pop\n      jump\t// out\n        /* \"#utility.yul\":12573:12742   */\n    tag_306:\n        /* \"#utility.yul\":12657:12668   */\n      0x00\n        /* \"#utility.yul\":12691:12697   */\n      dup3\n        /* \"#utility.yul\":12686:12689   */\n      dup3\n        /* \"#utility.yul\":12679:12698   */\n      mstore\n        /* \"#utility.yul\":12731:12735   */\n      0x20\n        /* \"#utility.yul\":12726:12729   */\n      dup3\n        /* \"#utility.yul\":12722:12736   */\n      add\n        /* \"#utility.yul\":12707:12736   */\n      swap1\n      pop\n        /* \"#utility.yul\":12573:12742   */\n      swap3\n      swap2\n      pop\n      pop\n      jump\t// out\n        /* \"#utility.yul\":12748:12994   */\n    tag_307:\n        /* \"#utility.yul\":12829:12830   */\n      0x00\n        /* \"#utility.yul\":12839:12952   */\n    tag_471:\n        /* \"#utility.yul\":12853:12859   */\n      dup4\n        /* \"#utility.yul\":12850:12851   */\n      dup2\n        /* \"#utility.yul\":12847:12860   */\n      lt\n        /* \"#utility.yul\":12839:12952   */\n      iszero\n      tag_473\n      jumpi\n        /* \"#utility.yul\":12938:12939   */\n      dup1\n        /* \"#utility.yul\":12933:12936   */\n      dup3\n        /* \"#utility.yul\":12929:12940   */\n      add\n        /* \"#utility.yul\":12923:12941   */\n      mload\n        /* \"#utility.yul\":12919:12920   */\n      dup2\n        /* \"#utility.yul\":12914:12917   */\n      dup5\n        /* \"#utility.yul\":12910:12921   */\n      add\n        /* \"#utility.yul\":12903:12942   */\n      mstore\n        /* \"#utility.yul\":12875:12877   */\n      0x20\n        /* \"#utility.yul\":12872:12873   */\n      dup2\n        /* \"#utility.yul\":12868:12878   */\n      add\n        /* \"#utility.yul\":12863:12878   */\n      swap1\n      pop\n        /* \"#utility.yul\":12839:12952   */\n      jump(tag_471)\n    tag_473:\n        /* \"#utility.yul\":12986:12987   */\n      0x00\n        /* \"#utility.yul\":12977:12983   */\n      dup5\n        /* \"#utility.yul\":12972:12975   */\n      dup5\n        /* \"#utility.yul\":12968:12984   */\n      add\n        /* \"#utility.yul\":12961:12988   */\n      mstore\n        /* \"#utility.yul\":12810:12994   */\n      pop\n        /* \"#utility.yul\":12748:12994   */\n      pop\n      pop\n      pop\n      jump\t// out\n        /* \"#utility.yul\":13000:13377   */\n    tag_308:\n        /* \"#utility.yul\":13088:13091   */\n      0x00\n        /* \"#utility.yul\":13116:13155   */\n      tag_475\n        /* \"#utility.yul\":13149:13154   */\n      dup3\n        /* \"#utility.yul\":13116:13155   */\n      tag_305\n      jump\t// in\n    tag_475:\n        /* \"#utility.yul\":13171:13242   */\n      tag_476\n        /* \"#utility.yul\":13235:13241   */\n      dup2\n        /* \"#utility.yul\":13230:13233   */\n      dup6\n        /* \"#utility.yul\":13171:13242   */\n      tag_306\n      jump\t// in\n    tag_476:\n        /* \"#utility.yul\":13164:13242   */\n      swap4\n      pop\n        /* \"#utility.yul\":13251:13316   */\n      tag_477\n        /* \"#utility.yul\":13309:13315   */\n      dup2\n        /* \"#utility.yul\":13304:13307   */\n      dup6\n        /* \"#utility.yul\":13297:13301   */\n      0x20\n        /* \"#utility.yul\":13290:13295   */\n      dup7\n        /* \"#utility.yul\":13286:13302   */\n      add\n        /* \"#utility.yul\":13251:13316   */\n      tag_307\n      jump\t// in\n    tag_477:\n        /* \"#utility.yul\":13341:13370   */\n      tag_478\n        /* \"#utility.yul\":13363:13369   */\n      dup2\n        /* \"#utility.yul\":13341:13370   */\n      tag_285\n      jump\t// in\n    tag_478:\n        /* \"#utility.yul\":13336:13339   */\n      dup5\n        /* \"#utility.yul\":13332:13371   */\n      add\n        /* \"#utility.yul\":13325:13371   */\n      swap2\n      pop\n        /* \"#utility.yul\":13092:13377   */\n      pop\n        /* \"#utility.yul\":13000:13377   */\n      swap3\n      swap2\n      pop\n      pop\n      jump\t// out\n        /* \"#utility.yul\":13383:13501   */\n    tag_309:\n        /* \"#utility.yul\":13470:13494   */\n      tag_480\n        /* \"#utility.yul\":13488:13493   */\n      dup2\n        /* \"#utility.yul\":13470:13494   */\n      tag_296\n      jump\t// in\n    tag_480:\n        /* \"#utility.yul\":13465:13468   */\n      dup3\n        /* \"#utility.yul\":13458:13495   */\n      mstore\n        /* \"#utility.yul\":13383:13501   */\n      pop\n      pop\n      jump\t// out\n        /* \"#utility.yul\":13507:14242   */\n    tag_30:\n        /* \"#utility.yul\":13724:13728   */\n      0x00\n        /* \"#utility.yul\":13762:13765   */\n      0x80\n        /* \"#utility.yul\":13751:13760   */\n      dup3\n        /* \"#utility.yul\":13747:13766   */\n      add\n        /* \"#utility.yul\":13739:13766   */\n      swap1\n      pop\n        /* \"#utility.yul\":13776:13847   */\n      tag_482\n        /* \"#utility.yul\":13844:13845   */\n      0x00\n        /* \"#utility.yul\":13833:13842   */\n      dup4\n        /* \"#utility.yul\":13829:13846   */\n      add\n        /* \"#utility.yul\":13820:13826   */\n      dup8\n        /* \"#utility.yul\":13776:13847   */\n      tag_304\n      jump\t// in\n    tag_482:\n        /* \"#utility.yul\":13894:13903   */\n      dup2\n        /* \"#utility.yul\":13888:13892   */\n      dup2\n        /* \"#utility.yul\":13884:13904   */\n      sub\n        /* \"#utility.yul\":13879:13881   */\n      0x20\n        /* \"#utility.yul\":13868:13877   */\n      dup4\n        /* \"#utility.yul\":13864:13882   */\n      add\n        /* \"#utility.yul\":13857:13905   */\n      mstore\n        /* \"#utility.yul\":13922:14000   */\n      tag_483\n        /* \"#utility.yul\":13995:13999   */\n      dup2\n        /* \"#utility.yul\":13986:13992   */\n      dup7\n        /* \"#utility.yul\":13922:14000   */\n      tag_308\n      jump\t// in\n    tag_483:\n        /* \"#utility.yul\":13914:14000   */\n      swap1\n      pop\n        /* \"#utility.yul\":14010:14082   */\n      tag_484\n        /* \"#utility.yul\":14078:14080   */\n      0x40\n        /* \"#utility.yul\":14067:14076   */\n      dup4\n        /* \"#utility.yul\":14063:14081   */\n      add\n        /* \"#utility.yul\":14054:14060   */\n      dup6\n        /* \"#utility.yul\":14010:14082   */\n      tag_309\n      jump\t// in\n    tag_484:\n        /* \"#utility.yul\":14129:14138   */\n      dup2\n        /* \"#utility.yul\":14123:14127   */\n      dup2\n        /* \"#utility.yul\":14119:14139   */\n      sub\n        /* \"#utility.yul\":14114:14116   */\n      0x60\n        /* \"#utility.yul\":14103:14112   */\n      dup4\n        /* \"#utility.yul\":14099:14117   */\n      add\n        /* \"#utility.yul\":14092:14140   */\n      mstore\n        /* \"#utility.yul\":14157:14235   */\n      tag_485\n        /* \"#utility.yul\":14230:14234   */\n      dup2\n        /* \"#utility.yul\":14221:14227   */\n      dup5\n        /* \"#utility.yul\":14157:14235   */\n      tag_308\n      jump\t// in\n    tag_485:\n        /* \"#utility.yul\":14149:14235   */\n      swap1\n      pop\n        /* \"#utility.yul\":13507:14242   */\n      swap6\n      swap5\n      pop\n      pop\n      pop\n      pop\n      pop\n      jump\t// out\n        /* \"#utility.yul\":14248:14356   */\n    tag_310:\n        /* \"#utility.yul\":14325:14349   */\n      tag_487\n        /* \"#utility.yul\":14343:14348   */\n      dup2\n        /* \"#utility.yul\":14325:14349   */\n      tag_281\n      jump\t// in\n    tag_487:\n        /* \"#utility.yul\":14320:14323   */\n      dup3\n        /* \"#utility.yul\":14313:14350   */\n      mstore\n        /* \"#utility.yul\":14248:14356   */\n      pop\n      pop\n      jump\t// out\n        /* \"#utility.yul\":14362:14521   */\n    tag_311:\n        /* \"#utility.yul\":14436:14447   */\n      0x00\n        /* \"#utility.yul\":14470:14476   */\n      dup3\n        /* \"#utility.yul\":14465:14468   */\n      dup3\n        /* \"#utility.yul\":14458:14477   */\n      mstore\n        /* \"#utility.yul\":14510:14514   */\n      0x20\n        /* \"#utility.yul\":14505:14508   */\n      dup3\n        /* \"#utility.yul\":14501:14515   */\n      add\n        /* \"#utility.yul\":14486:14515   */\n      swap1\n      pop\n        /* \"#utility.yul\":14362:14521   */\n      swap3\n      swap2\n      pop\n      pop\n      jump\t// out\n        /* \"#utility.yul\":14527:14884   */\n    tag_312:\n        /* \"#utility.yul\":14605:14608   */\n      0x00\n        /* \"#utility.yul\":14633:14672   */\n      tag_490\n        /* \"#utility.yul\":14666:14671   */\n      dup3\n        /* \"#utility.yul\":14633:14672   */\n      tag_305\n      jump\t// in\n    tag_490:\n        /* \"#utility.yul\":14688:14749   */\n      tag_491\n        /* \"#utility.yul\":14742:14748   */\n      dup2\n        /* \"#utility.yul\":14737:14740   */\n      dup6\n        /* \"#utility.yul\":14688:14749   */\n      tag_311\n      jump\t// in\n    tag_491:\n        /* \"#utility.yul\":14681:14749   */\n      swap4\n      pop\n        /* \"#utility.yul\":14758:14823   */\n      tag_492\n        /* \"#utility.yul\":14816:14822   */\n      dup2\n        /* \"#utility.yul\":14811:14814   */\n      dup6\n        /* \"#utility.yul\":14804:14808   */\n      0x20\n        /* \"#utility.yul\":14797:14802   */\n      dup7\n        /* \"#utility.yul\":14793:14809   */\n      add\n        /* \"#utility.yul\":14758:14823   */\n      tag_307\n      jump\t// in\n    tag_492:\n        /* \"#utility.yul\":14848:14877   */\n      tag_493\n        /* \"#utility.yul\":14870:14876   */\n      dup2\n        /* \"#utility.yul\":14848:14877   */\n      tag_285\n      jump\t// in\n    tag_493:\n        /* \"#utility.yul\":14843:14846   */\n      dup5\n        /* \"#utility.yul\":14839:14878   */\n      add\n        /* \"#utility.yul\":14832:14878   */\n      swap2\n      pop\n        /* \"#utility.yul\":14609:14884   */\n      pop\n        /* \"#utility.yul\":14527:14884   */\n      swap3\n      swap2\n      pop\n      pop\n      jump\t// out\n        /* \"#utility.yul\":14890:14998   */\n    tag_313:\n        /* \"#utility.yul\":14967:14991   */\n      tag_495\n        /* \"#utility.yul\":14985:14990   */\n      dup2\n        /* \"#utility.yul\":14967:14991   */\n      tag_296\n      jump\t// in\n    tag_495:\n        /* \"#utility.yul\":14962:14965   */\n      dup3\n        /* \"#utility.yul\":14955:14992   */\n      mstore\n        /* \"#utility.yul\":14890:14998   */\n      pop\n      pop\n      jump\t// out\n        /* \"#utility.yul\":15068:17137   */\n    tag_314:\n        /* \"#utility.yul\":15193:15196   */\n      0x00\n        /* \"#utility.yul\":15229:15235   */\n      0x0100\n        /* \"#utility.yul\":15224:15227   */\n      dup4\n        /* \"#utility.yul\":15220:15236   */\n      add\n        /* \"#utility.yul\":15328:15332   */\n      0x00\n        /* \"#utility.yul\":15321:15326   */\n      dup4\n        /* \"#utility.yul\":15317:15333   */\n      add\n        /* \"#utility.yul\":15311:15334   */\n      mload\n        /* \"#utility.yul\":15347:15410   */\n      tag_497\n        /* \"#utility.yul\":15404:15408   */\n      0x00\n        /* \"#utility.yul\":15399:15402   */\n      dup7\n        /* \"#utility.yul\":15395:15409   */\n      add\n        /* \"#utility.yul\":15381:15393   */\n      dup3\n        /* \"#utility.yul\":15347:15410   */\n      tag_310\n      jump\t// in\n    tag_497:\n        /* \"#utility.yul\":15246:15420   */\n      pop\n        /* \"#utility.yul\":15510:15514   */\n      0x20\n        /* \"#utility.yul\":15503:15508   */\n      dup4\n        /* \"#utility.yul\":15499:15515   */\n      add\n        /* \"#utility.yul\":15493:15516   */\n      mload\n        /* \"#utility.yul\":15563:15566   */\n      dup5\n        /* \"#utility.yul\":15557:15561   */\n      dup3\n        /* \"#utility.yul\":15553:15567   */\n      sub\n        /* \"#utility.yul\":15546:15550   */\n      0x20\n        /* \"#utility.yul\":15541:15544   */\n      dup7\n        /* \"#utility.yul\":15537:15551   */\n      add\n        /* \"#utility.yul\":15530:15568   */\n      mstore\n        /* \"#utility.yul\":15589:15662   */\n      tag_498\n        /* \"#utility.yul\":15657:15661   */\n      dup3\n        /* \"#utility.yul\":15643:15655   */\n      dup3\n        /* \"#utility.yul\":15589:15662   */\n      tag_312\n      jump\t// in\n    tag_498:\n        /* \"#utility.yul\":15581:15662   */\n      swap2\n      pop\n        /* \"#utility.yul\":15430:15673   */\n      pop\n        /* \"#utility.yul\":15755:15759   */\n      0x40\n        /* \"#utility.yul\":15748:15753   */\n      dup4\n        /* \"#utility.yul\":15744:15760   */\n      add\n        /* \"#utility.yul\":15738:15761   */\n      mload\n        /* \"#utility.yul\":15774:15837   */\n      tag_499\n        /* \"#utility.yul\":15831:15835   */\n      0x40\n        /* \"#utility.yul\":15826:15829   */\n      dup7\n        /* \"#utility.yul\":15822:15836   */\n      add\n        /* \"#utility.yul\":15808:15820   */\n      dup3\n        /* \"#utility.yul\":15774:15837   */\n      tag_313\n      jump\t// in\n    tag_499:\n        /* \"#utility.yul\":15683:15847   */\n      pop\n        /* \"#utility.yul\":15938:15942   */\n      0x60\n        /* \"#utility.yul\":15931:15936   */\n      dup4\n        /* \"#utility.yul\":15927:15943   */\n      add\n        /* \"#utility.yul\":15921:15944   */\n      mload\n        /* \"#utility.yul\":15991:15994   */\n      dup5\n        /* \"#utility.yul\":15985:15989   */\n      dup3\n        /* \"#utility.yul\":15981:15995   */\n      sub\n        /* \"#utility.yul\":15974:15978   */\n      0x60\n        /* \"#utility.yul\":15969:15972   */\n      dup7\n        /* \"#utility.yul\":15965:15979   */\n      add\n        /* \"#utility.yul\":15958:15996   */\n      mstore\n        /* \"#utility.yul\":16017:16090   */\n      tag_500\n        /* \"#utility.yul\":16085:16089   */\n      dup3\n        /* \"#utility.yul\":16071:16083   */\n      dup3\n        /* \"#utility.yul\":16017:16090   */\n      tag_312\n      jump\t// in\n    tag_500:\n        /* \"#utility.yul\":16009:16090   */\n      swap2\n      pop\n        /* \"#utility.yul\":15857:16101   */\n      pop\n        /* \"#utility.yul\":16192:16196   */\n      0x80\n        /* \"#utility.yul\":16185:16190   */\n      dup4\n        /* \"#utility.yul\":16181:16197   */\n      add\n        /* \"#utility.yul\":16175:16198   */\n      mload\n        /* \"#utility.yul\":16245:16248   */\n      dup5\n        /* \"#utility.yul\":16239:16243   */\n      dup3\n        /* \"#utility.yul\":16235:16249   */\n      sub\n        /* \"#utility.yul\":16228:16232   */\n      0x80\n        /* \"#utility.yul\":16223:16226   */\n      dup7\n        /* \"#utility.yul\":16219:16233   */\n      add\n        /* \"#utility.yul\":16212:16250   */\n      mstore\n        /* \"#utility.yul\":16271:16344   */\n      tag_501\n        /* \"#utility.yul\":16339:16343   */\n      dup3\n        /* \"#utility.yul\":16325:16337   */\n      dup3\n        /* \"#utility.yul\":16271:16344   */\n      tag_312\n      jump\t// in\n    tag_501:\n        /* \"#utility.yul\":16263:16344   */\n      swap2\n      pop\n        /* \"#utility.yul\":16111:16355   */\n      pop\n        /* \"#utility.yul\":16447:16451   */\n      0xa0\n        /* \"#utility.yul\":16440:16445   */\n      dup4\n        /* \"#utility.yul\":16436:16452   */\n      add\n        /* \"#utility.yul\":16430:16453   */\n      mload\n        /* \"#utility.yul\":16500:16503   */\n      dup5\n        /* \"#utility.yul\":16494:16498   */\n      dup3\n        /* \"#utility.yul\":16490:16504   */\n      sub\n        /* \"#utility.yul\":16483:16487   */\n      0xa0\n        /* \"#utility.yul\":16478:16481   */\n      dup7\n        /* \"#utility.yul\":16474:16488   */\n      add\n        /* \"#utility.yul\":16467:16505   */\n      mstore\n        /* \"#utility.yul\":16526:16599   */\n      tag_502\n        /* \"#utility.yul\":16594:16598   */\n      dup3\n        /* \"#utility.yul\":16580:16592   */\n      dup3\n        /* \"#utility.yul\":16526:16599   */\n      tag_312\n      jump\t// in\n    tag_502:\n        /* \"#utility.yul\":16518:16599   */\n      swap2\n      pop\n        /* \"#utility.yul\":16365:16610   */\n      pop\n        /* \"#utility.yul\":16697:16701   */\n      0xc0\n        /* \"#utility.yul\":16690:16695   */\n      dup4\n        /* \"#utility.yul\":16686:16702   */\n      add\n        /* \"#utility.yul\":16680:16703   */\n      mload\n        /* \"#utility.yul\":16750:16753   */\n      dup5\n        /* \"#utility.yul\":16744:16748   */\n      dup3\n        /* \"#utility.yul\":16740:16754   */\n      sub\n        /* \"#utility.yul\":16733:16737   */\n      0xc0\n        /* \"#utility.yul\":16728:16731   */\n      dup7\n        /* \"#utility.yul\":16724:16738   */\n      add\n        /* \"#utility.yul\":16717:16755   */\n      mstore\n        /* \"#utility.yul\":16776:16849   */\n      tag_503\n        /* \"#utility.yul\":16844:16848   */\n      dup3\n        /* \"#utility.yul\":16830:16842   */\n      dup3\n        /* \"#utility.yul\":16776:16849   */\n      tag_312\n      jump\t// in\n    tag_503:\n        /* \"#utility.yul\":16768:16849   */\n      swap2\n      pop\n        /* \"#utility.yul\":16620:16860   */\n      pop\n        /* \"#utility.yul\":16947:16951   */\n      0xe0\n        /* \"#utility.yul\":16940:16945   */\n      dup4\n        /* \"#utility.yul\":16936:16952   */\n      add\n        /* \"#utility.yul\":16930:16953   */\n      mload\n        /* \"#utility.yul\":17000:17003   */\n      dup5\n        /* \"#utility.yul\":16994:16998   */\n      dup3\n        /* \"#utility.yul\":16990:17004   */\n      sub\n        /* \"#utility.yul\":16983:16987   */\n      0xe0\n        /* \"#utility.yul\":16978:16981   */\n      dup7\n        /* \"#utility.yul\":16974:16988   */\n      add\n        /* \"#utility.yul\":16967:17005   */\n      mstore\n        /* \"#utility.yul\":17026:17099   */\n      tag_504\n        /* \"#utility.yul\":17094:17098   */\n      dup3\n        /* \"#utility.yul\":17080:17092   */\n      dup3\n        /* \"#utility.yul\":17026:17099   */\n      tag_312\n      jump\t// in\n    tag_504:\n        /* \"#utility.yul\":17018:17099   */\n      swap2\n      pop\n        /* \"#utility.yul\":16870:17110   */\n      pop\n        /* \"#utility.yul\":17127:17131   */\n      dup1\n        /* \"#utility.yul\":17120:17131   */\n      swap2\n      pop\n        /* \"#utility.yul\":15198:17137   */\n      pop\n        /* \"#utility.yul\":15068:17137   */\n      swap3\n      swap2\n      pop\n      pop\n      jump\t// out\n        /* \"#utility.yul\":17143:17528   */\n    tag_35:\n        /* \"#utility.yul\":17292:17296   */\n      0x00\n        /* \"#utility.yul\":17330:17332   */\n      0x20\n        /* \"#utility.yul\":17319:17328   */\n      dup3\n        /* \"#utility.yul\":17315:17333   */\n      add\n        /* \"#utility.yul\":17307:17333   */\n      swap1\n      pop\n        /* \"#utility.yul\":17379:17388   */\n      dup2\n        /* \"#utility.yul\":17373:17377   */\n      dup2\n        /* \"#utility.yul\":17369:17389   */\n      sub\n        /* \"#utility.yul\":17365:17366   */\n      0x00\n        /* \"#utility.yul\":17354:17363   */\n      dup4\n        /* \"#utility.yul\":17350:17367   */\n      add\n        /* \"#utility.yul\":17343:17390   */\n      mstore\n        /* \"#utility.yul\":17407:17521   */\n      tag_506\n        /* \"#utility.yul\":17516:17520   */\n      dup2\n        /* \"#utility.yul\":17507:17513   */\n      dup5\n        /* \"#utility.yul\":17407:17521   */\n      tag_314\n      jump\t// in\n    tag_506:\n        /* \"#utility.yul\":17399:17521   */\n      swap1\n      pop\n        /* \"#utility.yul\":17143:17528   */\n      swap3\n      swap2\n      pop\n      pop\n      jump\t// out\n        /* \"#utility.yul\":17606:18672   */\n    tag_315:\n        /* \"#utility.yul\":17739:17742   */\n      0x00\n        /* \"#utility.yul\":17775:17779   */\n      0x80\n        /* \"#utility.yul\":17770:17773   */\n      dup4\n        /* \"#utility.yul\":17766:17780   */\n      add\n        /* \"#utility.yul\":17872:17876   */\n      0x00\n        /* \"#utility.yul\":17865:17870   */\n      dup4\n        /* \"#utility.yul\":17861:17877   */\n      add\n        /* \"#utility.yul\":17855:17878   */\n      mload\n        /* \"#utility.yul\":17891:17954   */\n      tag_508\n        /* \"#utility.yul\":17948:17952   */\n      0x00\n        /* \"#utility.yul\":17943:17946   */\n      dup7\n        /* \"#utility.yul\":17939:17953   */\n      add\n        /* \"#utility.yul\":17925:17937   */\n      dup3\n        /* \"#utility.yul\":17891:17954   */\n      tag_310\n      jump\t// in\n    tag_508:\n        /* \"#utility.yul\":17790:17964   */\n      pop\n        /* \"#utility.yul\":18054:18058   */\n      0x20\n        /* \"#utility.yul\":18047:18052   */\n      dup4\n        /* \"#utility.yul\":18043:18059   */\n      add\n        /* \"#utility.yul\":18037:18060   */\n      mload\n        /* \"#utility.yul\":18107:18110   */\n      dup5\n        /* \"#utility.yul\":18101:18105   */\n      dup3\n        /* \"#utility.yul\":18097:18111   */\n      sub\n        /* \"#utility.yul\":18090:18094   */\n      0x20\n        /* \"#utility.yul\":18085:18088   */\n      dup7\n        /* \"#utility.yul\":18081:18095   */\n      add\n        /* \"#utility.yul\":18074:18112   */\n      mstore\n        /* \"#utility.yul\":18133:18206   */\n      tag_509\n        /* \"#utility.yul\":18201:18205   */\n      dup3\n        /* \"#utility.yul\":18187:18199   */\n      dup3\n        /* \"#utility.yul\":18133:18206   */\n      tag_312\n      jump\t// in\n    tag_509:\n        /* \"#utility.yul\":18125:18206   */\n      swap2\n      pop\n        /* \"#utility.yul\":17974:18217   */\n      pop\n        /* \"#utility.yul\":18299:18303   */\n      0x40\n        /* \"#utility.yul\":18292:18297   */\n      dup4\n        /* \"#utility.yul\":18288:18304   */\n      add\n        /* \"#utility.yul\":18282:18305   */\n      mload\n        /* \"#utility.yul\":18318:18381   */\n      tag_510\n        /* \"#utility.yul\":18375:18379   */\n      0x40\n        /* \"#utility.yul\":18370:18373   */\n      dup7\n        /* \"#utility.yul\":18366:18380   */\n      add\n        /* \"#utility.yul\":18352:18364   */\n      dup3\n        /* \"#utility.yul\":18318:18381   */\n      tag_313\n      jump\t// in\n    tag_510:\n        /* \"#utility.yul\":18227:18391   */\n      pop\n        /* \"#utility.yul\":18482:18486   */\n      0x60\n        /* \"#utility.yul\":18475:18480   */\n      dup4\n        /* \"#utility.yul\":18471:18487   */\n      add\n        /* \"#utility.yul\":18465:18488   */\n      mload\n        /* \"#utility.yul\":18535:18538   */\n      dup5\n        /* \"#utility.yul\":18529:18533   */\n      dup3\n        /* \"#utility.yul\":18525:18539   */\n      sub\n        /* \"#utility.yul\":18518:18522   */\n      0x60\n        /* \"#utility.yul\":18513:18516   */\n      dup7\n        /* \"#utility.yul\":18509:18523   */\n      add\n        /* \"#utility.yul\":18502:18540   */\n      mstore\n        /* \"#utility.yul\":18561:18634   */\n      tag_511\n        /* \"#utility.yul\":18629:18633   */\n      dup3\n        /* \"#utility.yul\":18615:18627   */\n      dup3\n        /* \"#utility.yul\":18561:18634   */\n      tag_312\n      jump\t// in\n    tag_511:\n        /* \"#utility.yul\":18553:18634   */\n      swap2\n      pop\n        /* \"#utility.yul\":18401:18645   */\n      pop\n        /* \"#utility.yul\":18662:18666   */\n      dup1\n        /* \"#utility.yul\":18655:18666   */\n      swap2\n      pop\n        /* \"#utility.yul\":17744:18672   */\n      pop\n        /* \"#utility.yul\":17606:18672   */\n      swap3\n      swap2\n      pop\n      pop\n      jump\t// out\n        /* \"#utility.yul\":18678:18777   */\n    tag_316:\n        /* \"#utility.yul\":18749:18770   */\n      tag_513\n        /* \"#utility.yul\":18764:18769   */\n      dup2\n        /* \"#utility.yul\":18749:18770   */\n      tag_300\n      jump\t// in\n    tag_513:\n        /* \"#utility.yul\":18744:18747   */\n      dup3\n        /* \"#utility.yul\":18737:18771   */\n      mstore\n        /* \"#utility.yul\":18678:18777   */\n      pop\n      pop\n      jump\t// out\n        /* \"#utility.yul\":18845:21397   */\n    tag_317:\n        /* \"#utility.yul\":18968:18971   */\n      0x00\n        /* \"#utility.yul\":19004:19010   */\n      0x0140\n        /* \"#utility.yul\":18999:19002   */\n      dup4\n        /* \"#utility.yul\":18995:19011   */\n      add\n        /* \"#utility.yul\":19104:19108   */\n      0x00\n        /* \"#utility.yul\":19097:19102   */\n      dup4\n        /* \"#utility.yul\":19093:19109   */\n      add\n        /* \"#utility.yul\":19087:19110   */\n      mload\n        /* \"#utility.yul\":19123:19186   */\n      tag_515\n        /* \"#utility.yul\":19180:19184   */\n      0x00\n        /* \"#utility.yul\":19175:19178   */\n      dup7\n        /* \"#utility.yul\":19171:19185   */\n      add\n        /* \"#utility.yul\":19157:19169   */\n      dup3\n        /* \"#utility.yul\":19123:19186   */\n      tag_310\n      jump\t// in\n    tag_515:\n        /* \"#utility.yul\":19021:19196   */\n      pop\n        /* \"#utility.yul\":19279:19283   */\n      0x20\n        /* \"#utility.yul\":19272:19277   */\n      dup4\n        /* \"#utility.yul\":19268:19284   */\n      add\n        /* \"#utility.yul\":19262:19285   */\n      mload\n        /* \"#utility.yul\":19332:19335   */\n      dup5\n        /* \"#utility.yul\":19326:19330   */\n      dup3\n        /* \"#utility.yul\":19322:19336   */\n      sub\n        /* \"#utility.yul\":19315:19319   */\n      0x20\n        /* \"#utility.yul\":19310:19313   */\n      dup7\n        /* \"#utility.yul\":19306:19320   */\n      add\n        /* \"#utility.yul\":19299:19337   */\n      mstore\n        /* \"#utility.yul\":19358:19431   */\n      tag_516\n        /* \"#utility.yul\":19426:19430   */\n      dup3\n        /* \"#utility.yul\":19412:19424   */\n      dup3\n        /* \"#utility.yul\":19358:19431   */\n      tag_312\n      jump\t// in\n    tag_516:\n        /* \"#utility.yul\":19350:19431   */\n      swap2\n      pop\n        /* \"#utility.yul\":19206:19442   */\n      pop\n        /* \"#utility.yul\":19533:19537   */\n      0x40\n        /* \"#utility.yul\":19526:19531   */\n      dup4\n        /* \"#utility.yul\":19522:19538   */\n      add\n        /* \"#utility.yul\":19516:19539   */\n      mload\n        /* \"#utility.yul\":19586:19589   */\n      dup5\n        /* \"#utility.yul\":19580:19584   */\n      dup3\n        /* \"#utility.yul\":19576:19590   */\n      sub\n        /* \"#utility.yul\":19569:19573   */\n      0x40\n        /* \"#utility.yul\":19564:19567   */\n      dup7\n        /* \"#utility.yul\":19560:19574   */\n      add\n        /* \"#utility.yul\":19553:19591   */\n      mstore\n        /* \"#utility.yul\":19612:19685   */\n      tag_517\n        /* \"#utility.yul\":19680:19684   */\n      dup3\n        /* \"#utility.yul\":19666:19678   */\n      dup3\n        /* \"#utility.yul\":19612:19685   */\n      tag_312\n      jump\t// in\n    tag_517:\n        /* \"#utility.yul\":19604:19685   */\n      swap2\n      pop\n        /* \"#utility.yul\":19452:19696   */\n      pop\n        /* \"#utility.yul\":19783:19787   */\n      0x60\n        /* \"#utility.yul\":19776:19781   */\n      dup4\n        /* \"#utility.yul\":19772:19788   */\n      add\n        /* \"#utility.yul\":19766:19789   */\n      mload\n        /* \"#utility.yul\":19836:19839   */\n      dup5\n        /* \"#utility.yul\":19830:19834   */\n      dup3\n        /* \"#utility.yul\":19826:19840   */\n      sub\n        /* \"#utility.yul\":19819:19823   */\n      0x60\n        /* \"#utility.yul\":19814:19817   */\n      dup7\n        /* \"#utility.yul\":19810:19824   */\n      add\n        /* \"#utility.yul\":19803:19841   */\n      mstore\n        /* \"#utility.yul\":19862:19935   */\n      tag_518\n        /* \"#utility.yul\":19930:19934   */\n      dup3\n        /* \"#utility.yul\":19916:19928   */\n      dup3\n        /* \"#utility.yul\":19862:19935   */\n      tag_312\n      jump\t// in\n    tag_518:\n        /* \"#utility.yul\":19854:19935   */\n      swap2\n      pop\n        /* \"#utility.yul\":19706:19946   */\n      pop\n        /* \"#utility.yul\":20033:20037   */\n      0x80\n        /* \"#utility.yul\":20026:20031   */\n      dup4\n        /* \"#utility.yul\":20022:20038   */\n      add\n        /* \"#utility.yul\":20016:20039   */\n      mload\n        /* \"#utility.yul\":20086:20089   */\n      dup5\n        /* \"#utility.yul\":20080:20084   */\n      dup3\n        /* \"#utility.yul\":20076:20090   */\n      sub\n        /* \"#utility.yul\":20069:20073   */\n      0x80\n        /* \"#utility.yul\":20064:20067   */\n      dup7\n        /* \"#utility.yul\":20060:20074   */\n      add\n        /* \"#utility.yul\":20053:20091   */\n      mstore\n        /* \"#utility.yul\":20112:20185   */\n      tag_519\n        /* \"#utility.yul\":20180:20184   */\n      dup3\n        /* \"#utility.yul\":20166:20178   */\n      dup3\n        /* \"#utility.yul\":20112:20185   */\n      tag_312\n      jump\t// in\n    tag_519:\n        /* \"#utility.yul\":20104:20185   */\n      swap2\n      pop\n        /* \"#utility.yul\":19956:20196   */\n      pop\n        /* \"#utility.yul\":20276:20280   */\n      0xa0\n        /* \"#utility.yul\":20269:20274   */\n      dup4\n        /* \"#utility.yul\":20265:20281   */\n      add\n        /* \"#utility.yul\":20259:20282   */\n      mload\n        /* \"#utility.yul\":20329:20332   */\n      dup5\n        /* \"#utility.yul\":20323:20327   */\n      dup3\n        /* \"#utility.yul\":20319:20333   */\n      sub\n        /* \"#utility.yul\":20312:20316   */\n      0xa0\n        /* \"#utility.yul\":20307:20310   */\n      dup7\n        /* \"#utility.yul\":20303:20317   */\n      add\n        /* \"#utility.yul\":20296:20334   */\n      mstore\n        /* \"#utility.yul\":20355:20428   */\n      tag_520\n        /* \"#utility.yul\":20423:20427   */\n      dup3\n        /* \"#utility.yul\":20409:20421   */\n      dup3\n        /* \"#utility.yul\":20355:20428   */\n      tag_312\n      jump\t// in\n    tag_520:\n        /* \"#utility.yul\":20347:20428   */\n      swap2\n      pop\n        /* \"#utility.yul\":20206:20439   */\n      pop\n        /* \"#utility.yul\":20527:20531   */\n      0xc0\n        /* \"#utility.yul\":20520:20525   */\n      dup4\n        /* \"#utility.yul\":20516:20532   */\n      add\n        /* \"#utility.yul\":20510:20533   */\n      mload\n        /* \"#utility.yul\":20580:20583   */\n      dup5\n        /* \"#utility.yul\":20574:20578   */\n      dup3\n        /* \"#utility.yul\":20570:20584   */\n      sub\n        /* \"#utility.yul\":20563:20567   */\n      0xc0\n        /* \"#utility.yul\":20558:20561   */\n      dup7\n        /* \"#utility.yul\":20554:20568   */\n      add\n        /* \"#utility.yul\":20547:20585   */\n      mstore\n        /* \"#utility.yul\":20606:20679   */\n      tag_521\n        /* \"#utility.yul\":20674:20678   */\n      dup3\n        /* \"#utility.yul\":20660:20672   */\n      dup3\n        /* \"#utility.yul\":20606:20679   */\n      tag_312\n      jump\t// in\n    tag_521:\n        /* \"#utility.yul\":20598:20679   */\n      swap2\n      pop\n        /* \"#utility.yul\":20449:20690   */\n      pop\n        /* \"#utility.yul\":20776:20780   */\n      0xe0\n        /* \"#utility.yul\":20769:20774   */\n      dup4\n        /* \"#utility.yul\":20765:20781   */\n      add\n        /* \"#utility.yul\":20759:20782   */\n      mload\n        /* \"#utility.yul\":20829:20832   */\n      dup5\n        /* \"#utility.yul\":20823:20827   */\n      dup3\n        /* \"#utility.yul\":20819:20833   */\n      sub\n        /* \"#utility.yul\":20812:20816   */\n      0xe0\n        /* \"#utility.yul\":20807:20810   */\n      dup7\n        /* \"#utility.yul\":20803:20817   */\n      add\n        /* \"#utility.yul\":20796:20834   */\n      mstore\n        /* \"#utility.yul\":20855:20928   */\n      tag_522\n        /* \"#utility.yul\":20923:20927   */\n      dup3\n        /* \"#utility.yul\":20909:20921   */\n      dup3\n        /* \"#utility.yul\":20855:20928   */\n      tag_312\n      jump\t// in\n    tag_522:\n        /* \"#utility.yul\":20847:20928   */\n      swap2\n      pop\n        /* \"#utility.yul\":20700:20939   */\n      pop\n        /* \"#utility.yul\":21026:21032   */\n      0x0100\n        /* \"#utility.yul\":21019:21024   */\n      dup4\n        /* \"#utility.yul\":21015:21033   */\n      add\n        /* \"#utility.yul\":21009:21034   */\n      mload\n        /* \"#utility.yul\":21083:21086   */\n      dup5\n        /* \"#utility.yul\":21077:21081   */\n      dup3\n        /* \"#utility.yul\":21073:21087   */\n      sub\n        /* \"#utility.yul\":21064:21070   */\n      0x0100\n        /* \"#utility.yul\":21059:21062   */\n      dup7\n        /* \"#utility.yul\":21055:21071   */\n      add\n        /* \"#utility.yul\":21048:21088   */\n      mstore\n        /* \"#utility.yul\":21109:21182   */\n      tag_523\n        /* \"#utility.yul\":21177:21181   */\n      dup3\n        /* \"#utility.yul\":21163:21175   */\n      dup3\n        /* \"#utility.yul\":21109:21182   */\n      tag_312\n      jump\t// in\n    tag_523:\n        /* \"#utility.yul\":21101:21182   */\n      swap2\n      pop\n        /* \"#utility.yul\":20949:21193   */\n      pop\n        /* \"#utility.yul\":21280:21286   */\n      0x0120\n        /* \"#utility.yul\":21273:21278   */\n      dup4\n        /* \"#utility.yul\":21269:21287   */\n      add\n        /* \"#utility.yul\":21263:21288   */\n      mload\n        /* \"#utility.yul\":21301:21360   */\n      tag_524\n        /* \"#utility.yul\":21352:21358   */\n      0x0120\n        /* \"#utility.yul\":21347:21350   */\n      dup7\n        /* \"#utility.yul\":21343:21359   */\n      add\n        /* \"#utility.yul\":21329:21341   */\n      dup3\n        /* \"#utility.yul\":21301:21360   */\n      tag_316\n      jump\t// in\n    tag_524:\n        /* \"#utility.yul\":21203:21370   */\n      pop\n        /* \"#utility.yul\":21387:21391   */\n      dup1\n        /* \"#utility.yul\":21380:21391   */\n      swap2\n      pop\n        /* \"#utility.yul\":18973:21397   */\n      pop\n        /* \"#utility.yul\":18845:21397   */\n      swap3\n      swap2\n      pop\n      pop\n      jump\t// out\n        /* \"#utility.yul\":21403:22073   */\n    tag_49:\n        /* \"#utility.yul\":21642:21646   */\n      0x00\n        /* \"#utility.yul\":21680:21682   */\n      0x40\n        /* \"#utility.yul\":21669:21678   */\n      dup3\n        /* \"#utility.yul\":21665:21683   */\n      add\n        /* \"#utility.yul\":21657:21683   */\n      swap1\n      pop\n        /* \"#utility.yul\":21729:21738   */\n      dup2\n        /* \"#utility.yul\":21723:21727   */\n      dup2\n        /* \"#utility.yul\":21719:21739   */\n      sub\n        /* \"#utility.yul\":21715:21716   */\n      0x00\n        /* \"#utility.yul\":21704:21713   */\n      dup4\n        /* \"#utility.yul\":21700:21717   */\n      add\n        /* \"#utility.yul\":21693:21740   */\n      mstore\n        /* \"#utility.yul\":21757:21879   */\n      tag_526\n        /* \"#utility.yul\":21874:21878   */\n      dup2\n        /* \"#utility.yul\":21865:21871   */\n      dup6\n        /* \"#utility.yul\":21757:21879   */\n      tag_315\n      jump\t// in\n    tag_526:\n        /* \"#utility.yul\":21749:21879   */\n      swap1\n      pop\n        /* \"#utility.yul\":21926:21935   */\n      dup2\n        /* \"#utility.yul\":21920:21924   */\n      dup2\n        /* \"#utility.yul\":21916:21936   */\n      sub\n        /* \"#utility.yul\":21911:21913   */\n      0x20\n        /* \"#utility.yul\":21900:21909   */\n      dup4\n        /* \"#utility.yul\":21896:21914   */\n      add\n        /* \"#utility.yul\":21889:21937   */\n      mstore\n        /* \"#utility.yul\":21954:22066   */\n      tag_527\n        /* \"#utility.yul\":22061:22065   */\n      dup2\n        /* \"#utility.yul\":22052:22058   */\n      dup5\n        /* \"#utility.yul\":21954:22066   */\n      tag_317\n      jump\t// in\n    tag_527:\n        /* \"#utility.yul\":21946:22066   */\n      swap1\n      pop\n        /* \"#utility.yul\":21403:22073   */\n      swap4\n      swap3\n      pop\n      pop\n      pop\n      jump\t// out\n        /* \"#utility.yul\":22079:22188   */\n    tag_318:\n        /* \"#utility.yul\":22160:22181   */\n      tag_529\n        /* \"#utility.yul\":22175:22180   */\n      dup2\n        /* \"#utility.yul\":22160:22181   */\n      tag_300\n      jump\t// in\n    tag_529:\n        /* \"#utility.yul\":22155:22158   */\n      dup3\n        /* \"#utility.yul\":22148:22182   */\n      mstore\n        /* \"#utility.yul\":22079:22188   */\n      pop\n      pop\n      jump\t// out\n        /* \"#utility.yul\":22194:24129   */\n    tag_54:\n        /* \"#utility.yul\":22693:22697   */\n      0x00\n        /* \"#utility.yul\":22731:22734   */\n      0x0140\n        /* \"#utility.yul\":22720:22729   */\n      dup3\n        /* \"#utility.yul\":22716:22735   */\n      add\n        /* \"#utility.yul\":22708:22735   */\n      swap1\n      pop\n        /* \"#utility.yul\":22745:22816   */\n      tag_531\n        /* \"#utility.yul\":22813:22814   */\n      0x00\n        /* \"#utility.yul\":22802:22811   */\n      dup4\n        /* \"#utility.yul\":22798:22815   */\n      add\n        /* \"#utility.yul\":22789:22795   */\n      dup14\n        /* \"#utility.yul\":22745:22816   */\n      tag_304\n      jump\t// in\n    tag_531:\n        /* \"#utility.yul\":22863:22872   */\n      dup2\n        /* \"#utility.yul\":22857:22861   */\n      dup2\n        /* \"#utility.yul\":22853:22873   */\n      sub\n        /* \"#utility.yul\":22848:22850   */\n      0x20\n        /* \"#utility.yul\":22837:22846   */\n      dup4\n        /* \"#utility.yul\":22833:22851   */\n      add\n        /* \"#utility.yul\":22826:22874   */\n      mstore\n        /* \"#utility.yul\":22891:22969   */\n      tag_532\n        /* \"#utility.yul\":22964:22968   */\n      dup2\n        /* \"#utility.yul\":22955:22961   */\n      dup13\n        /* \"#utility.yul\":22891:22969   */\n      tag_308\n      jump\t// in\n    tag_532:\n        /* \"#utility.yul\":22883:22969   */\n      swap1\n      pop\n        /* \"#utility.yul\":23016:23025   */\n      dup2\n        /* \"#utility.yul\":23010:23014   */\n      dup2\n        /* \"#utility.yul\":23006:23026   */\n      sub\n        /* \"#utility.yul\":23001:23003   */\n      0x40\n        /* \"#utility.yul\":22990:22999   */\n      dup4\n        /* \"#utility.yul\":22986:23004   */\n      add\n        /* \"#utility.yul\":22979:23027   */\n      mstore\n        /* \"#utility.yul\":23044:23122   */\n      tag_533\n        /* \"#utility.yul\":23117:23121   */\n      dup2\n        /* \"#utility.yul\":23108:23114   */\n      dup12\n        /* \"#utility.yul\":23044:23122   */\n      tag_308\n      jump\t// in\n    tag_533:\n        /* \"#utility.yul\":23036:23122   */\n      swap1\n      pop\n        /* \"#utility.yul\":23169:23178   */\n      dup2\n        /* \"#utility.yul\":23163:23167   */\n      dup2\n        /* \"#utility.yul\":23159:23179   */\n      sub\n        /* \"#utility.yul\":23154:23156   */\n      0x60\n        /* \"#utility.yul\":23143:23152   */\n      dup4\n        /* \"#utility.yul\":23139:23157   */\n      add\n        /* \"#utility.yul\":23132:23180   */\n      mstore\n        /* \"#utility.yul\":23197:23275   */\n      tag_534\n        /* \"#utility.yul\":23270:23274   */\n      dup2\n        /* \"#utility.yul\":23261:23267   */\n      dup11\n        /* \"#utility.yul\":23197:23275   */\n      tag_308\n      jump\t// in\n    tag_534:\n        /* \"#utility.yul\":23189:23275   */\n      swap1\n      pop\n        /* \"#utility.yul\":23323:23332   */\n      dup2\n        /* \"#utility.yul\":23317:23321   */\n      dup2\n        /* \"#utility.yul\":23313:23333   */\n      sub\n        /* \"#utility.yul\":23307:23310   */\n      0x80\n        /* \"#utility.yul\":23296:23305   */\n      dup4\n        /* \"#utility.yul\":23292:23311   */\n      add\n        /* \"#utility.yul\":23285:23334   */\n      mstore\n        /* \"#utility.yul\":23351:23429   */\n      tag_535\n        /* \"#utility.yul\":23424:23428   */\n      dup2\n        /* \"#utility.yul\":23415:23421   */\n      dup10\n        /* \"#utility.yul\":23351:23429   */\n      tag_308\n      jump\t// in\n    tag_535:\n        /* \"#utility.yul\":23343:23429   */\n      swap1\n      pop\n        /* \"#utility.yul\":23477:23486   */\n      dup2\n        /* \"#utility.yul\":23471:23475   */\n      dup2\n        /* \"#utility.yul\":23467:23487   */\n      sub\n        /* \"#utility.yul\":23461:23464   */\n      0xa0\n        /* \"#utility.yul\":23450:23459   */\n      dup4\n        /* \"#utility.yul\":23446:23465   */\n      add\n        /* \"#utility.yul\":23439:23488   */\n      mstore\n        /* \"#utility.yul\":23505:23583   */\n      tag_536\n        /* \"#utility.yul\":23578:23582   */\n      dup2\n        /* \"#utility.yul\":23569:23575   */\n      dup9\n        /* \"#utility.yul\":23505:23583   */\n      tag_308\n      jump\t// in\n    tag_536:\n        /* \"#utility.yul\":23497:23583   */\n      swap1\n      pop\n        /* \"#utility.yul\":23631:23640   */\n      dup2\n        /* \"#utility.yul\":23625:23629   */\n      dup2\n        /* \"#utility.yul\":23621:23641   */\n      sub\n        /* \"#utility.yul\":23615:23618   */\n      0xc0\n        /* \"#utility.yul\":23604:23613   */\n      dup4\n        /* \"#utility.yul\":23600:23619   */\n      add\n        /* \"#utility.yul\":23593:23642   */\n      mstore\n        /* \"#utility.yul\":23659:23737   */\n      tag_537\n        /* \"#utility.yul\":23732:23736   */\n      dup2\n        /* \"#utility.yul\":23723:23729   */\n      dup8\n        /* \"#utility.yul\":23659:23737   */\n      tag_308\n      jump\t// in\n    tag_537:\n        /* \"#utility.yul\":23651:23737   */\n      swap1\n      pop\n        /* \"#utility.yul\":23785:23794   */\n      dup2\n        /* \"#utility.yul\":23779:23783   */\n      dup2\n        /* \"#utility.yul\":23775:23795   */\n      sub\n        /* \"#utility.yul\":23769:23772   */\n      0xe0\n        /* \"#utility.yul\":23758:23767   */\n      dup4\n        /* \"#utility.yul\":23754:23773   */\n      add\n        /* \"#utility.yul\":23747:23796   */\n      mstore\n        /* \"#utility.yul\":23813:23891   */\n      tag_538\n        /* \"#utility.yul\":23886:23890   */\n      dup2\n        /* \"#utility.yul\":23877:23883   */\n      dup7\n        /* \"#utility.yul\":23813:23891   */\n      tag_308\n      jump\t// in\n    tag_538:\n        /* \"#utility.yul\":23805:23891   */\n      swap1\n      pop\n        /* \"#utility.yul\":23939:23948   */\n      dup2\n        /* \"#utility.yul\":23933:23937   */\n      dup2\n        /* \"#utility.yul\":23929:23949   */\n      sub\n        /* \"#utility.yul\":23923:23926   */\n      0x0100\n        /* \"#utility.yul\":23912:23921   */\n      dup4\n        /* \"#utility.yul\":23908:23927   */\n      add\n        /* \"#utility.yul\":23901:23950   */\n      mstore\n        /* \"#utility.yul\":23967:24045   */\n      tag_539\n        /* \"#utility.yul\":24040:24044   */\n      dup2\n        /* \"#utility.yul\":24031:24037   */\n      dup6\n        /* \"#utility.yul\":23967:24045   */\n      tag_308\n      jump\t// in\n    tag_539:\n        /* \"#utility.yul\":23959:24045   */\n      swap1\n      pop\n        /* \"#utility.yul\":24055:24122   */\n      tag_540\n        /* \"#utility.yul\":24117:24120   */\n      0x0120\n        /* \"#utility.yul\":24106:24115   */\n      dup4\n        /* \"#utility.yul\":24102:24121   */\n      add\n        /* \"#utility.yul\":24093:24099   */\n      dup5\n        /* \"#utility.yul\":24055:24122   */\n      tag_318\n      jump\t// in\n    tag_540:\n        /* \"#utility.yul\":22194:24129   */\n      swap12\n      swap11\n      pop\n      pop\n      pop\n      pop\n      pop\n      pop\n      pop\n      pop\n      pop\n      pop\n      pop\n      jump\t// out\n        /* \"#utility.yul\":24135:24315   */\n    tag_319:\n        /* \"#utility.yul\":24183:24260   */\n      0x4e487b7100000000000000000000000000000000000000000000000000000000\n        /* \"#utility.yul\":24180:24181   */\n      0x00\n        /* \"#utility.yul\":24173:24261   */\n      mstore\n        /* \"#utility.yul\":24280:24284   */\n      0x22\n        /* \"#utility.yul\":24277:24278   */\n      0x04\n        /* \"#utility.yul\":24270:24285   */\n      mstore\n        /* \"#utility.yul\":24304:24308   */\n      0x24\n        /* \"#utility.yul\":24301:24302   */\n      0x00\n        /* \"#utility.yul\":24294:24309   */\n      revert\n        /* \"#utility.yul\":24321:24641   */\n    tag_82:\n        /* \"#utility.yul\":24365:24371   */\n      0x00\n        /* \"#utility.yul\":24402:24403   */\n      0x02\n        /* \"#utility.yul\":24396:24400   */\n      dup3\n        /* \"#utility.yul\":24392:24404   */\n      div\n        /* \"#utility.yul\":24382:24404   */\n      swap1\n      pop\n        /* \"#utility.yul\":24449:24450   */\n      0x01\n        /* \"#utility.yul\":24443:24447   */\n      dup3\n        /* \"#utility.yul\":24439:24451   */\n      and\n        /* \"#utility.yul\":24470:24488   */\n      dup1\n        /* \"#utility.yul\":24460:24541   */\n      tag_543\n      jumpi\n        /* \"#utility.yul\":24526:24530   */\n      0x7f\n        /* \"#utility.yul\":24518:24524   */\n      dup3\n        /* \"#utility.yul\":24514:24531   */\n      and\n        /* \"#utility.yul\":24504:24531   */\n      swap2\n      pop\n        /* \"#utility.yul\":24460:24541   */\n    tag_543:\n        /* \"#utility.yul\":24588:24590   */\n      0x20\n        /* \"#utility.yul\":24580:24586   */\n      dup3\n        /* \"#utility.yul\":24577:24591   */\n      lt\n        /* \"#utility.yul\":24557:24575   */\n      dup2\n        /* \"#utility.yul\":24554:24592   */\n      sub\n        /* \"#utility.yul\":24551:24635   */\n      tag_544\n      jumpi\n        /* \"#utility.yul\":24607:24625   */\n      tag_545\n      tag_319\n      jump\t// in\n    tag_545:\n        /* \"#utility.yul\":24551:24635   */\n    tag_544:\n        /* \"#utility.yul\":24372:24641   */\n      pop\n        /* \"#utility.yul\":24321:24641   */\n      swap2\n      swap1\n      pop\n      jump\t// out\n        /* \"#utility.yul\":24647:24788   */\n    tag_320:\n        /* \"#utility.yul\":24696:24700   */\n      0x00\n        /* \"#utility.yul\":24719:24722   */\n      dup2\n        /* \"#utility.yul\":24711:24722   */\n      swap1\n      pop\n        /* \"#utility.yul\":24742:24745   */\n      dup2\n        /* \"#utility.yul\":24739:24740   */\n      0x00\n        /* \"#utility.yul\":24732:24746   */\n      mstore\n        /* \"#utility.yul\":24776:24780   */\n      0x20\n        /* \"#utility.yul\":24773:24774   */\n      0x00\n        /* \"#utility.yul\":24763:24781   */\n      keccak256\n        /* \"#utility.yul\":24755:24781   */\n      swap1\n      pop\n        /* \"#utility.yul\":24647:24788   */\n      swap2\n      swap1\n      pop\n      jump\t// out\n        /* \"#utility.yul\":24794:24887   */\n    tag_321:\n        /* \"#utility.yul\":24831:24837   */\n      0x00\n        /* \"#utility.yul\":24878:24880   */\n      0x20\n        /* \"#utility.yul\":24873:24875   */\n      0x1f\n        /* \"#utility.yul\":24866:24871   */\n      dup4\n        /* \"#utility.yul\":24862:24876   */\n      add\n        /* \"#utility.yul\":24858:24881   */\n      div\n        /* \"#utility.yul\":24848:24881   */\n      swap1\n      pop\n        /* \"#utility.yul\":24794:24887   */\n      swap2\n      swap1\n      pop\n      jump\t// out\n        /* \"#utility.yul\":24893:25000   */\n    tag_322:\n        /* \"#utility.yul\":24937:24945   */\n      0x00\n        /* \"#utility.yul\":24987:24992   */\n      dup3\n        /* \"#utility.yul\":24981:24985   */\n      dup3\n        /* \"#utility.yul\":24977:24993   */\n      shl\n        /* \"#utility.yul\":24956:24993   */\n      swap1\n      pop\n        /* \"#utility.yul\":24893:25000   */\n      swap3\n      swap2\n      pop\n      pop\n      jump\t// out\n        /* \"#utility.yul\":25006:25399   */\n    tag_323:\n        /* \"#utility.yul\":25075:25081   */\n      0x00\n        /* \"#utility.yul\":25125:25126   */\n      0x08\n        /* \"#utility.yul\":25113:25123   */\n      dup4\n        /* \"#utility.yul\":25109:25127   */\n      mul\n        /* \"#utility.yul\":25148:25245   */\n      tag_550\n        /* \"#utility.yul\":25178:25244   */\n      0xffffffffffffffffffffffffffffffffffffffffffffffffffffffffffffffff\n        /* \"#utility.yul\":25167:25176   */\n      dup3\n        /* \"#utility.yul\":25148:25245   */\n      tag_322\n      jump\t// in\n    tag_550:\n        /* \"#utility.yul\":25266:25305   */\n      tag_551\n        /* \"#utility.yul\":25296:25304   */\n      dup7\n        /* \"#utility.yul\":25285:25294   */\n      dup4\n        /* \"#utility.yul\":25266:25305   */\n      tag_322\n      jump\t// in\n    tag_551:\n        /* \"#utility.yul\":25254:25305   */\n      swap6\n      pop\n        /* \"#utility.yul\":25338:25342   */\n      dup1\n        /* \"#utility.yul\":25334:25343   */\n      not\n        /* \"#utility.yul\":25327:25332   */\n      dup5\n        /* \"#utility.yul\":25323:25344   */\n      and\n        /* \"#utility.yul\":25314:25344   */\n      swap4\n      pop\n        /* \"#utility.yul\":25387:25391   */\n      dup1\n        /* \"#utility.yul\":25377:25385   */\n      dup7\n        /* \"#utility.yul\":25373:25392   */\n      and\n        /* \"#utility.yul\":25366:25371   */\n      dup5\n        /* \"#utility.yul\":25363:25393   */\n      or\n        /* \"#utility.yul\":25353:25393   */\n      swap3\n      pop\n        /* \"#utility.yul\":25082:25399   */\n      pop\n      pop\n        /* \"#utility.yul\":25006:25399   */\n      swap4\n      swap3\n      pop\n      pop\n      pop\n      jump\t// out\n        /* \"#utility.yul\":25405:25465   */\n    tag_324:\n        /* \"#utility.yul\":25433:25436   */\n      0x00\n        /* \"#utility.yul\":25454:25459   */\n      dup2\n        /* \"#utility.yul\":25447:25459   */\n      swap1\n      pop\n        /* \"#utility.yul\":25405:25465   */\n      swap2\n      swap1\n      pop\n      jump\t// out\n        /* \"#utility.yul\":25471:25613   */\n    tag_325:\n        /* \"#utility.yul\":25521:25530   */\n      0x00\n        /* \"#utility.yul\":25554:25607   */\n      tag_554\n        /* \"#utility.yul\":25572:25606   */\n      tag_555\n        /* \"#utility.yul\":25581:25605   */\n      tag_556\n        /* \"#utility.yul\":25599:25604   */\n      dup5\n        /* \"#utility.yul\":25581:25605   */\n      tag_296\n      jump\t// in\n    tag_556:\n        /* \"#utility.yul\":25572:25606   */\n      tag_324\n      jump\t// in\n    tag_555:\n        /* \"#utility.yul\":25554:25607   */\n      tag_296\n      jump\t// in\n    tag_554:\n        /* \"#utility.yul\":25541:25607   */\n      swap1\n      pop\n        /* \"#utility.yul\":25471:25613   */\n      swap2\n      swap1\n      pop\n      jump\t// out\n        /* \"#utility.yul\":25619:25694   */\n    tag_326:\n        /* \"#utility.yul\":25662:25665   */\n      0x00\n        /* \"#utility.yul\":25683:25688   */\n      dup2\n        /* \"#utility.yul\":25676:25688   */\n      swap1\n      pop\n        /* \"#utility.yul\":25619:25694   */\n      swap2\n      swap1\n      pop\n      jump\t// out\n        /* \"#utility.yul\":25700:25969   */\n    tag_327:\n        /* \"#utility.yul\":25810:25849   */\n      tag_559\n        /* \"#utility.yul\":25841:25848   */\n      dup4\n        /* \"#utility.yul\":25810:25849   */\n      tag_325\n      jump\t// in\n    tag_559:\n        /* \"#utility.yul\":25871:25962   */\n      tag_560\n        /* \"#utility.yul\":25920:25961   */\n      tag_561\n        /* \"#utility.yul\":25944:25960   */\n      dup3\n        /* \"#utility.yul\":25920:25961   */\n      tag_326\n      jump\t// in\n    tag_561:\n        /* \"#utility.yul\":25912:25918   */\n      dup5\n        /* \"#utility.yul\":25905:25909   */\n      dup5\n        /* \"#utility.yul\":25899:25910   */\n      sload\n        /* \"#utility.yul\":25871:25962   */\n      tag_323\n      jump\t// in\n    tag_560:\n        /* \"#utility.yul\":25865:25869   */\n      dup3\n        /* \"#utility.yul\":25858:25963   */\n      sstore\n        /* \"#utility.yul\":25776:25969   */\n      pop\n        /* \"#utility.yul\":25700:25969   */\n      pop\n      pop\n      pop\n      jump\t// out\n        /* \"#utility.yul\":25975:26048   */\n    tag_328:\n        /* \"#utility.yul\":26020:26023   */\n      0x00\n        /* \"#utility.yul\":25975:26048   */\n      swap1\n      jump\t// out\n        /* \"#utility.yul\":26054:26243   */\n    tag_329:\n        /* \"#utility.yul\":26131:26163   */\n      tag_564\n      tag_328\n      jump\t// in\n    tag_564:\n        /* \"#utility.yul\":26172:26237   */\n      tag_565\n        /* \"#utility.yul\":26230:26236   */\n      dup2\n        /* \"#utility.yul\":26222:26228   */\n      dup5\n        /* \"#utility.yul\":26216:26220   */\n      dup5\n        /* \"#utility.yul\":26172:26237   */\n      tag_327\n      jump\t// in\n    tag_565:\n        /* \"#utility.yul\":26107:26243   */\n      pop\n        /* \"#utility.yul\":26054:26243   */\n      pop\n      pop\n      jump\t// out\n        /* \"#utility.yul\":26249:26435   */\n    tag_330:\n        /* \"#utility.yul\":26309:26429   */\n    tag_567:\n        /* \"#utility.yul\":26326:26329   */\n      dup2\n        /* \"#utility.yul\":26319:26324   */\n      dup2\n        /* \"#utility.yul\":26316:26330   */\n      lt\n        /* \"#utility.yul\":26309:26429   */\n      iszero\n      tag_569\n      jumpi\n        /* \"#utility.yul\":26380:26419   */\n      tag_570\n        /* \"#utility.yul\":26417:26418   */\n      0x00\n        /* \"#utility.yul\":26410:26415   */\n      dup3\n        /* \"#utility.yul\":26380:26419   */\n      tag_329\n      jump\t// in\n    tag_570:\n        /* \"#utility.yul\":26353:26354   */\n      0x01\n        /* \"#utility.yul\":26346:26351   */\n      dup2\n        /* \"#utility.yul\":26342:26355   */\n      add\n        /* \"#utility.yul\":26333:26355   */\n      swap1\n      pop\n        /* \"#utility.yul\":26309:26429   */\n      jump(tag_567)\n    tag_569:\n        /* \"#utility.yul\":26249:26435   */\n      pop\n      pop\n      jump\t// out\n        /* \"#utility.yul\":26441:26984   */\n    tag_331:\n        /* \"#utility.yul\":26542:26544   */\n      0x1f\n        /* \"#utility.yul\":26537:26540   */\n      dup3\n        /* \"#utility.yul\":26534:26545   */\n      gt\n        /* \"#utility.yul\":26531:26977   */\n      iszero\n      tag_572\n      jumpi\n        /* \"#utility.yul\":26576:26614   */\n      tag_573\n        /* \"#utility.yul\":26608:26613   */\n      dup2\n        /* \"#utility.yul\":26576:26614   */\n      tag_320\n      jump\t// in\n    tag_573:\n        /* \"#utility.yul\":26660:26689   */\n      tag_574\n        /* \"#utility.yul\":26678:26688   */\n      dup5\n        /* \"#utility.yul\":26660:26689   */\n      tag_321\n      jump\t// in\n    tag_574:\n        /* \"#utility.yul\":26650:26658   */\n      dup2\n        /* \"#utility.yul\":26646:26690   */\n      add\n        /* \"#utility.yul\":26843:26845   */\n      0x20\n        /* \"#utility.yul\":26831:26841   */\n      dup6\n        /* \"#utility.yul\":26828:26846   */\n      lt\n        /* \"#utility.yul\":26825:26874   */\n      iszero\n      tag_575\n      jumpi\n        /* \"#utility.yul\":26864:26872   */\n      dup2\n        /* \"#utility.yul\":26849:26872   */\n      swap1\n      pop\n        /* \"#utility.yul\":26825:26874   */\n    tag_575:\n        /* \"#utility.yul\":26887:26967   */\n      tag_576\n        /* \"#utility.yul\":26943:26965   */\n      tag_577\n        /* \"#utility.yul\":26961:26964   */\n      dup6\n        /* \"#utility.yul\":26943:26965   */\n      tag_321\n      jump\t// in\n    tag_577:\n        /* \"#utility.yul\":26933:26941   */\n      dup4\n        /* \"#utility.yul\":26929:26966   */\n      add\n        /* \"#utility.yul\":26916:26927   */\n      dup3\n        /* \"#utility.yul\":26887:26967   */\n      tag_330\n      jump\t// in\n    tag_576:\n        /* \"#utility.yul\":26546:26977   */\n      pop\n      pop\n        /* \"#utility.yul\":26531:26977   */\n    tag_572:\n        /* \"#utility.yul\":26441:26984   */\n      pop\n      pop\n      pop\n      jump\t// out\n        /* \"#utility.yul\":26990:27107   */\n    tag_332:\n        /* \"#utility.yul\":27044:27052   */\n      0x00\n        /* \"#utility.yul\":27094:27099   */\n      dup3\n        /* \"#utility.yul\":27088:27092   */\n      dup3\n        /* \"#utility.yul\":27084:27100   */\n      shr\n        /* \"#utility.yul\":27063:27100   */\n      swap1\n      pop\n        /* \"#utility.yul\":26990:27107   */\n      swap3\n      swap2\n      pop\n      pop\n      jump\t// out\n        /* \"#utility.yul\":27113:27282   */\n    tag_333:\n        /* \"#utility.yul\":27157:27163   */\n      0x00\n        /* \"#utility.yul\":27190:27241   */\n      tag_580\n        /* \"#utility.yul\":27238:27239   */\n      0x00\n        /* \"#utility.yul\":27234:27240   */\n      not\n        /* \"#utility.yul\":27226:27231   */\n      dup5\n        /* \"#utility.yul\":27223:27224   */\n      0x08\n        /* \"#utility.yul\":27219:27232   */\n      mul\n        /* \"#utility.yul\":27190:27241   */\n      tag_332\n      jump\t// in\n    tag_580:\n        /* \"#utility.yul\":27186:27242   */\n      not\n        /* \"#utility.yul\":27271:27275   */\n      dup1\n        /* \"#utility.yul\":27265:27269   */\n      dup4\n        /* \"#utility.yul\":27261:27276   */\n      and\n        /* \"#utility.yul\":27251:27276   */\n      swap2\n      pop\n        /* \"#utility.yul\":27164:27282   */\n      pop\n        /* \"#utility.yul\":27113:27282   */\n      swap3\n      swap2\n      pop\n      pop\n      jump\t// out\n        /* \"#utility.yul\":27287:27582   */\n    tag_334:\n        /* \"#utility.yul\":27363:27367   */\n      0x00\n        /* \"#utility.yul\":27509:27538   */\n      tag_582\n        /* \"#utility.yul\":27534:27537   */\n      dup4\n        /* \"#utility.yul\":27528:27532   */\n      dup4\n        /* \"#utility.yul\":27509:27538   */\n      tag_333\n      jump\t// in\n    tag_582:\n        /* \"#utility.yul\":27501:27538   */\n      swap2\n      pop\n        /* \"#utility.yul\":27571:27574   */\n      dup3\n        /* \"#utility.yul\":27568:27569   */\n      0x02\n        /* \"#utility.yul\":27564:27575   */\n      mul\n        /* \"#utility.yul\":27558:27562   */\n      dup3\n        /* \"#utility.yul\":27555:27576   */\n      or\n        /* \"#utility.yul\":27547:27576   */\n      swap1\n      pop\n        /* \"#utility.yul\":27287:27582   */\n      swap3\n      swap2\n      pop\n      pop\n      jump\t// out\n        /* \"#utility.yul\":27587:28982   */\n    tag_60:\n        /* \"#utility.yul\":27704:27741   */\n      tag_584\n        /* \"#utility.yul\":27737:27740   */\n      dup3\n        /* \"#utility.yul\":27704:27741   */\n      tag_305\n      jump\t// in\n    tag_584:\n        /* \"#utility.yul\":27806:27824   */\n      0xffffffffffffffff\n        /* \"#utility.yul\":27798:27804   */\n      dup2\n        /* \"#utility.yul\":27795:27825   */\n      gt\n        /* \"#utility.yul\":27792:27848   */\n      iszero\n      tag_585\n      jumpi\n        /* \"#utility.yul\":27828:27846   */\n      tag_586\n      tag_286\n      jump\t// in\n    tag_586:\n        /* \"#utility.yul\":27792:27848   */\n    tag_585:\n        /* \"#utility.yul\":27872:27910   */\n      tag_587\n        /* \"#utility.yul\":27904:27908   */\n      dup3\n        /* \"#utility.yul\":27898:27909   */\n      sload\n        /* \"#utility.yul\":27872:27910   */\n      tag_82\n      jump\t// in\n    tag_587:\n        /* \"#utility.yul\":27957:28024   */\n      tag_588\n        /* \"#utility.yul\":28017:28023   */\n      dup3\n        /* \"#utility.yul\":28009:28015   */\n      dup3\n        /* \"#utility.yul\":28003:28007   */\n      dup6\n        /* \"#utility.yul\":27957:28024   */\n      tag_331\n      jump\t// in\n    tag_588:\n        /* \"#utility.yul\":28051:28052   */\n      0x00\n        /* \"#utility.yul\":28075:28079   */\n      0x20\n        /* \"#utility.yul\":28062:28079   */\n      swap1\n      pop\n        /* \"#utility.yul\":28107:28109   */\n      0x1f\n        /* \"#utility.yul\":28099:28105   */\n      dup4\n        /* \"#utility.yul\":28096:28110   */\n      gt\n        /* \"#utility.yul\":28124:28125   */\n      0x01\n        /* \"#utility.yul\":28119:28737   */\n      dup2\n      eq\n      tag_590\n      jumpi\n        /* \"#utility.yul\":28781:28782   */\n      0x00\n        /* \"#utility.yul\":28798:28804   */\n      dup5\n        /* \"#utility.yul\":28795:28872   */\n      iszero\n      tag_591\n      jumpi\n        /* \"#utility.yul\":28847:28856   */\n      dup3\n        /* \"#utility.yul\":28842:28845   */\n      dup8\n        /* \"#utility.yul\":28838:28857   */\n      add\n        /* \"#utility.yul\":28832:28858   */\n      mload\n        /* \"#utility.yul\":28823:28858   */\n      swap1\n      pop\n        /* \"#utility.yul\":28795:28872   */\n    tag_591:\n        /* \"#utility.yul\":28898:28965   */\n      tag_592\n        /* \"#utility.yul\":28958:28964   */\n      dup6\n        /* \"#utility.yul\":28951:28956   */\n      dup3\n        /* \"#utility.yul\":28898:28965   */\n      tag_334\n      jump\t// in\n    tag_592:\n        /* \"#utility.yul\":28892:28896   */\n      dup7\n        /* \"#utility.yul\":28885:28966   */\n      sstore\n        /* \"#utility.yul\":28754:28976   */\n      pop\n        /* \"#utility.yul\":28089:28976   */\n      jump(tag_589)\n        /* \"#utility.yul\":28119:28737   */\n    tag_590:\n        /* \"#utility.yul\":28171:28175   */\n      0x1f\n        /* \"#utility.yul\":28167:28176   */\n      not\n        /* \"#utility.yul\":28159:28165   */\n      dup5\n        /* \"#utility.yul\":28155:28177   */\n      and\n        /* \"#utility.yul\":28205:28242   */\n      tag_593\n        /* \"#utility.yul\":28237:28241   */\n      dup7\n        /* \"#utility.yul\":28205:28242   */\n      tag_320\n      jump\t// in\n    tag_593:\n        /* \"#utility.yul\":28264:28265   */\n      0x00\n        /* \"#utility.yul\":28278:28486   */\n    tag_594:\n        /* \"#utility.yul\":28292:28299   */\n      dup3\n        /* \"#utility.yul\":28289:28290   */\n      dup2\n        /* \"#utility.yul\":28286:28300   */\n      lt\n        /* \"#utility.yul\":28278:28486   */\n      iszero\n      tag_596\n      jumpi\n        /* \"#utility.yul\":28371:28380   */\n      dup5\n        /* \"#utility.yul\":28366:28369   */\n      dup10\n        /* \"#utility.yul\":28362:28381   */\n      add\n        /* \"#utility.yul\":28356:28382   */\n      mload\n        /* \"#utility.yul\":28348:28354   */\n      dup3\n        /* \"#utility.yul\":28341:28383   */\n      sstore\n        /* \"#utility.yul\":28422:28423   */\n      0x01\n        /* \"#utility.yul\":28414:28420   */\n      dup3\n        /* \"#utility.yul\":28410:28424   */\n      add\n        /* \"#utility.yul\":28400:28424   */\n      swap2\n      pop\n        /* \"#utility.yul\":28469:28471   */\n      0x20\n        /* \"#utility.yul\":28458:28467   */\n      dup6\n        /* \"#utility.yul\":28454:28472   */\n      add\n        /* \"#utility.yul\":28441:28472   */\n      swap5\n      pop\n        /* \"#utility.yul\":28315:28319   */\n      0x20\n        /* \"#utility.yul\":28312:28313   */\n      dup2\n        /* \"#utility.yul\":28308:28320   */\n      add\n        /* \"#utility.yul\":28303:28320   */\n      swap1\n      pop\n        /* \"#utility.yul\":28278:28486   */\n      jump(tag_594)\n    tag_596:\n        /* \"#utility.yul\":28514:28520   */\n      dup7\n        /* \"#utility.yul\":28505:28512   */\n      dup4\n        /* \"#utility.yul\":28502:28521   */\n      lt\n        /* \"#utility.yul\":28499:28678   */\n      iszero\n      tag_597\n      jumpi\n        /* \"#utility.yul\":28572:28581   */\n      dup5\n        /* \"#utility.yul\":28567:28570   */\n      dup10\n        /* \"#utility.yul\":28563:28582   */\n      add\n        /* \"#utility.yul\":28557:28583   */\n      mload\n        /* \"#utility.yul\":28615:28663   */\n      tag_598\n        /* \"#utility.yul\":28657:28661   */\n      0x1f\n        /* \"#utility.yul\":28649:28655   */\n      dup10\n        /* \"#utility.yul\":28645:28662   */\n      and\n        /* \"#utility.yul\":28634:28643   */\n      dup3\n        /* \"#utility.yul\":28615:28663   */\n      tag_333\n      jump\t// in\n    tag_598:\n        /* \"#utility.yul\":28607:28613   */\n      dup4\n        /* \"#utility.yul\":28600:28664   */\n      sstore\n        /* \"#utility.yul\":28522:28678   */\n      pop\n        /* \"#utility.yul\":28499:28678   */\n    tag_597:\n        /* \"#utility.yul\":28724:28725   */\n      0x01\n        /* \"#utility.yul\":28720:28721   */\n      0x02\n        /* \"#utility.yul\":28712:28718   */\n      dup9\n        /* \"#utility.yul\":28708:28722   */\n      mul\n        /* \"#utility.yul\":28704:28726   */\n      add\n        /* \"#utility.yul\":28698:28702   */\n      dup9\n        /* \"#utility.yul\":28691:28727   */\n      sstore\n        /* \"#utility.yul\":28126:28737   */\n      pop\n      pop\n      pop\n        /* \"#utility.yul\":28089:28976   */\n    tag_589:\n      pop\n        /* \"#utility.yul\":27679:28982   */\n      pop\n      pop\n      pop\n        /* \"#utility.yul\":27587:28982   */\n      pop\n      pop\n      jump\t// out\n        /* \"#utility.yul\":28988:29210   */\n    tag_74:\n        /* \"#utility.yul\":29081:29085   */\n      0x00\n        /* \"#utility.yul\":29119:29121   */\n      0x20\n        /* \"#utility.yul\":29108:29117   */\n      dup3\n        /* \"#utility.yul\":29104:29122   */\n      add\n        /* \"#utility.yul\":29096:29122   */\n      swap1\n      pop\n        /* \"#utility.yul\":29132:29203   */\n      tag_600\n        /* \"#utility.yul\":29200:29201   */\n      0x00\n        /* \"#utility.yul\":29189:29198   */\n      dup4\n        /* \"#utility.yul\":29185:29202   */\n      add\n        /* \"#utility.yul\":29176:29182   */\n      dup5\n        /* \"#utility.yul\":29132:29203   */\n      tag_304\n      jump\t// in\n    tag_600:\n        /* \"#utility.yul\":28988:29210   */\n      swap3\n      swap2\n      pop\n      pop\n      jump\t// out\n        /* \"#utility.yul\":29216:29353   */\n    tag_335:\n        /* \"#utility.yul\":29270:29275   */\n      0x00\n        /* \"#utility.yul\":29301:29307   */\n      dup2\n        /* \"#utility.yul\":29295:29308   */\n      mload\n        /* \"#utility.yul\":29286:29308   */\n      swap1\n      pop\n        /* \"#utility.yul\":29317:29347   */\n      tag_602\n        /* \"#utility.yul\":29341:29346   */\n      dup2\n        /* \"#utility.yul\":29317:29347   */\n      tag_301\n      jump\t// in\n    tag_602:\n        /* \"#utility.yul\":29216:29353   */\n      swap3\n      swap2\n      pop\n      pop\n      jump\t// out\n        /* \"#utility.yul\":29359:29704   */\n    tag_78:\n        /* \"#utility.yul\":29426:29432   */\n      0x00\n        /* \"#utility.yul\":29475:29477   */\n      0x20\n        /* \"#utility.yul\":29463:29472   */\n      dup3\n        /* \"#utility.yul\":29454:29461   */\n      dup5\n        /* \"#utility.yul\":29450:29473   */\n      sub\n        /* \"#utility.yul\":29446:29478   */\n      slt\n        /* \"#utility.yul\":29443:29562   */\n      iszero\n      tag_604\n      jumpi\n        /* \"#utility.yul\":29481:29560   */\n      tag_605\n      tag_278\n      jump\t// in\n    tag_605:\n        /* \"#utility.yul\":29443:29562   */\n    tag_604:\n        /* \"#utility.yul\":29601:29602   */\n      0x00\n        /* \"#utility.yul\":29626:29687   */\n      tag_606\n        /* \"#utility.yul\":29679:29686   */\n      dup5\n        /* \"#utility.yul\":29670:29676   */\n      dup3\n        /* \"#utility.yul\":29659:29668   */\n      dup6\n        /* \"#utility.yul\":29655:29677   */\n      add\n        /* \"#utility.yul\":29626:29687   */\n      tag_335\n      jump\t// in\n    tag_606:\n        /* \"#utility.yul\":29616:29687   */\n      swap2\n      pop\n        /* \"#utility.yul\":29572:29697   */\n      pop\n        /* \"#utility.yul\":29359:29704   */\n      swap3\n      swap2\n      pop\n      pop\n      jump\t// out\n        /* \"#utility.yul\":29710:30042   */\n    tag_117:\n        /* \"#utility.yul\":29831:29835   */\n      0x00\n        /* \"#utility.yul\":29869:29871   */\n      0x40\n        /* \"#utility.yul\":29858:29867   */\n      dup3\n        /* \"#utility.yul\":29854:29872   */\n      add\n        /* \"#utility.yul\":29846:29872   */\n      swap1\n      pop\n        /* \"#utility.yul\":29882:29953   */\n      tag_608\n        /* \"#utility.yul\":29950:29951   */\n      0x00\n        /* \"#utility.yul\":29939:29948   */\n      dup4\n        /* \"#utility.yul\":29935:29952   */\n      add\n        /* \"#utility.yul\":29926:29932   */\n      dup6\n        /* \"#utility.yul\":29882:29953   */\n      tag_304\n      jump\t// in\n    tag_608:\n        /* \"#utility.yul\":29963:30035   */\n      tag_609\n        /* \"#utility.yul\":30031:30033   */\n      0x20\n        /* \"#utility.yul\":30020:30029   */\n      dup4\n        /* \"#utility.yul\":30016:30034   */\n      add\n        /* \"#utility.yul\":30007:30013   */\n      dup5\n        /* \"#utility.yul\":29963:30035   */\n      tag_304\n      jump\t// in\n    tag_609:\n        /* \"#utility.yul\":29710:30042   */\n      swap4\n      swap3\n      pop\n      pop\n      pop\n      jump\t// out\n\n    auxdata: 0xa264697066735822122053a6590a27349f4f9d1f07928c2e51fbf45d2ff32d6363e55dda02fb739196ec64736f6c63430008110033\n}\n","bytecode":{"linkReferences":{},"object":"60806040523480156200001157600080fd5b5060405162003192380380620031928339818101604052810190620000379190620000e9565b80600360006101000a81548173ffffffffffffffffffffffffffffffffffffffff021916908373ffffffffffffffffffffffffffffffffffffffff160217905550506200011b565b600080fd5b600073ffffffffffffffffffffffffffffffffffffffff82169050919050565b6000620000b18262000084565b9050919050565b620000c381620000a4565b8114620000cf57600080fd5b50565b600081519050620000e381620000b8565b92915050565b6000602082840312156200010257620001016200007f565b5b60006200011284828501620000d2565b91505092915050565b613067806200012b6000396000f3fe608060405234801561001057600080fd5b506004361061009e5760003560e01c806352a6042d1161006657806352a6042d1461015a5780635db185c7146101765780637621df6f14610192578063b2c24a34146101ae578063c74bb731146101df5761009e565b80631107747e146100a3578063231d90b4146100bf57806326c01f7d146100db57806341093984146100f757806348e818521461012a575b600080fd5b6100bd60048036038101906100b8919061219b565b610218565b005b6100d960048036038101906100d4919061260c565b61025c565b005b6100f560048036038101906100f09190612684565b6105b6565b005b610111600480360381019061010c919061219b565b610c14565b604051610121949392919061287f565b60405180910390f35b610144600480360381019061013f919061219b565b610d74565b6040516101519190612a0d565b60405180910390f35b610174600480360381019061016f9190612684565b6112e1565b005b610190600480360381019061018b919061219b565b6113a3565b005b6101ac60048036038101906101a7919061219b565b6113e7565b005b6101c860048036038101906101c3919061219b565b61142b565b6040516101d6929190612bb3565b60405180910390f35b6101f960048036038101906101f4919061219b565b611b64565b60405161020f9a99989796959493929190612bf9565b60405180910390f35b80600460006101000a81548173ffffffffffffffffffffffffffffffffffffffff021916908373ffffffffffffffffffffffffffffffffffffffff16021790555050565b610264612025565b8260000151816000019073ffffffffffffffffffffffffffffffffffffffff16908173ffffffffffffffffffffffffffffffffffffffff1681525050826020015181602001819052508260400151816040018181525050826060015181606001819052508060026000856000015173ffffffffffffffffffffffffffffffffffffffff1673ffffffffffffffffffffffffffffffffffffffff16815260200190815260200160002060008201518160000160006101000a81548173ffffffffffffffffffffffffffffffffffffffff021916908373ffffffffffffffffffffffffffffffffffffffff16021790555060208201518160010190816103689190612ed9565b506040820151816002015560608201518160030190816103889190612ed9565b50905050610394612063565b8260000151816000019073ffffffffffffffffffffffffffffffffffffffff16908173ffffffffffffffffffffffffffffffffffffffff1681525050826020015181602001819052508260400151816040018190525082606001518160600181905250826080015181608001819052508260a001518160a001819052508260c001518160c001819052508260e001518160e00181905250826101000151816101000181905250826101200151816101200190151590811515815250508060016000866000015173ffffffffffffffffffffffffffffffffffffffff1673ffffffffffffffffffffffffffffffffffffffff16815260200190815260200160002060008201518160000160006101000a81548173ffffffffffffffffffffffffffffffffffffffff021916908373ffffffffffffffffffffffffffffffffffffffff16021790555060208201518160010190816104f09190612ed9565b5060408201518160020190816105069190612ed9565b50606082015181600301908161051c9190612ed9565b5060808201518160040190816105329190612ed9565b5060a08201518160050190816105489190612ed9565b5060c082015181600601908161055e9190612ed9565b5060e08201518160070190816105749190612ed9565b5061010082015181600801908161058b9190612ed9565b506101208201518160090160006101000a81548160ff02191690831515021790555090505050505050565b600460009054906101000a900473ffffffffffffffffffffffffffffffffffffffff1673ffffffffffffffffffffffffffffffffffffffff166363a9c3d7336040518263ffffffff1660e01b81526004016106119190612fab565b602060405180830381865afa15801561062e573d6000803e3d6000fd5b505050506040513d601f19601f820116820180604052508101906106529190612fdb565b61065b57600080fd5b60008060008a73ffffffffffffffffffffffffffffffffffffffff1673ffffffffffffffffffffffffffffffffffffffff168152602001908152602001600020604051806101000160405290816000820160009054906101000a900473ffffffffffffffffffffffffffffffffffffffff1673ffffffffffffffffffffffffffffffffffffffff1673ffffffffffffffffffffffffffffffffffffffff16815260200160018201805461070d90612cfc565b80601f016020809104026020016040519081016040528092919081815260200182805461073990612cfc565b80156107865780601f1061075b57610100808354040283529160200191610786565b820191906000526020600020905b81548152906001019060200180831161076957829003601f168201915b50505050508152602001600282015481526020016003820180546107a990612cfc565b80601f01602080910402602001604051908101604052809291908181526020018280546107d590612cfc565b80156108225780601f106107f757610100808354040283529160200191610822565b820191906000526020600020905b81548152906001019060200180831161080557829003601f168201915b5050505050815260200160048201805461083b90612cfc565b80601f016020809104026020016040519081016040528092919081815260200182805461086790612cfc565b80156108b45780601f10610889576101008083540402835291602001916108b4565b820191906000526020600020905b81548152906001019060200180831161089757829003601f168201915b505050505081526020016005820180546108cd90612cfc565b80601f01602080910402602001604051908101604052809291908181526020018280546108f990612cfc565b80156109465780601f1061091b57610100808354040283529160200191610946565b820191906000526020600020905b81548152906001019060200180831161092957829003601f168201915b5050505050815260200160068201805461095f90612cfc565b80601f016020809104026020016040519081016040528092919081815260200182805461098b90612cfc565b80156109d85780601f106109ad576101008083540402835291602001916109d8565b820191906000526020600020905b8154815290600101906020018083116109bb57829003601f168201915b505050505081526020016007820180546109f190612cfc565b80601f0160208091040260200160405190810160405280929190818152602001828054610a1d90612cfc565b8015610a6a5780601f10610a3f57610100808354040283529160200191610a6a565b820191906000526020600020905b815481529060010190602001808311610a4d57829003601f168201915b505050505081525050905088816000019073ffffffffffffffffffffffffffffffffffffffff16908173ffffffffffffffffffffffffffffffffffffffff168152505087816020018190525086816040018181525050858160600181905250848160800181905250838160a00181905250828160c00181905250818160e00181905250600560009054906101000a900473ffffffffffffffffffffffffffffffffffffffff1673ffffffffffffffffffffffffffffffffffffffff16636d263ceb8a6040518263ffffffff1660e01b8152600401610b489190612fab565b600060405180830381600087803b158015610b6257600080fd5b505af1158015610b76573d6000803e3d6000fd5b50505050600660009054906101000a900473ffffffffffffffffffffffffffffffffffffffff1673ffffffffffffffffffffffffffffffffffffffff16638bfc8c71338b6040518363ffffffff1660e01b8152600401610bd7929190613008565b600060405180830381600087803b158015610bf157600080fd5b505af1158015610c05573d6000803e3d6000fd5b50505050505050505050505050565b60026020528060005260406000206000915090508060000160009054906101000a900473ffffffffffffffffffffffffffffffffffffffff1690806001018054610c5d90612cfc565b80601f0160208091040260200160405190810160405280929190818152602001828054610c8990612cfc565b8015610cd65780601f10610cab57610100808354040283529160200191610cd6565b820191906000526020600020905b815481529060010190602001808311610cb957829003601f168201915b505050505090806002015490806003018054610cf190612cfc565b80601f0160208091040260200160405190810160405280929190818152602001828054610d1d90612cfc565b8015610d6a5780601f10610d3f57610100808354040283529160200191610d6a565b820191906000526020600020905b815481529060010190602001808311610d4d57829003601f168201915b5050505050905084565b610d7c6120ce565b600460009054906101000a900473ffffffffffffffffffffffffffffffffffffffff1673ffffffffffffffffffffffffffffffffffffffff166363a9c3d7336040518263ffffffff1660e01b8152600401610dd79190612fab565b602060405180830381865afa158015610df4573d6000803e3d6000fd5b505050506040513d601f19601f82011682018060405250810190610e189190612fdb565b80610ebb5750600560009054906101000a900473ffffffffffffffffffffffffffffffffffffffff1673ffffffffffffffffffffffffffffffffffffffff166363a9c3d7336040518263ffffffff1660e01b8152600401610e799190612fab565b602060405180830381865afa158015610e96573d6000803e3d6000fd5b505050506040513d601f19601f82011682018060405250810190610eba9190612fdb565b5b610ec457600080fd5b6000808373ffffffffffffffffffffffffffffffffffffffff1673ffffffffffffffffffffffffffffffffffffffff168152602001908152602001600020604051806101000160405290816000820160009054906101000a900473ffffffffffffffffffffffffffffffffffffffff1673ffffffffffffffffffffffffffffffffffffffff1673ffffffffffffffffffffffffffffffffffffffff168152602001600182018054610f7490612cfc565b80601f0160208091040260200160405190810160405280929190818152602001828054610fa090612cfc565b8015610fed5780601f10610fc257610100808354040283529160200191610fed565b820191906000526020600020905b815481529060010190602001808311610fd057829003601f168201915b505050505081526020016002820154815260200160038201805461101090612cfc565b80601f016020809104026020016040519081016040528092919081815260200182805461103c90612cfc565b80156110895780601f1061105e57610100808354040283529160200191611089565b820191906000526020600020905b81548152906001019060200180831161106c57829003601f168201915b505050505081526020016004820180546110a290612cfc565b80601f01602080910402602001604051908101604052809291908181526020018280546110ce90612cfc565b801561111b5780601f106110f05761010080835404028352916020019161111b565b820191906000526020600020905b8154815290600101906020018083116110fe57829003601f168201915b5050505050815260200160058201805461113490612cfc565b80601f016020809104026020016040519081016040528092919081815260200182805461116090612cfc565b80156111ad5780601f10611182576101008083540402835291602001916111ad565b820191906000526020600020905b81548152906001019060200180831161119057829003601f168201915b505050505081526020016006820180546111c690612cfc565b80601f01602080910402602001604051908101604052809291908181526020018280546111f290612cfc565b801561123f5780601f106112145761010080835404028352916020019161123f565b820191906000526020600020905b81548152906001019060200180831161122257829003601f168201915b5050505050815260200160078201805461125890612cfc565b80601f016020809104026020016040519081016040528092919081815260200182805461128490612cfc565b80156112d15780601f106112a6576101008083540402835291602001916112d1565b820191906000526020600020905b8154815290600101906020018083116112b457829003601f168201915b5050505050815250509050919050565b60008060008a73ffffffffffffffffffffffffffffffffffffffff1673ffffffffffffffffffffffffffffffffffffffff1681526020019081526020016000209050878160010190816113349190612ed9565b508681600201819055508581600301908161134f9190612ed9565b50848160040190816113619190612ed9565b50838160050190816113739190612ed9565b50828160060190816113859190612ed9565b50818160070190816113979190612ed9565b50505050505050505050565b80600560006101000a81548173ffffffffffffffffffffffffffffffffffffffff021916908373ffffffffffffffffffffffffffffffffffffffff16021790555050565b80600660006101000a81548173ffffffffffffffffffffffffffffffffffffffff021916908373ffffffffffffffffffffffffffffffffffffffff16021790555050565b611433612025565b61143b612063565b600260008473ffffffffffffffffffffffffffffffffffffffff1673ffffffffffffffffffffffffffffffffffffffff168152602001908152602001600020600160008573ffffffffffffffffffffffffffffffffffffffff1673ffffffffffffffffffffffffffffffffffffffff168152602001908152602001600020816040518060800160405290816000820160009054906101000a900473ffffffffffffffffffffffffffffffffffffffff1673ffffffffffffffffffffffffffffffffffffffff1673ffffffffffffffffffffffffffffffffffffffff16815260200160018201805461152b90612cfc565b80601f016020809104026020016040519081016040528092919081815260200182805461155790612cfc565b80156115a45780601f10611579576101008083540402835291602001916115a4565b820191906000526020600020905b81548152906001019060200180831161158757829003601f168201915b50505050508152602001600282015481526020016003820180546115c790612cfc565b80601f01602080910402602001604051908101604052809291908181526020018280546115f390612cfc565b80156116405780601f1061161557610100808354040283529160200191611640565b820191906000526020600020905b81548152906001019060200180831161162357829003601f168201915b505050505081525050915080604051806101400160405290816000820160009054906101000a900473ffffffffffffffffffffffffffffffffffffffff1673ffffffffffffffffffffffffffffffffffffffff1673ffffffffffffffffffffffffffffffffffffffff1681526020016001820180546116be90612cfc565b80601f01602080910402602001604051908101604052809291908181526020018280546116ea90612cfc565b80156117375780601f1061170c57610100808354040283529160200191611737565b820191906000526020600020905b81548152906001019060200180831161171a57829003601f168201915b5050505050815260200160028201805461175090612cfc565b80601f016020809104026020016040519081016040528092919081815260200182805461177c90612cfc565b80156117c95780601f1061179e576101008083540402835291602001916117c9565b820191906000526020600020905b8154815290600101906020018083116117ac57829003601f168201915b505050505081526020016003820180546117e290612cfc565b80601f016020809104026020016040519081016040528092919081815260200182805461180e90612cfc565b801561185b5780601f106118305761010080835404028352916020019161185b565b820191906000526020600020905b81548152906001019060200180831161183e57829003601f168201915b5050505050815260200160048201805461187490612cfc565b80601f01602080910402602001604051908101604052809291908181526020018280546118a090612cfc565b80156118ed5780601f106118c2576101008083540402835291602001916118ed565b820191906000526020600020905b8154815290600101906020018083116118d057829003601f168201915b5050505050815260200160058201805461190690612cfc565b80601f016020809104026020016040519081016040528092919081815260200182805461193290612cfc565b801561197f5780601f106119545761010080835404028352916020019161197f565b820191906000526020600020905b81548152906001019060200180831161196257829003601f168201915b5050505050815260200160068201805461199890612cfc565b80601f01602080910402602001604051908101604052809291908181526020018280546119c490612cfc565b8015611a115780601f106119e657610100808354040283529160200191611a11565b820191906000526020600020905b8154815290600101906020018083116119f457829003601f168201915b50505050508152602001600782018054611a2a90612cfc565b80601f0160208091040260200160405190810160405280929190818152602001828054611a5690612cfc565b8015611aa35780601f10611a7857610100808354040283529160200191611aa3565b820191906000526020600020905b815481529060010190602001808311611a8657829003601f168201915b50505050508152602001600882018054611abc90612cfc565b80601f0160208091040260200160405190810160405280929190818152602001828054611ae890612cfc565b8015611b355780601f10611b0a57610100808354040283529160200191611b35565b820191906000526020600020905b815481529060010190602001808311611b1857829003601f168201915b505050505081526020016009820160009054906101000a900460ff161515151581525050905091509150915091565b60016020528060005260406000206000915090508060000160009054906101000a900473ffffffffffffffffffffffffffffffffffffffff1690806001018054611bad90612cfc565b80601f0160208091040260200160405190810160405280929190818152602001828054611bd990612cfc565b8015611c265780601f10611bfb57610100808354040283529160200191611c26565b820191906000526020600020905b815481529060010190602001808311611c0957829003601f168201915b505050505090806002018054611c3b90612cfc565b80601f0160208091040260200160405190810160405280929190818152602001828054611c6790612cfc565b8015611cb45780601f10611c8957610100808354040283529160200191611cb4565b820191906000526020600020905b815481529060010190602001808311611c9757829003601f168201915b505050505090806003018054611cc990612cfc565b80601f0160208091040260200160405190810160405280929190818152602001828054611cf590612cfc565b8015611d425780601f10611d1757610100808354040283529160200191611d42565b820191906000526020600020905b815481529060010190602001808311611d2557829003601f168201915b505050505090806004018054611d5790612cfc565b80601f0160208091040260200160405190810160405280929190818152602001828054611d8390612cfc565b8015611dd05780601f10611da557610100808354040283529160200191611dd0565b820191906000526020600020905b815481529060010190602001808311611db357829003601f168201915b505050505090806005018054611de590612cfc565b80601f0160208091040260200160405190810160405280929190818152602001828054611e1190612cfc565b8015611e5e5780601f10611e3357610100808354040283529160200191611e5e565b820191906000526020600020905b815481529060010190602001808311611e4157829003601f168201915b505050505090806006018054611e7390612cfc565b80601f0160208091040260200160405190810160405280929190818152602001828054611e9f90612cfc565b8015611eec5780601f10611ec157610100808354040283529160200191611eec565b820191906000526020600020905b815481529060010190602001808311611ecf57829003601f168201915b505050505090806007018054611f0190612cfc565b80601f0160208091040260200160405190810160405280929190818152602001828054611f2d90612cfc565b8015611f7a5780601f10611f4f57610100808354040283529160200191611f7a565b820191906000526020600020905b815481529060010190602001808311611f5d57829003601f168201915b505050505090806008018054611f8f90612cfc565b80601f0160208091040260200160405190810160405280929190818152602001828054611fbb90612cfc565b80156120085780601f10611fdd57610100808354040283529160200191612008565b820191906000526020600020905b815481529060010190602001808311611feb57829003601f168201915b5050505050908060090160009054906101000a900460ff1690508a565b6040518060800160405280600073ffffffffffffffffffffffffffffffffffffffff1681526020016060815260200160008152602001606081525090565b604051806101400160405280600073ffffffffffffffffffffffffffffffffffffffff16815260200160608152602001606081526020016060815260200160608152602001606081526020016060815260200160608152602001606081526020016000151581525090565b604051806101000160405280600073ffffffffffffffffffffffffffffffffffffffff168152602001606081526020016000815260200160608152602001606081526020016060815260200160608152602001606081525090565b6000604051905090565b600080fd5b600080fd5b600073ffffffffffffffffffffffffffffffffffffffff82169050919050565b60006121688261213d565b9050919050565b6121788161215d565b811461218357600080fd5b50565b6000813590506121958161216f565b92915050565b6000602082840312156121b1576121b0612133565b5b60006121bf84828501612186565b91505092915050565b600080fd5b6000601f19601f8301169050919050565b7f4e487b7100000000000000000000000000000000000000000000000000000000600052604160045260246000fd5b612216826121cd565b810181811067ffffffffffffffff82111715612235576122346121de565b5b80604052505050565b6000612248612129565b9050612254828261220d565b919050565b600080fd5b600080fd5b600080fd5b600067ffffffffffffffff821115612283576122826121de565b5b61228c826121cd565b9050602081019050919050565b82818337600083830152505050565b60006122bb6122b684612268565b61223e565b9050828152602081018484840111156122d7576122d6612263565b5b6122e2848285612299565b509392505050565b600082601f8301126122ff576122fe61225e565b5b813561230f8482602086016122a8565b91505092915050565b6000819050919050565b61232b81612318565b811461233657600080fd5b50565b60008135905061234881612322565b92915050565b600060808284031215612364576123636121c8565b5b61236e608061223e565b9050600061237e84828501612186565b600083015250602082013567ffffffffffffffff8111156123a2576123a1612259565b5b6123ae848285016122ea565b60208301525060406123c284828501612339565b604083015250606082013567ffffffffffffffff8111156123e6576123e5612259565b5b6123f2848285016122ea565b60608301525092915050565b60008115159050919050565b612413816123fe565b811461241e57600080fd5b50565b6000813590506124308161240a565b92915050565b6000610140828403121561244d5761244c6121c8565b5b61245861014061223e565b9050600061246884828501612186565b600083015250602082013567ffffffffffffffff81111561248c5761248b612259565b5b612498848285016122ea565b602083015250604082013567ffffffffffffffff8111156124bc576124bb612259565b5b6124c8848285016122ea565b604083015250606082013567ffffffffffffffff8111156124ec576124eb612259565b5b6124f8848285016122ea565b606083015250608082013567ffffffffffffffff81111561251c5761251b612259565b5b612528848285016122ea565b60808301525060a082013567ffffffffffffffff81111561254c5761254b612259565b5b612558848285016122ea565b60a08301525060c082013567ffffffffffffffff81111561257c5761257b612259565b5b612588848285016122ea565b60c08301525060e082013567ffffffffffffffff8111156125ac576125ab612259565b5b6125b8848285016122ea565b60e08301525061010082013567ffffffffffffffff8111156125dd576125dc612259565b5b6125e9848285016122ea565b610100830152506101206125ff84828501612421565b6101208301525092915050565b6000806040838503121561262357612622612133565b5b600083013567ffffffffffffffff81111561264157612640612138565b5b61264d8582860161234e565b925050602083013567ffffffffffffffff81111561266e5761266d612138565b5b61267a85828601612436565b9150509250929050565b600080600080600080600080610100898b0312156126a5576126a4612133565b5b60006126b38b828c01612186565b985050602089013567ffffffffffffffff8111156126d4576126d3612138565b5b6126e08b828c016122ea565b97505060406126f18b828c01612339565b965050606089013567ffffffffffffffff81111561271257612711612138565b5b61271e8b828c016122ea565b955050608089013567ffffffffffffffff81111561273f5761273e612138565b5b61274b8b828c016122ea565b94505060a089013567ffffffffffffffff81111561276c5761276b612138565b5b6127788b828c016122ea565b93505060c089013567ffffffffffffffff81111561279957612798612138565b5b6127a58b828c016122ea565b92505060e089013567ffffffffffffffff8111156127c6576127c5612138565b5b6127d28b828c016122ea565b9150509295985092959890939650565b6127eb8161215d565b82525050565b600081519050919050565b600082825260208201905092915050565b60005b8381101561282b578082015181840152602081019050612810565b60008484015250505050565b6000612842826127f1565b61284c81856127fc565b935061285c81856020860161280d565b612865816121cd565b840191505092915050565b61287981612318565b82525050565b600060808201905061289460008301876127e2565b81810360208301526128a68186612837565b90506128b56040830185612870565b81810360608301526128c78184612837565b905095945050505050565b6128db8161215d565b82525050565b600082825260208201905092915050565b60006128fd826127f1565b61290781856128e1565b935061291781856020860161280d565b612920816121cd565b840191505092915050565b61293481612318565b82525050565b60006101008301600083015161295360008601826128d2565b506020830151848203602086015261296b82826128f2565b9150506040830151612980604086018261292b565b506060830151848203606086015261299882826128f2565b915050608083015184820360808601526129b282826128f2565b91505060a083015184820360a08601526129cc82826128f2565b91505060c083015184820360c08601526129e682826128f2565b91505060e083015184820360e0860152612a0082826128f2565b9150508091505092915050565b60006020820190508181036000830152612a27818461293a565b905092915050565b6000608083016000830151612a4760008601826128d2565b5060208301518482036020860152612a5f82826128f2565b9150506040830151612a74604086018261292b565b5060608301518482036060860152612a8c82826128f2565b9150508091505092915050565b612aa2816123fe565b82525050565b600061014083016000830151612ac160008601826128d2565b5060208301518482036020860152612ad982826128f2565b91505060408301518482036040860152612af382826128f2565b91505060608301518482036060860152612b0d82826128f2565b91505060808301518482036080860152612b2782826128f2565b91505060a083015184820360a0860152612b4182826128f2565b91505060c083015184820360c0860152612b5b82826128f2565b91505060e083015184820360e0860152612b7582826128f2565b915050610100830151848203610100860152612b9182826128f2565b915050610120830151612ba8610120860182612a99565b508091505092915050565b60006040820190508181036000830152612bcd8185612a2f565b90508181036020830152612be18184612aa8565b90509392505050565b612bf3816123fe565b82525050565b600061014082019050612c0f600083018d6127e2565b8181036020830152612c21818c612837565b90508181036040830152612c35818b612837565b90508181036060830152612c49818a612837565b90508181036080830152612c5d8189612837565b905081810360a0830152612c718188612837565b905081810360c0830152612c858187612837565b905081810360e0830152612c998186612837565b9050818103610100830152612cae8185612837565b9050612cbe610120830184612bea565b9b9a5050505050505050505050565b7f4e487b7100000000000000000000000000000000000000000000000000000000600052602260045260246000fd5b60006002820490506001821680612d1457607f821691505b602082108103612d2757612d26612ccd565b5b50919050565b60008190508160005260206000209050919050565b60006020601f8301049050919050565b600082821b905092915050565b600060088302612d8f7fffffffffffffffffffffffffffffffffffffffffffffffffffffffffffffffff82612d52565b612d998683612d52565b95508019841693508086168417925050509392505050565b6000819050919050565b6000612dd6612dd1612dcc84612318565b612db1565b612318565b9050919050565b6000819050919050565b612df083612dbb565b612e04612dfc82612ddd565b848454612d5f565b825550505050565b600090565b612e19612e0c565b612e24818484612de7565b505050565b5b81811015612e4857612e3d600082612e11565b600181019050612e2a565b5050565b601f821115612e8d57612e5e81612d2d565b612e6784612d42565b81016020851015612e76578190505b612e8a612e8285612d42565b830182612e29565b50505b505050565b600082821c905092915050565b6000612eb060001984600802612e92565b1980831691505092915050565b6000612ec98383612e9f565b9150826002028217905092915050565b612ee2826127f1565b67ffffffffffffffff811115612efb57612efa6121de565b5b612f058254612cfc565b612f10828285612e4c565b600060209050601f831160018114612f435760008415612f31578287015190505b612f3b8582612ebd565b865550612fa3565b601f198416612f5186612d2d565b60005b82811015612f7957848901518255600182019150602085019450602081019050612f54565b86831015612f965784890151612f92601f891682612e9f565b8355505b6001600288020188555050505b505050505050565b6000602082019050612fc060008301846127e2565b92915050565b600081519050612fd58161240a565b92915050565b600060208284031215612ff157612ff0612133565b5b6000612fff84828501612fc6565b91505092915050565b600060408201905061301d60008301856127e2565b61302a60208301846127e2565b939250505056fea264697066735822122053a6590a27349f4f9d1f07928c2e51fbf45d2ff32d6363e55dda02fb739196ec64736f6c63430008110033","opcodes":"PUSH1 0x80 PUSH1 0x40 MSTORE CALLVALUE DUP1 ISZERO PUSH3 0x11 JUMPI PUSH1 0x0 DUP1 REVERT JUMPDEST POP PUSH1 0x40 MLOAD PUSH3 0x3192 CODESIZE SUB DUP1 PUSH3 0x3192 DUP4 CODECOPY DUP2 DUP2 ADD PUSH1 0x40 MSTORE DUP2 ADD SWAP1 PUSH3 0x37 SWAP2 SWAP1 PUSH3 0xE9 JUMP JUMPDEST DUP1 PUSH1 0x3 PUSH1 0x0 PUSH2 0x100 EXP DUP2 SLOAD DUP2 PUSH20 0xFFFFFFFFFFFFFFFFFFFFFFFFFFFFFFFFFFFFFFFF MUL NOT AND SWAP1 DUP4 PUSH20 0xFFFFFFFFFFFFFFFFFFFFFFFFFFFFFFFFFFFFFFFF AND MUL OR SWAP1 SSTORE POP POP PUSH3 0x11B JUMP JUMPDEST PUSH1 0x0 DUP1 REVERT JUMPDEST PUSH1 0x0 PUSH20 0xFFFFFFFFFFFFFFFFFFFFFFFFFFFFFFFFFFFFFFFF DUP3 AND SWAP1 POP SWAP2 SWAP1 POP JUMP JUMPDEST PUSH1 0x0 PUSH3 0xB1 DUP3 PUSH3 0x84 JUMP JUMPDEST SWAP1 POP SWAP2 SWAP1 POP JUMP JUMPDEST PUSH3 0xC3 DUP2 PUSH3 0xA4 JUMP JUMPDEST DUP2 EQ PUSH3 0xCF JUMPI PUSH1 0x0 DUP1 REVERT JUMPDEST POP JUMP JUMPDEST PUSH1 0x0 DUP2 MLOAD SWAP1 POP PUSH3 0xE3 DUP2 PUSH3 0xB8 JUMP JUMPDEST SWAP3 SWAP2 POP POP JUMP JUMPDEST PUSH1 0x0 PUSH1 0x20 DUP3 DUP5 SUB SLT ISZERO PUSH3 0x102 JUMPI PUSH3 0x101 PUSH3 0x7F JUMP JUMPDEST JUMPDEST PUSH1 0x0 PUSH3 0x112 DUP5 DUP3 DUP6 ADD PUSH3 0xD2 JUMP JUMPDEST SWAP2 POP POP SWAP3 SWAP2 POP POP JUMP JUMPDEST PUSH2 0x3067 DUP1 PUSH3 0x12B PUSH1 0x0 CODECOPY PUSH1 0x0 RETURN INVALID PUSH1 0x80 PUSH1 0x40 MSTORE CALLVALUE DUP1 ISZERO PUSH2 0x10 JUMPI PUSH1 0x0 DUP1 REVERT JUMPDEST POP PUSH1 0x4 CALLDATASIZE LT PUSH2 0x9E JUMPI PUSH1 0x0 CALLDATALOAD PUSH1 0xE0 SHR DUP1 PUSH4 0x52A6042D GT PUSH2 0x66 JUMPI DUP1 PUSH4 0x52A6042D EQ PUSH2 0x15A JUMPI DUP1 PUSH4 0x5DB185C7 EQ PUSH2 0x176 JUMPI DUP1 PUSH4 0x7621DF6F EQ PUSH2 0x192 JUMPI DUP1 PUSH4 0xB2C24A34 EQ PUSH2 0x1AE JUMPI DUP1 PUSH4 0xC74BB731 EQ PUSH2 0x1DF JUMPI PUSH2 0x9E JUMP JUMPDEST DUP1 PUSH4 0x1107747E EQ PUSH2 0xA3 JUMPI DUP1 PUSH4 0x231D90B4 EQ PUSH2 0xBF JUMPI DUP1 PUSH4 0x26C01F7D EQ PUSH2 0xDB JUMPI DUP1 PUSH4 0x41093984 EQ PUSH2 0xF7 JUMPI DUP1 PUSH4 0x48E81852 EQ PUSH2 0x12A JUMPI JUMPDEST PUSH1 0x0 DUP1 REVERT JUMPDEST PUSH2 0xBD PUSH1 0x4 DUP1 CALLDATASIZE SUB DUP2 ADD SWAP1 PUSH2 0xB8 SWAP2 SWAP1 PUSH2 0x219B JUMP JUMPDEST PUSH2 0x218 JUMP JUMPDEST STOP JUMPDEST PUSH2 0xD9 PUSH1 0x4 DUP1 CALLDATASIZE SUB DUP2 ADD SWAP1 PUSH2 0xD4 SWAP2 SWAP1 PUSH2 0x260C JUMP JUMPDEST PUSH2 0x25C JUMP JUMPDEST STOP JUMPDEST PUSH2 0xF5 PUSH1 0x4 DUP1 CALLDATASIZE SUB DUP2 ADD SWAP1 PUSH2 0xF0 SWAP2 SWAP1 PUSH2 0x2684 JUMP JUMPDEST PUSH2 0x5B6 JUMP JUMPDEST STOP JUMPDEST PUSH2 0x111 PUSH1 0x4 DUP1 CALLDATASIZE SUB DUP2 ADD SWAP1 PUSH2 0x10C SWAP2 SWAP1 PUSH2 0x219B JUMP JUMPDEST PUSH2 0xC14 JUMP JUMPDEST PUSH1 0x40 MLOAD PUSH2 0x121 SWAP5 SWAP4 SWAP3 SWAP2 SWAP1 PUSH2 0x287F JUMP JUMPDEST PUSH1 0x40 MLOAD DUP1 SWAP2 SUB SWAP1 RETURN JUMPDEST PUSH2 0x144 PUSH1 0x4 DUP1 CALLDATASIZE SUB DUP2 ADD SWAP1 PUSH2 0x13F SWAP2 SWAP1 PUSH2 0x219B JUMP JUMPDEST PUSH2 0xD74 JUMP JUMPDEST PUSH1 0x40 MLOAD PUSH2 0x151 SWAP2 SWAP1 PUSH2 0x2A0D JUMP JUMPDEST PUSH1 0x40 MLOAD DUP1 SWAP2 SUB SWAP1 RETURN JUMPDEST PUSH2 0x174 PUSH1 0x4 DUP1 CALLDATASIZE SUB DUP2 ADD SWAP1 PUSH2 0x16F SWAP2 SWAP1 PUSH2 0x2684 JUMP JUMPDEST PUSH2 0x12E1 JUMP JUMPDEST STOP JUMPDEST PUSH2 0x190 PUSH1 0x4 DUP1 CALLDATASIZE SUB DUP2 ADD SWAP1 PUSH2 0x18B SWAP2 SWAP1 PUSH2 0x219B JUMP JUMPDEST PUSH2 0x13A3 JUMP JUMPDEST STOP JUMPDEST PUSH2 0x1AC PUSH1 0x4 DUP1 CALLDATASIZE SUB DUP2 ADD SWAP1 PUSH2 0x1A7 SWAP2 SWAP1 PUSH2 0x219B JUMP JUMPDEST PUSH2 0x13E7 JUMP JUMPDEST STOP JUMPDEST PUSH2 0x1C8 PUSH1 0x4 DUP1 CALLDATASIZE SUB DUP2 ADD SWAP1 PUSH2 0x1C3 SWAP2 SWAP1 PUSH2 0x219B JUMP JUMPDEST PUSH2 0x142B JUMP JUMPDEST PUSH1 0x40 MLOAD PUSH2 0x1D6 SWAP3 SWAP2 SWAP1 PUSH2 0x2BB3 JUMP JUMPDEST PUSH1 0x40 MLOAD DUP1 SWAP2 SUB SWAP1 RETURN JUMPDEST PUSH2 0x1F9 PUSH1 0x4 DUP1 CALLDATASIZE SUB DUP2 ADD SWAP1 PUSH2 0x1F4 SWAP2 SWAP1 PUSH2 0x219B JUMP JUMPDEST PUSH2 0x1B64 JUMP JUMPDEST PUSH1 0x40 MLOAD PUSH2 0x20F SWAP11 SWAP10 SWAP9 SWAP8 SWAP7 SWAP6 SWAP5 SWAP4 SWAP3 SWAP2 SWAP1 PUSH2 0x2BF9 JUMP JUMPDEST PUSH1 0x40 MLOAD DUP1 SWAP2 SUB SWAP1 RETURN JUMPDEST DUP1 PUSH1 0x4 PUSH1 0x0 PUSH2 0x100 EXP DUP2 SLOAD DUP2 PUSH20 0xFFFFFFFFFFFFFFFFFFFFFFFFFFFFFFFFFFFFFFFF MUL NOT AND SWAP1 DUP4 PUSH20 0xFFFFFFFFFFFFFFFFFFFFFFFFFFFFFFFFFFFFFFFF AND MUL OR SWAP1 SSTORE POP POP JUMP JUMPDEST PUSH2 0x264 PUSH2 0x2025 JUMP JUMPDEST DUP3 PUSH1 0x0 ADD MLOAD DUP2 PUSH1 0x0 ADD SWAP1 PUSH20 0xFFFFFFFFFFFFFFFFFFFFFFFFFFFFFFFFFFFFFFFF AND SWAP1 DUP2 PUSH20 0xFFFFFFFFFFFFFFFFFFFFFFFFFFFFFFFFFFFFFFFF AND DUP2 MSTORE POP POP DUP3 PUSH1 0x20 ADD MLOAD DUP2 PUSH1 0x20 ADD DUP2 SWAP1 MSTORE POP DUP3 PUSH1 0x40 ADD MLOAD DUP2 PUSH1 0x40 ADD DUP2 DUP2 MSTORE POP POP DUP3 PUSH1 0x60 ADD MLOAD DUP2 PUSH1 0x60 ADD DUP2 SWAP1 MSTORE POP DUP1 PUSH1 0x2 PUSH1 0x0 DUP6 PUSH1 0x0 ADD MLOAD PUSH20 0xFFFFFFFFFFFFFFFFFFFFFFFFFFFFFFFFFFFFFFFF AND PUSH20 0xFFFFFFFFFFFFFFFFFFFFFFFFFFFFFFFFFFFFFFFF AND DUP2 MSTORE PUSH1 0x20 ADD SWAP1 DUP2 MSTORE PUSH1 0x20 ADD PUSH1 0x0 KECCAK256 PUSH1 0x0 DUP3 ADD MLOAD DUP2 PUSH1 0x0 ADD PUSH1 0x0 PUSH2 0x100 EXP DUP2 SLOAD DUP2 PUSH20 0xFFFFFFFFFFFFFFFFFFFFFFFFFFFFFFFFFFFFFFFF MUL NOT AND SWAP1 DUP4 PUSH20 0xFFFFFFFFFFFFFFFFFFFFFFFFFFFFFFFFFFFFFFFF AND MUL OR SWAP1 SSTORE POP PUSH1 0x20 DUP3 ADD MLOAD DUP2 PUSH1 0x1 ADD SWAP1 DUP2 PUSH2 0x368 SWAP2 SWAP1 PUSH2 0x2ED9 JUMP JUMPDEST POP PUSH1 0x40 DUP3 ADD MLOAD DUP2 PUSH1 0x2 ADD SSTORE PUSH1 0x60 DUP3 ADD MLOAD DUP2 PUSH1 0x3 ADD SWAP1 DUP2 PUSH2 0x388 SWAP2 SWAP1 PUSH2 0x2ED9 JUMP JUMPDEST POP SWAP1 POP POP PUSH2 0x394 PUSH2 0x2063 JUMP JUMPDEST DUP3 PUSH1 0x0 ADD MLOAD DUP2 PUSH1 0x0 ADD SWAP1 PUSH20 0xFFFFFFFFFFFFFFFFFFFFFFFFFFFFFFFFFFFFFFFF AND SWAP1 DUP2 PUSH20 0xFFFFFFFFFFFFFFFFFFFFFFFFFFFFFFFFFFFFFFFF AND DUP2 MSTORE POP POP DUP3 PUSH1 0x20 ADD MLOAD DUP2 PUSH1 0x20 ADD DUP2 SWAP1 MSTORE POP DUP3 PUSH1 0x40 ADD MLOAD DUP2 PUSH1 0x40 ADD DUP2 SWAP1 MSTORE POP DUP3 PUSH1 0x60 ADD MLOAD DUP2 PUSH1 0x60 ADD DUP2 SWAP1 MSTORE POP DUP3 PUSH1 0x80 ADD MLOAD DUP2 PUSH1 0x80 ADD DUP2 SWAP1 MSTORE POP DUP3 PUSH1 0xA0 ADD MLOAD DUP2 PUSH1 0xA0 ADD DUP2 SWAP1 MSTORE POP DUP3 PUSH1 0xC0 ADD MLOAD DUP2 PUSH1 0xC0 ADD DUP2 SWAP1 MSTORE POP DUP3 PUSH1 0xE0 ADD MLOAD DUP2 PUSH1 0xE0 ADD DUP2 SWAP1 MSTORE POP DUP3 PUSH2 0x100 ADD MLOAD DUP2 PUSH2 0x100 ADD DUP2 SWAP1 MSTORE POP DUP3 PUSH2 0x120 ADD MLOAD DUP2 PUSH2 0x120 ADD SWAP1 ISZERO ISZERO SWAP1 DUP2 ISZERO ISZERO DUP2 MSTORE POP POP DUP1 PUSH1 0x1 PUSH1 0x0 DUP7 PUSH1 0x0 ADD MLOAD PUSH20 0xFFFFFFFFFFFFFFFFFFFFFFFFFFFFFFFFFFFFFFFF AND PUSH20 0xFFFFFFFFFFFFFFFFFFFFFFFFFFFFFFFFFFFFFFFF AND DUP2 MSTORE PUSH1 0x20 ADD SWAP1 DUP2 MSTORE PUSH1 0x20 ADD PUSH1 0x0 KECCAK256 PUSH1 0x0 DUP3 ADD MLOAD DUP2 PUSH1 0x0 ADD PUSH1 0x0 PUSH2 0x100 EXP DUP2 SLOAD DUP2 PUSH20 0xFFFFFFFFFFFFFFFFFFFFFFFFFFFFFFFFFFFFFFFF MUL NOT AND SWAP1 DUP4 PUSH20 0xFFFFFFFFFFFFFFFFFFFFFFFFFFFFFFFFFFFFFFFF AND MUL OR SWAP1 SSTORE POP PUSH1 0x20 DUP3 ADD MLOAD DUP2 PUSH1 0x1 ADD SWAP1 DUP2 PUSH2 0x4F0 SWAP2 SWAP1 PUSH2 0x2ED9 JUMP JUMPDEST POP PUSH1 0x40 DUP3 ADD MLOAD DUP2 PUSH1 0x2 ADD SWAP1 DUP2 PUSH2 0x506 SWAP2 SWAP1 PUSH2 0x2ED9 JUMP JUMPDEST POP PUSH1 0x60 DUP3 ADD MLOAD DUP2 PUSH1 0x3 ADD SWAP1 DUP2 PUSH2 0x51C SWAP2 SWAP1 PUSH2 0x2ED9 JUMP JUMPDEST POP PUSH1 0x80 DUP3 ADD MLOAD DUP2 PUSH1 0x4 ADD SWAP1 DUP2 PUSH2 0x532 SWAP2 SWAP1 PUSH2 0x2ED9 JUMP JUMPDEST POP PUSH1 0xA0 DUP3 ADD MLOAD DUP2 PUSH1 0x5 ADD SWAP1 DUP2 PUSH2 0x548 SWAP2 SWAP1 PUSH2 0x2ED9 JUMP JUMPDEST POP PUSH1 0xC0 DUP3 ADD MLOAD DUP2 PUSH1 0x6 ADD SWAP1 DUP2 PUSH2 0x55E SWAP2 SWAP1 PUSH2 0x2ED9 JUMP JUMPDEST POP PUSH1 0xE0 DUP3 ADD MLOAD DUP2 PUSH1 0x7 ADD SWAP1 DUP2 PUSH2 0x574 SWAP2 SWAP1 PUSH2 0x2ED9 JUMP JUMPDEST POP PUSH2 0x100 DUP3 ADD MLOAD DUP2 PUSH1 0x8 ADD SWAP1 DUP2 PUSH2 0x58B SWAP2 SWAP1 PUSH2 0x2ED9 JUMP JUMPDEST POP PUSH2 0x120 DUP3 ADD MLOAD DUP2 PUSH1 0x9 ADD PUSH1 0x0 PUSH2 0x100 EXP DUP2 SLOAD DUP2 PUSH1 0xFF MUL NOT AND SWAP1 DUP4 ISZERO ISZERO MUL OR SWAP1 SSTORE POP SWAP1 POP POP POP POP POP POP JUMP JUMPDEST PUSH1 0x4 PUSH1 0x0 SWAP1 SLOAD SWAP1 PUSH2 0x100 EXP SWAP1 DIV PUSH20 0xFFFFFFFFFFFFFFFFFFFFFFFFFFFFFFFFFFFFFFFF AND PUSH20 0xFFFFFFFFFFFFFFFFFFFFFFFFFFFFFFFFFFFFFFFF AND PUSH4 0x63A9C3D7 CALLER PUSH1 0x40 MLOAD DUP3 PUSH4 0xFFFFFFFF AND PUSH1 0xE0 SHL DUP2 MSTORE PUSH1 0x4 ADD PUSH2 0x611 SWAP2 SWAP1 PUSH2 0x2FAB JUMP JUMPDEST PUSH1 0x20 PUSH1 0x40 MLOAD DUP1 DUP4 SUB DUP2 DUP7 GAS STATICCALL ISZERO DUP1 ISZERO PUSH2 0x62E JUMPI RETURNDATASIZE PUSH1 0x0 DUP1 RETURNDATACOPY RETURNDATASIZE PUSH1 0x0 REVERT JUMPDEST POP POP POP POP PUSH1 0x40 MLOAD RETURNDATASIZE PUSH1 0x1F NOT PUSH1 0x1F DUP3 ADD AND DUP3 ADD DUP1 PUSH1 0x40 MSTORE POP DUP2 ADD SWAP1 PUSH2 0x652 SWAP2 SWAP1 PUSH2 0x2FDB JUMP JUMPDEST PUSH2 0x65B JUMPI PUSH1 0x0 DUP1 REVERT JUMPDEST PUSH1 0x0 DUP1 PUSH1 0x0 DUP11 PUSH20 0xFFFFFFFFFFFFFFFFFFFFFFFFFFFFFFFFFFFFFFFF AND PUSH20 0xFFFFFFFFFFFFFFFFFFFFFFFFFFFFFFFFFFFFFFFF AND DUP2 MSTORE PUSH1 0x20 ADD SWAP1 DUP2 MSTORE PUSH1 0x20 ADD PUSH1 0x0 KECCAK256 PUSH1 0x40 MLOAD DUP1 PUSH2 0x100 ADD PUSH1 0x40 MSTORE SWAP1 DUP2 PUSH1 0x0 DUP3 ADD PUSH1 0x0 SWAP1 SLOAD SWAP1 PUSH2 0x100 EXP SWAP1 DIV PUSH20 0xFFFFFFFFFFFFFFFFFFFFFFFFFFFFFFFFFFFFFFFF AND PUSH20 0xFFFFFFFFFFFFFFFFFFFFFFFFFFFFFFFFFFFFFFFF AND PUSH20 0xFFFFFFFFFFFFFFFFFFFFFFFFFFFFFFFFFFFFFFFF AND DUP2 MSTORE PUSH1 0x20 ADD PUSH1 0x1 DUP3 ADD DUP1 SLOAD PUSH2 0x70D SWAP1 PUSH2 0x2CFC JUMP JUMPDEST DUP1 PUSH1 0x1F ADD PUSH1 0x20 DUP1 SWAP2 DIV MUL PUSH1 0x20 ADD PUSH1 0x40 MLOAD SWAP1 DUP2 ADD PUSH1 0x40 MSTORE DUP1 SWAP3 SWAP2 SWAP1 DUP2 DUP2 MSTORE PUSH1 0x20 ADD DUP3 DUP1 SLOAD PUSH2 0x739 SWAP1 PUSH2 0x2CFC JUMP JUMPDEST DUP1 ISZERO PUSH2 0x786 JUMPI DUP1 PUSH1 0x1F LT PUSH2 0x75B JUMPI PUSH2 0x100 DUP1 DUP4 SLOAD DIV MUL DUP4 MSTORE SWAP2 PUSH1 0x20 ADD SWAP2 PUSH2 0x786 JUMP JUMPDEST DUP3 ADD SWAP2 SWAP1 PUSH1 0x0 MSTORE PUSH1 0x20 PUSH1 0x0 KECCAK256 SWAP1 JUMPDEST DUP2 SLOAD DUP2 MSTORE SWAP1 PUSH1 0x1 ADD SWAP1 PUSH1 0x20 ADD DUP1 DUP4 GT PUSH2 0x769 JUMPI DUP3 SWAP1 SUB PUSH1 0x1F AND DUP3 ADD SWAP2 JUMPDEST POP POP POP POP POP DUP2 MSTORE PUSH1 0x20 ADD PUSH1 0x2 DUP3 ADD SLOAD DUP2 MSTORE PUSH1 0x20 ADD PUSH1 0x3 DUP3 ADD DUP1 SLOAD PUSH2 0x7A9 SWAP1 PUSH2 0x2CFC JUMP JUMPDEST DUP1 PUSH1 0x1F ADD PUSH1 0x20 DUP1 SWAP2 DIV MUL PUSH1 0x20 ADD PUSH1 0x40 MLOAD SWAP1 DUP2 ADD PUSH1 0x40 MSTORE DUP1 SWAP3 SWAP2 SWAP1 DUP2 DUP2 MSTORE PUSH1 0x20 ADD DUP3 DUP1 SLOAD PUSH2 0x7D5 SWAP1 PUSH2 0x2CFC JUMP JUMPDEST DUP1 ISZERO PUSH2 0x822 JUMPI DUP1 PUSH1 0x1F LT PUSH2 0x7F7 JUMPI PUSH2 0x100 DUP1 DUP4 SLOAD DIV MUL DUP4 MSTORE SWAP2 PUSH1 0x20 ADD SWAP2 PUSH2 0x822 JUMP JUMPDEST DUP3 ADD SWAP2 SWAP1 PUSH1 0x0 MSTORE PUSH1 0x20 PUSH1 0x0 KECCAK256 SWAP1 JUMPDEST DUP2 SLOAD DUP2 MSTORE SWAP1 PUSH1 0x1 ADD SWAP1 PUSH1 0x20 ADD DUP1 DUP4 GT PUSH2 0x805 JUMPI DUP3 SWAP1 SUB PUSH1 0x1F AND DUP3 ADD SWAP2 JUMPDEST POP POP POP POP POP DUP2 MSTORE PUSH1 0x20 ADD PUSH1 0x4 DUP3 ADD DUP1 SLOAD PUSH2 0x83B SWAP1 PUSH2 0x2CFC JUMP JUMPDEST DUP1 PUSH1 0x1F ADD PUSH1 0x20 DUP1 SWAP2 DIV MUL PUSH1 0x20 ADD PUSH1 0x40 MLOAD SWAP1 DUP2 ADD PUSH1 0x40 MSTORE DUP1 SWAP3 SWAP2 SWAP1 DUP2 DUP2 MSTORE PUSH1 0x20 ADD DUP3 DUP1 SLOAD PUSH2 0x867 SWAP1 PUSH2 0x2CFC JUMP JUMPDEST DUP1 ISZERO PUSH2 0x8B4 JUMPI DUP1 PUSH1 0x1F LT PUSH2 0x889 JUMPI PUSH2 0x100 DUP1 DUP4 SLOAD DIV MUL DUP4 MSTORE SWAP2 PUSH1 0x20 ADD SWAP2 PUSH2 0x8B4 JUMP JUMPDEST DUP3 ADD SWAP2 SWAP1 PUSH1 0x0 MSTORE PUSH1 0x20 PUSH1 0x0 KECCAK256 SWAP1 JUMPDEST DUP2 SLOAD DUP2 MSTORE SWAP1 PUSH1 0x1 ADD SWAP1 PUSH1 0x20 ADD DUP1 DUP4 GT PUSH2 0x897 JUMPI DUP3 SWAP1 SUB PUSH1 0x1F AND DUP3 ADD SWAP2 JUMPDEST POP POP POP POP POP DUP2 MSTORE PUSH1 0x20 ADD PUSH1 0x5 DUP3 ADD DUP1 SLOAD PUSH2 0x8CD SWAP1 PUSH2 0x2CFC JUMP JUMPDEST DUP1 PUSH1 0x1F ADD PUSH1 0x20 DUP1 SWAP2 DIV MUL PUSH1 0x20 ADD PUSH1 0x40 MLOAD SWAP1 DUP2 ADD PUSH1 0x40 MSTORE DUP1 SWAP3 SWAP2 SWAP1 DUP2 DUP2 MSTORE PUSH1 0x20 ADD DUP3 DUP1 SLOAD PUSH2 0x8F9 SWAP1 PUSH2 0x2CFC JUMP JUMPDEST DUP1 ISZERO PUSH2 0x946 JUMPI DUP1 PUSH1 0x1F LT PUSH2 0x91B JUMPI PUSH2 0x100 DUP1 DUP4 SLOAD DIV MUL DUP4 MSTORE SWAP2 PUSH1 0x20 ADD SWAP2 PUSH2 0x946 JUMP JUMPDEST DUP3 ADD SWAP2 SWAP1 PUSH1 0x0 MSTORE PUSH1 0x20 PUSH1 0x0 KECCAK256 SWAP1 JUMPDEST DUP2 SLOAD DUP2 MSTORE SWAP1 PUSH1 0x1 ADD SWAP1 PUSH1 0x20 ADD DUP1 DUP4 GT PUSH2 0x929 JUMPI DUP3 SWAP1 SUB PUSH1 0x1F AND DUP3 ADD SWAP2 JUMPDEST POP POP POP POP POP DUP2 MSTORE PUSH1 0x20 ADD PUSH1 0x6 DUP3 ADD DUP1 SLOAD PUSH2 0x95F SWAP1 PUSH2 0x2CFC JUMP JUMPDEST DUP1 PUSH1 0x1F ADD PUSH1 0x20 DUP1 SWAP2 DIV MUL PUSH1 0x20 ADD PUSH1 0x40 MLOAD SWAP1 DUP2 ADD PUSH1 0x40 MSTORE DUP1 SWAP3 SWAP2 SWAP1 DUP2 DUP2 MSTORE PUSH1 0x20 ADD DUP3 DUP1 SLOAD PUSH2 0x98B SWAP1 PUSH2 0x2CFC JUMP JUMPDEST DUP1 ISZERO PUSH2 0x9D8 JUMPI DUP1 PUSH1 0x1F LT PUSH2 0x9AD JUMPI PUSH2 0x100 DUP1 DUP4 SLOAD DIV MUL DUP4 MSTORE SWAP2 PUSH1 0x20 ADD SWAP2 PUSH2 0x9D8 JUMP JUMPDEST DUP3 ADD SWAP2 SWAP1 PUSH1 0x0 MSTORE PUSH1 0x20 PUSH1 0x0 KECCAK256 SWAP1 JUMPDEST DUP2 SLOAD DUP2 MSTORE SWAP1 PUSH1 0x1 ADD SWAP1 PUSH1 0x20 ADD DUP1 DUP4 GT PUSH2 0x9BB JUMPI DUP3 SWAP1 SUB PUSH1 0x1F AND DUP3 ADD SWAP2 JUMPDEST POP POP POP POP POP DUP2 MSTORE PUSH1 0x20 ADD PUSH1 0x7 DUP3 ADD DUP1 SLOAD PUSH2 0x9F1 SWAP1 PUSH2 0x2CFC JUMP JUMPDEST DUP1 PUSH1 0x1F ADD PUSH1 0x20 DUP1 SWAP2 DIV MUL PUSH1 0x20 ADD PUSH1 0x40 MLOAD SWAP1 DUP2 ADD PUSH1 0x40 MSTORE DUP1 SWAP3 SWAP2 SWAP1 DUP2 DUP2 MSTORE PUSH1 0x20 ADD DUP3 DUP1 SLOAD PUSH2 0xA1D SWAP1 PUSH2 0x2CFC JUMP JUMPDEST DUP1 ISZERO PUSH2 0xA6A JUMPI DUP1 PUSH1 0x1F LT PUSH2 0xA3F JUMPI PUSH2 0x100 DUP1 DUP4 SLOAD DIV MUL DUP4 MSTORE SWAP2 PUSH1 0x20 ADD SWAP2 PUSH2 0xA6A JUMP JUMPDEST DUP3 ADD SWAP2 SWAP1 PUSH1 0x0 MSTORE PUSH1 0x20 PUSH1 0x0 KECCAK256 SWAP1 JUMPDEST DUP2 SLOAD DUP2 MSTORE SWAP1 PUSH1 0x1 ADD SWAP1 PUSH1 0x20 ADD DUP1 DUP4 GT PUSH2 0xA4D JUMPI DUP3 SWAP1 SUB PUSH1 0x1F AND DUP3 ADD SWAP2 JUMPDEST POP POP POP POP POP DUP2 MSTORE POP POP SWAP1 POP DUP9 DUP2 PUSH1 0x0 ADD SWAP1 PUSH20 0xFFFFFFFFFFFFFFFFFFFFFFFFFFFFFFFFFFFFFFFF AND SWAP1 DUP2 PUSH20 0xFFFFFFFFFFFFFFFFFFFFFFFFFFFFFFFFFFFFFFFF AND DUP2 MSTORE POP POP DUP8 DUP2 PUSH1 0x20 ADD DUP2 SWAP1 MSTORE POP DUP7 DUP2 PUSH1 0x40 ADD DUP2 DUP2 MSTORE POP POP DUP6 DUP2 PUSH1 0x60 ADD DUP2 SWAP1 MSTORE POP DUP5 DUP2 PUSH1 0x80 ADD DUP2 SWAP1 MSTORE POP DUP4 DUP2 PUSH1 0xA0 ADD DUP2 SWAP1 MSTORE POP DUP3 DUP2 PUSH1 0xC0 ADD DUP2 SWAP1 MSTORE POP DUP2 DUP2 PUSH1 0xE0 ADD DUP2 SWAP1 MSTORE POP PUSH1 0x5 PUSH1 0x0 SWAP1 SLOAD SWAP1 PUSH2 0x100 EXP SWAP1 DIV PUSH20 0xFFFFFFFFFFFFFFFFFFFFFFFFFFFFFFFFFFFFFFFF AND PUSH20 0xFFFFFFFFFFFFFFFFFFFFFFFFFFFFFFFFFFFFFFFF AND PUSH4 0x6D263CEB DUP11 PUSH1 0x40 MLOAD DUP3 PUSH4 0xFFFFFFFF AND PUSH1 0xE0 SHL DUP2 MSTORE PUSH1 0x4 ADD PUSH2 0xB48 SWAP2 SWAP1 PUSH2 0x2FAB JUMP JUMPDEST PUSH1 0x0 PUSH1 0x40 MLOAD DUP1 DUP4 SUB DUP2 PUSH1 0x0 DUP8 DUP1 EXTCODESIZE ISZERO DUP1 ISZERO PUSH2 0xB62 JUMPI PUSH1 0x0 DUP1 REVERT JUMPDEST POP GAS CALL ISZERO DUP1 ISZERO PUSH2 0xB76 JUMPI RETURNDATASIZE PUSH1 0x0 DUP1 RETURNDATACOPY RETURNDATASIZE PUSH1 0x0 REVERT JUMPDEST POP POP POP POP PUSH1 0x6 PUSH1 0x0 SWAP1 SLOAD SWAP1 PUSH2 0x100 EXP SWAP1 DIV PUSH20 0xFFFFFFFFFFFFFFFFFFFFFFFFFFFFFFFFFFFFFFFF AND PUSH20 0xFFFFFFFFFFFFFFFFFFFFFFFFFFFFFFFFFFFFFFFF AND PUSH4 0x8BFC8C71 CALLER DUP12 PUSH1 0x40 MLOAD DUP4 PUSH4 0xFFFFFFFF AND PUSH1 0xE0 SHL DUP2 MSTORE PUSH1 0x4 ADD PUSH2 0xBD7 SWAP3 SWAP2 SWAP1 PUSH2 0x3008 JUMP JUMPDEST PUSH1 0x0 PUSH1 0x40 MLOAD DUP1 DUP4 SUB DUP2 PUSH1 0x0 DUP8 DUP1 EXTCODESIZE ISZERO DUP1 ISZERO PUSH2 0xBF1 JUMPI PUSH1 0x0 DUP1 REVERT JUMPDEST POP GAS CALL ISZERO DUP1 ISZERO PUSH2 0xC05 JUMPI RETURNDATASIZE PUSH1 0x0 DUP1 RETURNDATACOPY RETURNDATASIZE PUSH1 0x0 REVERT JUMPDEST POP POP POP POP POP POP POP POP POP POP POP POP POP JUMP JUMPDEST PUSH1 0x2 PUSH1 0x20 MSTORE DUP1 PUSH1 0x0 MSTORE PUSH1 0x40 PUSH1 0x0 KECCAK256 PUSH1 0x0 SWAP2 POP SWAP1 POP DUP1 PUSH1 0x0 ADD PUSH1 0x0 SWAP1 SLOAD SWAP1 PUSH2 0x100 EXP SWAP1 DIV PUSH20 0xFFFFFFFFFFFFFFFFFFFFFFFFFFFFFFFFFFFFFFFF AND SWAP1 DUP1 PUSH1 0x1 ADD DUP1 SLOAD PUSH2 0xC5D SWAP1 PUSH2 0x2CFC JUMP JUMPDEST DUP1 PUSH1 0x1F ADD PUSH1 0x20 DUP1 SWAP2 DIV MUL PUSH1 0x20 ADD PUSH1 0x40 MLOAD SWAP1 DUP2 ADD PUSH1 0x40 MSTORE DUP1 SWAP3 SWAP2 SWAP1 DUP2 DUP2 MSTORE PUSH1 0x20 ADD DUP3 DUP1 SLOAD PUSH2 0xC89 SWAP1 PUSH2 0x2CFC JUMP JUMPDEST DUP1 ISZERO PUSH2 0xCD6 JUMPI DUP1 PUSH1 0x1F LT PUSH2 0xCAB JUMPI PUSH2 0x100 DUP1 DUP4 SLOAD DIV MUL DUP4 MSTORE SWAP2 PUSH1 0x20 ADD SWAP2 PUSH2 0xCD6 JUMP JUMPDEST DUP3 ADD SWAP2 SWAP1 PUSH1 0x0 MSTORE PUSH1 0x20 PUSH1 0x0 KECCAK256 SWAP1 JUMPDEST DUP2 SLOAD DUP2 MSTORE SWAP1 PUSH1 0x1 ADD SWAP1 PUSH1 0x20 ADD DUP1 DUP4 GT PUSH2 0xCB9 JUMPI DUP3 SWAP1 SUB PUSH1 0x1F AND DUP3 ADD SWAP2 JUMPDEST POP POP POP POP POP SWAP1 DUP1 PUSH1 0x2 ADD SLOAD SWAP1 DUP1 PUSH1 0x3 ADD DUP1 SLOAD PUSH2 0xCF1 SWAP1 PUSH2 0x2CFC JUMP JUMPDEST DUP1 PUSH1 0x1F ADD PUSH1 0x20 DUP1 SWAP2 DIV MUL PUSH1 0x20 ADD PUSH1 0x40 MLOAD SWAP1 DUP2 ADD PUSH1 0x40 MSTORE DUP1 SWAP3 SWAP2 SWAP1 DUP2 DUP2 MSTORE PUSH1 0x20 ADD DUP3 DUP1 SLOAD PUSH2 0xD1D SWAP1 PUSH2 0x2CFC JUMP JUMPDEST DUP1 ISZERO PUSH2 0xD6A JUMPI DUP1 PUSH1 0x1F LT PUSH2 0xD3F JUMPI PUSH2 0x100 DUP1 DUP4 SLOAD DIV MUL DUP4 MSTORE SWAP2 PUSH1 0x20 ADD SWAP2 PUSH2 0xD6A JUMP JUMPDEST DUP3 ADD SWAP2 SWAP1 PUSH1 0x0 MSTORE PUSH1 0x20 PUSH1 0x0 KECCAK256 SWAP1 JUMPDEST DUP2 SLOAD DUP2 MSTORE SWAP1 PUSH1 0x1 ADD SWAP1 PUSH1 0x20 ADD DUP1 DUP4 GT PUSH2 0xD4D JUMPI DUP3 SWAP1 SUB PUSH1 0x1F AND DUP3 ADD SWAP2 JUMPDEST POP POP POP POP POP SWAP1 POP DUP5 JUMP JUMPDEST PUSH2 0xD7C PUSH2 0x20CE JUMP JUMPDEST PUSH1 0x4 PUSH1 0x0 SWAP1 SLOAD SWAP1 PUSH2 0x100 EXP SWAP1 DIV PUSH20 0xFFFFFFFFFFFFFFFFFFFFFFFFFFFFFFFFFFFFFFFF AND PUSH20 0xFFFFFFFFFFFFFFFFFFFFFFFFFFFFFFFFFFFFFFFF AND PUSH4 0x63A9C3D7 CALLER PUSH1 0x40 MLOAD DUP3 PUSH4 0xFFFFFFFF AND PUSH1 0xE0 SHL DUP2 MSTORE PUSH1 0x4 ADD PUSH2 0xDD7 SWAP2 SWAP1 PUSH2 0x2FAB JUMP JUMPDEST PUSH1 0x20 PUSH1 0x40 MLOAD DUP1 DUP4 SUB DUP2 DUP7 GAS STATICCALL ISZERO DUP1 ISZERO PUSH2 0xDF4 JUMPI RETURNDATASIZE PUSH1 0x0 DUP1 RETURNDATACOPY RETURNDATASIZE PUSH1 0x0 REVERT JUMPDEST POP POP POP POP PUSH1 0x40 MLOAD RETURNDATASIZE PUSH1 0x1F NOT PUSH1 0x1F DUP3 ADD AND DUP3 ADD DUP1 PUSH1 0x40 MSTORE POP DUP2 ADD SWAP1 PUSH2 0xE18 SWAP2 SWAP1 PUSH2 0x2FDB JUMP JUMPDEST DUP1 PUSH2 0xEBB JUMPI POP PUSH1 0x5 PUSH1 0x0 SWAP1 SLOAD SWAP1 PUSH2 0x100 EXP SWAP1 DIV PUSH20 0xFFFFFFFFFFFFFFFFFFFFFFFFFFFFFFFFFFFFFFFF AND PUSH20 0xFFFFFFFFFFFFFFFFFFFFFFFFFFFFFFFFFFFFFFFF AND PUSH4 0x63A9C3D7 CALLER PUSH1 0x40 MLOAD DUP3 PUSH4 0xFFFFFFFF AND PUSH1 0xE0 SHL DUP2 MSTORE PUSH1 0x4 ADD PUSH2 0xE79 SWAP2 SWAP1 PUSH2 0x2FAB JUMP JUMPDEST PUSH1 0x20 PUSH1 0x40 MLOAD DUP1 DUP4 SUB DUP2 DUP7 GAS STATICCALL ISZERO DUP1 ISZERO PUSH2 0xE96 JUMPI RETURNDATASIZE PUSH1 0x0 DUP1 RETURNDATACOPY RETURNDATASIZE PUSH1 0x0 REVERT JUMPDEST POP POP POP POP PUSH1 0x40 MLOAD RETURNDATASIZE PUSH1 0x1F NOT PUSH1 0x1F DUP3 ADD AND DUP3 ADD DUP1 PUSH1 0x40 MSTORE POP DUP2 ADD SWAP1 PUSH2 0xEBA SWAP2 SWAP1 PUSH2 0x2FDB JUMP JUMPDEST JUMPDEST PUSH2 0xEC4 JUMPI PUSH1 0x0 DUP1 REVERT JUMPDEST PUSH1 0x0 DUP1 DUP4 PUSH20 0xFFFFFFFFFFFFFFFFFFFFFFFFFFFFFFFFFFFFFFFF AND PUSH20 0xFFFFFFFFFFFFFFFFFFFFFFFFFFFFFFFFFFFFFFFF AND DUP2 MSTORE PUSH1 0x20 ADD SWAP1 DUP2 MSTORE PUSH1 0x20 ADD PUSH1 0x0 KECCAK256 PUSH1 0x40 MLOAD DUP1 PUSH2 0x100 ADD PUSH1 0x40 MSTORE SWAP1 DUP2 PUSH1 0x0 DUP3 ADD PUSH1 0x0 SWAP1 SLOAD SWAP1 PUSH2 0x100 EXP SWAP1 DIV PUSH20 0xFFFFFFFFFFFFFFFFFFFFFFFFFFFFFFFFFFFFFFFF AND PUSH20 0xFFFFFFFFFFFFFFFFFFFFFFFFFFFFFFFFFFFFFFFF AND PUSH20 0xFFFFFFFFFFFFFFFFFFFFFFFFFFFFFFFFFFFFFFFF AND DUP2 MSTORE PUSH1 0x20 ADD PUSH1 0x1 DUP3 ADD DUP1 SLOAD PUSH2 0xF74 SWAP1 PUSH2 0x2CFC JUMP JUMPDEST DUP1 PUSH1 0x1F ADD PUSH1 0x20 DUP1 SWAP2 DIV MUL PUSH1 0x20 ADD PUSH1 0x40 MLOAD SWAP1 DUP2 ADD PUSH1 0x40 MSTORE DUP1 SWAP3 SWAP2 SWAP1 DUP2 DUP2 MSTORE PUSH1 0x20 ADD DUP3 DUP1 SLOAD PUSH2 0xFA0 SWAP1 PUSH2 0x2CFC JUMP JUMPDEST DUP1 ISZERO PUSH2 0xFED JUMPI DUP1 PUSH1 0x1F LT PUSH2 0xFC2 JUMPI PUSH2 0x100 DUP1 DUP4 SLOAD DIV MUL DUP4 MSTORE SWAP2 PUSH1 0x20 ADD SWAP2 PUSH2 0xFED JUMP JUMPDEST DUP3 ADD SWAP2 SWAP1 PUSH1 0x0 MSTORE PUSH1 0x20 PUSH1 0x0 KECCAK256 SWAP1 JUMPDEST DUP2 SLOAD DUP2 MSTORE SWAP1 PUSH1 0x1 ADD SWAP1 PUSH1 0x20 ADD DUP1 DUP4 GT PUSH2 0xFD0 JUMPI DUP3 SWAP1 SUB PUSH1 0x1F AND DUP3 ADD SWAP2 JUMPDEST POP POP POP POP POP DUP2 MSTORE PUSH1 0x20 ADD PUSH1 0x2 DUP3 ADD SLOAD DUP2 MSTORE PUSH1 0x20 ADD PUSH1 0x3 DUP3 ADD DUP1 SLOAD PUSH2 0x1010 SWAP1 PUSH2 0x2CFC JUMP JUMPDEST DUP1 PUSH1 0x1F ADD PUSH1 0x20 DUP1 SWAP2 DIV MUL PUSH1 0x20 ADD PUSH1 0x40 MLOAD SWAP1 DUP2 ADD PUSH1 0x40 MSTORE DUP1 SWAP3 SWAP2 SWAP1 DUP2 DUP2 MSTORE PUSH1 0x20 ADD DUP3 DUP1 SLOAD PUSH2 0x103C SWAP1 PUSH2 0x2CFC JUMP JUMPDEST DUP1 ISZERO PUSH2 0x1089 JUMPI DUP1 PUSH1 0x1F LT PUSH2 0x105E JUMPI PUSH2 0x100 DUP1 DUP4 SLOAD DIV MUL DUP4 MSTORE SWAP2 PUSH1 0x20 ADD SWAP2 PUSH2 0x1089 JUMP JUMPDEST DUP3 ADD SWAP2 SWAP1 PUSH1 0x0 MSTORE PUSH1 0x20 PUSH1 0x0 KECCAK256 SWAP1 JUMPDEST DUP2 SLOAD DUP2 MSTORE SWAP1 PUSH1 0x1 ADD SWAP1 PUSH1 0x20 ADD DUP1 DUP4 GT PUSH2 0x106C JUMPI DUP3 SWAP1 SUB PUSH1 0x1F AND DUP3 ADD SWAP2 JUMPDEST POP POP POP POP POP DUP2 MSTORE PUSH1 0x20 ADD PUSH1 0x4 DUP3 ADD DUP1 SLOAD PUSH2 0x10A2 SWAP1 PUSH2 0x2CFC JUMP JUMPDEST DUP1 PUSH1 0x1F ADD PUSH1 0x20 DUP1 SWAP2 DIV MUL PUSH1 0x20 ADD PUSH1 0x40 MLOAD SWAP1 DUP2 ADD PUSH1 0x40 MSTORE DUP1 SWAP3 SWAP2 SWAP1 DUP2 DUP2 MSTORE PUSH1 0x20 ADD DUP3 DUP1 SLOAD PUSH2 0x10CE SWAP1 PUSH2 0x2CFC JUMP JUMPDEST DUP1 ISZERO PUSH2 0x111B JUMPI DUP1 PUSH1 0x1F LT PUSH2 0x10F0 JUMPI PUSH2 0x100 DUP1 DUP4 SLOAD DIV MUL DUP4 MSTORE SWAP2 PUSH1 0x20 ADD SWAP2 PUSH2 0x111B JUMP JUMPDEST DUP3 ADD SWAP2 SWAP1 PUSH1 0x0 MSTORE PUSH1 0x20 PUSH1 0x0 KECCAK256 SWAP1 JUMPDEST DUP2 SLOAD DUP2 MSTORE SWAP1 PUSH1 0x1 ADD SWAP1 PUSH1 0x20 ADD DUP1 DUP4 GT PUSH2 0x10FE JUMPI DUP3 SWAP1 SUB PUSH1 0x1F AND DUP3 ADD SWAP2 JUMPDEST POP POP POP POP POP DUP2 MSTORE PUSH1 0x20 ADD PUSH1 0x5 DUP3 ADD DUP1 SLOAD PUSH2 0x1134 SWAP1 PUSH2 0x2CFC JUMP JUMPDEST DUP1 PUSH1 0x1F ADD PUSH1 0x20 DUP1 SWAP2 DIV MUL PUSH1 0x20 ADD PUSH1 0x40 MLOAD SWAP1 DUP2 ADD PUSH1 0x40 MSTORE DUP1 SWAP3 SWAP2 SWAP1 DUP2 DUP2 MSTORE PUSH1 0x20 ADD DUP3 DUP1 SLOAD PUSH2 0x1160 SWAP1 PUSH2 0x2CFC JUMP JUMPDEST DUP1 ISZERO PUSH2 0x11AD JUMPI DUP1 PUSH1 0x1F LT PUSH2 0x1182 JUMPI PUSH2 0x100 DUP1 DUP4 SLOAD DIV MUL DUP4 MSTORE SWAP2 PUSH1 0x20 ADD SWAP2 PUSH2 0x11AD JUMP JUMPDEST DUP3 ADD SWAP2 SWAP1 PUSH1 0x0 MSTORE PUSH1 0x20 PUSH1 0x0 KECCAK256 SWAP1 JUMPDEST DUP2 SLOAD DUP2 MSTORE SWAP1 PUSH1 0x1 ADD SWAP1 PUSH1 0x20 ADD DUP1 DUP4 GT PUSH2 0x1190 JUMPI DUP3 SWAP1 SUB PUSH1 0x1F AND DUP3 ADD SWAP2 JUMPDEST POP POP POP POP POP DUP2 MSTORE PUSH1 0x20 ADD PUSH1 0x6 DUP3 ADD DUP1 SLOAD PUSH2 0x11C6 SWAP1 PUSH2 0x2CFC JUMP JUMPDEST DUP1 PUSH1 0x1F ADD PUSH1 0x20 DUP1 SWAP2 DIV MUL PUSH1 0x20 ADD PUSH1 0x40 MLOAD SWAP1 DUP2 ADD PUSH1 0x40 MSTORE DUP1 SWAP3 SWAP2 SWAP1 DUP2 DUP2 MSTORE PUSH1 0x20 ADD DUP3 DUP1 SLOAD PUSH2 0x11F2 SWAP1 PUSH2 0x2CFC JUMP JUMPDEST DUP1 ISZERO PUSH2 0x123F JUMPI DUP1 PUSH1 0x1F LT PUSH2 0x1214 JUMPI PUSH2 0x100 DUP1 DUP4 SLOAD DIV MUL DUP4 MSTORE SWAP2 PUSH1 0x20 ADD SWAP2 PUSH2 0x123F JUMP JUMPDEST DUP3 ADD SWAP2 SWAP1 PUSH1 0x0 MSTORE PUSH1 0x20 PUSH1 0x0 KECCAK256 SWAP1 JUMPDEST DUP2 SLOAD DUP2 MSTORE SWAP1 PUSH1 0x1 ADD SWAP1 PUSH1 0x20 ADD DUP1 DUP4 GT PUSH2 0x1222 JUMPI DUP3 SWAP1 SUB PUSH1 0x1F AND DUP3 ADD SWAP2 JUMPDEST POP POP POP POP POP DUP2 MSTORE PUSH1 0x20 ADD PUSH1 0x7 DUP3 ADD DUP1 SLOAD PUSH2 0x1258 SWAP1 PUSH2 0x2CFC JUMP JUMPDEST DUP1 PUSH1 0x1F ADD PUSH1 0x20 DUP1 SWAP2 DIV MUL PUSH1 0x20 ADD PUSH1 0x40 MLOAD SWAP1 DUP2 ADD PUSH1 0x40 MSTORE DUP1 SWAP3 SWAP2 SWAP1 DUP2 DUP2 MSTORE PUSH1 0x20 ADD DUP3 DUP1 SLOAD PUSH2 0x1284 SWAP1 PUSH2 0x2CFC JUMP JUMPDEST DUP1 ISZERO PUSH2 0x12D1 JUMPI DUP1 PUSH1 0x1F LT PUSH2 0x12A6 JUMPI PUSH2 0x100 DUP1 DUP4 SLOAD DIV MUL DUP4 MSTORE SWAP2 PUSH1 0x20 ADD SWAP2 PUSH2 0x12D1 JUMP JUMPDEST DUP3 ADD SWAP2 SWAP1 PUSH1 0x0 MSTORE PUSH1 0x20 PUSH1 0x0 KECCAK256 SWAP1 JUMPDEST DUP2 SLOAD DUP2 MSTORE SWAP1 PUSH1 0x1 ADD SWAP1 PUSH1 0x20 ADD DUP1 DUP4 GT PUSH2 0x12B4 JUMPI DUP3 SWAP1 SUB PUSH1 0x1F AND DUP3 ADD SWAP2 JUMPDEST POP POP POP POP POP DUP2 MSTORE POP POP SWAP1 POP SWAP2 SWAP1 POP JUMP JUMPDEST PUSH1 0x0 DUP1 PUSH1 0x0 DUP11 PUSH20 0xFFFFFFFFFFFFFFFFFFFFFFFFFFFFFFFFFFFFFFFF AND PUSH20 0xFFFFFFFFFFFFFFFFFFFFFFFFFFFFFFFFFFFFFFFF AND DUP2 MSTORE PUSH1 0x20 ADD SWAP1 DUP2 MSTORE PUSH1 0x20 ADD PUSH1 0x0 KECCAK256 SWAP1 POP DUP8 DUP2 PUSH1 0x1 ADD SWAP1 DUP2 PUSH2 0x1334 SWAP2 SWAP1 PUSH2 0x2ED9 JUMP JUMPDEST POP DUP7 DUP2 PUSH1 0x2 ADD DUP2 SWAP1 SSTORE POP DUP6 DUP2 PUSH1 0x3 ADD SWAP1 DUP2 PUSH2 0x134F SWAP2 SWAP1 PUSH2 0x2ED9 JUMP JUMPDEST POP DUP5 DUP2 PUSH1 0x4 ADD SWAP1 DUP2 PUSH2 0x1361 SWAP2 SWAP1 PUSH2 0x2ED9 JUMP JUMPDEST POP DUP4 DUP2 PUSH1 0x5 ADD SWAP1 DUP2 PUSH2 0x1373 SWAP2 SWAP1 PUSH2 0x2ED9 JUMP JUMPDEST POP DUP3 DUP2 PUSH1 0x6 ADD SWAP1 DUP2 PUSH2 0x1385 SWAP2 SWAP1 PUSH2 0x2ED9 JUMP JUMPDEST POP DUP2 DUP2 PUSH1 0x7 ADD SWAP1 DUP2 PUSH2 0x1397 SWAP2 SWAP1 PUSH2 0x2ED9 JUMP JUMPDEST POP POP POP POP POP POP POP POP POP POP JUMP JUMPDEST DUP1 PUSH1 0x5 PUSH1 0x0 PUSH2 0x100 EXP DUP2 SLOAD DUP2 PUSH20 0xFFFFFFFFFFFFFFFFFFFFFFFFFFFFFFFFFFFFFFFF MUL NOT AND SWAP1 DUP4 PUSH20 0xFFFFFFFFFFFFFFFFFFFFFFFFFFFFFFFFFFFFFFFF AND MUL OR SWAP1 SSTORE POP POP JUMP JUMPDEST DUP1 PUSH1 0x6 PUSH1 0x0 PUSH2 0x100 EXP DUP2 SLOAD DUP2 PUSH20 0xFFFFFFFFFFFFFFFFFFFFFFFFFFFFFFFFFFFFFFFF MUL NOT AND SWAP1 DUP4 PUSH20 0xFFFFFFFFFFFFFFFFFFFFFFFFFFFFFFFFFFFFFFFF AND MUL OR SWAP1 SSTORE POP POP JUMP JUMPDEST PUSH2 0x1433 PUSH2 0x2025 JUMP JUMPDEST PUSH2 0x143B PUSH2 0x2063 JUMP JUMPDEST PUSH1 0x2 PUSH1 0x0 DUP5 PUSH20 0xFFFFFFFFFFFFFFFFFFFFFFFFFFFFFFFFFFFFFFFF AND PUSH20 0xFFFFFFFFFFFFFFFFFFFFFFFFFFFFFFFFFFFFFFFF AND DUP2 MSTORE PUSH1 0x20 ADD SWAP1 DUP2 MSTORE PUSH1 0x20 ADD PUSH1 0x0 KECCAK256 PUSH1 0x1 PUSH1 0x0 DUP6 PUSH20 0xFFFFFFFFFFFFFFFFFFFFFFFFFFFFFFFFFFFFFFFF AND PUSH20 0xFFFFFFFFFFFFFFFFFFFFFFFFFFFFFFFFFFFFFFFF AND DUP2 MSTORE PUSH1 0x20 ADD SWAP1 DUP2 MSTORE PUSH1 0x20 ADD PUSH1 0x0 KECCAK256 DUP2 PUSH1 0x40 MLOAD DUP1 PUSH1 0x80 ADD PUSH1 0x40 MSTORE SWAP1 DUP2 PUSH1 0x0 DUP3 ADD PUSH1 0x0 SWAP1 SLOAD SWAP1 PUSH2 0x100 EXP SWAP1 DIV PUSH20 0xFFFFFFFFFFFFFFFFFFFFFFFFFFFFFFFFFFFFFFFF AND PUSH20 0xFFFFFFFFFFFFFFFFFFFFFFFFFFFFFFFFFFFFFFFF AND PUSH20 0xFFFFFFFFFFFFFFFFFFFFFFFFFFFFFFFFFFFFFFFF AND DUP2 MSTORE PUSH1 0x20 ADD PUSH1 0x1 DUP3 ADD DUP1 SLOAD PUSH2 0x152B SWAP1 PUSH2 0x2CFC JUMP JUMPDEST DUP1 PUSH1 0x1F ADD PUSH1 0x20 DUP1 SWAP2 DIV MUL PUSH1 0x20 ADD PUSH1 0x40 MLOAD SWAP1 DUP2 ADD PUSH1 0x40 MSTORE DUP1 SWAP3 SWAP2 SWAP1 DUP2 DUP2 MSTORE PUSH1 0x20 ADD DUP3 DUP1 SLOAD PUSH2 0x1557 SWAP1 PUSH2 0x2CFC JUMP JUMPDEST DUP1 ISZERO PUSH2 0x15A4 JUMPI DUP1 PUSH1 0x1F LT PUSH2 0x1579 JUMPI PUSH2 0x100 DUP1 DUP4 SLOAD DIV MUL DUP4 MSTORE SWAP2 PUSH1 0x20 ADD SWAP2 PUSH2 0x15A4 JUMP JUMPDEST DUP3 ADD SWAP2 SWAP1 PUSH1 0x0 MSTORE PUSH1 0x20 PUSH1 0x0 KECCAK256 SWAP1 JUMPDEST DUP2 SLOAD DUP2 MSTORE SWAP1 PUSH1 0x1 ADD SWAP1 PUSH1 0x20 ADD DUP1 DUP4 GT PUSH2 0x1587 JUMPI DUP3 SWAP1 SUB PUSH1 0x1F AND DUP3 ADD SWAP2 JUMPDEST POP POP POP POP POP DUP2 MSTORE PUSH1 0x20 ADD PUSH1 0x2 DUP3 ADD SLOAD DUP2 MSTORE PUSH1 0x20 ADD PUSH1 0x3 DUP3 ADD DUP1 SLOAD PUSH2 0x15C7 SWAP1 PUSH2 0x2CFC JUMP JUMPDEST DUP1 PUSH1 0x1F ADD PUSH1 0x20 DUP1 SWAP2 DIV MUL PUSH1 0x20 ADD PUSH1 0x40 MLOAD SWAP1 DUP2 ADD PUSH1 0x40 MSTORE DUP1 SWAP3 SWAP2 SWAP1 DUP2 DUP2 MSTORE PUSH1 0x20 ADD DUP3 DUP1 SLOAD PUSH2 0x15F3 SWAP1 PUSH2 0x2CFC JUMP JUMPDEST DUP1 ISZERO PUSH2 0x1640 JUMPI DUP1 PUSH1 0x1F LT PUSH2 0x1615 JUMPI PUSH2 0x100 DUP1 DUP4 SLOAD DIV MUL DUP4 MSTORE SWAP2 PUSH1 0x20 ADD SWAP2 PUSH2 0x1640 JUMP JUMPDEST DUP3 ADD SWAP2 SWAP1 PUSH1 0x0 MSTORE PUSH1 0x20 PUSH1 0x0 KECCAK256 SWAP1 JUMPDEST DUP2 SLOAD DUP2 MSTORE SWAP1 PUSH1 0x1 ADD SWAP1 PUSH1 0x20 ADD DUP1 DUP4 GT PUSH2 0x1623 JUMPI DUP3 SWAP1 SUB PUSH1 0x1F AND DUP3 ADD SWAP2 JUMPDEST POP POP POP POP POP DUP2 MSTORE POP POP SWAP2 POP DUP1 PUSH1 0x40 MLOAD DUP1 PUSH2 0x140 ADD PUSH1 0x40 MSTORE SWAP1 DUP2 PUSH1 0x0 DUP3 ADD PUSH1 0x0 SWAP1 SLOAD SWAP1 PUSH2 0x100 EXP SWAP1 DIV PUSH20 0xFFFFFFFFFFFFFFFFFFFFFFFFFFFFFFFFFFFFFFFF AND PUSH20 0xFFFFFFFFFFFFFFFFFFFFFFFFFFFFFFFFFFFFFFFF AND PUSH20 0xFFFFFFFFFFFFFFFFFFFFFFFFFFFFFFFFFFFFFFFF AND DUP2 MSTORE PUSH1 0x20 ADD PUSH1 0x1 DUP3 ADD DUP1 SLOAD PUSH2 0x16BE SWAP1 PUSH2 0x2CFC JUMP JUMPDEST DUP1 PUSH1 0x1F ADD PUSH1 0x20 DUP1 SWAP2 DIV MUL PUSH1 0x20 ADD PUSH1 0x40 MLOAD SWAP1 DUP2 ADD PUSH1 0x40 MSTORE DUP1 SWAP3 SWAP2 SWAP1 DUP2 DUP2 MSTORE PUSH1 0x20 ADD DUP3 DUP1 SLOAD PUSH2 0x16EA SWAP1 PUSH2 0x2CFC JUMP JUMPDEST DUP1 ISZERO PUSH2 0x1737 JUMPI DUP1 PUSH1 0x1F LT PUSH2 0x170C JUMPI PUSH2 0x100 DUP1 DUP4 SLOAD DIV MUL DUP4 MSTORE SWAP2 PUSH1 0x20 ADD SWAP2 PUSH2 0x1737 JUMP JUMPDEST DUP3 ADD SWAP2 SWAP1 PUSH1 0x0 MSTORE PUSH1 0x20 PUSH1 0x0 KECCAK256 SWAP1 JUMPDEST DUP2 SLOAD DUP2 MSTORE SWAP1 PUSH1 0x1 ADD SWAP1 PUSH1 0x20 ADD DUP1 DUP4 GT PUSH2 0x171A JUMPI DUP3 SWAP1 SUB PUSH1 0x1F AND DUP3 ADD SWAP2 JUMPDEST POP POP POP POP POP DUP2 MSTORE PUSH1 0x20 ADD PUSH1 0x2 DUP3 ADD DUP1 SLOAD PUSH2 0x1750 SWAP1 PUSH2 0x2CFC JUMP JUMPDEST DUP1 PUSH1 0x1F ADD PUSH1 0x20 DUP1 SWAP2 DIV MUL PUSH1 0x20 ADD PUSH1 0x40 MLOAD SWAP1 DUP2 ADD PUSH1 0x40 MSTORE DUP1 SWAP3 SWAP2 SWAP1 DUP2 DUP2 MSTORE PUSH1 0x20 ADD DUP3 DUP1 SLOAD PUSH2 0x177C SWAP1 PUSH2 0x2CFC JUMP JUMPDEST DUP1 ISZERO PUSH2 0x17C9 JUMPI DUP1 PUSH1 0x1F LT PUSH2 0x179E JUMPI PUSH2 0x100 DUP1 DUP4 SLOAD DIV MUL DUP4 MSTORE SWAP2 PUSH1 0x20 ADD SWAP2 PUSH2 0x17C9 JUMP JUMPDEST DUP3 ADD SWAP2 SWAP1 PUSH1 0x0 MSTORE PUSH1 0x20 PUSH1 0x0 KECCAK256 SWAP1 JUMPDEST DUP2 SLOAD DUP2 MSTORE SWAP1 PUSH1 0x1 ADD SWAP1 PUSH1 0x20 ADD DUP1 DUP4 GT PUSH2 0x17AC JUMPI DUP3 SWAP1 SUB PUSH1 0x1F AND DUP3 ADD SWAP2 JUMPDEST POP POP POP POP POP DUP2 MSTORE PUSH1 0x20 ADD PUSH1 0x3 DUP3 ADD DUP1 SLOAD PUSH2 0x17E2 SWAP1 PUSH2 0x2CFC JUMP JUMPDEST DUP1 PUSH1 0x1F ADD PUSH1 0x20 DUP1 SWAP2 DIV MUL PUSH1 0x20 ADD PUSH1 0x40 MLOAD SWAP1 DUP2 ADD PUSH1 0x40 MSTORE DUP1 SWAP3 SWAP2 SWAP1 DUP2 DUP2 MSTORE PUSH1 0x20 ADD DUP3 DUP1 SLOAD PUSH2 0x180E SWAP1 PUSH2 0x2CFC JUMP JUMPDEST DUP1 ISZERO PUSH2 0x185B JUMPI DUP1 PUSH1 0x1F LT PUSH2 0x1830 JUMPI PUSH2 0x100 DUP1 DUP4 SLOAD DIV MUL DUP4 MSTORE SWAP2 PUSH1 0x20 ADD SWAP2 PUSH2 0x185B JUMP JUMPDEST DUP3 ADD SWAP2 SWAP1 PUSH1 0x0 MSTORE PUSH1 0x20 PUSH1 0x0 KECCAK256 SWAP1 JUMPDEST DUP2 SLOAD DUP2 MSTORE SWAP1 PUSH1 0x1 ADD SWAP1 PUSH1 0x20 ADD DUP1 DUP4 GT PUSH2 0x183E JUMPI DUP3 SWAP1 SUB PUSH1 0x1F AND DUP3 ADD SWAP2 JUMPDEST POP POP POP POP POP DUP2 MSTORE PUSH1 0x20 ADD PUSH1 0x4 DUP3 ADD DUP1 SLOAD PUSH2 0x1874 SWAP1 PUSH2 0x2CFC JUMP JUMPDEST DUP1 PUSH1 0x1F ADD PUSH1 0x20 DUP1 SWAP2 DIV MUL PUSH1 0x20 ADD PUSH1 0x40 MLOAD SWAP1 DUP2 ADD PUSH1 0x40 MSTORE DUP1 SWAP3 SWAP2 SWAP1 DUP2 DUP2 MSTORE PUSH1 0x20 ADD DUP3 DUP1 SLOAD PUSH2 0x18A0 SWAP1 PUSH2 0x2CFC JUMP JUMPDEST DUP1 ISZERO PUSH2 0x18ED JUMPI DUP1 PUSH1 0x1F LT PUSH2 0x18C2 JUMPI PUSH2 0x100 DUP1 DUP4 SLOAD DIV MUL DUP4 MSTORE SWAP2 PUSH1 0x20 ADD SWAP2 PUSH2 0x18ED JUMP JUMPDEST DUP3 ADD SWAP2 SWAP1 PUSH1 0x0 MSTORE PUSH1 0x20 PUSH1 0x0 KECCAK256 SWAP1 JUMPDEST DUP2 SLOAD DUP2 MSTORE SWAP1 PUSH1 0x1 ADD SWAP1 PUSH1 0x20 ADD DUP1 DUP4 GT PUSH2 0x18D0 JUMPI DUP3 SWAP1 SUB PUSH1 0x1F AND DUP3 ADD SWAP2 JUMPDEST POP POP POP POP POP DUP2 MSTORE PUSH1 0x20 ADD PUSH1 0x5 DUP3 ADD DUP1 SLOAD PUSH2 0x1906 SWAP1 PUSH2 0x2CFC JUMP JUMPDEST DUP1 PUSH1 0x1F ADD PUSH1 0x20 DUP1 SWAP2 DIV MUL PUSH1 0x20 ADD PUSH1 0x40 MLOAD SWAP1 DUP2 ADD PUSH1 0x40 MSTORE DUP1 SWAP3 SWAP2 SWAP1 DUP2 DUP2 MSTORE PUSH1 0x20 ADD DUP3 DUP1 SLOAD PUSH2 0x1932 SWAP1 PUSH2 0x2CFC JUMP JUMPDEST DUP1 ISZERO PUSH2 0x197F JUMPI DUP1 PUSH1 0x1F LT PUSH2 0x1954 JUMPI PUSH2 0x100 DUP1 DUP4 SLOAD DIV MUL DUP4 MSTORE SWAP2 PUSH1 0x20 ADD SWAP2 PUSH2 0x197F JUMP JUMPDEST DUP3 ADD SWAP2 SWAP1 PUSH1 0x0 MSTORE PUSH1 0x20 PUSH1 0x0 KECCAK256 SWAP1 JUMPDEST DUP2 SLOAD DUP2 MSTORE SWAP1 PUSH1 0x1 ADD SWAP1 PUSH1 0x20 ADD DUP1 DUP4 GT PUSH2 0x1962 JUMPI DUP3 SWAP1 SUB PUSH1 0x1F AND DUP3 ADD SWAP2 JUMPDEST POP POP POP POP POP DUP2 MSTORE PUSH1 0x20 ADD PUSH1 0x6 DUP3 ADD DUP1 SLOAD PUSH2 0x1998 SWAP1 PUSH2 0x2CFC JUMP JUMPDEST DUP1 PUSH1 0x1F ADD PUSH1 0x20 DUP1 SWAP2 DIV MUL PUSH1 0x20 ADD PUSH1 0x40 MLOAD SWAP1 DUP2 ADD PUSH1 0x40 MSTORE DUP1 SWAP3 SWAP2 SWAP1 DUP2 DUP2 MSTORE PUSH1 0x20 ADD DUP3 DUP1 SLOAD PUSH2 0x19C4 SWAP1 PUSH2 0x2CFC JUMP JUMPDEST DUP1 ISZERO PUSH2 0x1A11 JUMPI DUP1 PUSH1 0x1F LT PUSH2 0x19E6 JUMPI PUSH2 0x100 DUP1 DUP4 SLOAD DIV MUL DUP4 MSTORE SWAP2 PUSH1 0x20 ADD SWAP2 PUSH2 0x1A11 JUMP JUMPDEST DUP3 ADD SWAP2 SWAP1 PUSH1 0x0 MSTORE PUSH1 0x20 PUSH1 0x0 KECCAK256 SWAP1 JUMPDEST DUP2 SLOAD DUP2 MSTORE SWAP1 PUSH1 0x1 ADD SWAP1 PUSH1 0x20 ADD DUP1 DUP4 GT PUSH2 0x19F4 JUMPI DUP3 SWAP1 SUB PUSH1 0x1F AND DUP3 ADD SWAP2 JUMPDEST POP POP POP POP POP DUP2 MSTORE PUSH1 0x20 ADD PUSH1 0x7 DUP3 ADD DUP1 SLOAD PUSH2 0x1A2A SWAP1 PUSH2 0x2CFC JUMP JUMPDEST DUP1 PUSH1 0x1F ADD PUSH1 0x20 DUP1 SWAP2 DIV MUL PUSH1 0x20 ADD PUSH1 0x40 MLOAD SWAP1 DUP2 ADD PUSH1 0x40 MSTORE DUP1 SWAP3 SWAP2 SWAP1 DUP2 DUP2 MSTORE PUSH1 0x20 ADD DUP3 DUP1 SLOAD PUSH2 0x1A56 SWAP1 PUSH2 0x2CFC JUMP JUMPDEST DUP1 ISZERO PUSH2 0x1AA3 JUMPI DUP1 PUSH1 0x1F LT PUSH2 0x1A78 JUMPI PUSH2 0x100 DUP1 DUP4 SLOAD DIV MUL DUP4 MSTORE SWAP2 PUSH1 0x20 ADD SWAP2 PUSH2 0x1AA3 JUMP JUMPDEST DUP3 ADD SWAP2 SWAP1 PUSH1 0x0 MSTORE PUSH1 0x20 PUSH1 0x0 KECCAK256 SWAP1 JUMPDEST DUP2 SLOAD DUP2 MSTORE SWAP1 PUSH1 0x1 ADD SWAP1 PUSH1 0x20 ADD DUP1 DUP4 GT PUSH2 0x1A86 JUMPI DUP3 SWAP1 SUB PUSH1 0x1F AND DUP3 ADD SWAP2 JUMPDEST POP POP POP POP POP DUP2 MSTORE PUSH1 0x20 ADD PUSH1 0x8 DUP3 ADD DUP1 SLOAD PUSH2 0x1ABC SWAP1 PUSH2 0x2CFC JUMP JUMPDEST DUP1 PUSH1 0x1F ADD PUSH1 0x20 DUP1 SWAP2 DIV MUL PUSH1 0x20 ADD PUSH1 0x40 MLOAD SWAP1 DUP2 ADD PUSH1 0x40 MSTORE DUP1 SWAP3 SWAP2 SWAP1 DUP2 DUP2 MSTORE PUSH1 0x20 ADD DUP3 DUP1 SLOAD PUSH2 0x1AE8 SWAP1 PUSH2 0x2CFC JUMP JUMPDEST DUP1 ISZERO PUSH2 0x1B35 JUMPI DUP1 PUSH1 0x1F LT PUSH2 0x1B0A JUMPI PUSH2 0x100 DUP1 DUP4 SLOAD DIV MUL DUP4 MSTORE SWAP2 PUSH1 0x20 ADD SWAP2 PUSH2 0x1B35 JUMP JUMPDEST DUP3 ADD SWAP2 SWAP1 PUSH1 0x0 MSTORE PUSH1 0x20 PUSH1 0x0 KECCAK256 SWAP1 JUMPDEST DUP2 SLOAD DUP2 MSTORE SWAP1 PUSH1 0x1 ADD SWAP1 PUSH1 0x20 ADD DUP1 DUP4 GT PUSH2 0x1B18 JUMPI DUP3 SWAP1 SUB PUSH1 0x1F AND DUP3 ADD SWAP2 JUMPDEST POP POP POP POP POP DUP2 MSTORE PUSH1 0x20 ADD PUSH1 0x9 DUP3 ADD PUSH1 0x0 SWAP1 SLOAD SWAP1 PUSH2 0x100 EXP SWAP1 DIV PUSH1 0xFF AND ISZERO ISZERO ISZERO ISZERO DUP2 MSTORE POP POP SWAP1 POP SWAP2 POP SWAP2 POP SWAP2 POP SWAP2 JUMP JUMPDEST PUSH1 0x1 PUSH1 0x20 MSTORE DUP1 PUSH1 0x0 MSTORE PUSH1 0x40 PUSH1 0x0 KECCAK256 PUSH1 0x0 SWAP2 POP SWAP1 POP DUP1 PUSH1 0x0 ADD PUSH1 0x0 SWAP1 SLOAD SWAP1 PUSH2 0x100 EXP SWAP1 DIV PUSH20 0xFFFFFFFFFFFFFFFFFFFFFFFFFFFFFFFFFFFFFFFF AND SWAP1 DUP1 PUSH1 0x1 ADD DUP1 SLOAD PUSH2 0x1BAD SWAP1 PUSH2 0x2CFC JUMP JUMPDEST DUP1 PUSH1 0x1F ADD PUSH1 0x20 DUP1 SWAP2 DIV MUL PUSH1 0x20 ADD PUSH1 0x40 MLOAD SWAP1 DUP2 ADD PUSH1 0x40 MSTORE DUP1 SWAP3 SWAP2 SWAP1 DUP2 DUP2 MSTORE PUSH1 0x20 ADD DUP3 DUP1 SLOAD PUSH2 0x1BD9 SWAP1 PUSH2 0x2CFC JUMP JUMPDEST DUP1 ISZERO PUSH2 0x1C26 JUMPI DUP1 PUSH1 0x1F LT PUSH2 0x1BFB JUMPI PUSH2 0x100 DUP1 DUP4 SLOAD DIV MUL DUP4 MSTORE SWAP2 PUSH1 0x20 ADD SWAP2 PUSH2 0x1C26 JUMP JUMPDEST DUP3 ADD SWAP2 SWAP1 PUSH1 0x0 MSTORE PUSH1 0x20 PUSH1 0x0 KECCAK256 SWAP1 JUMPDEST DUP2 SLOAD DUP2 MSTORE SWAP1 PUSH1 0x1 ADD SWAP1 PUSH1 0x20 ADD DUP1 DUP4 GT PUSH2 0x1C09 JUMPI DUP3 SWAP1 SUB PUSH1 0x1F AND DUP3 ADD SWAP2 JUMPDEST POP POP POP POP POP SWAP1 DUP1 PUSH1 0x2 ADD DUP1 SLOAD PUSH2 0x1C3B SWAP1 PUSH2 0x2CFC JUMP JUMPDEST DUP1 PUSH1 0x1F ADD PUSH1 0x20 DUP1 SWAP2 DIV MUL PUSH1 0x20 ADD PUSH1 0x40 MLOAD SWAP1 DUP2 ADD PUSH1 0x40 MSTORE DUP1 SWAP3 SWAP2 SWAP1 DUP2 DUP2 MSTORE PUSH1 0x20 ADD DUP3 DUP1 SLOAD PUSH2 0x1C67 SWAP1 PUSH2 0x2CFC JUMP JUMPDEST DUP1 ISZERO PUSH2 0x1CB4 JUMPI DUP1 PUSH1 0x1F LT PUSH2 0x1C89 JUMPI PUSH2 0x100 DUP1 DUP4 SLOAD DIV MUL DUP4 MSTORE SWAP2 PUSH1 0x20 ADD SWAP2 PUSH2 0x1CB4 JUMP JUMPDEST DUP3 ADD SWAP2 SWAP1 PUSH1 0x0 MSTORE PUSH1 0x20 PUSH1 0x0 KECCAK256 SWAP1 JUMPDEST DUP2 SLOAD DUP2 MSTORE SWAP1 PUSH1 0x1 ADD SWAP1 PUSH1 0x20 ADD DUP1 DUP4 GT PUSH2 0x1C97 JUMPI DUP3 SWAP1 SUB PUSH1 0x1F AND DUP3 ADD SWAP2 JUMPDEST POP POP POP POP POP SWAP1 DUP1 PUSH1 0x3 ADD DUP1 SLOAD PUSH2 0x1CC9 SWAP1 PUSH2 0x2CFC JUMP JUMPDEST DUP1 PUSH1 0x1F ADD PUSH1 0x20 DUP1 SWAP2 DIV MUL PUSH1 0x20 ADD PUSH1 0x40 MLOAD SWAP1 DUP2 ADD PUSH1 0x40 MSTORE DUP1 SWAP3 SWAP2 SWAP1 DUP2 DUP2 MSTORE PUSH1 0x20 ADD DUP3 DUP1 SLOAD PUSH2 0x1CF5 SWAP1 PUSH2 0x2CFC JUMP JUMPDEST DUP1 ISZERO PUSH2 0x1D42 JUMPI DUP1 PUSH1 0x1F LT PUSH2 0x1D17 JUMPI PUSH2 0x100 DUP1 DUP4 SLOAD DIV MUL DUP4 MSTORE SWAP2 PUSH1 0x20 ADD SWAP2 PUSH2 0x1D42 JUMP JUMPDEST DUP3 ADD SWAP2 SWAP1 PUSH1 0x0 MSTORE PUSH1 0x20 PUSH1 0x0 KECCAK256 SWAP1 JUMPDEST DUP2 SLOAD DUP2 MSTORE SWAP1 PUSH1 0x1 ADD SWAP1 PUSH1 0x20 ADD DUP1 DUP4 GT PUSH2 0x1D25 JUMPI DUP3 SWAP1 SUB PUSH1 0x1F AND DUP3 ADD SWAP2 JUMPDEST POP POP POP POP POP SWAP1 DUP1 PUSH1 0x4 ADD DUP1 SLOAD PUSH2 0x1D57 SWAP1 PUSH2 0x2CFC JUMP JUMPDEST DUP1 PUSH1 0x1F ADD PUSH1 0x20 DUP1 SWAP2 DIV MUL PUSH1 0x20 ADD PUSH1 0x40 MLOAD SWAP1 DUP2 ADD PUSH1 0x40 MSTORE DUP1 SWAP3 SWAP2 SWAP1 DUP2 DUP2 MSTORE PUSH1 0x20 ADD DUP3 DUP1 SLOAD PUSH2 0x1D83 SWAP1 PUSH2 0x2CFC JUMP JUMPDEST DUP1 ISZERO PUSH2 0x1DD0 JUMPI DUP1 PUSH1 0x1F LT PUSH2 0x1DA5 JUMPI PUSH2 0x100 DUP1 DUP4 SLOAD DIV MUL DUP4 MSTORE SWAP2 PUSH1 0x20 ADD SWAP2 PUSH2 0x1DD0 JUMP JUMPDEST DUP3 ADD SWAP2 SWAP1 PUSH1 0x0 MSTORE PUSH1 0x20 PUSH1 0x0 KECCAK256 SWAP1 JUMPDEST DUP2 SLOAD DUP2 MSTORE SWAP1 PUSH1 0x1 ADD SWAP1 PUSH1 0x20 ADD DUP1 DUP4 GT PUSH2 0x1DB3 JUMPI DUP3 SWAP1 SUB PUSH1 0x1F AND DUP3 ADD SWAP2 JUMPDEST POP POP POP POP POP SWAP1 DUP1 PUSH1 0x5 ADD DUP1 SLOAD PUSH2 0x1DE5 SWAP1 PUSH2 0x2CFC JUMP JUMPDEST DUP1 PUSH1 0x1F ADD PUSH1 0x20 DUP1 SWAP2 DIV MUL PUSH1 0x20 ADD PUSH1 0x40 MLOAD SWAP1 DUP2 ADD PUSH1 0x40 MSTORE DUP1 SWAP3 SWAP2 SWAP1 DUP2 DUP2 MSTORE PUSH1 0x20 ADD DUP3 DUP1 SLOAD PUSH2 0x1E11 SWAP1 PUSH2 0x2CFC JUMP JUMPDEST DUP1 ISZERO PUSH2 0x1E5E JUMPI DUP1 PUSH1 0x1F LT PUSH2 0x1E33 JUMPI PUSH2 0x100 DUP1 DUP4 SLOAD DIV MUL DUP4 MSTORE SWAP2 PUSH1 0x20 ADD SWAP2 PUSH2 0x1E5E JUMP JUMPDEST DUP3 ADD SWAP2 SWAP1 PUSH1 0x0 MSTORE PUSH1 0x20 PUSH1 0x0 KECCAK256 SWAP1 JUMPDEST DUP2 SLOAD DUP2 MSTORE SWAP1 PUSH1 0x1 ADD SWAP1 PUSH1 0x20 ADD DUP1 DUP4 GT PUSH2 0x1E41 JUMPI DUP3 SWAP1 SUB PUSH1 0x1F AND DUP3 ADD SWAP2 JUMPDEST POP POP POP POP POP SWAP1 DUP1 PUSH1 0x6 ADD DUP1 SLOAD PUSH2 0x1E73 SWAP1 PUSH2 0x2CFC JUMP JUMPDEST DUP1 PUSH1 0x1F ADD PUSH1 0x20 DUP1 SWAP2 DIV MUL PUSH1 0x20 ADD PUSH1 0x40 MLOAD SWAP1 DUP2 ADD PUSH1 0x40 MSTORE DUP1 SWAP3 SWAP2 SWAP1 DUP2 DUP2 MSTORE PUSH1 0x20 ADD DUP3 DUP1 SLOAD PUSH2 0x1E9F SWAP1 PUSH2 0x2CFC JUMP JUMPDEST DUP1 ISZERO PUSH2 0x1EEC JUMPI DUP1 PUSH1 0x1F LT PUSH2 0x1EC1 JUMPI PUSH2 0x100 DUP1 DUP4 SLOAD DIV MUL DUP4 MSTORE SWAP2 PUSH1 0x20 ADD SWAP2 PUSH2 0x1EEC JUMP JUMPDEST DUP3 ADD SWAP2 SWAP1 PUSH1 0x0 MSTORE PUSH1 0x20 PUSH1 0x0 KECCAK256 SWAP1 JUMPDEST DUP2 SLOAD DUP2 MSTORE SWAP1 PUSH1 0x1 ADD SWAP1 PUSH1 0x20 ADD DUP1 DUP4 GT PUSH2 0x1ECF JUMPI DUP3 SWAP1 SUB PUSH1 0x1F AND DUP3 ADD SWAP2 JUMPDEST POP POP POP POP POP SWAP1 DUP1 PUSH1 0x7 ADD DUP1 SLOAD PUSH2 0x1F01 SWAP1 PUSH2 0x2CFC JUMP JUMPDEST DUP1 PUSH1 0x1F ADD PUSH1 0x20 DUP1 SWAP2 DIV MUL PUSH1 0x20 ADD PUSH1 0x40 MLOAD SWAP1 DUP2 ADD PUSH1 0x40 MSTORE DUP1 SWAP3 SWAP2 SWAP1 DUP2 DUP2 MSTORE PUSH1 0x20 ADD DUP3 DUP1 SLOAD PUSH2 0x1F2D SWAP1 PUSH2 0x2CFC JUMP JUMPDEST DUP1 ISZERO PUSH2 0x1F7A JUMPI DUP1 PUSH1 0x1F LT PUSH2 0x1F4F JUMPI PUSH2 0x100 DUP1 DUP4 SLOAD DIV MUL DUP4 MSTORE SWAP2 PUSH1 0x20 ADD SWAP2 PUSH2 0x1F7A JUMP JUMPDEST DUP3 ADD SWAP2 SWAP1 PUSH1 0x0 MSTORE PUSH1 0x20 PUSH1 0x0 KECCAK256 SWAP1 JUMPDEST DUP2 SLOAD DUP2 MSTORE SWAP1 PUSH1 0x1 ADD SWAP1 PUSH1 0x20 ADD DUP1 DUP4 GT PUSH2 0x1F5D JUMPI DUP3 SWAP1 SUB PUSH1 0x1F AND DUP3 ADD SWAP2 JUMPDEST POP POP POP POP POP SWAP1 DUP1 PUSH1 0x8 ADD DUP1 SLOAD PUSH2 0x1F8F SWAP1 PUSH2 0x2CFC JUMP JUMPDEST DUP1 PUSH1 0x1F ADD PUSH1 0x20 DUP1 SWAP2 DIV MUL PUSH1 0x20 ADD PUSH1 0x40 MLOAD SWAP1 DUP2 ADD PUSH1 0x40 MSTORE DUP1 SWAP3 SWAP2 SWAP1 DUP2 DUP2 MSTORE PUSH1 0x20 ADD DUP3 DUP1 SLOAD PUSH2 0x1FBB SWAP1 PUSH2 0x2CFC JUMP JUMPDEST DUP1 ISZERO PUSH2 0x2008 JUMPI DUP1 PUSH1 0x1F LT PUSH2 0x1FDD JUMPI PUSH2 0x100 DUP1 DUP4 SLOAD DIV MUL DUP4 MSTORE SWAP2 PUSH1 0x20 ADD SWAP2 PUSH2 0x2008 JUMP JUMPDEST DUP3 ADD SWAP2 SWAP1 PUSH1 0x0 MSTORE PUSH1 0x20 PUSH1 0x0 KECCAK256 SWAP1 JUMPDEST DUP2 SLOAD DUP2 MSTORE SWAP1 PUSH1 0x1 ADD SWAP1 PUSH1 0x20 ADD DUP1 DUP4 GT PUSH2 0x1FEB JUMPI DUP3 SWAP1 SUB PUSH1 0x1F AND DUP3 ADD SWAP2 JUMPDEST POP POP POP POP POP SWAP1 DUP1 PUSH1 0x9 ADD PUSH1 0x0 SWAP1 SLOAD SWAP1 PUSH2 0x100 EXP SWAP1 DIV PUSH1 0xFF AND SWAP1 POP DUP11 JUMP JUMPDEST PUSH1 0x40 MLOAD DUP1 PUSH1 0x80 ADD PUSH1 0x40 MSTORE DUP1 PUSH1 0x0 PUSH20 0xFFFFFFFFFFFFFFFFFFFFFFFFFFFFFFFFFFFFFFFF AND DUP2 MSTORE PUSH1 0x20 ADD PUSH1 0x60 DUP2 MSTORE PUSH1 0x20 ADD PUSH1 0x0 DUP2 MSTORE PUSH1 0x20 ADD PUSH1 0x60 DUP2 MSTORE POP SWAP1 JUMP JUMPDEST PUSH1 0x40 MLOAD DUP1 PUSH2 0x140 ADD PUSH1 0x40 MSTORE DUP1 PUSH1 0x0 PUSH20 0xFFFFFFFFFFFFFFFFFFFFFFFFFFFFFFFFFFFFFFFF AND DUP2 MSTORE PUSH1 0x20 ADD PUSH1 0x60 DUP2 MSTORE PUSH1 0x20 ADD PUSH1 0x60 DUP2 MSTORE PUSH1 0x20 ADD PUSH1 0x60 DUP2 MSTORE PUSH1 0x20 ADD PUSH1 0x60 DUP2 MSTORE PUSH1 0x20 ADD PUSH1 0x60 DUP2 MSTORE PUSH1 0x20 ADD PUSH1 0x60 DUP2 MSTORE PUSH1 0x20 ADD PUSH1 0x60 DUP2 MSTORE PUSH1 0x20 ADD PUSH1 0x60 DUP2 MSTORE PUSH1 0x20 ADD PUSH1 0x0 ISZERO ISZERO DUP2 MSTORE POP SWAP1 JUMP JUMPDEST PUSH1 0x40 MLOAD DUP1 PUSH2 0x100 ADD PUSH1 0x40 MSTORE DUP1 PUSH1 0x0 PUSH20 0xFFFFFFFFFFFFFFFFFFFFFFFFFFFFFFFFFFFFFFFF AND DUP2 MSTORE PUSH1 0x20 ADD PUSH1 0x60 DUP2 MSTORE PUSH1 0x20 ADD PUSH1 0x0 DUP2 MSTORE PUSH1 0x20 ADD PUSH1 0x60 DUP2 MSTORE PUSH1 0x20 ADD PUSH1 0x60 DUP2 MSTORE PUSH1 0x20 ADD PUSH1 0x60 DUP2 MSTORE PUSH1 0x20 ADD PUSH1 0x60 DUP2 MSTORE PUSH1 0x20 ADD PUSH1 0x60 DUP2 MSTORE POP SWAP1 JUMP JUMPDEST PUSH1 0x0 PUSH1 0x40 MLOAD SWAP1 POP SWAP1 JUMP JUMPDEST PUSH1 0x0 DUP1 REVERT JUMPDEST PUSH1 0x0 DUP1 REVERT JUMPDEST PUSH1 0x0 PUSH20 0xFFFFFFFFFFFFFFFFFFFFFFFFFFFFFFFFFFFFFFFF DUP3 AND SWAP1 POP SWAP2 SWAP1 POP JUMP JUMPDEST PUSH1 0x0 PUSH2 0x2168 DUP3 PUSH2 0x213D JUMP JUMPDEST SWAP1 POP SWAP2 SWAP1 POP JUMP JUMPDEST PUSH2 0x2178 DUP2 PUSH2 0x215D JUMP JUMPDEST DUP2 EQ PUSH2 0x2183 JUMPI PUSH1 0x0 DUP1 REVERT JUMPDEST POP JUMP JUMPDEST PUSH1 0x0 DUP2 CALLDATALOAD SWAP1 POP PUSH2 0x2195 DUP2 PUSH2 0x216F JUMP JUMPDEST SWAP3 SWAP2 POP POP JUMP JUMPDEST PUSH1 0x0 PUSH1 0x20 DUP3 DUP5 SUB SLT ISZERO PUSH2 0x21B1 JUMPI PUSH2 0x21B0 PUSH2 0x2133 JUMP JUMPDEST JUMPDEST PUSH1 0x0 PUSH2 0x21BF DUP5 DUP3 DUP6 ADD PUSH2 0x2186 JUMP JUMPDEST SWAP2 POP POP SWAP3 SWAP2 POP POP JUMP JUMPDEST PUSH1 0x0 DUP1 REVERT JUMPDEST PUSH1 0x0 PUSH1 0x1F NOT PUSH1 0x1F DUP4 ADD AND SWAP1 POP SWAP2 SWAP1 POP JUMP JUMPDEST PUSH32 0x4E487B7100000000000000000000000000000000000000000000000000000000 PUSH1 0x0 MSTORE PUSH1 0x41 PUSH1 0x4 MSTORE PUSH1 0x24 PUSH1 0x0 REVERT JUMPDEST PUSH2 0x2216 DUP3 PUSH2 0x21CD JUMP JUMPDEST DUP2 ADD DUP2 DUP2 LT PUSH8 0xFFFFFFFFFFFFFFFF DUP3 GT OR ISZERO PUSH2 0x2235 JUMPI PUSH2 0x2234 PUSH2 0x21DE JUMP JUMPDEST JUMPDEST DUP1 PUSH1 0x40 MSTORE POP POP POP JUMP JUMPDEST PUSH1 0x0 PUSH2 0x2248 PUSH2 0x2129 JUMP JUMPDEST SWAP1 POP PUSH2 0x2254 DUP3 DUP3 PUSH2 0x220D JUMP JUMPDEST SWAP2 SWAP1 POP JUMP JUMPDEST PUSH1 0x0 DUP1 REVERT JUMPDEST PUSH1 0x0 DUP1 REVERT JUMPDEST PUSH1 0x0 DUP1 REVERT JUMPDEST PUSH1 0x0 PUSH8 0xFFFFFFFFFFFFFFFF DUP3 GT ISZERO PUSH2 0x2283 JUMPI PUSH2 0x2282 PUSH2 0x21DE JUMP JUMPDEST JUMPDEST PUSH2 0x228C DUP3 PUSH2 0x21CD JUMP JUMPDEST SWAP1 POP PUSH1 0x20 DUP2 ADD SWAP1 POP SWAP2 SWAP1 POP JUMP JUMPDEST DUP3 DUP2 DUP4 CALLDATACOPY PUSH1 0x0 DUP4 DUP4 ADD MSTORE POP POP POP JUMP JUMPDEST PUSH1 0x0 PUSH2 0x22BB PUSH2 0x22B6 DUP5 PUSH2 0x2268 JUMP JUMPDEST PUSH2 0x223E JUMP JUMPDEST SWAP1 POP DUP3 DUP2 MSTORE PUSH1 0x20 DUP2 ADD DUP5 DUP5 DUP5 ADD GT ISZERO PUSH2 0x22D7 JUMPI PUSH2 0x22D6 PUSH2 0x2263 JUMP JUMPDEST JUMPDEST PUSH2 0x22E2 DUP5 DUP3 DUP6 PUSH2 0x2299 JUMP JUMPDEST POP SWAP4 SWAP3 POP POP POP JUMP JUMPDEST PUSH1 0x0 DUP3 PUSH1 0x1F DUP4 ADD SLT PUSH2 0x22FF JUMPI PUSH2 0x22FE PUSH2 0x225E JUMP JUMPDEST JUMPDEST DUP2 CALLDATALOAD PUSH2 0x230F DUP5 DUP3 PUSH1 0x20 DUP7 ADD PUSH2 0x22A8 JUMP JUMPDEST SWAP2 POP POP SWAP3 SWAP2 POP POP JUMP JUMPDEST PUSH1 0x0 DUP2 SWAP1 POP SWAP2 SWAP1 POP JUMP JUMPDEST PUSH2 0x232B DUP2 PUSH2 0x2318 JUMP JUMPDEST DUP2 EQ PUSH2 0x2336 JUMPI PUSH1 0x0 DUP1 REVERT JUMPDEST POP JUMP JUMPDEST PUSH1 0x0 DUP2 CALLDATALOAD SWAP1 POP PUSH2 0x2348 DUP2 PUSH2 0x2322 JUMP JUMPDEST SWAP3 SWAP2 POP POP JUMP JUMPDEST PUSH1 0x0 PUSH1 0x80 DUP3 DUP5 SUB SLT ISZERO PUSH2 0x2364 JUMPI PUSH2 0x2363 PUSH2 0x21C8 JUMP JUMPDEST JUMPDEST PUSH2 0x236E PUSH1 0x80 PUSH2 0x223E JUMP JUMPDEST SWAP1 POP PUSH1 0x0 PUSH2 0x237E DUP5 DUP3 DUP6 ADD PUSH2 0x2186 JUMP JUMPDEST PUSH1 0x0 DUP4 ADD MSTORE POP PUSH1 0x20 DUP3 ADD CALLDATALOAD PUSH8 0xFFFFFFFFFFFFFFFF DUP2 GT ISZERO PUSH2 0x23A2 JUMPI PUSH2 0x23A1 PUSH2 0x2259 JUMP JUMPDEST JUMPDEST PUSH2 0x23AE DUP5 DUP3 DUP6 ADD PUSH2 0x22EA JUMP JUMPDEST PUSH1 0x20 DUP4 ADD MSTORE POP PUSH1 0x40 PUSH2 0x23C2 DUP5 DUP3 DUP6 ADD PUSH2 0x2339 JUMP JUMPDEST PUSH1 0x40 DUP4 ADD MSTORE POP PUSH1 0x60 DUP3 ADD CALLDATALOAD PUSH8 0xFFFFFFFFFFFFFFFF DUP2 GT ISZERO PUSH2 0x23E6 JUMPI PUSH2 0x23E5 PUSH2 0x2259 JUMP JUMPDEST JUMPDEST PUSH2 0x23F2 DUP5 DUP3 DUP6 ADD PUSH2 0x22EA JUMP JUMPDEST PUSH1 0x60 DUP4 ADD MSTORE POP SWAP3 SWAP2 POP POP JUMP JUMPDEST PUSH1 0x0 DUP2 ISZERO ISZERO SWAP1 POP SWAP2 SWAP1 POP JUMP JUMPDEST PUSH2 0x2413 DUP2 PUSH2 0x23FE JUMP JUMPDEST DUP2 EQ PUSH2 0x241E JUMPI PUSH1 0x0 DUP1 REVERT JUMPDEST POP JUMP JUMPDEST PUSH1 0x0 DUP2 CALLDATALOAD SWAP1 POP PUSH2 0x2430 DUP2 PUSH2 0x240A JUMP JUMPDEST SWAP3 SWAP2 POP POP JUMP JUMPDEST PUSH1 0x0 PUSH2 0x140 DUP3 DUP5 SUB SLT ISZERO PUSH2 0x244D JUMPI PUSH2 0x244C PUSH2 0x21C8 JUMP JUMPDEST JUMPDEST PUSH2 0x2458 PUSH2 0x140 PUSH2 0x223E JUMP JUMPDEST SWAP1 POP PUSH1 0x0 PUSH2 0x2468 DUP5 DUP3 DUP6 ADD PUSH2 0x2186 JUMP JUMPDEST PUSH1 0x0 DUP4 ADD MSTORE POP PUSH1 0x20 DUP3 ADD CALLDATALOAD PUSH8 0xFFFFFFFFFFFFFFFF DUP2 GT ISZERO PUSH2 0x248C JUMPI PUSH2 0x248B PUSH2 0x2259 JUMP JUMPDEST JUMPDEST PUSH2 0x2498 DUP5 DUP3 DUP6 ADD PUSH2 0x22EA JUMP JUMPDEST PUSH1 0x20 DUP4 ADD MSTORE POP PUSH1 0x40 DUP3 ADD CALLDATALOAD PUSH8 0xFFFFFFFFFFFFFFFF DUP2 GT ISZERO PUSH2 0x24BC JUMPI PUSH2 0x24BB PUSH2 0x2259 JUMP JUMPDEST JUMPDEST PUSH2 0x24C8 DUP5 DUP3 DUP6 ADD PUSH2 0x22EA JUMP JUMPDEST PUSH1 0x40 DUP4 ADD MSTORE POP PUSH1 0x60 DUP3 ADD CALLDATALOAD PUSH8 0xFFFFFFFFFFFFFFFF DUP2 GT ISZERO PUSH2 0x24EC JUMPI PUSH2 0x24EB PUSH2 0x2259 JUMP JUMPDEST JUMPDEST PUSH2 0x24F8 DUP5 DUP3 DUP6 ADD PUSH2 0x22EA JUMP JUMPDEST PUSH1 0x60 DUP4 ADD MSTORE POP PUSH1 0x80 DUP3 ADD CALLDATALOAD PUSH8 0xFFFFFFFFFFFFFFFF DUP2 GT ISZERO PUSH2 0x251C JUMPI PUSH2 0x251B PUSH2 0x2259 JUMP JUMPDEST JUMPDEST PUSH2 0x2528 DUP5 DUP3 DUP6 ADD PUSH2 0x22EA JUMP JUMPDEST PUSH1 0x80 DUP4 ADD MSTORE POP PUSH1 0xA0 DUP3 ADD CALLDATALOAD PUSH8 0xFFFFFFFFFFFFFFFF DUP2 GT ISZERO PUSH2 0x254C JUMPI PUSH2 0x254B PUSH2 0x2259 JUMP JUMPDEST JUMPDEST PUSH2 0x2558 DUP5 DUP3 DUP6 ADD PUSH2 0x22EA JUMP JUMPDEST PUSH1 0xA0 DUP4 ADD MSTORE POP PUSH1 0xC0 DUP3 ADD CALLDATALOAD PUSH8 0xFFFFFFFFFFFFFFFF DUP2 GT ISZERO PUSH2 0x257C JUMPI PUSH2 0x257B PUSH2 0x2259 JUMP JUMPDEST JUMPDEST PUSH2 0x2588 DUP5 DUP3 DUP6 ADD PUSH2 0x22EA JUMP JUMPDEST PUSH1 0xC0 DUP4 ADD MSTORE POP PUSH1 0xE0 DUP3 ADD CALLDATALOAD PUSH8 0xFFFFFFFFFFFFFFFF DUP2 GT ISZERO PUSH2 0x25AC JUMPI PUSH2 0x25AB PUSH2 0x2259 JUMP JUMPDEST JUMPDEST PUSH2 0x25B8 DUP5 DUP3 DUP6 ADD PUSH2 0x22EA JUMP JUMPDEST PUSH1 0xE0 DUP4 ADD MSTORE POP PUSH2 0x100 DUP3 ADD CALLDATALOAD PUSH8 0xFFFFFFFFFFFFFFFF DUP2 GT ISZERO PUSH2 0x25DD JUMPI PUSH2 0x25DC PUSH2 0x2259 JUMP JUMPDEST JUMPDEST PUSH2 0x25E9 DUP5 DUP3 DUP6 ADD PUSH2 0x22EA JUMP JUMPDEST PUSH2 0x100 DUP4 ADD MSTORE POP PUSH2 0x120 PUSH2 0x25FF DUP5 DUP3 DUP6 ADD PUSH2 0x2421 JUMP JUMPDEST PUSH2 0x120 DUP4 ADD MSTORE POP SWAP3 SWAP2 POP POP JUMP JUMPDEST PUSH1 0x0 DUP1 PUSH1 0x40 DUP4 DUP6 SUB SLT ISZERO PUSH2 0x2623 JUMPI PUSH2 0x2622 PUSH2 0x2133 JUMP JUMPDEST JUMPDEST PUSH1 0x0 DUP4 ADD CALLDATALOAD PUSH8 0xFFFFFFFFFFFFFFFF DUP2 GT ISZERO PUSH2 0x2641 JUMPI PUSH2 0x2640 PUSH2 0x2138 JUMP JUMPDEST JUMPDEST PUSH2 0x264D DUP6 DUP3 DUP7 ADD PUSH2 0x234E JUMP JUMPDEST SWAP3 POP POP PUSH1 0x20 DUP4 ADD CALLDATALOAD PUSH8 0xFFFFFFFFFFFFFFFF DUP2 GT ISZERO PUSH2 0x266E JUMPI PUSH2 0x266D PUSH2 0x2138 JUMP JUMPDEST JUMPDEST PUSH2 0x267A DUP6 DUP3 DUP7 ADD PUSH2 0x2436 JUMP JUMPDEST SWAP2 POP POP SWAP3 POP SWAP3 SWAP1 POP JUMP JUMPDEST PUSH1 0x0 DUP1 PUSH1 0x0 DUP1 PUSH1 0x0 DUP1 PUSH1 0x0 DUP1 PUSH2 0x100 DUP10 DUP12 SUB SLT ISZERO PUSH2 0x26A5 JUMPI PUSH2 0x26A4 PUSH2 0x2133 JUMP JUMPDEST JUMPDEST PUSH1 0x0 PUSH2 0x26B3 DUP12 DUP3 DUP13 ADD PUSH2 0x2186 JUMP JUMPDEST SWAP9 POP POP PUSH1 0x20 DUP10 ADD CALLDATALOAD PUSH8 0xFFFFFFFFFFFFFFFF DUP2 GT ISZERO PUSH2 0x26D4 JUMPI PUSH2 0x26D3 PUSH2 0x2138 JUMP JUMPDEST JUMPDEST PUSH2 0x26E0 DUP12 DUP3 DUP13 ADD PUSH2 0x22EA JUMP JUMPDEST SWAP8 POP POP PUSH1 0x40 PUSH2 0x26F1 DUP12 DUP3 DUP13 ADD PUSH2 0x2339 JUMP JUMPDEST SWAP7 POP POP PUSH1 0x60 DUP10 ADD CALLDATALOAD PUSH8 0xFFFFFFFFFFFFFFFF DUP2 GT ISZERO PUSH2 0x2712 JUMPI PUSH2 0x2711 PUSH2 0x2138 JUMP JUMPDEST JUMPDEST PUSH2 0x271E DUP12 DUP3 DUP13 ADD PUSH2 0x22EA JUMP JUMPDEST SWAP6 POP POP PUSH1 0x80 DUP10 ADD CALLDATALOAD PUSH8 0xFFFFFFFFFFFFFFFF DUP2 GT ISZERO PUSH2 0x273F JUMPI PUSH2 0x273E PUSH2 0x2138 JUMP JUMPDEST JUMPDEST PUSH2 0x274B DUP12 DUP3 DUP13 ADD PUSH2 0x22EA JUMP JUMPDEST SWAP5 POP POP PUSH1 0xA0 DUP10 ADD CALLDATALOAD PUSH8 0xFFFFFFFFFFFFFFFF DUP2 GT ISZERO PUSH2 0x276C JUMPI PUSH2 0x276B PUSH2 0x2138 JUMP JUMPDEST JUMPDEST PUSH2 0x2778 DUP12 DUP3 DUP13 ADD PUSH2 0x22EA JUMP JUMPDEST SWAP4 POP POP PUSH1 0xC0 DUP10 ADD CALLDATALOAD PUSH8 0xFFFFFFFFFFFFFFFF DUP2 GT ISZERO PUSH2 0x2799 JUMPI PUSH2 0x2798 PUSH2 0x2138 JUMP JUMPDEST JUMPDEST PUSH2 0x27A5 DUP12 DUP3 DUP13 ADD PUSH2 0x22EA JUMP JUMPDEST SWAP3 POP POP PUSH1 0xE0 DUP10 ADD CALLDATALOAD PUSH8 0xFFFFFFFFFFFFFFFF DUP2 GT ISZERO PUSH2 0x27C6 JUMPI PUSH2 0x27C5 PUSH2 0x2138 JUMP JUMPDEST JUMPDEST PUSH2 0x27D2 DUP12 DUP3 DUP13 ADD PUSH2 0x22EA JUMP JUMPDEST SWAP2 POP POP SWAP3 SWAP6 SWAP9 POP SWAP3 SWAP6 SWAP9 SWAP1 SWAP4 SWAP7 POP JUMP JUMPDEST PUSH2 0x27EB DUP2 PUSH2 0x215D JUMP JUMPDEST DUP3 MSTORE POP POP JUMP JUMPDEST PUSH1 0x0 DUP2 MLOAD SWAP1 POP SWAP2 SWAP1 POP JUMP JUMPDEST PUSH1 0x0 DUP3 DUP3 MSTORE PUSH1 0x20 DUP3 ADD SWAP1 POP SWAP3 SWAP2 POP POP JUMP JUMPDEST PUSH1 0x0 JUMPDEST DUP4 DUP2 LT ISZERO PUSH2 0x282B JUMPI DUP1 DUP3 ADD MLOAD DUP2 DUP5 ADD MSTORE PUSH1 0x20 DUP2 ADD SWAP1 POP PUSH2 0x2810 JUMP JUMPDEST PUSH1 0x0 DUP5 DUP5 ADD MSTORE POP POP POP POP JUMP JUMPDEST PUSH1 0x0 PUSH2 0x2842 DUP3 PUSH2 0x27F1 JUMP JUMPDEST PUSH2 0x284C DUP2 DUP6 PUSH2 0x27FC JUMP JUMPDEST SWAP4 POP PUSH2 0x285C DUP2 DUP6 PUSH1 0x20 DUP7 ADD PUSH2 0x280D JUMP JUMPDEST PUSH2 0x2865 DUP2 PUSH2 0x21CD JUMP JUMPDEST DUP5 ADD SWAP2 POP POP SWAP3 SWAP2 POP POP JUMP JUMPDEST PUSH2 0x2879 DUP2 PUSH2 0x2318 JUMP JUMPDEST DUP3 MSTORE POP POP JUMP JUMPDEST PUSH1 0x0 PUSH1 0x80 DUP3 ADD SWAP1 POP PUSH2 0x2894 PUSH1 0x0 DUP4 ADD DUP8 PUSH2 0x27E2 JUMP JUMPDEST DUP2 DUP2 SUB PUSH1 0x20 DUP4 ADD MSTORE PUSH2 0x28A6 DUP2 DUP7 PUSH2 0x2837 JUMP JUMPDEST SWAP1 POP PUSH2 0x28B5 PUSH1 0x40 DUP4 ADD DUP6 PUSH2 0x2870 JUMP JUMPDEST DUP2 DUP2 SUB PUSH1 0x60 DUP4 ADD MSTORE PUSH2 0x28C7 DUP2 DUP5 PUSH2 0x2837 JUMP JUMPDEST SWAP1 POP SWAP6 SWAP5 POP POP POP POP POP JUMP JUMPDEST PUSH2 0x28DB DUP2 PUSH2 0x215D JUMP JUMPDEST DUP3 MSTORE POP POP JUMP JUMPDEST PUSH1 0x0 DUP3 DUP3 MSTORE PUSH1 0x20 DUP3 ADD SWAP1 POP SWAP3 SWAP2 POP POP JUMP JUMPDEST PUSH1 0x0 PUSH2 0x28FD DUP3 PUSH2 0x27F1 JUMP JUMPDEST PUSH2 0x2907 DUP2 DUP6 PUSH2 0x28E1 JUMP JUMPDEST SWAP4 POP PUSH2 0x2917 DUP2 DUP6 PUSH1 0x20 DUP7 ADD PUSH2 0x280D JUMP JUMPDEST PUSH2 0x2920 DUP2 PUSH2 0x21CD JUMP JUMPDEST DUP5 ADD SWAP2 POP POP SWAP3 SWAP2 POP POP JUMP JUMPDEST PUSH2 0x2934 DUP2 PUSH2 0x2318 JUMP JUMPDEST DUP3 MSTORE POP POP JUMP JUMPDEST PUSH1 0x0 PUSH2 0x100 DUP4 ADD PUSH1 0x0 DUP4 ADD MLOAD PUSH2 0x2953 PUSH1 0x0 DUP7 ADD DUP3 PUSH2 0x28D2 JUMP JUMPDEST POP PUSH1 0x20 DUP4 ADD MLOAD DUP5 DUP3 SUB PUSH1 0x20 DUP7 ADD MSTORE PUSH2 0x296B DUP3 DUP3 PUSH2 0x28F2 JUMP JUMPDEST SWAP2 POP POP PUSH1 0x40 DUP4 ADD MLOAD PUSH2 0x2980 PUSH1 0x40 DUP7 ADD DUP3 PUSH2 0x292B JUMP JUMPDEST POP PUSH1 0x60 DUP4 ADD MLOAD DUP5 DUP3 SUB PUSH1 0x60 DUP7 ADD MSTORE PUSH2 0x2998 DUP3 DUP3 PUSH2 0x28F2 JUMP JUMPDEST SWAP2 POP POP PUSH1 0x80 DUP4 ADD MLOAD DUP5 DUP3 SUB PUSH1 0x80 DUP7 ADD MSTORE PUSH2 0x29B2 DUP3 DUP3 PUSH2 0x28F2 JUMP JUMPDEST SWAP2 POP POP PUSH1 0xA0 DUP4 ADD MLOAD DUP5 DUP3 SUB PUSH1 0xA0 DUP7 ADD MSTORE PUSH2 0x29CC DUP3 DUP3 PUSH2 0x28F2 JUMP JUMPDEST SWAP2 POP POP PUSH1 0xC0 DUP4 ADD MLOAD DUP5 DUP3 SUB PUSH1 0xC0 DUP7 ADD MSTORE PUSH2 0x29E6 DUP3 DUP3 PUSH2 0x28F2 JUMP JUMPDEST SWAP2 POP POP PUSH1 0xE0 DUP4 ADD MLOAD DUP5 DUP3 SUB PUSH1 0xE0 DUP7 ADD MSTORE PUSH2 0x2A00 DUP3 DUP3 PUSH2 0x28F2 JUMP JUMPDEST SWAP2 POP POP DUP1 SWAP2 POP POP SWAP3 SWAP2 POP POP JUMP JUMPDEST PUSH1 0x0 PUSH1 0x20 DUP3 ADD SWAP1 POP DUP2 DUP2 SUB PUSH1 0x0 DUP4 ADD MSTORE PUSH2 0x2A27 DUP2 DUP5 PUSH2 0x293A JUMP JUMPDEST SWAP1 POP SWAP3 SWAP2 POP POP JUMP JUMPDEST PUSH1 0x0 PUSH1 0x80 DUP4 ADD PUSH1 0x0 DUP4 ADD MLOAD PUSH2 0x2A47 PUSH1 0x0 DUP7 ADD DUP3 PUSH2 0x28D2 JUMP JUMPDEST POP PUSH1 0x20 DUP4 ADD MLOAD DUP5 DUP3 SUB PUSH1 0x20 DUP7 ADD MSTORE PUSH2 0x2A5F DUP3 DUP3 PUSH2 0x28F2 JUMP JUMPDEST SWAP2 POP POP PUSH1 0x40 DUP4 ADD MLOAD PUSH2 0x2A74 PUSH1 0x40 DUP7 ADD DUP3 PUSH2 0x292B JUMP JUMPDEST POP PUSH1 0x60 DUP4 ADD MLOAD DUP5 DUP3 SUB PUSH1 0x60 DUP7 ADD MSTORE PUSH2 0x2A8C DUP3 DUP3 PUSH2 0x28F2 JUMP JUMPDEST SWAP2 POP POP DUP1 SWAP2 POP POP SWAP3 SWAP2 POP POP JUMP JUMPDEST PUSH2 0x2AA2 DUP2 PUSH2 0x23FE JUMP JUMPDEST DUP3 MSTORE POP POP JUMP JUMPDEST PUSH1 0x0 PUSH2 0x140 DUP4 ADD PUSH1 0x0 DUP4 ADD MLOAD PUSH2 0x2AC1 PUSH1 0x0 DUP7 ADD DUP3 PUSH2 0x28D2 JUMP JUMPDEST POP PUSH1 0x20 DUP4 ADD MLOAD DUP5 DUP3 SUB PUSH1 0x20 DUP7 ADD MSTORE PUSH2 0x2AD9 DUP3 DUP3 PUSH2 0x28F2 JUMP JUMPDEST SWAP2 POP POP PUSH1 0x40 DUP4 ADD MLOAD DUP5 DUP3 SUB PUSH1 0x40 DUP7 ADD MSTORE PUSH2 0x2AF3 DUP3 DUP3 PUSH2 0x28F2 JUMP JUMPDEST SWAP2 POP POP PUSH1 0x60 DUP4 ADD MLOAD DUP5 DUP3 SUB PUSH1 0x60 DUP7 ADD MSTORE PUSH2 0x2B0D DUP3 DUP3 PUSH2 0x28F2 JUMP JUMPDEST SWAP2 POP POP PUSH1 0x80 DUP4 ADD MLOAD DUP5 DUP3 SUB PUSH1 0x80 DUP7 ADD MSTORE PUSH2 0x2B27 DUP3 DUP3 PUSH2 0x28F2 JUMP JUMPDEST SWAP2 POP POP PUSH1 0xA0 DUP4 ADD MLOAD DUP5 DUP3 SUB PUSH1 0xA0 DUP7 ADD MSTORE PUSH2 0x2B41 DUP3 DUP3 PUSH2 0x28F2 JUMP JUMPDEST SWAP2 POP POP PUSH1 0xC0 DUP4 ADD MLOAD DUP5 DUP3 SUB PUSH1 0xC0 DUP7 ADD MSTORE PUSH2 0x2B5B DUP3 DUP3 PUSH2 0x28F2 JUMP JUMPDEST SWAP2 POP POP PUSH1 0xE0 DUP4 ADD MLOAD DUP5 DUP3 SUB PUSH1 0xE0 DUP7 ADD MSTORE PUSH2 0x2B75 DUP3 DUP3 PUSH2 0x28F2 JUMP JUMPDEST SWAP2 POP POP PUSH2 0x100 DUP4 ADD MLOAD DUP5 DUP3 SUB PUSH2 0x100 DUP7 ADD MSTORE PUSH2 0x2B91 DUP3 DUP3 PUSH2 0x28F2 JUMP JUMPDEST SWAP2 POP POP PUSH2 0x120 DUP4 ADD MLOAD PUSH2 0x2BA8 PUSH2 0x120 DUP7 ADD DUP3 PUSH2 0x2A99 JUMP JUMPDEST POP DUP1 SWAP2 POP POP SWAP3 SWAP2 POP POP JUMP JUMPDEST PUSH1 0x0 PUSH1 0x40 DUP3 ADD SWAP1 POP DUP2 DUP2 SUB PUSH1 0x0 DUP4 ADD MSTORE PUSH2 0x2BCD DUP2 DUP6 PUSH2 0x2A2F JUMP JUMPDEST SWAP1 POP DUP2 DUP2 SUB PUSH1 0x20 DUP4 ADD MSTORE PUSH2 0x2BE1 DUP2 DUP5 PUSH2 0x2AA8 JUMP JUMPDEST SWAP1 POP SWAP4 SWAP3 POP POP POP JUMP JUMPDEST PUSH2 0x2BF3 DUP2 PUSH2 0x23FE JUMP JUMPDEST DUP3 MSTORE POP POP JUMP JUMPDEST PUSH1 0x0 PUSH2 0x140 DUP3 ADD SWAP1 POP PUSH2 0x2C0F PUSH1 0x0 DUP4 ADD DUP14 PUSH2 0x27E2 JUMP JUMPDEST DUP2 DUP2 SUB PUSH1 0x20 DUP4 ADD MSTORE PUSH2 0x2C21 DUP2 DUP13 PUSH2 0x2837 JUMP JUMPDEST SWAP1 POP DUP2 DUP2 SUB PUSH1 0x40 DUP4 ADD MSTORE PUSH2 0x2C35 DUP2 DUP12 PUSH2 0x2837 JUMP JUMPDEST SWAP1 POP DUP2 DUP2 SUB PUSH1 0x60 DUP4 ADD MSTORE PUSH2 0x2C49 DUP2 DUP11 PUSH2 0x2837 JUMP JUMPDEST SWAP1 POP DUP2 DUP2 SUB PUSH1 0x80 DUP4 ADD MSTORE PUSH2 0x2C5D DUP2 DUP10 PUSH2 0x2837 JUMP JUMPDEST SWAP1 POP DUP2 DUP2 SUB PUSH1 0xA0 DUP4 ADD MSTORE PUSH2 0x2C71 DUP2 DUP9 PUSH2 0x2837 JUMP JUMPDEST SWAP1 POP DUP2 DUP2 SUB PUSH1 0xC0 DUP4 ADD MSTORE PUSH2 0x2C85 DUP2 DUP8 PUSH2 0x2837 JUMP JUMPDEST SWAP1 POP DUP2 DUP2 SUB PUSH1 0xE0 DUP4 ADD MSTORE PUSH2 0x2C99 DUP2 DUP7 PUSH2 0x2837 JUMP JUMPDEST SWAP1 POP DUP2 DUP2 SUB PUSH2 0x100 DUP4 ADD MSTORE PUSH2 0x2CAE DUP2 DUP6 PUSH2 0x2837 JUMP JUMPDEST SWAP1 POP PUSH2 0x2CBE PUSH2 0x120 DUP4 ADD DUP5 PUSH2 0x2BEA JUMP JUMPDEST SWAP12 SWAP11 POP POP POP POP POP POP POP POP POP POP POP JUMP JUMPDEST PUSH32 0x4E487B7100000000000000000000000000000000000000000000000000000000 PUSH1 0x0 MSTORE PUSH1 0x22 PUSH1 0x4 MSTORE PUSH1 0x24 PUSH1 0x0 REVERT JUMPDEST PUSH1 0x0 PUSH1 0x2 DUP3 DIV SWAP1 POP PUSH1 0x1 DUP3 AND DUP1 PUSH2 0x2D14 JUMPI PUSH1 0x7F DUP3 AND SWAP2 POP JUMPDEST PUSH1 0x20 DUP3 LT DUP2 SUB PUSH2 0x2D27 JUMPI PUSH2 0x2D26 PUSH2 0x2CCD JUMP JUMPDEST JUMPDEST POP SWAP2 SWAP1 POP JUMP JUMPDEST PUSH1 0x0 DUP2 SWAP1 POP DUP2 PUSH1 0x0 MSTORE PUSH1 0x20 PUSH1 0x0 KECCAK256 SWAP1 POP SWAP2 SWAP1 POP JUMP JUMPDEST PUSH1 0x0 PUSH1 0x20 PUSH1 0x1F DUP4 ADD DIV SWAP1 POP SWAP2 SWAP1 POP JUMP JUMPDEST PUSH1 0x0 DUP3 DUP3 SHL SWAP1 POP SWAP3 SWAP2 POP POP JUMP JUMPDEST PUSH1 0x0 PUSH1 0x8 DUP4 MUL PUSH2 0x2D8F PUSH32 0xFFFFFFFFFFFFFFFFFFFFFFFFFFFFFFFFFFFFFFFFFFFFFFFFFFFFFFFFFFFFFFFF DUP3 PUSH2 0x2D52 JUMP JUMPDEST PUSH2 0x2D99 DUP7 DUP4 PUSH2 0x2D52 JUMP JUMPDEST SWAP6 POP DUP1 NOT DUP5 AND SWAP4 POP DUP1 DUP7 AND DUP5 OR SWAP3 POP POP POP SWAP4 SWAP3 POP POP POP JUMP JUMPDEST PUSH1 0x0 DUP2 SWAP1 POP SWAP2 SWAP1 POP JUMP JUMPDEST PUSH1 0x0 PUSH2 0x2DD6 PUSH2 0x2DD1 PUSH2 0x2DCC DUP5 PUSH2 0x2318 JUMP JUMPDEST PUSH2 0x2DB1 JUMP JUMPDEST PUSH2 0x2318 JUMP JUMPDEST SWAP1 POP SWAP2 SWAP1 POP JUMP JUMPDEST PUSH1 0x0 DUP2 SWAP1 POP SWAP2 SWAP1 POP JUMP JUMPDEST PUSH2 0x2DF0 DUP4 PUSH2 0x2DBB JUMP JUMPDEST PUSH2 0x2E04 PUSH2 0x2DFC DUP3 PUSH2 0x2DDD JUMP JUMPDEST DUP5 DUP5 SLOAD PUSH2 0x2D5F JUMP JUMPDEST DUP3 SSTORE POP POP POP POP JUMP JUMPDEST PUSH1 0x0 SWAP1 JUMP JUMPDEST PUSH2 0x2E19 PUSH2 0x2E0C JUMP JUMPDEST PUSH2 0x2E24 DUP2 DUP5 DUP5 PUSH2 0x2DE7 JUMP JUMPDEST POP POP POP JUMP JUMPDEST JUMPDEST DUP2 DUP2 LT ISZERO PUSH2 0x2E48 JUMPI PUSH2 0x2E3D PUSH1 0x0 DUP3 PUSH2 0x2E11 JUMP JUMPDEST PUSH1 0x1 DUP2 ADD SWAP1 POP PUSH2 0x2E2A JUMP JUMPDEST POP POP JUMP JUMPDEST PUSH1 0x1F DUP3 GT ISZERO PUSH2 0x2E8D JUMPI PUSH2 0x2E5E DUP2 PUSH2 0x2D2D JUMP JUMPDEST PUSH2 0x2E67 DUP5 PUSH2 0x2D42 JUMP JUMPDEST DUP2 ADD PUSH1 0x20 DUP6 LT ISZERO PUSH2 0x2E76 JUMPI DUP2 SWAP1 POP JUMPDEST PUSH2 0x2E8A PUSH2 0x2E82 DUP6 PUSH2 0x2D42 JUMP JUMPDEST DUP4 ADD DUP3 PUSH2 0x2E29 JUMP JUMPDEST POP POP JUMPDEST POP POP POP JUMP JUMPDEST PUSH1 0x0 DUP3 DUP3 SHR SWAP1 POP SWAP3 SWAP2 POP POP JUMP JUMPDEST PUSH1 0x0 PUSH2 0x2EB0 PUSH1 0x0 NOT DUP5 PUSH1 0x8 MUL PUSH2 0x2E92 JUMP JUMPDEST NOT DUP1 DUP4 AND SWAP2 POP POP SWAP3 SWAP2 POP POP JUMP JUMPDEST PUSH1 0x0 PUSH2 0x2EC9 DUP4 DUP4 PUSH2 0x2E9F JUMP JUMPDEST SWAP2 POP DUP3 PUSH1 0x2 MUL DUP3 OR SWAP1 POP SWAP3 SWAP2 POP POP JUMP JUMPDEST PUSH2 0x2EE2 DUP3 PUSH2 0x27F1 JUMP JUMPDEST PUSH8 0xFFFFFFFFFFFFFFFF DUP2 GT ISZERO PUSH2 0x2EFB JUMPI PUSH2 0x2EFA PUSH2 0x21DE JUMP JUMPDEST JUMPDEST PUSH2 0x2F05 DUP3 SLOAD PUSH2 0x2CFC JUMP JUMPDEST PUSH2 0x2F10 DUP3 DUP3 DUP6 PUSH2 0x2E4C JUMP JUMPDEST PUSH1 0x0 PUSH1 0x20 SWAP1 POP PUSH1 0x1F DUP4 GT PUSH1 0x1 DUP2 EQ PUSH2 0x2F43 JUMPI PUSH1 0x0 DUP5 ISZERO PUSH2 0x2F31 JUMPI DUP3 DUP8 ADD MLOAD SWAP1 POP JUMPDEST PUSH2 0x2F3B DUP6 DUP3 PUSH2 0x2EBD JUMP JUMPDEST DUP7 SSTORE POP PUSH2 0x2FA3 JUMP JUMPDEST PUSH1 0x1F NOT DUP5 AND PUSH2 0x2F51 DUP7 PUSH2 0x2D2D JUMP JUMPDEST PUSH1 0x0 JUMPDEST DUP3 DUP2 LT ISZERO PUSH2 0x2F79 JUMPI DUP5 DUP10 ADD MLOAD DUP3 SSTORE PUSH1 0x1 DUP3 ADD SWAP2 POP PUSH1 0x20 DUP6 ADD SWAP5 POP PUSH1 0x20 DUP2 ADD SWAP1 POP PUSH2 0x2F54 JUMP JUMPDEST DUP7 DUP4 LT ISZERO PUSH2 0x2F96 JUMPI DUP5 DUP10 ADD MLOAD PUSH2 0x2F92 PUSH1 0x1F DUP10 AND DUP3 PUSH2 0x2E9F JUMP JUMPDEST DUP4 SSTORE POP JUMPDEST PUSH1 0x1 PUSH1 0x2 DUP9 MUL ADD DUP9 SSTORE POP POP POP JUMPDEST POP POP POP POP POP POP JUMP JUMPDEST PUSH1 0x0 PUSH1 0x20 DUP3 ADD SWAP1 POP PUSH2 0x2FC0 PUSH1 0x0 DUP4 ADD DUP5 PUSH2 0x27E2 JUMP JUMPDEST SWAP3 SWAP2 POP POP JUMP JUMPDEST PUSH1 0x0 DUP2 MLOAD SWAP1 POP PUSH2 0x2FD5 DUP2 PUSH2 0x240A JUMP JUMPDEST SWAP3 SWAP2 POP POP JUMP JUMPDEST PUSH1 0x0 PUSH1 0x20 DUP3 DUP5 SUB SLT ISZERO PUSH2 0x2FF1 JUMPI PUSH2 0x2FF0 PUSH2 0x2133 JUMP JUMPDEST JUMPDEST PUSH1 0x0 PUSH2 0x2FFF DUP5 DUP3 DUP6 ADD PUSH2 0x2FC6 JUMP JUMPDEST SWAP2 POP POP SWAP3 SWAP2 POP POP JUMP JUMPDEST PUSH1 0x0 PUSH1 0x40 DUP3 ADD SWAP1 POP PUSH2 0x301D PUSH1 0x0 DUP4 ADD DUP6 PUSH2 0x27E2 JUMP JUMPDEST PUSH2 0x302A PUSH1 0x20 DUP4 ADD DUP5 PUSH2 0x27E2 JUMP JUMPDEST SWAP4 SWAP3 POP POP POP JUMP INVALID LOG2 PUSH5 0x6970667358 0x22 SLT KECCAK256 MSTORE8 0xA6 MSIZE EXP 0x27 CALLVALUE SWAP16 0x4F SWAP14 0x1F SMOD SWAP3 DUP13 0x2E MLOAD 0xFB DELEGATECALL 0x5D 0x2F RETURN 0x2D PUSH4 0x63E55DDA MUL 0xFB PUSH20 0x9196EC64736F6C63430008110033000000000000 "},"gasEstimates":{"creation":{"codeDepositCost":"2478200","executionCost":"infinite","totalCost":"infinite"},"external":{"addOutPatient((address,string,uint256,string),(address,string,string,string,string,string,string,string,string,bool))":"infinite","getOutPatient(address)":"infinite","getPatientData(address)":"infinite","outPatient(address)":"infinite","patientId(address)":"infinite","setDoctorRelationAddress(address)":"24766","setDoctorVerificatorAddress(address)":"24723","setPatientData(address,string,uint256,string,string,string,string,string)":"infinite","setPatientVerificatorAddress(address)":"24744","updatePatientData(address,string,uint256,string,string,string,string,string)":"infinite"}},"methodIdentifiers":{"addOutPatient((address,string,uint256,string),(address,string,string,string,string,string,string,string,string,bool))":"231d90b4","getOutPatient(address)":"b2c24a34","getPatientData(address)":"48e81852","outPatient(address)":"c74bb731","patientId(address)":"41093984","setDoctorRelationAddress(address)":"7621df6f","setDoctorVerificatorAddress(address)":"1107747e","setPatientData(address,string,uint256,string,string,string,string,string)":"26c01f7d","setPatientVerificatorAddress(address)":"5db185c7","updatePatientData(address,string,uint256,string,string,string,string,string)":"52a6042d"}},"storageLayout":{"storage":[{"astId":249,"contract":"ElectronicMedicalRecords.sol:Patient","label":"Patient_Data","offset":0,"slot":"0","type":"t_mapping(t_address,t_struct(PatientData)244_storage)"},{"astId":254,"contract":"ElectronicMedicalRecords.sol:Patient","label":"outPatient","offset":0,"slot":"1","type":"t_mapping(t_address,t_struct(RawatJalan)163_storage)"},{"astId":259,"contract":"ElectronicMedicalRecords.sol:Patient","label":"patientId","offset":0,"slot":"2","type":"t_mapping(t_address,t_struct(IdentitasPasien)142_storage)"},{"astId":261,"contract":"ElectronicMedicalRecords.sol:Patient","label":"admin","offset":0,"slot":"3","type":"t_address"},{"astId":264,"contract":"ElectronicMedicalRecords.sol:Patient","label":"doctor_verificator","offset":0,"slot":"4","type":"t_contract(DoctorVerificator)846"},{"astId":267,"contract":"ElectronicMedicalRecords.sol:Patient","label":"patient_verificator","offset":0,"slot":"5","type":"t_contract(PatientVerificator)759"},{"astId":270,"contract":"ElectronicMedicalRecords.sol:Patient","label":"doctor_relation","offset":0,"slot":"6","type":"t_contract(DoctorRelation)935"}],"types":{"t_address":{"encoding":"inplace","label":"address","numberOfBytes":"20"},"t_bool":{"encoding":"inplace","label":"bool","numberOfBytes":"1"},"t_contract(DoctorRelation)935":{"encoding":"inplace","label":"contract DoctorRelation","numberOfBytes":"20"},"t_contract(DoctorVerificator)846":{"encoding":"inplace","label":"contract DoctorVerificator","numberOfBytes":"20"},"t_contract(PatientVerificator)759":{"encoding":"inplace","label":"contract PatientVerificator","numberOfBytes":"20"},"t_mapping(t_address,t_struct(IdentitasPasien)142_storage)":{"encoding":"mapping","key":"t_address","label":"mapping(address => struct Patient.IdentitasPasien)","numberOfBytes":"32","value":"t_struct(IdentitasPasien)142_storage"},"t_mapping(t_address,t_struct(PatientData)244_storage)":{"encoding":"mapping","key":"t_address","label":"mapping(address => struct Patient.PatientData)","numberOfBytes":"32","value":"t_struct(PatientData)244_storage"},"t_mapping(t_address,t_struct(RawatJalan)163_storage)":{"encoding":"mapping","key":"t_address","label":"mapping(address => struct Patient.RawatJalan)","numberOfBytes":"32","value":"t_struct(RawatJalan)163_storage"},"t_string_storage":{"encoding":"bytes","label":"string","numberOfBytes":"32"},"t_struct(IdentitasPasien)142_storage":{"encoding":"inplace","label":"struct Patient.IdentitasPasien","members":[{"astId":135,"contract":"ElectronicMedicalRecords.sol:Patient","label":"patientAddress","offset":0,"slot":"0","type":"t_address"},{"astId":137,"contract":"ElectronicMedicalRecords.sol:Patient","label":"nama_lengkap","offset":0,"slot":"1","type":"t_string_storage"},{"astId":139,"contract":"ElectronicMedicalRecords.sol:Patient","label":"umur","offset":0,"slot":"2","type":"t_uint256"},{"astId":141,"contract":"ElectronicMedicalRecords.sol:Patient","label":"tanggal_lahir","offset":0,"slot":"3","type":"t_string_storage"}],"numberOfBytes":"128"},"t_struct(PatientData)244_storage":{"encoding":"inplace","label":"struct Patient.PatientData","members":[{"astId":229,"contract":"ElectronicMedicalRecords.sol:Patient","label":"patientAddress","offset":0,"slot":"0","type":"t_address"},{"astId":231,"contract":"ElectronicMedicalRecords.sol:Patient","label":"nama_lengkap","offset":0,"slot":"1","type":"t_string_storage"},{"astId":233,"contract":"ElectronicMedicalRecords.sol:Patient","label":"umur","offset":0,"slot":"2","type":"t_uint256"},{"astId":235,"contract":"ElectronicMedicalRecords.sol:Patient","label":"tanggal_lahir","offset":0,"slot":"3","type":"t_string_storage"},{"astId":237,"contract":"ElectronicMedicalRecords.sol:Patient","label":"tanggal_masuk","offset":0,"slot":"4","type":"t_string_storage"},{"astId":239,"contract":"ElectronicMedicalRecords.sol:Patient","label":"tanggal_keluar","offset":0,"slot":"5","type":"t_string_storage"},{"astId":241,"contract":"ElectronicMedicalRecords.sol:Patient","label":"anamnesis","offset":0,"slot":"6","type":"t_string_storage"},{"astId":243,"contract":"ElectronicMedicalRecords.sol:Patient","label":"diagnosis","offset":0,"slot":"7","type":"t_string_storage"}],"numberOfBytes":"256"},"t_struct(RawatJalan)163_storage":{"encoding":"inplace","label":"struct Patient.RawatJalan","members":[{"astId":144,"contract":"ElectronicMedicalRecords.sol:Patient","label":"patient_address","offset":0,"slot":"0","type":"t_address"},{"astId":146,"contract":"ElectronicMedicalRecords.sol:Patient","label":"jenis","offset":0,"slot":"1","type":"t_string_storage"},{"astId":148,"contract":"ElectronicMedicalRecords.sol:Patient","label":"date_and_time","offset":0,"slot":"2","type":"t_string_storage"},{"astId":150,"contract":"ElectronicMedicalRecords.sol:Patient","label":"anamnesis","offset":0,"slot":"3","type":"t_string_storage"},{"astId":152,"contract":"ElectronicMedicalRecords.sol:Patient","label":"diagnosis","offset":0,"slot":"4","type":"t_string_storage"},{"astId":154,"contract":"ElectronicMedicalRecords.sol:Patient","label":"rp","offset":0,"slot":"5","type":"t_string_storage"},{"astId":156,"contract":"ElectronicMedicalRecords.sol:Patient","label":"pengobatan","offset":0,"slot":"6","type":"t_string_storage"},{"astId":158,"contract":"ElectronicMedicalRecords.sol:Patient","label":"tindakan","offset":0,"slot":"7","type":"t_string_storage"},{"astId":160,"contract":"ElectronicMedicalRecords.sol:Patient","label":"pelayanan","offset":0,"slot":"8","type":"t_string_storage"},{"astId":162,"contract":"ElectronicMedicalRecords.sol:Patient","label":"agreement","offset":0,"slot":"9","type":"t_bool"}],"numberOfBytes":"320"},"t_uint256":{"encoding":"inplace","label":"uint256","numberOfBytes":"32"}}},"userdoc":{"kind":"user","methods":{},"version":1}}