{"abi":[{"inputs":[{"internalType":"address","name":"_admin","type":"address"}],"stateMutability":"nonpayable","type":"constructor"},{"inputs":[{"internalType":"address","name":"_address","type":"address"}],"name":"getPatientData","outputs":[{"components":[{"internalType":"string","name":"nama_lengkap","type":"string"},{"internalType":"uint256","name":"umur","type":"uint256"},{"internalType":"string","name":"tanggal_lahir","type":"string"},{"internalType":"string","name":"tanggal_masuk","type":"string"},{"internalType":"string","name":"tanggal_keluar","type":"string"},{"internalType":"string","name":"anamnesis","type":"string"},{"internalType":"string","name":"diagnosis","type":"string"}],"internalType":"struct Patient.PatientData","name":"data","type":"tuple"}],"stateMutability":"view","type":"function"},{"inputs":[{"internalType":"address","name":"_DoctorRelationAddress","type":"address"}],"name":"setDoctorRelationAddress","outputs":[],"stateMutability":"nonpayable","type":"function"},{"inputs":[{"internalType":"address","name":"_DoctorVerificatorAddress","type":"address"}],"name":"setDoctorVerificatorAddress","outputs":[],"stateMutability":"nonpayable","type":"function"},{"inputs":[{"internalType":"address","name":"_patient","type":"address"},{"internalType":"string","name":"_nama_lengkap","type":"string"},{"internalType":"uint256","name":"_umur","type":"uint256"},{"internalType":"string","name":"_tanggal_lahir","type":"string"},{"internalType":"string","name":"_tanggal_masuk","type":"string"},{"internalType":"string","name":"_tanggal_keluar","type":"string"},{"internalType":"string","name":"_anamnesis","type":"string"},{"internalType":"string","name":"_diagnosis","type":"string"}],"name":"setPatientData","outputs":[],"stateMutability":"nonpayable","type":"function"},{"inputs":[{"internalType":"address","name":"_PatientVerificatorAddress","type":"address"}],"name":"setPatientVerificatorAddress","outputs":[],"stateMutability":"nonpayable","type":"function"},{"inputs":[{"internalType":"address","name":"_patient","type":"address"},{"internalType":"string","name":"_nama_lengkap","type":"string"},{"internalType":"uint256","name":"_umur","type":"uint256"},{"internalType":"string","name":"_tanggal_lahir","type":"string"},{"internalType":"string","name":"_tanggal_masuk","type":"string"},{"internalType":"string","name":"_tanggal_keluar","type":"string"},{"internalType":"string","name":"_anamnesis","type":"string"},{"internalType":"string","name":"_diagnosis","type":"string"}],"name":"updatePatientData","outputs":[],"stateMutability":"nonpayable","type":"function"}],"devdoc":{"kind":"dev","methods":{},"version":1},"evm":{"assembly":"    /* \"ElectronicMedicalRecords.sol\":1267:4504  contract Patient {... */\n  mstore(0x40, 0x80)\n    /* \"ElectronicMedicalRecords.sol\":1742:1803  constructor(address _admin) {... */\n  callvalue\n  dup1\n  iszero\n  tag_1\n  jumpi\n  0x00\n  dup1\n  revert\ntag_1:\n  pop\n  mload(0x40)\n  sub(codesize, bytecodeSize)\n  dup1\n  bytecodeSize\n  dup4\n  codecopy\n  dup2\n  dup2\n  add\n  0x40\n  mstore\n  dup2\n  add\n  swap1\n  tag_2\n  swap2\n  swap1\n  tag_3\n  jump\t// in\ntag_2:\n    /* \"ElectronicMedicalRecords.sol\":1789:1795  _admin */\n  dup1\n    /* \"ElectronicMedicalRecords.sol\":1781:1786  admin */\n  0x01\n  0x00\n    /* \"ElectronicMedicalRecords.sol\":1781:1795  admin = _admin */\n  0x0100\n  exp\n  dup2\n  sload\n  dup2\n  0xffffffffffffffffffffffffffffffffffffffff\n  mul\n  not\n  and\n  swap1\n  dup4\n  0xffffffffffffffffffffffffffffffffffffffff\n  and\n  mul\n  or\n  swap1\n  sstore\n  pop\n    /* \"ElectronicMedicalRecords.sol\":1742:1803  constructor(address _admin) {... */\n  pop\n    /* \"ElectronicMedicalRecords.sol\":1267:4504  contract Patient {... */\n  jump(tag_6)\n    /* \"#utility.yul\":88:205   */\ntag_8:\n    /* \"#utility.yul\":197:198   */\n  0x00\n    /* \"#utility.yul\":194:195   */\n  dup1\n    /* \"#utility.yul\":187:199   */\n  revert\n    /* \"#utility.yul\":334:460   */\ntag_10:\n    /* \"#utility.yul\":371:378   */\n  0x00\n    /* \"#utility.yul\":411:453   */\n  0xffffffffffffffffffffffffffffffffffffffff\n    /* \"#utility.yul\":404:409   */\n  dup3\n    /* \"#utility.yul\":400:454   */\n  and\n    /* \"#utility.yul\":389:454   */\n  swap1\n  pop\n    /* \"#utility.yul\":334:460   */\n  swap2\n  swap1\n  pop\n  jump\t// out\n    /* \"#utility.yul\":466:562   */\ntag_11:\n    /* \"#utility.yul\":503:510   */\n  0x00\n    /* \"#utility.yul\":532:556   */\n  tag_20\n    /* \"#utility.yul\":550:555   */\n  dup3\n    /* \"#utility.yul\":532:556   */\n  tag_10\n  jump\t// in\ntag_20:\n    /* \"#utility.yul\":521:556   */\n  swap1\n  pop\n    /* \"#utility.yul\":466:562   */\n  swap2\n  swap1\n  pop\n  jump\t// out\n    /* \"#utility.yul\":568:690   */\ntag_12:\n    /* \"#utility.yul\":641:665   */\n  tag_22\n    /* \"#utility.yul\":659:664   */\n  dup2\n    /* \"#utility.yul\":641:665   */\n  tag_11\n  jump\t// in\ntag_22:\n    /* \"#utility.yul\":634:639   */\n  dup2\n    /* \"#utility.yul\":631:666   */\n  eq\n    /* \"#utility.yul\":621:684   */\n  tag_23\n  jumpi\n    /* \"#utility.yul\":680:681   */\n  0x00\n    /* \"#utility.yul\":677:678   */\n  dup1\n    /* \"#utility.yul\":670:682   */\n  revert\n    /* \"#utility.yul\":621:684   */\ntag_23:\n    /* \"#utility.yul\":568:690   */\n  pop\n  jump\t// out\n    /* \"#utility.yul\":696:839   */\ntag_13:\n    /* \"#utility.yul\":753:758   */\n  0x00\n    /* \"#utility.yul\":784:790   */\n  dup2\n    /* \"#utility.yul\":778:791   */\n  mload\n    /* \"#utility.yul\":769:791   */\n  swap1\n  pop\n    /* \"#utility.yul\":800:833   */\n  tag_25\n    /* \"#utility.yul\":827:832   */\n  dup2\n    /* \"#utility.yul\":800:833   */\n  tag_12\n  jump\t// in\ntag_25:\n    /* \"#utility.yul\":696:839   */\n  swap3\n  swap2\n  pop\n  pop\n  jump\t// out\n    /* \"#utility.yul\":845:1196   */\ntag_3:\n    /* \"#utility.yul\":915:921   */\n  0x00\n    /* \"#utility.yul\":964:966   */\n  0x20\n    /* \"#utility.yul\":952:961   */\n  dup3\n    /* \"#utility.yul\":943:950   */\n  dup5\n    /* \"#utility.yul\":939:962   */\n  sub\n    /* \"#utility.yul\":935:967   */\n  slt\n    /* \"#utility.yul\":932:1051   */\n  iszero\n  tag_27\n  jumpi\n    /* \"#utility.yul\":970:1049   */\n  tag_28\n  tag_8\n  jump\t// in\ntag_28:\n    /* \"#utility.yul\":932:1051   */\ntag_27:\n    /* \"#utility.yul\":1090:1091   */\n  0x00\n    /* \"#utility.yul\":1115:1179   */\n  tag_29\n    /* \"#utility.yul\":1171:1178   */\n  dup5\n    /* \"#utility.yul\":1162:1168   */\n  dup3\n    /* \"#utility.yul\":1151:1160   */\n  dup6\n    /* \"#utility.yul\":1147:1169   */\n  add\n    /* \"#utility.yul\":1115:1179   */\n  tag_13\n  jump\t// in\ntag_29:\n    /* \"#utility.yul\":1105:1179   */\n  swap2\n  pop\n    /* \"#utility.yul\":1061:1189   */\n  pop\n    /* \"#utility.yul\":845:1196   */\n  swap3\n  swap2\n  pop\n  pop\n  jump\t// out\n    /* \"ElectronicMedicalRecords.sol\":1267:4504  contract Patient {... */\ntag_6:\n  dataSize(sub_0)\n  dup1\n  dataOffset(sub_0)\n  0x00\n  codecopy\n  0x00\n  return\nstop\n\nsub_0: assembly {\n        /* \"ElectronicMedicalRecords.sol\":1267:4504  contract Patient {... */\n      mstore(0x40, 0x80)\n      callvalue\n      dup1\n      iszero\n      tag_1\n      jumpi\n      0x00\n      dup1\n      revert\n    tag_1:\n      pop\n      jumpi(tag_2, lt(calldatasize, 0x04))\n      shr(0xe0, calldataload(0x00))\n      dup1\n      0x1107747e\n      eq\n      tag_3\n      jumpi\n      dup1\n      0x26c01f7d\n      eq\n      tag_4\n      jumpi\n      dup1\n      0x48e81852\n      eq\n      tag_5\n      jumpi\n      dup1\n      0x52a6042d\n      eq\n      tag_6\n      jumpi\n      dup1\n      0x5db185c7\n      eq\n      tag_7\n      jumpi\n      dup1\n      0x7621df6f\n      eq\n      tag_8\n      jumpi\n    tag_2:\n      0x00\n      dup1\n      revert\n        /* \"ElectronicMedicalRecords.sol\":1811:1974  function setDoctorVerificatorAddress(address _DoctorVerificatorAddress) public {... */\n    tag_3:\n      tag_9\n      0x04\n      dup1\n      calldatasize\n      sub\n      dup2\n      add\n      swap1\n      tag_10\n      swap2\n      swap1\n      tag_11\n      jump\t// in\n    tag_10:\n      tag_12\n      jump\t// in\n    tag_9:\n      stop\n        /* \"ElectronicMedicalRecords.sol\":2314:3212  function setPatientData(... */\n    tag_4:\n      tag_13\n      0x04\n      dup1\n      calldatasize\n      sub\n      dup2\n      add\n      swap1\n      tag_14\n      swap2\n      swap1\n      tag_15\n      jump\t// in\n    tag_14:\n      tag_16\n      jump\t// in\n    tag_13:\n      stop\n        /* \"ElectronicMedicalRecords.sol\":3220:3417  function getPatientData(address _address)... */\n    tag_5:\n      tag_17\n      0x04\n      dup1\n      calldatasize\n      sub\n      dup2\n      add\n      swap1\n      tag_18\n      swap2\n      swap1\n      tag_11\n      jump\t// in\n    tag_18:\n      tag_19\n      jump\t// in\n    tag_17:\n      mload(0x40)\n      tag_20\n      swap2\n      swap1\n      tag_21\n      jump\t// in\n    tag_20:\n      mload(0x40)\n      dup1\n      swap2\n      sub\n      swap1\n      return\n        /* \"ElectronicMedicalRecords.sol\":3425:4234  function updatePatientData(... */\n    tag_6:\n      tag_22\n      0x04\n      dup1\n      calldatasize\n      sub\n      dup2\n      add\n      swap1\n      tag_23\n      swap2\n      swap1\n      tag_15\n      jump\t// in\n    tag_23:\n      tag_24\n      jump\t// in\n    tag_22:\n      stop\n        /* \"ElectronicMedicalRecords.sol\":1982:2150  function setPatientVerificatorAddress(address _PatientVerificatorAddress) public {... */\n    tag_7:\n      tag_25\n      0x04\n      dup1\n      calldatasize\n      sub\n      dup2\n      add\n      swap1\n      tag_26\n      swap2\n      swap1\n      tag_11\n      jump\t// in\n    tag_26:\n      tag_27\n      jump\t// in\n    tag_25:\n      stop\n        /* \"ElectronicMedicalRecords.sol\":2158:2306  function setDoctorRelationAddress(address _DoctorRelationAddress) public {... */\n    tag_8:\n      tag_28\n      0x04\n      dup1\n      calldatasize\n      sub\n      dup2\n      add\n      swap1\n      tag_29\n      swap2\n      swap1\n      tag_11\n      jump\t// in\n    tag_29:\n      tag_30\n      jump\t// in\n    tag_28:\n      stop\n        /* \"ElectronicMedicalRecords.sol\":1811:1974  function setDoctorVerificatorAddress(address _DoctorVerificatorAddress) public {... */\n    tag_12:\n        /* \"ElectronicMedicalRecords.sol\":1940:1965  _DoctorVerificatorAddress */\n      dup1\n        /* \"ElectronicMedicalRecords.sol\":1901:1919  doctor_verificator */\n      0x02\n      0x00\n        /* \"ElectronicMedicalRecords.sol\":1901:1966  doctor_verificator = DoctorVerificator(_DoctorVerificatorAddress) */\n      0x0100\n      exp\n      dup2\n      sload\n      dup2\n      0xffffffffffffffffffffffffffffffffffffffff\n      mul\n      not\n      and\n      swap1\n      dup4\n      0xffffffffffffffffffffffffffffffffffffffff\n      and\n      mul\n      or\n      swap1\n      sstore\n      pop\n        /* \"ElectronicMedicalRecords.sol\":1811:1974  function setDoctorVerificatorAddress(address _DoctorVerificatorAddress) public {... */\n      pop\n      jump\t// out\n        /* \"ElectronicMedicalRecords.sol\":2314:3212  function setPatientData(... */\n    tag_16:\n        /* \"ElectronicMedicalRecords.sol\":4283:4301  doctor_verificator */\n      0x02\n      0x00\n      swap1\n      sload\n      swap1\n      0x0100\n      exp\n      swap1\n      div\n      0xffffffffffffffffffffffffffffffffffffffff\n      and\n        /* \"ElectronicMedicalRecords.sol\":4283:4308  doctor_verificator.verify */\n      0xffffffffffffffffffffffffffffffffffffffff\n      and\n      0x63a9c3d7\n        /* \"ElectronicMedicalRecords.sol\":4309:4319  msg.sender */\n      caller\n        /* \"ElectronicMedicalRecords.sol\":4283:4320  doctor_verificator.verify(msg.sender) */\n      mload(0x40)\n      dup3\n      0xffffffff\n      and\n      0xe0\n      shl\n      dup2\n      mstore\n      0x04\n      add\n      tag_33\n      swap2\n      swap1\n      tag_34\n      jump\t// in\n    tag_33:\n      0x20\n      mload(0x40)\n      dup1\n      dup4\n      sub\n      dup2\n      dup7\n      gas\n      staticcall\n      iszero\n      dup1\n      iszero\n      tag_36\n      jumpi\n      returndatasize\n      0x00\n      dup1\n      returndatacopy\n      revert(0x00, returndatasize)\n    tag_36:\n      pop\n      pop\n      pop\n      pop\n      mload(0x40)\n      returndatasize\n      not(0x1f)\n      0x1f\n      dup3\n      add\n      and\n      dup3\n      add\n      dup1\n      0x40\n      mstore\n      pop\n      dup2\n      add\n      swap1\n      tag_37\n      swap2\n      swap1\n      tag_38\n      jump\t// in\n    tag_37:\n        /* \"ElectronicMedicalRecords.sol\":4275:4321  require(doctor_verificator.verify(msg.sender)) */\n      tag_39\n      jumpi\n      0x00\n      dup1\n      revert\n    tag_39:\n        /* \"ElectronicMedicalRecords.sol\":2666:2700  PatientData storage newPatientData */\n      0x00\n        /* \"ElectronicMedicalRecords.sol\":2703:2715  Patient_Data */\n      dup1\n        /* \"ElectronicMedicalRecords.sol\":2703:2725  Patient_Data[_patient] */\n      0x00\n        /* \"ElectronicMedicalRecords.sol\":2716:2724  _patient */\n      dup11\n        /* \"ElectronicMedicalRecords.sol\":2703:2725  Patient_Data[_patient] */\n      0xffffffffffffffffffffffffffffffffffffffff\n      and\n      0xffffffffffffffffffffffffffffffffffffffff\n      and\n      dup2\n      mstore\n      0x20\n      add\n      swap1\n      dup2\n      mstore\n      0x20\n      add\n      0x00\n      keccak256\n        /* \"ElectronicMedicalRecords.sol\":2666:2725  PatientData storage newPatientData = Patient_Data[_patient] */\n      swap1\n      pop\n        /* \"ElectronicMedicalRecords.sol\":2766:2779  _nama_lengkap */\n      dup8\n        /* \"ElectronicMedicalRecords.sol\":2736:2750  newPatientData */\n      dup2\n        /* \"ElectronicMedicalRecords.sol\":2736:2763  newPatientData.nama_lengkap */\n      0x00\n      add\n        /* \"ElectronicMedicalRecords.sol\":2736:2779  newPatientData.nama_lengkap = _nama_lengkap */\n      swap1\n      dup2\n      tag_41\n      swap2\n      swap1\n      tag_42\n      jump\t// in\n    tag_41:\n      pop\n        /* \"ElectronicMedicalRecords.sol\":2812:2817  _umur */\n      dup7\n        /* \"ElectronicMedicalRecords.sol\":2790:2804  newPatientData */\n      dup2\n        /* \"ElectronicMedicalRecords.sol\":2790:2809  newPatientData.umur */\n      0x01\n      add\n        /* \"ElectronicMedicalRecords.sol\":2790:2817  newPatientData.umur = _umur */\n      dup2\n      swap1\n      sstore\n      pop\n        /* \"ElectronicMedicalRecords.sol\":2859:2873  _tanggal_lahir */\n      dup6\n        /* \"ElectronicMedicalRecords.sol\":2828:2842  newPatientData */\n      dup2\n        /* \"ElectronicMedicalRecords.sol\":2828:2856  newPatientData.tanggal_lahir */\n      0x02\n      add\n        /* \"ElectronicMedicalRecords.sol\":2828:2873  newPatientData.tanggal_lahir = _tanggal_lahir */\n      swap1\n      dup2\n      tag_43\n      swap2\n      swap1\n      tag_42\n      jump\t// in\n    tag_43:\n      pop\n        /* \"ElectronicMedicalRecords.sol\":2915:2929  _tanggal_masuk */\n      dup5\n        /* \"ElectronicMedicalRecords.sol\":2884:2898  newPatientData */\n      dup2\n        /* \"ElectronicMedicalRecords.sol\":2884:2912  newPatientData.tanggal_masuk */\n      0x03\n      add\n        /* \"ElectronicMedicalRecords.sol\":2884:2929  newPatientData.tanggal_masuk = _tanggal_masuk */\n      swap1\n      dup2\n      tag_44\n      swap2\n      swap1\n      tag_42\n      jump\t// in\n    tag_44:\n      pop\n        /* \"ElectronicMedicalRecords.sol\":2972:2987  _tanggal_keluar */\n      dup4\n        /* \"ElectronicMedicalRecords.sol\":2940:2954  newPatientData */\n      dup2\n        /* \"ElectronicMedicalRecords.sol\":2940:2969  newPatientData.tanggal_keluar */\n      0x04\n      add\n        /* \"ElectronicMedicalRecords.sol\":2940:2987  newPatientData.tanggal_keluar = _tanggal_keluar */\n      swap1\n      dup2\n      tag_45\n      swap2\n      swap1\n      tag_42\n      jump\t// in\n    tag_45:\n      pop\n        /* \"ElectronicMedicalRecords.sol\":3025:3035  _anamnesis */\n      dup3\n        /* \"ElectronicMedicalRecords.sol\":2998:3012  newPatientData */\n      dup2\n        /* \"ElectronicMedicalRecords.sol\":2998:3022  newPatientData.anamnesis */\n      0x05\n      add\n        /* \"ElectronicMedicalRecords.sol\":2998:3035  newPatientData.anamnesis = _anamnesis */\n      swap1\n      dup2\n      tag_46\n      swap2\n      swap1\n      tag_42\n      jump\t// in\n    tag_46:\n      pop\n        /* \"ElectronicMedicalRecords.sol\":3073:3083  _diagnosis */\n      dup2\n        /* \"ElectronicMedicalRecords.sol\":3046:3060  newPatientData */\n      dup2\n        /* \"ElectronicMedicalRecords.sol\":3046:3070  newPatientData.diagnosis */\n      0x06\n      add\n        /* \"ElectronicMedicalRecords.sol\":3046:3083  newPatientData.diagnosis = _diagnosis */\n      swap1\n      dup2\n      tag_47\n      swap2\n      swap1\n      tag_42\n      jump\t// in\n    tag_47:\n      pop\n        /* \"ElectronicMedicalRecords.sol\":3096:3115  patient_verificator */\n      0x03\n      0x00\n      swap1\n      sload\n      swap1\n      0x0100\n      exp\n      swap1\n      div\n      0xffffffffffffffffffffffffffffffffffffffff\n      and\n        /* \"ElectronicMedicalRecords.sol\":3096:3126  patient_verificator.addPatient */\n      0xffffffffffffffffffffffffffffffffffffffff\n      and\n      0x6d263ceb\n        /* \"ElectronicMedicalRecords.sol\":3127:3135  _patient */\n      dup11\n        /* \"ElectronicMedicalRecords.sol\":3096:3136  patient_verificator.addPatient(_patient) */\n      mload(0x40)\n      dup3\n      0xffffffff\n      and\n      0xe0\n      shl\n      dup2\n      mstore\n      0x04\n      add\n      tag_48\n      swap2\n      swap1\n      tag_34\n      jump\t// in\n    tag_48:\n      0x00\n      mload(0x40)\n      dup1\n      dup4\n      sub\n      dup2\n      0x00\n      dup8\n      gas\n      call\n      iszero\n      dup1\n      iszero\n      tag_50\n      jumpi\n      returndatasize\n      0x00\n      dup1\n      returndatacopy\n      revert(0x00, returndatasize)\n    tag_50:\n      pop\n      pop\n      pop\n      pop\n      mload(0x40)\n      returndatasize\n      0x00\n      dup3\n      returndatacopy\n      returndatasize\n      not(0x1f)\n      0x1f\n      dup3\n      add\n      and\n      dup3\n      add\n      dup1\n      0x40\n      mstore\n      pop\n      dup2\n      add\n      swap1\n      tag_51\n      swap2\n      swap1\n      tag_52\n      jump\t// in\n    tag_51:\n      pop\n        /* \"ElectronicMedicalRecords.sol\":3147:3162  doctor_relation */\n      0x04\n      0x00\n      swap1\n      sload\n      swap1\n      0x0100\n      exp\n      swap1\n      div\n      0xffffffffffffffffffffffffffffffffffffffff\n      and\n        /* \"ElectronicMedicalRecords.sol\":3147:3180  doctor_relation.addDoctorRelation */\n      0xffffffffffffffffffffffffffffffffffffffff\n      and\n      0x8bfc8c71\n        /* \"ElectronicMedicalRecords.sol\":3181:3191  msg.sender */\n      caller\n        /* \"ElectronicMedicalRecords.sol\":3193:3201  _patient */\n      dup12\n        /* \"ElectronicMedicalRecords.sol\":3147:3202  doctor_relation.addDoctorRelation(msg.sender, _patient) */\n      mload(0x40)\n      dup4\n      0xffffffff\n      and\n      0xe0\n      shl\n      dup2\n      mstore\n      0x04\n      add\n      tag_53\n      swap3\n      swap2\n      swap1\n      tag_54\n      jump\t// in\n    tag_53:\n      0x00\n      mload(0x40)\n      dup1\n      dup4\n      sub\n      dup2\n      0x00\n      dup8\n      dup1\n      extcodesize\n      iszero\n      dup1\n      iszero\n      tag_55\n      jumpi\n      0x00\n      dup1\n      revert\n    tag_55:\n      pop\n      gas\n      call\n      iszero\n      dup1\n      iszero\n      tag_57\n      jumpi\n      returndatasize\n      0x00\n      dup1\n      returndatacopy\n      revert(0x00, returndatasize)\n    tag_57:\n      pop\n      pop\n      pop\n      pop\n        /* \"ElectronicMedicalRecords.sol\":2642:3212  { //onlyDoctor... */\n      pop\n        /* \"ElectronicMedicalRecords.sol\":2314:3212  function setPatientData(... */\n      pop\n      pop\n      pop\n      pop\n      pop\n      pop\n      pop\n      pop\n      jump\t// out\n        /* \"ElectronicMedicalRecords.sol\":3220:3417  function getPatientData(address _address)... */\n    tag_19:\n        /* \"ElectronicMedicalRecords.sol\":3339:3362  PatientData memory data */\n      tag_58\n      tag_59\n      jump\t// in\n    tag_58:\n        /* \"ElectronicMedicalRecords.sol\":4399:4417  doctor_verificator */\n      0x02\n      0x00\n      swap1\n      sload\n      swap1\n      0x0100\n      exp\n      swap1\n      div\n      0xffffffffffffffffffffffffffffffffffffffff\n      and\n        /* \"ElectronicMedicalRecords.sol\":4399:4424  doctor_verificator.verify */\n      0xffffffffffffffffffffffffffffffffffffffff\n      and\n      0x63a9c3d7\n        /* \"ElectronicMedicalRecords.sol\":4425:4435  msg.sender */\n      caller\n        /* \"ElectronicMedicalRecords.sol\":4399:4436  doctor_verificator.verify(msg.sender) */\n      mload(0x40)\n      dup3\n      0xffffffff\n      and\n      0xe0\n      shl\n      dup2\n      mstore\n      0x04\n      add\n      tag_61\n      swap2\n      swap1\n      tag_34\n      jump\t// in\n    tag_61:\n      0x20\n      mload(0x40)\n      dup1\n      dup4\n      sub\n      dup2\n      dup7\n      gas\n      staticcall\n      iszero\n      dup1\n      iszero\n      tag_63\n      jumpi\n      returndatasize\n      0x00\n      dup1\n      returndatacopy\n      revert(0x00, returndatasize)\n    tag_63:\n      pop\n      pop\n      pop\n      pop\n      mload(0x40)\n      returndatasize\n      not(0x1f)\n      0x1f\n      dup3\n      add\n      and\n      dup3\n      add\n      dup1\n      0x40\n      mstore\n      pop\n      dup2\n      add\n      swap1\n      tag_64\n      swap2\n      swap1\n      tag_38\n      jump\t// in\n    tag_64:\n        /* \"ElectronicMedicalRecords.sol\":4399:4478  doctor_verificator.verify(msg.sender) || patient_verificator.verify(msg.sender) */\n      dup1\n      tag_65\n      jumpi\n      pop\n        /* \"ElectronicMedicalRecords.sol\":4440:4459  patient_verificator */\n      0x03\n      0x00\n      swap1\n      sload\n      swap1\n      0x0100\n      exp\n      swap1\n      div\n      0xffffffffffffffffffffffffffffffffffffffff\n      and\n        /* \"ElectronicMedicalRecords.sol\":4440:4466  patient_verificator.verify */\n      0xffffffffffffffffffffffffffffffffffffffff\n      and\n      0x63a9c3d7\n        /* \"ElectronicMedicalRecords.sol\":4467:4477  msg.sender */\n      caller\n        /* \"ElectronicMedicalRecords.sol\":4440:4478  patient_verificator.verify(msg.sender) */\n      mload(0x40)\n      dup3\n      0xffffffff\n      and\n      0xe0\n      shl\n      dup2\n      mstore\n      0x04\n      add\n      tag_66\n      swap2\n      swap1\n      tag_34\n      jump\t// in\n    tag_66:\n      0x20\n      mload(0x40)\n      dup1\n      dup4\n      sub\n      dup2\n      dup7\n      gas\n      staticcall\n      iszero\n      dup1\n      iszero\n      tag_68\n      jumpi\n      returndatasize\n      0x00\n      dup1\n      returndatacopy\n      revert(0x00, returndatasize)\n    tag_68:\n      pop\n      pop\n      pop\n      pop\n      mload(0x40)\n      returndatasize\n      not(0x1f)\n      0x1f\n      dup3\n      add\n      and\n      dup3\n      add\n      dup1\n      0x40\n      mstore\n      pop\n      dup2\n      add\n      swap1\n      tag_69\n      swap2\n      swap1\n      tag_38\n      jump\t// in\n    tag_69:\n        /* \"ElectronicMedicalRecords.sol\":4399:4478  doctor_verificator.verify(msg.sender) || patient_verificator.verify(msg.sender) */\n    tag_65:\n        /* \"ElectronicMedicalRecords.sol\":4391:4479  require(doctor_verificator.verify(msg.sender) || patient_verificator.verify(msg.sender)) */\n      tag_70\n      jumpi\n      0x00\n      dup1\n      revert\n    tag_70:\n        /* \"ElectronicMedicalRecords.sol\":3387:3399  Patient_Data */\n      0x00\n        /* \"ElectronicMedicalRecords.sol\":3387:3409  Patient_Data[_address] */\n      dup1\n        /* \"ElectronicMedicalRecords.sol\":3400:3408  _address */\n      dup4\n        /* \"ElectronicMedicalRecords.sol\":3387:3409  Patient_Data[_address] */\n      0xffffffffffffffffffffffffffffffffffffffff\n      and\n      0xffffffffffffffffffffffffffffffffffffffff\n      and\n      dup2\n      mstore\n      0x20\n      add\n      swap1\n      dup2\n      mstore\n      0x20\n      add\n      0x00\n      keccak256\n        /* \"ElectronicMedicalRecords.sol\":3380:3409  return Patient_Data[_address] */\n      mload(0x40)\n      dup1\n      0xe0\n      add\n      0x40\n      mstore\n      swap1\n      dup2\n      0x00\n      dup3\n      add\n      dup1\n      sload\n      tag_72\n      swap1\n      tag_73\n      jump\t// in\n    tag_72:\n      dup1\n      0x1f\n      add\n      0x20\n      dup1\n      swap2\n      div\n      mul\n      0x20\n      add\n      mload(0x40)\n      swap1\n      dup2\n      add\n      0x40\n      mstore\n      dup1\n      swap3\n      swap2\n      swap1\n      dup2\n      dup2\n      mstore\n      0x20\n      add\n      dup3\n      dup1\n      sload\n      tag_74\n      swap1\n      tag_73\n      jump\t// in\n    tag_74:\n      dup1\n      iszero\n      tag_75\n      jumpi\n      dup1\n      0x1f\n      lt\n      tag_76\n      jumpi\n      0x0100\n      dup1\n      dup4\n      sload\n      div\n      mul\n      dup4\n      mstore\n      swap2\n      0x20\n      add\n      swap2\n      jump(tag_75)\n    tag_76:\n      dup3\n      add\n      swap2\n      swap1\n      0x00\n      mstore\n      keccak256(0x00, 0x20)\n      swap1\n    tag_77:\n      dup2\n      sload\n      dup2\n      mstore\n      swap1\n      0x01\n      add\n      swap1\n      0x20\n      add\n      dup1\n      dup4\n      gt\n      tag_77\n      jumpi\n      dup3\n      swap1\n      sub\n      0x1f\n      and\n      dup3\n      add\n      swap2\n    tag_75:\n      pop\n      pop\n      pop\n      pop\n      pop\n      dup2\n      mstore\n      0x20\n      add\n      0x01\n      dup3\n      add\n      sload\n      dup2\n      mstore\n      0x20\n      add\n      0x02\n      dup3\n      add\n      dup1\n      sload\n      tag_78\n      swap1\n      tag_73\n      jump\t// in\n    tag_78:\n      dup1\n      0x1f\n      add\n      0x20\n      dup1\n      swap2\n      div\n      mul\n      0x20\n      add\n      mload(0x40)\n      swap1\n      dup2\n      add\n      0x40\n      mstore\n      dup1\n      swap3\n      swap2\n      swap1\n      dup2\n      dup2\n      mstore\n      0x20\n      add\n      dup3\n      dup1\n      sload\n      tag_79\n      swap1\n      tag_73\n      jump\t// in\n    tag_79:\n      dup1\n      iszero\n      tag_80\n      jumpi\n      dup1\n      0x1f\n      lt\n      tag_81\n      jumpi\n      0x0100\n      dup1\n      dup4\n      sload\n      div\n      mul\n      dup4\n      mstore\n      swap2\n      0x20\n      add\n      swap2\n      jump(tag_80)\n    tag_81:\n      dup3\n      add\n      swap2\n      swap1\n      0x00\n      mstore\n      keccak256(0x00, 0x20)\n      swap1\n    tag_82:\n      dup2\n      sload\n      dup2\n      mstore\n      swap1\n      0x01\n      add\n      swap1\n      0x20\n      add\n      dup1\n      dup4\n      gt\n      tag_82\n      jumpi\n      dup3\n      swap1\n      sub\n      0x1f\n      and\n      dup3\n      add\n      swap2\n    tag_80:\n      pop\n      pop\n      pop\n      pop\n      pop\n      dup2\n      mstore\n      0x20\n      add\n      0x03\n      dup3\n      add\n      dup1\n      sload\n      tag_83\n      swap1\n      tag_73\n      jump\t// in\n    tag_83:\n      dup1\n      0x1f\n      add\n      0x20\n      dup1\n      swap2\n      div\n      mul\n      0x20\n      add\n      mload(0x40)\n      swap1\n      dup2\n      add\n      0x40\n      mstore\n      dup1\n      swap3\n      swap2\n      swap1\n      dup2\n      dup2\n      mstore\n      0x20\n      add\n      dup3\n      dup1\n      sload\n      tag_84\n      swap1\n      tag_73\n      jump\t// in\n    tag_84:\n      dup1\n      iszero\n      tag_85\n      jumpi\n      dup1\n      0x1f\n      lt\n      tag_86\n      jumpi\n      0x0100\n      dup1\n      dup4\n      sload\n      div\n      mul\n      dup4\n      mstore\n      swap2\n      0x20\n      add\n      swap2\n      jump(tag_85)\n    tag_86:\n      dup3\n      add\n      swap2\n      swap1\n      0x00\n      mstore\n      keccak256(0x00, 0x20)\n      swap1\n    tag_87:\n      dup2\n      sload\n      dup2\n      mstore\n      swap1\n      0x01\n      add\n      swap1\n      0x20\n      add\n      dup1\n      dup4\n      gt\n      tag_87\n      jumpi\n      dup3\n      swap1\n      sub\n      0x1f\n      and\n      dup3\n      add\n      swap2\n    tag_85:\n      pop\n      pop\n      pop\n      pop\n      pop\n      dup2\n      mstore\n      0x20\n      add\n      0x04\n      dup3\n      add\n      dup1\n      sload\n      tag_88\n      swap1\n      tag_73\n      jump\t// in\n    tag_88:\n      dup1\n      0x1f\n      add\n      0x20\n      dup1\n      swap2\n      div\n      mul\n      0x20\n      add\n      mload(0x40)\n      swap1\n      dup2\n      add\n      0x40\n      mstore\n      dup1\n      swap3\n      swap2\n      swap1\n      dup2\n      dup2\n      mstore\n      0x20\n      add\n      dup3\n      dup1\n      sload\n      tag_89\n      swap1\n      tag_73\n      jump\t// in\n    tag_89:\n      dup1\n      iszero\n      tag_90\n      jumpi\n      dup1\n      0x1f\n      lt\n      tag_91\n      jumpi\n      0x0100\n      dup1\n      dup4\n      sload\n      div\n      mul\n      dup4\n      mstore\n      swap2\n      0x20\n      add\n      swap2\n      jump(tag_90)\n    tag_91:\n      dup3\n      add\n      swap2\n      swap1\n      0x00\n      mstore\n      keccak256(0x00, 0x20)\n      swap1\n    tag_92:\n      dup2\n      sload\n      dup2\n      mstore\n      swap1\n      0x01\n      add\n      swap1\n      0x20\n      add\n      dup1\n      dup4\n      gt\n      tag_92\n      jumpi\n      dup3\n      swap1\n      sub\n      0x1f\n      and\n      dup3\n      add\n      swap2\n    tag_90:\n      pop\n      pop\n      pop\n      pop\n      pop\n      dup2\n      mstore\n      0x20\n      add\n      0x05\n      dup3\n      add\n      dup1\n      sload\n      tag_93\n      swap1\n      tag_73\n      jump\t// in\n    tag_93:\n      dup1\n      0x1f\n      add\n      0x20\n      dup1\n      swap2\n      div\n      mul\n      0x20\n      add\n      mload(0x40)\n      swap1\n      dup2\n      add\n      0x40\n      mstore\n      dup1\n      swap3\n      swap2\n      swap1\n      dup2\n      dup2\n      mstore\n      0x20\n      add\n      dup3\n      dup1\n      sload\n      tag_94\n      swap1\n      tag_73\n      jump\t// in\n    tag_94:\n      dup1\n      iszero\n      tag_95\n      jumpi\n      dup1\n      0x1f\n      lt\n      tag_96\n      jumpi\n      0x0100\n      dup1\n      dup4\n      sload\n      div\n      mul\n      dup4\n      mstore\n      swap2\n      0x20\n      add\n      swap2\n      jump(tag_95)\n    tag_96:\n      dup3\n      add\n      swap2\n      swap1\n      0x00\n      mstore\n      keccak256(0x00, 0x20)\n      swap1\n    tag_97:\n      dup2\n      sload\n      dup2\n      mstore\n      swap1\n      0x01\n      add\n      swap1\n      0x20\n      add\n      dup1\n      dup4\n      gt\n      tag_97\n      jumpi\n      dup3\n      swap1\n      sub\n      0x1f\n      and\n      dup3\n      add\n      swap2\n    tag_95:\n      pop\n      pop\n      pop\n      pop\n      pop\n      dup2\n      mstore\n      0x20\n      add\n      0x06\n      dup3\n      add\n      dup1\n      sload\n      tag_98\n      swap1\n      tag_73\n      jump\t// in\n    tag_98:\n      dup1\n      0x1f\n      add\n      0x20\n      dup1\n      swap2\n      div\n      mul\n      0x20\n      add\n      mload(0x40)\n      swap1\n      dup2\n      add\n      0x40\n      mstore\n      dup1\n      swap3\n      swap2\n      swap1\n      dup2\n      dup2\n      mstore\n      0x20\n      add\n      dup3\n      dup1\n      sload\n      tag_99\n      swap1\n      tag_73\n      jump\t// in\n    tag_99:\n      dup1\n      iszero\n      tag_100\n      jumpi\n      dup1\n      0x1f\n      lt\n      tag_101\n      jumpi\n      0x0100\n      dup1\n      dup4\n      sload\n      div\n      mul\n      dup4\n      mstore\n      swap2\n      0x20\n      add\n      swap2\n      jump(tag_100)\n    tag_101:\n      dup3\n      add\n      swap2\n      swap1\n      0x00\n      mstore\n      keccak256(0x00, 0x20)\n      swap1\n    tag_102:\n      dup2\n      sload\n      dup2\n      mstore\n      swap1\n      0x01\n      add\n      swap1\n      0x20\n      add\n      dup1\n      dup4\n      gt\n      tag_102\n      jumpi\n      dup3\n      swap1\n      sub\n      0x1f\n      and\n      dup3\n      add\n      swap2\n    tag_100:\n      pop\n      pop\n      pop\n      pop\n      pop\n      dup2\n      mstore\n      pop\n      pop\n      swap1\n      pop\n        /* \"ElectronicMedicalRecords.sol\":3220:3417  function getPatientData(address _address)... */\n      swap2\n      swap1\n      pop\n      jump\t// out\n        /* \"ElectronicMedicalRecords.sol\":3425:4234  function updatePatientData(... */\n    tag_24:\n        /* \"ElectronicMedicalRecords.sol\":3769:3808  PatientData storage existingPatientData */\n      0x00\n        /* \"ElectronicMedicalRecords.sol\":3811:3823  Patient_Data */\n      dup1\n        /* \"ElectronicMedicalRecords.sol\":3811:3833  Patient_Data[_patient] */\n      0x00\n        /* \"ElectronicMedicalRecords.sol\":3824:3832  _patient */\n      dup11\n        /* \"ElectronicMedicalRecords.sol\":3811:3833  Patient_Data[_patient] */\n      0xffffffffffffffffffffffffffffffffffffffff\n      and\n      0xffffffffffffffffffffffffffffffffffffffff\n      and\n      dup2\n      mstore\n      0x20\n      add\n      swap1\n      dup2\n      mstore\n      0x20\n      add\n      0x00\n      keccak256\n        /* \"ElectronicMedicalRecords.sol\":3769:3833  PatientData storage existingPatientData = Patient_Data[_patient] */\n      swap1\n      pop\n        /* \"ElectronicMedicalRecords.sol\":3879:3892  _nama_lengkap */\n      dup8\n        /* \"ElectronicMedicalRecords.sol\":3844:3863  existingPatientData */\n      dup2\n        /* \"ElectronicMedicalRecords.sol\":3844:3876  existingPatientData.nama_lengkap */\n      0x00\n      add\n        /* \"ElectronicMedicalRecords.sol\":3844:3892  existingPatientData.nama_lengkap = _nama_lengkap */\n      swap1\n      dup2\n      tag_104\n      swap2\n      swap1\n      tag_42\n      jump\t// in\n    tag_104:\n      pop\n        /* \"ElectronicMedicalRecords.sol\":3930:3935  _umur */\n      dup7\n        /* \"ElectronicMedicalRecords.sol\":3903:3922  existingPatientData */\n      dup2\n        /* \"ElectronicMedicalRecords.sol\":3903:3927  existingPatientData.umur */\n      0x01\n      add\n        /* \"ElectronicMedicalRecords.sol\":3903:3935  existingPatientData.umur = _umur */\n      dup2\n      swap1\n      sstore\n      pop\n        /* \"ElectronicMedicalRecords.sol\":3982:3996  _tanggal_lahir */\n      dup6\n        /* \"ElectronicMedicalRecords.sol\":3946:3965  existingPatientData */\n      dup2\n        /* \"ElectronicMedicalRecords.sol\":3946:3979  existingPatientData.tanggal_lahir */\n      0x02\n      add\n        /* \"ElectronicMedicalRecords.sol\":3946:3996  existingPatientData.tanggal_lahir = _tanggal_lahir */\n      swap1\n      dup2\n      tag_105\n      swap2\n      swap1\n      tag_42\n      jump\t// in\n    tag_105:\n      pop\n        /* \"ElectronicMedicalRecords.sol\":4043:4057  _tanggal_masuk */\n      dup5\n        /* \"ElectronicMedicalRecords.sol\":4007:4026  existingPatientData */\n      dup2\n        /* \"ElectronicMedicalRecords.sol\":4007:4040  existingPatientData.tanggal_masuk */\n      0x03\n      add\n        /* \"ElectronicMedicalRecords.sol\":4007:4057  existingPatientData.tanggal_masuk = _tanggal_masuk */\n      swap1\n      dup2\n      tag_106\n      swap2\n      swap1\n      tag_42\n      jump\t// in\n    tag_106:\n      pop\n        /* \"ElectronicMedicalRecords.sol\":4105:4120  _tanggal_keluar */\n      dup4\n        /* \"ElectronicMedicalRecords.sol\":4068:4087  existingPatientData */\n      dup2\n        /* \"ElectronicMedicalRecords.sol\":4068:4102  existingPatientData.tanggal_keluar */\n      0x04\n      add\n        /* \"ElectronicMedicalRecords.sol\":4068:4120  existingPatientData.tanggal_keluar = _tanggal_keluar */\n      swap1\n      dup2\n      tag_107\n      swap2\n      swap1\n      tag_42\n      jump\t// in\n    tag_107:\n      pop\n        /* \"ElectronicMedicalRecords.sol\":4163:4173  _anamnesis */\n      dup3\n        /* \"ElectronicMedicalRecords.sol\":4131:4150  existingPatientData */\n      dup2\n        /* \"ElectronicMedicalRecords.sol\":4131:4160  existingPatientData.anamnesis */\n      0x05\n      add\n        /* \"ElectronicMedicalRecords.sol\":4131:4173  existingPatientData.anamnesis = _anamnesis */\n      swap1\n      dup2\n      tag_108\n      swap2\n      swap1\n      tag_42\n      jump\t// in\n    tag_108:\n      pop\n        /* \"ElectronicMedicalRecords.sol\":4216:4226  _diagnosis */\n      dup2\n        /* \"ElectronicMedicalRecords.sol\":4184:4203  existingPatientData */\n      dup2\n        /* \"ElectronicMedicalRecords.sol\":4184:4213  existingPatientData.diagnosis */\n      0x06\n      add\n        /* \"ElectronicMedicalRecords.sol\":4184:4226  existingPatientData.diagnosis = _diagnosis */\n      swap1\n      dup2\n      tag_109\n      swap2\n      swap1\n      tag_42\n      jump\t// in\n    tag_109:\n      pop\n        /* \"ElectronicMedicalRecords.sol\":3745:4234  { //onlyDoctor... */\n      pop\n        /* \"ElectronicMedicalRecords.sol\":3425:4234  function updatePatientData(... */\n      pop\n      pop\n      pop\n      pop\n      pop\n      pop\n      pop\n      pop\n      jump\t// out\n        /* \"ElectronicMedicalRecords.sol\":1982:2150  function setPatientVerificatorAddress(address _PatientVerificatorAddress) public {... */\n    tag_27:\n        /* \"ElectronicMedicalRecords.sol\":2115:2141  _PatientVerificatorAddress */\n      dup1\n        /* \"ElectronicMedicalRecords.sol\":2074:2093  patient_verificator */\n      0x03\n      0x00\n        /* \"ElectronicMedicalRecords.sol\":2074:2142  patient_verificator = PatientVerificator(_PatientVerificatorAddress) */\n      0x0100\n      exp\n      dup2\n      sload\n      dup2\n      0xffffffffffffffffffffffffffffffffffffffff\n      mul\n      not\n      and\n      swap1\n      dup4\n      0xffffffffffffffffffffffffffffffffffffffff\n      and\n      mul\n      or\n      swap1\n      sstore\n      pop\n        /* \"ElectronicMedicalRecords.sol\":1982:2150  function setPatientVerificatorAddress(address _PatientVerificatorAddress) public {... */\n      pop\n      jump\t// out\n        /* \"ElectronicMedicalRecords.sol\":2158:2306  function setDoctorRelationAddress(address _DoctorRelationAddress) public {... */\n    tag_30:\n        /* \"ElectronicMedicalRecords.sol\":2275:2297  _DoctorRelationAddress */\n      dup1\n        /* \"ElectronicMedicalRecords.sol\":2242:2257  doctor_relation */\n      0x04\n      0x00\n        /* \"ElectronicMedicalRecords.sol\":2242:2298  doctor_relation = DoctorRelation(_DoctorRelationAddress) */\n      0x0100\n      exp\n      dup2\n      sload\n      dup2\n      0xffffffffffffffffffffffffffffffffffffffff\n      mul\n      not\n      and\n      swap1\n      dup4\n      0xffffffffffffffffffffffffffffffffffffffff\n      and\n      mul\n      or\n      swap1\n      sstore\n      pop\n        /* \"ElectronicMedicalRecords.sol\":2158:2306  function setDoctorRelationAddress(address _DoctorRelationAddress) public {... */\n      pop\n      jump\t// out\n    tag_59:\n      mload(0x40)\n      dup1\n      0xe0\n      add\n      0x40\n      mstore\n      dup1\n      0x60\n      dup2\n      mstore\n      0x20\n      add\n      0x00\n      dup2\n      mstore\n      0x20\n      add\n      0x60\n      dup2\n      mstore\n      0x20\n      add\n      0x60\n      dup2\n      mstore\n      0x20\n      add\n      0x60\n      dup2\n      mstore\n      0x20\n      add\n      0x60\n      dup2\n      mstore\n      0x20\n      add\n      0x60\n      dup2\n      mstore\n      pop\n      swap1\n      jump\t// out\n        /* \"#utility.yul\":7:82   */\n    tag_112:\n        /* \"#utility.yul\":40:46   */\n      0x00\n        /* \"#utility.yul\":73:75   */\n      0x40\n        /* \"#utility.yul\":67:76   */\n      mload\n        /* \"#utility.yul\":57:76   */\n      swap1\n      pop\n        /* \"#utility.yul\":7:82   */\n      swap1\n      jump\t// out\n        /* \"#utility.yul\":88:205   */\n    tag_113:\n        /* \"#utility.yul\":197:198   */\n      0x00\n        /* \"#utility.yul\":194:195   */\n      dup1\n        /* \"#utility.yul\":187:199   */\n      revert\n        /* \"#utility.yul\":211:328   */\n    tag_114:\n        /* \"#utility.yul\":320:321   */\n      0x00\n        /* \"#utility.yul\":317:318   */\n      dup1\n        /* \"#utility.yul\":310:322   */\n      revert\n        /* \"#utility.yul\":334:460   */\n    tag_115:\n        /* \"#utility.yul\":371:378   */\n      0x00\n        /* \"#utility.yul\":411:453   */\n      0xffffffffffffffffffffffffffffffffffffffff\n        /* \"#utility.yul\":404:409   */\n      dup3\n        /* \"#utility.yul\":400:454   */\n      and\n        /* \"#utility.yul\":389:454   */\n      swap1\n      pop\n        /* \"#utility.yul\":334:460   */\n      swap2\n      swap1\n      pop\n      jump\t// out\n        /* \"#utility.yul\":466:562   */\n    tag_116:\n        /* \"#utility.yul\":503:510   */\n      0x00\n        /* \"#utility.yul\":532:556   */\n      tag_166\n        /* \"#utility.yul\":550:555   */\n      dup3\n        /* \"#utility.yul\":532:556   */\n      tag_115\n      jump\t// in\n    tag_166:\n        /* \"#utility.yul\":521:556   */\n      swap1\n      pop\n        /* \"#utility.yul\":466:562   */\n      swap2\n      swap1\n      pop\n      jump\t// out\n        /* \"#utility.yul\":568:690   */\n    tag_117:\n        /* \"#utility.yul\":641:665   */\n      tag_168\n        /* \"#utility.yul\":659:664   */\n      dup2\n        /* \"#utility.yul\":641:665   */\n      tag_116\n      jump\t// in\n    tag_168:\n        /* \"#utility.yul\":634:639   */\n      dup2\n        /* \"#utility.yul\":631:666   */\n      eq\n        /* \"#utility.yul\":621:684   */\n      tag_169\n      jumpi\n        /* \"#utility.yul\":680:681   */\n      0x00\n        /* \"#utility.yul\":677:678   */\n      dup1\n        /* \"#utility.yul\":670:682   */\n      revert\n        /* \"#utility.yul\":621:684   */\n    tag_169:\n        /* \"#utility.yul\":568:690   */\n      pop\n      jump\t// out\n        /* \"#utility.yul\":696:835   */\n    tag_118:\n        /* \"#utility.yul\":742:747   */\n      0x00\n        /* \"#utility.yul\":780:786   */\n      dup2\n        /* \"#utility.yul\":767:787   */\n      calldataload\n        /* \"#utility.yul\":758:787   */\n      swap1\n      pop\n        /* \"#utility.yul\":796:829   */\n      tag_171\n        /* \"#utility.yul\":823:828   */\n      dup2\n        /* \"#utility.yul\":796:829   */\n      tag_117\n      jump\t// in\n    tag_171:\n        /* \"#utility.yul\":696:835   */\n      swap3\n      swap2\n      pop\n      pop\n      jump\t// out\n        /* \"#utility.yul\":841:1170   */\n    tag_11:\n        /* \"#utility.yul\":900:906   */\n      0x00\n        /* \"#utility.yul\":949:951   */\n      0x20\n        /* \"#utility.yul\":937:946   */\n      dup3\n        /* \"#utility.yul\":928:935   */\n      dup5\n        /* \"#utility.yul\":924:947   */\n      sub\n        /* \"#utility.yul\":920:952   */\n      slt\n        /* \"#utility.yul\":917:1036   */\n      iszero\n      tag_173\n      jumpi\n        /* \"#utility.yul\":955:1034   */\n      tag_174\n      tag_113\n      jump\t// in\n    tag_174:\n        /* \"#utility.yul\":917:1036   */\n    tag_173:\n        /* \"#utility.yul\":1075:1076   */\n      0x00\n        /* \"#utility.yul\":1100:1153   */\n      tag_175\n        /* \"#utility.yul\":1145:1152   */\n      dup5\n        /* \"#utility.yul\":1136:1142   */\n      dup3\n        /* \"#utility.yul\":1125:1134   */\n      dup6\n        /* \"#utility.yul\":1121:1143   */\n      add\n        /* \"#utility.yul\":1100:1153   */\n      tag_118\n      jump\t// in\n    tag_175:\n        /* \"#utility.yul\":1090:1153   */\n      swap2\n      pop\n        /* \"#utility.yul\":1046:1163   */\n      pop\n        /* \"#utility.yul\":841:1170   */\n      swap3\n      swap2\n      pop\n      pop\n      jump\t// out\n        /* \"#utility.yul\":1176:1293   */\n    tag_119:\n        /* \"#utility.yul\":1285:1286   */\n      0x00\n        /* \"#utility.yul\":1282:1283   */\n      dup1\n        /* \"#utility.yul\":1275:1287   */\n      revert\n        /* \"#utility.yul\":1299:1416   */\n    tag_120:\n        /* \"#utility.yul\":1408:1409   */\n      0x00\n        /* \"#utility.yul\":1405:1406   */\n      dup1\n        /* \"#utility.yul\":1398:1410   */\n      revert\n        /* \"#utility.yul\":1422:1524   */\n    tag_121:\n        /* \"#utility.yul\":1463:1469   */\n      0x00\n        /* \"#utility.yul\":1514:1516   */\n      0x1f\n        /* \"#utility.yul\":1510:1517   */\n      not\n        /* \"#utility.yul\":1505:1507   */\n      0x1f\n        /* \"#utility.yul\":1498:1503   */\n      dup4\n        /* \"#utility.yul\":1494:1508   */\n      add\n        /* \"#utility.yul\":1490:1518   */\n      and\n        /* \"#utility.yul\":1480:1518   */\n      swap1\n      pop\n        /* \"#utility.yul\":1422:1524   */\n      swap2\n      swap1\n      pop\n      jump\t// out\n        /* \"#utility.yul\":1530:1710   */\n    tag_122:\n        /* \"#utility.yul\":1578:1655   */\n      0x4e487b7100000000000000000000000000000000000000000000000000000000\n        /* \"#utility.yul\":1575:1576   */\n      0x00\n        /* \"#utility.yul\":1568:1656   */\n      mstore\n        /* \"#utility.yul\":1675:1679   */\n      0x41\n        /* \"#utility.yul\":1672:1673   */\n      0x04\n        /* \"#utility.yul\":1665:1680   */\n      mstore\n        /* \"#utility.yul\":1699:1703   */\n      0x24\n        /* \"#utility.yul\":1696:1697   */\n      0x00\n        /* \"#utility.yul\":1689:1704   */\n      revert\n        /* \"#utility.yul\":1716:1997   */\n    tag_123:\n        /* \"#utility.yul\":1799:1826   */\n      tag_181\n        /* \"#utility.yul\":1821:1825   */\n      dup3\n        /* \"#utility.yul\":1799:1826   */\n      tag_121\n      jump\t// in\n    tag_181:\n        /* \"#utility.yul\":1791:1797   */\n      dup2\n        /* \"#utility.yul\":1787:1827   */\n      add\n        /* \"#utility.yul\":1929:1935   */\n      dup2\n        /* \"#utility.yul\":1917:1927   */\n      dup2\n        /* \"#utility.yul\":1914:1936   */\n      lt\n        /* \"#utility.yul\":1893:1911   */\n      0xffffffffffffffff\n        /* \"#utility.yul\":1881:1891   */\n      dup3\n        /* \"#utility.yul\":1878:1912   */\n      gt\n        /* \"#utility.yul\":1875:1937   */\n      or\n        /* \"#utility.yul\":1872:1960   */\n      iszero\n      tag_182\n      jumpi\n        /* \"#utility.yul\":1940:1958   */\n      tag_183\n      tag_122\n      jump\t// in\n    tag_183:\n        /* \"#utility.yul\":1872:1960   */\n    tag_182:\n        /* \"#utility.yul\":1980:1990   */\n      dup1\n        /* \"#utility.yul\":1976:1978   */\n      0x40\n        /* \"#utility.yul\":1969:1991   */\n      mstore\n        /* \"#utility.yul\":1759:1997   */\n      pop\n        /* \"#utility.yul\":1716:1997   */\n      pop\n      pop\n      jump\t// out\n        /* \"#utility.yul\":2003:2132   */\n    tag_124:\n        /* \"#utility.yul\":2037:2043   */\n      0x00\n        /* \"#utility.yul\":2064:2084   */\n      tag_185\n      tag_112\n      jump\t// in\n    tag_185:\n        /* \"#utility.yul\":2054:2084   */\n      swap1\n      pop\n        /* \"#utility.yul\":2093:2126   */\n      tag_186\n        /* \"#utility.yul\":2121:2125   */\n      dup3\n        /* \"#utility.yul\":2113:2119   */\n      dup3\n        /* \"#utility.yul\":2093:2126   */\n      tag_123\n      jump\t// in\n    tag_186:\n        /* \"#utility.yul\":2003:2132   */\n      swap2\n      swap1\n      pop\n      jump\t// out\n        /* \"#utility.yul\":2138:2446   */\n    tag_125:\n        /* \"#utility.yul\":2200:2204   */\n      0x00\n        /* \"#utility.yul\":2290:2308   */\n      0xffffffffffffffff\n        /* \"#utility.yul\":2282:2288   */\n      dup3\n        /* \"#utility.yul\":2279:2309   */\n      gt\n        /* \"#utility.yul\":2276:2332   */\n      iszero\n      tag_188\n      jumpi\n        /* \"#utility.yul\":2312:2330   */\n      tag_189\n      tag_122\n      jump\t// in\n    tag_189:\n        /* \"#utility.yul\":2276:2332   */\n    tag_188:\n        /* \"#utility.yul\":2350:2379   */\n      tag_190\n        /* \"#utility.yul\":2372:2378   */\n      dup3\n        /* \"#utility.yul\":2350:2379   */\n      tag_121\n      jump\t// in\n    tag_190:\n        /* \"#utility.yul\":2342:2379   */\n      swap1\n      pop\n        /* \"#utility.yul\":2434:2438   */\n      0x20\n        /* \"#utility.yul\":2428:2432   */\n      dup2\n        /* \"#utility.yul\":2424:2439   */\n      add\n        /* \"#utility.yul\":2416:2439   */\n      swap1\n      pop\n        /* \"#utility.yul\":2138:2446   */\n      swap2\n      swap1\n      pop\n      jump\t// out\n        /* \"#utility.yul\":2452:2598   */\n    tag_126:\n        /* \"#utility.yul\":2549:2555   */\n      dup3\n        /* \"#utility.yul\":2544:2547   */\n      dup2\n        /* \"#utility.yul\":2539:2542   */\n      dup4\n        /* \"#utility.yul\":2526:2556   */\n      calldatacopy\n        /* \"#utility.yul\":2590:2591   */\n      0x00\n        /* \"#utility.yul\":2581:2587   */\n      dup4\n        /* \"#utility.yul\":2576:2579   */\n      dup4\n        /* \"#utility.yul\":2572:2588   */\n      add\n        /* \"#utility.yul\":2565:2592   */\n      mstore\n        /* \"#utility.yul\":2452:2598   */\n      pop\n      pop\n      pop\n      jump\t// out\n        /* \"#utility.yul\":2604:3029   */\n    tag_127:\n        /* \"#utility.yul\":2682:2687   */\n      0x00\n        /* \"#utility.yul\":2707:2773   */\n      tag_193\n        /* \"#utility.yul\":2723:2772   */\n      tag_194\n        /* \"#utility.yul\":2765:2771   */\n      dup5\n        /* \"#utility.yul\":2723:2772   */\n      tag_125\n      jump\t// in\n    tag_194:\n        /* \"#utility.yul\":2707:2773   */\n      tag_124\n      jump\t// in\n    tag_193:\n        /* \"#utility.yul\":2698:2773   */\n      swap1\n      pop\n        /* \"#utility.yul\":2796:2802   */\n      dup3\n        /* \"#utility.yul\":2789:2794   */\n      dup2\n        /* \"#utility.yul\":2782:2803   */\n      mstore\n        /* \"#utility.yul\":2834:2838   */\n      0x20\n        /* \"#utility.yul\":2827:2832   */\n      dup2\n        /* \"#utility.yul\":2823:2839   */\n      add\n        /* \"#utility.yul\":2872:2875   */\n      dup5\n        /* \"#utility.yul\":2863:2869   */\n      dup5\n        /* \"#utility.yul\":2858:2861   */\n      dup5\n        /* \"#utility.yul\":2854:2870   */\n      add\n        /* \"#utility.yul\":2851:2876   */\n      gt\n        /* \"#utility.yul\":2848:2960   */\n      iszero\n      tag_195\n      jumpi\n        /* \"#utility.yul\":2879:2958   */\n      tag_196\n      tag_120\n      jump\t// in\n    tag_196:\n        /* \"#utility.yul\":2848:2960   */\n    tag_195:\n        /* \"#utility.yul\":2969:3023   */\n      tag_197\n        /* \"#utility.yul\":3016:3022   */\n      dup5\n        /* \"#utility.yul\":3011:3014   */\n      dup3\n        /* \"#utility.yul\":3006:3009   */\n      dup6\n        /* \"#utility.yul\":2969:3023   */\n      tag_126\n      jump\t// in\n    tag_197:\n        /* \"#utility.yul\":2688:3029   */\n      pop\n        /* \"#utility.yul\":2604:3029   */\n      swap4\n      swap3\n      pop\n      pop\n      pop\n      jump\t// out\n        /* \"#utility.yul\":3049:3389   */\n    tag_128:\n        /* \"#utility.yul\":3105:3110   */\n      0x00\n        /* \"#utility.yul\":3154:3157   */\n      dup3\n        /* \"#utility.yul\":3147:3151   */\n      0x1f\n        /* \"#utility.yul\":3139:3145   */\n      dup4\n        /* \"#utility.yul\":3135:3152   */\n      add\n        /* \"#utility.yul\":3131:3158   */\n      slt\n        /* \"#utility.yul\":3121:3243   */\n      tag_199\n      jumpi\n        /* \"#utility.yul\":3162:3241   */\n      tag_200\n      tag_119\n      jump\t// in\n    tag_200:\n        /* \"#utility.yul\":3121:3243   */\n    tag_199:\n        /* \"#utility.yul\":3279:3285   */\n      dup2\n        /* \"#utility.yul\":3266:3286   */\n      calldataload\n        /* \"#utility.yul\":3304:3383   */\n      tag_201\n        /* \"#utility.yul\":3379:3382   */\n      dup5\n        /* \"#utility.yul\":3371:3377   */\n      dup3\n        /* \"#utility.yul\":3364:3368   */\n      0x20\n        /* \"#utility.yul\":3356:3362   */\n      dup7\n        /* \"#utility.yul\":3352:3369   */\n      add\n        /* \"#utility.yul\":3304:3383   */\n      tag_127\n      jump\t// in\n    tag_201:\n        /* \"#utility.yul\":3295:3383   */\n      swap2\n      pop\n        /* \"#utility.yul\":3111:3389   */\n      pop\n        /* \"#utility.yul\":3049:3389   */\n      swap3\n      swap2\n      pop\n      pop\n      jump\t// out\n        /* \"#utility.yul\":3395:3472   */\n    tag_129:\n        /* \"#utility.yul\":3432:3439   */\n      0x00\n        /* \"#utility.yul\":3461:3466   */\n      dup2\n        /* \"#utility.yul\":3450:3466   */\n      swap1\n      pop\n        /* \"#utility.yul\":3395:3472   */\n      swap2\n      swap1\n      pop\n      jump\t// out\n        /* \"#utility.yul\":3478:3600   */\n    tag_130:\n        /* \"#utility.yul\":3551:3575   */\n      tag_204\n        /* \"#utility.yul\":3569:3574   */\n      dup2\n        /* \"#utility.yul\":3551:3575   */\n      tag_129\n      jump\t// in\n    tag_204:\n        /* \"#utility.yul\":3544:3549   */\n      dup2\n        /* \"#utility.yul\":3541:3576   */\n      eq\n        /* \"#utility.yul\":3531:3594   */\n      tag_205\n      jumpi\n        /* \"#utility.yul\":3590:3591   */\n      0x00\n        /* \"#utility.yul\":3587:3588   */\n      dup1\n        /* \"#utility.yul\":3580:3592   */\n      revert\n        /* \"#utility.yul\":3531:3594   */\n    tag_205:\n        /* \"#utility.yul\":3478:3600   */\n      pop\n      jump\t// out\n        /* \"#utility.yul\":3606:3745   */\n    tag_131:\n        /* \"#utility.yul\":3652:3657   */\n      0x00\n        /* \"#utility.yul\":3690:3696   */\n      dup2\n        /* \"#utility.yul\":3677:3697   */\n      calldataload\n        /* \"#utility.yul\":3668:3697   */\n      swap1\n      pop\n        /* \"#utility.yul\":3706:3739   */\n      tag_207\n        /* \"#utility.yul\":3733:3738   */\n      dup2\n        /* \"#utility.yul\":3706:3739   */\n      tag_130\n      jump\t// in\n    tag_207:\n        /* \"#utility.yul\":3606:3745   */\n      swap3\n      swap2\n      pop\n      pop\n      jump\t// out\n        /* \"#utility.yul\":3751:6180   */\n    tag_15:\n        /* \"#utility.yul\":3933:3939   */\n      0x00\n        /* \"#utility.yul\":3941:3947   */\n      dup1\n        /* \"#utility.yul\":3949:3955   */\n      0x00\n        /* \"#utility.yul\":3957:3963   */\n      dup1\n        /* \"#utility.yul\":3965:3971   */\n      0x00\n        /* \"#utility.yul\":3973:3979   */\n      dup1\n        /* \"#utility.yul\":3981:3987   */\n      0x00\n        /* \"#utility.yul\":3989:3995   */\n      dup1\n        /* \"#utility.yul\":4038:4041   */\n      0x0100\n        /* \"#utility.yul\":4026:4035   */\n      dup10\n        /* \"#utility.yul\":4017:4024   */\n      dup12\n        /* \"#utility.yul\":4013:4036   */\n      sub\n        /* \"#utility.yul\":4009:4042   */\n      slt\n        /* \"#utility.yul\":4006:4126   */\n      iszero\n      tag_209\n      jumpi\n        /* \"#utility.yul\":4045:4124   */\n      tag_210\n      tag_113\n      jump\t// in\n    tag_210:\n        /* \"#utility.yul\":4006:4126   */\n    tag_209:\n        /* \"#utility.yul\":4165:4166   */\n      0x00\n        /* \"#utility.yul\":4190:4243   */\n      tag_211\n        /* \"#utility.yul\":4235:4242   */\n      dup12\n        /* \"#utility.yul\":4226:4232   */\n      dup3\n        /* \"#utility.yul\":4215:4224   */\n      dup13\n        /* \"#utility.yul\":4211:4233   */\n      add\n        /* \"#utility.yul\":4190:4243   */\n      tag_118\n      jump\t// in\n    tag_211:\n        /* \"#utility.yul\":4180:4243   */\n      swap9\n      pop\n        /* \"#utility.yul\":4136:4253   */\n      pop\n        /* \"#utility.yul\":4320:4322   */\n      0x20\n        /* \"#utility.yul\":4309:4318   */\n      dup10\n        /* \"#utility.yul\":4305:4323   */\n      add\n        /* \"#utility.yul\":4292:4324   */\n      calldataload\n        /* \"#utility.yul\":4351:4369   */\n      0xffffffffffffffff\n        /* \"#utility.yul\":4343:4349   */\n      dup2\n        /* \"#utility.yul\":4340:4370   */\n      gt\n        /* \"#utility.yul\":4337:4454   */\n      iszero\n      tag_212\n      jumpi\n        /* \"#utility.yul\":4373:4452   */\n      tag_213\n      tag_114\n      jump\t// in\n    tag_213:\n        /* \"#utility.yul\":4337:4454   */\n    tag_212:\n        /* \"#utility.yul\":4478:4541   */\n      tag_214\n        /* \"#utility.yul\":4533:4540   */\n      dup12\n        /* \"#utility.yul\":4524:4530   */\n      dup3\n        /* \"#utility.yul\":4513:4522   */\n      dup13\n        /* \"#utility.yul\":4509:4531   */\n      add\n        /* \"#utility.yul\":4478:4541   */\n      tag_128\n      jump\t// in\n    tag_214:\n        /* \"#utility.yul\":4468:4541   */\n      swap8\n      pop\n        /* \"#utility.yul\":4263:4551   */\n      pop\n        /* \"#utility.yul\":4590:4592   */\n      0x40\n        /* \"#utility.yul\":4616:4669   */\n      tag_215\n        /* \"#utility.yul\":4661:4668   */\n      dup12\n        /* \"#utility.yul\":4652:4658   */\n      dup3\n        /* \"#utility.yul\":4641:4650   */\n      dup13\n        /* \"#utility.yul\":4637:4659   */\n      add\n        /* \"#utility.yul\":4616:4669   */\n      tag_131\n      jump\t// in\n    tag_215:\n        /* \"#utility.yul\":4606:4669   */\n      swap7\n      pop\n        /* \"#utility.yul\":4561:4679   */\n      pop\n        /* \"#utility.yul\":4746:4748   */\n      0x60\n        /* \"#utility.yul\":4735:4744   */\n      dup10\n        /* \"#utility.yul\":4731:4749   */\n      add\n        /* \"#utility.yul\":4718:4750   */\n      calldataload\n        /* \"#utility.yul\":4777:4795   */\n      0xffffffffffffffff\n        /* \"#utility.yul\":4769:4775   */\n      dup2\n        /* \"#utility.yul\":4766:4796   */\n      gt\n        /* \"#utility.yul\":4763:4880   */\n      iszero\n      tag_216\n      jumpi\n        /* \"#utility.yul\":4799:4878   */\n      tag_217\n      tag_114\n      jump\t// in\n    tag_217:\n        /* \"#utility.yul\":4763:4880   */\n    tag_216:\n        /* \"#utility.yul\":4904:4967   */\n      tag_218\n        /* \"#utility.yul\":4959:4966   */\n      dup12\n        /* \"#utility.yul\":4950:4956   */\n      dup3\n        /* \"#utility.yul\":4939:4948   */\n      dup13\n        /* \"#utility.yul\":4935:4957   */\n      add\n        /* \"#utility.yul\":4904:4967   */\n      tag_128\n      jump\t// in\n    tag_218:\n        /* \"#utility.yul\":4894:4967   */\n      swap6\n      pop\n        /* \"#utility.yul\":4689:4977   */\n      pop\n        /* \"#utility.yul\":5044:5047   */\n      0x80\n        /* \"#utility.yul\":5033:5042   */\n      dup10\n        /* \"#utility.yul\":5029:5048   */\n      add\n        /* \"#utility.yul\":5016:5049   */\n      calldataload\n        /* \"#utility.yul\":5076:5094   */\n      0xffffffffffffffff\n        /* \"#utility.yul\":5068:5074   */\n      dup2\n        /* \"#utility.yul\":5065:5095   */\n      gt\n        /* \"#utility.yul\":5062:5179   */\n      iszero\n      tag_219\n      jumpi\n        /* \"#utility.yul\":5098:5177   */\n      tag_220\n      tag_114\n      jump\t// in\n    tag_220:\n        /* \"#utility.yul\":5062:5179   */\n    tag_219:\n        /* \"#utility.yul\":5203:5266   */\n      tag_221\n        /* \"#utility.yul\":5258:5265   */\n      dup12\n        /* \"#utility.yul\":5249:5255   */\n      dup3\n        /* \"#utility.yul\":5238:5247   */\n      dup13\n        /* \"#utility.yul\":5234:5256   */\n      add\n        /* \"#utility.yul\":5203:5266   */\n      tag_128\n      jump\t// in\n    tag_221:\n        /* \"#utility.yul\":5193:5266   */\n      swap5\n      pop\n        /* \"#utility.yul\":4987:5276   */\n      pop\n        /* \"#utility.yul\":5343:5346   */\n      0xa0\n        /* \"#utility.yul\":5332:5341   */\n      dup10\n        /* \"#utility.yul\":5328:5347   */\n      add\n        /* \"#utility.yul\":5315:5348   */\n      calldataload\n        /* \"#utility.yul\":5375:5393   */\n      0xffffffffffffffff\n        /* \"#utility.yul\":5367:5373   */\n      dup2\n        /* \"#utility.yul\":5364:5394   */\n      gt\n        /* \"#utility.yul\":5361:5478   */\n      iszero\n      tag_222\n      jumpi\n        /* \"#utility.yul\":5397:5476   */\n      tag_223\n      tag_114\n      jump\t// in\n    tag_223:\n        /* \"#utility.yul\":5361:5478   */\n    tag_222:\n        /* \"#utility.yul\":5502:5565   */\n      tag_224\n        /* \"#utility.yul\":5557:5564   */\n      dup12\n        /* \"#utility.yul\":5548:5554   */\n      dup3\n        /* \"#utility.yul\":5537:5546   */\n      dup13\n        /* \"#utility.yul\":5533:5555   */\n      add\n        /* \"#utility.yul\":5502:5565   */\n      tag_128\n      jump\t// in\n    tag_224:\n        /* \"#utility.yul\":5492:5565   */\n      swap4\n      pop\n        /* \"#utility.yul\":5286:5575   */\n      pop\n        /* \"#utility.yul\":5642:5645   */\n      0xc0\n        /* \"#utility.yul\":5631:5640   */\n      dup10\n        /* \"#utility.yul\":5627:5646   */\n      add\n        /* \"#utility.yul\":5614:5647   */\n      calldataload\n        /* \"#utility.yul\":5674:5692   */\n      0xffffffffffffffff\n        /* \"#utility.yul\":5666:5672   */\n      dup2\n        /* \"#utility.yul\":5663:5693   */\n      gt\n        /* \"#utility.yul\":5660:5777   */\n      iszero\n      tag_225\n      jumpi\n        /* \"#utility.yul\":5696:5775   */\n      tag_226\n      tag_114\n      jump\t// in\n    tag_226:\n        /* \"#utility.yul\":5660:5777   */\n    tag_225:\n        /* \"#utility.yul\":5801:5864   */\n      tag_227\n        /* \"#utility.yul\":5856:5863   */\n      dup12\n        /* \"#utility.yul\":5847:5853   */\n      dup3\n        /* \"#utility.yul\":5836:5845   */\n      dup13\n        /* \"#utility.yul\":5832:5854   */\n      add\n        /* \"#utility.yul\":5801:5864   */\n      tag_128\n      jump\t// in\n    tag_227:\n        /* \"#utility.yul\":5791:5864   */\n      swap3\n      pop\n        /* \"#utility.yul\":5585:5874   */\n      pop\n        /* \"#utility.yul\":5941:5944   */\n      0xe0\n        /* \"#utility.yul\":5930:5939   */\n      dup10\n        /* \"#utility.yul\":5926:5945   */\n      add\n        /* \"#utility.yul\":5913:5946   */\n      calldataload\n        /* \"#utility.yul\":5973:5991   */\n      0xffffffffffffffff\n        /* \"#utility.yul\":5965:5971   */\n      dup2\n        /* \"#utility.yul\":5962:5992   */\n      gt\n        /* \"#utility.yul\":5959:6076   */\n      iszero\n      tag_228\n      jumpi\n        /* \"#utility.yul\":5995:6074   */\n      tag_229\n      tag_114\n      jump\t// in\n    tag_229:\n        /* \"#utility.yul\":5959:6076   */\n    tag_228:\n        /* \"#utility.yul\":6100:6163   */\n      tag_230\n        /* \"#utility.yul\":6155:6162   */\n      dup12\n        /* \"#utility.yul\":6146:6152   */\n      dup3\n        /* \"#utility.yul\":6135:6144   */\n      dup13\n        /* \"#utility.yul\":6131:6153   */\n      add\n        /* \"#utility.yul\":6100:6163   */\n      tag_128\n      jump\t// in\n    tag_230:\n        /* \"#utility.yul\":6090:6163   */\n      swap2\n      pop\n        /* \"#utility.yul\":5884:6173   */\n      pop\n        /* \"#utility.yul\":3751:6180   */\n      swap3\n      swap6\n      swap9\n      pop\n      swap3\n      swap6\n      swap9\n      swap1\n      swap4\n      swap7\n      pop\n      jump\t// out\n        /* \"#utility.yul\":6186:6285   */\n    tag_132:\n        /* \"#utility.yul\":6238:6244   */\n      0x00\n        /* \"#utility.yul\":6272:6277   */\n      dup2\n        /* \"#utility.yul\":6266:6278   */\n      mload\n        /* \"#utility.yul\":6256:6278   */\n      swap1\n      pop\n        /* \"#utility.yul\":6186:6285   */\n      swap2\n      swap1\n      pop\n      jump\t// out\n        /* \"#utility.yul\":6291:6450   */\n    tag_133:\n        /* \"#utility.yul\":6365:6376   */\n      0x00\n        /* \"#utility.yul\":6399:6405   */\n      dup3\n        /* \"#utility.yul\":6394:6397   */\n      dup3\n        /* \"#utility.yul\":6387:6406   */\n      mstore\n        /* \"#utility.yul\":6439:6443   */\n      0x20\n        /* \"#utility.yul\":6434:6437   */\n      dup3\n        /* \"#utility.yul\":6430:6444   */\n      add\n        /* \"#utility.yul\":6415:6444   */\n      swap1\n      pop\n        /* \"#utility.yul\":6291:6450   */\n      swap3\n      swap2\n      pop\n      pop\n      jump\t// out\n        /* \"#utility.yul\":6456:6702   */\n    tag_134:\n        /* \"#utility.yul\":6537:6538   */\n      0x00\n        /* \"#utility.yul\":6547:6660   */\n    tag_234:\n        /* \"#utility.yul\":6561:6567   */\n      dup4\n        /* \"#utility.yul\":6558:6559   */\n      dup2\n        /* \"#utility.yul\":6555:6568   */\n      lt\n        /* \"#utility.yul\":6547:6660   */\n      iszero\n      tag_236\n      jumpi\n        /* \"#utility.yul\":6646:6647   */\n      dup1\n        /* \"#utility.yul\":6641:6644   */\n      dup3\n        /* \"#utility.yul\":6637:6648   */\n      add\n        /* \"#utility.yul\":6631:6649   */\n      mload\n        /* \"#utility.yul\":6627:6628   */\n      dup2\n        /* \"#utility.yul\":6622:6625   */\n      dup5\n        /* \"#utility.yul\":6618:6629   */\n      add\n        /* \"#utility.yul\":6611:6650   */\n      mstore\n        /* \"#utility.yul\":6583:6585   */\n      0x20\n        /* \"#utility.yul\":6580:6581   */\n      dup2\n        /* \"#utility.yul\":6576:6586   */\n      add\n        /* \"#utility.yul\":6571:6586   */\n      swap1\n      pop\n        /* \"#utility.yul\":6547:6660   */\n      jump(tag_234)\n    tag_236:\n        /* \"#utility.yul\":6694:6695   */\n      0x00\n        /* \"#utility.yul\":6685:6691   */\n      dup5\n        /* \"#utility.yul\":6680:6683   */\n      dup5\n        /* \"#utility.yul\":6676:6692   */\n      add\n        /* \"#utility.yul\":6669:6696   */\n      mstore\n        /* \"#utility.yul\":6518:6702   */\n      pop\n        /* \"#utility.yul\":6456:6702   */\n      pop\n      pop\n      pop\n      jump\t// out\n        /* \"#utility.yul\":6708:7065   */\n    tag_135:\n        /* \"#utility.yul\":6786:6789   */\n      0x00\n        /* \"#utility.yul\":6814:6853   */\n      tag_238\n        /* \"#utility.yul\":6847:6852   */\n      dup3\n        /* \"#utility.yul\":6814:6853   */\n      tag_132\n      jump\t// in\n    tag_238:\n        /* \"#utility.yul\":6869:6930   */\n      tag_239\n        /* \"#utility.yul\":6923:6929   */\n      dup2\n        /* \"#utility.yul\":6918:6921   */\n      dup6\n        /* \"#utility.yul\":6869:6930   */\n      tag_133\n      jump\t// in\n    tag_239:\n        /* \"#utility.yul\":6862:6930   */\n      swap4\n      pop\n        /* \"#utility.yul\":6939:7004   */\n      tag_240\n        /* \"#utility.yul\":6997:7003   */\n      dup2\n        /* \"#utility.yul\":6992:6995   */\n      dup6\n        /* \"#utility.yul\":6985:6989   */\n      0x20\n        /* \"#utility.yul\":6978:6983   */\n      dup7\n        /* \"#utility.yul\":6974:6990   */\n      add\n        /* \"#utility.yul\":6939:7004   */\n      tag_134\n      jump\t// in\n    tag_240:\n        /* \"#utility.yul\":7029:7058   */\n      tag_241\n        /* \"#utility.yul\":7051:7057   */\n      dup2\n        /* \"#utility.yul\":7029:7058   */\n      tag_121\n      jump\t// in\n    tag_241:\n        /* \"#utility.yul\":7024:7027   */\n      dup5\n        /* \"#utility.yul\":7020:7059   */\n      add\n        /* \"#utility.yul\":7013:7059   */\n      swap2\n      pop\n        /* \"#utility.yul\":6790:7065   */\n      pop\n        /* \"#utility.yul\":6708:7065   */\n      swap3\n      swap2\n      pop\n      pop\n      jump\t// out\n        /* \"#utility.yul\":7071:7179   */\n    tag_136:\n        /* \"#utility.yul\":7148:7172   */\n      tag_243\n        /* \"#utility.yul\":7166:7171   */\n      dup2\n        /* \"#utility.yul\":7148:7172   */\n      tag_129\n      jump\t// in\n    tag_243:\n        /* \"#utility.yul\":7143:7146   */\n      dup3\n        /* \"#utility.yul\":7136:7173   */\n      mstore\n        /* \"#utility.yul\":7071:7179   */\n      pop\n      pop\n      jump\t// out\n        /* \"#utility.yul\":7249:9132   */\n    tag_137:\n        /* \"#utility.yul\":7374:7377   */\n      0x00\n        /* \"#utility.yul\":7410:7414   */\n      0xe0\n        /* \"#utility.yul\":7405:7408   */\n      dup4\n        /* \"#utility.yul\":7401:7415   */\n      add\n        /* \"#utility.yul\":7505:7509   */\n      0x00\n        /* \"#utility.yul\":7498:7503   */\n      dup4\n        /* \"#utility.yul\":7494:7510   */\n      add\n        /* \"#utility.yul\":7488:7511   */\n      mload\n        /* \"#utility.yul\":7558:7561   */\n      dup5\n        /* \"#utility.yul\":7552:7556   */\n      dup3\n        /* \"#utility.yul\":7548:7562   */\n      sub\n        /* \"#utility.yul\":7541:7545   */\n      0x00\n        /* \"#utility.yul\":7536:7539   */\n      dup7\n        /* \"#utility.yul\":7532:7546   */\n      add\n        /* \"#utility.yul\":7525:7563   */\n      mstore\n        /* \"#utility.yul\":7584:7657   */\n      tag_245\n        /* \"#utility.yul\":7652:7656   */\n      dup3\n        /* \"#utility.yul\":7638:7650   */\n      dup3\n        /* \"#utility.yul\":7584:7657   */\n      tag_135\n      jump\t// in\n    tag_245:\n        /* \"#utility.yul\":7576:7657   */\n      swap2\n      pop\n        /* \"#utility.yul\":7425:7668   */\n      pop\n        /* \"#utility.yul\":7750:7754   */\n      0x20\n        /* \"#utility.yul\":7743:7748   */\n      dup4\n        /* \"#utility.yul\":7739:7755   */\n      add\n        /* \"#utility.yul\":7733:7756   */\n      mload\n        /* \"#utility.yul\":7769:7832   */\n      tag_246\n        /* \"#utility.yul\":7826:7830   */\n      0x20\n        /* \"#utility.yul\":7821:7824   */\n      dup7\n        /* \"#utility.yul\":7817:7831   */\n      add\n        /* \"#utility.yul\":7803:7815   */\n      dup3\n        /* \"#utility.yul\":7769:7832   */\n      tag_136\n      jump\t// in\n    tag_246:\n        /* \"#utility.yul\":7678:7842   */\n      pop\n        /* \"#utility.yul\":7933:7937   */\n      0x40\n        /* \"#utility.yul\":7926:7931   */\n      dup4\n        /* \"#utility.yul\":7922:7938   */\n      add\n        /* \"#utility.yul\":7916:7939   */\n      mload\n        /* \"#utility.yul\":7986:7989   */\n      dup5\n        /* \"#utility.yul\":7980:7984   */\n      dup3\n        /* \"#utility.yul\":7976:7990   */\n      sub\n        /* \"#utility.yul\":7969:7973   */\n      0x40\n        /* \"#utility.yul\":7964:7967   */\n      dup7\n        /* \"#utility.yul\":7960:7974   */\n      add\n        /* \"#utility.yul\":7953:7991   */\n      mstore\n        /* \"#utility.yul\":8012:8085   */\n      tag_247\n        /* \"#utility.yul\":8080:8084   */\n      dup3\n        /* \"#utility.yul\":8066:8078   */\n      dup3\n        /* \"#utility.yul\":8012:8085   */\n      tag_135\n      jump\t// in\n    tag_247:\n        /* \"#utility.yul\":8004:8085   */\n      swap2\n      pop\n        /* \"#utility.yul\":7852:8096   */\n      pop\n        /* \"#utility.yul\":8187:8191   */\n      0x60\n        /* \"#utility.yul\":8180:8185   */\n      dup4\n        /* \"#utility.yul\":8176:8192   */\n      add\n        /* \"#utility.yul\":8170:8193   */\n      mload\n        /* \"#utility.yul\":8240:8243   */\n      dup5\n        /* \"#utility.yul\":8234:8238   */\n      dup3\n        /* \"#utility.yul\":8230:8244   */\n      sub\n        /* \"#utility.yul\":8223:8227   */\n      0x60\n        /* \"#utility.yul\":8218:8221   */\n      dup7\n        /* \"#utility.yul\":8214:8228   */\n      add\n        /* \"#utility.yul\":8207:8245   */\n      mstore\n        /* \"#utility.yul\":8266:8339   */\n      tag_248\n        /* \"#utility.yul\":8334:8338   */\n      dup3\n        /* \"#utility.yul\":8320:8332   */\n      dup3\n        /* \"#utility.yul\":8266:8339   */\n      tag_135\n      jump\t// in\n    tag_248:\n        /* \"#utility.yul\":8258:8339   */\n      swap2\n      pop\n        /* \"#utility.yul\":8106:8350   */\n      pop\n        /* \"#utility.yul\":8442:8446   */\n      0x80\n        /* \"#utility.yul\":8435:8440   */\n      dup4\n        /* \"#utility.yul\":8431:8447   */\n      add\n        /* \"#utility.yul\":8425:8448   */\n      mload\n        /* \"#utility.yul\":8495:8498   */\n      dup5\n        /* \"#utility.yul\":8489:8493   */\n      dup3\n        /* \"#utility.yul\":8485:8499   */\n      sub\n        /* \"#utility.yul\":8478:8482   */\n      0x80\n        /* \"#utility.yul\":8473:8476   */\n      dup7\n        /* \"#utility.yul\":8469:8483   */\n      add\n        /* \"#utility.yul\":8462:8500   */\n      mstore\n        /* \"#utility.yul\":8521:8594   */\n      tag_249\n        /* \"#utility.yul\":8589:8593   */\n      dup3\n        /* \"#utility.yul\":8575:8587   */\n      dup3\n        /* \"#utility.yul\":8521:8594   */\n      tag_135\n      jump\t// in\n    tag_249:\n        /* \"#utility.yul\":8513:8594   */\n      swap2\n      pop\n        /* \"#utility.yul\":8360:8605   */\n      pop\n        /* \"#utility.yul\":8692:8696   */\n      0xa0\n        /* \"#utility.yul\":8685:8690   */\n      dup4\n        /* \"#utility.yul\":8681:8697   */\n      add\n        /* \"#utility.yul\":8675:8698   */\n      mload\n        /* \"#utility.yul\":8745:8748   */\n      dup5\n        /* \"#utility.yul\":8739:8743   */\n      dup3\n        /* \"#utility.yul\":8735:8749   */\n      sub\n        /* \"#utility.yul\":8728:8732   */\n      0xa0\n        /* \"#utility.yul\":8723:8726   */\n      dup7\n        /* \"#utility.yul\":8719:8733   */\n      add\n        /* \"#utility.yul\":8712:8750   */\n      mstore\n        /* \"#utility.yul\":8771:8844   */\n      tag_250\n        /* \"#utility.yul\":8839:8843   */\n      dup3\n        /* \"#utility.yul\":8825:8837   */\n      dup3\n        /* \"#utility.yul\":8771:8844   */\n      tag_135\n      jump\t// in\n    tag_250:\n        /* \"#utility.yul\":8763:8844   */\n      swap2\n      pop\n        /* \"#utility.yul\":8615:8855   */\n      pop\n        /* \"#utility.yul\":8942:8946   */\n      0xc0\n        /* \"#utility.yul\":8935:8940   */\n      dup4\n        /* \"#utility.yul\":8931:8947   */\n      add\n        /* \"#utility.yul\":8925:8948   */\n      mload\n        /* \"#utility.yul\":8995:8998   */\n      dup5\n        /* \"#utility.yul\":8989:8993   */\n      dup3\n        /* \"#utility.yul\":8985:8999   */\n      sub\n        /* \"#utility.yul\":8978:8982   */\n      0xc0\n        /* \"#utility.yul\":8973:8976   */\n      dup7\n        /* \"#utility.yul\":8969:8983   */\n      add\n        /* \"#utility.yul\":8962:9000   */\n      mstore\n        /* \"#utility.yul\":9021:9094   */\n      tag_251\n        /* \"#utility.yul\":9089:9093   */\n      dup3\n        /* \"#utility.yul\":9075:9087   */\n      dup3\n        /* \"#utility.yul\":9021:9094   */\n      tag_135\n      jump\t// in\n    tag_251:\n        /* \"#utility.yul\":9013:9094   */\n      swap2\n      pop\n        /* \"#utility.yul\":8865:9105   */\n      pop\n        /* \"#utility.yul\":9122:9126   */\n      dup1\n        /* \"#utility.yul\":9115:9126   */\n      swap2\n      pop\n        /* \"#utility.yul\":7379:9132   */\n      pop\n        /* \"#utility.yul\":7249:9132   */\n      swap3\n      swap2\n      pop\n      pop\n      jump\t// out\n        /* \"#utility.yul\":9138:9523   */\n    tag_21:\n        /* \"#utility.yul\":9287:9291   */\n      0x00\n        /* \"#utility.yul\":9325:9327   */\n      0x20\n        /* \"#utility.yul\":9314:9323   */\n      dup3\n        /* \"#utility.yul\":9310:9328   */\n      add\n        /* \"#utility.yul\":9302:9328   */\n      swap1\n      pop\n        /* \"#utility.yul\":9374:9383   */\n      dup2\n        /* \"#utility.yul\":9368:9372   */\n      dup2\n        /* \"#utility.yul\":9364:9384   */\n      sub\n        /* \"#utility.yul\":9360:9361   */\n      0x00\n        /* \"#utility.yul\":9349:9358   */\n      dup4\n        /* \"#utility.yul\":9345:9362   */\n      add\n        /* \"#utility.yul\":9338:9385   */\n      mstore\n        /* \"#utility.yul\":9402:9516   */\n      tag_253\n        /* \"#utility.yul\":9511:9515   */\n      dup2\n        /* \"#utility.yul\":9502:9508   */\n      dup5\n        /* \"#utility.yul\":9402:9516   */\n      tag_137\n      jump\t// in\n    tag_253:\n        /* \"#utility.yul\":9394:9516   */\n      swap1\n      pop\n        /* \"#utility.yul\":9138:9523   */\n      swap3\n      swap2\n      pop\n      pop\n      jump\t// out\n        /* \"#utility.yul\":9529:9647   */\n    tag_138:\n        /* \"#utility.yul\":9616:9640   */\n      tag_255\n        /* \"#utility.yul\":9634:9639   */\n      dup2\n        /* \"#utility.yul\":9616:9640   */\n      tag_116\n      jump\t// in\n    tag_255:\n        /* \"#utility.yul\":9611:9614   */\n      dup3\n        /* \"#utility.yul\":9604:9641   */\n      mstore\n        /* \"#utility.yul\":9529:9647   */\n      pop\n      pop\n      jump\t// out\n        /* \"#utility.yul\":9653:9875   */\n    tag_34:\n        /* \"#utility.yul\":9746:9750   */\n      0x00\n        /* \"#utility.yul\":9784:9786   */\n      0x20\n        /* \"#utility.yul\":9773:9782   */\n      dup3\n        /* \"#utility.yul\":9769:9787   */\n      add\n        /* \"#utility.yul\":9761:9787   */\n      swap1\n      pop\n        /* \"#utility.yul\":9797:9868   */\n      tag_257\n        /* \"#utility.yul\":9865:9866   */\n      0x00\n        /* \"#utility.yul\":9854:9863   */\n      dup4\n        /* \"#utility.yul\":9850:9867   */\n      add\n        /* \"#utility.yul\":9841:9847   */\n      dup5\n        /* \"#utility.yul\":9797:9868   */\n      tag_138\n      jump\t// in\n    tag_257:\n        /* \"#utility.yul\":9653:9875   */\n      swap3\n      swap2\n      pop\n      pop\n      jump\t// out\n        /* \"#utility.yul\":9881:9971   */\n    tag_139:\n        /* \"#utility.yul\":9915:9922   */\n      0x00\n        /* \"#utility.yul\":9958:9963   */\n      dup2\n        /* \"#utility.yul\":9951:9964   */\n      iszero\n        /* \"#utility.yul\":9944:9965   */\n      iszero\n        /* \"#utility.yul\":9933:9965   */\n      swap1\n      pop\n        /* \"#utility.yul\":9881:9971   */\n      swap2\n      swap1\n      pop\n      jump\t// out\n        /* \"#utility.yul\":9977:10093   */\n    tag_140:\n        /* \"#utility.yul\":10047:10068   */\n      tag_260\n        /* \"#utility.yul\":10062:10067   */\n      dup2\n        /* \"#utility.yul\":10047:10068   */\n      tag_139\n      jump\t// in\n    tag_260:\n        /* \"#utility.yul\":10040:10045   */\n      dup2\n        /* \"#utility.yul\":10037:10069   */\n      eq\n        /* \"#utility.yul\":10027:10087   */\n      tag_261\n      jumpi\n        /* \"#utility.yul\":10083:10084   */\n      0x00\n        /* \"#utility.yul\":10080:10081   */\n      dup1\n        /* \"#utility.yul\":10073:10085   */\n      revert\n        /* \"#utility.yul\":10027:10087   */\n    tag_261:\n        /* \"#utility.yul\":9977:10093   */\n      pop\n      jump\t// out\n        /* \"#utility.yul\":10099:10236   */\n    tag_141:\n        /* \"#utility.yul\":10153:10158   */\n      0x00\n        /* \"#utility.yul\":10184:10190   */\n      dup2\n        /* \"#utility.yul\":10178:10191   */\n      mload\n        /* \"#utility.yul\":10169:10191   */\n      swap1\n      pop\n        /* \"#utility.yul\":10200:10230   */\n      tag_263\n        /* \"#utility.yul\":10224:10229   */\n      dup2\n        /* \"#utility.yul\":10200:10230   */\n      tag_140\n      jump\t// in\n    tag_263:\n        /* \"#utility.yul\":10099:10236   */\n      swap3\n      swap2\n      pop\n      pop\n      jump\t// out\n        /* \"#utility.yul\":10242:10587   */\n    tag_38:\n        /* \"#utility.yul\":10309:10315   */\n      0x00\n        /* \"#utility.yul\":10358:10360   */\n      0x20\n        /* \"#utility.yul\":10346:10355   */\n      dup3\n        /* \"#utility.yul\":10337:10344   */\n      dup5\n        /* \"#utility.yul\":10333:10356   */\n      sub\n        /* \"#utility.yul\":10329:10361   */\n      slt\n        /* \"#utility.yul\":10326:10445   */\n      iszero\n      tag_265\n      jumpi\n        /* \"#utility.yul\":10364:10443   */\n      tag_266\n      tag_113\n      jump\t// in\n    tag_266:\n        /* \"#utility.yul\":10326:10445   */\n    tag_265:\n        /* \"#utility.yul\":10484:10485   */\n      0x00\n        /* \"#utility.yul\":10509:10570   */\n      tag_267\n        /* \"#utility.yul\":10562:10569   */\n      dup5\n        /* \"#utility.yul\":10553:10559   */\n      dup3\n        /* \"#utility.yul\":10542:10551   */\n      dup6\n        /* \"#utility.yul\":10538:10560   */\n      add\n        /* \"#utility.yul\":10509:10570   */\n      tag_141\n      jump\t// in\n    tag_267:\n        /* \"#utility.yul\":10499:10570   */\n      swap2\n      pop\n        /* \"#utility.yul\":10455:10580   */\n      pop\n        /* \"#utility.yul\":10242:10587   */\n      swap3\n      swap2\n      pop\n      pop\n      jump\t// out\n        /* \"#utility.yul\":10593:10773   */\n    tag_142:\n        /* \"#utility.yul\":10641:10718   */\n      0x4e487b7100000000000000000000000000000000000000000000000000000000\n        /* \"#utility.yul\":10638:10639   */\n      0x00\n        /* \"#utility.yul\":10631:10719   */\n      mstore\n        /* \"#utility.yul\":10738:10742   */\n      0x22\n        /* \"#utility.yul\":10735:10736   */\n      0x04\n        /* \"#utility.yul\":10728:10743   */\n      mstore\n        /* \"#utility.yul\":10762:10766   */\n      0x24\n        /* \"#utility.yul\":10759:10760   */\n      0x00\n        /* \"#utility.yul\":10752:10767   */\n      revert\n        /* \"#utility.yul\":10779:11099   */\n    tag_73:\n        /* \"#utility.yul\":10823:10829   */\n      0x00\n        /* \"#utility.yul\":10860:10861   */\n      0x02\n        /* \"#utility.yul\":10854:10858   */\n      dup3\n        /* \"#utility.yul\":10850:10862   */\n      div\n        /* \"#utility.yul\":10840:10862   */\n      swap1\n      pop\n        /* \"#utility.yul\":10907:10908   */\n      0x01\n        /* \"#utility.yul\":10901:10905   */\n      dup3\n        /* \"#utility.yul\":10897:10909   */\n      and\n        /* \"#utility.yul\":10928:10946   */\n      dup1\n        /* \"#utility.yul\":10918:10999   */\n      tag_270\n      jumpi\n        /* \"#utility.yul\":10984:10988   */\n      0x7f\n        /* \"#utility.yul\":10976:10982   */\n      dup3\n        /* \"#utility.yul\":10972:10989   */\n      and\n        /* \"#utility.yul\":10962:10989   */\n      swap2\n      pop\n        /* \"#utility.yul\":10918:10999   */\n    tag_270:\n        /* \"#utility.yul\":11046:11048   */\n      0x20\n        /* \"#utility.yul\":11038:11044   */\n      dup3\n        /* \"#utility.yul\":11035:11049   */\n      lt\n        /* \"#utility.yul\":11015:11033   */\n      dup2\n        /* \"#utility.yul\":11012:11050   */\n      sub\n        /* \"#utility.yul\":11009:11093   */\n      tag_271\n      jumpi\n        /* \"#utility.yul\":11065:11083   */\n      tag_272\n      tag_142\n      jump\t// in\n    tag_272:\n        /* \"#utility.yul\":11009:11093   */\n    tag_271:\n        /* \"#utility.yul\":10830:11099   */\n      pop\n        /* \"#utility.yul\":10779:11099   */\n      swap2\n      swap1\n      pop\n      jump\t// out\n        /* \"#utility.yul\":11105:11246   */\n    tag_143:\n        /* \"#utility.yul\":11154:11158   */\n      0x00\n        /* \"#utility.yul\":11177:11180   */\n      dup2\n        /* \"#utility.yul\":11169:11180   */\n      swap1\n      pop\n        /* \"#utility.yul\":11200:11203   */\n      dup2\n        /* \"#utility.yul\":11197:11198   */\n      0x00\n        /* \"#utility.yul\":11190:11204   */\n      mstore\n        /* \"#utility.yul\":11234:11238   */\n      0x20\n        /* \"#utility.yul\":11231:11232   */\n      0x00\n        /* \"#utility.yul\":11221:11239   */\n      keccak256\n        /* \"#utility.yul\":11213:11239   */\n      swap1\n      pop\n        /* \"#utility.yul\":11105:11246   */\n      swap2\n      swap1\n      pop\n      jump\t// out\n        /* \"#utility.yul\":11252:11345   */\n    tag_144:\n        /* \"#utility.yul\":11289:11295   */\n      0x00\n        /* \"#utility.yul\":11336:11338   */\n      0x20\n        /* \"#utility.yul\":11331:11333   */\n      0x1f\n        /* \"#utility.yul\":11324:11329   */\n      dup4\n        /* \"#utility.yul\":11320:11334   */\n      add\n        /* \"#utility.yul\":11316:11339   */\n      div\n        /* \"#utility.yul\":11306:11339   */\n      swap1\n      pop\n        /* \"#utility.yul\":11252:11345   */\n      swap2\n      swap1\n      pop\n      jump\t// out\n        /* \"#utility.yul\":11351:11458   */\n    tag_145:\n        /* \"#utility.yul\":11395:11403   */\n      0x00\n        /* \"#utility.yul\":11445:11450   */\n      dup3\n        /* \"#utility.yul\":11439:11443   */\n      dup3\n        /* \"#utility.yul\":11435:11451   */\n      shl\n        /* \"#utility.yul\":11414:11451   */\n      swap1\n      pop\n        /* \"#utility.yul\":11351:11458   */\n      swap3\n      swap2\n      pop\n      pop\n      jump\t// out\n        /* \"#utility.yul\":11464:11857   */\n    tag_146:\n        /* \"#utility.yul\":11533:11539   */\n      0x00\n        /* \"#utility.yul\":11583:11584   */\n      0x08\n        /* \"#utility.yul\":11571:11581   */\n      dup4\n        /* \"#utility.yul\":11567:11585   */\n      mul\n        /* \"#utility.yul\":11606:11703   */\n      tag_277\n        /* \"#utility.yul\":11636:11702   */\n      0xffffffffffffffffffffffffffffffffffffffffffffffffffffffffffffffff\n        /* \"#utility.yul\":11625:11634   */\n      dup3\n        /* \"#utility.yul\":11606:11703   */\n      tag_145\n      jump\t// in\n    tag_277:\n        /* \"#utility.yul\":11724:11763   */\n      tag_278\n        /* \"#utility.yul\":11754:11762   */\n      dup7\n        /* \"#utility.yul\":11743:11752   */\n      dup4\n        /* \"#utility.yul\":11724:11763   */\n      tag_145\n      jump\t// in\n    tag_278:\n        /* \"#utility.yul\":11712:11763   */\n      swap6\n      pop\n        /* \"#utility.yul\":11796:11800   */\n      dup1\n        /* \"#utility.yul\":11792:11801   */\n      not\n        /* \"#utility.yul\":11785:11790   */\n      dup5\n        /* \"#utility.yul\":11781:11802   */\n      and\n        /* \"#utility.yul\":11772:11802   */\n      swap4\n      pop\n        /* \"#utility.yul\":11845:11849   */\n      dup1\n        /* \"#utility.yul\":11835:11843   */\n      dup7\n        /* \"#utility.yul\":11831:11850   */\n      and\n        /* \"#utility.yul\":11824:11829   */\n      dup5\n        /* \"#utility.yul\":11821:11851   */\n      or\n        /* \"#utility.yul\":11811:11851   */\n      swap3\n      pop\n        /* \"#utility.yul\":11540:11857   */\n      pop\n      pop\n        /* \"#utility.yul\":11464:11857   */\n      swap4\n      swap3\n      pop\n      pop\n      pop\n      jump\t// out\n        /* \"#utility.yul\":11863:11923   */\n    tag_147:\n        /* \"#utility.yul\":11891:11894   */\n      0x00\n        /* \"#utility.yul\":11912:11917   */\n      dup2\n        /* \"#utility.yul\":11905:11917   */\n      swap1\n      pop\n        /* \"#utility.yul\":11863:11923   */\n      swap2\n      swap1\n      pop\n      jump\t// out\n        /* \"#utility.yul\":11929:12071   */\n    tag_148:\n        /* \"#utility.yul\":11979:11988   */\n      0x00\n        /* \"#utility.yul\":12012:12065   */\n      tag_281\n        /* \"#utility.yul\":12030:12064   */\n      tag_282\n        /* \"#utility.yul\":12039:12063   */\n      tag_283\n        /* \"#utility.yul\":12057:12062   */\n      dup5\n        /* \"#utility.yul\":12039:12063   */\n      tag_129\n      jump\t// in\n    tag_283:\n        /* \"#utility.yul\":12030:12064   */\n      tag_147\n      jump\t// in\n    tag_282:\n        /* \"#utility.yul\":12012:12065   */\n      tag_129\n      jump\t// in\n    tag_281:\n        /* \"#utility.yul\":11999:12065   */\n      swap1\n      pop\n        /* \"#utility.yul\":11929:12071   */\n      swap2\n      swap1\n      pop\n      jump\t// out\n        /* \"#utility.yul\":12077:12152   */\n    tag_149:\n        /* \"#utility.yul\":12120:12123   */\n      0x00\n        /* \"#utility.yul\":12141:12146   */\n      dup2\n        /* \"#utility.yul\":12134:12146   */\n      swap1\n      pop\n        /* \"#utility.yul\":12077:12152   */\n      swap2\n      swap1\n      pop\n      jump\t// out\n        /* \"#utility.yul\":12158:12427   */\n    tag_150:\n        /* \"#utility.yul\":12268:12307   */\n      tag_286\n        /* \"#utility.yul\":12299:12306   */\n      dup4\n        /* \"#utility.yul\":12268:12307   */\n      tag_148\n      jump\t// in\n    tag_286:\n        /* \"#utility.yul\":12329:12420   */\n      tag_287\n        /* \"#utility.yul\":12378:12419   */\n      tag_288\n        /* \"#utility.yul\":12402:12418   */\n      dup3\n        /* \"#utility.yul\":12378:12419   */\n      tag_149\n      jump\t// in\n    tag_288:\n        /* \"#utility.yul\":12370:12376   */\n      dup5\n        /* \"#utility.yul\":12363:12367   */\n      dup5\n        /* \"#utility.yul\":12357:12368   */\n      sload\n        /* \"#utility.yul\":12329:12420   */\n      tag_146\n      jump\t// in\n    tag_287:\n        /* \"#utility.yul\":12323:12327   */\n      dup3\n        /* \"#utility.yul\":12316:12421   */\n      sstore\n        /* \"#utility.yul\":12234:12427   */\n      pop\n        /* \"#utility.yul\":12158:12427   */\n      pop\n      pop\n      pop\n      jump\t// out\n        /* \"#utility.yul\":12433:12506   */\n    tag_151:\n        /* \"#utility.yul\":12478:12481   */\n      0x00\n        /* \"#utility.yul\":12433:12506   */\n      swap1\n      jump\t// out\n        /* \"#utility.yul\":12512:12701   */\n    tag_152:\n        /* \"#utility.yul\":12589:12621   */\n      tag_291\n      tag_151\n      jump\t// in\n    tag_291:\n        /* \"#utility.yul\":12630:12695   */\n      tag_292\n        /* \"#utility.yul\":12688:12694   */\n      dup2\n        /* \"#utility.yul\":12680:12686   */\n      dup5\n        /* \"#utility.yul\":12674:12678   */\n      dup5\n        /* \"#utility.yul\":12630:12695   */\n      tag_150\n      jump\t// in\n    tag_292:\n        /* \"#utility.yul\":12565:12701   */\n      pop\n        /* \"#utility.yul\":12512:12701   */\n      pop\n      pop\n      jump\t// out\n        /* \"#utility.yul\":12707:12893   */\n    tag_153:\n        /* \"#utility.yul\":12767:12887   */\n    tag_294:\n        /* \"#utility.yul\":12784:12787   */\n      dup2\n        /* \"#utility.yul\":12777:12782   */\n      dup2\n        /* \"#utility.yul\":12774:12788   */\n      lt\n        /* \"#utility.yul\":12767:12887   */\n      iszero\n      tag_296\n      jumpi\n        /* \"#utility.yul\":12838:12877   */\n      tag_297\n        /* \"#utility.yul\":12875:12876   */\n      0x00\n        /* \"#utility.yul\":12868:12873   */\n      dup3\n        /* \"#utility.yul\":12838:12877   */\n      tag_152\n      jump\t// in\n    tag_297:\n        /* \"#utility.yul\":12811:12812   */\n      0x01\n        /* \"#utility.yul\":12804:12809   */\n      dup2\n        /* \"#utility.yul\":12800:12813   */\n      add\n        /* \"#utility.yul\":12791:12813   */\n      swap1\n      pop\n        /* \"#utility.yul\":12767:12887   */\n      jump(tag_294)\n    tag_296:\n        /* \"#utility.yul\":12707:12893   */\n      pop\n      pop\n      jump\t// out\n        /* \"#utility.yul\":12899:13442   */\n    tag_154:\n        /* \"#utility.yul\":13000:13002   */\n      0x1f\n        /* \"#utility.yul\":12995:12998   */\n      dup3\n        /* \"#utility.yul\":12992:13003   */\n      gt\n        /* \"#utility.yul\":12989:13435   */\n      iszero\n      tag_299\n      jumpi\n        /* \"#utility.yul\":13034:13072   */\n      tag_300\n        /* \"#utility.yul\":13066:13071   */\n      dup2\n        /* \"#utility.yul\":13034:13072   */\n      tag_143\n      jump\t// in\n    tag_300:\n        /* \"#utility.yul\":13118:13147   */\n      tag_301\n        /* \"#utility.yul\":13136:13146   */\n      dup5\n        /* \"#utility.yul\":13118:13147   */\n      tag_144\n      jump\t// in\n    tag_301:\n        /* \"#utility.yul\":13108:13116   */\n      dup2\n        /* \"#utility.yul\":13104:13148   */\n      add\n        /* \"#utility.yul\":13301:13303   */\n      0x20\n        /* \"#utility.yul\":13289:13299   */\n      dup6\n        /* \"#utility.yul\":13286:13304   */\n      lt\n        /* \"#utility.yul\":13283:13332   */\n      iszero\n      tag_302\n      jumpi\n        /* \"#utility.yul\":13322:13330   */\n      dup2\n        /* \"#utility.yul\":13307:13330   */\n      swap1\n      pop\n        /* \"#utility.yul\":13283:13332   */\n    tag_302:\n        /* \"#utility.yul\":13345:13425   */\n      tag_303\n        /* \"#utility.yul\":13401:13423   */\n      tag_304\n        /* \"#utility.yul\":13419:13422   */\n      dup6\n        /* \"#utility.yul\":13401:13423   */\n      tag_144\n      jump\t// in\n    tag_304:\n        /* \"#utility.yul\":13391:13399   */\n      dup4\n        /* \"#utility.yul\":13387:13424   */\n      add\n        /* \"#utility.yul\":13374:13385   */\n      dup3\n        /* \"#utility.yul\":13345:13425   */\n      tag_153\n      jump\t// in\n    tag_303:\n        /* \"#utility.yul\":13004:13435   */\n      pop\n      pop\n        /* \"#utility.yul\":12989:13435   */\n    tag_299:\n        /* \"#utility.yul\":12899:13442   */\n      pop\n      pop\n      pop\n      jump\t// out\n        /* \"#utility.yul\":13448:13565   */\n    tag_155:\n        /* \"#utility.yul\":13502:13510   */\n      0x00\n        /* \"#utility.yul\":13552:13557   */\n      dup3\n        /* \"#utility.yul\":13546:13550   */\n      dup3\n        /* \"#utility.yul\":13542:13558   */\n      shr\n        /* \"#utility.yul\":13521:13558   */\n      swap1\n      pop\n        /* \"#utility.yul\":13448:13565   */\n      swap3\n      swap2\n      pop\n      pop\n      jump\t// out\n        /* \"#utility.yul\":13571:13740   */\n    tag_156:\n        /* \"#utility.yul\":13615:13621   */\n      0x00\n        /* \"#utility.yul\":13648:13699   */\n      tag_307\n        /* \"#utility.yul\":13696:13697   */\n      0x00\n        /* \"#utility.yul\":13692:13698   */\n      not\n        /* \"#utility.yul\":13684:13689   */\n      dup5\n        /* \"#utility.yul\":13681:13682   */\n      0x08\n        /* \"#utility.yul\":13677:13690   */\n      mul\n        /* \"#utility.yul\":13648:13699   */\n      tag_155\n      jump\t// in\n    tag_307:\n        /* \"#utility.yul\":13644:13700   */\n      not\n        /* \"#utility.yul\":13729:13733   */\n      dup1\n        /* \"#utility.yul\":13723:13727   */\n      dup4\n        /* \"#utility.yul\":13719:13734   */\n      and\n        /* \"#utility.yul\":13709:13734   */\n      swap2\n      pop\n        /* \"#utility.yul\":13622:13740   */\n      pop\n        /* \"#utility.yul\":13571:13740   */\n      swap3\n      swap2\n      pop\n      pop\n      jump\t// out\n        /* \"#utility.yul\":13745:14040   */\n    tag_157:\n        /* \"#utility.yul\":13821:13825   */\n      0x00\n        /* \"#utility.yul\":13967:13996   */\n      tag_309\n        /* \"#utility.yul\":13992:13995   */\n      dup4\n        /* \"#utility.yul\":13986:13990   */\n      dup4\n        /* \"#utility.yul\":13967:13996   */\n      tag_156\n      jump\t// in\n    tag_309:\n        /* \"#utility.yul\":13959:13996   */\n      swap2\n      pop\n        /* \"#utility.yul\":14029:14032   */\n      dup3\n        /* \"#utility.yul\":14026:14027   */\n      0x02\n        /* \"#utility.yul\":14022:14033   */\n      mul\n        /* \"#utility.yul\":14016:14020   */\n      dup3\n        /* \"#utility.yul\":14013:14034   */\n      or\n        /* \"#utility.yul\":14005:14034   */\n      swap1\n      pop\n        /* \"#utility.yul\":13745:14040   */\n      swap3\n      swap2\n      pop\n      pop\n      jump\t// out\n        /* \"#utility.yul\":14045:15440   */\n    tag_42:\n        /* \"#utility.yul\":14162:14199   */\n      tag_311\n        /* \"#utility.yul\":14195:14198   */\n      dup3\n        /* \"#utility.yul\":14162:14199   */\n      tag_132\n      jump\t// in\n    tag_311:\n        /* \"#utility.yul\":14264:14282   */\n      0xffffffffffffffff\n        /* \"#utility.yul\":14256:14262   */\n      dup2\n        /* \"#utility.yul\":14253:14283   */\n      gt\n        /* \"#utility.yul\":14250:14306   */\n      iszero\n      tag_312\n      jumpi\n        /* \"#utility.yul\":14286:14304   */\n      tag_313\n      tag_122\n      jump\t// in\n    tag_313:\n        /* \"#utility.yul\":14250:14306   */\n    tag_312:\n        /* \"#utility.yul\":14330:14368   */\n      tag_314\n        /* \"#utility.yul\":14362:14366   */\n      dup3\n        /* \"#utility.yul\":14356:14367   */\n      sload\n        /* \"#utility.yul\":14330:14368   */\n      tag_73\n      jump\t// in\n    tag_314:\n        /* \"#utility.yul\":14415:14482   */\n      tag_315\n        /* \"#utility.yul\":14475:14481   */\n      dup3\n        /* \"#utility.yul\":14467:14473   */\n      dup3\n        /* \"#utility.yul\":14461:14465   */\n      dup6\n        /* \"#utility.yul\":14415:14482   */\n      tag_154\n      jump\t// in\n    tag_315:\n        /* \"#utility.yul\":14509:14510   */\n      0x00\n        /* \"#utility.yul\":14533:14537   */\n      0x20\n        /* \"#utility.yul\":14520:14537   */\n      swap1\n      pop\n        /* \"#utility.yul\":14565:14567   */\n      0x1f\n        /* \"#utility.yul\":14557:14563   */\n      dup4\n        /* \"#utility.yul\":14554:14568   */\n      gt\n        /* \"#utility.yul\":14582:14583   */\n      0x01\n        /* \"#utility.yul\":14577:15195   */\n      dup2\n      eq\n      tag_317\n      jumpi\n        /* \"#utility.yul\":15239:15240   */\n      0x00\n        /* \"#utility.yul\":15256:15262   */\n      dup5\n        /* \"#utility.yul\":15253:15330   */\n      iszero\n      tag_318\n      jumpi\n        /* \"#utility.yul\":15305:15314   */\n      dup3\n        /* \"#utility.yul\":15300:15303   */\n      dup8\n        /* \"#utility.yul\":15296:15315   */\n      add\n        /* \"#utility.yul\":15290:15316   */\n      mload\n        /* \"#utility.yul\":15281:15316   */\n      swap1\n      pop\n        /* \"#utility.yul\":15253:15330   */\n    tag_318:\n        /* \"#utility.yul\":15356:15423   */\n      tag_319\n        /* \"#utility.yul\":15416:15422   */\n      dup6\n        /* \"#utility.yul\":15409:15414   */\n      dup3\n        /* \"#utility.yul\":15356:15423   */\n      tag_157\n      jump\t// in\n    tag_319:\n        /* \"#utility.yul\":15350:15354   */\n      dup7\n        /* \"#utility.yul\":15343:15424   */\n      sstore\n        /* \"#utility.yul\":15212:15434   */\n      pop\n        /* \"#utility.yul\":14547:15434   */\n      jump(tag_316)\n        /* \"#utility.yul\":14577:15195   */\n    tag_317:\n        /* \"#utility.yul\":14629:14633   */\n      0x1f\n        /* \"#utility.yul\":14625:14634   */\n      not\n        /* \"#utility.yul\":14617:14623   */\n      dup5\n        /* \"#utility.yul\":14613:14635   */\n      and\n        /* \"#utility.yul\":14663:14700   */\n      tag_320\n        /* \"#utility.yul\":14695:14699   */\n      dup7\n        /* \"#utility.yul\":14663:14700   */\n      tag_143\n      jump\t// in\n    tag_320:\n        /* \"#utility.yul\":14722:14723   */\n      0x00\n        /* \"#utility.yul\":14736:14944   */\n    tag_321:\n        /* \"#utility.yul\":14750:14757   */\n      dup3\n        /* \"#utility.yul\":14747:14748   */\n      dup2\n        /* \"#utility.yul\":14744:14758   */\n      lt\n        /* \"#utility.yul\":14736:14944   */\n      iszero\n      tag_323\n      jumpi\n        /* \"#utility.yul\":14829:14838   */\n      dup5\n        /* \"#utility.yul\":14824:14827   */\n      dup10\n        /* \"#utility.yul\":14820:14839   */\n      add\n        /* \"#utility.yul\":14814:14840   */\n      mload\n        /* \"#utility.yul\":14806:14812   */\n      dup3\n        /* \"#utility.yul\":14799:14841   */\n      sstore\n        /* \"#utility.yul\":14880:14881   */\n      0x01\n        /* \"#utility.yul\":14872:14878   */\n      dup3\n        /* \"#utility.yul\":14868:14882   */\n      add\n        /* \"#utility.yul\":14858:14882   */\n      swap2\n      pop\n        /* \"#utility.yul\":14927:14929   */\n      0x20\n        /* \"#utility.yul\":14916:14925   */\n      dup6\n        /* \"#utility.yul\":14912:14930   */\n      add\n        /* \"#utility.yul\":14899:14930   */\n      swap5\n      pop\n        /* \"#utility.yul\":14773:14777   */\n      0x20\n        /* \"#utility.yul\":14770:14771   */\n      dup2\n        /* \"#utility.yul\":14766:14778   */\n      add\n        /* \"#utility.yul\":14761:14778   */\n      swap1\n      pop\n        /* \"#utility.yul\":14736:14944   */\n      jump(tag_321)\n    tag_323:\n        /* \"#utility.yul\":14972:14978   */\n      dup7\n        /* \"#utility.yul\":14963:14970   */\n      dup4\n        /* \"#utility.yul\":14960:14979   */\n      lt\n        /* \"#utility.yul\":14957:15136   */\n      iszero\n      tag_324\n      jumpi\n        /* \"#utility.yul\":15030:15039   */\n      dup5\n        /* \"#utility.yul\":15025:15028   */\n      dup10\n        /* \"#utility.yul\":15021:15040   */\n      add\n        /* \"#utility.yul\":15015:15041   */\n      mload\n        /* \"#utility.yul\":15073:15121   */\n      tag_325\n        /* \"#utility.yul\":15115:15119   */\n      0x1f\n        /* \"#utility.yul\":15107:15113   */\n      dup10\n        /* \"#utility.yul\":15103:15120   */\n      and\n        /* \"#utility.yul\":15092:15101   */\n      dup3\n        /* \"#utility.yul\":15073:15121   */\n      tag_156\n      jump\t// in\n    tag_325:\n        /* \"#utility.yul\":15065:15071   */\n      dup4\n        /* \"#utility.yul\":15058:15122   */\n      sstore\n        /* \"#utility.yul\":14980:15136   */\n      pop\n        /* \"#utility.yul\":14957:15136   */\n    tag_324:\n        /* \"#utility.yul\":15182:15183   */\n      0x01\n        /* \"#utility.yul\":15178:15179   */\n      0x02\n        /* \"#utility.yul\":15170:15176   */\n      dup9\n        /* \"#utility.yul\":15166:15180   */\n      mul\n        /* \"#utility.yul\":15162:15184   */\n      add\n        /* \"#utility.yul\":15156:15160   */\n      dup9\n        /* \"#utility.yul\":15149:15185   */\n      sstore\n        /* \"#utility.yul\":14584:15195   */\n      pop\n      pop\n      pop\n        /* \"#utility.yul\":14547:15434   */\n    tag_316:\n      pop\n        /* \"#utility.yul\":14137:15440   */\n      pop\n      pop\n      pop\n        /* \"#utility.yul\":14045:15440   */\n      pop\n      pop\n      jump\t// out\n        /* \"#utility.yul\":15446:15880   */\n    tag_158:\n        /* \"#utility.yul\":15535:15540   */\n      0x00\n        /* \"#utility.yul\":15560:15626   */\n      tag_327\n        /* \"#utility.yul\":15576:15625   */\n      tag_328\n        /* \"#utility.yul\":15618:15624   */\n      dup5\n        /* \"#utility.yul\":15576:15625   */\n      tag_125\n      jump\t// in\n    tag_328:\n        /* \"#utility.yul\":15560:15626   */\n      tag_124\n      jump\t// in\n    tag_327:\n        /* \"#utility.yul\":15551:15626   */\n      swap1\n      pop\n        /* \"#utility.yul\":15649:15655   */\n      dup3\n        /* \"#utility.yul\":15642:15647   */\n      dup2\n        /* \"#utility.yul\":15635:15656   */\n      mstore\n        /* \"#utility.yul\":15687:15691   */\n      0x20\n        /* \"#utility.yul\":15680:15685   */\n      dup2\n        /* \"#utility.yul\":15676:15692   */\n      add\n        /* \"#utility.yul\":15725:15728   */\n      dup5\n        /* \"#utility.yul\":15716:15722   */\n      dup5\n        /* \"#utility.yul\":15711:15714   */\n      dup5\n        /* \"#utility.yul\":15707:15723   */\n      add\n        /* \"#utility.yul\":15704:15729   */\n      gt\n        /* \"#utility.yul\":15701:15813   */\n      iszero\n      tag_329\n      jumpi\n        /* \"#utility.yul\":15732:15811   */\n      tag_330\n      tag_120\n      jump\t// in\n    tag_330:\n        /* \"#utility.yul\":15701:15813   */\n    tag_329:\n        /* \"#utility.yul\":15822:15874   */\n      tag_331\n        /* \"#utility.yul\":15867:15873   */\n      dup5\n        /* \"#utility.yul\":15862:15865   */\n      dup3\n        /* \"#utility.yul\":15857:15860   */\n      dup6\n        /* \"#utility.yul\":15822:15874   */\n      tag_134\n      jump\t// in\n    tag_331:\n        /* \"#utility.yul\":15541:15880   */\n      pop\n        /* \"#utility.yul\":15446:15880   */\n      swap4\n      swap3\n      pop\n      pop\n      pop\n      jump\t// out\n        /* \"#utility.yul\":15900:16255   */\n    tag_159:\n        /* \"#utility.yul\":15967:15972   */\n      0x00\n        /* \"#utility.yul\":16016:16019   */\n      dup3\n        /* \"#utility.yul\":16009:16013   */\n      0x1f\n        /* \"#utility.yul\":16001:16007   */\n      dup4\n        /* \"#utility.yul\":15997:16014   */\n      add\n        /* \"#utility.yul\":15993:16020   */\n      slt\n        /* \"#utility.yul\":15983:16105   */\n      tag_333\n      jumpi\n        /* \"#utility.yul\":16024:16103   */\n      tag_334\n      tag_119\n      jump\t// in\n    tag_334:\n        /* \"#utility.yul\":15983:16105   */\n    tag_333:\n        /* \"#utility.yul\":16134:16140   */\n      dup2\n        /* \"#utility.yul\":16128:16141   */\n      mload\n        /* \"#utility.yul\":16159:16249   */\n      tag_335\n        /* \"#utility.yul\":16245:16248   */\n      dup5\n        /* \"#utility.yul\":16237:16243   */\n      dup3\n        /* \"#utility.yul\":16230:16234   */\n      0x20\n        /* \"#utility.yul\":16222:16228   */\n      dup7\n        /* \"#utility.yul\":16218:16235   */\n      add\n        /* \"#utility.yul\":16159:16249   */\n      tag_158\n      jump\t// in\n    tag_335:\n        /* \"#utility.yul\":16150:16249   */\n      swap2\n      pop\n        /* \"#utility.yul\":15973:16255   */\n      pop\n        /* \"#utility.yul\":15900:16255   */\n      swap3\n      swap2\n      pop\n      pop\n      jump\t// out\n        /* \"#utility.yul\":16261:16785   */\n    tag_52:\n        /* \"#utility.yul\":16341:16347   */\n      0x00\n        /* \"#utility.yul\":16390:16392   */\n      0x20\n        /* \"#utility.yul\":16378:16387   */\n      dup3\n        /* \"#utility.yul\":16369:16376   */\n      dup5\n        /* \"#utility.yul\":16365:16388   */\n      sub\n        /* \"#utility.yul\":16361:16393   */\n      slt\n        /* \"#utility.yul\":16358:16477   */\n      iszero\n      tag_337\n      jumpi\n        /* \"#utility.yul\":16396:16475   */\n      tag_338\n      tag_113\n      jump\t// in\n    tag_338:\n        /* \"#utility.yul\":16358:16477   */\n    tag_337:\n        /* \"#utility.yul\":16537:16538   */\n      0x00\n        /* \"#utility.yul\":16526:16535   */\n      dup3\n        /* \"#utility.yul\":16522:16539   */\n      add\n        /* \"#utility.yul\":16516:16540   */\n      mload\n        /* \"#utility.yul\":16567:16585   */\n      0xffffffffffffffff\n        /* \"#utility.yul\":16559:16565   */\n      dup2\n        /* \"#utility.yul\":16556:16586   */\n      gt\n        /* \"#utility.yul\":16553:16670   */\n      iszero\n      tag_339\n      jumpi\n        /* \"#utility.yul\":16589:16668   */\n      tag_340\n      tag_114\n      jump\t// in\n    tag_340:\n        /* \"#utility.yul\":16553:16670   */\n    tag_339:\n        /* \"#utility.yul\":16694:16768   */\n      tag_341\n        /* \"#utility.yul\":16760:16767   */\n      dup5\n        /* \"#utility.yul\":16751:16757   */\n      dup3\n        /* \"#utility.yul\":16740:16749   */\n      dup6\n        /* \"#utility.yul\":16736:16758   */\n      add\n        /* \"#utility.yul\":16694:16768   */\n      tag_159\n      jump\t// in\n    tag_341:\n        /* \"#utility.yul\":16684:16768   */\n      swap2\n      pop\n        /* \"#utility.yul\":16487:16778   */\n      pop\n        /* \"#utility.yul\":16261:16785   */\n      swap3\n      swap2\n      pop\n      pop\n      jump\t// out\n        /* \"#utility.yul\":16791:17123   */\n    tag_54:\n        /* \"#utility.yul\":16912:16916   */\n      0x00\n        /* \"#utility.yul\":16950:16952   */\n      0x40\n        /* \"#utility.yul\":16939:16948   */\n      dup3\n        /* \"#utility.yul\":16935:16953   */\n      add\n        /* \"#utility.yul\":16927:16953   */\n      swap1\n      pop\n        /* \"#utility.yul\":16963:17034   */\n      tag_343\n        /* \"#utility.yul\":17031:17032   */\n      0x00\n        /* \"#utility.yul\":17020:17029   */\n      dup4\n        /* \"#utility.yul\":17016:17033   */\n      add\n        /* \"#utility.yul\":17007:17013   */\n      dup6\n        /* \"#utility.yul\":16963:17034   */\n      tag_138\n      jump\t// in\n    tag_343:\n        /* \"#utility.yul\":17044:17116   */\n      tag_344\n        /* \"#utility.yul\":17112:17114   */\n      0x20\n        /* \"#utility.yul\":17101:17110   */\n      dup4\n        /* \"#utility.yul\":17097:17115   */\n      add\n        /* \"#utility.yul\":17088:17094   */\n      dup5\n        /* \"#utility.yul\":17044:17116   */\n      tag_138\n      jump\t// in\n    tag_344:\n        /* \"#utility.yul\":16791:17123   */\n      swap4\n      swap3\n      pop\n      pop\n      pop\n      jump\t// out\n\n    auxdata: 0xa26469706673582212200301eef7e335e89229e63ee54feeb0d0b6f31bd48573d9c6f84057f1510655c464736f6c63430008110033\n}\n","bytecode":{"linkReferences":{},"object":"60806040523480156200001157600080fd5b5060405162001536380380620015368339818101604052810190620000379190620000e9565b80600160006101000a81548173ffffffffffffffffffffffffffffffffffffffff021916908373ffffffffffffffffffffffffffffffffffffffff160217905550506200011b565b600080fd5b600073ffffffffffffffffffffffffffffffffffffffff82169050919050565b6000620000b18262000084565b9050919050565b620000c381620000a4565b8114620000cf57600080fd5b50565b600081519050620000e381620000b8565b92915050565b6000602082840312156200010257620001016200007f565b5b60006200011284828501620000d2565b91505092915050565b61140b806200012b6000396000f3fe608060405234801561001057600080fd5b50600436106100625760003560e01c80631107747e1461006757806326c01f7d1461008357806348e818521461009f57806352a6042d146100cf5780635db185c7146100eb5780637621df6f14610107575b600080fd5b610081600480360381019061007c9190610b10565b610123565b005b61009d60048036038101906100989190610cb9565b610167565b005b6100b960048036038101906100b49190610b10565b610401565b6040516100c69190610f64565b60405180910390f35b6100e960048036038101906100e49190610cb9565b610917565b005b61010560048036038101906101009190610b10565b6109d9565b005b610121600480360381019061011c9190610b10565b610a1d565b005b80600260006101000a81548173ffffffffffffffffffffffffffffffffffffffff021916908373ffffffffffffffffffffffffffffffffffffffff16021790555050565b600260009054906101000a900473ffffffffffffffffffffffffffffffffffffffff1673ffffffffffffffffffffffffffffffffffffffff166363a9c3d7336040518263ffffffff1660e01b81526004016101c29190610f95565b602060405180830381865afa1580156101df573d6000803e3d6000fd5b505050506040513d601f19601f820116820180604052508101906102039190610fe8565b61020c57600080fd5b60008060008a73ffffffffffffffffffffffffffffffffffffffff1673ffffffffffffffffffffffffffffffffffffffff16815260200190815260200160002090508781600001908161025f9190611221565b508681600101819055508581600201908161027a9190611221565b508481600301908161028c9190611221565b508381600401908161029e9190611221565b50828160050190816102b09190611221565b50818160060190816102c29190611221565b50600360009054906101000a900473ffffffffffffffffffffffffffffffffffffffff1673ffffffffffffffffffffffffffffffffffffffff16636d263ceb8a6040518263ffffffff1660e01b815260040161031e9190610f95565b6000604051808303816000875af115801561033d573d6000803e3d6000fd5b505050506040513d6000823e3d601f19601f820116820180604052508101906103669190611363565b50600460009054906101000a900473ffffffffffffffffffffffffffffffffffffffff1673ffffffffffffffffffffffffffffffffffffffff16638bfc8c71338b6040518363ffffffff1660e01b81526004016103c49291906113ac565b600060405180830381600087803b1580156103de57600080fd5b505af11580156103f2573d6000803e3d6000fd5b50505050505050505050505050565b610409610a61565b600260009054906101000a900473ffffffffffffffffffffffffffffffffffffffff1673ffffffffffffffffffffffffffffffffffffffff166363a9c3d7336040518263ffffffff1660e01b81526004016104649190610f95565b602060405180830381865afa158015610481573d6000803e3d6000fd5b505050506040513d601f19601f820116820180604052508101906104a59190610fe8565b806105485750600360009054906101000a900473ffffffffffffffffffffffffffffffffffffffff1673ffffffffffffffffffffffffffffffffffffffff166363a9c3d7336040518263ffffffff1660e01b81526004016105069190610f95565b602060405180830381865afa158015610523573d6000803e3d6000fd5b505050506040513d601f19601f820116820180604052508101906105479190610fe8565b5b61055157600080fd5b6000808373ffffffffffffffffffffffffffffffffffffffff1673ffffffffffffffffffffffffffffffffffffffff1681526020019081526020016000206040518060e00160405290816000820180546105aa90611044565b80601f01602080910402602001604051908101604052809291908181526020018280546105d690611044565b80156106235780601f106105f857610100808354040283529160200191610623565b820191906000526020600020905b81548152906001019060200180831161060657829003601f168201915b505050505081526020016001820154815260200160028201805461064690611044565b80601f016020809104026020016040519081016040528092919081815260200182805461067290611044565b80156106bf5780601f10610694576101008083540402835291602001916106bf565b820191906000526020600020905b8154815290600101906020018083116106a257829003601f168201915b505050505081526020016003820180546106d890611044565b80601f016020809104026020016040519081016040528092919081815260200182805461070490611044565b80156107515780601f1061072657610100808354040283529160200191610751565b820191906000526020600020905b81548152906001019060200180831161073457829003601f168201915b5050505050815260200160048201805461076a90611044565b80601f016020809104026020016040519081016040528092919081815260200182805461079690611044565b80156107e35780601f106107b8576101008083540402835291602001916107e3565b820191906000526020600020905b8154815290600101906020018083116107c657829003601f168201915b505050505081526020016005820180546107fc90611044565b80601f016020809104026020016040519081016040528092919081815260200182805461082890611044565b80156108755780601f1061084a57610100808354040283529160200191610875565b820191906000526020600020905b81548152906001019060200180831161085857829003601f168201915b5050505050815260200160068201805461088e90611044565b80601f01602080910402602001604051908101604052809291908181526020018280546108ba90611044565b80156109075780601f106108dc57610100808354040283529160200191610907565b820191906000526020600020905b8154815290600101906020018083116108ea57829003601f168201915b5050505050815250509050919050565b60008060008a73ffffffffffffffffffffffffffffffffffffffff1673ffffffffffffffffffffffffffffffffffffffff16815260200190815260200160002090508781600001908161096a9190611221565b50868160010181905550858160020190816109859190611221565b50848160030190816109979190611221565b50838160040190816109a99190611221565b50828160050190816109bb9190611221565b50818160060190816109cd9190611221565b50505050505050505050565b80600360006101000a81548173ffffffffffffffffffffffffffffffffffffffff021916908373ffffffffffffffffffffffffffffffffffffffff16021790555050565b80600460006101000a81548173ffffffffffffffffffffffffffffffffffffffff021916908373ffffffffffffffffffffffffffffffffffffffff16021790555050565b6040518060e00160405280606081526020016000815260200160608152602001606081526020016060815260200160608152602001606081525090565b6000604051905090565b600080fd5b600080fd5b600073ffffffffffffffffffffffffffffffffffffffff82169050919050565b6000610add82610ab2565b9050919050565b610aed81610ad2565b8114610af857600080fd5b50565b600081359050610b0a81610ae4565b92915050565b600060208284031215610b2657610b25610aa8565b5b6000610b3484828501610afb565b91505092915050565b600080fd5b600080fd5b6000601f19601f8301169050919050565b7f4e487b7100000000000000000000000000000000000000000000000000000000600052604160045260246000fd5b610b9082610b47565b810181811067ffffffffffffffff82111715610baf57610bae610b58565b5b80604052505050565b6000610bc2610a9e565b9050610bce8282610b87565b919050565b600067ffffffffffffffff821115610bee57610bed610b58565b5b610bf782610b47565b9050602081019050919050565b82818337600083830152505050565b6000610c26610c2184610bd3565b610bb8565b905082815260208101848484011115610c4257610c41610b42565b5b610c4d848285610c04565b509392505050565b600082601f830112610c6a57610c69610b3d565b5b8135610c7a848260208601610c13565b91505092915050565b6000819050919050565b610c9681610c83565b8114610ca157600080fd5b50565b600081359050610cb381610c8d565b92915050565b600080600080600080600080610100898b031215610cda57610cd9610aa8565b5b6000610ce88b828c01610afb565b985050602089013567ffffffffffffffff811115610d0957610d08610aad565b5b610d158b828c01610c55565b9750506040610d268b828c01610ca4565b965050606089013567ffffffffffffffff811115610d4757610d46610aad565b5b610d538b828c01610c55565b955050608089013567ffffffffffffffff811115610d7457610d73610aad565b5b610d808b828c01610c55565b94505060a089013567ffffffffffffffff811115610da157610da0610aad565b5b610dad8b828c01610c55565b93505060c089013567ffffffffffffffff811115610dce57610dcd610aad565b5b610dda8b828c01610c55565b92505060e089013567ffffffffffffffff811115610dfb57610dfa610aad565b5b610e078b828c01610c55565b9150509295985092959890939650565b600081519050919050565b600082825260208201905092915050565b60005b83811015610e51578082015181840152602081019050610e36565b60008484015250505050565b6000610e6882610e17565b610e728185610e22565b9350610e82818560208601610e33565b610e8b81610b47565b840191505092915050565b610e9f81610c83565b82525050565b600060e0830160008301518482036000860152610ec28282610e5d565b9150506020830151610ed76020860182610e96565b5060408301518482036040860152610eef8282610e5d565b91505060608301518482036060860152610f098282610e5d565b91505060808301518482036080860152610f238282610e5d565b91505060a083015184820360a0860152610f3d8282610e5d565b91505060c083015184820360c0860152610f578282610e5d565b9150508091505092915050565b60006020820190508181036000830152610f7e8184610ea5565b905092915050565b610f8f81610ad2565b82525050565b6000602082019050610faa6000830184610f86565b92915050565b60008115159050919050565b610fc581610fb0565b8114610fd057600080fd5b50565b600081519050610fe281610fbc565b92915050565b600060208284031215610ffe57610ffd610aa8565b5b600061100c84828501610fd3565b91505092915050565b7f4e487b7100000000000000000000000000000000000000000000000000000000600052602260045260246000fd5b6000600282049050600182168061105c57607f821691505b60208210810361106f5761106e611015565b5b50919050565b60008190508160005260206000209050919050565b60006020601f8301049050919050565b600082821b905092915050565b6000600883026110d77fffffffffffffffffffffffffffffffffffffffffffffffffffffffffffffffff8261109a565b6110e1868361109a565b95508019841693508086168417925050509392505050565b6000819050919050565b600061111e61111961111484610c83565b6110f9565b610c83565b9050919050565b6000819050919050565b61113883611103565b61114c61114482611125565b8484546110a7565b825550505050565b600090565b611161611154565b61116c81848461112f565b505050565b5b8181101561119057611185600082611159565b600181019050611172565b5050565b601f8211156111d5576111a681611075565b6111af8461108a565b810160208510156111be578190505b6111d26111ca8561108a565b830182611171565b50505b505050565b600082821c905092915050565b60006111f8600019846008026111da565b1980831691505092915050565b600061121183836111e7565b9150826002028217905092915050565b61122a82610e17565b67ffffffffffffffff81111561124357611242610b58565b5b61124d8254611044565b611258828285611194565b600060209050601f83116001811461128b5760008415611279578287015190505b6112838582611205565b8655506112eb565b601f19841661129986611075565b60005b828110156112c15784890151825560018201915060208501945060208101905061129c565b868310156112de57848901516112da601f8916826111e7565b8355505b6001600288020188555050505b505050505050565b600061130661130184610bd3565b610bb8565b90508281526020810184848401111561132257611321610b42565b5b61132d848285610e33565b509392505050565b600082601f83011261134a57611349610b3d565b5b815161135a8482602086016112f3565b91505092915050565b60006020828403121561137957611378610aa8565b5b600082015167ffffffffffffffff81111561139757611396610aad565b5b6113a384828501611335565b91505092915050565b60006040820190506113c16000830185610f86565b6113ce6020830184610f86565b939250505056fea26469706673582212200301eef7e335e89229e63ee54feeb0d0b6f31bd48573d9c6f84057f1510655c464736f6c63430008110033","opcodes":"PUSH1 0x80 PUSH1 0x40 MSTORE CALLVALUE DUP1 ISZERO PUSH3 0x11 JUMPI PUSH1 0x0 DUP1 REVERT JUMPDEST POP PUSH1 0x40 MLOAD PUSH3 0x1536 CODESIZE SUB DUP1 PUSH3 0x1536 DUP4 CODECOPY DUP2 DUP2 ADD PUSH1 0x40 MSTORE DUP2 ADD SWAP1 PUSH3 0x37 SWAP2 SWAP1 PUSH3 0xE9 JUMP JUMPDEST DUP1 PUSH1 0x1 PUSH1 0x0 PUSH2 0x100 EXP DUP2 SLOAD DUP2 PUSH20 0xFFFFFFFFFFFFFFFFFFFFFFFFFFFFFFFFFFFFFFFF MUL NOT AND SWAP1 DUP4 PUSH20 0xFFFFFFFFFFFFFFFFFFFFFFFFFFFFFFFFFFFFFFFF AND MUL OR SWAP1 SSTORE POP POP PUSH3 0x11B JUMP JUMPDEST PUSH1 0x0 DUP1 REVERT JUMPDEST PUSH1 0x0 PUSH20 0xFFFFFFFFFFFFFFFFFFFFFFFFFFFFFFFFFFFFFFFF DUP3 AND SWAP1 POP SWAP2 SWAP1 POP JUMP JUMPDEST PUSH1 0x0 PUSH3 0xB1 DUP3 PUSH3 0x84 JUMP JUMPDEST SWAP1 POP SWAP2 SWAP1 POP JUMP JUMPDEST PUSH3 0xC3 DUP2 PUSH3 0xA4 JUMP JUMPDEST DUP2 EQ PUSH3 0xCF JUMPI PUSH1 0x0 DUP1 REVERT JUMPDEST POP JUMP JUMPDEST PUSH1 0x0 DUP2 MLOAD SWAP1 POP PUSH3 0xE3 DUP2 PUSH3 0xB8 JUMP JUMPDEST SWAP3 SWAP2 POP POP JUMP JUMPDEST PUSH1 0x0 PUSH1 0x20 DUP3 DUP5 SUB SLT ISZERO PUSH3 0x102 JUMPI PUSH3 0x101 PUSH3 0x7F JUMP JUMPDEST JUMPDEST PUSH1 0x0 PUSH3 0x112 DUP5 DUP3 DUP6 ADD PUSH3 0xD2 JUMP JUMPDEST SWAP2 POP POP SWAP3 SWAP2 POP POP JUMP JUMPDEST PUSH2 0x140B DUP1 PUSH3 0x12B PUSH1 0x0 CODECOPY PUSH1 0x0 RETURN INVALID PUSH1 0x80 PUSH1 0x40 MSTORE CALLVALUE DUP1 ISZERO PUSH2 0x10 JUMPI PUSH1 0x0 DUP1 REVERT JUMPDEST POP PUSH1 0x4 CALLDATASIZE LT PUSH2 0x62 JUMPI PUSH1 0x0 CALLDATALOAD PUSH1 0xE0 SHR DUP1 PUSH4 0x1107747E EQ PUSH2 0x67 JUMPI DUP1 PUSH4 0x26C01F7D EQ PUSH2 0x83 JUMPI DUP1 PUSH4 0x48E81852 EQ PUSH2 0x9F JUMPI DUP1 PUSH4 0x52A6042D EQ PUSH2 0xCF JUMPI DUP1 PUSH4 0x5DB185C7 EQ PUSH2 0xEB JUMPI DUP1 PUSH4 0x7621DF6F EQ PUSH2 0x107 JUMPI JUMPDEST PUSH1 0x0 DUP1 REVERT JUMPDEST PUSH2 0x81 PUSH1 0x4 DUP1 CALLDATASIZE SUB DUP2 ADD SWAP1 PUSH2 0x7C SWAP2 SWAP1 PUSH2 0xB10 JUMP JUMPDEST PUSH2 0x123 JUMP JUMPDEST STOP JUMPDEST PUSH2 0x9D PUSH1 0x4 DUP1 CALLDATASIZE SUB DUP2 ADD SWAP1 PUSH2 0x98 SWAP2 SWAP1 PUSH2 0xCB9 JUMP JUMPDEST PUSH2 0x167 JUMP JUMPDEST STOP JUMPDEST PUSH2 0xB9 PUSH1 0x4 DUP1 CALLDATASIZE SUB DUP2 ADD SWAP1 PUSH2 0xB4 SWAP2 SWAP1 PUSH2 0xB10 JUMP JUMPDEST PUSH2 0x401 JUMP JUMPDEST PUSH1 0x40 MLOAD PUSH2 0xC6 SWAP2 SWAP1 PUSH2 0xF64 JUMP JUMPDEST PUSH1 0x40 MLOAD DUP1 SWAP2 SUB SWAP1 RETURN JUMPDEST PUSH2 0xE9 PUSH1 0x4 DUP1 CALLDATASIZE SUB DUP2 ADD SWAP1 PUSH2 0xE4 SWAP2 SWAP1 PUSH2 0xCB9 JUMP JUMPDEST PUSH2 0x917 JUMP JUMPDEST STOP JUMPDEST PUSH2 0x105 PUSH1 0x4 DUP1 CALLDATASIZE SUB DUP2 ADD SWAP1 PUSH2 0x100 SWAP2 SWAP1 PUSH2 0xB10 JUMP JUMPDEST PUSH2 0x9D9 JUMP JUMPDEST STOP JUMPDEST PUSH2 0x121 PUSH1 0x4 DUP1 CALLDATASIZE SUB DUP2 ADD SWAP1 PUSH2 0x11C SWAP2 SWAP1 PUSH2 0xB10 JUMP JUMPDEST PUSH2 0xA1D JUMP JUMPDEST STOP JUMPDEST DUP1 PUSH1 0x2 PUSH1 0x0 PUSH2 0x100 EXP DUP2 SLOAD DUP2 PUSH20 0xFFFFFFFFFFFFFFFFFFFFFFFFFFFFFFFFFFFFFFFF MUL NOT AND SWAP1 DUP4 PUSH20 0xFFFFFFFFFFFFFFFFFFFFFFFFFFFFFFFFFFFFFFFF AND MUL OR SWAP1 SSTORE POP POP JUMP JUMPDEST PUSH1 0x2 PUSH1 0x0 SWAP1 SLOAD SWAP1 PUSH2 0x100 EXP SWAP1 DIV PUSH20 0xFFFFFFFFFFFFFFFFFFFFFFFFFFFFFFFFFFFFFFFF AND PUSH20 0xFFFFFFFFFFFFFFFFFFFFFFFFFFFFFFFFFFFFFFFF AND PUSH4 0x63A9C3D7 CALLER PUSH1 0x40 MLOAD DUP3 PUSH4 0xFFFFFFFF AND PUSH1 0xE0 SHL DUP2 MSTORE PUSH1 0x4 ADD PUSH2 0x1C2 SWAP2 SWAP1 PUSH2 0xF95 JUMP JUMPDEST PUSH1 0x20 PUSH1 0x40 MLOAD DUP1 DUP4 SUB DUP2 DUP7 GAS STATICCALL ISZERO DUP1 ISZERO PUSH2 0x1DF JUMPI RETURNDATASIZE PUSH1 0x0 DUP1 RETURNDATACOPY RETURNDATASIZE PUSH1 0x0 REVERT JUMPDEST POP POP POP POP PUSH1 0x40 MLOAD RETURNDATASIZE PUSH1 0x1F NOT PUSH1 0x1F DUP3 ADD AND DUP3 ADD DUP1 PUSH1 0x40 MSTORE POP DUP2 ADD SWAP1 PUSH2 0x203 SWAP2 SWAP1 PUSH2 0xFE8 JUMP JUMPDEST PUSH2 0x20C JUMPI PUSH1 0x0 DUP1 REVERT JUMPDEST PUSH1 0x0 DUP1 PUSH1 0x0 DUP11 PUSH20 0xFFFFFFFFFFFFFFFFFFFFFFFFFFFFFFFFFFFFFFFF AND PUSH20 0xFFFFFFFFFFFFFFFFFFFFFFFFFFFFFFFFFFFFFFFF AND DUP2 MSTORE PUSH1 0x20 ADD SWAP1 DUP2 MSTORE PUSH1 0x20 ADD PUSH1 0x0 KECCAK256 SWAP1 POP DUP8 DUP2 PUSH1 0x0 ADD SWAP1 DUP2 PUSH2 0x25F SWAP2 SWAP1 PUSH2 0x1221 JUMP JUMPDEST POP DUP7 DUP2 PUSH1 0x1 ADD DUP2 SWAP1 SSTORE POP DUP6 DUP2 PUSH1 0x2 ADD SWAP1 DUP2 PUSH2 0x27A SWAP2 SWAP1 PUSH2 0x1221 JUMP JUMPDEST POP DUP5 DUP2 PUSH1 0x3 ADD SWAP1 DUP2 PUSH2 0x28C SWAP2 SWAP1 PUSH2 0x1221 JUMP JUMPDEST POP DUP4 DUP2 PUSH1 0x4 ADD SWAP1 DUP2 PUSH2 0x29E SWAP2 SWAP1 PUSH2 0x1221 JUMP JUMPDEST POP DUP3 DUP2 PUSH1 0x5 ADD SWAP1 DUP2 PUSH2 0x2B0 SWAP2 SWAP1 PUSH2 0x1221 JUMP JUMPDEST POP DUP2 DUP2 PUSH1 0x6 ADD SWAP1 DUP2 PUSH2 0x2C2 SWAP2 SWAP1 PUSH2 0x1221 JUMP JUMPDEST POP PUSH1 0x3 PUSH1 0x0 SWAP1 SLOAD SWAP1 PUSH2 0x100 EXP SWAP1 DIV PUSH20 0xFFFFFFFFFFFFFFFFFFFFFFFFFFFFFFFFFFFFFFFF AND PUSH20 0xFFFFFFFFFFFFFFFFFFFFFFFFFFFFFFFFFFFFFFFF AND PUSH4 0x6D263CEB DUP11 PUSH1 0x40 MLOAD DUP3 PUSH4 0xFFFFFFFF AND PUSH1 0xE0 SHL DUP2 MSTORE PUSH1 0x4 ADD PUSH2 0x31E SWAP2 SWAP1 PUSH2 0xF95 JUMP JUMPDEST PUSH1 0x0 PUSH1 0x40 MLOAD DUP1 DUP4 SUB DUP2 PUSH1 0x0 DUP8 GAS CALL ISZERO DUP1 ISZERO PUSH2 0x33D JUMPI RETURNDATASIZE PUSH1 0x0 DUP1 RETURNDATACOPY RETURNDATASIZE PUSH1 0x0 REVERT JUMPDEST POP POP POP POP PUSH1 0x40 MLOAD RETURNDATASIZE PUSH1 0x0 DUP3 RETURNDATACOPY RETURNDATASIZE PUSH1 0x1F NOT PUSH1 0x1F DUP3 ADD AND DUP3 ADD DUP1 PUSH1 0x40 MSTORE POP DUP2 ADD SWAP1 PUSH2 0x366 SWAP2 SWAP1 PUSH2 0x1363 JUMP JUMPDEST POP PUSH1 0x4 PUSH1 0x0 SWAP1 SLOAD SWAP1 PUSH2 0x100 EXP SWAP1 DIV PUSH20 0xFFFFFFFFFFFFFFFFFFFFFFFFFFFFFFFFFFFFFFFF AND PUSH20 0xFFFFFFFFFFFFFFFFFFFFFFFFFFFFFFFFFFFFFFFF AND PUSH4 0x8BFC8C71 CALLER DUP12 PUSH1 0x40 MLOAD DUP4 PUSH4 0xFFFFFFFF AND PUSH1 0xE0 SHL DUP2 MSTORE PUSH1 0x4 ADD PUSH2 0x3C4 SWAP3 SWAP2 SWAP1 PUSH2 0x13AC JUMP JUMPDEST PUSH1 0x0 PUSH1 0x40 MLOAD DUP1 DUP4 SUB DUP2 PUSH1 0x0 DUP8 DUP1 EXTCODESIZE ISZERO DUP1 ISZERO PUSH2 0x3DE JUMPI PUSH1 0x0 DUP1 REVERT JUMPDEST POP GAS CALL ISZERO DUP1 ISZERO PUSH2 0x3F2 JUMPI RETURNDATASIZE PUSH1 0x0 DUP1 RETURNDATACOPY RETURNDATASIZE PUSH1 0x0 REVERT JUMPDEST POP POP POP POP POP POP POP POP POP POP POP POP POP JUMP JUMPDEST PUSH2 0x409 PUSH2 0xA61 JUMP JUMPDEST PUSH1 0x2 PUSH1 0x0 SWAP1 SLOAD SWAP1 PUSH2 0x100 EXP SWAP1 DIV PUSH20 0xFFFFFFFFFFFFFFFFFFFFFFFFFFFFFFFFFFFFFFFF AND PUSH20 0xFFFFFFFFFFFFFFFFFFFFFFFFFFFFFFFFFFFFFFFF AND PUSH4 0x63A9C3D7 CALLER PUSH1 0x40 MLOAD DUP3 PUSH4 0xFFFFFFFF AND PUSH1 0xE0 SHL DUP2 MSTORE PUSH1 0x4 ADD PUSH2 0x464 SWAP2 SWAP1 PUSH2 0xF95 JUMP JUMPDEST PUSH1 0x20 PUSH1 0x40 MLOAD DUP1 DUP4 SUB DUP2 DUP7 GAS STATICCALL ISZERO DUP1 ISZERO PUSH2 0x481 JUMPI RETURNDATASIZE PUSH1 0x0 DUP1 RETURNDATACOPY RETURNDATASIZE PUSH1 0x0 REVERT JUMPDEST POP POP POP POP PUSH1 0x40 MLOAD RETURNDATASIZE PUSH1 0x1F NOT PUSH1 0x1F DUP3 ADD AND DUP3 ADD DUP1 PUSH1 0x40 MSTORE POP DUP2 ADD SWAP1 PUSH2 0x4A5 SWAP2 SWAP1 PUSH2 0xFE8 JUMP JUMPDEST DUP1 PUSH2 0x548 JUMPI POP PUSH1 0x3 PUSH1 0x0 SWAP1 SLOAD SWAP1 PUSH2 0x100 EXP SWAP1 DIV PUSH20 0xFFFFFFFFFFFFFFFFFFFFFFFFFFFFFFFFFFFFFFFF AND PUSH20 0xFFFFFFFFFFFFFFFFFFFFFFFFFFFFFFFFFFFFFFFF AND PUSH4 0x63A9C3D7 CALLER PUSH1 0x40 MLOAD DUP3 PUSH4 0xFFFFFFFF AND PUSH1 0xE0 SHL DUP2 MSTORE PUSH1 0x4 ADD PUSH2 0x506 SWAP2 SWAP1 PUSH2 0xF95 JUMP JUMPDEST PUSH1 0x20 PUSH1 0x40 MLOAD DUP1 DUP4 SUB DUP2 DUP7 GAS STATICCALL ISZERO DUP1 ISZERO PUSH2 0x523 JUMPI RETURNDATASIZE PUSH1 0x0 DUP1 RETURNDATACOPY RETURNDATASIZE PUSH1 0x0 REVERT JUMPDEST POP POP POP POP PUSH1 0x40 MLOAD RETURNDATASIZE PUSH1 0x1F NOT PUSH1 0x1F DUP3 ADD AND DUP3 ADD DUP1 PUSH1 0x40 MSTORE POP DUP2 ADD SWAP1 PUSH2 0x547 SWAP2 SWAP1 PUSH2 0xFE8 JUMP JUMPDEST JUMPDEST PUSH2 0x551 JUMPI PUSH1 0x0 DUP1 REVERT JUMPDEST PUSH1 0x0 DUP1 DUP4 PUSH20 0xFFFFFFFFFFFFFFFFFFFFFFFFFFFFFFFFFFFFFFFF AND PUSH20 0xFFFFFFFFFFFFFFFFFFFFFFFFFFFFFFFFFFFFFFFF AND DUP2 MSTORE PUSH1 0x20 ADD SWAP1 DUP2 MSTORE PUSH1 0x20 ADD PUSH1 0x0 KECCAK256 PUSH1 0x40 MLOAD DUP1 PUSH1 0xE0 ADD PUSH1 0x40 MSTORE SWAP1 DUP2 PUSH1 0x0 DUP3 ADD DUP1 SLOAD PUSH2 0x5AA SWAP1 PUSH2 0x1044 JUMP JUMPDEST DUP1 PUSH1 0x1F ADD PUSH1 0x20 DUP1 SWAP2 DIV MUL PUSH1 0x20 ADD PUSH1 0x40 MLOAD SWAP1 DUP2 ADD PUSH1 0x40 MSTORE DUP1 SWAP3 SWAP2 SWAP1 DUP2 DUP2 MSTORE PUSH1 0x20 ADD DUP3 DUP1 SLOAD PUSH2 0x5D6 SWAP1 PUSH2 0x1044 JUMP JUMPDEST DUP1 ISZERO PUSH2 0x623 JUMPI DUP1 PUSH1 0x1F LT PUSH2 0x5F8 JUMPI PUSH2 0x100 DUP1 DUP4 SLOAD DIV MUL DUP4 MSTORE SWAP2 PUSH1 0x20 ADD SWAP2 PUSH2 0x623 JUMP JUMPDEST DUP3 ADD SWAP2 SWAP1 PUSH1 0x0 MSTORE PUSH1 0x20 PUSH1 0x0 KECCAK256 SWAP1 JUMPDEST DUP2 SLOAD DUP2 MSTORE SWAP1 PUSH1 0x1 ADD SWAP1 PUSH1 0x20 ADD DUP1 DUP4 GT PUSH2 0x606 JUMPI DUP3 SWAP1 SUB PUSH1 0x1F AND DUP3 ADD SWAP2 JUMPDEST POP POP POP POP POP DUP2 MSTORE PUSH1 0x20 ADD PUSH1 0x1 DUP3 ADD SLOAD DUP2 MSTORE PUSH1 0x20 ADD PUSH1 0x2 DUP3 ADD DUP1 SLOAD PUSH2 0x646 SWAP1 PUSH2 0x1044 JUMP JUMPDEST DUP1 PUSH1 0x1F ADD PUSH1 0x20 DUP1 SWAP2 DIV MUL PUSH1 0x20 ADD PUSH1 0x40 MLOAD SWAP1 DUP2 ADD PUSH1 0x40 MSTORE DUP1 SWAP3 SWAP2 SWAP1 DUP2 DUP2 MSTORE PUSH1 0x20 ADD DUP3 DUP1 SLOAD PUSH2 0x672 SWAP1 PUSH2 0x1044 JUMP JUMPDEST DUP1 ISZERO PUSH2 0x6BF JUMPI DUP1 PUSH1 0x1F LT PUSH2 0x694 JUMPI PUSH2 0x100 DUP1 DUP4 SLOAD DIV MUL DUP4 MSTORE SWAP2 PUSH1 0x20 ADD SWAP2 PUSH2 0x6BF JUMP JUMPDEST DUP3 ADD SWAP2 SWAP1 PUSH1 0x0 MSTORE PUSH1 0x20 PUSH1 0x0 KECCAK256 SWAP1 JUMPDEST DUP2 SLOAD DUP2 MSTORE SWAP1 PUSH1 0x1 ADD SWAP1 PUSH1 0x20 ADD DUP1 DUP4 GT PUSH2 0x6A2 JUMPI DUP3 SWAP1 SUB PUSH1 0x1F AND DUP3 ADD SWAP2 JUMPDEST POP POP POP POP POP DUP2 MSTORE PUSH1 0x20 ADD PUSH1 0x3 DUP3 ADD DUP1 SLOAD PUSH2 0x6D8 SWAP1 PUSH2 0x1044 JUMP JUMPDEST DUP1 PUSH1 0x1F ADD PUSH1 0x20 DUP1 SWAP2 DIV MUL PUSH1 0x20 ADD PUSH1 0x40 MLOAD SWAP1 DUP2 ADD PUSH1 0x40 MSTORE DUP1 SWAP3 SWAP2 SWAP1 DUP2 DUP2 MSTORE PUSH1 0x20 ADD DUP3 DUP1 SLOAD PUSH2 0x704 SWAP1 PUSH2 0x1044 JUMP JUMPDEST DUP1 ISZERO PUSH2 0x751 JUMPI DUP1 PUSH1 0x1F LT PUSH2 0x726 JUMPI PUSH2 0x100 DUP1 DUP4 SLOAD DIV MUL DUP4 MSTORE SWAP2 PUSH1 0x20 ADD SWAP2 PUSH2 0x751 JUMP JUMPDEST DUP3 ADD SWAP2 SWAP1 PUSH1 0x0 MSTORE PUSH1 0x20 PUSH1 0x0 KECCAK256 SWAP1 JUMPDEST DUP2 SLOAD DUP2 MSTORE SWAP1 PUSH1 0x1 ADD SWAP1 PUSH1 0x20 ADD DUP1 DUP4 GT PUSH2 0x734 JUMPI DUP3 SWAP1 SUB PUSH1 0x1F AND DUP3 ADD SWAP2 JUMPDEST POP POP POP POP POP DUP2 MSTORE PUSH1 0x20 ADD PUSH1 0x4 DUP3 ADD DUP1 SLOAD PUSH2 0x76A SWAP1 PUSH2 0x1044 JUMP JUMPDEST DUP1 PUSH1 0x1F ADD PUSH1 0x20 DUP1 SWAP2 DIV MUL PUSH1 0x20 ADD PUSH1 0x40 MLOAD SWAP1 DUP2 ADD PUSH1 0x40 MSTORE DUP1 SWAP3 SWAP2 SWAP1 DUP2 DUP2 MSTORE PUSH1 0x20 ADD DUP3 DUP1 SLOAD PUSH2 0x796 SWAP1 PUSH2 0x1044 JUMP JUMPDEST DUP1 ISZERO PUSH2 0x7E3 JUMPI DUP1 PUSH1 0x1F LT PUSH2 0x7B8 JUMPI PUSH2 0x100 DUP1 DUP4 SLOAD DIV MUL DUP4 MSTORE SWAP2 PUSH1 0x20 ADD SWAP2 PUSH2 0x7E3 JUMP JUMPDEST DUP3 ADD SWAP2 SWAP1 PUSH1 0x0 MSTORE PUSH1 0x20 PUSH1 0x0 KECCAK256 SWAP1 JUMPDEST DUP2 SLOAD DUP2 MSTORE SWAP1 PUSH1 0x1 ADD SWAP1 PUSH1 0x20 ADD DUP1 DUP4 GT PUSH2 0x7C6 JUMPI DUP3 SWAP1 SUB PUSH1 0x1F AND DUP3 ADD SWAP2 JUMPDEST POP POP POP POP POP DUP2 MSTORE PUSH1 0x20 ADD PUSH1 0x5 DUP3 ADD DUP1 SLOAD PUSH2 0x7FC SWAP1 PUSH2 0x1044 JUMP JUMPDEST DUP1 PUSH1 0x1F ADD PUSH1 0x20 DUP1 SWAP2 DIV MUL PUSH1 0x20 ADD PUSH1 0x40 MLOAD SWAP1 DUP2 ADD PUSH1 0x40 MSTORE DUP1 SWAP3 SWAP2 SWAP1 DUP2 DUP2 MSTORE PUSH1 0x20 ADD DUP3 DUP1 SLOAD PUSH2 0x828 SWAP1 PUSH2 0x1044 JUMP JUMPDEST DUP1 ISZERO PUSH2 0x875 JUMPI DUP1 PUSH1 0x1F LT PUSH2 0x84A JUMPI PUSH2 0x100 DUP1 DUP4 SLOAD DIV MUL DUP4 MSTORE SWAP2 PUSH1 0x20 ADD SWAP2 PUSH2 0x875 JUMP JUMPDEST DUP3 ADD SWAP2 SWAP1 PUSH1 0x0 MSTORE PUSH1 0x20 PUSH1 0x0 KECCAK256 SWAP1 JUMPDEST DUP2 SLOAD DUP2 MSTORE SWAP1 PUSH1 0x1 ADD SWAP1 PUSH1 0x20 ADD DUP1 DUP4 GT PUSH2 0x858 JUMPI DUP3 SWAP1 SUB PUSH1 0x1F AND DUP3 ADD SWAP2 JUMPDEST POP POP POP POP POP DUP2 MSTORE PUSH1 0x20 ADD PUSH1 0x6 DUP3 ADD DUP1 SLOAD PUSH2 0x88E SWAP1 PUSH2 0x1044 JUMP JUMPDEST DUP1 PUSH1 0x1F ADD PUSH1 0x20 DUP1 SWAP2 DIV MUL PUSH1 0x20 ADD PUSH1 0x40 MLOAD SWAP1 DUP2 ADD PUSH1 0x40 MSTORE DUP1 SWAP3 SWAP2 SWAP1 DUP2 DUP2 MSTORE PUSH1 0x20 ADD DUP3 DUP1 SLOAD PUSH2 0x8BA SWAP1 PUSH2 0x1044 JUMP JUMPDEST DUP1 ISZERO PUSH2 0x907 JUMPI DUP1 PUSH1 0x1F LT PUSH2 0x8DC JUMPI PUSH2 0x100 DUP1 DUP4 SLOAD DIV MUL DUP4 MSTORE SWAP2 PUSH1 0x20 ADD SWAP2 PUSH2 0x907 JUMP JUMPDEST DUP3 ADD SWAP2 SWAP1 PUSH1 0x0 MSTORE PUSH1 0x20 PUSH1 0x0 KECCAK256 SWAP1 JUMPDEST DUP2 SLOAD DUP2 MSTORE SWAP1 PUSH1 0x1 ADD SWAP1 PUSH1 0x20 ADD DUP1 DUP4 GT PUSH2 0x8EA JUMPI DUP3 SWAP1 SUB PUSH1 0x1F AND DUP3 ADD SWAP2 JUMPDEST POP POP POP POP POP DUP2 MSTORE POP POP SWAP1 POP SWAP2 SWAP1 POP JUMP JUMPDEST PUSH1 0x0 DUP1 PUSH1 0x0 DUP11 PUSH20 0xFFFFFFFFFFFFFFFFFFFFFFFFFFFFFFFFFFFFFFFF AND PUSH20 0xFFFFFFFFFFFFFFFFFFFFFFFFFFFFFFFFFFFFFFFF AND DUP2 MSTORE PUSH1 0x20 ADD SWAP1 DUP2 MSTORE PUSH1 0x20 ADD PUSH1 0x0 KECCAK256 SWAP1 POP DUP8 DUP2 PUSH1 0x0 ADD SWAP1 DUP2 PUSH2 0x96A SWAP2 SWAP1 PUSH2 0x1221 JUMP JUMPDEST POP DUP7 DUP2 PUSH1 0x1 ADD DUP2 SWAP1 SSTORE POP DUP6 DUP2 PUSH1 0x2 ADD SWAP1 DUP2 PUSH2 0x985 SWAP2 SWAP1 PUSH2 0x1221 JUMP JUMPDEST POP DUP5 DUP2 PUSH1 0x3 ADD SWAP1 DUP2 PUSH2 0x997 SWAP2 SWAP1 PUSH2 0x1221 JUMP JUMPDEST POP DUP4 DUP2 PUSH1 0x4 ADD SWAP1 DUP2 PUSH2 0x9A9 SWAP2 SWAP1 PUSH2 0x1221 JUMP JUMPDEST POP DUP3 DUP2 PUSH1 0x5 ADD SWAP1 DUP2 PUSH2 0x9BB SWAP2 SWAP1 PUSH2 0x1221 JUMP JUMPDEST POP DUP2 DUP2 PUSH1 0x6 ADD SWAP1 DUP2 PUSH2 0x9CD SWAP2 SWAP1 PUSH2 0x1221 JUMP JUMPDEST POP POP POP POP POP POP POP POP POP POP JUMP JUMPDEST DUP1 PUSH1 0x3 PUSH1 0x0 PUSH2 0x100 EXP DUP2 SLOAD DUP2 PUSH20 0xFFFFFFFFFFFFFFFFFFFFFFFFFFFFFFFFFFFFFFFF MUL NOT AND SWAP1 DUP4 PUSH20 0xFFFFFFFFFFFFFFFFFFFFFFFFFFFFFFFFFFFFFFFF AND MUL OR SWAP1 SSTORE POP POP JUMP JUMPDEST DUP1 PUSH1 0x4 PUSH1 0x0 PUSH2 0x100 EXP DUP2 SLOAD DUP2 PUSH20 0xFFFFFFFFFFFFFFFFFFFFFFFFFFFFFFFFFFFFFFFF MUL NOT AND SWAP1 DUP4 PUSH20 0xFFFFFFFFFFFFFFFFFFFFFFFFFFFFFFFFFFFFFFFF AND MUL OR SWAP1 SSTORE POP POP JUMP JUMPDEST PUSH1 0x40 MLOAD DUP1 PUSH1 0xE0 ADD PUSH1 0x40 MSTORE DUP1 PUSH1 0x60 DUP2 MSTORE PUSH1 0x20 ADD PUSH1 0x0 DUP2 MSTORE PUSH1 0x20 ADD PUSH1 0x60 DUP2 MSTORE PUSH1 0x20 ADD PUSH1 0x60 DUP2 MSTORE PUSH1 0x20 ADD PUSH1 0x60 DUP2 MSTORE PUSH1 0x20 ADD PUSH1 0x60 DUP2 MSTORE PUSH1 0x20 ADD PUSH1 0x60 DUP2 MSTORE POP SWAP1 JUMP JUMPDEST PUSH1 0x0 PUSH1 0x40 MLOAD SWAP1 POP SWAP1 JUMP JUMPDEST PUSH1 0x0 DUP1 REVERT JUMPDEST PUSH1 0x0 DUP1 REVERT JUMPDEST PUSH1 0x0 PUSH20 0xFFFFFFFFFFFFFFFFFFFFFFFFFFFFFFFFFFFFFFFF DUP3 AND SWAP1 POP SWAP2 SWAP1 POP JUMP JUMPDEST PUSH1 0x0 PUSH2 0xADD DUP3 PUSH2 0xAB2 JUMP JUMPDEST SWAP1 POP SWAP2 SWAP1 POP JUMP JUMPDEST PUSH2 0xAED DUP2 PUSH2 0xAD2 JUMP JUMPDEST DUP2 EQ PUSH2 0xAF8 JUMPI PUSH1 0x0 DUP1 REVERT JUMPDEST POP JUMP JUMPDEST PUSH1 0x0 DUP2 CALLDATALOAD SWAP1 POP PUSH2 0xB0A DUP2 PUSH2 0xAE4 JUMP JUMPDEST SWAP3 SWAP2 POP POP JUMP JUMPDEST PUSH1 0x0 PUSH1 0x20 DUP3 DUP5 SUB SLT ISZERO PUSH2 0xB26 JUMPI PUSH2 0xB25 PUSH2 0xAA8 JUMP JUMPDEST JUMPDEST PUSH1 0x0 PUSH2 0xB34 DUP5 DUP3 DUP6 ADD PUSH2 0xAFB JUMP JUMPDEST SWAP2 POP POP SWAP3 SWAP2 POP POP JUMP JUMPDEST PUSH1 0x0 DUP1 REVERT JUMPDEST PUSH1 0x0 DUP1 REVERT JUMPDEST PUSH1 0x0 PUSH1 0x1F NOT PUSH1 0x1F DUP4 ADD AND SWAP1 POP SWAP2 SWAP1 POP JUMP JUMPDEST PUSH32 0x4E487B7100000000000000000000000000000000000000000000000000000000 PUSH1 0x0 MSTORE PUSH1 0x41 PUSH1 0x4 MSTORE PUSH1 0x24 PUSH1 0x0 REVERT JUMPDEST PUSH2 0xB90 DUP3 PUSH2 0xB47 JUMP JUMPDEST DUP2 ADD DUP2 DUP2 LT PUSH8 0xFFFFFFFFFFFFFFFF DUP3 GT OR ISZERO PUSH2 0xBAF JUMPI PUSH2 0xBAE PUSH2 0xB58 JUMP JUMPDEST JUMPDEST DUP1 PUSH1 0x40 MSTORE POP POP POP JUMP JUMPDEST PUSH1 0x0 PUSH2 0xBC2 PUSH2 0xA9E JUMP JUMPDEST SWAP1 POP PUSH2 0xBCE DUP3 DUP3 PUSH2 0xB87 JUMP JUMPDEST SWAP2 SWAP1 POP JUMP JUMPDEST PUSH1 0x0 PUSH8 0xFFFFFFFFFFFFFFFF DUP3 GT ISZERO PUSH2 0xBEE JUMPI PUSH2 0xBED PUSH2 0xB58 JUMP JUMPDEST JUMPDEST PUSH2 0xBF7 DUP3 PUSH2 0xB47 JUMP JUMPDEST SWAP1 POP PUSH1 0x20 DUP2 ADD SWAP1 POP SWAP2 SWAP1 POP JUMP JUMPDEST DUP3 DUP2 DUP4 CALLDATACOPY PUSH1 0x0 DUP4 DUP4 ADD MSTORE POP POP POP JUMP JUMPDEST PUSH1 0x0 PUSH2 0xC26 PUSH2 0xC21 DUP5 PUSH2 0xBD3 JUMP JUMPDEST PUSH2 0xBB8 JUMP JUMPDEST SWAP1 POP DUP3 DUP2 MSTORE PUSH1 0x20 DUP2 ADD DUP5 DUP5 DUP5 ADD GT ISZERO PUSH2 0xC42 JUMPI PUSH2 0xC41 PUSH2 0xB42 JUMP JUMPDEST JUMPDEST PUSH2 0xC4D DUP5 DUP3 DUP6 PUSH2 0xC04 JUMP JUMPDEST POP SWAP4 SWAP3 POP POP POP JUMP JUMPDEST PUSH1 0x0 DUP3 PUSH1 0x1F DUP4 ADD SLT PUSH2 0xC6A JUMPI PUSH2 0xC69 PUSH2 0xB3D JUMP JUMPDEST JUMPDEST DUP2 CALLDATALOAD PUSH2 0xC7A DUP5 DUP3 PUSH1 0x20 DUP7 ADD PUSH2 0xC13 JUMP JUMPDEST SWAP2 POP POP SWAP3 SWAP2 POP POP JUMP JUMPDEST PUSH1 0x0 DUP2 SWAP1 POP SWAP2 SWAP1 POP JUMP JUMPDEST PUSH2 0xC96 DUP2 PUSH2 0xC83 JUMP JUMPDEST DUP2 EQ PUSH2 0xCA1 JUMPI PUSH1 0x0 DUP1 REVERT JUMPDEST POP JUMP JUMPDEST PUSH1 0x0 DUP2 CALLDATALOAD SWAP1 POP PUSH2 0xCB3 DUP2 PUSH2 0xC8D JUMP JUMPDEST SWAP3 SWAP2 POP POP JUMP JUMPDEST PUSH1 0x0 DUP1 PUSH1 0x0 DUP1 PUSH1 0x0 DUP1 PUSH1 0x0 DUP1 PUSH2 0x100 DUP10 DUP12 SUB SLT ISZERO PUSH2 0xCDA JUMPI PUSH2 0xCD9 PUSH2 0xAA8 JUMP JUMPDEST JUMPDEST PUSH1 0x0 PUSH2 0xCE8 DUP12 DUP3 DUP13 ADD PUSH2 0xAFB JUMP JUMPDEST SWAP9 POP POP PUSH1 0x20 DUP10 ADD CALLDATALOAD PUSH8 0xFFFFFFFFFFFFFFFF DUP2 GT ISZERO PUSH2 0xD09 JUMPI PUSH2 0xD08 PUSH2 0xAAD JUMP JUMPDEST JUMPDEST PUSH2 0xD15 DUP12 DUP3 DUP13 ADD PUSH2 0xC55 JUMP JUMPDEST SWAP8 POP POP PUSH1 0x40 PUSH2 0xD26 DUP12 DUP3 DUP13 ADD PUSH2 0xCA4 JUMP JUMPDEST SWAP7 POP POP PUSH1 0x60 DUP10 ADD CALLDATALOAD PUSH8 0xFFFFFFFFFFFFFFFF DUP2 GT ISZERO PUSH2 0xD47 JUMPI PUSH2 0xD46 PUSH2 0xAAD JUMP JUMPDEST JUMPDEST PUSH2 0xD53 DUP12 DUP3 DUP13 ADD PUSH2 0xC55 JUMP JUMPDEST SWAP6 POP POP PUSH1 0x80 DUP10 ADD CALLDATALOAD PUSH8 0xFFFFFFFFFFFFFFFF DUP2 GT ISZERO PUSH2 0xD74 JUMPI PUSH2 0xD73 PUSH2 0xAAD JUMP JUMPDEST JUMPDEST PUSH2 0xD80 DUP12 DUP3 DUP13 ADD PUSH2 0xC55 JUMP JUMPDEST SWAP5 POP POP PUSH1 0xA0 DUP10 ADD CALLDATALOAD PUSH8 0xFFFFFFFFFFFFFFFF DUP2 GT ISZERO PUSH2 0xDA1 JUMPI PUSH2 0xDA0 PUSH2 0xAAD JUMP JUMPDEST JUMPDEST PUSH2 0xDAD DUP12 DUP3 DUP13 ADD PUSH2 0xC55 JUMP JUMPDEST SWAP4 POP POP PUSH1 0xC0 DUP10 ADD CALLDATALOAD PUSH8 0xFFFFFFFFFFFFFFFF DUP2 GT ISZERO PUSH2 0xDCE JUMPI PUSH2 0xDCD PUSH2 0xAAD JUMP JUMPDEST JUMPDEST PUSH2 0xDDA DUP12 DUP3 DUP13 ADD PUSH2 0xC55 JUMP JUMPDEST SWAP3 POP POP PUSH1 0xE0 DUP10 ADD CALLDATALOAD PUSH8 0xFFFFFFFFFFFFFFFF DUP2 GT ISZERO PUSH2 0xDFB JUMPI PUSH2 0xDFA PUSH2 0xAAD JUMP JUMPDEST JUMPDEST PUSH2 0xE07 DUP12 DUP3 DUP13 ADD PUSH2 0xC55 JUMP JUMPDEST SWAP2 POP POP SWAP3 SWAP6 SWAP9 POP SWAP3 SWAP6 SWAP9 SWAP1 SWAP4 SWAP7 POP JUMP JUMPDEST PUSH1 0x0 DUP2 MLOAD SWAP1 POP SWAP2 SWAP1 POP JUMP JUMPDEST PUSH1 0x0 DUP3 DUP3 MSTORE PUSH1 0x20 DUP3 ADD SWAP1 POP SWAP3 SWAP2 POP POP JUMP JUMPDEST PUSH1 0x0 JUMPDEST DUP4 DUP2 LT ISZERO PUSH2 0xE51 JUMPI DUP1 DUP3 ADD MLOAD DUP2 DUP5 ADD MSTORE PUSH1 0x20 DUP2 ADD SWAP1 POP PUSH2 0xE36 JUMP JUMPDEST PUSH1 0x0 DUP5 DUP5 ADD MSTORE POP POP POP POP JUMP JUMPDEST PUSH1 0x0 PUSH2 0xE68 DUP3 PUSH2 0xE17 JUMP JUMPDEST PUSH2 0xE72 DUP2 DUP6 PUSH2 0xE22 JUMP JUMPDEST SWAP4 POP PUSH2 0xE82 DUP2 DUP6 PUSH1 0x20 DUP7 ADD PUSH2 0xE33 JUMP JUMPDEST PUSH2 0xE8B DUP2 PUSH2 0xB47 JUMP JUMPDEST DUP5 ADD SWAP2 POP POP SWAP3 SWAP2 POP POP JUMP JUMPDEST PUSH2 0xE9F DUP2 PUSH2 0xC83 JUMP JUMPDEST DUP3 MSTORE POP POP JUMP JUMPDEST PUSH1 0x0 PUSH1 0xE0 DUP4 ADD PUSH1 0x0 DUP4 ADD MLOAD DUP5 DUP3 SUB PUSH1 0x0 DUP7 ADD MSTORE PUSH2 0xEC2 DUP3 DUP3 PUSH2 0xE5D JUMP JUMPDEST SWAP2 POP POP PUSH1 0x20 DUP4 ADD MLOAD PUSH2 0xED7 PUSH1 0x20 DUP7 ADD DUP3 PUSH2 0xE96 JUMP JUMPDEST POP PUSH1 0x40 DUP4 ADD MLOAD DUP5 DUP3 SUB PUSH1 0x40 DUP7 ADD MSTORE PUSH2 0xEEF DUP3 DUP3 PUSH2 0xE5D JUMP JUMPDEST SWAP2 POP POP PUSH1 0x60 DUP4 ADD MLOAD DUP5 DUP3 SUB PUSH1 0x60 DUP7 ADD MSTORE PUSH2 0xF09 DUP3 DUP3 PUSH2 0xE5D JUMP JUMPDEST SWAP2 POP POP PUSH1 0x80 DUP4 ADD MLOAD DUP5 DUP3 SUB PUSH1 0x80 DUP7 ADD MSTORE PUSH2 0xF23 DUP3 DUP3 PUSH2 0xE5D JUMP JUMPDEST SWAP2 POP POP PUSH1 0xA0 DUP4 ADD MLOAD DUP5 DUP3 SUB PUSH1 0xA0 DUP7 ADD MSTORE PUSH2 0xF3D DUP3 DUP3 PUSH2 0xE5D JUMP JUMPDEST SWAP2 POP POP PUSH1 0xC0 DUP4 ADD MLOAD DUP5 DUP3 SUB PUSH1 0xC0 DUP7 ADD MSTORE PUSH2 0xF57 DUP3 DUP3 PUSH2 0xE5D JUMP JUMPDEST SWAP2 POP POP DUP1 SWAP2 POP POP SWAP3 SWAP2 POP POP JUMP JUMPDEST PUSH1 0x0 PUSH1 0x20 DUP3 ADD SWAP1 POP DUP2 DUP2 SUB PUSH1 0x0 DUP4 ADD MSTORE PUSH2 0xF7E DUP2 DUP5 PUSH2 0xEA5 JUMP JUMPDEST SWAP1 POP SWAP3 SWAP2 POP POP JUMP JUMPDEST PUSH2 0xF8F DUP2 PUSH2 0xAD2 JUMP JUMPDEST DUP3 MSTORE POP POP JUMP JUMPDEST PUSH1 0x0 PUSH1 0x20 DUP3 ADD SWAP1 POP PUSH2 0xFAA PUSH1 0x0 DUP4 ADD DUP5 PUSH2 0xF86 JUMP JUMPDEST SWAP3 SWAP2 POP POP JUMP JUMPDEST PUSH1 0x0 DUP2 ISZERO ISZERO SWAP1 POP SWAP2 SWAP1 POP JUMP JUMPDEST PUSH2 0xFC5 DUP2 PUSH2 0xFB0 JUMP JUMPDEST DUP2 EQ PUSH2 0xFD0 JUMPI PUSH1 0x0 DUP1 REVERT JUMPDEST POP JUMP JUMPDEST PUSH1 0x0 DUP2 MLOAD SWAP1 POP PUSH2 0xFE2 DUP2 PUSH2 0xFBC JUMP JUMPDEST SWAP3 SWAP2 POP POP JUMP JUMPDEST PUSH1 0x0 PUSH1 0x20 DUP3 DUP5 SUB SLT ISZERO PUSH2 0xFFE JUMPI PUSH2 0xFFD PUSH2 0xAA8 JUMP JUMPDEST JUMPDEST PUSH1 0x0 PUSH2 0x100C DUP5 DUP3 DUP6 ADD PUSH2 0xFD3 JUMP JUMPDEST SWAP2 POP POP SWAP3 SWAP2 POP POP JUMP JUMPDEST PUSH32 0x4E487B7100000000000000000000000000000000000000000000000000000000 PUSH1 0x0 MSTORE PUSH1 0x22 PUSH1 0x4 MSTORE PUSH1 0x24 PUSH1 0x0 REVERT JUMPDEST PUSH1 0x0 PUSH1 0x2 DUP3 DIV SWAP1 POP PUSH1 0x1 DUP3 AND DUP1 PUSH2 0x105C JUMPI PUSH1 0x7F DUP3 AND SWAP2 POP JUMPDEST PUSH1 0x20 DUP3 LT DUP2 SUB PUSH2 0x106F JUMPI PUSH2 0x106E PUSH2 0x1015 JUMP JUMPDEST JUMPDEST POP SWAP2 SWAP1 POP JUMP JUMPDEST PUSH1 0x0 DUP2 SWAP1 POP DUP2 PUSH1 0x0 MSTORE PUSH1 0x20 PUSH1 0x0 KECCAK256 SWAP1 POP SWAP2 SWAP1 POP JUMP JUMPDEST PUSH1 0x0 PUSH1 0x20 PUSH1 0x1F DUP4 ADD DIV SWAP1 POP SWAP2 SWAP1 POP JUMP JUMPDEST PUSH1 0x0 DUP3 DUP3 SHL SWAP1 POP SWAP3 SWAP2 POP POP JUMP JUMPDEST PUSH1 0x0 PUSH1 0x8 DUP4 MUL PUSH2 0x10D7 PUSH32 0xFFFFFFFFFFFFFFFFFFFFFFFFFFFFFFFFFFFFFFFFFFFFFFFFFFFFFFFFFFFFFFFF DUP3 PUSH2 0x109A JUMP JUMPDEST PUSH2 0x10E1 DUP7 DUP4 PUSH2 0x109A JUMP JUMPDEST SWAP6 POP DUP1 NOT DUP5 AND SWAP4 POP DUP1 DUP7 AND DUP5 OR SWAP3 POP POP POP SWAP4 SWAP3 POP POP POP JUMP JUMPDEST PUSH1 0x0 DUP2 SWAP1 POP SWAP2 SWAP1 POP JUMP JUMPDEST PUSH1 0x0 PUSH2 0x111E PUSH2 0x1119 PUSH2 0x1114 DUP5 PUSH2 0xC83 JUMP JUMPDEST PUSH2 0x10F9 JUMP JUMPDEST PUSH2 0xC83 JUMP JUMPDEST SWAP1 POP SWAP2 SWAP1 POP JUMP JUMPDEST PUSH1 0x0 DUP2 SWAP1 POP SWAP2 SWAP1 POP JUMP JUMPDEST PUSH2 0x1138 DUP4 PUSH2 0x1103 JUMP JUMPDEST PUSH2 0x114C PUSH2 0x1144 DUP3 PUSH2 0x1125 JUMP JUMPDEST DUP5 DUP5 SLOAD PUSH2 0x10A7 JUMP JUMPDEST DUP3 SSTORE POP POP POP POP JUMP JUMPDEST PUSH1 0x0 SWAP1 JUMP JUMPDEST PUSH2 0x1161 PUSH2 0x1154 JUMP JUMPDEST PUSH2 0x116C DUP2 DUP5 DUP5 PUSH2 0x112F JUMP JUMPDEST POP POP POP JUMP JUMPDEST JUMPDEST DUP2 DUP2 LT ISZERO PUSH2 0x1190 JUMPI PUSH2 0x1185 PUSH1 0x0 DUP3 PUSH2 0x1159 JUMP JUMPDEST PUSH1 0x1 DUP2 ADD SWAP1 POP PUSH2 0x1172 JUMP JUMPDEST POP POP JUMP JUMPDEST PUSH1 0x1F DUP3 GT ISZERO PUSH2 0x11D5 JUMPI PUSH2 0x11A6 DUP2 PUSH2 0x1075 JUMP JUMPDEST PUSH2 0x11AF DUP5 PUSH2 0x108A JUMP JUMPDEST DUP2 ADD PUSH1 0x20 DUP6 LT ISZERO PUSH2 0x11BE JUMPI DUP2 SWAP1 POP JUMPDEST PUSH2 0x11D2 PUSH2 0x11CA DUP6 PUSH2 0x108A JUMP JUMPDEST DUP4 ADD DUP3 PUSH2 0x1171 JUMP JUMPDEST POP POP JUMPDEST POP POP POP JUMP JUMPDEST PUSH1 0x0 DUP3 DUP3 SHR SWAP1 POP SWAP3 SWAP2 POP POP JUMP JUMPDEST PUSH1 0x0 PUSH2 0x11F8 PUSH1 0x0 NOT DUP5 PUSH1 0x8 MUL PUSH2 0x11DA JUMP JUMPDEST NOT DUP1 DUP4 AND SWAP2 POP POP SWAP3 SWAP2 POP POP JUMP JUMPDEST PUSH1 0x0 PUSH2 0x1211 DUP4 DUP4 PUSH2 0x11E7 JUMP JUMPDEST SWAP2 POP DUP3 PUSH1 0x2 MUL DUP3 OR SWAP1 POP SWAP3 SWAP2 POP POP JUMP JUMPDEST PUSH2 0x122A DUP3 PUSH2 0xE17 JUMP JUMPDEST PUSH8 0xFFFFFFFFFFFFFFFF DUP2 GT ISZERO PUSH2 0x1243 JUMPI PUSH2 0x1242 PUSH2 0xB58 JUMP JUMPDEST JUMPDEST PUSH2 0x124D DUP3 SLOAD PUSH2 0x1044 JUMP JUMPDEST PUSH2 0x1258 DUP3 DUP3 DUP6 PUSH2 0x1194 JUMP JUMPDEST PUSH1 0x0 PUSH1 0x20 SWAP1 POP PUSH1 0x1F DUP4 GT PUSH1 0x1 DUP2 EQ PUSH2 0x128B JUMPI PUSH1 0x0 DUP5 ISZERO PUSH2 0x1279 JUMPI DUP3 DUP8 ADD MLOAD SWAP1 POP JUMPDEST PUSH2 0x1283 DUP6 DUP3 PUSH2 0x1205 JUMP JUMPDEST DUP7 SSTORE POP PUSH2 0x12EB JUMP JUMPDEST PUSH1 0x1F NOT DUP5 AND PUSH2 0x1299 DUP7 PUSH2 0x1075 JUMP JUMPDEST PUSH1 0x0 JUMPDEST DUP3 DUP2 LT ISZERO PUSH2 0x12C1 JUMPI DUP5 DUP10 ADD MLOAD DUP3 SSTORE PUSH1 0x1 DUP3 ADD SWAP2 POP PUSH1 0x20 DUP6 ADD SWAP5 POP PUSH1 0x20 DUP2 ADD SWAP1 POP PUSH2 0x129C JUMP JUMPDEST DUP7 DUP4 LT ISZERO PUSH2 0x12DE JUMPI DUP5 DUP10 ADD MLOAD PUSH2 0x12DA PUSH1 0x1F DUP10 AND DUP3 PUSH2 0x11E7 JUMP JUMPDEST DUP4 SSTORE POP JUMPDEST PUSH1 0x1 PUSH1 0x2 DUP9 MUL ADD DUP9 SSTORE POP POP POP JUMPDEST POP POP POP POP POP POP JUMP JUMPDEST PUSH1 0x0 PUSH2 0x1306 PUSH2 0x1301 DUP5 PUSH2 0xBD3 JUMP JUMPDEST PUSH2 0xBB8 JUMP JUMPDEST SWAP1 POP DUP3 DUP2 MSTORE PUSH1 0x20 DUP2 ADD DUP5 DUP5 DUP5 ADD GT ISZERO PUSH2 0x1322 JUMPI PUSH2 0x1321 PUSH2 0xB42 JUMP JUMPDEST JUMPDEST PUSH2 0x132D DUP5 DUP3 DUP6 PUSH2 0xE33 JUMP JUMPDEST POP SWAP4 SWAP3 POP POP POP JUMP JUMPDEST PUSH1 0x0 DUP3 PUSH1 0x1F DUP4 ADD SLT PUSH2 0x134A JUMPI PUSH2 0x1349 PUSH2 0xB3D JUMP JUMPDEST JUMPDEST DUP2 MLOAD PUSH2 0x135A DUP5 DUP3 PUSH1 0x20 DUP7 ADD PUSH2 0x12F3 JUMP JUMPDEST SWAP2 POP POP SWAP3 SWAP2 POP POP JUMP JUMPDEST PUSH1 0x0 PUSH1 0x20 DUP3 DUP5 SUB SLT ISZERO PUSH2 0x1379 JUMPI PUSH2 0x1378 PUSH2 0xAA8 JUMP JUMPDEST JUMPDEST PUSH1 0x0 DUP3 ADD MLOAD PUSH8 0xFFFFFFFFFFFFFFFF DUP2 GT ISZERO PUSH2 0x1397 JUMPI PUSH2 0x1396 PUSH2 0xAAD JUMP JUMPDEST JUMPDEST PUSH2 0x13A3 DUP5 DUP3 DUP6 ADD PUSH2 0x1335 JUMP JUMPDEST SWAP2 POP POP SWAP3 SWAP2 POP POP JUMP JUMPDEST PUSH1 0x0 PUSH1 0x40 DUP3 ADD SWAP1 POP PUSH2 0x13C1 PUSH1 0x0 DUP4 ADD DUP6 PUSH2 0xF86 JUMP JUMPDEST PUSH2 0x13CE PUSH1 0x20 DUP4 ADD DUP5 PUSH2 0xF86 JUMP JUMPDEST SWAP4 SWAP3 POP POP POP JUMP INVALID LOG2 PUSH5 0x6970667358 0x22 SLT KECCAK256 SUB ADD 0xEE 0xF7 0xE3 CALLDATALOAD 0xE8 SWAP3 0x29 0xE6 RETURNDATACOPY 0xE5 0x4F 0xEE 0xB0 0xD0 0xB6 RETURN SHL 0xD4 DUP6 PUSH20 0xD9C6F84057F1510655C464736F6C634300081100 CALLER "},"gasEstimates":{"creation":{"codeDepositCost":"1026200","executionCost":"infinite","totalCost":"infinite"},"external":{"getPatientData(address)":"infinite","setDoctorRelationAddress(address)":"24810","setDoctorVerificatorAddress(address)":"24700","setPatientData(address,string,uint256,string,string,string,string,string)":"infinite","setPatientVerificatorAddress(address)":"24788","updatePatientData(address,string,uint256,string,string,string,string,string)":"infinite"}},"methodIdentifiers":{"getPatientData(address)":"48e81852","setDoctorRelationAddress(address)":"7621df6f","setDoctorVerificatorAddress(address)":"1107747e","setPatientData(address,string,uint256,string,string,string,string,string)":"26c01f7d","setPatientVerificatorAddress(address)":"5db185c7","updatePatientData(address,string,uint256,string,string,string,string,string)":"52a6042d"}},"storageLayout":{"storage":[{"astId":153,"contract":"ElectronicMedicalRecords.sol:Patient","label":"Patient_Data","offset":0,"slot":"0","type":"t_mapping(t_address,t_struct(PatientData)148_storage)"},{"astId":155,"contract":"ElectronicMedicalRecords.sol:Patient","label":"admin","offset":0,"slot":"1","type":"t_address"},{"astId":158,"contract":"ElectronicMedicalRecords.sol:Patient","label":"doctor_verificator","offset":0,"slot":"2","type":"t_contract(DoctorVerificator)594"},{"astId":161,"contract":"ElectronicMedicalRecords.sol:Patient","label":"patient_verificator","offset":0,"slot":"3","type":"t_contract(PatientVerificator)501"},{"astId":164,"contract":"ElectronicMedicalRecords.sol:Patient","label":"doctor_relation","offset":0,"slot":"4","type":"t_contract(DoctorRelation)644"}],"types":{"t_address":{"encoding":"inplace","label":"address","numberOfBytes":"20"},"t_contract(DoctorRelation)644":{"encoding":"inplace","label":"contract DoctorRelation","numberOfBytes":"20"},"t_contract(DoctorVerificator)594":{"encoding":"inplace","label":"contract DoctorVerificator","numberOfBytes":"20"},"t_contract(PatientVerificator)501":{"encoding":"inplace","label":"contract PatientVerificator","numberOfBytes":"20"},"t_mapping(t_address,t_struct(PatientData)148_storage)":{"encoding":"mapping","key":"t_address","label":"mapping(address => struct Patient.PatientData)","numberOfBytes":"32","value":"t_struct(PatientData)148_storage"},"t_string_storage":{"encoding":"bytes","label":"string","numberOfBytes":"32"},"t_struct(PatientData)148_storage":{"encoding":"inplace","label":"struct Patient.PatientData","members":[{"astId":135,"contract":"ElectronicMedicalRecords.sol:Patient","label":"nama_lengkap","offset":0,"slot":"0","type":"t_string_storage"},{"astId":137,"contract":"ElectronicMedicalRecords.sol:Patient","label":"umur","offset":0,"slot":"1","type":"t_uint256"},{"astId":139,"contract":"ElectronicMedicalRecords.sol:Patient","label":"tanggal_lahir","offset":0,"slot":"2","type":"t_string_storage"},{"astId":141,"contract":"ElectronicMedicalRecords.sol:Patient","label":"tanggal_masuk","offset":0,"slot":"3","type":"t_string_storage"},{"astId":143,"contract":"ElectronicMedicalRecords.sol:Patient","label":"tanggal_keluar","offset":0,"slot":"4","type":"t_string_storage"},{"astId":145,"contract":"ElectronicMedicalRecords.sol:Patient","label":"anamnesis","offset":0,"slot":"5","type":"t_string_storage"},{"astId":147,"contract":"ElectronicMedicalRecords.sol:Patient","label":"diagnosis","offset":0,"slot":"6","type":"t_string_storage"}],"numberOfBytes":"224"},"t_uint256":{"encoding":"inplace","label":"uint256","numberOfBytes":"32"}}},"userdoc":{"kind":"user","methods":{},"version":1}}