{"abi":[{"inputs":[{"internalType":"address","name":"_admin","type":"address"}],"stateMutability":"nonpayable","type":"constructor"},{"inputs":[{"internalType":"address","name":"_address","type":"address"}],"name":"getPatientData","outputs":[{"components":[{"internalType":"address","name":"patientAddress","type":"address"},{"internalType":"string","name":"nama_lengkap","type":"string"},{"internalType":"uint256","name":"umur","type":"uint256"},{"internalType":"string","name":"tanggal_lahir","type":"string"},{"internalType":"string","name":"tanggal_masuk","type":"string"},{"internalType":"string","name":"tanggal_keluar","type":"string"},{"internalType":"string","name":"anamnesis","type":"string"},{"internalType":"string","name":"diagnosis","type":"string"}],"internalType":"struct Patient.PatientData","name":"data","type":"tuple"}],"stateMutability":"view","type":"function"},{"inputs":[{"internalType":"address","name":"_DoctorRelationAddress","type":"address"}],"name":"setDoctorRelationAddress","outputs":[],"stateMutability":"nonpayable","type":"function"},{"inputs":[{"internalType":"address","name":"_DoctorVerificatorAddress","type":"address"}],"name":"setDoctorVerificatorAddress","outputs":[],"stateMutability":"nonpayable","type":"function"},{"inputs":[{"internalType":"address","name":"_patient","type":"address"},{"internalType":"string","name":"_nama_lengkap","type":"string"},{"internalType":"uint256","name":"_umur","type":"uint256"},{"internalType":"string","name":"_tanggal_lahir","type":"string"},{"internalType":"string","name":"_tanggal_masuk","type":"string"},{"internalType":"string","name":"_tanggal_keluar","type":"string"},{"internalType":"string","name":"_anamnesis","type":"string"},{"internalType":"string","name":"_diagnosis","type":"string"}],"name":"setPatientData","outputs":[],"stateMutability":"nonpayable","type":"function"},{"inputs":[{"internalType":"address","name":"_PatientVerificatorAddress","type":"address"}],"name":"setPatientVerificatorAddress","outputs":[],"stateMutability":"nonpayable","type":"function"},{"inputs":[{"internalType":"address","name":"_patient","type":"address"},{"internalType":"string","name":"_nama_lengkap","type":"string"},{"internalType":"uint256","name":"_umur","type":"uint256"},{"internalType":"string","name":"_tanggal_lahir","type":"string"},{"internalType":"string","name":"_tanggal_masuk","type":"string"},{"internalType":"string","name":"_tanggal_keluar","type":"string"},{"internalType":"string","name":"_anamnesis","type":"string"},{"internalType":"string","name":"_diagnosis","type":"string"}],"name":"updatePatientData","outputs":[],"stateMutability":"nonpayable","type":"function"}],"devdoc":{"kind":"dev","methods":{},"version":1},"evm":{"assembly":"    /* \"ElectronicMedicalRecords.sol\":1267:4564  contract Patient {... */\n  mstore(0x40, 0x80)\n    /* \"ElectronicMedicalRecords.sol\":1775:1836  constructor(address _admin) {... */\n  callvalue\n  dup1\n  iszero\n  tag_1\n  jumpi\n  0x00\n  dup1\n  revert\ntag_1:\n  pop\n  mload(0x40)\n  sub(codesize, bytecodeSize)\n  dup1\n  bytecodeSize\n  dup4\n  codecopy\n  dup2\n  dup2\n  add\n  0x40\n  mstore\n  dup2\n  add\n  swap1\n  tag_2\n  swap2\n  swap1\n  tag_3\n  jump\t// in\ntag_2:\n    /* \"ElectronicMedicalRecords.sol\":1822:1828  _admin */\n  dup1\n    /* \"ElectronicMedicalRecords.sol\":1814:1819  admin */\n  0x01\n  0x00\n    /* \"ElectronicMedicalRecords.sol\":1814:1828  admin = _admin */\n  0x0100\n  exp\n  dup2\n  sload\n  dup2\n  0xffffffffffffffffffffffffffffffffffffffff\n  mul\n  not\n  and\n  swap1\n  dup4\n  0xffffffffffffffffffffffffffffffffffffffff\n  and\n  mul\n  or\n  swap1\n  sstore\n  pop\n    /* \"ElectronicMedicalRecords.sol\":1775:1836  constructor(address _admin) {... */\n  pop\n    /* \"ElectronicMedicalRecords.sol\":1267:4564  contract Patient {... */\n  jump(tag_6)\n    /* \"#utility.yul\":88:205   */\ntag_8:\n    /* \"#utility.yul\":197:198   */\n  0x00\n    /* \"#utility.yul\":194:195   */\n  dup1\n    /* \"#utility.yul\":187:199   */\n  revert\n    /* \"#utility.yul\":334:460   */\ntag_10:\n    /* \"#utility.yul\":371:378   */\n  0x00\n    /* \"#utility.yul\":411:453   */\n  0xffffffffffffffffffffffffffffffffffffffff\n    /* \"#utility.yul\":404:409   */\n  dup3\n    /* \"#utility.yul\":400:454   */\n  and\n    /* \"#utility.yul\":389:454   */\n  swap1\n  pop\n    /* \"#utility.yul\":334:460   */\n  swap2\n  swap1\n  pop\n  jump\t// out\n    /* \"#utility.yul\":466:562   */\ntag_11:\n    /* \"#utility.yul\":503:510   */\n  0x00\n    /* \"#utility.yul\":532:556   */\n  tag_20\n    /* \"#utility.yul\":550:555   */\n  dup3\n    /* \"#utility.yul\":532:556   */\n  tag_10\n  jump\t// in\ntag_20:\n    /* \"#utility.yul\":521:556   */\n  swap1\n  pop\n    /* \"#utility.yul\":466:562   */\n  swap2\n  swap1\n  pop\n  jump\t// out\n    /* \"#utility.yul\":568:690   */\ntag_12:\n    /* \"#utility.yul\":641:665   */\n  tag_22\n    /* \"#utility.yul\":659:664   */\n  dup2\n    /* \"#utility.yul\":641:665   */\n  tag_11\n  jump\t// in\ntag_22:\n    /* \"#utility.yul\":634:639   */\n  dup2\n    /* \"#utility.yul\":631:666   */\n  eq\n    /* \"#utility.yul\":621:684   */\n  tag_23\n  jumpi\n    /* \"#utility.yul\":680:681   */\n  0x00\n    /* \"#utility.yul\":677:678   */\n  dup1\n    /* \"#utility.yul\":670:682   */\n  revert\n    /* \"#utility.yul\":621:684   */\ntag_23:\n    /* \"#utility.yul\":568:690   */\n  pop\n  jump\t// out\n    /* \"#utility.yul\":696:839   */\ntag_13:\n    /* \"#utility.yul\":753:758   */\n  0x00\n    /* \"#utility.yul\":784:790   */\n  dup2\n    /* \"#utility.yul\":778:791   */\n  mload\n    /* \"#utility.yul\":769:791   */\n  swap1\n  pop\n    /* \"#utility.yul\":800:833   */\n  tag_25\n    /* \"#utility.yul\":827:832   */\n  dup2\n    /* \"#utility.yul\":800:833   */\n  tag_12\n  jump\t// in\ntag_25:\n    /* \"#utility.yul\":696:839   */\n  swap3\n  swap2\n  pop\n  pop\n  jump\t// out\n    /* \"#utility.yul\":845:1196   */\ntag_3:\n    /* \"#utility.yul\":915:921   */\n  0x00\n    /* \"#utility.yul\":964:966   */\n  0x20\n    /* \"#utility.yul\":952:961   */\n  dup3\n    /* \"#utility.yul\":943:950   */\n  dup5\n    /* \"#utility.yul\":939:962   */\n  sub\n    /* \"#utility.yul\":935:967   */\n  slt\n    /* \"#utility.yul\":932:1051   */\n  iszero\n  tag_27\n  jumpi\n    /* \"#utility.yul\":970:1049   */\n  tag_28\n  tag_8\n  jump\t// in\ntag_28:\n    /* \"#utility.yul\":932:1051   */\ntag_27:\n    /* \"#utility.yul\":1090:1091   */\n  0x00\n    /* \"#utility.yul\":1115:1179   */\n  tag_29\n    /* \"#utility.yul\":1171:1178   */\n  dup5\n    /* \"#utility.yul\":1162:1168   */\n  dup3\n    /* \"#utility.yul\":1151:1160   */\n  dup6\n    /* \"#utility.yul\":1147:1169   */\n  add\n    /* \"#utility.yul\":1115:1179   */\n  tag_13\n  jump\t// in\ntag_29:\n    /* \"#utility.yul\":1105:1179   */\n  swap2\n  pop\n    /* \"#utility.yul\":1061:1189   */\n  pop\n    /* \"#utility.yul\":845:1196   */\n  swap3\n  swap2\n  pop\n  pop\n  jump\t// out\n    /* \"ElectronicMedicalRecords.sol\":1267:4564  contract Patient {... */\ntag_6:\n  dataSize(sub_0)\n  dup1\n  dataOffset(sub_0)\n  0x00\n  codecopy\n  0x00\n  return\nstop\n\nsub_0: assembly {\n        /* \"ElectronicMedicalRecords.sol\":1267:4564  contract Patient {... */\n      mstore(0x40, 0x80)\n      callvalue\n      dup1\n      iszero\n      tag_1\n      jumpi\n      0x00\n      dup1\n      revert\n    tag_1:\n      pop\n      jumpi(tag_2, lt(calldatasize, 0x04))\n      shr(0xe0, calldataload(0x00))\n      dup1\n      0x1107747e\n      eq\n      tag_3\n      jumpi\n      dup1\n      0x26c01f7d\n      eq\n      tag_4\n      jumpi\n      dup1\n      0x48e81852\n      eq\n      tag_5\n      jumpi\n      dup1\n      0x52a6042d\n      eq\n      tag_6\n      jumpi\n      dup1\n      0x5db185c7\n      eq\n      tag_7\n      jumpi\n      dup1\n      0x7621df6f\n      eq\n      tag_8\n      jumpi\n    tag_2:\n      0x00\n      dup1\n      revert\n        /* \"ElectronicMedicalRecords.sol\":1844:2007  function setDoctorVerificatorAddress(address _DoctorVerificatorAddress) public {... */\n    tag_3:\n      tag_9\n      0x04\n      dup1\n      calldatasize\n      sub\n      dup2\n      add\n      swap1\n      tag_10\n      swap2\n      swap1\n      tag_11\n      jump\t// in\n    tag_10:\n      tag_12\n      jump\t// in\n    tag_9:\n      stop\n        /* \"ElectronicMedicalRecords.sol\":2347:3284  function setPatientData(... */\n    tag_4:\n      tag_13\n      0x04\n      dup1\n      calldatasize\n      sub\n      dup2\n      add\n      swap1\n      tag_14\n      swap2\n      swap1\n      tag_15\n      jump\t// in\n    tag_14:\n      tag_16\n      jump\t// in\n    tag_13:\n      stop\n        /* \"ElectronicMedicalRecords.sol\":3292:3489  function getPatientData(address _address)... */\n    tag_5:\n      tag_17\n      0x04\n      dup1\n      calldatasize\n      sub\n      dup2\n      add\n      swap1\n      tag_18\n      swap2\n      swap1\n      tag_11\n      jump\t// in\n    tag_18:\n      tag_19\n      jump\t// in\n    tag_17:\n      mload(0x40)\n      tag_20\n      swap2\n      swap1\n      tag_21\n      jump\t// in\n    tag_20:\n      mload(0x40)\n      dup1\n      swap2\n      sub\n      swap1\n      return\n        /* \"ElectronicMedicalRecords.sol\":3497:4294  function updatePatientData(... */\n    tag_6:\n      tag_22\n      0x04\n      dup1\n      calldatasize\n      sub\n      dup2\n      add\n      swap1\n      tag_23\n      swap2\n      swap1\n      tag_15\n      jump\t// in\n    tag_23:\n      tag_24\n      jump\t// in\n    tag_22:\n      stop\n        /* \"ElectronicMedicalRecords.sol\":2015:2183  function setPatientVerificatorAddress(address _PatientVerificatorAddress) public {... */\n    tag_7:\n      tag_25\n      0x04\n      dup1\n      calldatasize\n      sub\n      dup2\n      add\n      swap1\n      tag_26\n      swap2\n      swap1\n      tag_11\n      jump\t// in\n    tag_26:\n      tag_27\n      jump\t// in\n    tag_25:\n      stop\n        /* \"ElectronicMedicalRecords.sol\":2191:2339  function setDoctorRelationAddress(address _DoctorRelationAddress) public {... */\n    tag_8:\n      tag_28\n      0x04\n      dup1\n      calldatasize\n      sub\n      dup2\n      add\n      swap1\n      tag_29\n      swap2\n      swap1\n      tag_11\n      jump\t// in\n    tag_29:\n      tag_30\n      jump\t// in\n    tag_28:\n      stop\n        /* \"ElectronicMedicalRecords.sol\":1844:2007  function setDoctorVerificatorAddress(address _DoctorVerificatorAddress) public {... */\n    tag_12:\n        /* \"ElectronicMedicalRecords.sol\":1973:1998  _DoctorVerificatorAddress */\n      dup1\n        /* \"ElectronicMedicalRecords.sol\":1934:1952  doctor_verificator */\n      0x02\n      0x00\n        /* \"ElectronicMedicalRecords.sol\":1934:1999  doctor_verificator = DoctorVerificator(_DoctorVerificatorAddress) */\n      0x0100\n      exp\n      dup2\n      sload\n      dup2\n      0xffffffffffffffffffffffffffffffffffffffff\n      mul\n      not\n      and\n      swap1\n      dup4\n      0xffffffffffffffffffffffffffffffffffffffff\n      and\n      mul\n      or\n      swap1\n      sstore\n      pop\n        /* \"ElectronicMedicalRecords.sol\":1844:2007  function setDoctorVerificatorAddress(address _DoctorVerificatorAddress) public {... */\n      pop\n      jump\t// out\n        /* \"ElectronicMedicalRecords.sol\":2347:3284  function setPatientData(... */\n    tag_16:\n        /* \"ElectronicMedicalRecords.sol\":4343:4361  doctor_verificator */\n      0x02\n      0x00\n      swap1\n      sload\n      swap1\n      0x0100\n      exp\n      swap1\n      div\n      0xffffffffffffffffffffffffffffffffffffffff\n      and\n        /* \"ElectronicMedicalRecords.sol\":4343:4368  doctor_verificator.verify */\n      0xffffffffffffffffffffffffffffffffffffffff\n      and\n      0x63a9c3d7\n        /* \"ElectronicMedicalRecords.sol\":4369:4379  msg.sender */\n      caller\n        /* \"ElectronicMedicalRecords.sol\":4343:4380  doctor_verificator.verify(msg.sender) */\n      mload(0x40)\n      dup3\n      0xffffffff\n      and\n      0xe0\n      shl\n      dup2\n      mstore\n      0x04\n      add\n      tag_33\n      swap2\n      swap1\n      tag_34\n      jump\t// in\n    tag_33:\n      0x20\n      mload(0x40)\n      dup1\n      dup4\n      sub\n      dup2\n      dup7\n      gas\n      staticcall\n      iszero\n      dup1\n      iszero\n      tag_36\n      jumpi\n      returndatasize\n      0x00\n      dup1\n      returndatacopy\n      revert(0x00, returndatasize)\n    tag_36:\n      pop\n      pop\n      pop\n      pop\n      mload(0x40)\n      returndatasize\n      not(0x1f)\n      0x1f\n      dup3\n      add\n      and\n      dup3\n      add\n      dup1\n      0x40\n      mstore\n      pop\n      dup2\n      add\n      swap1\n      tag_37\n      swap2\n      swap1\n      tag_38\n      jump\t// in\n    tag_37:\n        /* \"ElectronicMedicalRecords.sol\":4335:4381  require(doctor_verificator.verify(msg.sender)) */\n      tag_39\n      jumpi\n      0x00\n      dup1\n      revert\n    tag_39:\n        /* \"ElectronicMedicalRecords.sol\":2687:2721  PatientData storage newPatientData */\n      0x00\n        /* \"ElectronicMedicalRecords.sol\":2724:2736  Patient_Data */\n      dup1\n        /* \"ElectronicMedicalRecords.sol\":2724:2746  Patient_Data[_patient] */\n      0x00\n        /* \"ElectronicMedicalRecords.sol\":2737:2745  _patient */\n      dup11\n        /* \"ElectronicMedicalRecords.sol\":2724:2746  Patient_Data[_patient] */\n      0xffffffffffffffffffffffffffffffffffffffff\n      and\n      0xffffffffffffffffffffffffffffffffffffffff\n      and\n      dup2\n      mstore\n      0x20\n      add\n      swap1\n      dup2\n      mstore\n      0x20\n      add\n      0x00\n      keccak256\n        /* \"ElectronicMedicalRecords.sol\":2687:2746  PatientData storage newPatientData = Patient_Data[_patient] */\n      swap1\n      pop\n        /* \"ElectronicMedicalRecords.sol\":2789:2797  _patient */\n      dup9\n        /* \"ElectronicMedicalRecords.sol\":2757:2771  newPatientData */\n      dup2\n        /* \"ElectronicMedicalRecords.sol\":2757:2786  newPatientData.patientAddress */\n      0x00\n      add\n      0x00\n        /* \"ElectronicMedicalRecords.sol\":2757:2797  newPatientData.patientAddress = _patient */\n      0x0100\n      exp\n      dup2\n      sload\n      dup2\n      0xffffffffffffffffffffffffffffffffffffffff\n      mul\n      not\n      and\n      swap1\n      dup4\n      0xffffffffffffffffffffffffffffffffffffffff\n      and\n      mul\n      or\n      swap1\n      sstore\n      pop\n        /* \"ElectronicMedicalRecords.sol\":2838:2851  _nama_lengkap */\n      dup8\n        /* \"ElectronicMedicalRecords.sol\":2808:2822  newPatientData */\n      dup2\n        /* \"ElectronicMedicalRecords.sol\":2808:2835  newPatientData.nama_lengkap */\n      0x01\n      add\n        /* \"ElectronicMedicalRecords.sol\":2808:2851  newPatientData.nama_lengkap = _nama_lengkap */\n      swap1\n      dup2\n      tag_41\n      swap2\n      swap1\n      tag_42\n      jump\t// in\n    tag_41:\n      pop\n        /* \"ElectronicMedicalRecords.sol\":2884:2889  _umur */\n      dup7\n        /* \"ElectronicMedicalRecords.sol\":2862:2876  newPatientData */\n      dup2\n        /* \"ElectronicMedicalRecords.sol\":2862:2881  newPatientData.umur */\n      0x02\n      add\n        /* \"ElectronicMedicalRecords.sol\":2862:2889  newPatientData.umur = _umur */\n      dup2\n      swap1\n      sstore\n      pop\n        /* \"ElectronicMedicalRecords.sol\":2931:2945  _tanggal_lahir */\n      dup6\n        /* \"ElectronicMedicalRecords.sol\":2900:2914  newPatientData */\n      dup2\n        /* \"ElectronicMedicalRecords.sol\":2900:2928  newPatientData.tanggal_lahir */\n      0x03\n      add\n        /* \"ElectronicMedicalRecords.sol\":2900:2945  newPatientData.tanggal_lahir = _tanggal_lahir */\n      swap1\n      dup2\n      tag_43\n      swap2\n      swap1\n      tag_42\n      jump\t// in\n    tag_43:\n      pop\n        /* \"ElectronicMedicalRecords.sol\":2987:3001  _tanggal_masuk */\n      dup5\n        /* \"ElectronicMedicalRecords.sol\":2956:2970  newPatientData */\n      dup2\n        /* \"ElectronicMedicalRecords.sol\":2956:2984  newPatientData.tanggal_masuk */\n      0x04\n      add\n        /* \"ElectronicMedicalRecords.sol\":2956:3001  newPatientData.tanggal_masuk = _tanggal_masuk */\n      swap1\n      dup2\n      tag_44\n      swap2\n      swap1\n      tag_42\n      jump\t// in\n    tag_44:\n      pop\n        /* \"ElectronicMedicalRecords.sol\":3044:3059  _tanggal_keluar */\n      dup4\n        /* \"ElectronicMedicalRecords.sol\":3012:3026  newPatientData */\n      dup2\n        /* \"ElectronicMedicalRecords.sol\":3012:3041  newPatientData.tanggal_keluar */\n      0x05\n      add\n        /* \"ElectronicMedicalRecords.sol\":3012:3059  newPatientData.tanggal_keluar = _tanggal_keluar */\n      swap1\n      dup2\n      tag_45\n      swap2\n      swap1\n      tag_42\n      jump\t// in\n    tag_45:\n      pop\n        /* \"ElectronicMedicalRecords.sol\":3097:3107  _anamnesis */\n      dup3\n        /* \"ElectronicMedicalRecords.sol\":3070:3084  newPatientData */\n      dup2\n        /* \"ElectronicMedicalRecords.sol\":3070:3094  newPatientData.anamnesis */\n      0x06\n      add\n        /* \"ElectronicMedicalRecords.sol\":3070:3107  newPatientData.anamnesis = _anamnesis */\n      swap1\n      dup2\n      tag_46\n      swap2\n      swap1\n      tag_42\n      jump\t// in\n    tag_46:\n      pop\n        /* \"ElectronicMedicalRecords.sol\":3145:3155  _diagnosis */\n      dup2\n        /* \"ElectronicMedicalRecords.sol\":3118:3132  newPatientData */\n      dup2\n        /* \"ElectronicMedicalRecords.sol\":3118:3142  newPatientData.diagnosis */\n      0x07\n      add\n        /* \"ElectronicMedicalRecords.sol\":3118:3155  newPatientData.diagnosis = _diagnosis */\n      swap1\n      dup2\n      tag_47\n      swap2\n      swap1\n      tag_42\n      jump\t// in\n    tag_47:\n      pop\n        /* \"ElectronicMedicalRecords.sol\":3168:3187  patient_verificator */\n      0x03\n      0x00\n      swap1\n      sload\n      swap1\n      0x0100\n      exp\n      swap1\n      div\n      0xffffffffffffffffffffffffffffffffffffffff\n      and\n        /* \"ElectronicMedicalRecords.sol\":3168:3198  patient_verificator.addPatient */\n      0xffffffffffffffffffffffffffffffffffffffff\n      and\n      0x6d263ceb\n        /* \"ElectronicMedicalRecords.sol\":3199:3207  _patient */\n      dup11\n        /* \"ElectronicMedicalRecords.sol\":3168:3208  patient_verificator.addPatient(_patient) */\n      mload(0x40)\n      dup3\n      0xffffffff\n      and\n      0xe0\n      shl\n      dup2\n      mstore\n      0x04\n      add\n      tag_48\n      swap2\n      swap1\n      tag_34\n      jump\t// in\n    tag_48:\n      0x00\n      mload(0x40)\n      dup1\n      dup4\n      sub\n      dup2\n      0x00\n      dup8\n      dup1\n      extcodesize\n      iszero\n      dup1\n      iszero\n      tag_49\n      jumpi\n      0x00\n      dup1\n      revert\n    tag_49:\n      pop\n      gas\n      call\n      iszero\n      dup1\n      iszero\n      tag_51\n      jumpi\n      returndatasize\n      0x00\n      dup1\n      returndatacopy\n      revert(0x00, returndatasize)\n    tag_51:\n      pop\n      pop\n      pop\n      pop\n        /* \"ElectronicMedicalRecords.sol\":3219:3234  doctor_relation */\n      0x04\n      0x00\n      swap1\n      sload\n      swap1\n      0x0100\n      exp\n      swap1\n      div\n      0xffffffffffffffffffffffffffffffffffffffff\n      and\n        /* \"ElectronicMedicalRecords.sol\":3219:3252  doctor_relation.addDoctorRelation */\n      0xffffffffffffffffffffffffffffffffffffffff\n      and\n      0x8bfc8c71\n        /* \"ElectronicMedicalRecords.sol\":3253:3263  msg.sender */\n      caller\n        /* \"ElectronicMedicalRecords.sol\":3265:3273  _patient */\n      dup12\n        /* \"ElectronicMedicalRecords.sol\":3219:3274  doctor_relation.addDoctorRelation(msg.sender, _patient) */\n      mload(0x40)\n      dup4\n      0xffffffff\n      and\n      0xe0\n      shl\n      dup2\n      mstore\n      0x04\n      add\n      tag_52\n      swap3\n      swap2\n      swap1\n      tag_53\n      jump\t// in\n    tag_52:\n      0x00\n      mload(0x40)\n      dup1\n      dup4\n      sub\n      dup2\n      0x00\n      dup8\n      dup1\n      extcodesize\n      iszero\n      dup1\n      iszero\n      tag_54\n      jumpi\n      0x00\n      dup1\n      revert\n    tag_54:\n      pop\n      gas\n      call\n      iszero\n      dup1\n      iszero\n      tag_56\n      jumpi\n      returndatasize\n      0x00\n      dup1\n      returndatacopy\n      revert(0x00, returndatasize)\n    tag_56:\n      pop\n      pop\n      pop\n      pop\n        /* \"ElectronicMedicalRecords.sol\":2675:3284  { ... */\n      pop\n        /* \"ElectronicMedicalRecords.sol\":2347:3284  function setPatientData(... */\n      pop\n      pop\n      pop\n      pop\n      pop\n      pop\n      pop\n      pop\n      jump\t// out\n        /* \"ElectronicMedicalRecords.sol\":3292:3489  function getPatientData(address _address)... */\n    tag_19:\n        /* \"ElectronicMedicalRecords.sol\":3411:3434  PatientData memory data */\n      tag_57\n      tag_58\n      jump\t// in\n    tag_57:\n        /* \"ElectronicMedicalRecords.sol\":4459:4477  doctor_verificator */\n      0x02\n      0x00\n      swap1\n      sload\n      swap1\n      0x0100\n      exp\n      swap1\n      div\n      0xffffffffffffffffffffffffffffffffffffffff\n      and\n        /* \"ElectronicMedicalRecords.sol\":4459:4484  doctor_verificator.verify */\n      0xffffffffffffffffffffffffffffffffffffffff\n      and\n      0x63a9c3d7\n        /* \"ElectronicMedicalRecords.sol\":4485:4495  msg.sender */\n      caller\n        /* \"ElectronicMedicalRecords.sol\":4459:4496  doctor_verificator.verify(msg.sender) */\n      mload(0x40)\n      dup3\n      0xffffffff\n      and\n      0xe0\n      shl\n      dup2\n      mstore\n      0x04\n      add\n      tag_60\n      swap2\n      swap1\n      tag_34\n      jump\t// in\n    tag_60:\n      0x20\n      mload(0x40)\n      dup1\n      dup4\n      sub\n      dup2\n      dup7\n      gas\n      staticcall\n      iszero\n      dup1\n      iszero\n      tag_62\n      jumpi\n      returndatasize\n      0x00\n      dup1\n      returndatacopy\n      revert(0x00, returndatasize)\n    tag_62:\n      pop\n      pop\n      pop\n      pop\n      mload(0x40)\n      returndatasize\n      not(0x1f)\n      0x1f\n      dup3\n      add\n      and\n      dup3\n      add\n      dup1\n      0x40\n      mstore\n      pop\n      dup2\n      add\n      swap1\n      tag_63\n      swap2\n      swap1\n      tag_38\n      jump\t// in\n    tag_63:\n        /* \"ElectronicMedicalRecords.sol\":4459:4538  doctor_verificator.verify(msg.sender) || patient_verificator.verify(msg.sender) */\n      dup1\n      tag_64\n      jumpi\n      pop\n        /* \"ElectronicMedicalRecords.sol\":4500:4519  patient_verificator */\n      0x03\n      0x00\n      swap1\n      sload\n      swap1\n      0x0100\n      exp\n      swap1\n      div\n      0xffffffffffffffffffffffffffffffffffffffff\n      and\n        /* \"ElectronicMedicalRecords.sol\":4500:4526  patient_verificator.verify */\n      0xffffffffffffffffffffffffffffffffffffffff\n      and\n      0x63a9c3d7\n        /* \"ElectronicMedicalRecords.sol\":4527:4537  msg.sender */\n      caller\n        /* \"ElectronicMedicalRecords.sol\":4500:4538  patient_verificator.verify(msg.sender) */\n      mload(0x40)\n      dup3\n      0xffffffff\n      and\n      0xe0\n      shl\n      dup2\n      mstore\n      0x04\n      add\n      tag_65\n      swap2\n      swap1\n      tag_34\n      jump\t// in\n    tag_65:\n      0x20\n      mload(0x40)\n      dup1\n      dup4\n      sub\n      dup2\n      dup7\n      gas\n      staticcall\n      iszero\n      dup1\n      iszero\n      tag_67\n      jumpi\n      returndatasize\n      0x00\n      dup1\n      returndatacopy\n      revert(0x00, returndatasize)\n    tag_67:\n      pop\n      pop\n      pop\n      pop\n      mload(0x40)\n      returndatasize\n      not(0x1f)\n      0x1f\n      dup3\n      add\n      and\n      dup3\n      add\n      dup1\n      0x40\n      mstore\n      pop\n      dup2\n      add\n      swap1\n      tag_68\n      swap2\n      swap1\n      tag_38\n      jump\t// in\n    tag_68:\n        /* \"ElectronicMedicalRecords.sol\":4459:4538  doctor_verificator.verify(msg.sender) || patient_verificator.verify(msg.sender) */\n    tag_64:\n        /* \"ElectronicMedicalRecords.sol\":4451:4539  require(doctor_verificator.verify(msg.sender) || patient_verificator.verify(msg.sender)) */\n      tag_69\n      jumpi\n      0x00\n      dup1\n      revert\n    tag_69:\n        /* \"ElectronicMedicalRecords.sol\":3459:3471  Patient_Data */\n      0x00\n        /* \"ElectronicMedicalRecords.sol\":3459:3481  Patient_Data[_address] */\n      dup1\n        /* \"ElectronicMedicalRecords.sol\":3472:3480  _address */\n      dup4\n        /* \"ElectronicMedicalRecords.sol\":3459:3481  Patient_Data[_address] */\n      0xffffffffffffffffffffffffffffffffffffffff\n      and\n      0xffffffffffffffffffffffffffffffffffffffff\n      and\n      dup2\n      mstore\n      0x20\n      add\n      swap1\n      dup2\n      mstore\n      0x20\n      add\n      0x00\n      keccak256\n        /* \"ElectronicMedicalRecords.sol\":3452:3481  return Patient_Data[_address] */\n      mload(0x40)\n      dup1\n      0x0100\n      add\n      0x40\n      mstore\n      swap1\n      dup2\n      0x00\n      dup3\n      add\n      0x00\n      swap1\n      sload\n      swap1\n      0x0100\n      exp\n      swap1\n      div\n      0xffffffffffffffffffffffffffffffffffffffff\n      and\n      0xffffffffffffffffffffffffffffffffffffffff\n      and\n      0xffffffffffffffffffffffffffffffffffffffff\n      and\n      dup2\n      mstore\n      0x20\n      add\n      0x01\n      dup3\n      add\n      dup1\n      sload\n      tag_71\n      swap1\n      tag_72\n      jump\t// in\n    tag_71:\n      dup1\n      0x1f\n      add\n      0x20\n      dup1\n      swap2\n      div\n      mul\n      0x20\n      add\n      mload(0x40)\n      swap1\n      dup2\n      add\n      0x40\n      mstore\n      dup1\n      swap3\n      swap2\n      swap1\n      dup2\n      dup2\n      mstore\n      0x20\n      add\n      dup3\n      dup1\n      sload\n      tag_73\n      swap1\n      tag_72\n      jump\t// in\n    tag_73:\n      dup1\n      iszero\n      tag_74\n      jumpi\n      dup1\n      0x1f\n      lt\n      tag_75\n      jumpi\n      0x0100\n      dup1\n      dup4\n      sload\n      div\n      mul\n      dup4\n      mstore\n      swap2\n      0x20\n      add\n      swap2\n      jump(tag_74)\n    tag_75:\n      dup3\n      add\n      swap2\n      swap1\n      0x00\n      mstore\n      keccak256(0x00, 0x20)\n      swap1\n    tag_76:\n      dup2\n      sload\n      dup2\n      mstore\n      swap1\n      0x01\n      add\n      swap1\n      0x20\n      add\n      dup1\n      dup4\n      gt\n      tag_76\n      jumpi\n      dup3\n      swap1\n      sub\n      0x1f\n      and\n      dup3\n      add\n      swap2\n    tag_74:\n      pop\n      pop\n      pop\n      pop\n      pop\n      dup2\n      mstore\n      0x20\n      add\n      0x02\n      dup3\n      add\n      sload\n      dup2\n      mstore\n      0x20\n      add\n      0x03\n      dup3\n      add\n      dup1\n      sload\n      tag_77\n      swap1\n      tag_72\n      jump\t// in\n    tag_77:\n      dup1\n      0x1f\n      add\n      0x20\n      dup1\n      swap2\n      div\n      mul\n      0x20\n      add\n      mload(0x40)\n      swap1\n      dup2\n      add\n      0x40\n      mstore\n      dup1\n      swap3\n      swap2\n      swap1\n      dup2\n      dup2\n      mstore\n      0x20\n      add\n      dup3\n      dup1\n      sload\n      tag_78\n      swap1\n      tag_72\n      jump\t// in\n    tag_78:\n      dup1\n      iszero\n      tag_79\n      jumpi\n      dup1\n      0x1f\n      lt\n      tag_80\n      jumpi\n      0x0100\n      dup1\n      dup4\n      sload\n      div\n      mul\n      dup4\n      mstore\n      swap2\n      0x20\n      add\n      swap2\n      jump(tag_79)\n    tag_80:\n      dup3\n      add\n      swap2\n      swap1\n      0x00\n      mstore\n      keccak256(0x00, 0x20)\n      swap1\n    tag_81:\n      dup2\n      sload\n      dup2\n      mstore\n      swap1\n      0x01\n      add\n      swap1\n      0x20\n      add\n      dup1\n      dup4\n      gt\n      tag_81\n      jumpi\n      dup3\n      swap1\n      sub\n      0x1f\n      and\n      dup3\n      add\n      swap2\n    tag_79:\n      pop\n      pop\n      pop\n      pop\n      pop\n      dup2\n      mstore\n      0x20\n      add\n      0x04\n      dup3\n      add\n      dup1\n      sload\n      tag_82\n      swap1\n      tag_72\n      jump\t// in\n    tag_82:\n      dup1\n      0x1f\n      add\n      0x20\n      dup1\n      swap2\n      div\n      mul\n      0x20\n      add\n      mload(0x40)\n      swap1\n      dup2\n      add\n      0x40\n      mstore\n      dup1\n      swap3\n      swap2\n      swap1\n      dup2\n      dup2\n      mstore\n      0x20\n      add\n      dup3\n      dup1\n      sload\n      tag_83\n      swap1\n      tag_72\n      jump\t// in\n    tag_83:\n      dup1\n      iszero\n      tag_84\n      jumpi\n      dup1\n      0x1f\n      lt\n      tag_85\n      jumpi\n      0x0100\n      dup1\n      dup4\n      sload\n      div\n      mul\n      dup4\n      mstore\n      swap2\n      0x20\n      add\n      swap2\n      jump(tag_84)\n    tag_85:\n      dup3\n      add\n      swap2\n      swap1\n      0x00\n      mstore\n      keccak256(0x00, 0x20)\n      swap1\n    tag_86:\n      dup2\n      sload\n      dup2\n      mstore\n      swap1\n      0x01\n      add\n      swap1\n      0x20\n      add\n      dup1\n      dup4\n      gt\n      tag_86\n      jumpi\n      dup3\n      swap1\n      sub\n      0x1f\n      and\n      dup3\n      add\n      swap2\n    tag_84:\n      pop\n      pop\n      pop\n      pop\n      pop\n      dup2\n      mstore\n      0x20\n      add\n      0x05\n      dup3\n      add\n      dup1\n      sload\n      tag_87\n      swap1\n      tag_72\n      jump\t// in\n    tag_87:\n      dup1\n      0x1f\n      add\n      0x20\n      dup1\n      swap2\n      div\n      mul\n      0x20\n      add\n      mload(0x40)\n      swap1\n      dup2\n      add\n      0x40\n      mstore\n      dup1\n      swap3\n      swap2\n      swap1\n      dup2\n      dup2\n      mstore\n      0x20\n      add\n      dup3\n      dup1\n      sload\n      tag_88\n      swap1\n      tag_72\n      jump\t// in\n    tag_88:\n      dup1\n      iszero\n      tag_89\n      jumpi\n      dup1\n      0x1f\n      lt\n      tag_90\n      jumpi\n      0x0100\n      dup1\n      dup4\n      sload\n      div\n      mul\n      dup4\n      mstore\n      swap2\n      0x20\n      add\n      swap2\n      jump(tag_89)\n    tag_90:\n      dup3\n      add\n      swap2\n      swap1\n      0x00\n      mstore\n      keccak256(0x00, 0x20)\n      swap1\n    tag_91:\n      dup2\n      sload\n      dup2\n      mstore\n      swap1\n      0x01\n      add\n      swap1\n      0x20\n      add\n      dup1\n      dup4\n      gt\n      tag_91\n      jumpi\n      dup3\n      swap1\n      sub\n      0x1f\n      and\n      dup3\n      add\n      swap2\n    tag_89:\n      pop\n      pop\n      pop\n      pop\n      pop\n      dup2\n      mstore\n      0x20\n      add\n      0x06\n      dup3\n      add\n      dup1\n      sload\n      tag_92\n      swap1\n      tag_72\n      jump\t// in\n    tag_92:\n      dup1\n      0x1f\n      add\n      0x20\n      dup1\n      swap2\n      div\n      mul\n      0x20\n      add\n      mload(0x40)\n      swap1\n      dup2\n      add\n      0x40\n      mstore\n      dup1\n      swap3\n      swap2\n      swap1\n      dup2\n      dup2\n      mstore\n      0x20\n      add\n      dup3\n      dup1\n      sload\n      tag_93\n      swap1\n      tag_72\n      jump\t// in\n    tag_93:\n      dup1\n      iszero\n      tag_94\n      jumpi\n      dup1\n      0x1f\n      lt\n      tag_95\n      jumpi\n      0x0100\n      dup1\n      dup4\n      sload\n      div\n      mul\n      dup4\n      mstore\n      swap2\n      0x20\n      add\n      swap2\n      jump(tag_94)\n    tag_95:\n      dup3\n      add\n      swap2\n      swap1\n      0x00\n      mstore\n      keccak256(0x00, 0x20)\n      swap1\n    tag_96:\n      dup2\n      sload\n      dup2\n      mstore\n      swap1\n      0x01\n      add\n      swap1\n      0x20\n      add\n      dup1\n      dup4\n      gt\n      tag_96\n      jumpi\n      dup3\n      swap1\n      sub\n      0x1f\n      and\n      dup3\n      add\n      swap2\n    tag_94:\n      pop\n      pop\n      pop\n      pop\n      pop\n      dup2\n      mstore\n      0x20\n      add\n      0x07\n      dup3\n      add\n      dup1\n      sload\n      tag_97\n      swap1\n      tag_72\n      jump\t// in\n    tag_97:\n      dup1\n      0x1f\n      add\n      0x20\n      dup1\n      swap2\n      div\n      mul\n      0x20\n      add\n      mload(0x40)\n      swap1\n      dup2\n      add\n      0x40\n      mstore\n      dup1\n      swap3\n      swap2\n      swap1\n      dup2\n      dup2\n      mstore\n      0x20\n      add\n      dup3\n      dup1\n      sload\n      tag_98\n      swap1\n      tag_72\n      jump\t// in\n    tag_98:\n      dup1\n      iszero\n      tag_99\n      jumpi\n      dup1\n      0x1f\n      lt\n      tag_100\n      jumpi\n      0x0100\n      dup1\n      dup4\n      sload\n      div\n      mul\n      dup4\n      mstore\n      swap2\n      0x20\n      add\n      swap2\n      jump(tag_99)\n    tag_100:\n      dup3\n      add\n      swap2\n      swap1\n      0x00\n      mstore\n      keccak256(0x00, 0x20)\n      swap1\n    tag_101:\n      dup2\n      sload\n      dup2\n      mstore\n      swap1\n      0x01\n      add\n      swap1\n      0x20\n      add\n      dup1\n      dup4\n      gt\n      tag_101\n      jumpi\n      dup3\n      swap1\n      sub\n      0x1f\n      and\n      dup3\n      add\n      swap2\n    tag_99:\n      pop\n      pop\n      pop\n      pop\n      pop\n      dup2\n      mstore\n      pop\n      pop\n      swap1\n      pop\n        /* \"ElectronicMedicalRecords.sol\":3292:3489  function getPatientData(address _address)... */\n      swap2\n      swap1\n      pop\n      jump\t// out\n        /* \"ElectronicMedicalRecords.sol\":3497:4294  function updatePatientData(... */\n    tag_24:\n        /* \"ElectronicMedicalRecords.sol\":3829:3868  PatientData storage existingPatientData */\n      0x00\n        /* \"ElectronicMedicalRecords.sol\":3871:3883  Patient_Data */\n      dup1\n        /* \"ElectronicMedicalRecords.sol\":3871:3893  Patient_Data[_patient] */\n      0x00\n        /* \"ElectronicMedicalRecords.sol\":3884:3892  _patient */\n      dup11\n        /* \"ElectronicMedicalRecords.sol\":3871:3893  Patient_Data[_patient] */\n      0xffffffffffffffffffffffffffffffffffffffff\n      and\n      0xffffffffffffffffffffffffffffffffffffffff\n      and\n      dup2\n      mstore\n      0x20\n      add\n      swap1\n      dup2\n      mstore\n      0x20\n      add\n      0x00\n      keccak256\n        /* \"ElectronicMedicalRecords.sol\":3829:3893  PatientData storage existingPatientData = Patient_Data[_patient] */\n      swap1\n      pop\n        /* \"ElectronicMedicalRecords.sol\":3939:3952  _nama_lengkap */\n      dup8\n        /* \"ElectronicMedicalRecords.sol\":3904:3923  existingPatientData */\n      dup2\n        /* \"ElectronicMedicalRecords.sol\":3904:3936  existingPatientData.nama_lengkap */\n      0x01\n      add\n        /* \"ElectronicMedicalRecords.sol\":3904:3952  existingPatientData.nama_lengkap = _nama_lengkap */\n      swap1\n      dup2\n      tag_103\n      swap2\n      swap1\n      tag_42\n      jump\t// in\n    tag_103:\n      pop\n        /* \"ElectronicMedicalRecords.sol\":3990:3995  _umur */\n      dup7\n        /* \"ElectronicMedicalRecords.sol\":3963:3982  existingPatientData */\n      dup2\n        /* \"ElectronicMedicalRecords.sol\":3963:3987  existingPatientData.umur */\n      0x02\n      add\n        /* \"ElectronicMedicalRecords.sol\":3963:3995  existingPatientData.umur = _umur */\n      dup2\n      swap1\n      sstore\n      pop\n        /* \"ElectronicMedicalRecords.sol\":4042:4056  _tanggal_lahir */\n      dup6\n        /* \"ElectronicMedicalRecords.sol\":4006:4025  existingPatientData */\n      dup2\n        /* \"ElectronicMedicalRecords.sol\":4006:4039  existingPatientData.tanggal_lahir */\n      0x03\n      add\n        /* \"ElectronicMedicalRecords.sol\":4006:4056  existingPatientData.tanggal_lahir = _tanggal_lahir */\n      swap1\n      dup2\n      tag_104\n      swap2\n      swap1\n      tag_42\n      jump\t// in\n    tag_104:\n      pop\n        /* \"ElectronicMedicalRecords.sol\":4103:4117  _tanggal_masuk */\n      dup5\n        /* \"ElectronicMedicalRecords.sol\":4067:4086  existingPatientData */\n      dup2\n        /* \"ElectronicMedicalRecords.sol\":4067:4100  existingPatientData.tanggal_masuk */\n      0x04\n      add\n        /* \"ElectronicMedicalRecords.sol\":4067:4117  existingPatientData.tanggal_masuk = _tanggal_masuk */\n      swap1\n      dup2\n      tag_105\n      swap2\n      swap1\n      tag_42\n      jump\t// in\n    tag_105:\n      pop\n        /* \"ElectronicMedicalRecords.sol\":4165:4180  _tanggal_keluar */\n      dup4\n        /* \"ElectronicMedicalRecords.sol\":4128:4147  existingPatientData */\n      dup2\n        /* \"ElectronicMedicalRecords.sol\":4128:4162  existingPatientData.tanggal_keluar */\n      0x05\n      add\n        /* \"ElectronicMedicalRecords.sol\":4128:4180  existingPatientData.tanggal_keluar = _tanggal_keluar */\n      swap1\n      dup2\n      tag_106\n      swap2\n      swap1\n      tag_42\n      jump\t// in\n    tag_106:\n      pop\n        /* \"ElectronicMedicalRecords.sol\":4223:4233  _anamnesis */\n      dup3\n        /* \"ElectronicMedicalRecords.sol\":4191:4210  existingPatientData */\n      dup2\n        /* \"ElectronicMedicalRecords.sol\":4191:4220  existingPatientData.anamnesis */\n      0x06\n      add\n        /* \"ElectronicMedicalRecords.sol\":4191:4233  existingPatientData.anamnesis = _anamnesis */\n      swap1\n      dup2\n      tag_107\n      swap2\n      swap1\n      tag_42\n      jump\t// in\n    tag_107:\n      pop\n        /* \"ElectronicMedicalRecords.sol\":4276:4286  _diagnosis */\n      dup2\n        /* \"ElectronicMedicalRecords.sol\":4244:4263  existingPatientData */\n      dup2\n        /* \"ElectronicMedicalRecords.sol\":4244:4273  existingPatientData.diagnosis */\n      0x07\n      add\n        /* \"ElectronicMedicalRecords.sol\":4244:4286  existingPatientData.diagnosis = _diagnosis */\n      swap1\n      dup2\n      tag_108\n      swap2\n      swap1\n      tag_42\n      jump\t// in\n    tag_108:\n      pop\n        /* \"ElectronicMedicalRecords.sol\":3817:4294  { ... */\n      pop\n        /* \"ElectronicMedicalRecords.sol\":3497:4294  function updatePatientData(... */\n      pop\n      pop\n      pop\n      pop\n      pop\n      pop\n      pop\n      pop\n      jump\t// out\n        /* \"ElectronicMedicalRecords.sol\":2015:2183  function setPatientVerificatorAddress(address _PatientVerificatorAddress) public {... */\n    tag_27:\n        /* \"ElectronicMedicalRecords.sol\":2148:2174  _PatientVerificatorAddress */\n      dup1\n        /* \"ElectronicMedicalRecords.sol\":2107:2126  patient_verificator */\n      0x03\n      0x00\n        /* \"ElectronicMedicalRecords.sol\":2107:2175  patient_verificator = PatientVerificator(_PatientVerificatorAddress) */\n      0x0100\n      exp\n      dup2\n      sload\n      dup2\n      0xffffffffffffffffffffffffffffffffffffffff\n      mul\n      not\n      and\n      swap1\n      dup4\n      0xffffffffffffffffffffffffffffffffffffffff\n      and\n      mul\n      or\n      swap1\n      sstore\n      pop\n        /* \"ElectronicMedicalRecords.sol\":2015:2183  function setPatientVerificatorAddress(address _PatientVerificatorAddress) public {... */\n      pop\n      jump\t// out\n        /* \"ElectronicMedicalRecords.sol\":2191:2339  function setDoctorRelationAddress(address _DoctorRelationAddress) public {... */\n    tag_30:\n        /* \"ElectronicMedicalRecords.sol\":2308:2330  _DoctorRelationAddress */\n      dup1\n        /* \"ElectronicMedicalRecords.sol\":2275:2290  doctor_relation */\n      0x04\n      0x00\n        /* \"ElectronicMedicalRecords.sol\":2275:2331  doctor_relation = DoctorRelation(_DoctorRelationAddress) */\n      0x0100\n      exp\n      dup2\n      sload\n      dup2\n      0xffffffffffffffffffffffffffffffffffffffff\n      mul\n      not\n      and\n      swap1\n      dup4\n      0xffffffffffffffffffffffffffffffffffffffff\n      and\n      mul\n      or\n      swap1\n      sstore\n      pop\n        /* \"ElectronicMedicalRecords.sol\":2191:2339  function setDoctorRelationAddress(address _DoctorRelationAddress) public {... */\n      pop\n      jump\t// out\n    tag_58:\n      mload(0x40)\n      dup1\n      0x0100\n      add\n      0x40\n      mstore\n      dup1\n      and(0xffffffffffffffffffffffffffffffffffffffff, 0x00)\n      dup2\n      mstore\n      0x20\n      add\n      0x60\n      dup2\n      mstore\n      0x20\n      add\n      0x00\n      dup2\n      mstore\n      0x20\n      add\n      0x60\n      dup2\n      mstore\n      0x20\n      add\n      0x60\n      dup2\n      mstore\n      0x20\n      add\n      0x60\n      dup2\n      mstore\n      0x20\n      add\n      0x60\n      dup2\n      mstore\n      0x20\n      add\n      0x60\n      dup2\n      mstore\n      pop\n      swap1\n      jump\t// out\n        /* \"#utility.yul\":7:82   */\n    tag_111:\n        /* \"#utility.yul\":40:46   */\n      0x00\n        /* \"#utility.yul\":73:75   */\n      0x40\n        /* \"#utility.yul\":67:76   */\n      mload\n        /* \"#utility.yul\":57:76   */\n      swap1\n      pop\n        /* \"#utility.yul\":7:82   */\n      swap1\n      jump\t// out\n        /* \"#utility.yul\":88:205   */\n    tag_112:\n        /* \"#utility.yul\":197:198   */\n      0x00\n        /* \"#utility.yul\":194:195   */\n      dup1\n        /* \"#utility.yul\":187:199   */\n      revert\n        /* \"#utility.yul\":211:328   */\n    tag_113:\n        /* \"#utility.yul\":320:321   */\n      0x00\n        /* \"#utility.yul\":317:318   */\n      dup1\n        /* \"#utility.yul\":310:322   */\n      revert\n        /* \"#utility.yul\":334:460   */\n    tag_114:\n        /* \"#utility.yul\":371:378   */\n      0x00\n        /* \"#utility.yul\":411:453   */\n      0xffffffffffffffffffffffffffffffffffffffff\n        /* \"#utility.yul\":404:409   */\n      dup3\n        /* \"#utility.yul\":400:454   */\n      and\n        /* \"#utility.yul\":389:454   */\n      swap1\n      pop\n        /* \"#utility.yul\":334:460   */\n      swap2\n      swap1\n      pop\n      jump\t// out\n        /* \"#utility.yul\":466:562   */\n    tag_115:\n        /* \"#utility.yul\":503:510   */\n      0x00\n        /* \"#utility.yul\":532:556   */\n      tag_164\n        /* \"#utility.yul\":550:555   */\n      dup3\n        /* \"#utility.yul\":532:556   */\n      tag_114\n      jump\t// in\n    tag_164:\n        /* \"#utility.yul\":521:556   */\n      swap1\n      pop\n        /* \"#utility.yul\":466:562   */\n      swap2\n      swap1\n      pop\n      jump\t// out\n        /* \"#utility.yul\":568:690   */\n    tag_116:\n        /* \"#utility.yul\":641:665   */\n      tag_166\n        /* \"#utility.yul\":659:664   */\n      dup2\n        /* \"#utility.yul\":641:665   */\n      tag_115\n      jump\t// in\n    tag_166:\n        /* \"#utility.yul\":634:639   */\n      dup2\n        /* \"#utility.yul\":631:666   */\n      eq\n        /* \"#utility.yul\":621:684   */\n      tag_167\n      jumpi\n        /* \"#utility.yul\":680:681   */\n      0x00\n        /* \"#utility.yul\":677:678   */\n      dup1\n        /* \"#utility.yul\":670:682   */\n      revert\n        /* \"#utility.yul\":621:684   */\n    tag_167:\n        /* \"#utility.yul\":568:690   */\n      pop\n      jump\t// out\n        /* \"#utility.yul\":696:835   */\n    tag_117:\n        /* \"#utility.yul\":742:747   */\n      0x00\n        /* \"#utility.yul\":780:786   */\n      dup2\n        /* \"#utility.yul\":767:787   */\n      calldataload\n        /* \"#utility.yul\":758:787   */\n      swap1\n      pop\n        /* \"#utility.yul\":796:829   */\n      tag_169\n        /* \"#utility.yul\":823:828   */\n      dup2\n        /* \"#utility.yul\":796:829   */\n      tag_116\n      jump\t// in\n    tag_169:\n        /* \"#utility.yul\":696:835   */\n      swap3\n      swap2\n      pop\n      pop\n      jump\t// out\n        /* \"#utility.yul\":841:1170   */\n    tag_11:\n        /* \"#utility.yul\":900:906   */\n      0x00\n        /* \"#utility.yul\":949:951   */\n      0x20\n        /* \"#utility.yul\":937:946   */\n      dup3\n        /* \"#utility.yul\":928:935   */\n      dup5\n        /* \"#utility.yul\":924:947   */\n      sub\n        /* \"#utility.yul\":920:952   */\n      slt\n        /* \"#utility.yul\":917:1036   */\n      iszero\n      tag_171\n      jumpi\n        /* \"#utility.yul\":955:1034   */\n      tag_172\n      tag_112\n      jump\t// in\n    tag_172:\n        /* \"#utility.yul\":917:1036   */\n    tag_171:\n        /* \"#utility.yul\":1075:1076   */\n      0x00\n        /* \"#utility.yul\":1100:1153   */\n      tag_173\n        /* \"#utility.yul\":1145:1152   */\n      dup5\n        /* \"#utility.yul\":1136:1142   */\n      dup3\n        /* \"#utility.yul\":1125:1134   */\n      dup6\n        /* \"#utility.yul\":1121:1143   */\n      add\n        /* \"#utility.yul\":1100:1153   */\n      tag_117\n      jump\t// in\n    tag_173:\n        /* \"#utility.yul\":1090:1153   */\n      swap2\n      pop\n        /* \"#utility.yul\":1046:1163   */\n      pop\n        /* \"#utility.yul\":841:1170   */\n      swap3\n      swap2\n      pop\n      pop\n      jump\t// out\n        /* \"#utility.yul\":1176:1293   */\n    tag_118:\n        /* \"#utility.yul\":1285:1286   */\n      0x00\n        /* \"#utility.yul\":1282:1283   */\n      dup1\n        /* \"#utility.yul\":1275:1287   */\n      revert\n        /* \"#utility.yul\":1299:1416   */\n    tag_119:\n        /* \"#utility.yul\":1408:1409   */\n      0x00\n        /* \"#utility.yul\":1405:1406   */\n      dup1\n        /* \"#utility.yul\":1398:1410   */\n      revert\n        /* \"#utility.yul\":1422:1524   */\n    tag_120:\n        /* \"#utility.yul\":1463:1469   */\n      0x00\n        /* \"#utility.yul\":1514:1516   */\n      0x1f\n        /* \"#utility.yul\":1510:1517   */\n      not\n        /* \"#utility.yul\":1505:1507   */\n      0x1f\n        /* \"#utility.yul\":1498:1503   */\n      dup4\n        /* \"#utility.yul\":1494:1508   */\n      add\n        /* \"#utility.yul\":1490:1518   */\n      and\n        /* \"#utility.yul\":1480:1518   */\n      swap1\n      pop\n        /* \"#utility.yul\":1422:1524   */\n      swap2\n      swap1\n      pop\n      jump\t// out\n        /* \"#utility.yul\":1530:1710   */\n    tag_121:\n        /* \"#utility.yul\":1578:1655   */\n      0x4e487b7100000000000000000000000000000000000000000000000000000000\n        /* \"#utility.yul\":1575:1576   */\n      0x00\n        /* \"#utility.yul\":1568:1656   */\n      mstore\n        /* \"#utility.yul\":1675:1679   */\n      0x41\n        /* \"#utility.yul\":1672:1673   */\n      0x04\n        /* \"#utility.yul\":1665:1680   */\n      mstore\n        /* \"#utility.yul\":1699:1703   */\n      0x24\n        /* \"#utility.yul\":1696:1697   */\n      0x00\n        /* \"#utility.yul\":1689:1704   */\n      revert\n        /* \"#utility.yul\":1716:1997   */\n    tag_122:\n        /* \"#utility.yul\":1799:1826   */\n      tag_179\n        /* \"#utility.yul\":1821:1825   */\n      dup3\n        /* \"#utility.yul\":1799:1826   */\n      tag_120\n      jump\t// in\n    tag_179:\n        /* \"#utility.yul\":1791:1797   */\n      dup2\n        /* \"#utility.yul\":1787:1827   */\n      add\n        /* \"#utility.yul\":1929:1935   */\n      dup2\n        /* \"#utility.yul\":1917:1927   */\n      dup2\n        /* \"#utility.yul\":1914:1936   */\n      lt\n        /* \"#utility.yul\":1893:1911   */\n      0xffffffffffffffff\n        /* \"#utility.yul\":1881:1891   */\n      dup3\n        /* \"#utility.yul\":1878:1912   */\n      gt\n        /* \"#utility.yul\":1875:1937   */\n      or\n        /* \"#utility.yul\":1872:1960   */\n      iszero\n      tag_180\n      jumpi\n        /* \"#utility.yul\":1940:1958   */\n      tag_181\n      tag_121\n      jump\t// in\n    tag_181:\n        /* \"#utility.yul\":1872:1960   */\n    tag_180:\n        /* \"#utility.yul\":1980:1990   */\n      dup1\n        /* \"#utility.yul\":1976:1978   */\n      0x40\n        /* \"#utility.yul\":1969:1991   */\n      mstore\n        /* \"#utility.yul\":1759:1997   */\n      pop\n        /* \"#utility.yul\":1716:1997   */\n      pop\n      pop\n      jump\t// out\n        /* \"#utility.yul\":2003:2132   */\n    tag_123:\n        /* \"#utility.yul\":2037:2043   */\n      0x00\n        /* \"#utility.yul\":2064:2084   */\n      tag_183\n      tag_111\n      jump\t// in\n    tag_183:\n        /* \"#utility.yul\":2054:2084   */\n      swap1\n      pop\n        /* \"#utility.yul\":2093:2126   */\n      tag_184\n        /* \"#utility.yul\":2121:2125   */\n      dup3\n        /* \"#utility.yul\":2113:2119   */\n      dup3\n        /* \"#utility.yul\":2093:2126   */\n      tag_122\n      jump\t// in\n    tag_184:\n        /* \"#utility.yul\":2003:2132   */\n      swap2\n      swap1\n      pop\n      jump\t// out\n        /* \"#utility.yul\":2138:2446   */\n    tag_124:\n        /* \"#utility.yul\":2200:2204   */\n      0x00\n        /* \"#utility.yul\":2290:2308   */\n      0xffffffffffffffff\n        /* \"#utility.yul\":2282:2288   */\n      dup3\n        /* \"#utility.yul\":2279:2309   */\n      gt\n        /* \"#utility.yul\":2276:2332   */\n      iszero\n      tag_186\n      jumpi\n        /* \"#utility.yul\":2312:2330   */\n      tag_187\n      tag_121\n      jump\t// in\n    tag_187:\n        /* \"#utility.yul\":2276:2332   */\n    tag_186:\n        /* \"#utility.yul\":2350:2379   */\n      tag_188\n        /* \"#utility.yul\":2372:2378   */\n      dup3\n        /* \"#utility.yul\":2350:2379   */\n      tag_120\n      jump\t// in\n    tag_188:\n        /* \"#utility.yul\":2342:2379   */\n      swap1\n      pop\n        /* \"#utility.yul\":2434:2438   */\n      0x20\n        /* \"#utility.yul\":2428:2432   */\n      dup2\n        /* \"#utility.yul\":2424:2439   */\n      add\n        /* \"#utility.yul\":2416:2439   */\n      swap1\n      pop\n        /* \"#utility.yul\":2138:2446   */\n      swap2\n      swap1\n      pop\n      jump\t// out\n        /* \"#utility.yul\":2452:2598   */\n    tag_125:\n        /* \"#utility.yul\":2549:2555   */\n      dup3\n        /* \"#utility.yul\":2544:2547   */\n      dup2\n        /* \"#utility.yul\":2539:2542   */\n      dup4\n        /* \"#utility.yul\":2526:2556   */\n      calldatacopy\n        /* \"#utility.yul\":2590:2591   */\n      0x00\n        /* \"#utility.yul\":2581:2587   */\n      dup4\n        /* \"#utility.yul\":2576:2579   */\n      dup4\n        /* \"#utility.yul\":2572:2588   */\n      add\n        /* \"#utility.yul\":2565:2592   */\n      mstore\n        /* \"#utility.yul\":2452:2598   */\n      pop\n      pop\n      pop\n      jump\t// out\n        /* \"#utility.yul\":2604:3029   */\n    tag_126:\n        /* \"#utility.yul\":2682:2687   */\n      0x00\n        /* \"#utility.yul\":2707:2773   */\n      tag_191\n        /* \"#utility.yul\":2723:2772   */\n      tag_192\n        /* \"#utility.yul\":2765:2771   */\n      dup5\n        /* \"#utility.yul\":2723:2772   */\n      tag_124\n      jump\t// in\n    tag_192:\n        /* \"#utility.yul\":2707:2773   */\n      tag_123\n      jump\t// in\n    tag_191:\n        /* \"#utility.yul\":2698:2773   */\n      swap1\n      pop\n        /* \"#utility.yul\":2796:2802   */\n      dup3\n        /* \"#utility.yul\":2789:2794   */\n      dup2\n        /* \"#utility.yul\":2782:2803   */\n      mstore\n        /* \"#utility.yul\":2834:2838   */\n      0x20\n        /* \"#utility.yul\":2827:2832   */\n      dup2\n        /* \"#utility.yul\":2823:2839   */\n      add\n        /* \"#utility.yul\":2872:2875   */\n      dup5\n        /* \"#utility.yul\":2863:2869   */\n      dup5\n        /* \"#utility.yul\":2858:2861   */\n      dup5\n        /* \"#utility.yul\":2854:2870   */\n      add\n        /* \"#utility.yul\":2851:2876   */\n      gt\n        /* \"#utility.yul\":2848:2960   */\n      iszero\n      tag_193\n      jumpi\n        /* \"#utility.yul\":2879:2958   */\n      tag_194\n      tag_119\n      jump\t// in\n    tag_194:\n        /* \"#utility.yul\":2848:2960   */\n    tag_193:\n        /* \"#utility.yul\":2969:3023   */\n      tag_195\n        /* \"#utility.yul\":3016:3022   */\n      dup5\n        /* \"#utility.yul\":3011:3014   */\n      dup3\n        /* \"#utility.yul\":3006:3009   */\n      dup6\n        /* \"#utility.yul\":2969:3023   */\n      tag_125\n      jump\t// in\n    tag_195:\n        /* \"#utility.yul\":2688:3029   */\n      pop\n        /* \"#utility.yul\":2604:3029   */\n      swap4\n      swap3\n      pop\n      pop\n      pop\n      jump\t// out\n        /* \"#utility.yul\":3049:3389   */\n    tag_127:\n        /* \"#utility.yul\":3105:3110   */\n      0x00\n        /* \"#utility.yul\":3154:3157   */\n      dup3\n        /* \"#utility.yul\":3147:3151   */\n      0x1f\n        /* \"#utility.yul\":3139:3145   */\n      dup4\n        /* \"#utility.yul\":3135:3152   */\n      add\n        /* \"#utility.yul\":3131:3158   */\n      slt\n        /* \"#utility.yul\":3121:3243   */\n      tag_197\n      jumpi\n        /* \"#utility.yul\":3162:3241   */\n      tag_198\n      tag_118\n      jump\t// in\n    tag_198:\n        /* \"#utility.yul\":3121:3243   */\n    tag_197:\n        /* \"#utility.yul\":3279:3285   */\n      dup2\n        /* \"#utility.yul\":3266:3286   */\n      calldataload\n        /* \"#utility.yul\":3304:3383   */\n      tag_199\n        /* \"#utility.yul\":3379:3382   */\n      dup5\n        /* \"#utility.yul\":3371:3377   */\n      dup3\n        /* \"#utility.yul\":3364:3368   */\n      0x20\n        /* \"#utility.yul\":3356:3362   */\n      dup7\n        /* \"#utility.yul\":3352:3369   */\n      add\n        /* \"#utility.yul\":3304:3383   */\n      tag_126\n      jump\t// in\n    tag_199:\n        /* \"#utility.yul\":3295:3383   */\n      swap2\n      pop\n        /* \"#utility.yul\":3111:3389   */\n      pop\n        /* \"#utility.yul\":3049:3389   */\n      swap3\n      swap2\n      pop\n      pop\n      jump\t// out\n        /* \"#utility.yul\":3395:3472   */\n    tag_128:\n        /* \"#utility.yul\":3432:3439   */\n      0x00\n        /* \"#utility.yul\":3461:3466   */\n      dup2\n        /* \"#utility.yul\":3450:3466   */\n      swap1\n      pop\n        /* \"#utility.yul\":3395:3472   */\n      swap2\n      swap1\n      pop\n      jump\t// out\n        /* \"#utility.yul\":3478:3600   */\n    tag_129:\n        /* \"#utility.yul\":3551:3575   */\n      tag_202\n        /* \"#utility.yul\":3569:3574   */\n      dup2\n        /* \"#utility.yul\":3551:3575   */\n      tag_128\n      jump\t// in\n    tag_202:\n        /* \"#utility.yul\":3544:3549   */\n      dup2\n        /* \"#utility.yul\":3541:3576   */\n      eq\n        /* \"#utility.yul\":3531:3594   */\n      tag_203\n      jumpi\n        /* \"#utility.yul\":3590:3591   */\n      0x00\n        /* \"#utility.yul\":3587:3588   */\n      dup1\n        /* \"#utility.yul\":3580:3592   */\n      revert\n        /* \"#utility.yul\":3531:3594   */\n    tag_203:\n        /* \"#utility.yul\":3478:3600   */\n      pop\n      jump\t// out\n        /* \"#utility.yul\":3606:3745   */\n    tag_130:\n        /* \"#utility.yul\":3652:3657   */\n      0x00\n        /* \"#utility.yul\":3690:3696   */\n      dup2\n        /* \"#utility.yul\":3677:3697   */\n      calldataload\n        /* \"#utility.yul\":3668:3697   */\n      swap1\n      pop\n        /* \"#utility.yul\":3706:3739   */\n      tag_205\n        /* \"#utility.yul\":3733:3738   */\n      dup2\n        /* \"#utility.yul\":3706:3739   */\n      tag_129\n      jump\t// in\n    tag_205:\n        /* \"#utility.yul\":3606:3745   */\n      swap3\n      swap2\n      pop\n      pop\n      jump\t// out\n        /* \"#utility.yul\":3751:6180   */\n    tag_15:\n        /* \"#utility.yul\":3933:3939   */\n      0x00\n        /* \"#utility.yul\":3941:3947   */\n      dup1\n        /* \"#utility.yul\":3949:3955   */\n      0x00\n        /* \"#utility.yul\":3957:3963   */\n      dup1\n        /* \"#utility.yul\":3965:3971   */\n      0x00\n        /* \"#utility.yul\":3973:3979   */\n      dup1\n        /* \"#utility.yul\":3981:3987   */\n      0x00\n        /* \"#utility.yul\":3989:3995   */\n      dup1\n        /* \"#utility.yul\":4038:4041   */\n      0x0100\n        /* \"#utility.yul\":4026:4035   */\n      dup10\n        /* \"#utility.yul\":4017:4024   */\n      dup12\n        /* \"#utility.yul\":4013:4036   */\n      sub\n        /* \"#utility.yul\":4009:4042   */\n      slt\n        /* \"#utility.yul\":4006:4126   */\n      iszero\n      tag_207\n      jumpi\n        /* \"#utility.yul\":4045:4124   */\n      tag_208\n      tag_112\n      jump\t// in\n    tag_208:\n        /* \"#utility.yul\":4006:4126   */\n    tag_207:\n        /* \"#utility.yul\":4165:4166   */\n      0x00\n        /* \"#utility.yul\":4190:4243   */\n      tag_209\n        /* \"#utility.yul\":4235:4242   */\n      dup12\n        /* \"#utility.yul\":4226:4232   */\n      dup3\n        /* \"#utility.yul\":4215:4224   */\n      dup13\n        /* \"#utility.yul\":4211:4233   */\n      add\n        /* \"#utility.yul\":4190:4243   */\n      tag_117\n      jump\t// in\n    tag_209:\n        /* \"#utility.yul\":4180:4243   */\n      swap9\n      pop\n        /* \"#utility.yul\":4136:4253   */\n      pop\n        /* \"#utility.yul\":4320:4322   */\n      0x20\n        /* \"#utility.yul\":4309:4318   */\n      dup10\n        /* \"#utility.yul\":4305:4323   */\n      add\n        /* \"#utility.yul\":4292:4324   */\n      calldataload\n        /* \"#utility.yul\":4351:4369   */\n      0xffffffffffffffff\n        /* \"#utility.yul\":4343:4349   */\n      dup2\n        /* \"#utility.yul\":4340:4370   */\n      gt\n        /* \"#utility.yul\":4337:4454   */\n      iszero\n      tag_210\n      jumpi\n        /* \"#utility.yul\":4373:4452   */\n      tag_211\n      tag_113\n      jump\t// in\n    tag_211:\n        /* \"#utility.yul\":4337:4454   */\n    tag_210:\n        /* \"#utility.yul\":4478:4541   */\n      tag_212\n        /* \"#utility.yul\":4533:4540   */\n      dup12\n        /* \"#utility.yul\":4524:4530   */\n      dup3\n        /* \"#utility.yul\":4513:4522   */\n      dup13\n        /* \"#utility.yul\":4509:4531   */\n      add\n        /* \"#utility.yul\":4478:4541   */\n      tag_127\n      jump\t// in\n    tag_212:\n        /* \"#utility.yul\":4468:4541   */\n      swap8\n      pop\n        /* \"#utility.yul\":4263:4551   */\n      pop\n        /* \"#utility.yul\":4590:4592   */\n      0x40\n        /* \"#utility.yul\":4616:4669   */\n      tag_213\n        /* \"#utility.yul\":4661:4668   */\n      dup12\n        /* \"#utility.yul\":4652:4658   */\n      dup3\n        /* \"#utility.yul\":4641:4650   */\n      dup13\n        /* \"#utility.yul\":4637:4659   */\n      add\n        /* \"#utility.yul\":4616:4669   */\n      tag_130\n      jump\t// in\n    tag_213:\n        /* \"#utility.yul\":4606:4669   */\n      swap7\n      pop\n        /* \"#utility.yul\":4561:4679   */\n      pop\n        /* \"#utility.yul\":4746:4748   */\n      0x60\n        /* \"#utility.yul\":4735:4744   */\n      dup10\n        /* \"#utility.yul\":4731:4749   */\n      add\n        /* \"#utility.yul\":4718:4750   */\n      calldataload\n        /* \"#utility.yul\":4777:4795   */\n      0xffffffffffffffff\n        /* \"#utility.yul\":4769:4775   */\n      dup2\n        /* \"#utility.yul\":4766:4796   */\n      gt\n        /* \"#utility.yul\":4763:4880   */\n      iszero\n      tag_214\n      jumpi\n        /* \"#utility.yul\":4799:4878   */\n      tag_215\n      tag_113\n      jump\t// in\n    tag_215:\n        /* \"#utility.yul\":4763:4880   */\n    tag_214:\n        /* \"#utility.yul\":4904:4967   */\n      tag_216\n        /* \"#utility.yul\":4959:4966   */\n      dup12\n        /* \"#utility.yul\":4950:4956   */\n      dup3\n        /* \"#utility.yul\":4939:4948   */\n      dup13\n        /* \"#utility.yul\":4935:4957   */\n      add\n        /* \"#utility.yul\":4904:4967   */\n      tag_127\n      jump\t// in\n    tag_216:\n        /* \"#utility.yul\":4894:4967   */\n      swap6\n      pop\n        /* \"#utility.yul\":4689:4977   */\n      pop\n        /* \"#utility.yul\":5044:5047   */\n      0x80\n        /* \"#utility.yul\":5033:5042   */\n      dup10\n        /* \"#utility.yul\":5029:5048   */\n      add\n        /* \"#utility.yul\":5016:5049   */\n      calldataload\n        /* \"#utility.yul\":5076:5094   */\n      0xffffffffffffffff\n        /* \"#utility.yul\":5068:5074   */\n      dup2\n        /* \"#utility.yul\":5065:5095   */\n      gt\n        /* \"#utility.yul\":5062:5179   */\n      iszero\n      tag_217\n      jumpi\n        /* \"#utility.yul\":5098:5177   */\n      tag_218\n      tag_113\n      jump\t// in\n    tag_218:\n        /* \"#utility.yul\":5062:5179   */\n    tag_217:\n        /* \"#utility.yul\":5203:5266   */\n      tag_219\n        /* \"#utility.yul\":5258:5265   */\n      dup12\n        /* \"#utility.yul\":5249:5255   */\n      dup3\n        /* \"#utility.yul\":5238:5247   */\n      dup13\n        /* \"#utility.yul\":5234:5256   */\n      add\n        /* \"#utility.yul\":5203:5266   */\n      tag_127\n      jump\t// in\n    tag_219:\n        /* \"#utility.yul\":5193:5266   */\n      swap5\n      pop\n        /* \"#utility.yul\":4987:5276   */\n      pop\n        /* \"#utility.yul\":5343:5346   */\n      0xa0\n        /* \"#utility.yul\":5332:5341   */\n      dup10\n        /* \"#utility.yul\":5328:5347   */\n      add\n        /* \"#utility.yul\":5315:5348   */\n      calldataload\n        /* \"#utility.yul\":5375:5393   */\n      0xffffffffffffffff\n        /* \"#utility.yul\":5367:5373   */\n      dup2\n        /* \"#utility.yul\":5364:5394   */\n      gt\n        /* \"#utility.yul\":5361:5478   */\n      iszero\n      tag_220\n      jumpi\n        /* \"#utility.yul\":5397:5476   */\n      tag_221\n      tag_113\n      jump\t// in\n    tag_221:\n        /* \"#utility.yul\":5361:5478   */\n    tag_220:\n        /* \"#utility.yul\":5502:5565   */\n      tag_222\n        /* \"#utility.yul\":5557:5564   */\n      dup12\n        /* \"#utility.yul\":5548:5554   */\n      dup3\n        /* \"#utility.yul\":5537:5546   */\n      dup13\n        /* \"#utility.yul\":5533:5555   */\n      add\n        /* \"#utility.yul\":5502:5565   */\n      tag_127\n      jump\t// in\n    tag_222:\n        /* \"#utility.yul\":5492:5565   */\n      swap4\n      pop\n        /* \"#utility.yul\":5286:5575   */\n      pop\n        /* \"#utility.yul\":5642:5645   */\n      0xc0\n        /* \"#utility.yul\":5631:5640   */\n      dup10\n        /* \"#utility.yul\":5627:5646   */\n      add\n        /* \"#utility.yul\":5614:5647   */\n      calldataload\n        /* \"#utility.yul\":5674:5692   */\n      0xffffffffffffffff\n        /* \"#utility.yul\":5666:5672   */\n      dup2\n        /* \"#utility.yul\":5663:5693   */\n      gt\n        /* \"#utility.yul\":5660:5777   */\n      iszero\n      tag_223\n      jumpi\n        /* \"#utility.yul\":5696:5775   */\n      tag_224\n      tag_113\n      jump\t// in\n    tag_224:\n        /* \"#utility.yul\":5660:5777   */\n    tag_223:\n        /* \"#utility.yul\":5801:5864   */\n      tag_225\n        /* \"#utility.yul\":5856:5863   */\n      dup12\n        /* \"#utility.yul\":5847:5853   */\n      dup3\n        /* \"#utility.yul\":5836:5845   */\n      dup13\n        /* \"#utility.yul\":5832:5854   */\n      add\n        /* \"#utility.yul\":5801:5864   */\n      tag_127\n      jump\t// in\n    tag_225:\n        /* \"#utility.yul\":5791:5864   */\n      swap3\n      pop\n        /* \"#utility.yul\":5585:5874   */\n      pop\n        /* \"#utility.yul\":5941:5944   */\n      0xe0\n        /* \"#utility.yul\":5930:5939   */\n      dup10\n        /* \"#utility.yul\":5926:5945   */\n      add\n        /* \"#utility.yul\":5913:5946   */\n      calldataload\n        /* \"#utility.yul\":5973:5991   */\n      0xffffffffffffffff\n        /* \"#utility.yul\":5965:5971   */\n      dup2\n        /* \"#utility.yul\":5962:5992   */\n      gt\n        /* \"#utility.yul\":5959:6076   */\n      iszero\n      tag_226\n      jumpi\n        /* \"#utility.yul\":5995:6074   */\n      tag_227\n      tag_113\n      jump\t// in\n    tag_227:\n        /* \"#utility.yul\":5959:6076   */\n    tag_226:\n        /* \"#utility.yul\":6100:6163   */\n      tag_228\n        /* \"#utility.yul\":6155:6162   */\n      dup12\n        /* \"#utility.yul\":6146:6152   */\n      dup3\n        /* \"#utility.yul\":6135:6144   */\n      dup13\n        /* \"#utility.yul\":6131:6153   */\n      add\n        /* \"#utility.yul\":6100:6163   */\n      tag_127\n      jump\t// in\n    tag_228:\n        /* \"#utility.yul\":6090:6163   */\n      swap2\n      pop\n        /* \"#utility.yul\":5884:6173   */\n      pop\n        /* \"#utility.yul\":3751:6180   */\n      swap3\n      swap6\n      swap9\n      pop\n      swap3\n      swap6\n      swap9\n      swap1\n      swap4\n      swap7\n      pop\n      jump\t// out\n        /* \"#utility.yul\":6186:6294   */\n    tag_131:\n        /* \"#utility.yul\":6263:6287   */\n      tag_230\n        /* \"#utility.yul\":6281:6286   */\n      dup2\n        /* \"#utility.yul\":6263:6287   */\n      tag_115\n      jump\t// in\n    tag_230:\n        /* \"#utility.yul\":6258:6261   */\n      dup3\n        /* \"#utility.yul\":6251:6288   */\n      mstore\n        /* \"#utility.yul\":6186:6294   */\n      pop\n      pop\n      jump\t// out\n        /* \"#utility.yul\":6300:6399   */\n    tag_132:\n        /* \"#utility.yul\":6352:6358   */\n      0x00\n        /* \"#utility.yul\":6386:6391   */\n      dup2\n        /* \"#utility.yul\":6380:6392   */\n      mload\n        /* \"#utility.yul\":6370:6392   */\n      swap1\n      pop\n        /* \"#utility.yul\":6300:6399   */\n      swap2\n      swap1\n      pop\n      jump\t// out\n        /* \"#utility.yul\":6405:6564   */\n    tag_133:\n        /* \"#utility.yul\":6479:6490   */\n      0x00\n        /* \"#utility.yul\":6513:6519   */\n      dup3\n        /* \"#utility.yul\":6508:6511   */\n      dup3\n        /* \"#utility.yul\":6501:6520   */\n      mstore\n        /* \"#utility.yul\":6553:6557   */\n      0x20\n        /* \"#utility.yul\":6548:6551   */\n      dup3\n        /* \"#utility.yul\":6544:6558   */\n      add\n        /* \"#utility.yul\":6529:6558   */\n      swap1\n      pop\n        /* \"#utility.yul\":6405:6564   */\n      swap3\n      swap2\n      pop\n      pop\n      jump\t// out\n        /* \"#utility.yul\":6570:6816   */\n    tag_134:\n        /* \"#utility.yul\":6651:6652   */\n      0x00\n        /* \"#utility.yul\":6661:6774   */\n    tag_234:\n        /* \"#utility.yul\":6675:6681   */\n      dup4\n        /* \"#utility.yul\":6672:6673   */\n      dup2\n        /* \"#utility.yul\":6669:6682   */\n      lt\n        /* \"#utility.yul\":6661:6774   */\n      iszero\n      tag_236\n      jumpi\n        /* \"#utility.yul\":6760:6761   */\n      dup1\n        /* \"#utility.yul\":6755:6758   */\n      dup3\n        /* \"#utility.yul\":6751:6762   */\n      add\n        /* \"#utility.yul\":6745:6763   */\n      mload\n        /* \"#utility.yul\":6741:6742   */\n      dup2\n        /* \"#utility.yul\":6736:6739   */\n      dup5\n        /* \"#utility.yul\":6732:6743   */\n      add\n        /* \"#utility.yul\":6725:6764   */\n      mstore\n        /* \"#utility.yul\":6697:6699   */\n      0x20\n        /* \"#utility.yul\":6694:6695   */\n      dup2\n        /* \"#utility.yul\":6690:6700   */\n      add\n        /* \"#utility.yul\":6685:6700   */\n      swap1\n      pop\n        /* \"#utility.yul\":6661:6774   */\n      jump(tag_234)\n    tag_236:\n        /* \"#utility.yul\":6808:6809   */\n      0x00\n        /* \"#utility.yul\":6799:6805   */\n      dup5\n        /* \"#utility.yul\":6794:6797   */\n      dup5\n        /* \"#utility.yul\":6790:6806   */\n      add\n        /* \"#utility.yul\":6783:6810   */\n      mstore\n        /* \"#utility.yul\":6632:6816   */\n      pop\n        /* \"#utility.yul\":6570:6816   */\n      pop\n      pop\n      pop\n      jump\t// out\n        /* \"#utility.yul\":6822:7179   */\n    tag_135:\n        /* \"#utility.yul\":6900:6903   */\n      0x00\n        /* \"#utility.yul\":6928:6967   */\n      tag_238\n        /* \"#utility.yul\":6961:6966   */\n      dup3\n        /* \"#utility.yul\":6928:6967   */\n      tag_132\n      jump\t// in\n    tag_238:\n        /* \"#utility.yul\":6983:7044   */\n      tag_239\n        /* \"#utility.yul\":7037:7043   */\n      dup2\n        /* \"#utility.yul\":7032:7035   */\n      dup6\n        /* \"#utility.yul\":6983:7044   */\n      tag_133\n      jump\t// in\n    tag_239:\n        /* \"#utility.yul\":6976:7044   */\n      swap4\n      pop\n        /* \"#utility.yul\":7053:7118   */\n      tag_240\n        /* \"#utility.yul\":7111:7117   */\n      dup2\n        /* \"#utility.yul\":7106:7109   */\n      dup6\n        /* \"#utility.yul\":7099:7103   */\n      0x20\n        /* \"#utility.yul\":7092:7097   */\n      dup7\n        /* \"#utility.yul\":7088:7104   */\n      add\n        /* \"#utility.yul\":7053:7118   */\n      tag_134\n      jump\t// in\n    tag_240:\n        /* \"#utility.yul\":7143:7172   */\n      tag_241\n        /* \"#utility.yul\":7165:7171   */\n      dup2\n        /* \"#utility.yul\":7143:7172   */\n      tag_120\n      jump\t// in\n    tag_241:\n        /* \"#utility.yul\":7138:7141   */\n      dup5\n        /* \"#utility.yul\":7134:7173   */\n      add\n        /* \"#utility.yul\":7127:7173   */\n      swap2\n      pop\n        /* \"#utility.yul\":6904:7179   */\n      pop\n        /* \"#utility.yul\":6822:7179   */\n      swap3\n      swap2\n      pop\n      pop\n      jump\t// out\n        /* \"#utility.yul\":7185:7293   */\n    tag_136:\n        /* \"#utility.yul\":7262:7286   */\n      tag_243\n        /* \"#utility.yul\":7280:7285   */\n      dup2\n        /* \"#utility.yul\":7262:7286   */\n      tag_128\n      jump\t// in\n    tag_243:\n        /* \"#utility.yul\":7257:7260   */\n      dup3\n        /* \"#utility.yul\":7250:7287   */\n      mstore\n        /* \"#utility.yul\":7185:7293   */\n      pop\n      pop\n      jump\t// out\n        /* \"#utility.yul\":7363:9432   */\n    tag_137:\n        /* \"#utility.yul\":7488:7491   */\n      0x00\n        /* \"#utility.yul\":7524:7530   */\n      0x0100\n        /* \"#utility.yul\":7519:7522   */\n      dup4\n        /* \"#utility.yul\":7515:7531   */\n      add\n        /* \"#utility.yul\":7623:7627   */\n      0x00\n        /* \"#utility.yul\":7616:7621   */\n      dup4\n        /* \"#utility.yul\":7612:7628   */\n      add\n        /* \"#utility.yul\":7606:7629   */\n      mload\n        /* \"#utility.yul\":7642:7705   */\n      tag_245\n        /* \"#utility.yul\":7699:7703   */\n      0x00\n        /* \"#utility.yul\":7694:7697   */\n      dup7\n        /* \"#utility.yul\":7690:7704   */\n      add\n        /* \"#utility.yul\":7676:7688   */\n      dup3\n        /* \"#utility.yul\":7642:7705   */\n      tag_131\n      jump\t// in\n    tag_245:\n        /* \"#utility.yul\":7541:7715   */\n      pop\n        /* \"#utility.yul\":7805:7809   */\n      0x20\n        /* \"#utility.yul\":7798:7803   */\n      dup4\n        /* \"#utility.yul\":7794:7810   */\n      add\n        /* \"#utility.yul\":7788:7811   */\n      mload\n        /* \"#utility.yul\":7858:7861   */\n      dup5\n        /* \"#utility.yul\":7852:7856   */\n      dup3\n        /* \"#utility.yul\":7848:7862   */\n      sub\n        /* \"#utility.yul\":7841:7845   */\n      0x20\n        /* \"#utility.yul\":7836:7839   */\n      dup7\n        /* \"#utility.yul\":7832:7846   */\n      add\n        /* \"#utility.yul\":7825:7863   */\n      mstore\n        /* \"#utility.yul\":7884:7957   */\n      tag_246\n        /* \"#utility.yul\":7952:7956   */\n      dup3\n        /* \"#utility.yul\":7938:7950   */\n      dup3\n        /* \"#utility.yul\":7884:7957   */\n      tag_135\n      jump\t// in\n    tag_246:\n        /* \"#utility.yul\":7876:7957   */\n      swap2\n      pop\n        /* \"#utility.yul\":7725:7968   */\n      pop\n        /* \"#utility.yul\":8050:8054   */\n      0x40\n        /* \"#utility.yul\":8043:8048   */\n      dup4\n        /* \"#utility.yul\":8039:8055   */\n      add\n        /* \"#utility.yul\":8033:8056   */\n      mload\n        /* \"#utility.yul\":8069:8132   */\n      tag_247\n        /* \"#utility.yul\":8126:8130   */\n      0x40\n        /* \"#utility.yul\":8121:8124   */\n      dup7\n        /* \"#utility.yul\":8117:8131   */\n      add\n        /* \"#utility.yul\":8103:8115   */\n      dup3\n        /* \"#utility.yul\":8069:8132   */\n      tag_136\n      jump\t// in\n    tag_247:\n        /* \"#utility.yul\":7978:8142   */\n      pop\n        /* \"#utility.yul\":8233:8237   */\n      0x60\n        /* \"#utility.yul\":8226:8231   */\n      dup4\n        /* \"#utility.yul\":8222:8238   */\n      add\n        /* \"#utility.yul\":8216:8239   */\n      mload\n        /* \"#utility.yul\":8286:8289   */\n      dup5\n        /* \"#utility.yul\":8280:8284   */\n      dup3\n        /* \"#utility.yul\":8276:8290   */\n      sub\n        /* \"#utility.yul\":8269:8273   */\n      0x60\n        /* \"#utility.yul\":8264:8267   */\n      dup7\n        /* \"#utility.yul\":8260:8274   */\n      add\n        /* \"#utility.yul\":8253:8291   */\n      mstore\n        /* \"#utility.yul\":8312:8385   */\n      tag_248\n        /* \"#utility.yul\":8380:8384   */\n      dup3\n        /* \"#utility.yul\":8366:8378   */\n      dup3\n        /* \"#utility.yul\":8312:8385   */\n      tag_135\n      jump\t// in\n    tag_248:\n        /* \"#utility.yul\":8304:8385   */\n      swap2\n      pop\n        /* \"#utility.yul\":8152:8396   */\n      pop\n        /* \"#utility.yul\":8487:8491   */\n      0x80\n        /* \"#utility.yul\":8480:8485   */\n      dup4\n        /* \"#utility.yul\":8476:8492   */\n      add\n        /* \"#utility.yul\":8470:8493   */\n      mload\n        /* \"#utility.yul\":8540:8543   */\n      dup5\n        /* \"#utility.yul\":8534:8538   */\n      dup3\n        /* \"#utility.yul\":8530:8544   */\n      sub\n        /* \"#utility.yul\":8523:8527   */\n      0x80\n        /* \"#utility.yul\":8518:8521   */\n      dup7\n        /* \"#utility.yul\":8514:8528   */\n      add\n        /* \"#utility.yul\":8507:8545   */\n      mstore\n        /* \"#utility.yul\":8566:8639   */\n      tag_249\n        /* \"#utility.yul\":8634:8638   */\n      dup3\n        /* \"#utility.yul\":8620:8632   */\n      dup3\n        /* \"#utility.yul\":8566:8639   */\n      tag_135\n      jump\t// in\n    tag_249:\n        /* \"#utility.yul\":8558:8639   */\n      swap2\n      pop\n        /* \"#utility.yul\":8406:8650   */\n      pop\n        /* \"#utility.yul\":8742:8746   */\n      0xa0\n        /* \"#utility.yul\":8735:8740   */\n      dup4\n        /* \"#utility.yul\":8731:8747   */\n      add\n        /* \"#utility.yul\":8725:8748   */\n      mload\n        /* \"#utility.yul\":8795:8798   */\n      dup5\n        /* \"#utility.yul\":8789:8793   */\n      dup3\n        /* \"#utility.yul\":8785:8799   */\n      sub\n        /* \"#utility.yul\":8778:8782   */\n      0xa0\n        /* \"#utility.yul\":8773:8776   */\n      dup7\n        /* \"#utility.yul\":8769:8783   */\n      add\n        /* \"#utility.yul\":8762:8800   */\n      mstore\n        /* \"#utility.yul\":8821:8894   */\n      tag_250\n        /* \"#utility.yul\":8889:8893   */\n      dup3\n        /* \"#utility.yul\":8875:8887   */\n      dup3\n        /* \"#utility.yul\":8821:8894   */\n      tag_135\n      jump\t// in\n    tag_250:\n        /* \"#utility.yul\":8813:8894   */\n      swap2\n      pop\n        /* \"#utility.yul\":8660:8905   */\n      pop\n        /* \"#utility.yul\":8992:8996   */\n      0xc0\n        /* \"#utility.yul\":8985:8990   */\n      dup4\n        /* \"#utility.yul\":8981:8997   */\n      add\n        /* \"#utility.yul\":8975:8998   */\n      mload\n        /* \"#utility.yul\":9045:9048   */\n      dup5\n        /* \"#utility.yul\":9039:9043   */\n      dup3\n        /* \"#utility.yul\":9035:9049   */\n      sub\n        /* \"#utility.yul\":9028:9032   */\n      0xc0\n        /* \"#utility.yul\":9023:9026   */\n      dup7\n        /* \"#utility.yul\":9019:9033   */\n      add\n        /* \"#utility.yul\":9012:9050   */\n      mstore\n        /* \"#utility.yul\":9071:9144   */\n      tag_251\n        /* \"#utility.yul\":9139:9143   */\n      dup3\n        /* \"#utility.yul\":9125:9137   */\n      dup3\n        /* \"#utility.yul\":9071:9144   */\n      tag_135\n      jump\t// in\n    tag_251:\n        /* \"#utility.yul\":9063:9144   */\n      swap2\n      pop\n        /* \"#utility.yul\":8915:9155   */\n      pop\n        /* \"#utility.yul\":9242:9246   */\n      0xe0\n        /* \"#utility.yul\":9235:9240   */\n      dup4\n        /* \"#utility.yul\":9231:9247   */\n      add\n        /* \"#utility.yul\":9225:9248   */\n      mload\n        /* \"#utility.yul\":9295:9298   */\n      dup5\n        /* \"#utility.yul\":9289:9293   */\n      dup3\n        /* \"#utility.yul\":9285:9299   */\n      sub\n        /* \"#utility.yul\":9278:9282   */\n      0xe0\n        /* \"#utility.yul\":9273:9276   */\n      dup7\n        /* \"#utility.yul\":9269:9283   */\n      add\n        /* \"#utility.yul\":9262:9300   */\n      mstore\n        /* \"#utility.yul\":9321:9394   */\n      tag_252\n        /* \"#utility.yul\":9389:9393   */\n      dup3\n        /* \"#utility.yul\":9375:9387   */\n      dup3\n        /* \"#utility.yul\":9321:9394   */\n      tag_135\n      jump\t// in\n    tag_252:\n        /* \"#utility.yul\":9313:9394   */\n      swap2\n      pop\n        /* \"#utility.yul\":9165:9405   */\n      pop\n        /* \"#utility.yul\":9422:9426   */\n      dup1\n        /* \"#utility.yul\":9415:9426   */\n      swap2\n      pop\n        /* \"#utility.yul\":7493:9432   */\n      pop\n        /* \"#utility.yul\":7363:9432   */\n      swap3\n      swap2\n      pop\n      pop\n      jump\t// out\n        /* \"#utility.yul\":9438:9823   */\n    tag_21:\n        /* \"#utility.yul\":9587:9591   */\n      0x00\n        /* \"#utility.yul\":9625:9627   */\n      0x20\n        /* \"#utility.yul\":9614:9623   */\n      dup3\n        /* \"#utility.yul\":9610:9628   */\n      add\n        /* \"#utility.yul\":9602:9628   */\n      swap1\n      pop\n        /* \"#utility.yul\":9674:9683   */\n      dup2\n        /* \"#utility.yul\":9668:9672   */\n      dup2\n        /* \"#utility.yul\":9664:9684   */\n      sub\n        /* \"#utility.yul\":9660:9661   */\n      0x00\n        /* \"#utility.yul\":9649:9658   */\n      dup4\n        /* \"#utility.yul\":9645:9662   */\n      add\n        /* \"#utility.yul\":9638:9685   */\n      mstore\n        /* \"#utility.yul\":9702:9816   */\n      tag_254\n        /* \"#utility.yul\":9811:9815   */\n      dup2\n        /* \"#utility.yul\":9802:9808   */\n      dup5\n        /* \"#utility.yul\":9702:9816   */\n      tag_137\n      jump\t// in\n    tag_254:\n        /* \"#utility.yul\":9694:9816   */\n      swap1\n      pop\n        /* \"#utility.yul\":9438:9823   */\n      swap3\n      swap2\n      pop\n      pop\n      jump\t// out\n        /* \"#utility.yul\":9829:9947   */\n    tag_138:\n        /* \"#utility.yul\":9916:9940   */\n      tag_256\n        /* \"#utility.yul\":9934:9939   */\n      dup2\n        /* \"#utility.yul\":9916:9940   */\n      tag_115\n      jump\t// in\n    tag_256:\n        /* \"#utility.yul\":9911:9914   */\n      dup3\n        /* \"#utility.yul\":9904:9941   */\n      mstore\n        /* \"#utility.yul\":9829:9947   */\n      pop\n      pop\n      jump\t// out\n        /* \"#utility.yul\":9953:10175   */\n    tag_34:\n        /* \"#utility.yul\":10046:10050   */\n      0x00\n        /* \"#utility.yul\":10084:10086   */\n      0x20\n        /* \"#utility.yul\":10073:10082   */\n      dup3\n        /* \"#utility.yul\":10069:10087   */\n      add\n        /* \"#utility.yul\":10061:10087   */\n      swap1\n      pop\n        /* \"#utility.yul\":10097:10168   */\n      tag_258\n        /* \"#utility.yul\":10165:10166   */\n      0x00\n        /* \"#utility.yul\":10154:10163   */\n      dup4\n        /* \"#utility.yul\":10150:10167   */\n      add\n        /* \"#utility.yul\":10141:10147   */\n      dup5\n        /* \"#utility.yul\":10097:10168   */\n      tag_138\n      jump\t// in\n    tag_258:\n        /* \"#utility.yul\":9953:10175   */\n      swap3\n      swap2\n      pop\n      pop\n      jump\t// out\n        /* \"#utility.yul\":10181:10271   */\n    tag_139:\n        /* \"#utility.yul\":10215:10222   */\n      0x00\n        /* \"#utility.yul\":10258:10263   */\n      dup2\n        /* \"#utility.yul\":10251:10264   */\n      iszero\n        /* \"#utility.yul\":10244:10265   */\n      iszero\n        /* \"#utility.yul\":10233:10265   */\n      swap1\n      pop\n        /* \"#utility.yul\":10181:10271   */\n      swap2\n      swap1\n      pop\n      jump\t// out\n        /* \"#utility.yul\":10277:10393   */\n    tag_140:\n        /* \"#utility.yul\":10347:10368   */\n      tag_261\n        /* \"#utility.yul\":10362:10367   */\n      dup2\n        /* \"#utility.yul\":10347:10368   */\n      tag_139\n      jump\t// in\n    tag_261:\n        /* \"#utility.yul\":10340:10345   */\n      dup2\n        /* \"#utility.yul\":10337:10369   */\n      eq\n        /* \"#utility.yul\":10327:10387   */\n      tag_262\n      jumpi\n        /* \"#utility.yul\":10383:10384   */\n      0x00\n        /* \"#utility.yul\":10380:10381   */\n      dup1\n        /* \"#utility.yul\":10373:10385   */\n      revert\n        /* \"#utility.yul\":10327:10387   */\n    tag_262:\n        /* \"#utility.yul\":10277:10393   */\n      pop\n      jump\t// out\n        /* \"#utility.yul\":10399:10536   */\n    tag_141:\n        /* \"#utility.yul\":10453:10458   */\n      0x00\n        /* \"#utility.yul\":10484:10490   */\n      dup2\n        /* \"#utility.yul\":10478:10491   */\n      mload\n        /* \"#utility.yul\":10469:10491   */\n      swap1\n      pop\n        /* \"#utility.yul\":10500:10530   */\n      tag_264\n        /* \"#utility.yul\":10524:10529   */\n      dup2\n        /* \"#utility.yul\":10500:10530   */\n      tag_140\n      jump\t// in\n    tag_264:\n        /* \"#utility.yul\":10399:10536   */\n      swap3\n      swap2\n      pop\n      pop\n      jump\t// out\n        /* \"#utility.yul\":10542:10887   */\n    tag_38:\n        /* \"#utility.yul\":10609:10615   */\n      0x00\n        /* \"#utility.yul\":10658:10660   */\n      0x20\n        /* \"#utility.yul\":10646:10655   */\n      dup3\n        /* \"#utility.yul\":10637:10644   */\n      dup5\n        /* \"#utility.yul\":10633:10656   */\n      sub\n        /* \"#utility.yul\":10629:10661   */\n      slt\n        /* \"#utility.yul\":10626:10745   */\n      iszero\n      tag_266\n      jumpi\n        /* \"#utility.yul\":10664:10743   */\n      tag_267\n      tag_112\n      jump\t// in\n    tag_267:\n        /* \"#utility.yul\":10626:10745   */\n    tag_266:\n        /* \"#utility.yul\":10784:10785   */\n      0x00\n        /* \"#utility.yul\":10809:10870   */\n      tag_268\n        /* \"#utility.yul\":10862:10869   */\n      dup5\n        /* \"#utility.yul\":10853:10859   */\n      dup3\n        /* \"#utility.yul\":10842:10851   */\n      dup6\n        /* \"#utility.yul\":10838:10860   */\n      add\n        /* \"#utility.yul\":10809:10870   */\n      tag_141\n      jump\t// in\n    tag_268:\n        /* \"#utility.yul\":10799:10870   */\n      swap2\n      pop\n        /* \"#utility.yul\":10755:10880   */\n      pop\n        /* \"#utility.yul\":10542:10887   */\n      swap3\n      swap2\n      pop\n      pop\n      jump\t// out\n        /* \"#utility.yul\":10893:11073   */\n    tag_142:\n        /* \"#utility.yul\":10941:11018   */\n      0x4e487b7100000000000000000000000000000000000000000000000000000000\n        /* \"#utility.yul\":10938:10939   */\n      0x00\n        /* \"#utility.yul\":10931:11019   */\n      mstore\n        /* \"#utility.yul\":11038:11042   */\n      0x22\n        /* \"#utility.yul\":11035:11036   */\n      0x04\n        /* \"#utility.yul\":11028:11043   */\n      mstore\n        /* \"#utility.yul\":11062:11066   */\n      0x24\n        /* \"#utility.yul\":11059:11060   */\n      0x00\n        /* \"#utility.yul\":11052:11067   */\n      revert\n        /* \"#utility.yul\":11079:11399   */\n    tag_72:\n        /* \"#utility.yul\":11123:11129   */\n      0x00\n        /* \"#utility.yul\":11160:11161   */\n      0x02\n        /* \"#utility.yul\":11154:11158   */\n      dup3\n        /* \"#utility.yul\":11150:11162   */\n      div\n        /* \"#utility.yul\":11140:11162   */\n      swap1\n      pop\n        /* \"#utility.yul\":11207:11208   */\n      0x01\n        /* \"#utility.yul\":11201:11205   */\n      dup3\n        /* \"#utility.yul\":11197:11209   */\n      and\n        /* \"#utility.yul\":11228:11246   */\n      dup1\n        /* \"#utility.yul\":11218:11299   */\n      tag_271\n      jumpi\n        /* \"#utility.yul\":11284:11288   */\n      0x7f\n        /* \"#utility.yul\":11276:11282   */\n      dup3\n        /* \"#utility.yul\":11272:11289   */\n      and\n        /* \"#utility.yul\":11262:11289   */\n      swap2\n      pop\n        /* \"#utility.yul\":11218:11299   */\n    tag_271:\n        /* \"#utility.yul\":11346:11348   */\n      0x20\n        /* \"#utility.yul\":11338:11344   */\n      dup3\n        /* \"#utility.yul\":11335:11349   */\n      lt\n        /* \"#utility.yul\":11315:11333   */\n      dup2\n        /* \"#utility.yul\":11312:11350   */\n      sub\n        /* \"#utility.yul\":11309:11393   */\n      tag_272\n      jumpi\n        /* \"#utility.yul\":11365:11383   */\n      tag_273\n      tag_142\n      jump\t// in\n    tag_273:\n        /* \"#utility.yul\":11309:11393   */\n    tag_272:\n        /* \"#utility.yul\":11130:11399   */\n      pop\n        /* \"#utility.yul\":11079:11399   */\n      swap2\n      swap1\n      pop\n      jump\t// out\n        /* \"#utility.yul\":11405:11546   */\n    tag_143:\n        /* \"#utility.yul\":11454:11458   */\n      0x00\n        /* \"#utility.yul\":11477:11480   */\n      dup2\n        /* \"#utility.yul\":11469:11480   */\n      swap1\n      pop\n        /* \"#utility.yul\":11500:11503   */\n      dup2\n        /* \"#utility.yul\":11497:11498   */\n      0x00\n        /* \"#utility.yul\":11490:11504   */\n      mstore\n        /* \"#utility.yul\":11534:11538   */\n      0x20\n        /* \"#utility.yul\":11531:11532   */\n      0x00\n        /* \"#utility.yul\":11521:11539   */\n      keccak256\n        /* \"#utility.yul\":11513:11539   */\n      swap1\n      pop\n        /* \"#utility.yul\":11405:11546   */\n      swap2\n      swap1\n      pop\n      jump\t// out\n        /* \"#utility.yul\":11552:11645   */\n    tag_144:\n        /* \"#utility.yul\":11589:11595   */\n      0x00\n        /* \"#utility.yul\":11636:11638   */\n      0x20\n        /* \"#utility.yul\":11631:11633   */\n      0x1f\n        /* \"#utility.yul\":11624:11629   */\n      dup4\n        /* \"#utility.yul\":11620:11634   */\n      add\n        /* \"#utility.yul\":11616:11639   */\n      div\n        /* \"#utility.yul\":11606:11639   */\n      swap1\n      pop\n        /* \"#utility.yul\":11552:11645   */\n      swap2\n      swap1\n      pop\n      jump\t// out\n        /* \"#utility.yul\":11651:11758   */\n    tag_145:\n        /* \"#utility.yul\":11695:11703   */\n      0x00\n        /* \"#utility.yul\":11745:11750   */\n      dup3\n        /* \"#utility.yul\":11739:11743   */\n      dup3\n        /* \"#utility.yul\":11735:11751   */\n      shl\n        /* \"#utility.yul\":11714:11751   */\n      swap1\n      pop\n        /* \"#utility.yul\":11651:11758   */\n      swap3\n      swap2\n      pop\n      pop\n      jump\t// out\n        /* \"#utility.yul\":11764:12157   */\n    tag_146:\n        /* \"#utility.yul\":11833:11839   */\n      0x00\n        /* \"#utility.yul\":11883:11884   */\n      0x08\n        /* \"#utility.yul\":11871:11881   */\n      dup4\n        /* \"#utility.yul\":11867:11885   */\n      mul\n        /* \"#utility.yul\":11906:12003   */\n      tag_278\n        /* \"#utility.yul\":11936:12002   */\n      0xffffffffffffffffffffffffffffffffffffffffffffffffffffffffffffffff\n        /* \"#utility.yul\":11925:11934   */\n      dup3\n        /* \"#utility.yul\":11906:12003   */\n      tag_145\n      jump\t// in\n    tag_278:\n        /* \"#utility.yul\":12024:12063   */\n      tag_279\n        /* \"#utility.yul\":12054:12062   */\n      dup7\n        /* \"#utility.yul\":12043:12052   */\n      dup4\n        /* \"#utility.yul\":12024:12063   */\n      tag_145\n      jump\t// in\n    tag_279:\n        /* \"#utility.yul\":12012:12063   */\n      swap6\n      pop\n        /* \"#utility.yul\":12096:12100   */\n      dup1\n        /* \"#utility.yul\":12092:12101   */\n      not\n        /* \"#utility.yul\":12085:12090   */\n      dup5\n        /* \"#utility.yul\":12081:12102   */\n      and\n        /* \"#utility.yul\":12072:12102   */\n      swap4\n      pop\n        /* \"#utility.yul\":12145:12149   */\n      dup1\n        /* \"#utility.yul\":12135:12143   */\n      dup7\n        /* \"#utility.yul\":12131:12150   */\n      and\n        /* \"#utility.yul\":12124:12129   */\n      dup5\n        /* \"#utility.yul\":12121:12151   */\n      or\n        /* \"#utility.yul\":12111:12151   */\n      swap3\n      pop\n        /* \"#utility.yul\":11840:12157   */\n      pop\n      pop\n        /* \"#utility.yul\":11764:12157   */\n      swap4\n      swap3\n      pop\n      pop\n      pop\n      jump\t// out\n        /* \"#utility.yul\":12163:12223   */\n    tag_147:\n        /* \"#utility.yul\":12191:12194   */\n      0x00\n        /* \"#utility.yul\":12212:12217   */\n      dup2\n        /* \"#utility.yul\":12205:12217   */\n      swap1\n      pop\n        /* \"#utility.yul\":12163:12223   */\n      swap2\n      swap1\n      pop\n      jump\t// out\n        /* \"#utility.yul\":12229:12371   */\n    tag_148:\n        /* \"#utility.yul\":12279:12288   */\n      0x00\n        /* \"#utility.yul\":12312:12365   */\n      tag_282\n        /* \"#utility.yul\":12330:12364   */\n      tag_283\n        /* \"#utility.yul\":12339:12363   */\n      tag_284\n        /* \"#utility.yul\":12357:12362   */\n      dup5\n        /* \"#utility.yul\":12339:12363   */\n      tag_128\n      jump\t// in\n    tag_284:\n        /* \"#utility.yul\":12330:12364   */\n      tag_147\n      jump\t// in\n    tag_283:\n        /* \"#utility.yul\":12312:12365   */\n      tag_128\n      jump\t// in\n    tag_282:\n        /* \"#utility.yul\":12299:12365   */\n      swap1\n      pop\n        /* \"#utility.yul\":12229:12371   */\n      swap2\n      swap1\n      pop\n      jump\t// out\n        /* \"#utility.yul\":12377:12452   */\n    tag_149:\n        /* \"#utility.yul\":12420:12423   */\n      0x00\n        /* \"#utility.yul\":12441:12446   */\n      dup2\n        /* \"#utility.yul\":12434:12446   */\n      swap1\n      pop\n        /* \"#utility.yul\":12377:12452   */\n      swap2\n      swap1\n      pop\n      jump\t// out\n        /* \"#utility.yul\":12458:12727   */\n    tag_150:\n        /* \"#utility.yul\":12568:12607   */\n      tag_287\n        /* \"#utility.yul\":12599:12606   */\n      dup4\n        /* \"#utility.yul\":12568:12607   */\n      tag_148\n      jump\t// in\n    tag_287:\n        /* \"#utility.yul\":12629:12720   */\n      tag_288\n        /* \"#utility.yul\":12678:12719   */\n      tag_289\n        /* \"#utility.yul\":12702:12718   */\n      dup3\n        /* \"#utility.yul\":12678:12719   */\n      tag_149\n      jump\t// in\n    tag_289:\n        /* \"#utility.yul\":12670:12676   */\n      dup5\n        /* \"#utility.yul\":12663:12667   */\n      dup5\n        /* \"#utility.yul\":12657:12668   */\n      sload\n        /* \"#utility.yul\":12629:12720   */\n      tag_146\n      jump\t// in\n    tag_288:\n        /* \"#utility.yul\":12623:12627   */\n      dup3\n        /* \"#utility.yul\":12616:12721   */\n      sstore\n        /* \"#utility.yul\":12534:12727   */\n      pop\n        /* \"#utility.yul\":12458:12727   */\n      pop\n      pop\n      pop\n      jump\t// out\n        /* \"#utility.yul\":12733:12806   */\n    tag_151:\n        /* \"#utility.yul\":12778:12781   */\n      0x00\n        /* \"#utility.yul\":12733:12806   */\n      swap1\n      jump\t// out\n        /* \"#utility.yul\":12812:13001   */\n    tag_152:\n        /* \"#utility.yul\":12889:12921   */\n      tag_292\n      tag_151\n      jump\t// in\n    tag_292:\n        /* \"#utility.yul\":12930:12995   */\n      tag_293\n        /* \"#utility.yul\":12988:12994   */\n      dup2\n        /* \"#utility.yul\":12980:12986   */\n      dup5\n        /* \"#utility.yul\":12974:12978   */\n      dup5\n        /* \"#utility.yul\":12930:12995   */\n      tag_150\n      jump\t// in\n    tag_293:\n        /* \"#utility.yul\":12865:13001   */\n      pop\n        /* \"#utility.yul\":12812:13001   */\n      pop\n      pop\n      jump\t// out\n        /* \"#utility.yul\":13007:13193   */\n    tag_153:\n        /* \"#utility.yul\":13067:13187   */\n    tag_295:\n        /* \"#utility.yul\":13084:13087   */\n      dup2\n        /* \"#utility.yul\":13077:13082   */\n      dup2\n        /* \"#utility.yul\":13074:13088   */\n      lt\n        /* \"#utility.yul\":13067:13187   */\n      iszero\n      tag_297\n      jumpi\n        /* \"#utility.yul\":13138:13177   */\n      tag_298\n        /* \"#utility.yul\":13175:13176   */\n      0x00\n        /* \"#utility.yul\":13168:13173   */\n      dup3\n        /* \"#utility.yul\":13138:13177   */\n      tag_152\n      jump\t// in\n    tag_298:\n        /* \"#utility.yul\":13111:13112   */\n      0x01\n        /* \"#utility.yul\":13104:13109   */\n      dup2\n        /* \"#utility.yul\":13100:13113   */\n      add\n        /* \"#utility.yul\":13091:13113   */\n      swap1\n      pop\n        /* \"#utility.yul\":13067:13187   */\n      jump(tag_295)\n    tag_297:\n        /* \"#utility.yul\":13007:13193   */\n      pop\n      pop\n      jump\t// out\n        /* \"#utility.yul\":13199:13742   */\n    tag_154:\n        /* \"#utility.yul\":13300:13302   */\n      0x1f\n        /* \"#utility.yul\":13295:13298   */\n      dup3\n        /* \"#utility.yul\":13292:13303   */\n      gt\n        /* \"#utility.yul\":13289:13735   */\n      iszero\n      tag_300\n      jumpi\n        /* \"#utility.yul\":13334:13372   */\n      tag_301\n        /* \"#utility.yul\":13366:13371   */\n      dup2\n        /* \"#utility.yul\":13334:13372   */\n      tag_143\n      jump\t// in\n    tag_301:\n        /* \"#utility.yul\":13418:13447   */\n      tag_302\n        /* \"#utility.yul\":13436:13446   */\n      dup5\n        /* \"#utility.yul\":13418:13447   */\n      tag_144\n      jump\t// in\n    tag_302:\n        /* \"#utility.yul\":13408:13416   */\n      dup2\n        /* \"#utility.yul\":13404:13448   */\n      add\n        /* \"#utility.yul\":13601:13603   */\n      0x20\n        /* \"#utility.yul\":13589:13599   */\n      dup6\n        /* \"#utility.yul\":13586:13604   */\n      lt\n        /* \"#utility.yul\":13583:13632   */\n      iszero\n      tag_303\n      jumpi\n        /* \"#utility.yul\":13622:13630   */\n      dup2\n        /* \"#utility.yul\":13607:13630   */\n      swap1\n      pop\n        /* \"#utility.yul\":13583:13632   */\n    tag_303:\n        /* \"#utility.yul\":13645:13725   */\n      tag_304\n        /* \"#utility.yul\":13701:13723   */\n      tag_305\n        /* \"#utility.yul\":13719:13722   */\n      dup6\n        /* \"#utility.yul\":13701:13723   */\n      tag_144\n      jump\t// in\n    tag_305:\n        /* \"#utility.yul\":13691:13699   */\n      dup4\n        /* \"#utility.yul\":13687:13724   */\n      add\n        /* \"#utility.yul\":13674:13685   */\n      dup3\n        /* \"#utility.yul\":13645:13725   */\n      tag_153\n      jump\t// in\n    tag_304:\n        /* \"#utility.yul\":13304:13735   */\n      pop\n      pop\n        /* \"#utility.yul\":13289:13735   */\n    tag_300:\n        /* \"#utility.yul\":13199:13742   */\n      pop\n      pop\n      pop\n      jump\t// out\n        /* \"#utility.yul\":13748:13865   */\n    tag_155:\n        /* \"#utility.yul\":13802:13810   */\n      0x00\n        /* \"#utility.yul\":13852:13857   */\n      dup3\n        /* \"#utility.yul\":13846:13850   */\n      dup3\n        /* \"#utility.yul\":13842:13858   */\n      shr\n        /* \"#utility.yul\":13821:13858   */\n      swap1\n      pop\n        /* \"#utility.yul\":13748:13865   */\n      swap3\n      swap2\n      pop\n      pop\n      jump\t// out\n        /* \"#utility.yul\":13871:14040   */\n    tag_156:\n        /* \"#utility.yul\":13915:13921   */\n      0x00\n        /* \"#utility.yul\":13948:13999   */\n      tag_308\n        /* \"#utility.yul\":13996:13997   */\n      0x00\n        /* \"#utility.yul\":13992:13998   */\n      not\n        /* \"#utility.yul\":13984:13989   */\n      dup5\n        /* \"#utility.yul\":13981:13982   */\n      0x08\n        /* \"#utility.yul\":13977:13990   */\n      mul\n        /* \"#utility.yul\":13948:13999   */\n      tag_155\n      jump\t// in\n    tag_308:\n        /* \"#utility.yul\":13944:14000   */\n      not\n        /* \"#utility.yul\":14029:14033   */\n      dup1\n        /* \"#utility.yul\":14023:14027   */\n      dup4\n        /* \"#utility.yul\":14019:14034   */\n      and\n        /* \"#utility.yul\":14009:14034   */\n      swap2\n      pop\n        /* \"#utility.yul\":13922:14040   */\n      pop\n        /* \"#utility.yul\":13871:14040   */\n      swap3\n      swap2\n      pop\n      pop\n      jump\t// out\n        /* \"#utility.yul\":14045:14340   */\n    tag_157:\n        /* \"#utility.yul\":14121:14125   */\n      0x00\n        /* \"#utility.yul\":14267:14296   */\n      tag_310\n        /* \"#utility.yul\":14292:14295   */\n      dup4\n        /* \"#utility.yul\":14286:14290   */\n      dup4\n        /* \"#utility.yul\":14267:14296   */\n      tag_156\n      jump\t// in\n    tag_310:\n        /* \"#utility.yul\":14259:14296   */\n      swap2\n      pop\n        /* \"#utility.yul\":14329:14332   */\n      dup3\n        /* \"#utility.yul\":14326:14327   */\n      0x02\n        /* \"#utility.yul\":14322:14333   */\n      mul\n        /* \"#utility.yul\":14316:14320   */\n      dup3\n        /* \"#utility.yul\":14313:14334   */\n      or\n        /* \"#utility.yul\":14305:14334   */\n      swap1\n      pop\n        /* \"#utility.yul\":14045:14340   */\n      swap3\n      swap2\n      pop\n      pop\n      jump\t// out\n        /* \"#utility.yul\":14345:15740   */\n    tag_42:\n        /* \"#utility.yul\":14462:14499   */\n      tag_312\n        /* \"#utility.yul\":14495:14498   */\n      dup3\n        /* \"#utility.yul\":14462:14499   */\n      tag_132\n      jump\t// in\n    tag_312:\n        /* \"#utility.yul\":14564:14582   */\n      0xffffffffffffffff\n        /* \"#utility.yul\":14556:14562   */\n      dup2\n        /* \"#utility.yul\":14553:14583   */\n      gt\n        /* \"#utility.yul\":14550:14606   */\n      iszero\n      tag_313\n      jumpi\n        /* \"#utility.yul\":14586:14604   */\n      tag_314\n      tag_121\n      jump\t// in\n    tag_314:\n        /* \"#utility.yul\":14550:14606   */\n    tag_313:\n        /* \"#utility.yul\":14630:14668   */\n      tag_315\n        /* \"#utility.yul\":14662:14666   */\n      dup3\n        /* \"#utility.yul\":14656:14667   */\n      sload\n        /* \"#utility.yul\":14630:14668   */\n      tag_72\n      jump\t// in\n    tag_315:\n        /* \"#utility.yul\":14715:14782   */\n      tag_316\n        /* \"#utility.yul\":14775:14781   */\n      dup3\n        /* \"#utility.yul\":14767:14773   */\n      dup3\n        /* \"#utility.yul\":14761:14765   */\n      dup6\n        /* \"#utility.yul\":14715:14782   */\n      tag_154\n      jump\t// in\n    tag_316:\n        /* \"#utility.yul\":14809:14810   */\n      0x00\n        /* \"#utility.yul\":14833:14837   */\n      0x20\n        /* \"#utility.yul\":14820:14837   */\n      swap1\n      pop\n        /* \"#utility.yul\":14865:14867   */\n      0x1f\n        /* \"#utility.yul\":14857:14863   */\n      dup4\n        /* \"#utility.yul\":14854:14868   */\n      gt\n        /* \"#utility.yul\":14882:14883   */\n      0x01\n        /* \"#utility.yul\":14877:15495   */\n      dup2\n      eq\n      tag_318\n      jumpi\n        /* \"#utility.yul\":15539:15540   */\n      0x00\n        /* \"#utility.yul\":15556:15562   */\n      dup5\n        /* \"#utility.yul\":15553:15630   */\n      iszero\n      tag_319\n      jumpi\n        /* \"#utility.yul\":15605:15614   */\n      dup3\n        /* \"#utility.yul\":15600:15603   */\n      dup8\n        /* \"#utility.yul\":15596:15615   */\n      add\n        /* \"#utility.yul\":15590:15616   */\n      mload\n        /* \"#utility.yul\":15581:15616   */\n      swap1\n      pop\n        /* \"#utility.yul\":15553:15630   */\n    tag_319:\n        /* \"#utility.yul\":15656:15723   */\n      tag_320\n        /* \"#utility.yul\":15716:15722   */\n      dup6\n        /* \"#utility.yul\":15709:15714   */\n      dup3\n        /* \"#utility.yul\":15656:15723   */\n      tag_157\n      jump\t// in\n    tag_320:\n        /* \"#utility.yul\":15650:15654   */\n      dup7\n        /* \"#utility.yul\":15643:15724   */\n      sstore\n        /* \"#utility.yul\":15512:15734   */\n      pop\n        /* \"#utility.yul\":14847:15734   */\n      jump(tag_317)\n        /* \"#utility.yul\":14877:15495   */\n    tag_318:\n        /* \"#utility.yul\":14929:14933   */\n      0x1f\n        /* \"#utility.yul\":14925:14934   */\n      not\n        /* \"#utility.yul\":14917:14923   */\n      dup5\n        /* \"#utility.yul\":14913:14935   */\n      and\n        /* \"#utility.yul\":14963:15000   */\n      tag_321\n        /* \"#utility.yul\":14995:14999   */\n      dup7\n        /* \"#utility.yul\":14963:15000   */\n      tag_143\n      jump\t// in\n    tag_321:\n        /* \"#utility.yul\":15022:15023   */\n      0x00\n        /* \"#utility.yul\":15036:15244   */\n    tag_322:\n        /* \"#utility.yul\":15050:15057   */\n      dup3\n        /* \"#utility.yul\":15047:15048   */\n      dup2\n        /* \"#utility.yul\":15044:15058   */\n      lt\n        /* \"#utility.yul\":15036:15244   */\n      iszero\n      tag_324\n      jumpi\n        /* \"#utility.yul\":15129:15138   */\n      dup5\n        /* \"#utility.yul\":15124:15127   */\n      dup10\n        /* \"#utility.yul\":15120:15139   */\n      add\n        /* \"#utility.yul\":15114:15140   */\n      mload\n        /* \"#utility.yul\":15106:15112   */\n      dup3\n        /* \"#utility.yul\":15099:15141   */\n      sstore\n        /* \"#utility.yul\":15180:15181   */\n      0x01\n        /* \"#utility.yul\":15172:15178   */\n      dup3\n        /* \"#utility.yul\":15168:15182   */\n      add\n        /* \"#utility.yul\":15158:15182   */\n      swap2\n      pop\n        /* \"#utility.yul\":15227:15229   */\n      0x20\n        /* \"#utility.yul\":15216:15225   */\n      dup6\n        /* \"#utility.yul\":15212:15230   */\n      add\n        /* \"#utility.yul\":15199:15230   */\n      swap5\n      pop\n        /* \"#utility.yul\":15073:15077   */\n      0x20\n        /* \"#utility.yul\":15070:15071   */\n      dup2\n        /* \"#utility.yul\":15066:15078   */\n      add\n        /* \"#utility.yul\":15061:15078   */\n      swap1\n      pop\n        /* \"#utility.yul\":15036:15244   */\n      jump(tag_322)\n    tag_324:\n        /* \"#utility.yul\":15272:15278   */\n      dup7\n        /* \"#utility.yul\":15263:15270   */\n      dup4\n        /* \"#utility.yul\":15260:15279   */\n      lt\n        /* \"#utility.yul\":15257:15436   */\n      iszero\n      tag_325\n      jumpi\n        /* \"#utility.yul\":15330:15339   */\n      dup5\n        /* \"#utility.yul\":15325:15328   */\n      dup10\n        /* \"#utility.yul\":15321:15340   */\n      add\n        /* \"#utility.yul\":15315:15341   */\n      mload\n        /* \"#utility.yul\":15373:15421   */\n      tag_326\n        /* \"#utility.yul\":15415:15419   */\n      0x1f\n        /* \"#utility.yul\":15407:15413   */\n      dup10\n        /* \"#utility.yul\":15403:15420   */\n      and\n        /* \"#utility.yul\":15392:15401   */\n      dup3\n        /* \"#utility.yul\":15373:15421   */\n      tag_156\n      jump\t// in\n    tag_326:\n        /* \"#utility.yul\":15365:15371   */\n      dup4\n        /* \"#utility.yul\":15358:15422   */\n      sstore\n        /* \"#utility.yul\":15280:15436   */\n      pop\n        /* \"#utility.yul\":15257:15436   */\n    tag_325:\n        /* \"#utility.yul\":15482:15483   */\n      0x01\n        /* \"#utility.yul\":15478:15479   */\n      0x02\n        /* \"#utility.yul\":15470:15476   */\n      dup9\n        /* \"#utility.yul\":15466:15480   */\n      mul\n        /* \"#utility.yul\":15462:15484   */\n      add\n        /* \"#utility.yul\":15456:15460   */\n      dup9\n        /* \"#utility.yul\":15449:15485   */\n      sstore\n        /* \"#utility.yul\":14884:15495   */\n      pop\n      pop\n      pop\n        /* \"#utility.yul\":14847:15734   */\n    tag_317:\n      pop\n        /* \"#utility.yul\":14437:15740   */\n      pop\n      pop\n      pop\n        /* \"#utility.yul\":14345:15740   */\n      pop\n      pop\n      jump\t// out\n        /* \"#utility.yul\":15746:16078   */\n    tag_53:\n        /* \"#utility.yul\":15867:15871   */\n      0x00\n        /* \"#utility.yul\":15905:15907   */\n      0x40\n        /* \"#utility.yul\":15894:15903   */\n      dup3\n        /* \"#utility.yul\":15890:15908   */\n      add\n        /* \"#utility.yul\":15882:15908   */\n      swap1\n      pop\n        /* \"#utility.yul\":15918:15989   */\n      tag_328\n        /* \"#utility.yul\":15986:15987   */\n      0x00\n        /* \"#utility.yul\":15975:15984   */\n      dup4\n        /* \"#utility.yul\":15971:15988   */\n      add\n        /* \"#utility.yul\":15962:15968   */\n      dup6\n        /* \"#utility.yul\":15918:15989   */\n      tag_138\n      jump\t// in\n    tag_328:\n        /* \"#utility.yul\":15999:16071   */\n      tag_329\n        /* \"#utility.yul\":16067:16069   */\n      0x20\n        /* \"#utility.yul\":16056:16065   */\n      dup4\n        /* \"#utility.yul\":16052:16070   */\n      add\n        /* \"#utility.yul\":16043:16049   */\n      dup5\n        /* \"#utility.yul\":15999:16071   */\n      tag_138\n      jump\t// in\n    tag_329:\n        /* \"#utility.yul\":15746:16078   */\n      swap4\n      swap3\n      pop\n      pop\n      pop\n      jump\t// out\n\n    auxdata: 0xa264697066735822122050ba126a425146d4968117b08a06b019bdb6e64b4dc0e42e6728cbef4f01e80264736f6c63430008110033\n}\n","bytecode":{"linkReferences":{},"object":"60806040523480156200001157600080fd5b5060405162001541380380620015418339818101604052810190620000379190620000e9565b80600160006101000a81548173ffffffffffffffffffffffffffffffffffffffff021916908373ffffffffffffffffffffffffffffffffffffffff160217905550506200011b565b600080fd5b600073ffffffffffffffffffffffffffffffffffffffff82169050919050565b6000620000b18262000084565b9050919050565b620000c381620000a4565b8114620000cf57600080fd5b50565b600081519050620000e381620000b8565b92915050565b6000602082840312156200010257620001016200007f565b5b60006200011284828501620000d2565b91505092915050565b611416806200012b6000396000f3fe608060405234801561001057600080fd5b50600436106100625760003560e01c80631107747e1461006757806326c01f7d1461008357806348e818521461009f57806352a6042d146100cf5780635db185c7146100eb5780637621df6f14610107575b600080fd5b610081600480360381019061007c9190610bb1565b610123565b005b61009d60048036038101906100989190610d5a565b610167565b005b6100b960048036038101906100b49190610bb1565b61042d565b6040516100c69190611028565b60405180910390f35b6100e960048036038101906100e49190610d5a565b61099a565b005b61010560048036038101906101009190610bb1565b610a5c565b005b610121600480360381019061011c9190610bb1565b610aa0565b005b80600260006101000a81548173ffffffffffffffffffffffffffffffffffffffff021916908373ffffffffffffffffffffffffffffffffffffffff16021790555050565b600260009054906101000a900473ffffffffffffffffffffffffffffffffffffffff1673ffffffffffffffffffffffffffffffffffffffff166363a9c3d7336040518263ffffffff1660e01b81526004016101c29190611059565b602060405180830381865afa1580156101df573d6000803e3d6000fd5b505050506040513d601f19601f8201168201806040525081019061020391906110ac565b61020c57600080fd5b60008060008a73ffffffffffffffffffffffffffffffffffffffff1673ffffffffffffffffffffffffffffffffffffffff1681526020019081526020016000209050888160000160006101000a81548173ffffffffffffffffffffffffffffffffffffffff021916908373ffffffffffffffffffffffffffffffffffffffff160217905550878160010190816102a291906112e5565b50868160020181905550858160030190816102bd91906112e5565b50848160040190816102cf91906112e5565b50838160050190816102e191906112e5565b50828160060190816102f391906112e5565b508181600701908161030591906112e5565b50600360009054906101000a900473ffffffffffffffffffffffffffffffffffffffff1673ffffffffffffffffffffffffffffffffffffffff16636d263ceb8a6040518263ffffffff1660e01b81526004016103619190611059565b600060405180830381600087803b15801561037b57600080fd5b505af115801561038f573d6000803e3d6000fd5b50505050600460009054906101000a900473ffffffffffffffffffffffffffffffffffffffff1673ffffffffffffffffffffffffffffffffffffffff16638bfc8c71338b6040518363ffffffff1660e01b81526004016103f09291906113b7565b600060405180830381600087803b15801561040a57600080fd5b505af115801561041e573d6000803e3d6000fd5b50505050505050505050505050565b610435610ae4565b600260009054906101000a900473ffffffffffffffffffffffffffffffffffffffff1673ffffffffffffffffffffffffffffffffffffffff166363a9c3d7336040518263ffffffff1660e01b81526004016104909190611059565b602060405180830381865afa1580156104ad573d6000803e3d6000fd5b505050506040513d601f19601f820116820180604052508101906104d191906110ac565b806105745750600360009054906101000a900473ffffffffffffffffffffffffffffffffffffffff1673ffffffffffffffffffffffffffffffffffffffff166363a9c3d7336040518263ffffffff1660e01b81526004016105329190611059565b602060405180830381865afa15801561054f573d6000803e3d6000fd5b505050506040513d601f19601f8201168201806040525081019061057391906110ac565b5b61057d57600080fd5b6000808373ffffffffffffffffffffffffffffffffffffffff1673ffffffffffffffffffffffffffffffffffffffff168152602001908152602001600020604051806101000160405290816000820160009054906101000a900473ffffffffffffffffffffffffffffffffffffffff1673ffffffffffffffffffffffffffffffffffffffff1673ffffffffffffffffffffffffffffffffffffffff16815260200160018201805461062d90611108565b80601f016020809104026020016040519081016040528092919081815260200182805461065990611108565b80156106a65780601f1061067b576101008083540402835291602001916106a6565b820191906000526020600020905b81548152906001019060200180831161068957829003601f168201915b50505050508152602001600282015481526020016003820180546106c990611108565b80601f01602080910402602001604051908101604052809291908181526020018280546106f590611108565b80156107425780601f1061071757610100808354040283529160200191610742565b820191906000526020600020905b81548152906001019060200180831161072557829003601f168201915b5050505050815260200160048201805461075b90611108565b80601f016020809104026020016040519081016040528092919081815260200182805461078790611108565b80156107d45780601f106107a9576101008083540402835291602001916107d4565b820191906000526020600020905b8154815290600101906020018083116107b757829003601f168201915b505050505081526020016005820180546107ed90611108565b80601f016020809104026020016040519081016040528092919081815260200182805461081990611108565b80156108665780601f1061083b57610100808354040283529160200191610866565b820191906000526020600020905b81548152906001019060200180831161084957829003601f168201915b5050505050815260200160068201805461087f90611108565b80601f01602080910402602001604051908101604052809291908181526020018280546108ab90611108565b80156108f85780601f106108cd576101008083540402835291602001916108f8565b820191906000526020600020905b8154815290600101906020018083116108db57829003601f168201915b5050505050815260200160078201805461091190611108565b80601f016020809104026020016040519081016040528092919081815260200182805461093d90611108565b801561098a5780601f1061095f5761010080835404028352916020019161098a565b820191906000526020600020905b81548152906001019060200180831161096d57829003601f168201915b5050505050815250509050919050565b60008060008a73ffffffffffffffffffffffffffffffffffffffff1673ffffffffffffffffffffffffffffffffffffffff1681526020019081526020016000209050878160010190816109ed91906112e5565b5086816002018190555085816003019081610a0891906112e5565b5084816004019081610a1a91906112e5565b5083816005019081610a2c91906112e5565b5082816006019081610a3e91906112e5565b5081816007019081610a5091906112e5565b50505050505050505050565b80600360006101000a81548173ffffffffffffffffffffffffffffffffffffffff021916908373ffffffffffffffffffffffffffffffffffffffff16021790555050565b80600460006101000a81548173ffffffffffffffffffffffffffffffffffffffff021916908373ffffffffffffffffffffffffffffffffffffffff16021790555050565b604051806101000160405280600073ffffffffffffffffffffffffffffffffffffffff168152602001606081526020016000815260200160608152602001606081526020016060815260200160608152602001606081525090565b6000604051905090565b600080fd5b600080fd5b600073ffffffffffffffffffffffffffffffffffffffff82169050919050565b6000610b7e82610b53565b9050919050565b610b8e81610b73565b8114610b9957600080fd5b50565b600081359050610bab81610b85565b92915050565b600060208284031215610bc757610bc6610b49565b5b6000610bd584828501610b9c565b91505092915050565b600080fd5b600080fd5b6000601f19601f8301169050919050565b7f4e487b7100000000000000000000000000000000000000000000000000000000600052604160045260246000fd5b610c3182610be8565b810181811067ffffffffffffffff82111715610c5057610c4f610bf9565b5b80604052505050565b6000610c63610b3f565b9050610c6f8282610c28565b919050565b600067ffffffffffffffff821115610c8f57610c8e610bf9565b5b610c9882610be8565b9050602081019050919050565b82818337600083830152505050565b6000610cc7610cc284610c74565b610c59565b905082815260208101848484011115610ce357610ce2610be3565b5b610cee848285610ca5565b509392505050565b600082601f830112610d0b57610d0a610bde565b5b8135610d1b848260208601610cb4565b91505092915050565b6000819050919050565b610d3781610d24565b8114610d4257600080fd5b50565b600081359050610d5481610d2e565b92915050565b600080600080600080600080610100898b031215610d7b57610d7a610b49565b5b6000610d898b828c01610b9c565b985050602089013567ffffffffffffffff811115610daa57610da9610b4e565b5b610db68b828c01610cf6565b9750506040610dc78b828c01610d45565b965050606089013567ffffffffffffffff811115610de857610de7610b4e565b5b610df48b828c01610cf6565b955050608089013567ffffffffffffffff811115610e1557610e14610b4e565b5b610e218b828c01610cf6565b94505060a089013567ffffffffffffffff811115610e4257610e41610b4e565b5b610e4e8b828c01610cf6565b93505060c089013567ffffffffffffffff811115610e6f57610e6e610b4e565b5b610e7b8b828c01610cf6565b92505060e089013567ffffffffffffffff811115610e9c57610e9b610b4e565b5b610ea88b828c01610cf6565b9150509295985092959890939650565b610ec181610b73565b82525050565b600081519050919050565b600082825260208201905092915050565b60005b83811015610f01578082015181840152602081019050610ee6565b60008484015250505050565b6000610f1882610ec7565b610f228185610ed2565b9350610f32818560208601610ee3565b610f3b81610be8565b840191505092915050565b610f4f81610d24565b82525050565b600061010083016000830151610f6e6000860182610eb8565b5060208301518482036020860152610f868282610f0d565b9150506040830151610f9b6040860182610f46565b5060608301518482036060860152610fb38282610f0d565b91505060808301518482036080860152610fcd8282610f0d565b91505060a083015184820360a0860152610fe78282610f0d565b91505060c083015184820360c08601526110018282610f0d565b91505060e083015184820360e086015261101b8282610f0d565b9150508091505092915050565b600060208201905081810360008301526110428184610f55565b905092915050565b61105381610b73565b82525050565b600060208201905061106e600083018461104a565b92915050565b60008115159050919050565b61108981611074565b811461109457600080fd5b50565b6000815190506110a681611080565b92915050565b6000602082840312156110c2576110c1610b49565b5b60006110d084828501611097565b91505092915050565b7f4e487b7100000000000000000000000000000000000000000000000000000000600052602260045260246000fd5b6000600282049050600182168061112057607f821691505b602082108103611133576111326110d9565b5b50919050565b60008190508160005260206000209050919050565b60006020601f8301049050919050565b600082821b905092915050565b60006008830261119b7fffffffffffffffffffffffffffffffffffffffffffffffffffffffffffffffff8261115e565b6111a5868361115e565b95508019841693508086168417925050509392505050565b6000819050919050565b60006111e26111dd6111d884610d24565b6111bd565b610d24565b9050919050565b6000819050919050565b6111fc836111c7565b611210611208826111e9565b84845461116b565b825550505050565b600090565b611225611218565b6112308184846111f3565b505050565b5b818110156112545761124960008261121d565b600181019050611236565b5050565b601f8211156112995761126a81611139565b6112738461114e565b81016020851015611282578190505b61129661128e8561114e565b830182611235565b50505b505050565b600082821c905092915050565b60006112bc6000198460080261129e565b1980831691505092915050565b60006112d583836112ab565b9150826002028217905092915050565b6112ee82610ec7565b67ffffffffffffffff81111561130757611306610bf9565b5b6113118254611108565b61131c828285611258565b600060209050601f83116001811461134f576000841561133d578287015190505b61134785826112c9565b8655506113af565b601f19841661135d86611139565b60005b8281101561138557848901518255600182019150602085019450602081019050611360565b868310156113a2578489015161139e601f8916826112ab565b8355505b6001600288020188555050505b505050505050565b60006040820190506113cc600083018561104a565b6113d9602083018461104a565b939250505056fea264697066735822122050ba126a425146d4968117b08a06b019bdb6e64b4dc0e42e6728cbef4f01e80264736f6c63430008110033","opcodes":"PUSH1 0x80 PUSH1 0x40 MSTORE CALLVALUE DUP1 ISZERO PUSH3 0x11 JUMPI PUSH1 0x0 DUP1 REVERT JUMPDEST POP PUSH1 0x40 MLOAD PUSH3 0x1541 CODESIZE SUB DUP1 PUSH3 0x1541 DUP4 CODECOPY DUP2 DUP2 ADD PUSH1 0x40 MSTORE DUP2 ADD SWAP1 PUSH3 0x37 SWAP2 SWAP1 PUSH3 0xE9 JUMP JUMPDEST DUP1 PUSH1 0x1 PUSH1 0x0 PUSH2 0x100 EXP DUP2 SLOAD DUP2 PUSH20 0xFFFFFFFFFFFFFFFFFFFFFFFFFFFFFFFFFFFFFFFF MUL NOT AND SWAP1 DUP4 PUSH20 0xFFFFFFFFFFFFFFFFFFFFFFFFFFFFFFFFFFFFFFFF AND MUL OR SWAP1 SSTORE POP POP PUSH3 0x11B JUMP JUMPDEST PUSH1 0x0 DUP1 REVERT JUMPDEST PUSH1 0x0 PUSH20 0xFFFFFFFFFFFFFFFFFFFFFFFFFFFFFFFFFFFFFFFF DUP3 AND SWAP1 POP SWAP2 SWAP1 POP JUMP JUMPDEST PUSH1 0x0 PUSH3 0xB1 DUP3 PUSH3 0x84 JUMP JUMPDEST SWAP1 POP SWAP2 SWAP1 POP JUMP JUMPDEST PUSH3 0xC3 DUP2 PUSH3 0xA4 JUMP JUMPDEST DUP2 EQ PUSH3 0xCF JUMPI PUSH1 0x0 DUP1 REVERT JUMPDEST POP JUMP JUMPDEST PUSH1 0x0 DUP2 MLOAD SWAP1 POP PUSH3 0xE3 DUP2 PUSH3 0xB8 JUMP JUMPDEST SWAP3 SWAP2 POP POP JUMP JUMPDEST PUSH1 0x0 PUSH1 0x20 DUP3 DUP5 SUB SLT ISZERO PUSH3 0x102 JUMPI PUSH3 0x101 PUSH3 0x7F JUMP JUMPDEST JUMPDEST PUSH1 0x0 PUSH3 0x112 DUP5 DUP3 DUP6 ADD PUSH3 0xD2 JUMP JUMPDEST SWAP2 POP POP SWAP3 SWAP2 POP POP JUMP JUMPDEST PUSH2 0x1416 DUP1 PUSH3 0x12B PUSH1 0x0 CODECOPY PUSH1 0x0 RETURN INVALID PUSH1 0x80 PUSH1 0x40 MSTORE CALLVALUE DUP1 ISZERO PUSH2 0x10 JUMPI PUSH1 0x0 DUP1 REVERT JUMPDEST POP PUSH1 0x4 CALLDATASIZE LT PUSH2 0x62 JUMPI PUSH1 0x0 CALLDATALOAD PUSH1 0xE0 SHR DUP1 PUSH4 0x1107747E EQ PUSH2 0x67 JUMPI DUP1 PUSH4 0x26C01F7D EQ PUSH2 0x83 JUMPI DUP1 PUSH4 0x48E81852 EQ PUSH2 0x9F JUMPI DUP1 PUSH4 0x52A6042D EQ PUSH2 0xCF JUMPI DUP1 PUSH4 0x5DB185C7 EQ PUSH2 0xEB JUMPI DUP1 PUSH4 0x7621DF6F EQ PUSH2 0x107 JUMPI JUMPDEST PUSH1 0x0 DUP1 REVERT JUMPDEST PUSH2 0x81 PUSH1 0x4 DUP1 CALLDATASIZE SUB DUP2 ADD SWAP1 PUSH2 0x7C SWAP2 SWAP1 PUSH2 0xBB1 JUMP JUMPDEST PUSH2 0x123 JUMP JUMPDEST STOP JUMPDEST PUSH2 0x9D PUSH1 0x4 DUP1 CALLDATASIZE SUB DUP2 ADD SWAP1 PUSH2 0x98 SWAP2 SWAP1 PUSH2 0xD5A JUMP JUMPDEST PUSH2 0x167 JUMP JUMPDEST STOP JUMPDEST PUSH2 0xB9 PUSH1 0x4 DUP1 CALLDATASIZE SUB DUP2 ADD SWAP1 PUSH2 0xB4 SWAP2 SWAP1 PUSH2 0xBB1 JUMP JUMPDEST PUSH2 0x42D JUMP JUMPDEST PUSH1 0x40 MLOAD PUSH2 0xC6 SWAP2 SWAP1 PUSH2 0x1028 JUMP JUMPDEST PUSH1 0x40 MLOAD DUP1 SWAP2 SUB SWAP1 RETURN JUMPDEST PUSH2 0xE9 PUSH1 0x4 DUP1 CALLDATASIZE SUB DUP2 ADD SWAP1 PUSH2 0xE4 SWAP2 SWAP1 PUSH2 0xD5A JUMP JUMPDEST PUSH2 0x99A JUMP JUMPDEST STOP JUMPDEST PUSH2 0x105 PUSH1 0x4 DUP1 CALLDATASIZE SUB DUP2 ADD SWAP1 PUSH2 0x100 SWAP2 SWAP1 PUSH2 0xBB1 JUMP JUMPDEST PUSH2 0xA5C JUMP JUMPDEST STOP JUMPDEST PUSH2 0x121 PUSH1 0x4 DUP1 CALLDATASIZE SUB DUP2 ADD SWAP1 PUSH2 0x11C SWAP2 SWAP1 PUSH2 0xBB1 JUMP JUMPDEST PUSH2 0xAA0 JUMP JUMPDEST STOP JUMPDEST DUP1 PUSH1 0x2 PUSH1 0x0 PUSH2 0x100 EXP DUP2 SLOAD DUP2 PUSH20 0xFFFFFFFFFFFFFFFFFFFFFFFFFFFFFFFFFFFFFFFF MUL NOT AND SWAP1 DUP4 PUSH20 0xFFFFFFFFFFFFFFFFFFFFFFFFFFFFFFFFFFFFFFFF AND MUL OR SWAP1 SSTORE POP POP JUMP JUMPDEST PUSH1 0x2 PUSH1 0x0 SWAP1 SLOAD SWAP1 PUSH2 0x100 EXP SWAP1 DIV PUSH20 0xFFFFFFFFFFFFFFFFFFFFFFFFFFFFFFFFFFFFFFFF AND PUSH20 0xFFFFFFFFFFFFFFFFFFFFFFFFFFFFFFFFFFFFFFFF AND PUSH4 0x63A9C3D7 CALLER PUSH1 0x40 MLOAD DUP3 PUSH4 0xFFFFFFFF AND PUSH1 0xE0 SHL DUP2 MSTORE PUSH1 0x4 ADD PUSH2 0x1C2 SWAP2 SWAP1 PUSH2 0x1059 JUMP JUMPDEST PUSH1 0x20 PUSH1 0x40 MLOAD DUP1 DUP4 SUB DUP2 DUP7 GAS STATICCALL ISZERO DUP1 ISZERO PUSH2 0x1DF JUMPI RETURNDATASIZE PUSH1 0x0 DUP1 RETURNDATACOPY RETURNDATASIZE PUSH1 0x0 REVERT JUMPDEST POP POP POP POP PUSH1 0x40 MLOAD RETURNDATASIZE PUSH1 0x1F NOT PUSH1 0x1F DUP3 ADD AND DUP3 ADD DUP1 PUSH1 0x40 MSTORE POP DUP2 ADD SWAP1 PUSH2 0x203 SWAP2 SWAP1 PUSH2 0x10AC JUMP JUMPDEST PUSH2 0x20C JUMPI PUSH1 0x0 DUP1 REVERT JUMPDEST PUSH1 0x0 DUP1 PUSH1 0x0 DUP11 PUSH20 0xFFFFFFFFFFFFFFFFFFFFFFFFFFFFFFFFFFFFFFFF AND PUSH20 0xFFFFFFFFFFFFFFFFFFFFFFFFFFFFFFFFFFFFFFFF AND DUP2 MSTORE PUSH1 0x20 ADD SWAP1 DUP2 MSTORE PUSH1 0x20 ADD PUSH1 0x0 KECCAK256 SWAP1 POP DUP9 DUP2 PUSH1 0x0 ADD PUSH1 0x0 PUSH2 0x100 EXP DUP2 SLOAD DUP2 PUSH20 0xFFFFFFFFFFFFFFFFFFFFFFFFFFFFFFFFFFFFFFFF MUL NOT AND SWAP1 DUP4 PUSH20 0xFFFFFFFFFFFFFFFFFFFFFFFFFFFFFFFFFFFFFFFF AND MUL OR SWAP1 SSTORE POP DUP8 DUP2 PUSH1 0x1 ADD SWAP1 DUP2 PUSH2 0x2A2 SWAP2 SWAP1 PUSH2 0x12E5 JUMP JUMPDEST POP DUP7 DUP2 PUSH1 0x2 ADD DUP2 SWAP1 SSTORE POP DUP6 DUP2 PUSH1 0x3 ADD SWAP1 DUP2 PUSH2 0x2BD SWAP2 SWAP1 PUSH2 0x12E5 JUMP JUMPDEST POP DUP5 DUP2 PUSH1 0x4 ADD SWAP1 DUP2 PUSH2 0x2CF SWAP2 SWAP1 PUSH2 0x12E5 JUMP JUMPDEST POP DUP4 DUP2 PUSH1 0x5 ADD SWAP1 DUP2 PUSH2 0x2E1 SWAP2 SWAP1 PUSH2 0x12E5 JUMP JUMPDEST POP DUP3 DUP2 PUSH1 0x6 ADD SWAP1 DUP2 PUSH2 0x2F3 SWAP2 SWAP1 PUSH2 0x12E5 JUMP JUMPDEST POP DUP2 DUP2 PUSH1 0x7 ADD SWAP1 DUP2 PUSH2 0x305 SWAP2 SWAP1 PUSH2 0x12E5 JUMP JUMPDEST POP PUSH1 0x3 PUSH1 0x0 SWAP1 SLOAD SWAP1 PUSH2 0x100 EXP SWAP1 DIV PUSH20 0xFFFFFFFFFFFFFFFFFFFFFFFFFFFFFFFFFFFFFFFF AND PUSH20 0xFFFFFFFFFFFFFFFFFFFFFFFFFFFFFFFFFFFFFFFF AND PUSH4 0x6D263CEB DUP11 PUSH1 0x40 MLOAD DUP3 PUSH4 0xFFFFFFFF AND PUSH1 0xE0 SHL DUP2 MSTORE PUSH1 0x4 ADD PUSH2 0x361 SWAP2 SWAP1 PUSH2 0x1059 JUMP JUMPDEST PUSH1 0x0 PUSH1 0x40 MLOAD DUP1 DUP4 SUB DUP2 PUSH1 0x0 DUP8 DUP1 EXTCODESIZE ISZERO DUP1 ISZERO PUSH2 0x37B JUMPI PUSH1 0x0 DUP1 REVERT JUMPDEST POP GAS CALL ISZERO DUP1 ISZERO PUSH2 0x38F JUMPI RETURNDATASIZE PUSH1 0x0 DUP1 RETURNDATACOPY RETURNDATASIZE PUSH1 0x0 REVERT JUMPDEST POP POP POP POP PUSH1 0x4 PUSH1 0x0 SWAP1 SLOAD SWAP1 PUSH2 0x100 EXP SWAP1 DIV PUSH20 0xFFFFFFFFFFFFFFFFFFFFFFFFFFFFFFFFFFFFFFFF AND PUSH20 0xFFFFFFFFFFFFFFFFFFFFFFFFFFFFFFFFFFFFFFFF AND PUSH4 0x8BFC8C71 CALLER DUP12 PUSH1 0x40 MLOAD DUP4 PUSH4 0xFFFFFFFF AND PUSH1 0xE0 SHL DUP2 MSTORE PUSH1 0x4 ADD PUSH2 0x3F0 SWAP3 SWAP2 SWAP1 PUSH2 0x13B7 JUMP JUMPDEST PUSH1 0x0 PUSH1 0x40 MLOAD DUP1 DUP4 SUB DUP2 PUSH1 0x0 DUP8 DUP1 EXTCODESIZE ISZERO DUP1 ISZERO PUSH2 0x40A JUMPI PUSH1 0x0 DUP1 REVERT JUMPDEST POP GAS CALL ISZERO DUP1 ISZERO PUSH2 0x41E JUMPI RETURNDATASIZE PUSH1 0x0 DUP1 RETURNDATACOPY RETURNDATASIZE PUSH1 0x0 REVERT JUMPDEST POP POP POP POP POP POP POP POP POP POP POP POP POP JUMP JUMPDEST PUSH2 0x435 PUSH2 0xAE4 JUMP JUMPDEST PUSH1 0x2 PUSH1 0x0 SWAP1 SLOAD SWAP1 PUSH2 0x100 EXP SWAP1 DIV PUSH20 0xFFFFFFFFFFFFFFFFFFFFFFFFFFFFFFFFFFFFFFFF AND PUSH20 0xFFFFFFFFFFFFFFFFFFFFFFFFFFFFFFFFFFFFFFFF AND PUSH4 0x63A9C3D7 CALLER PUSH1 0x40 MLOAD DUP3 PUSH4 0xFFFFFFFF AND PUSH1 0xE0 SHL DUP2 MSTORE PUSH1 0x4 ADD PUSH2 0x490 SWAP2 SWAP1 PUSH2 0x1059 JUMP JUMPDEST PUSH1 0x20 PUSH1 0x40 MLOAD DUP1 DUP4 SUB DUP2 DUP7 GAS STATICCALL ISZERO DUP1 ISZERO PUSH2 0x4AD JUMPI RETURNDATASIZE PUSH1 0x0 DUP1 RETURNDATACOPY RETURNDATASIZE PUSH1 0x0 REVERT JUMPDEST POP POP POP POP PUSH1 0x40 MLOAD RETURNDATASIZE PUSH1 0x1F NOT PUSH1 0x1F DUP3 ADD AND DUP3 ADD DUP1 PUSH1 0x40 MSTORE POP DUP2 ADD SWAP1 PUSH2 0x4D1 SWAP2 SWAP1 PUSH2 0x10AC JUMP JUMPDEST DUP1 PUSH2 0x574 JUMPI POP PUSH1 0x3 PUSH1 0x0 SWAP1 SLOAD SWAP1 PUSH2 0x100 EXP SWAP1 DIV PUSH20 0xFFFFFFFFFFFFFFFFFFFFFFFFFFFFFFFFFFFFFFFF AND PUSH20 0xFFFFFFFFFFFFFFFFFFFFFFFFFFFFFFFFFFFFFFFF AND PUSH4 0x63A9C3D7 CALLER PUSH1 0x40 MLOAD DUP3 PUSH4 0xFFFFFFFF AND PUSH1 0xE0 SHL DUP2 MSTORE PUSH1 0x4 ADD PUSH2 0x532 SWAP2 SWAP1 PUSH2 0x1059 JUMP JUMPDEST PUSH1 0x20 PUSH1 0x40 MLOAD DUP1 DUP4 SUB DUP2 DUP7 GAS STATICCALL ISZERO DUP1 ISZERO PUSH2 0x54F JUMPI RETURNDATASIZE PUSH1 0x0 DUP1 RETURNDATACOPY RETURNDATASIZE PUSH1 0x0 REVERT JUMPDEST POP POP POP POP PUSH1 0x40 MLOAD RETURNDATASIZE PUSH1 0x1F NOT PUSH1 0x1F DUP3 ADD AND DUP3 ADD DUP1 PUSH1 0x40 MSTORE POP DUP2 ADD SWAP1 PUSH2 0x573 SWAP2 SWAP1 PUSH2 0x10AC JUMP JUMPDEST JUMPDEST PUSH2 0x57D JUMPI PUSH1 0x0 DUP1 REVERT JUMPDEST PUSH1 0x0 DUP1 DUP4 PUSH20 0xFFFFFFFFFFFFFFFFFFFFFFFFFFFFFFFFFFFFFFFF AND PUSH20 0xFFFFFFFFFFFFFFFFFFFFFFFFFFFFFFFFFFFFFFFF AND DUP2 MSTORE PUSH1 0x20 ADD SWAP1 DUP2 MSTORE PUSH1 0x20 ADD PUSH1 0x0 KECCAK256 PUSH1 0x40 MLOAD DUP1 PUSH2 0x100 ADD PUSH1 0x40 MSTORE SWAP1 DUP2 PUSH1 0x0 DUP3 ADD PUSH1 0x0 SWAP1 SLOAD SWAP1 PUSH2 0x100 EXP SWAP1 DIV PUSH20 0xFFFFFFFFFFFFFFFFFFFFFFFFFFFFFFFFFFFFFFFF AND PUSH20 0xFFFFFFFFFFFFFFFFFFFFFFFFFFFFFFFFFFFFFFFF AND PUSH20 0xFFFFFFFFFFFFFFFFFFFFFFFFFFFFFFFFFFFFFFFF AND DUP2 MSTORE PUSH1 0x20 ADD PUSH1 0x1 DUP3 ADD DUP1 SLOAD PUSH2 0x62D SWAP1 PUSH2 0x1108 JUMP JUMPDEST DUP1 PUSH1 0x1F ADD PUSH1 0x20 DUP1 SWAP2 DIV MUL PUSH1 0x20 ADD PUSH1 0x40 MLOAD SWAP1 DUP2 ADD PUSH1 0x40 MSTORE DUP1 SWAP3 SWAP2 SWAP1 DUP2 DUP2 MSTORE PUSH1 0x20 ADD DUP3 DUP1 SLOAD PUSH2 0x659 SWAP1 PUSH2 0x1108 JUMP JUMPDEST DUP1 ISZERO PUSH2 0x6A6 JUMPI DUP1 PUSH1 0x1F LT PUSH2 0x67B JUMPI PUSH2 0x100 DUP1 DUP4 SLOAD DIV MUL DUP4 MSTORE SWAP2 PUSH1 0x20 ADD SWAP2 PUSH2 0x6A6 JUMP JUMPDEST DUP3 ADD SWAP2 SWAP1 PUSH1 0x0 MSTORE PUSH1 0x20 PUSH1 0x0 KECCAK256 SWAP1 JUMPDEST DUP2 SLOAD DUP2 MSTORE SWAP1 PUSH1 0x1 ADD SWAP1 PUSH1 0x20 ADD DUP1 DUP4 GT PUSH2 0x689 JUMPI DUP3 SWAP1 SUB PUSH1 0x1F AND DUP3 ADD SWAP2 JUMPDEST POP POP POP POP POP DUP2 MSTORE PUSH1 0x20 ADD PUSH1 0x2 DUP3 ADD SLOAD DUP2 MSTORE PUSH1 0x20 ADD PUSH1 0x3 DUP3 ADD DUP1 SLOAD PUSH2 0x6C9 SWAP1 PUSH2 0x1108 JUMP JUMPDEST DUP1 PUSH1 0x1F ADD PUSH1 0x20 DUP1 SWAP2 DIV MUL PUSH1 0x20 ADD PUSH1 0x40 MLOAD SWAP1 DUP2 ADD PUSH1 0x40 MSTORE DUP1 SWAP3 SWAP2 SWAP1 DUP2 DUP2 MSTORE PUSH1 0x20 ADD DUP3 DUP1 SLOAD PUSH2 0x6F5 SWAP1 PUSH2 0x1108 JUMP JUMPDEST DUP1 ISZERO PUSH2 0x742 JUMPI DUP1 PUSH1 0x1F LT PUSH2 0x717 JUMPI PUSH2 0x100 DUP1 DUP4 SLOAD DIV MUL DUP4 MSTORE SWAP2 PUSH1 0x20 ADD SWAP2 PUSH2 0x742 JUMP JUMPDEST DUP3 ADD SWAP2 SWAP1 PUSH1 0x0 MSTORE PUSH1 0x20 PUSH1 0x0 KECCAK256 SWAP1 JUMPDEST DUP2 SLOAD DUP2 MSTORE SWAP1 PUSH1 0x1 ADD SWAP1 PUSH1 0x20 ADD DUP1 DUP4 GT PUSH2 0x725 JUMPI DUP3 SWAP1 SUB PUSH1 0x1F AND DUP3 ADD SWAP2 JUMPDEST POP POP POP POP POP DUP2 MSTORE PUSH1 0x20 ADD PUSH1 0x4 DUP3 ADD DUP1 SLOAD PUSH2 0x75B SWAP1 PUSH2 0x1108 JUMP JUMPDEST DUP1 PUSH1 0x1F ADD PUSH1 0x20 DUP1 SWAP2 DIV MUL PUSH1 0x20 ADD PUSH1 0x40 MLOAD SWAP1 DUP2 ADD PUSH1 0x40 MSTORE DUP1 SWAP3 SWAP2 SWAP1 DUP2 DUP2 MSTORE PUSH1 0x20 ADD DUP3 DUP1 SLOAD PUSH2 0x787 SWAP1 PUSH2 0x1108 JUMP JUMPDEST DUP1 ISZERO PUSH2 0x7D4 JUMPI DUP1 PUSH1 0x1F LT PUSH2 0x7A9 JUMPI PUSH2 0x100 DUP1 DUP4 SLOAD DIV MUL DUP4 MSTORE SWAP2 PUSH1 0x20 ADD SWAP2 PUSH2 0x7D4 JUMP JUMPDEST DUP3 ADD SWAP2 SWAP1 PUSH1 0x0 MSTORE PUSH1 0x20 PUSH1 0x0 KECCAK256 SWAP1 JUMPDEST DUP2 SLOAD DUP2 MSTORE SWAP1 PUSH1 0x1 ADD SWAP1 PUSH1 0x20 ADD DUP1 DUP4 GT PUSH2 0x7B7 JUMPI DUP3 SWAP1 SUB PUSH1 0x1F AND DUP3 ADD SWAP2 JUMPDEST POP POP POP POP POP DUP2 MSTORE PUSH1 0x20 ADD PUSH1 0x5 DUP3 ADD DUP1 SLOAD PUSH2 0x7ED SWAP1 PUSH2 0x1108 JUMP JUMPDEST DUP1 PUSH1 0x1F ADD PUSH1 0x20 DUP1 SWAP2 DIV MUL PUSH1 0x20 ADD PUSH1 0x40 MLOAD SWAP1 DUP2 ADD PUSH1 0x40 MSTORE DUP1 SWAP3 SWAP2 SWAP1 DUP2 DUP2 MSTORE PUSH1 0x20 ADD DUP3 DUP1 SLOAD PUSH2 0x819 SWAP1 PUSH2 0x1108 JUMP JUMPDEST DUP1 ISZERO PUSH2 0x866 JUMPI DUP1 PUSH1 0x1F LT PUSH2 0x83B JUMPI PUSH2 0x100 DUP1 DUP4 SLOAD DIV MUL DUP4 MSTORE SWAP2 PUSH1 0x20 ADD SWAP2 PUSH2 0x866 JUMP JUMPDEST DUP3 ADD SWAP2 SWAP1 PUSH1 0x0 MSTORE PUSH1 0x20 PUSH1 0x0 KECCAK256 SWAP1 JUMPDEST DUP2 SLOAD DUP2 MSTORE SWAP1 PUSH1 0x1 ADD SWAP1 PUSH1 0x20 ADD DUP1 DUP4 GT PUSH2 0x849 JUMPI DUP3 SWAP1 SUB PUSH1 0x1F AND DUP3 ADD SWAP2 JUMPDEST POP POP POP POP POP DUP2 MSTORE PUSH1 0x20 ADD PUSH1 0x6 DUP3 ADD DUP1 SLOAD PUSH2 0x87F SWAP1 PUSH2 0x1108 JUMP JUMPDEST DUP1 PUSH1 0x1F ADD PUSH1 0x20 DUP1 SWAP2 DIV MUL PUSH1 0x20 ADD PUSH1 0x40 MLOAD SWAP1 DUP2 ADD PUSH1 0x40 MSTORE DUP1 SWAP3 SWAP2 SWAP1 DUP2 DUP2 MSTORE PUSH1 0x20 ADD DUP3 DUP1 SLOAD PUSH2 0x8AB SWAP1 PUSH2 0x1108 JUMP JUMPDEST DUP1 ISZERO PUSH2 0x8F8 JUMPI DUP1 PUSH1 0x1F LT PUSH2 0x8CD JUMPI PUSH2 0x100 DUP1 DUP4 SLOAD DIV MUL DUP4 MSTORE SWAP2 PUSH1 0x20 ADD SWAP2 PUSH2 0x8F8 JUMP JUMPDEST DUP3 ADD SWAP2 SWAP1 PUSH1 0x0 MSTORE PUSH1 0x20 PUSH1 0x0 KECCAK256 SWAP1 JUMPDEST DUP2 SLOAD DUP2 MSTORE SWAP1 PUSH1 0x1 ADD SWAP1 PUSH1 0x20 ADD DUP1 DUP4 GT PUSH2 0x8DB JUMPI DUP3 SWAP1 SUB PUSH1 0x1F AND DUP3 ADD SWAP2 JUMPDEST POP POP POP POP POP DUP2 MSTORE PUSH1 0x20 ADD PUSH1 0x7 DUP3 ADD DUP1 SLOAD PUSH2 0x911 SWAP1 PUSH2 0x1108 JUMP JUMPDEST DUP1 PUSH1 0x1F ADD PUSH1 0x20 DUP1 SWAP2 DIV MUL PUSH1 0x20 ADD PUSH1 0x40 MLOAD SWAP1 DUP2 ADD PUSH1 0x40 MSTORE DUP1 SWAP3 SWAP2 SWAP1 DUP2 DUP2 MSTORE PUSH1 0x20 ADD DUP3 DUP1 SLOAD PUSH2 0x93D SWAP1 PUSH2 0x1108 JUMP JUMPDEST DUP1 ISZERO PUSH2 0x98A JUMPI DUP1 PUSH1 0x1F LT PUSH2 0x95F JUMPI PUSH2 0x100 DUP1 DUP4 SLOAD DIV MUL DUP4 MSTORE SWAP2 PUSH1 0x20 ADD SWAP2 PUSH2 0x98A JUMP JUMPDEST DUP3 ADD SWAP2 SWAP1 PUSH1 0x0 MSTORE PUSH1 0x20 PUSH1 0x0 KECCAK256 SWAP1 JUMPDEST DUP2 SLOAD DUP2 MSTORE SWAP1 PUSH1 0x1 ADD SWAP1 PUSH1 0x20 ADD DUP1 DUP4 GT PUSH2 0x96D JUMPI DUP3 SWAP1 SUB PUSH1 0x1F AND DUP3 ADD SWAP2 JUMPDEST POP POP POP POP POP DUP2 MSTORE POP POP SWAP1 POP SWAP2 SWAP1 POP JUMP JUMPDEST PUSH1 0x0 DUP1 PUSH1 0x0 DUP11 PUSH20 0xFFFFFFFFFFFFFFFFFFFFFFFFFFFFFFFFFFFFFFFF AND PUSH20 0xFFFFFFFFFFFFFFFFFFFFFFFFFFFFFFFFFFFFFFFF AND DUP2 MSTORE PUSH1 0x20 ADD SWAP1 DUP2 MSTORE PUSH1 0x20 ADD PUSH1 0x0 KECCAK256 SWAP1 POP DUP8 DUP2 PUSH1 0x1 ADD SWAP1 DUP2 PUSH2 0x9ED SWAP2 SWAP1 PUSH2 0x12E5 JUMP JUMPDEST POP DUP7 DUP2 PUSH1 0x2 ADD DUP2 SWAP1 SSTORE POP DUP6 DUP2 PUSH1 0x3 ADD SWAP1 DUP2 PUSH2 0xA08 SWAP2 SWAP1 PUSH2 0x12E5 JUMP JUMPDEST POP DUP5 DUP2 PUSH1 0x4 ADD SWAP1 DUP2 PUSH2 0xA1A SWAP2 SWAP1 PUSH2 0x12E5 JUMP JUMPDEST POP DUP4 DUP2 PUSH1 0x5 ADD SWAP1 DUP2 PUSH2 0xA2C SWAP2 SWAP1 PUSH2 0x12E5 JUMP JUMPDEST POP DUP3 DUP2 PUSH1 0x6 ADD SWAP1 DUP2 PUSH2 0xA3E SWAP2 SWAP1 PUSH2 0x12E5 JUMP JUMPDEST POP DUP2 DUP2 PUSH1 0x7 ADD SWAP1 DUP2 PUSH2 0xA50 SWAP2 SWAP1 PUSH2 0x12E5 JUMP JUMPDEST POP POP POP POP POP POP POP POP POP POP JUMP JUMPDEST DUP1 PUSH1 0x3 PUSH1 0x0 PUSH2 0x100 EXP DUP2 SLOAD DUP2 PUSH20 0xFFFFFFFFFFFFFFFFFFFFFFFFFFFFFFFFFFFFFFFF MUL NOT AND SWAP1 DUP4 PUSH20 0xFFFFFFFFFFFFFFFFFFFFFFFFFFFFFFFFFFFFFFFF AND MUL OR SWAP1 SSTORE POP POP JUMP JUMPDEST DUP1 PUSH1 0x4 PUSH1 0x0 PUSH2 0x100 EXP DUP2 SLOAD DUP2 PUSH20 0xFFFFFFFFFFFFFFFFFFFFFFFFFFFFFFFFFFFFFFFF MUL NOT AND SWAP1 DUP4 PUSH20 0xFFFFFFFFFFFFFFFFFFFFFFFFFFFFFFFFFFFFFFFF AND MUL OR SWAP1 SSTORE POP POP JUMP JUMPDEST PUSH1 0x40 MLOAD DUP1 PUSH2 0x100 ADD PUSH1 0x40 MSTORE DUP1 PUSH1 0x0 PUSH20 0xFFFFFFFFFFFFFFFFFFFFFFFFFFFFFFFFFFFFFFFF AND DUP2 MSTORE PUSH1 0x20 ADD PUSH1 0x60 DUP2 MSTORE PUSH1 0x20 ADD PUSH1 0x0 DUP2 MSTORE PUSH1 0x20 ADD PUSH1 0x60 DUP2 MSTORE PUSH1 0x20 ADD PUSH1 0x60 DUP2 MSTORE PUSH1 0x20 ADD PUSH1 0x60 DUP2 MSTORE PUSH1 0x20 ADD PUSH1 0x60 DUP2 MSTORE PUSH1 0x20 ADD PUSH1 0x60 DUP2 MSTORE POP SWAP1 JUMP JUMPDEST PUSH1 0x0 PUSH1 0x40 MLOAD SWAP1 POP SWAP1 JUMP JUMPDEST PUSH1 0x0 DUP1 REVERT JUMPDEST PUSH1 0x0 DUP1 REVERT JUMPDEST PUSH1 0x0 PUSH20 0xFFFFFFFFFFFFFFFFFFFFFFFFFFFFFFFFFFFFFFFF DUP3 AND SWAP1 POP SWAP2 SWAP1 POP JUMP JUMPDEST PUSH1 0x0 PUSH2 0xB7E DUP3 PUSH2 0xB53 JUMP JUMPDEST SWAP1 POP SWAP2 SWAP1 POP JUMP JUMPDEST PUSH2 0xB8E DUP2 PUSH2 0xB73 JUMP JUMPDEST DUP2 EQ PUSH2 0xB99 JUMPI PUSH1 0x0 DUP1 REVERT JUMPDEST POP JUMP JUMPDEST PUSH1 0x0 DUP2 CALLDATALOAD SWAP1 POP PUSH2 0xBAB DUP2 PUSH2 0xB85 JUMP JUMPDEST SWAP3 SWAP2 POP POP JUMP JUMPDEST PUSH1 0x0 PUSH1 0x20 DUP3 DUP5 SUB SLT ISZERO PUSH2 0xBC7 JUMPI PUSH2 0xBC6 PUSH2 0xB49 JUMP JUMPDEST JUMPDEST PUSH1 0x0 PUSH2 0xBD5 DUP5 DUP3 DUP6 ADD PUSH2 0xB9C JUMP JUMPDEST SWAP2 POP POP SWAP3 SWAP2 POP POP JUMP JUMPDEST PUSH1 0x0 DUP1 REVERT JUMPDEST PUSH1 0x0 DUP1 REVERT JUMPDEST PUSH1 0x0 PUSH1 0x1F NOT PUSH1 0x1F DUP4 ADD AND SWAP1 POP SWAP2 SWAP1 POP JUMP JUMPDEST PUSH32 0x4E487B7100000000000000000000000000000000000000000000000000000000 PUSH1 0x0 MSTORE PUSH1 0x41 PUSH1 0x4 MSTORE PUSH1 0x24 PUSH1 0x0 REVERT JUMPDEST PUSH2 0xC31 DUP3 PUSH2 0xBE8 JUMP JUMPDEST DUP2 ADD DUP2 DUP2 LT PUSH8 0xFFFFFFFFFFFFFFFF DUP3 GT OR ISZERO PUSH2 0xC50 JUMPI PUSH2 0xC4F PUSH2 0xBF9 JUMP JUMPDEST JUMPDEST DUP1 PUSH1 0x40 MSTORE POP POP POP JUMP JUMPDEST PUSH1 0x0 PUSH2 0xC63 PUSH2 0xB3F JUMP JUMPDEST SWAP1 POP PUSH2 0xC6F DUP3 DUP3 PUSH2 0xC28 JUMP JUMPDEST SWAP2 SWAP1 POP JUMP JUMPDEST PUSH1 0x0 PUSH8 0xFFFFFFFFFFFFFFFF DUP3 GT ISZERO PUSH2 0xC8F JUMPI PUSH2 0xC8E PUSH2 0xBF9 JUMP JUMPDEST JUMPDEST PUSH2 0xC98 DUP3 PUSH2 0xBE8 JUMP JUMPDEST SWAP1 POP PUSH1 0x20 DUP2 ADD SWAP1 POP SWAP2 SWAP1 POP JUMP JUMPDEST DUP3 DUP2 DUP4 CALLDATACOPY PUSH1 0x0 DUP4 DUP4 ADD MSTORE POP POP POP JUMP JUMPDEST PUSH1 0x0 PUSH2 0xCC7 PUSH2 0xCC2 DUP5 PUSH2 0xC74 JUMP JUMPDEST PUSH2 0xC59 JUMP JUMPDEST SWAP1 POP DUP3 DUP2 MSTORE PUSH1 0x20 DUP2 ADD DUP5 DUP5 DUP5 ADD GT ISZERO PUSH2 0xCE3 JUMPI PUSH2 0xCE2 PUSH2 0xBE3 JUMP JUMPDEST JUMPDEST PUSH2 0xCEE DUP5 DUP3 DUP6 PUSH2 0xCA5 JUMP JUMPDEST POP SWAP4 SWAP3 POP POP POP JUMP JUMPDEST PUSH1 0x0 DUP3 PUSH1 0x1F DUP4 ADD SLT PUSH2 0xD0B JUMPI PUSH2 0xD0A PUSH2 0xBDE JUMP JUMPDEST JUMPDEST DUP2 CALLDATALOAD PUSH2 0xD1B DUP5 DUP3 PUSH1 0x20 DUP7 ADD PUSH2 0xCB4 JUMP JUMPDEST SWAP2 POP POP SWAP3 SWAP2 POP POP JUMP JUMPDEST PUSH1 0x0 DUP2 SWAP1 POP SWAP2 SWAP1 POP JUMP JUMPDEST PUSH2 0xD37 DUP2 PUSH2 0xD24 JUMP JUMPDEST DUP2 EQ PUSH2 0xD42 JUMPI PUSH1 0x0 DUP1 REVERT JUMPDEST POP JUMP JUMPDEST PUSH1 0x0 DUP2 CALLDATALOAD SWAP1 POP PUSH2 0xD54 DUP2 PUSH2 0xD2E JUMP JUMPDEST SWAP3 SWAP2 POP POP JUMP JUMPDEST PUSH1 0x0 DUP1 PUSH1 0x0 DUP1 PUSH1 0x0 DUP1 PUSH1 0x0 DUP1 PUSH2 0x100 DUP10 DUP12 SUB SLT ISZERO PUSH2 0xD7B JUMPI PUSH2 0xD7A PUSH2 0xB49 JUMP JUMPDEST JUMPDEST PUSH1 0x0 PUSH2 0xD89 DUP12 DUP3 DUP13 ADD PUSH2 0xB9C JUMP JUMPDEST SWAP9 POP POP PUSH1 0x20 DUP10 ADD CALLDATALOAD PUSH8 0xFFFFFFFFFFFFFFFF DUP2 GT ISZERO PUSH2 0xDAA JUMPI PUSH2 0xDA9 PUSH2 0xB4E JUMP JUMPDEST JUMPDEST PUSH2 0xDB6 DUP12 DUP3 DUP13 ADD PUSH2 0xCF6 JUMP JUMPDEST SWAP8 POP POP PUSH1 0x40 PUSH2 0xDC7 DUP12 DUP3 DUP13 ADD PUSH2 0xD45 JUMP JUMPDEST SWAP7 POP POP PUSH1 0x60 DUP10 ADD CALLDATALOAD PUSH8 0xFFFFFFFFFFFFFFFF DUP2 GT ISZERO PUSH2 0xDE8 JUMPI PUSH2 0xDE7 PUSH2 0xB4E JUMP JUMPDEST JUMPDEST PUSH2 0xDF4 DUP12 DUP3 DUP13 ADD PUSH2 0xCF6 JUMP JUMPDEST SWAP6 POP POP PUSH1 0x80 DUP10 ADD CALLDATALOAD PUSH8 0xFFFFFFFFFFFFFFFF DUP2 GT ISZERO PUSH2 0xE15 JUMPI PUSH2 0xE14 PUSH2 0xB4E JUMP JUMPDEST JUMPDEST PUSH2 0xE21 DUP12 DUP3 DUP13 ADD PUSH2 0xCF6 JUMP JUMPDEST SWAP5 POP POP PUSH1 0xA0 DUP10 ADD CALLDATALOAD PUSH8 0xFFFFFFFFFFFFFFFF DUP2 GT ISZERO PUSH2 0xE42 JUMPI PUSH2 0xE41 PUSH2 0xB4E JUMP JUMPDEST JUMPDEST PUSH2 0xE4E DUP12 DUP3 DUP13 ADD PUSH2 0xCF6 JUMP JUMPDEST SWAP4 POP POP PUSH1 0xC0 DUP10 ADD CALLDATALOAD PUSH8 0xFFFFFFFFFFFFFFFF DUP2 GT ISZERO PUSH2 0xE6F JUMPI PUSH2 0xE6E PUSH2 0xB4E JUMP JUMPDEST JUMPDEST PUSH2 0xE7B DUP12 DUP3 DUP13 ADD PUSH2 0xCF6 JUMP JUMPDEST SWAP3 POP POP PUSH1 0xE0 DUP10 ADD CALLDATALOAD PUSH8 0xFFFFFFFFFFFFFFFF DUP2 GT ISZERO PUSH2 0xE9C JUMPI PUSH2 0xE9B PUSH2 0xB4E JUMP JUMPDEST JUMPDEST PUSH2 0xEA8 DUP12 DUP3 DUP13 ADD PUSH2 0xCF6 JUMP JUMPDEST SWAP2 POP POP SWAP3 SWAP6 SWAP9 POP SWAP3 SWAP6 SWAP9 SWAP1 SWAP4 SWAP7 POP JUMP JUMPDEST PUSH2 0xEC1 DUP2 PUSH2 0xB73 JUMP JUMPDEST DUP3 MSTORE POP POP JUMP JUMPDEST PUSH1 0x0 DUP2 MLOAD SWAP1 POP SWAP2 SWAP1 POP JUMP JUMPDEST PUSH1 0x0 DUP3 DUP3 MSTORE PUSH1 0x20 DUP3 ADD SWAP1 POP SWAP3 SWAP2 POP POP JUMP JUMPDEST PUSH1 0x0 JUMPDEST DUP4 DUP2 LT ISZERO PUSH2 0xF01 JUMPI DUP1 DUP3 ADD MLOAD DUP2 DUP5 ADD MSTORE PUSH1 0x20 DUP2 ADD SWAP1 POP PUSH2 0xEE6 JUMP JUMPDEST PUSH1 0x0 DUP5 DUP5 ADD MSTORE POP POP POP POP JUMP JUMPDEST PUSH1 0x0 PUSH2 0xF18 DUP3 PUSH2 0xEC7 JUMP JUMPDEST PUSH2 0xF22 DUP2 DUP6 PUSH2 0xED2 JUMP JUMPDEST SWAP4 POP PUSH2 0xF32 DUP2 DUP6 PUSH1 0x20 DUP7 ADD PUSH2 0xEE3 JUMP JUMPDEST PUSH2 0xF3B DUP2 PUSH2 0xBE8 JUMP JUMPDEST DUP5 ADD SWAP2 POP POP SWAP3 SWAP2 POP POP JUMP JUMPDEST PUSH2 0xF4F DUP2 PUSH2 0xD24 JUMP JUMPDEST DUP3 MSTORE POP POP JUMP JUMPDEST PUSH1 0x0 PUSH2 0x100 DUP4 ADD PUSH1 0x0 DUP4 ADD MLOAD PUSH2 0xF6E PUSH1 0x0 DUP7 ADD DUP3 PUSH2 0xEB8 JUMP JUMPDEST POP PUSH1 0x20 DUP4 ADD MLOAD DUP5 DUP3 SUB PUSH1 0x20 DUP7 ADD MSTORE PUSH2 0xF86 DUP3 DUP3 PUSH2 0xF0D JUMP JUMPDEST SWAP2 POP POP PUSH1 0x40 DUP4 ADD MLOAD PUSH2 0xF9B PUSH1 0x40 DUP7 ADD DUP3 PUSH2 0xF46 JUMP JUMPDEST POP PUSH1 0x60 DUP4 ADD MLOAD DUP5 DUP3 SUB PUSH1 0x60 DUP7 ADD MSTORE PUSH2 0xFB3 DUP3 DUP3 PUSH2 0xF0D JUMP JUMPDEST SWAP2 POP POP PUSH1 0x80 DUP4 ADD MLOAD DUP5 DUP3 SUB PUSH1 0x80 DUP7 ADD MSTORE PUSH2 0xFCD DUP3 DUP3 PUSH2 0xF0D JUMP JUMPDEST SWAP2 POP POP PUSH1 0xA0 DUP4 ADD MLOAD DUP5 DUP3 SUB PUSH1 0xA0 DUP7 ADD MSTORE PUSH2 0xFE7 DUP3 DUP3 PUSH2 0xF0D JUMP JUMPDEST SWAP2 POP POP PUSH1 0xC0 DUP4 ADD MLOAD DUP5 DUP3 SUB PUSH1 0xC0 DUP7 ADD MSTORE PUSH2 0x1001 DUP3 DUP3 PUSH2 0xF0D JUMP JUMPDEST SWAP2 POP POP PUSH1 0xE0 DUP4 ADD MLOAD DUP5 DUP3 SUB PUSH1 0xE0 DUP7 ADD MSTORE PUSH2 0x101B DUP3 DUP3 PUSH2 0xF0D JUMP JUMPDEST SWAP2 POP POP DUP1 SWAP2 POP POP SWAP3 SWAP2 POP POP JUMP JUMPDEST PUSH1 0x0 PUSH1 0x20 DUP3 ADD SWAP1 POP DUP2 DUP2 SUB PUSH1 0x0 DUP4 ADD MSTORE PUSH2 0x1042 DUP2 DUP5 PUSH2 0xF55 JUMP JUMPDEST SWAP1 POP SWAP3 SWAP2 POP POP JUMP JUMPDEST PUSH2 0x1053 DUP2 PUSH2 0xB73 JUMP JUMPDEST DUP3 MSTORE POP POP JUMP JUMPDEST PUSH1 0x0 PUSH1 0x20 DUP3 ADD SWAP1 POP PUSH2 0x106E PUSH1 0x0 DUP4 ADD DUP5 PUSH2 0x104A JUMP JUMPDEST SWAP3 SWAP2 POP POP JUMP JUMPDEST PUSH1 0x0 DUP2 ISZERO ISZERO SWAP1 POP SWAP2 SWAP1 POP JUMP JUMPDEST PUSH2 0x1089 DUP2 PUSH2 0x1074 JUMP JUMPDEST DUP2 EQ PUSH2 0x1094 JUMPI PUSH1 0x0 DUP1 REVERT JUMPDEST POP JUMP JUMPDEST PUSH1 0x0 DUP2 MLOAD SWAP1 POP PUSH2 0x10A6 DUP2 PUSH2 0x1080 JUMP JUMPDEST SWAP3 SWAP2 POP POP JUMP JUMPDEST PUSH1 0x0 PUSH1 0x20 DUP3 DUP5 SUB SLT ISZERO PUSH2 0x10C2 JUMPI PUSH2 0x10C1 PUSH2 0xB49 JUMP JUMPDEST JUMPDEST PUSH1 0x0 PUSH2 0x10D0 DUP5 DUP3 DUP6 ADD PUSH2 0x1097 JUMP JUMPDEST SWAP2 POP POP SWAP3 SWAP2 POP POP JUMP JUMPDEST PUSH32 0x4E487B7100000000000000000000000000000000000000000000000000000000 PUSH1 0x0 MSTORE PUSH1 0x22 PUSH1 0x4 MSTORE PUSH1 0x24 PUSH1 0x0 REVERT JUMPDEST PUSH1 0x0 PUSH1 0x2 DUP3 DIV SWAP1 POP PUSH1 0x1 DUP3 AND DUP1 PUSH2 0x1120 JUMPI PUSH1 0x7F DUP3 AND SWAP2 POP JUMPDEST PUSH1 0x20 DUP3 LT DUP2 SUB PUSH2 0x1133 JUMPI PUSH2 0x1132 PUSH2 0x10D9 JUMP JUMPDEST JUMPDEST POP SWAP2 SWAP1 POP JUMP JUMPDEST PUSH1 0x0 DUP2 SWAP1 POP DUP2 PUSH1 0x0 MSTORE PUSH1 0x20 PUSH1 0x0 KECCAK256 SWAP1 POP SWAP2 SWAP1 POP JUMP JUMPDEST PUSH1 0x0 PUSH1 0x20 PUSH1 0x1F DUP4 ADD DIV SWAP1 POP SWAP2 SWAP1 POP JUMP JUMPDEST PUSH1 0x0 DUP3 DUP3 SHL SWAP1 POP SWAP3 SWAP2 POP POP JUMP JUMPDEST PUSH1 0x0 PUSH1 0x8 DUP4 MUL PUSH2 0x119B PUSH32 0xFFFFFFFFFFFFFFFFFFFFFFFFFFFFFFFFFFFFFFFFFFFFFFFFFFFFFFFFFFFFFFFF DUP3 PUSH2 0x115E JUMP JUMPDEST PUSH2 0x11A5 DUP7 DUP4 PUSH2 0x115E JUMP JUMPDEST SWAP6 POP DUP1 NOT DUP5 AND SWAP4 POP DUP1 DUP7 AND DUP5 OR SWAP3 POP POP POP SWAP4 SWAP3 POP POP POP JUMP JUMPDEST PUSH1 0x0 DUP2 SWAP1 POP SWAP2 SWAP1 POP JUMP JUMPDEST PUSH1 0x0 PUSH2 0x11E2 PUSH2 0x11DD PUSH2 0x11D8 DUP5 PUSH2 0xD24 JUMP JUMPDEST PUSH2 0x11BD JUMP JUMPDEST PUSH2 0xD24 JUMP JUMPDEST SWAP1 POP SWAP2 SWAP1 POP JUMP JUMPDEST PUSH1 0x0 DUP2 SWAP1 POP SWAP2 SWAP1 POP JUMP JUMPDEST PUSH2 0x11FC DUP4 PUSH2 0x11C7 JUMP JUMPDEST PUSH2 0x1210 PUSH2 0x1208 DUP3 PUSH2 0x11E9 JUMP JUMPDEST DUP5 DUP5 SLOAD PUSH2 0x116B JUMP JUMPDEST DUP3 SSTORE POP POP POP POP JUMP JUMPDEST PUSH1 0x0 SWAP1 JUMP JUMPDEST PUSH2 0x1225 PUSH2 0x1218 JUMP JUMPDEST PUSH2 0x1230 DUP2 DUP5 DUP5 PUSH2 0x11F3 JUMP JUMPDEST POP POP POP JUMP JUMPDEST JUMPDEST DUP2 DUP2 LT ISZERO PUSH2 0x1254 JUMPI PUSH2 0x1249 PUSH1 0x0 DUP3 PUSH2 0x121D JUMP JUMPDEST PUSH1 0x1 DUP2 ADD SWAP1 POP PUSH2 0x1236 JUMP JUMPDEST POP POP JUMP JUMPDEST PUSH1 0x1F DUP3 GT ISZERO PUSH2 0x1299 JUMPI PUSH2 0x126A DUP2 PUSH2 0x1139 JUMP JUMPDEST PUSH2 0x1273 DUP5 PUSH2 0x114E JUMP JUMPDEST DUP2 ADD PUSH1 0x20 DUP6 LT ISZERO PUSH2 0x1282 JUMPI DUP2 SWAP1 POP JUMPDEST PUSH2 0x1296 PUSH2 0x128E DUP6 PUSH2 0x114E JUMP JUMPDEST DUP4 ADD DUP3 PUSH2 0x1235 JUMP JUMPDEST POP POP JUMPDEST POP POP POP JUMP JUMPDEST PUSH1 0x0 DUP3 DUP3 SHR SWAP1 POP SWAP3 SWAP2 POP POP JUMP JUMPDEST PUSH1 0x0 PUSH2 0x12BC PUSH1 0x0 NOT DUP5 PUSH1 0x8 MUL PUSH2 0x129E JUMP JUMPDEST NOT DUP1 DUP4 AND SWAP2 POP POP SWAP3 SWAP2 POP POP JUMP JUMPDEST PUSH1 0x0 PUSH2 0x12D5 DUP4 DUP4 PUSH2 0x12AB JUMP JUMPDEST SWAP2 POP DUP3 PUSH1 0x2 MUL DUP3 OR SWAP1 POP SWAP3 SWAP2 POP POP JUMP JUMPDEST PUSH2 0x12EE DUP3 PUSH2 0xEC7 JUMP JUMPDEST PUSH8 0xFFFFFFFFFFFFFFFF DUP2 GT ISZERO PUSH2 0x1307 JUMPI PUSH2 0x1306 PUSH2 0xBF9 JUMP JUMPDEST JUMPDEST PUSH2 0x1311 DUP3 SLOAD PUSH2 0x1108 JUMP JUMPDEST PUSH2 0x131C DUP3 DUP3 DUP6 PUSH2 0x1258 JUMP JUMPDEST PUSH1 0x0 PUSH1 0x20 SWAP1 POP PUSH1 0x1F DUP4 GT PUSH1 0x1 DUP2 EQ PUSH2 0x134F JUMPI PUSH1 0x0 DUP5 ISZERO PUSH2 0x133D JUMPI DUP3 DUP8 ADD MLOAD SWAP1 POP JUMPDEST PUSH2 0x1347 DUP6 DUP3 PUSH2 0x12C9 JUMP JUMPDEST DUP7 SSTORE POP PUSH2 0x13AF JUMP JUMPDEST PUSH1 0x1F NOT DUP5 AND PUSH2 0x135D DUP7 PUSH2 0x1139 JUMP JUMPDEST PUSH1 0x0 JUMPDEST DUP3 DUP2 LT ISZERO PUSH2 0x1385 JUMPI DUP5 DUP10 ADD MLOAD DUP3 SSTORE PUSH1 0x1 DUP3 ADD SWAP2 POP PUSH1 0x20 DUP6 ADD SWAP5 POP PUSH1 0x20 DUP2 ADD SWAP1 POP PUSH2 0x1360 JUMP JUMPDEST DUP7 DUP4 LT ISZERO PUSH2 0x13A2 JUMPI DUP5 DUP10 ADD MLOAD PUSH2 0x139E PUSH1 0x1F DUP10 AND DUP3 PUSH2 0x12AB JUMP JUMPDEST DUP4 SSTORE POP JUMPDEST PUSH1 0x1 PUSH1 0x2 DUP9 MUL ADD DUP9 SSTORE POP POP POP JUMPDEST POP POP POP POP POP POP JUMP JUMPDEST PUSH1 0x0 PUSH1 0x40 DUP3 ADD SWAP1 POP PUSH2 0x13CC PUSH1 0x0 DUP4 ADD DUP6 PUSH2 0x104A JUMP JUMPDEST PUSH2 0x13D9 PUSH1 0x20 DUP4 ADD DUP5 PUSH2 0x104A JUMP JUMPDEST SWAP4 SWAP3 POP POP POP JUMP INVALID LOG2 PUSH5 0x6970667358 0x22 SLT KECCAK256 POP 0xBA SLT PUSH11 0x425146D4968117B08A06B0 NOT 0xBD 0xB6 0xE6 0x4B 0x4D 0xC0 0xE4 0x2E PUSH8 0x28CBEF4F01E80264 PUSH20 0x6F6C634300081100330000000000000000000000 "},"gasEstimates":{"creation":{"codeDepositCost":"1028400","executionCost":"infinite","totalCost":"infinite"},"external":{"getPatientData(address)":"infinite","setDoctorRelationAddress(address)":"24810","setDoctorVerificatorAddress(address)":"24700","setPatientData(address,string,uint256,string,string,string,string,string)":"infinite","setPatientVerificatorAddress(address)":"24788","updatePatientData(address,string,uint256,string,string,string,string,string)":"infinite"}},"methodIdentifiers":{"getPatientData(address)":"48e81852","setDoctorRelationAddress(address)":"7621df6f","setDoctorVerificatorAddress(address)":"1107747e","setPatientData(address,string,uint256,string,string,string,string,string)":"26c01f7d","setPatientVerificatorAddress(address)":"5db185c7","updatePatientData(address,string,uint256,string,string,string,string,string)":"52a6042d"}},"storageLayout":{"storage":[{"astId":155,"contract":"ElectronicMedicalRecords.sol:Patient","label":"Patient_Data","offset":0,"slot":"0","type":"t_mapping(t_address,t_struct(PatientData)150_storage)"},{"astId":157,"contract":"ElectronicMedicalRecords.sol:Patient","label":"admin","offset":0,"slot":"1","type":"t_address"},{"astId":160,"contract":"ElectronicMedicalRecords.sol:Patient","label":"doctor_verificator","offset":0,"slot":"2","type":"t_contract(DoctorVerificator)592"},{"astId":163,"contract":"ElectronicMedicalRecords.sol:Patient","label":"patient_verificator","offset":0,"slot":"3","type":"t_contract(PatientVerificator)505"},{"astId":166,"contract":"ElectronicMedicalRecords.sol:Patient","label":"doctor_relation","offset":0,"slot":"4","type":"t_contract(DoctorRelation)681"}],"types":{"t_address":{"encoding":"inplace","label":"address","numberOfBytes":"20"},"t_contract(DoctorRelation)681":{"encoding":"inplace","label":"contract DoctorRelation","numberOfBytes":"20"},"t_contract(DoctorVerificator)592":{"encoding":"inplace","label":"contract DoctorVerificator","numberOfBytes":"20"},"t_contract(PatientVerificator)505":{"encoding":"inplace","label":"contract PatientVerificator","numberOfBytes":"20"},"t_mapping(t_address,t_struct(PatientData)150_storage)":{"encoding":"mapping","key":"t_address","label":"mapping(address => struct Patient.PatientData)","numberOfBytes":"32","value":"t_struct(PatientData)150_storage"},"t_string_storage":{"encoding":"bytes","label":"string","numberOfBytes":"32"},"t_struct(PatientData)150_storage":{"encoding":"inplace","label":"struct Patient.PatientData","members":[{"astId":135,"contract":"ElectronicMedicalRecords.sol:Patient","label":"patientAddress","offset":0,"slot":"0","type":"t_address"},{"astId":137,"contract":"ElectronicMedicalRecords.sol:Patient","label":"nama_lengkap","offset":0,"slot":"1","type":"t_string_storage"},{"astId":139,"contract":"ElectronicMedicalRecords.sol:Patient","label":"umur","offset":0,"slot":"2","type":"t_uint256"},{"astId":141,"contract":"ElectronicMedicalRecords.sol:Patient","label":"tanggal_lahir","offset":0,"slot":"3","type":"t_string_storage"},{"astId":143,"contract":"ElectronicMedicalRecords.sol:Patient","label":"tanggal_masuk","offset":0,"slot":"4","type":"t_string_storage"},{"astId":145,"contract":"ElectronicMedicalRecords.sol:Patient","label":"tanggal_keluar","offset":0,"slot":"5","type":"t_string_storage"},{"astId":147,"contract":"ElectronicMedicalRecords.sol:Patient","label":"anamnesis","offset":0,"slot":"6","type":"t_string_storage"},{"astId":149,"contract":"ElectronicMedicalRecords.sol:Patient","label":"diagnosis","offset":0,"slot":"7","type":"t_string_storage"}],"numberOfBytes":"256"},"t_uint256":{"encoding":"inplace","label":"uint256","numberOfBytes":"32"}}},"userdoc":{"kind":"user","methods":{},"version":1}}